{
  "contractName": "BancoEnergia",
  "abi": [
    {
      "inputs": [
        {
          "internalType": "contract ReguladorMercado",
          "name": "_regulador",
          "type": "address"
        }
      ],
      "stateMutability": "nonpayable",
      "type": "constructor"
    },
    {
      "inputs": [],
      "name": "dirContrato",
      "outputs": [
        {
          "internalType": "address",
          "name": "",
          "type": "address"
        }
      ],
      "stateMutability": "view",
      "type": "function",
      "constant": true
    },
    {
      "inputs": [],
      "name": "owner",
      "outputs": [
        {
          "internalType": "address",
          "name": "",
          "type": "address"
        }
      ],
      "stateMutability": "view",
      "type": "function",
      "constant": true
    },
    {
      "inputs": [],
      "name": "getTiposEnergiasDisponibles",
      "outputs": [
        {
          "components": [
            {
              "internalType": "string",
              "name": "nombre",
              "type": "string"
            },
            {
              "internalType": "uint256",
              "name": "cantidadEnergia",
              "type": "uint256"
            },
            {
              "internalType": "uint256",
              "name": "precio",
              "type": "uint256"
            }
          ],
          "internalType": "struct BancoEnergia.InfoEnergia[]",
          "name": "",
          "type": "tuple[]"
        }
      ],
      "stateMutability": "view",
      "type": "function",
      "constant": true
    },
    {
      "inputs": [
        {
          "internalType": "string",
          "name": "_nombre",
          "type": "string"
        },
        {
          "internalType": "uint256",
          "name": "_cantidadEnergia",
          "type": "uint256"
        },
        {
          "internalType": "enum Operacion",
          "name": "_operacion",
          "type": "uint8"
        }
      ],
      "name": "onCantidadEnergiaChange",
      "outputs": [],
      "stateMutability": "nonpayable",
      "type": "function"
    }
  ],
  "bytecode": "0x60806040523480156200001157600080fd5b506040516200266138038062002661833981016040819052620000349162000218565b60008054336001600160a01b0319918216179091556001805430908316179055600280549091166001600160a01b03831617905560405162000076906200020a565b604051809103906000f08015801562000093573d6000803e3d6000fd5b50600480546001600160a01b0319166001600160a01b039290921691909117905560408051808201909152600581526439b7b630b960d91b6020820152620000dd9060006200010e565b604080518082019091526006815265656f6c69636160d01b6020820152620001079060006200010e565b50620002b5565b60005433906001600160a01b031681146200012857600080fd5b6004805460405163259e757760e01b81526000926001600160a01b039092169163259e7577916200015e9188918891016200023e565b602060405180830381600087803b1580156200017957600080fd5b505af11580156200018e573d6000803e3d6000fd5b505050506040513d601f19601f82011682018060405250810190620001b4919062000218565b600380546001810182556000919091527fc2575a0e9e593c00f959f8c92f12db2869c3395a3b0502d05e2516446f71f85b0180546001600160a01b0319166001600160a01b039290921691909117905550505050565b611404806200125d83390190565b6000602082840312156200022a578081fd5b815162000237816200029c565b9392505050565b6000604082528351806040840152815b818110156200026d57602081870181015160608684010152016200024e565b818111156200027f5782606083860101525b50602083019390935250601f91909101601f191601606001919050565b6001600160a01b0381168114620002b257600080fd5b50565b610f9880620002c56000396000f3fe608060405234801561001057600080fd5b506004361061004c5760003560e01c806317759f3014610051578063856788df146100665780638da5cb5b14610084578063ace1f19f1461008c575b600080fd5b61006461005f366004610af5565b6100a1565b005b61006e61048f565b60405161007b9190610c32565b60405180910390f35b61006e61049e565b6100946104ad565b60405161007b9190610dfc565b33600073__Validations___________________________6312032a3733600260009054906101000a90046001600160a01b03166001600160a01b031663a28fe68c6040518163ffffffff1660e01b815260040160006040518083038186803b15801561010d57600080fd5b505afa158015610121573d6000803e3d6000fd5b505050506040513d6000823e601f3d908101601f1916820160405261014991908101906109fc565b6040518363ffffffff1660e01b8152600401610166929190610c46565b60006040518083038186803b15801561017e57600080fd5b505af4158015610192573d6000803e3d6000fd5b505050506040513d6000823e601f3d908101601f191682016040526101ba9190810190610b8c565b90506002816020015160048111156101e257634e487b7160e01b600052602160045260246000fd5b146101ec57600080fd5b60005b600354811015610487576003818154811061021a57634e487b7160e01b600052603260045260246000fd5b600091825260208220015460408051635e3d9ad960e11b815290516001600160a01b039092169263bc7b35b292600480840193829003018186803b15801561026157600080fd5b505afa158015610275573d6000803e3d6000fd5b505050506040513d6000823e601f3d908101601f1916820160405261029d9190810190610ac2565b6040516388d8da5f60e01b815273__StringLibrary_________________________916388d8da5f916102d591908a90600401610e6c565b60206040518083038186803b1580156102ed57600080fd5b505af4158015610301573d6000803e3d6000fd5b505050506040513d601f19601f820116820180604052508101906103259190610a9b565b1561047557600084600181111561034c57634e487b7160e01b600052602160045260246000fd5b14156103e3576003818154811061037357634e487b7160e01b600052603260045260246000fd5b60009182526020909120015460405163f5a5058960e01b81526001600160a01b039091169063f5a50589906103ac908890600401610e9a565b600060405180830381600087803b1580156103c657600080fd5b505af11580156103da573d6000803e3d6000fd5b50505050610470565b6003818154811061040457634e487b7160e01b600052603260045260246000fd5b60009182526020909120015460405163b0b6d16160e01b81526001600160a01b039091169063b0b6d1619061043d908890600401610e9a565b600060405180830381600087803b15801561045757600080fd5b505af115801561046b573d6000803e3d6000fd5b505050505b610487565b8061047f81610f25565b9150506101ef565b505050505050565b6001546001600160a01b031681565b6000546001600160a01b031681565b60035460609060009067ffffffffffffffff8111156104dc57634e487b7160e01b600052604160045260246000fd5b60405190808252806020026020018201604052801561051557816020015b61050261076f565b8152602001906001900390816104fa5790505b50905060005b60035481101561076957600060405180606001604052806003848154811061055357634e487b7160e01b600052603260045260246000fd5b600091825260208220015460408051635e3d9ad960e11b815290516001600160a01b039092169263bc7b35b292600480840193829003018186803b15801561059a57600080fd5b505afa1580156105ae573d6000803e3d6000fd5b505050506040513d6000823e601f3d908101601f191682016040526105d69190810190610ac2565b8152602001600384815481106105fc57634e487b7160e01b600052603260045260246000fd5b6000918252602091829020015460408051632b93de9360e21b815290516001600160a01b039092169263ae4f7a4c92600480840193829003018186803b15801561064557600080fd5b505afa158015610659573d6000803e3d6000fd5b505050506040513d601f19601f8201168201806040525081019061067d9190610bbf565b8152602001600384815481106106a357634e487b7160e01b600052603260045260246000fd5b6000918252602091829020015460408051633deb12bd60e21b815290516001600160a01b039092169263f7ac4af492600480840193829003018186803b1580156106ec57600080fd5b505afa158015610700573d6000803e3d6000fd5b505050506040513d601f19601f820116820180604052508101906107249190610bbf565b81525090508083838151811061074a57634e487b7160e01b600052603260045260246000fd5b602002602001018190525050808061076190610f25565b91505061051b565b50905090565b60405180606001604052806060815260200160008152602001600081525090565b80516001600160a01b03811681146107a757600080fd5b919050565b8051600581106107a757600080fd5b600082601f8301126107cb578081fd5b81516107de6107d982610ecd565b610ea3565b8181528460208386010111156107f2578283fd5b610803826020830160208701610ef5565b949350505050565b6000604080838503121561081d578182fd5b805181810167ffffffffffffffff828210818311171561083f5761083f610f4c565b818452829450855191508082111561085657600080fd5b818601915061018080838903121561086d57600080fd5b61087681610ea3565b905061088183610790565b815261088f60208401610790565b602082015284830151828111156108a557600080fd5b6108b1898286016107bb565b868301525060608301519450818511156108ca57600080fd5b6108d6888685016107bb565b606082015260808301519450818511156108ef57600080fd5b6108fb888685016107bb565b608082015260a083015194508185111561091457600080fd5b610920888685016107bb565b60a082015260c083015194508185111561093957600080fd5b610945888685016107bb565b60c082015260e083015194508185111561095e57600080fd5b61096a888685016107bb565b60e08201526101009450848301518281111561098557600080fd5b610991898286016107bb565b8683015250610120945084830151828111156109ac57600080fd5b6109b8898286016107bb565b868301525061014094506109cd858401610790565b948101949094525061016090810151818401529181526109ef602085016107ac565b6020820152505092915050565b60006020808385031215610a0e578182fd5b825167ffffffffffffffff80821115610a25578384fd5b818501915085601f830112610a38578384fd5b815181811115610a4a57610a4a610f4c565b610a578485830201610ea3565b8181528481019250838501865b83811015610a8d57610a7b8a88845189010161080b565b85529386019390860190600101610a64565b509098975050505050505050565b600060208284031215610aac578081fd5b81518015158114610abb578182fd5b9392505050565b600060208284031215610ad3578081fd5b815167ffffffffffffffff811115610ae9578182fd5b610803848285016107bb565b600080600060608486031215610b09578182fd5b833567ffffffffffffffff811115610b1f578283fd5b8401601f81018613610b2f578283fd5b8035610b3d6107d982610ecd565b818152876020838501011115610b51578485fd5b81602084016020830137846020838301015280955050505060208401359150604084013560028110610b81578182fd5b809150509250925092565b600060208284031215610b9d578081fd5b815167ffffffffffffffff811115610bb3578182fd5b6108038482850161080b565b600060208284031215610bd0578081fd5b5051919050565b6001600160a01b03169052565b60058110610c0257634e487b7160e01b600052602160045260246000fd5b9052565b60008151808452610c1e816020860160208601610ef5565b601f01601f19169290920160200192915050565b6001600160a01b0391909116815260200190565b6001600160a01b0383168152604060208083018290528351838301819052600092916060918286019080830287018401888401875b83811015610dec57605f198a840301855281518051898552610ca08a86018251610bd7565b87810151610cb08a870182610bd7565b508981015161018060808181890152610ccd6101c0890184610c06565b92508b840151603f1960a0818b870301818c0152610ceb8684610c06565b955083870151935060c09250818b870301838c0152610d0a8685610c06565b95508087015193505060e0818b870301818c0152610d288685610c06565b95508287015193506101009250818b870301838c0152610d488685610c06565b955080870151935050610120818b870301818c0152610d678685610c06565b95508287015193506101409250818b870301838c0152610d878685610c06565b955080870151935050610160818b870301818c0152610da68685610c06565b9550828701519350610dba858c0185610bd7565b8601516101a08b0152505050509188015191610dd889870184610be4565b968801969450505090850190600101610c7b565b50909a9950505050505050505050565b60208082528251828201819052600091906040908185019080840286018301878501865b83811015610a8d57603f19898403018552815160608151818652610e4682870182610c06565b838b0151878c015292890151958901959095525094870194925090860190600101610e20565b600060408252610e7f6040830185610c06565b8281036020840152610e918185610c06565b95945050505050565b90815260200190565b60405181810167ffffffffffffffff81118282101715610ec557610ec5610f4c565b604052919050565b600067ffffffffffffffff821115610ee757610ee7610f4c565b50601f01601f191660200190565b60005b83811015610f10578181015183820152602001610ef8565b83811115610f1f576000848401525b50505050565b6000600019821415610f4557634e487b7160e01b81526011600452602481fd5b5060010190565b634e487b7160e01b600052604160045260246000fdfea26469706673582212208b68fa2c06689336842219c2d9bdc49963ed742927da8a20ef8cf517ca4b7fed64736f6c63430008000033600560c09081526439b7b630b960d91b60e0526080908152610140604052600661010090815265656f6c69636160d01b6101205260a052610044906000906002610057565b5034801561005157600080fd5b506101e0565b8280548282559060005260206000209081019282156100a4579160200282015b828111156100a457825180516100949184916020909101906100b4565b5091602001919060010190610077565b506100b0929150610134565b5090565b8280546100c0906101a5565b90600052602060002090601f0160209004810192826100e25760008555610128565b82601f106100fb57805160ff1916838001178555610128565b82800160010185558215610128579182015b8281111561012857825182559160200191906001019061010d565b506100b0929150610151565b808211156100b05760006101488282610166565b50600101610134565b5b808211156100b05760008155600101610152565b508054610172906101a5565b6000825580601f1061018457506101a2565b601f0160209004906000526020600020908101906101a29190610151565b50565b6002810460018216806101b957607f821691505b602082108114156101da57634e487b7160e01b600052602260045260246000fd5b50919050565b611215806101ef6000396000f3fe608060405234801561001057600080fd5b50600436106100365760003560e01c8063259e75771461003b5780636d4fe5c714610064575b600080fd5b61004e610049366004610338565b610084565b60405161005b9190610473565b60405180910390f35b6100776100723660046103df565b61024b565b60405161005b9190610487565b6040516388d8da5f60e01b81526000908190819073__StringLibrary_________________________906388d8da5f906100c290889060040161049a565b60206040518083038186803b1580156100da57600080fd5b505af41580156100ee573d6000803e3d6000fd5b505050506040513d601f19601f820116820180604052508101906101129190610311565b156101565783604051610124906102f7565b61012e9190610562565b604051809103906000f08015801561014a573d6000803e3d6000fd5b5091506001905061021d565b6040516388d8da5f60e01b815273__StringLibrary_________________________906388d8da5f9061018d9088906004016104c6565b60206040518083038186803b1580156101a557600080fd5b505af41580156101b9573d6000803e3d6000fd5b505050506040513d601f19601f820116820180604052508101906101dd9190610311565b1561021d57836040516101ef90610304565b6101f99190610582565b604051809103906000f080158015610215573d6000803e3d6000fd5b509150600190505b806102435760405162461bcd60e51b815260040161023a906104ea565b60405180910390fd5b509392505050565b6000818154811061025b57600080fd5b90600052602060002001600091509050805461027690610594565b80601f01602080910402602001604051908101604052809291908181526020018280546102a290610594565b80156102ef5780601f106102c4576101008083540402835291602001916102ef565b820191906000526020600020905b8154815290600101906020018083116102d257829003601f168201915b505050505081565b6105fd806105e683390190565b6105fd80610be383390190565b600060208284031215610322578081fd5b81518015158114610331578182fd5b9392505050565b6000806040838503121561034a578081fd5b823567ffffffffffffffff80821115610361578283fd5b818501915085601f830112610374578283fd5b8135602082821115610388576103886105cf565b604051601f8301601f19168101820184811182821017156103ab576103ab6105cf565b60405282815284830182018910156103c1578586fd5b82828601838301379182018101949094529694909201359450505050565b6000602082840312156103f0578081fd5b5035919050565b60008151808452815b8181101561041c57602081850181015186830182015201610400565b8181111561042d5782602083870101525b50601f01601f19169290920160200192915050565b600581526439b7b630b960d91b602082015260400190565b6006815265656f6c69636160d01b602082015260400190565b6001600160a01b0391909116815260200190565b60006020825261033160208301846103f7565b6000604082526104ad60408301846103f7565b82810360208401526104be81610442565b949350505050565b6000604082526104d960408301846103f7565b82810360208401526104be8161045a565b60208082526052908201527f4e6f20657320756e207469706f20646520656e65726769612076616c69646f2c60408201527f206c6f73207469706f732076616c69646f7320736f6e3a20736f6c61722c20656060820152716f6c696361206f206869647261756c69636160701b608082015260a00190565b60006040825261057460408301610442565b905082602083015292915050565b6000604082526105746040830161045a565b6002810460018216806105a857607f821691505b602082108114156105c957634e487b7160e01b600052602260045260246000fd5b50919050565b634e487b7160e01b600052604160045260246000fdfe608060405234801561001057600080fd5b506040516105fd3803806105fd83398101604081905261002f916100e5565b815161004290600090602085019061004c565b5060025550610200565b828054610058906101af565b90600052602060002090601f01602090048101928261007a57600085556100c0565b82601f1061009357805160ff19168380011785556100c0565b828001600101855582156100c0579182015b828111156100c05782518255916020019190600101906100a5565b506100cc9291506100d0565b5090565b5b808211156100cc57600081556001016100d1565b600080604083850312156100f7578182fd5b82516001600160401b038082111561010d578384fd5b818501915085601f830112610120578384fd5b815181811115610132576101326101ea565b6040516020601f8301601f1916820181018481118382101715610157576101576101ea565b604052828252848301810189101561016d578687fd5b8693505b8284101561018e5784840181015182850182015292830192610171565b8284111561019e57868184840101525b969096015195979596505050505050565b6002810460018216806101c357607f821691505b602082108114156101e457634e487b7160e01b600052602260045260246000fd5b50919050565b634e487b7160e01b600052604160045260246000fd5b6103ee8061020f6000396000f3fe608060405234801561001057600080fd5b50600436106100885760003560e01c8063bc7b35b21161005b578063bc7b35b2146100d0578063cb86d6e6146100e5578063f5a50589146100ed578063f7ac4af41461010057610088565b80639be0b8001461008d5780639e66e0f3146100ab578063ae4f7a4c146100b3578063b0b6d161146100bb575b600080fd5b610095610108565b6040516100a2919061032f565b60405180910390f35b61009561010e565b610095610114565b6100ce6100c93660046102c4565b61011a565b005b6100d8610131565b6040516100a291906102dc565b6100d86101bf565b6100ce6100fb3660046102c4565b610251565b610095610261565b60025490565b60015481565b60025481565b60025460009061012a9083610266565b6002555050565b6000805461013e90610367565b80601f016020809104026020016040519081016040528092919081815260200182805461016a90610367565b80156101b75780601f1061018c576101008083540402835291602001916101b7565b820191906000526020600020905b81548152906001019060200180831161019a57829003601f168201915b505050505081565b6060600080546101ce90610367565b80601f01602080910402602001604051908101604052809291908181526020018280546101fa90610367565b80156102475780601f1061021c57610100808354040283529160200191610247565b820191906000526020600020905b81548152906001019060200180831161022a57829003601f168201915b5050505050905090565b60025460009061012a9083610297565b600390565b60008282111561028657634e487b7160e01b600052600160045260246000fd5b6102908284610350565b9392505050565b6000806102a48385610338565b90508381101561029057634e487b7160e01b600052600160045260246000fd5b6000602082840312156102d5578081fd5b5035919050565b6000602080835283518082850152825b81811015610308578581018301518582016040015282016102ec565b818111156103195783604083870101525b50601f01601f1916929092016040019392505050565b90815260200190565b6000821982111561034b5761034b6103a2565b500190565b600082821015610362576103626103a2565b500390565b60028104600182168061037b57607f821691505b6020821081141561039c57634e487b7160e01b600052602260045260246000fd5b50919050565b634e487b7160e01b600052601160045260246000fdfea2646970667358221220522a642ffda458c3b6d2087ad5c6ffbde8123f97b9141f11c750a44dcb8cc2db64736f6c63430008000033608060405234801561001057600080fd5b506040516105fd3803806105fd83398101604081905261002f916100e5565b815161004290600090602085019061004c565b5060025550610200565b828054610058906101af565b90600052602060002090601f01602090048101928261007a57600085556100c0565b82601f1061009357805160ff19168380011785556100c0565b828001600101855582156100c0579182015b828111156100c05782518255916020019190600101906100a5565b506100cc9291506100d0565b5090565b5b808211156100cc57600081556001016100d1565b600080604083850312156100f7578182fd5b82516001600160401b038082111561010d578384fd5b818501915085601f830112610120578384fd5b815181811115610132576101326101ea565b6040516020601f8301601f1916820181018481118382101715610157576101576101ea565b604052828252848301810189101561016d578687fd5b8693505b8284101561018e5784840181015182850182015292830192610171565b8284111561019e57868184840101525b969096015195979596505050505050565b6002810460018216806101c357607f821691505b602082108114156101e457634e487b7160e01b600052602260045260246000fd5b50919050565b634e487b7160e01b600052604160045260246000fd5b6103ee8061020f6000396000f3fe608060405234801561001057600080fd5b50600436106100885760003560e01c8063bc7b35b21161005b578063bc7b35b2146100d0578063cb86d6e6146100e5578063f5a50589146100ed578063f7ac4af41461010057610088565b80639be0b8001461008d5780639e66e0f3146100ab578063ae4f7a4c146100b3578063b0b6d161146100bb575b600080fd5b610095610108565b6040516100a2919061032f565b60405180910390f35b61009561010e565b610095610114565b6100ce6100c93660046102c4565b61011a565b005b6100d8610131565b6040516100a291906102dc565b6100d86101bf565b6100ce6100fb3660046102c4565b610251565b610095610261565b60025490565b60015481565b60025481565b60025460009061012a9083610266565b6002555050565b6000805461013e90610367565b80601f016020809104026020016040519081016040528092919081815260200182805461016a90610367565b80156101b75780601f1061018c576101008083540402835291602001916101b7565b820191906000526020600020905b81548152906001019060200180831161019a57829003601f168201915b505050505081565b6060600080546101ce90610367565b80601f01602080910402602001604051908101604052809291908181526020018280546101fa90610367565b80156102475780601f1061021c57610100808354040283529160200191610247565b820191906000526020600020905b81548152906001019060200180831161022a57829003601f168201915b5050505050905090565b60025460009061012a9083610297565b600290565b60008282111561028657634e487b7160e01b600052600160045260246000fd5b6102908284610350565b9392505050565b6000806102a48385610338565b90508381101561029057634e487b7160e01b600052600160045260246000fd5b6000602082840312156102d5578081fd5b5035919050565b6000602080835283518082850152825b81811015610308578581018301518582016040015282016102ec565b818111156103195783604083870101525b50601f01601f1916929092016040019392505050565b90815260200190565b6000821982111561034b5761034b6103a2565b500190565b600082821015610362576103626103a2565b500390565b60028104600182168061037b57607f821691505b6020821081141561039c57634e487b7160e01b600052602260045260246000fd5b50919050565b634e487b7160e01b600052601160045260246000fdfea2646970667358221220ae17df97da482874c997dd27f5d737eb79494328e54686bdd4271c62b1375a6364736f6c63430008000033a2646970667358221220d99a428a72c6953f8d33181f6c65fc8baf03cd230ccf39605b8b02aaaf9de8de64736f6c63430008000033",
  "immutableReferences": {},
  "source": "// SPDX-License-Identifier: MIT\r\npragma solidity >=0.4.22 <0.9.0;\r\npragma experimental ABIEncoderV2;\r\nimport \"./models/InfoContrato.sol\";\r\nimport \"./models/TipoEnergia.sol\";\r\nimport \"./models/TipoEnergiaFactory.sol\";\r\nimport \"./ReguladorMercado.sol\";\r\nimport \"./libraries/StringLibrary.sol\";\r\nimport \"./libraries/Validations.sol\";\r\n\r\ncontract BancoEnergia {\r\n    using StringLibrary for string;\r\n    address public owner;\r\n    address public dirContrato;\r\n    ReguladorMercado private reguladorMercado;\r\n    TipoEnergia[] private tiposEnergiasDisponibles;\r\n    TipoEnergiaFactory private factoryEnergia;\r\n\r\n    struct InfoEnergia {\r\n        string nombre;\r\n        uint256 cantidadEnergia;\r\n        uint256 precio;\r\n    }\r\n\r\n    modifier authorize(address direction) {\r\n        require(direction == owner);\r\n        _;\r\n    }\r\n\r\n    modifier canChangeCantidad(address direction) {\r\n        SolicitudContrato memory solicitud = Validations.getInfoContrato(\r\n            msg.sender,\r\n            reguladorMercado.getRegistros()\r\n        );\r\n        require(solicitud.tipoContrato == TiposContratos.Generador);\r\n        _;\r\n    }\r\n\r\n    constructor(ReguladorMercado _regulador) {\r\n        owner = msg.sender;\r\n        dirContrato = address(this);\r\n        reguladorMercado = _regulador;\r\n        factoryEnergia = new TipoEnergiaFactory();\r\n        setEnergiaDisponible(\"solar\", 0);\r\n        setEnergiaDisponible(\"eolica\", 0);\r\n    }\r\n\r\n    function getTiposEnergiasDisponibles()\r\n        public\r\n        view\r\n        returns (InfoEnergia[] memory)\r\n    {\r\n        InfoEnergia[] memory infoEnergias = new InfoEnergia[](\r\n            tiposEnergiasDisponibles.length\r\n        );\r\n        for (uint256 i = 0; i < tiposEnergiasDisponibles.length; i++) {\r\n            InfoEnergia memory infoEnergia = InfoEnergia(\r\n                tiposEnergiasDisponibles[i].nombre(),\r\n                tiposEnergiasDisponibles[i].cantidadEnergia(),\r\n                tiposEnergiasDisponibles[i].calcularPrecio()\r\n            );\r\n            infoEnergias[i] = infoEnergia;\r\n        }\r\n        return infoEnergias;\r\n    }\r\n\r\n    function onCantidadEnergiaChange(\r\n        string memory _nombre,\r\n        uint256 _cantidadEnergia,\r\n        Operacion _operacion\r\n    ) external canChangeCantidad(msg.sender) {\r\n        for (uint256 i = 0; i < tiposEnergiasDisponibles.length; i++) {\r\n            if (tiposEnergiasDisponibles[i].nombre().equals(_nombre)) {\r\n                if (_operacion == Operacion.adicionar) {\r\n                    tiposEnergiasDisponibles[i].addCantidadEnergia(\r\n                        _cantidadEnergia\r\n                    );\r\n                } else {\r\n                    tiposEnergiasDisponibles[i].restarCantidadEnergia(\r\n                        _cantidadEnergia\r\n                    );\r\n                }\r\n                break;\r\n            }\r\n        }\r\n    }\r\n\r\n    function setEnergiaDisponible(string memory _nombre, uint256 _cantidad)\r\n        private\r\n        authorize(msg.sender)\r\n    {\r\n        TipoEnergia tipoEnergia = factoryEnergia.generarNuevaEnergia(\r\n            _nombre,\r\n            _cantidad\r\n        );\r\n        tiposEnergiasDisponibles.push(tipoEnergia);\r\n    }\r\n}\r\n",
  "sourcePath": "D:\\Santiago\\BlockChain\\DemoMvmTruffle\\contracts\\BancoEnergia.sol",
  "compiler": {
    "name": "solc",
    "version": "0.8.0+commit.c7dfd78e.Emscripten.clang"
  },
  "schemaVersion": "3.4.4",
  "updatedAt": "2022-07-14T20:28:47.746Z",
  "networkType": "ethereum",
  "devdoc": {
    "kind": "dev",
    "methods": {},
    "version": 1
  },
  "userdoc": {
    "kind": "user",
    "methods": {},
    "version": 1
  }
}