{
  "contractName": "BancoEnergia",
  "abi": [
    {
      "inputs": [
        {
          "internalType": "contract ReguladorMercado",
          "name": "_regulador",
          "type": "address"
        }
      ],
      "stateMutability": "nonpayable",
      "type": "constructor"
    },
    {
      "anonymous": false,
      "inputs": [
        {
          "components": [
            {
              "internalType": "string",
              "name": "nombre",
              "type": "string"
            },
            {
              "internalType": "uint256",
              "name": "cantidadEnergia",
              "type": "uint256"
            },
            {
              "internalType": "uint256",
              "name": "precio",
              "type": "uint256"
            }
          ],
          "indexed": false,
          "internalType": "struct InfoEnergia",
          "name": "",
          "type": "tuple"
        }
      ],
      "name": "cambioDeEnergia",
      "type": "event"
    },
    {
      "inputs": [],
      "name": "dirContrato",
      "outputs": [
        {
          "internalType": "address",
          "name": "",
          "type": "address"
        }
      ],
      "stateMutability": "view",
      "type": "function",
      "constant": true
    },
    {
      "inputs": [],
      "name": "owner",
      "outputs": [
        {
          "internalType": "address",
          "name": "",
          "type": "address"
        }
      ],
      "stateMutability": "view",
      "type": "function",
      "constant": true
    },
    {
      "inputs": [],
      "name": "getTiposEnergiasDisponibles",
      "outputs": [
        {
          "components": [
            {
              "internalType": "string",
              "name": "nombre",
              "type": "string"
            },
            {
              "internalType": "uint256",
              "name": "cantidadEnergia",
              "type": "uint256"
            },
            {
              "internalType": "uint256",
              "name": "precio",
              "type": "uint256"
            }
          ],
          "internalType": "struct InfoEnergia[]",
          "name": "",
          "type": "tuple[]"
        }
      ],
      "stateMutability": "view",
      "type": "function",
      "constant": true
    },
    {
      "inputs": [
        {
          "internalType": "string",
          "name": "_nombre",
          "type": "string"
        },
        {
          "internalType": "uint256",
          "name": "_cantidadEnergia",
          "type": "uint256"
        },
        {
          "internalType": "enum Operacion",
          "name": "_operacion",
          "type": "uint8"
        }
      ],
      "name": "onCantidadEnergiaChange",
      "outputs": [],
      "stateMutability": "nonpayable",
      "type": "function"
    }
  ],
  "bytecode": "0x60806040523480156200001157600080fd5b506040516200280238038062002802833981016040819052620000349162000218565b60008054336001600160a01b0319918216179091556001805430908316179055600280549091166001600160a01b03831617905560405162000076906200020a565b604051809103906000f08015801562000093573d6000803e3d6000fd5b50600480546001600160a01b0319166001600160a01b039290921691909117905560408051808201909152600581526439b7b630b960d91b6020820152620000dd9060006200010e565b604080518082019091526006815265656f6c69636160d01b6020820152620001079060006200010e565b50620002b5565b60005433906001600160a01b031681146200012857600080fd5b6004805460405163259e757760e01b81526000926001600160a01b039092169163259e7577916200015e9188918891016200023e565b602060405180830381600087803b1580156200017957600080fd5b505af11580156200018e573d6000803e3d6000fd5b505050506040513d601f19601f82011682018060405250810190620001b4919062000218565b600380546001810182556000919091527fc2575a0e9e593c00f959f8c92f12db2869c3395a3b0502d05e2516446f71f85b0180546001600160a01b0319166001600160a01b039290921691909117905550505050565b6113e3806200141f83390190565b6000602082840312156200022a578081fd5b815162000237816200029c565b9392505050565b6000604082528351806040840152815b818110156200026d57602081870181015160608684010152016200024e565b818111156200027f5782606083860101525b50602083019390935250601f91909101601f191601606001919050565b6001600160a01b0381168114620002b257600080fd5b50565b61115a80620002c56000396000f3fe608060405234801561001057600080fd5b506004361061004c5760003560e01c806317759f3014610051578063856788df146100665780638da5cb5b14610084578063ace1f19f1461008c575b600080fd5b61006461005f366004610c83565b6100a1565b005b61006e610621565b60405161007b9190610df3565b60405180910390f35b61006e610630565b61009461063f565b60405161007b9190610fbd565b33600073__Validations___________________________6312032a3733600260009054906101000a90046001600160a01b03166001600160a01b031663a28fe68c6040518163ffffffff1660e01b815260040160006040518083038186803b15801561010d57600080fd5b505afa158015610121573d6000803e3d6000fd5b505050506040513d6000823e601f3d908101601f191682016040526101499190810190610b8c565b6040518363ffffffff1660e01b8152600401610166929190610e07565b60006040518083038186803b15801561017e57600080fd5b505af4158015610192573d6000803e3d6000fd5b505050506040513d6000823e601f3d908101601f191682016040526101ba9190810190610d19565b90506002816020015160048111156101e257634e487b7160e01b600052602160045260246000fd5b146101ec57600080fd5b60005b600354811015610619576003818154811061021a57634e487b7160e01b600052603260045260246000fd5b600091825260208220015460408051635e3d9ad960e11b815290516001600160a01b039092169263bc7b35b292600480840193829003018186803b15801561026157600080fd5b505afa158015610275573d6000803e3d6000fd5b505050506040513d6000823e601f3d908101601f1916820160405261029d9190810190610c51565b6040516388d8da5f60e01b815273__StringLibrary_________________________916388d8da5f916102d591908a9060040161101d565b60206040518083038186803b1580156102ed57600080fd5b505af4158015610301573d6000803e3d6000fd5b505050506040513d601f19601f820116820180604052508101906103259190610c2a565b1561060757600084600181111561034c57634e487b7160e01b600052602160045260246000fd5b14156103e3576003818154811061037357634e487b7160e01b600052603260045260246000fd5b60009182526020909120015460405163f5a5058960e01b81526001600160a01b039091169063f5a50589906103ac90889060040161105e565b600060405180830381600087803b1580156103c657600080fd5b505af11580156103da573d6000803e3d6000fd5b50505050610470565b6003818154811061040457634e487b7160e01b600052603260045260246000fd5b60009182526020909120015460405163b0b6d16160e01b81526001600160a01b039091169063b0b6d1619061043d90889060040161105e565b600060405180830381600087803b15801561045757600080fd5b505af115801561046b573d6000803e3d6000fd5b505050505b7f64d3cb392831fa313bdd8806ac5771da2d0210cf8eb7f46115a4203765a8cb7e6040518060600160405280888152602001600384815481106104c357634e487b7160e01b600052603260045260246000fd5b6000918252602091829020015460408051632b93de9360e21b815290516001600160a01b039092169263ae4f7a4c92600480840193829003018186803b15801561050c57600080fd5b505afa158015610520573d6000803e3d6000fd5b505050506040513d601f19601f820116820180604052508101906105449190610d4b565b81526020016003848154811061056a57634e487b7160e01b600052603260045260246000fd5b6000918252602091829020015460408051633deb12bd60e21b815290516001600160a01b039092169263f7ac4af492600480840193829003018186803b1580156105b357600080fd5b505afa1580156105c7573d6000803e3d6000fd5b505050506040513d601f19601f820116820180604052508101906105eb9190610d4b565b90526040516105fa919061104b565b60405180910390a1610619565b80610611816110e7565b9150506101ef565b505050505050565b6001546001600160a01b031681565b6000546001600160a01b031681565b6003546060906000906001600160401b0381111561066d57634e487b7160e01b600052604160045260246000fd5b6040519080825280602002602001820160405280156106a657816020015b610693610900565b81526020019060019003908161068b5790505b50905060005b6003548110156108fa5760006040518060600160405280600384815481106106e457634e487b7160e01b600052603260045260246000fd5b600091825260208220015460408051635e3d9ad960e11b815290516001600160a01b039092169263bc7b35b292600480840193829003018186803b15801561072b57600080fd5b505afa15801561073f573d6000803e3d6000fd5b505050506040513d6000823e601f3d908101601f191682016040526107679190810190610c51565b81526020016003848154811061078d57634e487b7160e01b600052603260045260246000fd5b6000918252602091829020015460408051632b93de9360e21b815290516001600160a01b039092169263ae4f7a4c92600480840193829003018186803b1580156107d657600080fd5b505afa1580156107ea573d6000803e3d6000fd5b505050506040513d601f19601f8201168201806040525081019061080e9190610d4b565b81526020016003848154811061083457634e487b7160e01b600052603260045260246000fd5b6000918252602091829020015460408051633deb12bd60e21b815290516001600160a01b039092169263f7ac4af492600480840193829003018186803b15801561087d57600080fd5b505afa158015610891573d6000803e3d6000fd5b505050506040513d601f19601f820116820180604052508101906108b59190610d4b565b8152509050808383815181106108db57634e487b7160e01b600052603260045260246000fd5b60200260200101819052505080806108f2906110e7565b9150506106ac565b50905090565b60405180606001604052806060815260200160008152602001600081525090565b80516001600160a01b038116811461093857600080fd5b919050565b80516005811061093857600080fd5b600082601f83011261095c578081fd5b815161096f61096a82611090565b611067565b818152846020838601011115610983578283fd5b6109948260208301602087016110b7565b949350505050565b600060408083850312156109ae578182fd5b80518082016001600160401b0380821183831017156109cf576109cf61110e565b81845282945085519150808211156109e657600080fd5b81860191506101808083890312156109fd57600080fd5b610a0681611067565b9050610a1183610921565b8152610a1f60208401610921565b60208201528483015182811115610a3557600080fd5b610a418982860161094c565b86830152506060830151945081851115610a5a57600080fd5b610a668886850161094c565b60608201526080830151945081851115610a7f57600080fd5b610a8b8886850161094c565b608082015260a0830151945081851115610aa457600080fd5b610ab08886850161094c565b60a082015260c0830151945081851115610ac957600080fd5b610ad58886850161094c565b60c082015260e0830151945081851115610aee57600080fd5b610afa8886850161094c565b60e082015261010094508483015182811115610b1557600080fd5b610b218982860161094c565b868301525061012094508483015182811115610b3c57600080fd5b610b488982860161094c565b86830152506101409450610b5d858401610921565b94810194909452506101609081015181840152918152610b7f6020850161093d565b6020820152505092915050565b60006020808385031215610b9e578182fd5b82516001600160401b0380821115610bb4578384fd5b818501915085601f830112610bc7578384fd5b815181811115610bd957610bd961110e565b610be68485830201611067565b8181528481019250838501865b83811015610c1c57610c0a8a88845189010161099c565b85529386019390860190600101610bf3565b509098975050505050505050565b600060208284031215610c3b578081fd5b81518015158114610c4a578182fd5b9392505050565b600060208284031215610c62578081fd5b81516001600160401b03811115610c77578182fd5b6109948482850161094c565b600080600060608486031215610c97578182fd5b83356001600160401b03811115610cac578283fd5b8401601f81018613610cbc578283fd5b8035610cca61096a82611090565b818152876020838501011115610cde578485fd5b81602084016020830137846020838301015280955050505060208401359150604084013560028110610d0e578182fd5b809150509250925092565b600060208284031215610d2a578081fd5b81516001600160401b03811115610d3f578182fd5b6109948482850161099c565b600060208284031215610d5c578081fd5b5051919050565b6001600160a01b03169052565b60058110610d8e57634e487b7160e01b600052602160045260246000fd5b9052565b60008151808452610daa8160208601602086016110b7565b601f01601f19169290920160200192915050565b6000815160608452610dd36060850182610d92565b905060208301516020850152604083015160408501528091505092915050565b6001600160a01b0391909116815260200190565b6001600160a01b0383168152604060208083018290528351838301819052600092916060918286019080830287018401888401875b83811015610fad57605f198a840301855281518051898552610e618a86018251610d63565b87810151610e718a870182610d63565b508981015161018060808181890152610e8e6101c0890184610d92565b92508b840151603f1960a0818b870301818c0152610eac8684610d92565b955083870151935060c09250818b870301838c0152610ecb8685610d92565b95508087015193505060e0818b870301818c0152610ee98685610d92565b95508287015193506101009250818b870301838c0152610f098685610d92565b955080870151935050610120818b870301818c0152610f288685610d92565b95508287015193506101409250818b870301838c0152610f488685610d92565b955080870151935050610160818b870301818c0152610f678685610d92565b9550828701519350610f7b858c0185610d63565b8601516101a08b0152505050509188015191610f9989870184610d70565b968801969450505090850190600101610e3c565b50909a9950505050505050505050565b6000602080830181845280855180835260408601915060408482028701019250838701855b8281101561101057603f19888603018452610ffe858351610dbe565b94509285019290850190600101610fe2565b5092979650505050505050565b6000604082526110306040830185610d92565b82810360208401526110428185610d92565b95945050505050565b600060208252610c4a6020830184610dbe565b90815260200190565b6040518181016001600160401b03811182821017156110885761108861110e565b604052919050565b60006001600160401b038211156110a9576110a961110e565b50601f01601f191660200190565b60005b838110156110d25781810151838201526020016110ba565b838111156110e1576000848401525b50505050565b600060001982141561110757634e487b7160e01b81526011600452602481fd5b5060010190565b634e487b7160e01b600052604160045260246000fdfea26469706673582212206e662a4c21c43f23efd618940b693c406085e1dee8964720f9237a7dabcabba264736f6c63430008000033600560c09081526439b7b630b960d91b60e0526080908152610140604052600661010090815265656f6c69636160d01b6101205260a052610044906000906002610057565b5034801561005157600080fd5b506101e0565b8280548282559060005260206000209081019282156100a4579160200282015b828111156100a457825180516100949184916020909101906100b4565b5091602001919060010190610077565b506100b0929150610134565b5090565b8280546100c0906101a5565b90600052602060002090601f0160209004810192826100e25760008555610128565b82601f106100fb57805160ff1916838001178555610128565b82800160010185558215610128579182015b8281111561012857825182559160200191906001019061010d565b506100b0929150610151565b808211156100b05760006101488282610166565b50600101610134565b5b808211156100b05760008155600101610152565b508054610172906101a5565b6000825580601f1061018457506101a2565b601f0160209004906000526020600020908101906101a29190610151565b50565b6002810460018216806101b957607f821691505b602082108114156101da57634e487b7160e01b600052602260045260246000fd5b50919050565b6111f4806101ef6000396000f3fe608060405234801561001057600080fd5b50600436106100365760003560e01c8063259e75771461003b5780636d4fe5c714610064575b600080fd5b61004e610049366004610338565b610084565b60405161005b9190610472565b60405180910390f35b6100776100723660046103de565b61024b565b60405161005b9190610486565b6040516388d8da5f60e01b81526000908190819073__StringLibrary_________________________906388d8da5f906100c2908890600401610499565b60206040518083038186803b1580156100da57600080fd5b505af41580156100ee573d6000803e3d6000fd5b505050506040513d601f19601f820116820180604052508101906101129190610311565b156101565783604051610124906102f7565b61012e9190610561565b604051809103906000f08015801561014a573d6000803e3d6000fd5b5091506001905061021d565b6040516388d8da5f60e01b815273__StringLibrary_________________________906388d8da5f9061018d9088906004016104c5565b60206040518083038186803b1580156101a557600080fd5b505af41580156101b9573d6000803e3d6000fd5b505050506040513d601f19601f820116820180604052508101906101dd9190610311565b1561021d57836040516101ef90610304565b6101f99190610581565b604051809103906000f080158015610215573d6000803e3d6000fd5b509150600190505b806102435760405162461bcd60e51b815260040161023a906104e9565b60405180910390fd5b509392505050565b6000818154811061025b57600080fd5b90600052602060002001600091509050805461027690610593565b80601f01602080910402602001604051908101604052809291908181526020018280546102a290610593565b80156102ef5780601f106102c4576101008083540402835291602001916102ef565b820191906000526020600020905b8154815290600101906020018083116102d257829003601f168201915b505050505081565b6105ed806105e583390190565b6105ed80610bd283390190565b600060208284031215610322578081fd5b81518015158114610331578182fd5b9392505050565b6000806040838503121561034a578081fd5b82356001600160401b0380821115610360578283fd5b818501915085601f830112610373578283fd5b8135602082821115610387576103876105ce565b604051601f8301601f19168101820184811182821017156103aa576103aa6105ce565b60405282815284830182018910156103c0578586fd5b82828601838301379182018101949094529694909201359450505050565b6000602082840312156103ef578081fd5b5035919050565b60008151808452815b8181101561041b576020818501810151868301820152016103ff565b8181111561042c5782602083870101525b50601f01601f19169290920160200192915050565b600581526439b7b630b960d91b602082015260400190565b6006815265656f6c69636160d01b602082015260400190565b6001600160a01b0391909116815260200190565b60006020825261033160208301846103f6565b6000604082526104ac60408301846103f6565b82810360208401526104bd81610441565b949350505050565b6000604082526104d860408301846103f6565b82810360208401526104bd81610459565b60208082526052908201527f4e6f20657320756e207469706f20646520656e65726769612076616c69646f2c60408201527f206c6f73207469706f732076616c69646f7320736f6e3a20736f6c61722c20656060820152716f6c696361206f206869647261756c69636160701b608082015260a00190565b60006040825261057360408301610441565b905082602083015292915050565b60006040825261057360408301610459565b6002810460018216806105a757607f821691505b602082108114156105c857634e487b7160e01b600052602260045260246000fd5b50919050565b634e487b7160e01b600052604160045260246000fdfe608060405234801561001057600080fd5b506040516105ed3803806105ed83398101604081905261002f916100e5565b815161004290600090602085019061004c565b5060025550610200565b828054610058906101af565b90600052602060002090601f01602090048101928261007a57600085556100c0565b82601f1061009357805160ff19168380011785556100c0565b828001600101855582156100c0579182015b828111156100c05782518255916020019190600101906100a5565b506100cc9291506100d0565b5090565b5b808211156100cc57600081556001016100d1565b600080604083850312156100f7578182fd5b82516001600160401b038082111561010d578384fd5b818501915085601f830112610120578384fd5b815181811115610132576101326101ea565b6040516020601f8301601f1916820181018481118382101715610157576101576101ea565b604052828252848301810189101561016d578687fd5b8693505b8284101561018e5784840181015182850182015292830192610171565b8284111561019e57868184840101525b969096015195979596505050505050565b6002810460018216806101c357607f821691505b602082108114156101e457634e487b7160e01b600052602260045260246000fd5b50919050565b634e487b7160e01b600052604160045260246000fd5b6103de8061020f6000396000f3fe608060405234801561001057600080fd5b50600436106100785760003560e01c80639be0b8001461007d5780639e66e0f31461009b578063ae4f7a4c146100a3578063b0b6d161146100ab578063bc7b35b2146100c0578063cb86d6e6146100d5578063f5a50589146100dd578063f7ac4af4146100f0575b600080fd5b6100856100f8565b604051610092919061031f565b60405180910390f35b6100856100fe565b610085610104565b6100be6100b93660046102b4565b61010a565b005b6100c8610121565b60405161009291906102cc565b6100c86101af565b6100be6100eb3660046102b4565b610241565b610085610251565b60025490565b60015481565b60025481565b60025460009061011a9083610256565b6002555050565b6000805461012e90610357565b80601f016020809104026020016040519081016040528092919081815260200182805461015a90610357565b80156101a75780601f1061017c576101008083540402835291602001916101a7565b820191906000526020600020905b81548152906001019060200180831161018a57829003601f168201915b505050505081565b6060600080546101be90610357565b80601f01602080910402602001604051908101604052809291908181526020018280546101ea90610357565b80156102375780601f1061020c57610100808354040283529160200191610237565b820191906000526020600020905b81548152906001019060200180831161021a57829003601f168201915b5050505050905090565b60025460009061011a9083610287565b600390565b60008282111561027657634e487b7160e01b600052600160045260246000fd5b6102808284610340565b9392505050565b6000806102948385610328565b90508381101561028057634e487b7160e01b600052600160045260246000fd5b6000602082840312156102c5578081fd5b5035919050565b6000602080835283518082850152825b818110156102f8578581018301518582016040015282016102dc565b818111156103095783604083870101525b50601f01601f1916929092016040019392505050565b90815260200190565b6000821982111561033b5761033b610392565b500190565b60008282101561035257610352610392565b500390565b60028104600182168061036b57607f821691505b6020821081141561038c57634e487b7160e01b600052602260045260246000fd5b50919050565b634e487b7160e01b600052601160045260246000fdfea2646970667358221220ec4fdd8925b9af8bbdb8212b2c1c133371927501989277696b5bc228c61f7cd464736f6c63430008000033608060405234801561001057600080fd5b506040516105ed3803806105ed83398101604081905261002f916100e5565b815161004290600090602085019061004c565b5060025550610200565b828054610058906101af565b90600052602060002090601f01602090048101928261007a57600085556100c0565b82601f1061009357805160ff19168380011785556100c0565b828001600101855582156100c0579182015b828111156100c05782518255916020019190600101906100a5565b506100cc9291506100d0565b5090565b5b808211156100cc57600081556001016100d1565b600080604083850312156100f7578182fd5b82516001600160401b038082111561010d578384fd5b818501915085601f830112610120578384fd5b815181811115610132576101326101ea565b6040516020601f8301601f1916820181018481118382101715610157576101576101ea565b604052828252848301810189101561016d578687fd5b8693505b8284101561018e5784840181015182850182015292830192610171565b8284111561019e57868184840101525b969096015195979596505050505050565b6002810460018216806101c357607f821691505b602082108114156101e457634e487b7160e01b600052602260045260246000fd5b50919050565b634e487b7160e01b600052604160045260246000fd5b6103de8061020f6000396000f3fe608060405234801561001057600080fd5b50600436106100785760003560e01c80639be0b8001461007d5780639e66e0f31461009b578063ae4f7a4c146100a3578063b0b6d161146100ab578063bc7b35b2146100c0578063cb86d6e6146100d5578063f5a50589146100dd578063f7ac4af4146100f0575b600080fd5b6100856100f8565b604051610092919061031f565b60405180910390f35b6100856100fe565b610085610104565b6100be6100b93660046102b4565b61010a565b005b6100c8610121565b60405161009291906102cc565b6100c86101af565b6100be6100eb3660046102b4565b610241565b610085610251565b60025490565b60015481565b60025481565b60025460009061011a9083610256565b6002555050565b6000805461012e90610357565b80601f016020809104026020016040519081016040528092919081815260200182805461015a90610357565b80156101a75780601f1061017c576101008083540402835291602001916101a7565b820191906000526020600020905b81548152906001019060200180831161018a57829003601f168201915b505050505081565b6060600080546101be90610357565b80601f01602080910402602001604051908101604052809291908181526020018280546101ea90610357565b80156102375780601f1061020c57610100808354040283529160200191610237565b820191906000526020600020905b81548152906001019060200180831161021a57829003601f168201915b5050505050905090565b60025460009061011a9083610287565b600290565b60008282111561027657634e487b7160e01b600052600160045260246000fd5b6102808284610340565b9392505050565b6000806102948385610328565b90508381101561028057634e487b7160e01b600052600160045260246000fd5b6000602082840312156102c5578081fd5b5035919050565b6000602080835283518082850152825b818110156102f8578581018301518582016040015282016102dc565b818111156103095783604083870101525b50601f01601f1916929092016040019392505050565b90815260200190565b6000821982111561033b5761033b610392565b500190565b60008282101561035257610352610392565b500390565b60028104600182168061036b57607f821691505b6020821081141561038c57634e487b7160e01b600052602260045260246000fd5b50919050565b634e487b7160e01b600052601160045260246000fdfea26469706673582212209fa3f8a3d7dc290461c285365a2ccb7550c882f55ab168043675370c0f01976664736f6c63430008000033a26469706673582212209c33c0417751f064b6ddd365ee7ead2e7111fd8b75e5fd31174b0073704e7f1a64736f6c63430008000033",
  "immutableReferences": {},
  "source": "// SPDX-License-Identifier: MIT\r\npragma solidity >=0.4.22 <0.9.0;\r\npragma experimental ABIEncoderV2;\r\nimport \"./models/InfoContrato.sol\";\r\nimport \"./models/TipoEnergia.sol\";\r\nimport \"./models/TipoEnergiaFactory.sol\";\r\nimport \"./ReguladorMercado.sol\";\r\nimport \"./libraries/StringLibrary.sol\";\r\nimport \"./libraries/Validations.sol\";\r\n\r\ncontract BancoEnergia {\r\n    using StringLibrary for string;\r\n    address public owner;\r\n    address public dirContrato;\r\n    ReguladorMercado private reguladorMercado;\r\n    TipoEnergia[] private tiposEnergiasDisponibles;\r\n    TipoEnergiaFactory private factoryEnergia;\r\n\r\n\r\n    event cambioDeEnergia(InfoEnergia);\r\n    modifier authorize(address direction) {\r\n        require(direction == owner);\r\n        _;\r\n    }\r\n\r\n    modifier canChangeCantidad(address direction) {\r\n        SolicitudContrato memory solicitud = Validations.getInfoContrato(\r\n            msg.sender,\r\n            reguladorMercado.getRegistros()\r\n        );\r\n        require(solicitud.tipoContrato == TiposContratos.Generador);\r\n        _;\r\n    }\r\n\r\n    constructor(ReguladorMercado _regulador) {\r\n        owner = msg.sender;\r\n        dirContrato = address(this);\r\n        reguladorMercado = _regulador;\r\n        factoryEnergia = new TipoEnergiaFactory();\r\n        setEnergiaDisponible(\"solar\", 0);\r\n        setEnergiaDisponible(\"eolica\", 0);\r\n    }\r\n\r\n    function getTiposEnergiasDisponibles()\r\n        public\r\n        view\r\n        returns (InfoEnergia[] memory)\r\n    {\r\n        InfoEnergia[] memory infoEnergias = new InfoEnergia[](\r\n            tiposEnergiasDisponibles.length\r\n        );\r\n        for (uint256 i = 0; i < tiposEnergiasDisponibles.length; i++) {\r\n            InfoEnergia memory infoEnergia = InfoEnergia(\r\n                tiposEnergiasDisponibles[i].nombre(),\r\n                tiposEnergiasDisponibles[i].cantidadEnergia(),\r\n                tiposEnergiasDisponibles[i].calcularPrecio()\r\n            );\r\n            infoEnergias[i] = infoEnergia;\r\n        }\r\n        return infoEnergias;\r\n    }\r\n\r\n    function onCantidadEnergiaChange(\r\n        string memory _nombre,\r\n        uint256 _cantidadEnergia,\r\n        Operacion _operacion\r\n    ) external canChangeCantidad(msg.sender) {\r\n        for (uint256 i = 0; i < tiposEnergiasDisponibles.length; i++) {\r\n            if (tiposEnergiasDisponibles[i].nombre().equals(_nombre)) {\r\n                if (_operacion == Operacion.adicionar) {\r\n                    tiposEnergiasDisponibles[i].addCantidadEnergia(\r\n                        _cantidadEnergia\r\n                    );\r\n                } else {\r\n                    tiposEnergiasDisponibles[i].restarCantidadEnergia(\r\n                        _cantidadEnergia\r\n                    );\r\n                }\r\n                emit cambioDeEnergia(\r\n                    InfoEnergia(\r\n                        _nombre,\r\n                        tiposEnergiasDisponibles[i].cantidadEnergia(),\r\n                        tiposEnergiasDisponibles[i].calcularPrecio()\r\n                    )\r\n                );\r\n                break;\r\n            }\r\n        }\r\n    }\r\n\r\n    function setEnergiaDisponible(string memory _nombre, uint256 _cantidad)\r\n        private\r\n        authorize(msg.sender)\r\n    {\r\n        TipoEnergia tipoEnergia = factoryEnergia.generarNuevaEnergia(\r\n            _nombre,\r\n            _cantidad\r\n        );\r\n        tiposEnergiasDisponibles.push(tipoEnergia);\r\n    }\r\n}\r\n",
  "sourcePath": "D:\\Santiago\\BlockChain\\DemoMvmTruffle\\contracts\\BancoEnergia.sol",
  "compiler": {
    "name": "solc",
    "version": "0.8.0+commit.c7dfd78e.Emscripten.clang"
  },
  "schemaVersion": "3.4.4",
  "updatedAt": "2022-07-25T12:40:44.986Z",
  "networkType": "ethereum",
  "devdoc": {
    "kind": "dev",
    "methods": {},
    "version": 1
  },
  "userdoc": {
    "kind": "user",
    "methods": {},
    "version": 1
  }
}