{
  "contractName": "Cliente",
  "abi": [
    {
      "inputs": [
        {
          "components": [
            {
              "internalType": "address",
              "name": "dirContrato",
              "type": "address"
            },
            {
              "internalType": "address",
              "name": "owner",
              "type": "address"
            },
            {
              "internalType": "string",
              "name": "nit",
              "type": "string"
            },
            {
              "internalType": "string",
              "name": "empresa",
              "type": "string"
            },
            {
              "internalType": "string",
              "name": "contacto",
              "type": "string"
            },
            {
              "internalType": "string",
              "name": "telefono",
              "type": "string"
            },
            {
              "internalType": "string",
              "name": "correo",
              "type": "string"
            },
            {
              "internalType": "string",
              "name": "departamento",
              "type": "string"
            },
            {
              "internalType": "string",
              "name": "ciudad",
              "type": "string"
            },
            {
              "internalType": "string",
              "name": "direccion",
              "type": "string"
            },
            {
              "internalType": "address",
              "name": "comercializador",
              "type": "address"
            },
            {
              "internalType": "uint256",
              "name": "tipoComercio",
              "type": "uint256"
            }
          ],
          "internalType": "struct InfoContrato",
          "name": "_infoContrato",
          "type": "tuple"
        },
        {
          "internalType": "address",
          "name": "_reguladorMercado",
          "type": "address"
        }
      ],
      "stateMutability": "nonpayable",
      "type": "constructor"
    },
    {
      "anonymous": false,
      "inputs": [
        {
          "indexed": false,
          "internalType": "string",
          "name": "",
          "type": "string"
        },
        {
          "indexed": false,
          "internalType": "uint256",
          "name": "",
          "type": "uint256"
        }
      ],
      "name": "NecesidadEnergia",
      "type": "event"
    },
    {
      "inputs": [],
      "name": "MisTokens",
      "outputs": [
        {
          "internalType": "uint256",
          "name": "",
          "type": "uint256"
        }
      ],
      "stateMutability": "view",
      "type": "function"
    },
    {
      "inputs": [],
      "name": "getInfoContrato",
      "outputs": [
        {
          "components": [
            {
              "internalType": "address",
              "name": "dirContrato",
              "type": "address"
            },
            {
              "internalType": "address",
              "name": "owner",
              "type": "address"
            },
            {
              "internalType": "string",
              "name": "nit",
              "type": "string"
            },
            {
              "internalType": "string",
              "name": "empresa",
              "type": "string"
            },
            {
              "internalType": "string",
              "name": "contacto",
              "type": "string"
            },
            {
              "internalType": "string",
              "name": "telefono",
              "type": "string"
            },
            {
              "internalType": "string",
              "name": "correo",
              "type": "string"
            },
            {
              "internalType": "string",
              "name": "departamento",
              "type": "string"
            },
            {
              "internalType": "string",
              "name": "ciudad",
              "type": "string"
            },
            {
              "internalType": "string",
              "name": "direccion",
              "type": "string"
            },
            {
              "internalType": "address",
              "name": "comercializador",
              "type": "address"
            },
            {
              "internalType": "uint256",
              "name": "tipoComercio",
              "type": "uint256"
            }
          ],
          "internalType": "struct InfoContrato",
          "name": "",
          "type": "tuple"
        }
      ],
      "stateMutability": "view",
      "type": "function"
    },
    {
      "inputs": [],
      "name": "nullAddress",
      "outputs": [
        {
          "internalType": "address",
          "name": "",
          "type": "address"
        }
      ],
      "stateMutability": "view",
      "type": "function"
    },
    {
      "inputs": [],
      "name": "reguladorMercado",
      "outputs": [
        {
          "internalType": "address",
          "name": "",
          "type": "address"
        }
      ],
      "stateMutability": "view",
      "type": "function"
    },
    {
      "inputs": [
        {
          "internalType": "address",
          "name": "_contratoComercializador",
          "type": "address"
        }
      ],
      "name": "contratarComercializador",
      "outputs": [],
      "stateMutability": "nonpayable",
      "type": "function"
    },
    {
      "inputs": [
        {
          "internalType": "string",
          "name": "_tipoEnergia",
          "type": "string"
        },
        {
          "internalType": "uint256",
          "name": "_cantidadEnergia",
          "type": "uint256"
        }
      ],
      "name": "comprarEnergia",
      "outputs": [],
      "stateMutability": "nonpayable",
      "type": "function"
    },
    {
      "inputs": [
        {
          "internalType": "string",
          "name": "_tipoEnergia",
          "type": "string"
        }
      ],
      "name": "getEnergiaCliente",
      "outputs": [
        {
          "components": [
            {
              "internalType": "uint256",
              "name": "cantidad",
              "type": "uint256"
            },
            {
              "internalType": "string",
              "name": "nombreTipoEnergia",
              "type": "string"
            }
          ],
          "internalType": "struct Cliente.InfoEnergia",
          "name": "",
          "type": "tuple"
        }
      ],
      "stateMutability": "view",
      "type": "function"
    }
  ],
  "bytecode": "0x6080604052600d80546001600160a01b03191690553480156200002157600080fd5b50604051620017fd380380620017fd83398101604081905262000044916200037c565b600080546001600160a01b038084166001600160a01b0319928316179092556040805161018081018252308082526020878101518616818401819052888501519484018590526060808a0151908501526080808a01519085015260a0808a01519085015260c0808a01519085015260e0808a0151908501526101008981015190850152610120808a015190850152600d54909616610140840152610160808901519084015260018054861690921782556002805490951690951790935581519093620001169260039291019062000228565b50606082015180516200013491600384019160209091019062000228565b50608082015180516200015291600484019160209091019062000228565b5060a082015180516200017091600584019160209091019062000228565b5060c082015180516200018e91600684019160209091019062000228565b5060e08201518051620001ac91600784019160209091019062000228565b506101008201518051620001cb91600884019160209091019062000228565b506101208201518051620001ea91600984019160209091019062000228565b50610140820151600a820180546001600160a01b0319166001600160a01b0390921691909117905561016090910151600b9091015550620005dd9050565b82805462000236906200058a565b90600052602060002090601f0160209004810192826200025a5760008555620002a5565b82601f106200027557805160ff1916838001178555620002a5565b82800160010185558215620002a5579182015b82811115620002a557825182559160200191906001019062000288565b50620002b3929150620002b7565b5090565b5b80821115620002b35760008155600101620002b8565b80516001600160a01b0381168114620002e657600080fd5b919050565b600082601f830112620002fc578081fd5b81516001600160401b03811115620003185762000318620005c7565b60206200032e601f8301601f191682016200055e565b828152858284870101111562000342578384fd5b835b838110156200036157858101830151828201840152820162000344565b838111156200037257848385840101525b5095945050505050565b600080604083850312156200038f578182fd5b82516001600160401b0380821115620003a6578384fd5b8185019150610180808388031215620003bd578485fd5b620003c8816200055e565b9050620003d583620002ce565b8152620003e560208401620002ce565b6020820152604083015182811115620003fc578586fd5b6200040a88828601620002eb565b60408301525060608301518281111562000422578586fd5b6200043088828601620002eb565b60608301525060808301518281111562000448578586fd5b6200045688828601620002eb565b60808301525060a0830151828111156200046e578586fd5b6200047c88828601620002eb565b60a08301525060c08301518281111562000494578586fd5b620004a288828601620002eb565b60c08301525060e083015182811115620004ba578586fd5b620004c888828601620002eb565b60e0830152506101008084015183811115620004e2578687fd5b620004f089828701620002eb565b82840152505061012080840151838111156200050a578687fd5b6200051889828701620002eb565b828401525050610140915062000530828401620002ce565b82820152610160915081830151828201528094505050506200055560208401620002ce565b90509250929050565b6040518181016001600160401b0381118282101715620005825762000582620005c7565b604052919050565b6002810460018216806200059f57607f821691505b60208210811415620005c157634e487b7160e01b600052602260045260246000fd5b50919050565b634e487b7160e01b600052604160045260246000fd5b61121080620005ed6000396000f3fe608060405234801561001057600080fd5b506004361061007d5760003560e01c80639be0e7ce1161005b5780639be0e7ce146100bd578063d0b58746146100d2578063e0817576146100f2578063e33f34a0146101055761007d565b8063551edf90146100825780637eb5a688146100a057806395965bda146100a8575b600080fd5b61008a61011a565b6040516100979190610dd9565b60405180910390f35b61008a610129565b6100bb6100b6366004610c9d565b610138565b005b6100c561027e565b604051610097919061101c565b6100e56100e0366004610ceb565b610763565b604051610097919061115b565b6100bb610100366004610d26565b6109d2565b61010d610b00565b6040516100979190611180565b600d546001600160a01b031681565b6000546001600160a01b031681565b60025433906001600160a01b0316811461016d5760405162461bcd60e51b815260040161016490610fce565b60405180910390fd5b6000826001600160a01b031663013643fd6040518163ffffffff1660e01b815260040160206040518083038186803b1580156101a857600080fd5b505afa1580156101bc573d6000803e3d6000fd5b505050506040513d601f19601f820116820180604052508101906101e09190610d69565b905080156102005760405162461bcd60e51b815260040161016490610f83565b600b80546001600160a01b0319166001600160a01b038581169182179092556002546040516314dd7ae360e21b81529192635375eb8c926102479233921690600401610ded565b600060405180830381600087803b15801561026157600080fd5b505af1158015610275573d6000803e3d6000fd5b50505050505050565b610286610b86565b6040805161018081018252600180546001600160a01b0390811683526002541660208301526003805492939192918401916102c090611189565b80601f01602080910402602001604051908101604052809291908181526020018280546102ec90611189565b80156103395780601f1061030e57610100808354040283529160200191610339565b820191906000526020600020905b81548152906001019060200180831161031c57829003601f168201915b5050505050815260200160038201805461035290611189565b80601f016020809104026020016040519081016040528092919081815260200182805461037e90611189565b80156103cb5780601f106103a0576101008083540402835291602001916103cb565b820191906000526020600020905b8154815290600101906020018083116103ae57829003601f168201915b505050505081526020016004820180546103e490611189565b80601f016020809104026020016040519081016040528092919081815260200182805461041090611189565b801561045d5780601f106104325761010080835404028352916020019161045d565b820191906000526020600020905b81548152906001019060200180831161044057829003601f168201915b5050505050815260200160058201805461047690611189565b80601f01602080910402602001604051908101604052809291908181526020018280546104a290611189565b80156104ef5780601f106104c4576101008083540402835291602001916104ef565b820191906000526020600020905b8154815290600101906020018083116104d257829003601f168201915b5050505050815260200160068201805461050890611189565b80601f016020809104026020016040519081016040528092919081815260200182805461053490611189565b80156105815780601f1061055657610100808354040283529160200191610581565b820191906000526020600020905b81548152906001019060200180831161056457829003601f168201915b5050505050815260200160078201805461059a90611189565b80601f01602080910402602001604051908101604052809291908181526020018280546105c690611189565b80156106135780601f106105e857610100808354040283529160200191610613565b820191906000526020600020905b8154815290600101906020018083116105f657829003601f168201915b5050505050815260200160088201805461062c90611189565b80601f016020809104026020016040519081016040528092919081815260200182805461065890611189565b80156106a55780601f1061067a576101008083540402835291602001916106a5565b820191906000526020600020905b81548152906001019060200180831161068857829003601f168201915b505050505081526020016009820180546106be90611189565b80601f01602080910402602001604051908101604052809291908181526020018280546106ea90611189565b80156107375780601f1061070c57610100808354040283529160200191610737565b820191906000526020600020905b81548152906001019060200180831161071a57829003601f168201915b5050509183525050600a8201546001600160a01b03166020820152600b90910154604090910152905090565b61076b610c02565b6040516388d8da5f60e01b815273__StringLibrary_________________________906388d8da5f906107a2908590600401610e31565b60206040518083038186803b1580156107ba57600080fd5b505af41580156107ce573d6000803e3d6000fd5b505050506040513d601f19601f820116820180604052508101906107f29190610ccb565b158061088257506040516388d8da5f60e01b815273__StringLibrary_________________________906388d8da5f90610830908590600401610e6b565b60206040518083038186803b15801561084857600080fd5b505af415801561085c573d6000803e3d6000fd5b505050506040513d601f19601f820116820180604052508101906108809190610ccb565b155b8061091157506040516388d8da5f60e01b815273__StringLibrary_________________________906388d8da5f906108bf908590600401610ea6565b60206040518083038186803b1580156108d757600080fd5b505af41580156108eb573d6000803e3d6000fd5b505050506040513d601f19601f8201168201806040525081019061090f9190610ccb565b155b1561092e5760405162461bcd60e51b815260040161016490610f07565b600b546002546040516356a5513960e01b81526000926001600160a01b03908116926356a55139926109669288921690600401610e07565b60206040518083038186803b15801561097e57600080fd5b505afa158015610992573d6000803e3d6000fd5b505050506040513d601f19601f820116820180604052508101906109b69190610d69565b6040805180820190915290815260208101849052915050919050565b60025433906001600160a01b031681146109fe5760405162461bcd60e51b815260040161016490610fce565b600b546001600160a01b0316610a265760405162461bcd60e51b815260040161016490610f3e565b600b546040805163013643fd60e01b815290516001600160a01b039092169163013643fd91600480820192602092909190829003018186803b158015610a6b57600080fd5b505afa158015610a7f573d6000803e3d6000fd5b505050506040513d601f19601f82011682018060405250810190610aa39190610d69565b600114610ac25760405162461bcd60e51b815260040161016490610f83565b7faaa4328ecde636decad3cbfb3b155848fc6b72fac6d85f4b2d04d65e4ffce3fa8383604051610af3929190610ee5565b60405180910390a1505050565b60008054604051630e03c03b60e01b81526001600160a01b0390911690630e03c03b90610b31903390600401610dd9565b60206040518083038186803b158015610b4957600080fd5b505afa158015610b5d573d6000803e3d6000fd5b505050506040513d601f19601f82011682018060405250810190610b819190610d69565b905090565b60405180610180016040528060006001600160a01b0316815260200160006001600160a01b03168152602001606081526020016060815260200160608152602001606081526020016060815260200160608152602001606081526020016060815260200160006001600160a01b03168152602001600081525090565b604051806040016040528060008152602001606081525090565b600082601f830112610c2c578081fd5b813567ffffffffffffffff80821115610c4757610c476111c4565b604051601f8301601f191681016020018281118282101715610c6b57610c6b6111c4565b604052828152848301602001861015610c82578384fd5b82602086016020830137918201602001929092529392505050565b600060208284031215610cae578081fd5b81356001600160a01b0381168114610cc4578182fd5b9392505050565b600060208284031215610cdc578081fd5b81518015158114610cc4578182fd5b600060208284031215610cfc578081fd5b813567ffffffffffffffff811115610d12578182fd5b610d1e84828501610c1c565b949350505050565b60008060408385031215610d38578081fd5b823567ffffffffffffffff811115610d4e578182fd5b610d5a85828601610c1c565b95602094909401359450505050565b600060208284031215610d7a578081fd5b5051919050565b6001600160a01b03169052565b60008151808452815b81811015610db357602081850181015186830182015201610d97565b81811115610dc45782602083870101525b50601f01601f19169290920160200192915050565b6001600160a01b0391909116815260200190565b6001600160a01b0392831681529116602082015260400190565b600060408252610e1a6040830185610d8e565b905060018060a01b03831660208301529392505050565b600060408252610e446040830184610d8e565b8281036020840152600581526439b7b630b960d91b60208201526040810191505092915050565b600060408252610e7e6040830184610d8e565b82810360208401526006815265656f6c69636160d01b60208201526040810191505092915050565b600060408252610eb96040830184610d8e565b8281036020840152600a8152696869647261756c69636160b01b60208201526040810191505092915050565b600060408252610ef86040830185610d8e565b90508260208301529392505050565b6020808252601f908201527f456c207469706f20646520656e6572676961206e6f2065732076616c69646f00604082015260600190565b60208082526025908201527f4e6f207469656e657320636f6e747261746f20646520636f6d65726369616c696040820152643d30b237b960d91b606082015260800190565b6020808252602b908201527f456c20636f6d65726369616c697a61646f72206465626520736572206465207460408201526a69706f20436c69656e746560a81b606082015260800190565b6020808252602e908201527f4e6f207469656e65207065726d69736f73207061726120656a6563757461722060408201526d3630903a3930b739b0b1b1b4b7b760911b606082015260800190565b600060208252611030602083018451610d81565b60208301516110426040840182610d81565b50604083015161018080606085015261105f6101a0850183610d8e565b91506060850151601f198086850301608087015261107d8483610d8e565b935060808701519150808685030160a087015261109a8483610d8e565b935060a08701519150808685030160c08701526110b78483610d8e565b935060c08701519150808685030160e08701526110d48483610d8e565b935060e087015191506101008187860301818801526110f38584610d8e565b9450808801519250506101208187860301818801526111128584610d8e565b9450808801519250506101408187860301818801526111318584610d8e565b9450808801519250505061016061114a81870183610d81565b959095015193019290925250919050565b600060208252825160208301526020830151604080840152610d1e6060840182610d8e565b90815260200190565b60028104600182168061119d57607f821691505b602082108114156111be57634e487b7160e01b600052602260045260246000fd5b50919050565b634e487b7160e01b600052604160045260246000fdfea26469706673582212201310a5733ba8f657f117d018ec8a0a3f07ec72600d19350ff044124e299fb8a864736f6c63430008000033",
  "immutableReferences": {},
  "source": "// SPDX-License-Identifier: MIT\r\npragma solidity ^0.8.0;\r\npragma experimental ABIEncoderV2;\r\nimport \"./models/Agente.sol\";\r\nimport \"./models/InfoContrato.sol\";\r\nimport \"./libraries/StringLibrary.sol\";\r\nimport \"./Comercializador.sol\";\r\n\r\ncontract Cliente is Agente {\r\n    using StringLibrary for string;\r\n    struct InfoEnergia {\r\n        uint256 cantidad;\r\n        string nombreTipoEnergia;\r\n    }\r\n\r\n    event NecesidadEnergia(string, uint256);\r\n\r\n    constructor(InfoContrato memory _infoContrato, address _reguladorMercado) {\r\n        reguladorMercado = _reguladorMercado;\r\n        infoContrato = InfoContrato(\r\n            address(this),\r\n            _infoContrato.owner,\r\n            _infoContrato.nit,\r\n            _infoContrato.empresa,\r\n            _infoContrato.contacto,\r\n            _infoContrato.telefono,\r\n            _infoContrato.correo,\r\n            _infoContrato.departamento,\r\n            _infoContrato.ciudad,\r\n            _infoContrato.direccion,\r\n            nullAddress,\r\n            _infoContrato.tipoComercio\r\n        );\r\n    }\r\n\r\n    function contratarComercializador(address _contratoComercializador)\r\n        public\r\n        authorize(msg.sender)\r\n    {\r\n        uint256 tipoComercializador = Comercializador(_contratoComercializador)\r\n            .getTipoContrato();\r\n        require(\r\n            tipoComercializador == 0,\r\n            \"El comercializador debe ser de tipo Cliente\"\r\n        );\r\n        infoContrato.comercializador = _contratoComercializador;\r\n        Comercializador(_contratoComercializador).setClientesComercializador(\r\n            msg.sender,\r\n            infoContrato.owner\r\n        );\r\n    }\r\n\r\n    function comprarEnergia(\r\n        string memory _tipoEnergia,\r\n        uint256 _cantidadEnergia\r\n    ) public authorize(msg.sender) {\r\n        require(\r\n            infoContrato.comercializador != address(0),\r\n            \"No tienes contrato de comercializador\"\r\n        );\r\n        require(\r\n            Comercializador(infoContrato.comercializador).getTipoContrato() ==\r\n                1,\r\n            \"El comercializador debe ser de tipo Cliente\"\r\n        );\r\n        emit NecesidadEnergia(_tipoEnergia, _cantidadEnergia);\r\n    }\r\n\r\n    function getEnergiaCliente(string memory _tipoEnergia)\r\n        public\r\n        view\r\n        returns (InfoEnergia memory)\r\n    {\r\n        if (\r\n            !_tipoEnergia.equals(\"solar\") ||\r\n            !_tipoEnergia.equals(\"eolica\") ||\r\n            !_tipoEnergia.equals(\"hidraulica\")\r\n        ) {\r\n            require(false, \"El tipo de energia no es valido\");\r\n        }\r\n\r\n        uint256 cantidadEnergia = Comercializador(infoContrato.comercializador)\r\n            .getEnergiaDisponible(_tipoEnergia, infoContrato.owner);\r\n\r\n        return InfoEnergia(cantidadEnergia, _tipoEnergia);\r\n    }\r\n}\r\n",
  "sourcePath": "D:\\Santiago\\BlockChain\\DemoMvmTruffle\\contracts\\Cliente.sol",
  "compiler": {
    "name": "solc",
    "version": "0.8.0+commit.c7dfd78e.Emscripten.clang"
  },
  "schemaVersion": "3.4.4",
  "updatedAt": "2022-07-12T16:03:38.508Z",
  "networkType": "ethereum",
  "devdoc": {
    "kind": "dev",
    "methods": {},
    "version": 1
  },
  "userdoc": {
    "kind": "user",
    "methods": {},
    "version": 1
  }
}