{
  "contractName": "Cliente",
  "abi": [
    {
      "inputs": [
        {
          "internalType": "string",
          "name": "_empresa",
          "type": "string"
        },
        {
          "internalType": "uint256",
          "name": "_nit",
          "type": "uint256"
        },
        {
          "internalType": "string",
          "name": "_contacto",
          "type": "string"
        },
        {
          "internalType": "string",
          "name": "_telefono",
          "type": "string"
        },
        {
          "internalType": "string",
          "name": "_correo",
          "type": "string"
        },
        {
          "internalType": "string",
          "name": "_direccion",
          "type": "string"
        },
        {
          "internalType": "string",
          "name": "_ciudad",
          "type": "string"
        },
        {
          "internalType": "string",
          "name": "_departamento",
          "type": "string"
        },
        {
          "internalType": "address",
          "name": "_direction",
          "type": "address"
        },
        {
          "internalType": "address",
          "name": "_reguladorMercado",
          "type": "address"
        }
      ],
      "stateMutability": "nonpayable",
      "type": "constructor"
    },
    {
      "inputs": [
        {
          "internalType": "uint256",
          "name": "numeroTokens",
          "type": "uint256"
        }
      ],
      "name": "DevolverTokens",
      "outputs": [],
      "stateMutability": "payable",
      "type": "function"
    },
    {
      "inputs": [],
      "name": "MisTokens",
      "outputs": [
        {
          "internalType": "uint256",
          "name": "",
          "type": "uint256"
        }
      ],
      "stateMutability": "view",
      "type": "function"
    },
    {
      "inputs": [],
      "name": "ciudad",
      "outputs": [
        {
          "internalType": "string",
          "name": "",
          "type": "string"
        }
      ],
      "stateMutability": "view",
      "type": "function"
    },
    {
      "inputs": [
        {
          "internalType": "uint256",
          "name": "cantidad",
          "type": "uint256"
        }
      ],
      "name": "comprarTokens",
      "outputs": [],
      "stateMutability": "payable",
      "type": "function"
    },
    {
      "inputs": [],
      "name": "contacto",
      "outputs": [
        {
          "internalType": "string",
          "name": "",
          "type": "string"
        }
      ],
      "stateMutability": "view",
      "type": "function"
    },
    {
      "inputs": [],
      "name": "correo",
      "outputs": [
        {
          "internalType": "string",
          "name": "",
          "type": "string"
        }
      ],
      "stateMutability": "view",
      "type": "function"
    },
    {
      "inputs": [],
      "name": "departamento",
      "outputs": [
        {
          "internalType": "string",
          "name": "",
          "type": "string"
        }
      ],
      "stateMutability": "view",
      "type": "function"
    },
    {
      "inputs": [],
      "name": "dirContrato",
      "outputs": [
        {
          "internalType": "address",
          "name": "",
          "type": "address"
        }
      ],
      "stateMutability": "view",
      "type": "function"
    },
    {
      "inputs": [],
      "name": "direccion",
      "outputs": [
        {
          "internalType": "string",
          "name": "",
          "type": "string"
        }
      ],
      "stateMutability": "view",
      "type": "function"
    },
    {
      "inputs": [],
      "name": "empresa",
      "outputs": [
        {
          "internalType": "string",
          "name": "",
          "type": "string"
        }
      ],
      "stateMutability": "view",
      "type": "function"
    },
    {
      "inputs": [],
      "name": "getBalanceContract",
      "outputs": [
        {
          "internalType": "uint256",
          "name": "",
          "type": "uint256"
        }
      ],
      "stateMutability": "view",
      "type": "function"
    },
    {
      "inputs": [],
      "name": "nit",
      "outputs": [
        {
          "internalType": "uint256",
          "name": "",
          "type": "uint256"
        }
      ],
      "stateMutability": "view",
      "type": "function"
    },
    {
      "inputs": [],
      "name": "nullAddress",
      "outputs": [
        {
          "internalType": "address",
          "name": "",
          "type": "address"
        }
      ],
      "stateMutability": "view",
      "type": "function"
    },
    {
      "inputs": [],
      "name": "owner",
      "outputs": [
        {
          "internalType": "address",
          "name": "",
          "type": "address"
        }
      ],
      "stateMutability": "view",
      "type": "function"
    },
    {
      "inputs": [],
      "name": "reguladorMercado",
      "outputs": [
        {
          "internalType": "address",
          "name": "",
          "type": "address"
        }
      ],
      "stateMutability": "view",
      "type": "function"
    },
    {
      "inputs": [],
      "name": "telefono",
      "outputs": [
        {
          "internalType": "string",
          "name": "",
          "type": "string"
        }
      ],
      "stateMutability": "view",
      "type": "function"
    },
    {
      "inputs": [
        {
          "internalType": "address",
          "name": "_contratoComercializador",
          "type": "address"
        }
      ],
      "name": "contratarComercializador",
      "outputs": [],
      "stateMutability": "nonpayable",
      "type": "function"
    }
  ],
  "bytecode": "0x6080604052600380546001600160a01b03191690553480156200002157600080fd5b5060405162000dc338038062000dc38339810160408190526200004491620002aa565b600180546001600160a01b0384166001600160a01b03199182161790915560028054909116301790558951620000829060059060208d01906200013c565b50600689905587516200009d9060079060208b01906200013c565b508651620000b39060089060208a01906200013c565b508551620000c99060099060208901906200013c565b508451620000df90600a9060208801906200013c565b508351620000f590600b9060208701906200013c565b5082516200010b90600c9060208601906200013c565b50600080546001600160a01b0319166001600160a01b03929092169190911790555062000456975050505050505050565b8280546200014a9062000403565b90600052602060002090601f0160209004810192826200016e5760008555620001b9565b82601f106200018957805160ff1916838001178555620001b9565b82800160010185558215620001b9579182015b82811115620001b95782518255916020019190600101906200019c565b50620001c7929150620001cb565b5090565b5b80821115620001c75760008155600101620001cc565b80516001600160a01b0381168114620001fa57600080fd5b919050565b600082601f83011262000210578081fd5b81516001600160401b03808211156200022d576200022d62000440565b6040516020601f8401601f191682018101838111838210171562000255576200025562000440565b60405283825285840181018710156200026c578485fd5b8492505b838310156200028f578583018101518284018201529182019162000270565b83831115620002a057848185840101525b5095945050505050565b6000806000806000806000806000806101408b8d031215620002ca578586fd5b8a516001600160401b0380821115620002e1578788fd5b620002ef8e838f01620001ff565b9b5060208d01519a5060408d01519150808211156200030c578788fd5b6200031a8e838f01620001ff565b995060608d015191508082111562000330578788fd5b6200033e8e838f01620001ff565b985060808d015191508082111562000354578788fd5b620003628e838f01620001ff565b975060a08d015191508082111562000378578687fd5b620003868e838f01620001ff565b965060c08d01519150808211156200039c578586fd5b620003aa8e838f01620001ff565b955060e08d0151915080821115620003c0578485fd5b50620003cf8d828e01620001ff565b935050620003e16101008c01620001e2565b9150620003f26101208c01620001e2565b90509295989b9194979a5092959850565b6002810460018216806200041857607f821691505b602082108114156200043a57634e487b7160e01b600052602260045260246000fd5b50919050565b634e487b7160e01b600052604160045260246000fd5b61095d80620004666000396000f3fe6080604052600436106100fe5760003560e01c8063856788df11610095578063ab46744311610064578063ab46744314610238578063cf7bddef1461024d578063daa138b814610262578063e33f34a014610277578063fc0161871461028c576100fe565b8063856788df146101d95780638da5cb5b146101ee5780638f6f83961461020357806395965bda14610218576100fe565b8063362af7ee116100d1578063362af7ee14610178578063551edf901461018d57806366bd78fd146101af5780637eb5a688146101c4576100fe565b80631890154c1461010357806319936caf146101185780631afd64e214610143578063360c4ce014610156575b600080fd5b61011661011136600461074f565b6102a1565b005b34801561012457600080fd5b5061012d6103b1565b60405161013a91906108ad565b60405180910390f35b61011661015136600461074f565b6103b7565b34801561016257600080fd5b5061016b61049a565b60405161013a9190610793565b34801561018457600080fd5b5061016b610528565b34801561019957600080fd5b506101a2610535565b60405161013a919061077f565b3480156101bb57600080fd5b5061012d610544565b3480156101d057600080fd5b506101a2610548565b3480156101e557600080fd5b506101a2610557565b3480156101fa57600080fd5b506101a2610566565b34801561020f57600080fd5b5061016b610575565b34801561022457600080fd5b50610116610233366004610721565b610582565b34801561024457600080fd5b5061016b610667565b34801561025957600080fd5b5061016b610674565b34801561026e57600080fd5b5061016b610681565b34801561028357600080fd5b5061012d61068e565b34801561029857600080fd5b5061016b610714565b60015433906001600160a01b031681146102d65760405162461bcd60e51b81526004016102cd9061085f565b60405180910390fd5b6000805460405163649513c560e11b81526001600160a01b039091169063c92a278a9061030990869033906004016108b6565b602060405180830381600087803b15801561032357600080fd5b505af1158015610337573d6000803e3d6000fd5b505050506040513d601f19601f8201168201806040525081019061035b9190610767565b9050600147101561037e5760405162461bcd60e51b81526004016102cd906107e6565b604051339082156108fc029083906000818181858888f193505050501580156103ab573d6000803e3d6000fd5b50505050565b60065481565b60015433906001600160a01b031681146103e35760405162461bcd60e51b81526004016102cd9061085f565b600080546040516311ac8a5b60e21b81526001600160a01b03909116906346b2296c90610418903490879033906004016108cd565b602060405180830381600087803b15801561043257600080fd5b505af1158015610446573d6000803e3d6000fd5b505050506040513d601f19601f8201168201806040525081019061046a9190610767565b604051909150339082156108fc029083906000818181858888f193505050501580156103ab573d6000803e3d6000fd5b600880546104a7906108ec565b80601f01602080910402602001604051908101604052809291908181526020018280546104d3906108ec565b80156105205780601f106104f557610100808354040283529160200191610520565b820191906000526020600020905b81548152906001019060200180831161050357829003601f168201915b505050505081565b600780546104a7906108ec565b6003546001600160a01b031681565b4790565b6000546001600160a01b031681565b6002546001600160a01b031681565b6001546001600160a01b031681565b600b80546104a7906108ec565b60015433906001600160a01b031681146105ae5760405162461bcd60e51b81526004016102cd9061085f565b6000826001600160a01b031663013643fd6040518163ffffffff1660e01b815260040160206040518083038186803b1580156105e957600080fd5b505afa1580156105fd573d6000803e3d6000fd5b505050506040513d601f19601f820116820180604052508101906106219190610767565b9050806001146106435760405162461bcd60e51b81526004016102cd90610814565b5050600480546001600160a01b0319166001600160a01b0392909216919091179055565b600c80546104a7906108ec565b600580546104a7906108ec565b600980546104a7906108ec565b60008054604051630e03c03b60e01b81526001600160a01b0390911690630e03c03b906106bf90339060040161077f565b60206040518083038186803b1580156106d757600080fd5b505afa1580156106eb573d6000803e3d6000fd5b505050506040513d601f19601f8201168201806040525081019061070f9190610767565b905090565b600a80546104a7906108ec565b600060208284031215610732578081fd5b81356001600160a01b0381168114610748578182fd5b9392505050565b600060208284031215610760578081fd5b5035919050565b600060208284031215610778578081fd5b5051919050565b6001600160a01b0391909116815260200190565b6000602080835283518082850152825b818110156107bf578581018301518582016040015282016107a3565b818111156107d05783604083870101525b50601f01601f1916929092016040019392505050565b60208082526014908201527310dbdb9d1c9858dd081d5b99195c999d5b99195960621b604082015260600190565b6020808252602b908201527f456c20636f6d65726369616c697a61646f72206465626520736572206465207460408201526a69706f20436c69656e746560a81b606082015260800190565b6020808252602e908201527f4e6f207469656e65207065726d69736f73207061726120656a6563757461722060408201526d3630903a3930b739b0b1b1b4b7b760911b606082015260800190565b90815260200190565b9182526001600160a01b0316602082015260400190565b92835260208301919091526001600160a01b0316604082015260600190565b60028104600182168061090057607f821691505b6020821081141561092157634e487b7160e01b600052602260045260246000fd5b5091905056fea2646970667358221220cb4386588763b64b4f2d659fdbf2b4b377cb72f3f93f0cf55e413e92447fabe364736f6c63430008000033",
  "immutableReferences": {},
  "source": "// SPDX-License-Identifier: MIT\r\npragma solidity ^0.8.0;\r\npragma experimental ABIEncoderV2;\r\nimport \"./models/Agente.sol\";\r\nimport \"./Comercializador.sol\";\r\nimport \"./ReguladorMercado.sol\";\r\nimport \"./TokenErc20/ERC20.sol\";\r\n\r\ncontract Cliente is Agente {\r\n    address contratoComercializador;\r\n    string public empresa;\r\n    uint256 public nit;\r\n    string public contacto;\r\n    string public telefono;\r\n    string public correo;\r\n    string public direccion;\r\n    string public ciudad;\r\n    string public departamento;\r\n\r\n    constructor(\r\n        string memory _empresa,\r\n        uint256 _nit,\r\n        string memory _contacto,\r\n        string memory _telefono,\r\n        string memory _correo,\r\n        string memory _direccion,\r\n        string memory _ciudad,\r\n        string memory _departamento,\r\n        address _direction,\r\n        address _reguladorMercado\r\n    ) {\r\n        owner = _direction;\r\n        dirContrato = address(this);\r\n        empresa = _empresa;\r\n        nit = _nit;\r\n        contacto = _contacto;\r\n        telefono = _telefono;\r\n        correo = _correo;\r\n        direccion = _direccion;\r\n        ciudad = _ciudad;\r\n        departamento = _departamento;\r\n        reguladorMercado = _reguladorMercado;\r\n    }\r\n\r\n    function contratarComercializador(address _contratoComercializador)\r\n        public\r\n        authorize(msg.sender)\r\n    {\r\n        uint256 tipoComercializador = Comercializador(_contratoComercializador)\r\n            .getTipoContrato();\r\n        require(\r\n            tipoComercializador == 1,\r\n            \"El comercializador debe ser de tipo Cliente\"\r\n        );\r\n        contratoComercializador = _contratoComercializador;\r\n    }\r\n}\r\n",
  "sourcePath": "C:\\Users\\alejandro.perez\\Desktop\\DemoMvmTruffle\\contracts\\Cliente.sol",
  "compiler": {
    "name": "solc",
    "version": "0.8.0+commit.c7dfd78e.Emscripten.clang"
  },
  "schemaVersion": "3.4.7",
  "updatedAt": "2022-06-30T14:15:01.746Z",
  "devdoc": {
    "kind": "dev",
    "methods": {},
    "version": 1
  },
  "userdoc": {
    "kind": "user",
    "methods": {},
    "version": 1
  }
}