{
  "contractName": "Cliente",
  "abi": [
    {
      "inputs": [
        {
          "internalType": "string",
          "name": "_empresa",
          "type": "string"
        },
        {
          "internalType": "uint256",
          "name": "_nit",
          "type": "uint256"
        },
        {
          "internalType": "string",
          "name": "_contacto",
          "type": "string"
        },
        {
          "internalType": "string",
          "name": "_telefono",
          "type": "string"
        },
        {
          "internalType": "string",
          "name": "_correo",
          "type": "string"
        },
        {
          "internalType": "string",
          "name": "_direccion",
          "type": "string"
        },
        {
          "internalType": "string",
          "name": "_ciudad",
          "type": "string"
        },
        {
          "internalType": "string",
          "name": "_departamento",
          "type": "string"
        },
        {
          "internalType": "address",
          "name": "_direction",
          "type": "address"
        },
        {
          "internalType": "address",
          "name": "_reguladorMercado",
          "type": "address"
        }
      ],
      "stateMutability": "nonpayable",
      "type": "constructor"
    },
    {
      "anonymous": false,
      "inputs": [
        {
          "indexed": false,
          "internalType": "string",
          "name": "",
          "type": "string"
        },
        {
          "indexed": false,
          "internalType": "uint256",
          "name": "",
          "type": "uint256"
        }
      ],
      "name": "NecesidadEnergia",
      "type": "event"
    },
    {
      "inputs": [],
      "name": "MisTokens",
      "outputs": [
        {
          "internalType": "uint256",
          "name": "",
          "type": "uint256"
        }
      ],
      "stateMutability": "view",
      "type": "function"
    },
    {
      "inputs": [],
      "name": "ciudad",
      "outputs": [
        {
          "internalType": "string",
          "name": "",
          "type": "string"
        }
      ],
      "stateMutability": "view",
      "type": "function"
    },
    {
      "inputs": [],
      "name": "contacto",
      "outputs": [
        {
          "internalType": "string",
          "name": "",
          "type": "string"
        }
      ],
      "stateMutability": "view",
      "type": "function"
    },
    {
      "inputs": [],
      "name": "contratoComercializador",
      "outputs": [
        {
          "internalType": "address",
          "name": "",
          "type": "address"
        }
      ],
      "stateMutability": "view",
      "type": "function"
    },
    {
      "inputs": [],
      "name": "correo",
      "outputs": [
        {
          "internalType": "string",
          "name": "",
          "type": "string"
        }
      ],
      "stateMutability": "view",
      "type": "function"
    },
    {
      "inputs": [],
      "name": "departamento",
      "outputs": [
        {
          "internalType": "string",
          "name": "",
          "type": "string"
        }
      ],
      "stateMutability": "view",
      "type": "function"
    },
    {
      "inputs": [],
      "name": "dirContrato",
      "outputs": [
        {
          "internalType": "address",
          "name": "",
          "type": "address"
        }
      ],
      "stateMutability": "view",
      "type": "function"
    },
    {
      "inputs": [],
      "name": "direccion",
      "outputs": [
        {
          "internalType": "string",
          "name": "",
          "type": "string"
        }
      ],
      "stateMutability": "view",
      "type": "function"
    },
    {
      "inputs": [],
      "name": "empresa",
      "outputs": [
        {
          "internalType": "string",
          "name": "",
          "type": "string"
        }
      ],
      "stateMutability": "view",
      "type": "function"
    },
    {
      "inputs": [
        {
          "internalType": "uint256",
          "name": "",
          "type": "uint256"
        }
      ],
      "name": "energias",
      "outputs": [
        {
          "internalType": "uint256",
          "name": "cantidad",
          "type": "uint256"
        },
        {
          "internalType": "string",
          "name": "nombreTipoEnergia",
          "type": "string"
        }
      ],
      "stateMutability": "view",
      "type": "function"
    },
    {
      "inputs": [],
      "name": "getInfoContrato",
      "outputs": [
        {
          "components": [
            {
              "internalType": "string",
              "name": "empresa",
              "type": "string"
            },
            {
              "internalType": "address",
              "name": "owner",
              "type": "address"
            },
            {
              "internalType": "address",
              "name": "dirContrato",
              "type": "address"
            }
          ],
          "internalType": "struct infoContrato",
          "name": "",
          "type": "tuple"
        }
      ],
      "stateMutability": "view",
      "type": "function"
    },
    {
      "inputs": [],
      "name": "nit",
      "outputs": [
        {
          "internalType": "uint256",
          "name": "",
          "type": "uint256"
        }
      ],
      "stateMutability": "view",
      "type": "function"
    },
    {
      "inputs": [],
      "name": "nullAddress",
      "outputs": [
        {
          "internalType": "address",
          "name": "",
          "type": "address"
        }
      ],
      "stateMutability": "view",
      "type": "function"
    },
    {
      "inputs": [],
      "name": "owner",
      "outputs": [
        {
          "internalType": "address",
          "name": "",
          "type": "address"
        }
      ],
      "stateMutability": "view",
      "type": "function"
    },
    {
      "inputs": [],
      "name": "reguladorMercado",
      "outputs": [
        {
          "internalType": "address",
          "name": "",
          "type": "address"
        }
      ],
      "stateMutability": "view",
      "type": "function"
    },
    {
      "inputs": [],
      "name": "telefono",
      "outputs": [
        {
          "internalType": "string",
          "name": "",
          "type": "string"
        }
      ],
      "stateMutability": "view",
      "type": "function"
    },
    {
      "inputs": [
        {
          "internalType": "address",
          "name": "_contratoComercializador",
          "type": "address"
        }
      ],
      "name": "contratarComercializador",
      "outputs": [],
      "stateMutability": "nonpayable",
      "type": "function"
    },
    {
      "inputs": [
        {
          "internalType": "string",
          "name": "_tipoEnergia",
          "type": "string"
        },
        {
          "internalType": "uint256",
          "name": "_cantidadEnergia",
          "type": "uint256"
        }
      ],
      "name": "comprarEnergia",
      "outputs": [],
      "stateMutability": "nonpayable",
      "type": "function"
    },
    {
      "inputs": [],
      "name": "getEnergias",
      "outputs": [
        {
          "components": [
            {
              "internalType": "uint256",
              "name": "cantidad",
              "type": "uint256"
            },
            {
              "internalType": "string",
              "name": "nombreTipoEnergia",
              "type": "string"
            }
          ],
          "internalType": "struct Cliente.InfoEnergia[]",
          "name": "",
          "type": "tuple[]"
        }
      ],
      "stateMutability": "view",
      "type": "function"
    }
  ],
  "bytecode": "0x6080604052600480546001600160a01b03191690553480156200002157600080fd5b5060405162001144380380620011448339810160408190526200004491620002aa565b600280546001600160a01b0384166001600160a01b03199182161790915560038054909116301790558951620000829060009060208d01906200013c565b50600689905587516200009d9060079060208b01906200013c565b508651620000b39060089060208a01906200013c565b508551620000c99060099060208901906200013c565b508451620000df90600a9060208801906200013c565b508351620000f590600b9060208701906200013c565b5082516200010b90600c9060208601906200013c565b50600180546001600160a01b0319166001600160a01b03929092169190911790555062000456975050505050505050565b8280546200014a9062000403565b90600052602060002090601f0160209004810192826200016e5760008555620001b9565b82601f106200018957805160ff1916838001178555620001b9565b82800160010185558215620001b9579182015b82811115620001b95782518255916020019190600101906200019c565b50620001c7929150620001cb565b5090565b5b80821115620001c75760008155600101620001cc565b80516001600160a01b0381168114620001fa57600080fd5b919050565b600082601f83011262000210578081fd5b81516001600160401b03808211156200022d576200022d62000440565b6040516020601f8401601f191682018101838111838210171562000255576200025562000440565b60405283825285840181018710156200026c578485fd5b8492505b838310156200028f578583018101518284018201529182019162000270565b83831115620002a057848185840101525b5095945050505050565b6000806000806000806000806000806101408b8d031215620002ca578586fd5b8a516001600160401b0380821115620002e1578788fd5b620002ef8e838f01620001ff565b9b5060208d01519a5060408d01519150808211156200030c578788fd5b6200031a8e838f01620001ff565b995060608d015191508082111562000330578788fd5b6200033e8e838f01620001ff565b985060808d015191508082111562000354578788fd5b620003628e838f01620001ff565b975060a08d015191508082111562000378578687fd5b620003868e838f01620001ff565b965060c08d01519150808211156200039c578586fd5b620003aa8e838f01620001ff565b955060e08d0151915080821115620003c0578485fd5b50620003cf8d828e01620001ff565b935050620003e16101008c01620001e2565b9150620003f26101208c01620001e2565b90509295989b9194979a5092959850565b6002810460018216806200041857607f821691505b602082108114156200043a57634e487b7160e01b600052602260045260246000fd5b50919050565b634e487b7160e01b600052604160045260246000fd5b610cde80620004666000396000f3fe608060405234801561001057600080fd5b50600436106101215760003560e01c806395965bda116100ad578063cf7bddef11610071578063cf7bddef14610206578063daa138b81461020e578063e081757614610216578063e33f34a014610229578063fc0161871461023157610121565b806395965bda1461019e5780639be0e7ce146101b3578063a23a1564146101c8578063ab467443146101e9578063be6c0e11146101f157610121565b8063551edf90116100f4578063551edf90146101765780637eb5a6881461017e578063856788df146101865780638da5cb5b1461018e5780638f6f83961461019657610121565b806318b7513e1461012657806319936caf14610144578063360c4ce014610159578063362af7ee1461016e575b600080fd5b61012e610239565b60405161013b9190610a49565b60405180910390f35b61014c610248565b60405161013b9190610c2d565b61016161024e565b60405161013b9190610ace565b6101616102dc565b61012e6102e9565b61012e6102f8565b61012e610307565b61012e610316565b610161610325565b6101b16101ac3660046108f9565b610332565b005b6101bb610472565b60405161013b9190610be1565b6101db6101d63660046109ce565b610535565b60405161013b929190610c36565b6101616105ed565b6101f96105fa565b60405161013b9190610a5d565b6101616106f5565b610161610702565b6101b1610224366004610927565b61070f565b61014c610846565b6101616108cc565b6005546001600160a01b031681565b60065481565b6008805461025b90610c57565b80601f016020809104026020016040519081016040528092919081815260200182805461028790610c57565b80156102d45780601f106102a9576101008083540402835291602001916102d4565b820191906000526020600020905b8154815290600101906020018083116102b757829003601f168201915b505050505081565b6007805461025b90610c57565b6004546001600160a01b031681565b6001546001600160a01b031681565b6003546001600160a01b031681565b6002546001600160a01b031681565b600b805461025b90610c57565b60025433906001600160a01b031681146103675760405162461bcd60e51b815260040161035e90610b93565b60405180910390fd5b6000826001600160a01b031663013643fd6040518163ffffffff1660e01b815260040160206040518083038186803b1580156103a257600080fd5b505afa1580156103b6573d6000803e3d6000fd5b505050506040513d601f19601f820116820180604052508101906103da91906109e6565b9050806001146103fc5760405162461bcd60e51b815260040161035e90610b48565b600580546001600160a01b0319166001600160a01b038516908117909155604051636f7cac4160e11b815263def958829061043b903390600401610a49565b600060405180830381600087803b15801561045557600080fd5b505af1158015610469573d6000803e3d6000fd5b50505050505050565b61047a6108d9565b60405180606001604052806000805461049290610c57565b80601f01602080910402602001604051908101604052809291908181526020018280546104be90610c57565b801561050b5780601f106104e05761010080835404028352916020019161050b565b820191906000526020600020905b8154815290600101906020018083116104ee57829003601f168201915b50505091835250506002546001600160a01b03908116602083015260035416604090910152905090565b600d818154811061054557600080fd5b6000918252602090912060029091020180546001820180549193509061056a90610c57565b80601f016020809104026020016040519081016040528092919081815260200182805461059690610c57565b80156105e35780601f106105b8576101008083540402835291602001916105e3565b820191906000526020600020905b8154815290600101906020018083116105c657829003601f168201915b5050505050905082565b600c805461025b90610c57565b6060600d805480602002602001604051908101604052809291908181526020016000905b828210156106ec57838290600052602060002090600202016040518060400160405290816000820154815260200160018201805461065b90610c57565b80601f016020809104026020016040519081016040528092919081815260200182805461068790610c57565b80156106d45780601f106106a9576101008083540402835291602001916106d4565b820191906000526020600020905b8154815290600101906020018083116106b757829003601f168201915b5050505050815250508152602001906001019061061e565b50505050905090565b6000805461025b90610c57565b6009805461025b90610c57565b60025433906001600160a01b0316811461073b5760405162461bcd60e51b815260040161035e90610b93565b6005546001600160a01b03166107635760405162461bcd60e51b815260040161035e90610b03565b600560009054906101000a90046001600160a01b03166001600160a01b031663013643fd6040518163ffffffff1660e01b815260040160206040518083038186803b1580156107b157600080fd5b505afa1580156107c5573d6000803e3d6000fd5b505050506040513d601f19601f820116820180604052508101906107e991906109e6565b6001146108085760405162461bcd60e51b815260040161035e90610b48565b7faaa4328ecde636decad3cbfb3b155848fc6b72fac6d85f4b2d04d65e4ffce3fa8383604051610839929190610ae1565b60405180910390a1505050565b600154604051630e03c03b60e01b81526000916001600160a01b031690630e03c03b90610877903390600401610a49565b60206040518083038186803b15801561088f57600080fd5b505afa1580156108a3573d6000803e3d6000fd5b505050506040513d601f19601f820116820180604052508101906108c791906109e6565b905090565b600a805461025b90610c57565b604080516060808201835281526000602082018190529181019190915290565b60006020828403121561090a578081fd5b81356001600160a01b0381168114610920578182fd5b9392505050565b60008060408385031215610939578081fd5b823567ffffffffffffffff80821115610950578283fd5b818501915085601f830112610963578283fd5b813560208282111561097757610977610c92565b604051601f8301601f191681018201848111828210171561099a5761099a610c92565b60405282815284830182018910156109b0578586fd5b82828601838301379182018101949094529694909201359450505050565b6000602082840312156109df578081fd5b5035919050565b6000602082840312156109f7578081fd5b5051919050565b60008151808452815b81811015610a2357602081850181015186830182015201610a07565b81811115610a345782602083870101525b50601f01601f19169290920160200192915050565b6001600160a01b0391909116815260200190565b60208082528251828201819052600091906040908185019080840286018301878501865b83811015610ac057888303603f19018552815180518452870151878401879052610aad878501826109fe565b9588019593505090860190600101610a81565b509098975050505050505050565b60006020825261092060208301846109fe565b600060408252610af460408301856109fe565b90508260208301529392505050565b60208082526025908201527f4e6f207469656e657320636f6e747261746f20646520636f6d65726369616c696040820152643d30b237b960d91b606082015260800190565b6020808252602b908201527f456c20636f6d65726369616c697a61646f72206465626520736572206465207460408201526a69706f20436c69656e746560a81b606082015260800190565b6020808252602e908201527f4e6f207469656e65207065726d69736f73207061726120656a6563757461722060408201526d3630903a3930b739b0b1b1b4b7b760911b606082015260800190565b600060208252825160606020840152610bfd60808401826109fe565b60208501516001600160a01b03908116604086810191909152909501519094166060909301929092525090919050565b90815260200190565b600083825260406020830152610c4f60408301846109fe565b949350505050565b600281046001821680610c6b57607f821691505b60208210811415610c8c57634e487b7160e01b600052602260045260246000fd5b50919050565b634e487b7160e01b600052604160045260246000fdfea2646970667358221220c4e3cb231c6bdaa5093602926954c4d8b5b26d0ad9e1f913552584fa1bd3778464736f6c63430008000033",
  "immutableReferences": {},
  "source": "// SPDX-License-Identifier: MIT\r\npragma solidity ^0.8.0;\r\npragma experimental ABIEncoderV2;\r\nimport \"./models/Agente.sol\";\r\nimport \"./models/InfoContrato.sol\";\r\nimport \"./Comercializador.sol\";\r\nimport \"./ReguladorMercado.sol\";\r\nimport \"./TokenErc20/ERC20.sol\";\r\n\r\ncontract Cliente is Agente {\r\n    address public contratoComercializador;\r\n    uint256 public nit;\r\n    string public contacto;\r\n    string public telefono;\r\n    string public correo;\r\n    string public direccion;\r\n    string public ciudad;\r\n    string public departamento;\r\n\r\n    struct InfoEnergia {\r\n        uint256 cantidad;\r\n        string nombreTipoEnergia;\r\n    }\r\n\r\n    InfoEnergia[] public energias;\r\n    event NecesidadEnergia(string, uint256);\r\n\r\n    constructor(\r\n        string memory _empresa,\r\n        uint256 _nit,\r\n        string memory _contacto,\r\n        string memory _telefono,\r\n        string memory _correo,\r\n        string memory _direccion,\r\n        string memory _ciudad,\r\n        string memory _departamento,\r\n        address _direction,\r\n        address _reguladorMercado\r\n    ) {\r\n        owner = _direction;\r\n        dirContrato = address(this);\r\n        empresa = _empresa;\r\n        nit = _nit;\r\n        contacto = _contacto;\r\n        telefono = _telefono;\r\n        correo = _correo;\r\n        direccion = _direccion;\r\n        ciudad = _ciudad;\r\n        departamento = _departamento;\r\n        reguladorMercado = _reguladorMercado;\r\n    }\r\n\r\n    function contratarComercializador(address _contratoComercializador)\r\n        public\r\n        authorize(msg.sender)\r\n    {\r\n        uint256 tipoComercializador = Comercializador(_contratoComercializador)\r\n            .getTipoContrato();\r\n        require(\r\n            tipoComercializador == 1,\r\n            \"El comercializador debe ser de tipo Cliente\"\r\n        );\r\n        contratoComercializador = _contratoComercializador;\r\n        Comercializador(_contratoComercializador).setClientesComercializador(\r\n            msg.sender\r\n        );\r\n    }\r\n\r\n    function comprarEnergia(\r\n        string memory _tipoEnergia,\r\n        uint256 _cantidadEnergia\r\n    ) public authorize(msg.sender) {\r\n        require(\r\n            contratoComercializador != address(0),\r\n            \"No tienes contrato de comercializador\"\r\n        );\r\n        require(\r\n            Comercializador(contratoComercializador).getTipoContrato() == 1,\r\n            \"El comercializador debe ser de tipo Cliente\"\r\n        );\r\n        emit NecesidadEnergia(_tipoEnergia, _cantidadEnergia);\r\n    }\r\n\r\n    function getEnergias() public view returns (InfoEnergia[] memory) {\r\n        \r\n        return energias;\r\n    }\r\n}\r\n",
  "sourcePath": "D:\\Santiago\\BlockChain\\DemoMvmTruffle\\contracts\\Cliente.sol",
  "compiler": {
    "name": "solc",
    "version": "0.8.0+commit.c7dfd78e.Emscripten.clang"
  },
  "schemaVersion": "3.4.4",
  "updatedAt": "2022-06-30T21:49:59.849Z",
  "networkType": "ethereum",
  "devdoc": {
    "kind": "dev",
    "methods": {},
    "version": 1
  },
  "userdoc": {
    "kind": "user",
    "methods": {},
    "version": 1
  }
}