{
  "contractName": "Comercializador",
  "abi": [
    {
      "inputs": [
        {
          "components": [
            {
              "internalType": "address",
              "name": "dirContrato",
              "type": "address"
            },
            {
              "internalType": "address",
              "name": "owner",
              "type": "address"
            },
            {
              "internalType": "string",
              "name": "nit",
              "type": "string"
            },
            {
              "internalType": "string",
              "name": "empresa",
              "type": "string"
            },
            {
              "internalType": "string",
              "name": "contacto",
              "type": "string"
            },
            {
              "internalType": "string",
              "name": "telefono",
              "type": "string"
            },
            {
              "internalType": "string",
              "name": "correo",
              "type": "string"
            },
            {
              "internalType": "string",
              "name": "departamento",
              "type": "string"
            },
            {
              "internalType": "string",
              "name": "ciudad",
              "type": "string"
            },
            {
              "internalType": "string",
              "name": "direccion",
              "type": "string"
            },
            {
              "internalType": "address",
              "name": "comercializador",
              "type": "address"
            },
            {
              "internalType": "uint256",
              "name": "tipoComercio",
              "type": "uint256"
            }
          ],
          "internalType": "struct InfoContrato",
          "name": "_infoContrato",
          "type": "tuple"
        },
        {
          "internalType": "address",
          "name": "_reguladorMercado",
          "type": "address"
        }
      ],
      "stateMutability": "nonpayable",
      "type": "constructor"
    },
    {
      "anonymous": false,
      "inputs": [
        {
          "components": [
            {
              "internalType": "address",
              "name": "ownerCliente",
              "type": "address"
            },
            {
              "internalType": "address",
              "name": "dirContratoCliente",
              "type": "address"
            },
            {
              "internalType": "string",
              "name": "empresaCliente",
              "type": "string"
            },
            {
              "internalType": "string",
              "name": "tipoEnergia",
              "type": "string"
            },
            {
              "internalType": "uint256",
              "name": "cantidadEnergia",
              "type": "uint256"
            },
            {
              "internalType": "enum EstadoCompra",
              "name": "estado",
              "type": "uint8"
            },
            {
              "internalType": "uint256",
              "name": "fechaEmision",
              "type": "uint256"
            },
            {
              "internalType": "uint256",
              "name": "fechaAprobacion",
              "type": "uint256"
            },
            {
              "internalType": "uint256",
              "name": "index",
              "type": "uint256"
            }
          ],
          "indexed": false,
          "internalType": "struct InfoEmisionCompra",
          "name": "",
          "type": "tuple"
        }
      ],
      "name": "EmisionDeCompra",
      "type": "event"
    },
    {
      "inputs": [],
      "name": "MisTokens",
      "outputs": [
        {
          "internalType": "uint256",
          "name": "",
          "type": "uint256"
        }
      ],
      "stateMutability": "view",
      "type": "function"
    },
    {
      "inputs": [],
      "name": "contadorEmisiones",
      "outputs": [
        {
          "internalType": "uint256",
          "name": "",
          "type": "uint256"
        }
      ],
      "stateMutability": "view",
      "type": "function"
    },
    {
      "inputs": [],
      "name": "getInfoContrato",
      "outputs": [
        {
          "components": [
            {
              "internalType": "address",
              "name": "dirContrato",
              "type": "address"
            },
            {
              "internalType": "address",
              "name": "owner",
              "type": "address"
            },
            {
              "internalType": "string",
              "name": "nit",
              "type": "string"
            },
            {
              "internalType": "string",
              "name": "empresa",
              "type": "string"
            },
            {
              "internalType": "string",
              "name": "contacto",
              "type": "string"
            },
            {
              "internalType": "string",
              "name": "telefono",
              "type": "string"
            },
            {
              "internalType": "string",
              "name": "correo",
              "type": "string"
            },
            {
              "internalType": "string",
              "name": "departamento",
              "type": "string"
            },
            {
              "internalType": "string",
              "name": "ciudad",
              "type": "string"
            },
            {
              "internalType": "string",
              "name": "direccion",
              "type": "string"
            },
            {
              "internalType": "address",
              "name": "comercializador",
              "type": "address"
            },
            {
              "internalType": "uint256",
              "name": "tipoComercio",
              "type": "uint256"
            }
          ],
          "internalType": "struct InfoContrato",
          "name": "",
          "type": "tuple"
        }
      ],
      "stateMutability": "view",
      "type": "function"
    },
    {
      "inputs": [],
      "name": "nullAddress",
      "outputs": [
        {
          "internalType": "address",
          "name": "",
          "type": "address"
        }
      ],
      "stateMutability": "view",
      "type": "function"
    },
    {
      "inputs": [],
      "name": "reguladorMercado",
      "outputs": [
        {
          "internalType": "address",
          "name": "",
          "type": "address"
        }
      ],
      "stateMutability": "view",
      "type": "function"
    },
    {
      "inputs": [],
      "name": "tipoComercio",
      "outputs": [
        {
          "internalType": "enum TipoComercio",
          "name": "",
          "type": "uint8"
        }
      ],
      "stateMutability": "view",
      "type": "function"
    },
    {
      "inputs": [
        {
          "internalType": "address",
          "name": "_dirContrato",
          "type": "address"
        },
        {
          "internalType": "address",
          "name": "_ownerCliente",
          "type": "address"
        },
        {
          "internalType": "uint256",
          "name": "_cantidadEnergia",
          "type": "uint256"
        },
        {
          "internalType": "string",
          "name": "nombreTipoEnergia",
          "type": "string"
        },
        {
          "internalType": "uint256",
          "name": "index",
          "type": "uint256"
        }
      ],
      "name": "ComprarEnergia",
      "outputs": [],
      "stateMutability": "nonpayable",
      "type": "function"
    },
    {
      "inputs": [
        {
          "components": [
            {
              "internalType": "address",
              "name": "dirContrato",
              "type": "address"
            },
            {
              "internalType": "address",
              "name": "owner",
              "type": "address"
            },
            {
              "internalType": "string",
              "name": "nit",
              "type": "string"
            },
            {
              "internalType": "string",
              "name": "empresa",
              "type": "string"
            },
            {
              "internalType": "string",
              "name": "contacto",
              "type": "string"
            },
            {
              "internalType": "string",
              "name": "telefono",
              "type": "string"
            },
            {
              "internalType": "string",
              "name": "correo",
              "type": "string"
            },
            {
              "internalType": "string",
              "name": "departamento",
              "type": "string"
            },
            {
              "internalType": "string",
              "name": "ciudad",
              "type": "string"
            },
            {
              "internalType": "string",
              "name": "direccion",
              "type": "string"
            },
            {
              "internalType": "address",
              "name": "comercializador",
              "type": "address"
            },
            {
              "internalType": "uint256",
              "name": "tipoComercio",
              "type": "uint256"
            }
          ],
          "internalType": "struct InfoContrato",
          "name": "_infoContrato",
          "type": "tuple"
        },
        {
          "internalType": "string",
          "name": "_tipoEnergia",
          "type": "string"
        },
        {
          "internalType": "uint256",
          "name": "_cantidadEnergia",
          "type": "uint256"
        }
      ],
      "name": "setInfoEmisionesDeCompra",
      "outputs": [],
      "stateMutability": "nonpayable",
      "type": "function"
    },
    {
      "inputs": [
        {
          "internalType": "uint256",
          "name": "index",
          "type": "uint256"
        }
      ],
      "name": "getInfoEmisionesDeCompra",
      "outputs": [
        {
          "components": [
            {
              "internalType": "address",
              "name": "ownerCliente",
              "type": "address"
            },
            {
              "internalType": "address",
              "name": "dirContratoCliente",
              "type": "address"
            },
            {
              "internalType": "string",
              "name": "empresaCliente",
              "type": "string"
            },
            {
              "internalType": "string",
              "name": "tipoEnergia",
              "type": "string"
            },
            {
              "internalType": "uint256",
              "name": "cantidadEnergia",
              "type": "uint256"
            },
            {
              "internalType": "enum EstadoCompra",
              "name": "estado",
              "type": "uint8"
            },
            {
              "internalType": "uint256",
              "name": "fechaEmision",
              "type": "uint256"
            },
            {
              "internalType": "uint256",
              "name": "fechaAprobacion",
              "type": "uint256"
            },
            {
              "internalType": "uint256",
              "name": "index",
              "type": "uint256"
            }
          ],
          "internalType": "struct InfoEmisionCompra",
          "name": "",
          "type": "tuple"
        }
      ],
      "stateMutability": "view",
      "type": "function"
    },
    {
      "inputs": [
        {
          "internalType": "address",
          "name": "_dirContrato",
          "type": "address"
        },
        {
          "internalType": "uint256",
          "name": "_cantidadEnergia",
          "type": "uint256"
        },
        {
          "internalType": "string",
          "name": "nombreTipoEnergia",
          "type": "string"
        }
      ],
      "name": "VentaEnergia",
      "outputs": [],
      "stateMutability": "nonpayable",
      "type": "function"
    },
    {
      "inputs": [
        {
          "internalType": "string",
          "name": "_nombreTipoEnergia",
          "type": "string"
        },
        {
          "internalType": "address",
          "name": "_cliente",
          "type": "address"
        }
      ],
      "name": "getEnergiaDisponible",
      "outputs": [
        {
          "internalType": "uint256",
          "name": "",
          "type": "uint256"
        }
      ],
      "stateMutability": "view",
      "type": "function"
    },
    {
      "inputs": [],
      "name": "getTipoContrato",
      "outputs": [
        {
          "internalType": "uint256",
          "name": "",
          "type": "uint256"
        }
      ],
      "stateMutability": "view",
      "type": "function"
    },
    {
      "inputs": [
        {
          "components": [
            {
              "internalType": "address",
              "name": "dirContrato",
              "type": "address"
            },
            {
              "internalType": "address",
              "name": "owner",
              "type": "address"
            },
            {
              "internalType": "string",
              "name": "nit",
              "type": "string"
            },
            {
              "internalType": "string",
              "name": "empresa",
              "type": "string"
            },
            {
              "internalType": "string",
              "name": "contacto",
              "type": "string"
            },
            {
              "internalType": "string",
              "name": "telefono",
              "type": "string"
            },
            {
              "internalType": "string",
              "name": "correo",
              "type": "string"
            },
            {
              "internalType": "string",
              "name": "departamento",
              "type": "string"
            },
            {
              "internalType": "string",
              "name": "ciudad",
              "type": "string"
            },
            {
              "internalType": "string",
              "name": "direccion",
              "type": "string"
            },
            {
              "internalType": "address",
              "name": "comercializador",
              "type": "address"
            },
            {
              "internalType": "uint256",
              "name": "tipoComercio",
              "type": "uint256"
            }
          ],
          "internalType": "struct InfoContrato",
          "name": "_infoContrato",
          "type": "tuple"
        }
      ],
      "name": "setClientesComercializador",
      "outputs": [],
      "stateMutability": "nonpayable",
      "type": "function"
    },
    {
      "inputs": [],
      "name": "getClientesComercializador",
      "outputs": [
        {
          "components": [
            {
              "internalType": "address",
              "name": "dirContrato",
              "type": "address"
            },
            {
              "internalType": "address",
              "name": "owner",
              "type": "address"
            },
            {
              "internalType": "string",
              "name": "nit",
              "type": "string"
            },
            {
              "internalType": "string",
              "name": "empresa",
              "type": "string"
            },
            {
              "internalType": "string",
              "name": "contacto",
              "type": "string"
            },
            {
              "internalType": "string",
              "name": "telefono",
              "type": "string"
            },
            {
              "internalType": "string",
              "name": "correo",
              "type": "string"
            },
            {
              "internalType": "string",
              "name": "departamento",
              "type": "string"
            },
            {
              "internalType": "string",
              "name": "ciudad",
              "type": "string"
            },
            {
              "internalType": "string",
              "name": "direccion",
              "type": "string"
            },
            {
              "internalType": "address",
              "name": "comercializador",
              "type": "address"
            },
            {
              "internalType": "uint256",
              "name": "tipoComercio",
              "type": "uint256"
            }
          ],
          "internalType": "struct InfoContrato[]",
          "name": "",
          "type": "tuple[]"
        }
      ],
      "stateMutability": "view",
      "type": "function"
    }
  ],
  "bytecode": "0x6080604052600d80546001600160a01b03191690556000600e553480156200002657600080fd5b5060405162003e9638038062003e96833981016040819052620000499162000434565b600080546001600160a01b038084166001600160a01b0319928316179092556040805161018081018252308082526020878101518616818401819052888501519484018590526060808a0151908501526080808a01519085015260a0808a01519085015260c0808a01519085015260e0808a0151908501526101008981015190850152610120808a015190850152600d549096166101408401526101608089015190840152600180548616909217825560028054909516909517909355815190936200011b92600392910190620002d2565b506060820151805162000139916003840191602090910190620002d2565b506080820151805162000157916004840191602090910190620002d2565b5060a0820151805162000175916005840191602090910190620002d2565b5060c0820151805162000193916006840191602090910190620002d2565b5060e08201518051620001b1916007840191602090910190620002d2565b506101008201518051620001d0916008840191602090910190620002d2565b506101208201518051620001ef916009840191602090910190620002d2565b50610140820151600a820180546001600160a01b0319166001600160a01b0390921691909117905561016091820151600b9091015582015160018111156200024757634e487b7160e01b600052602160045260246000fd5b6011805460ff60a01b1916600160a01b8360018111156200027857634e487b7160e01b600052602160045260246000fd5b02179055506040516200028b9062000361565b604051809103906000f080158015620002a8573d6000803e3d6000fd5b50601180546001600160a01b0319166001600160a01b039290921691909117905550620006959050565b828054620002e09062000642565b90600052602060002090601f0160209004810192826200030457600085556200034f565b82601f106200031f57805160ff19168380011785556200034f565b828001600101855582156200034f579182015b828111156200034f57825182559160200191906001019062000332565b506200035d9291506200036f565b5090565b6113e38062002ab383390190565b5b808211156200035d576000815560010162000370565b80516001600160a01b03811681146200039e57600080fd5b919050565b600082601f830112620003b4578081fd5b81516001600160401b03811115620003d057620003d06200067f565b6020620003e6601f8301601f1916820162000616565b8281528582848701011115620003fa578384fd5b835b8381101562000419578581018301518282018401528201620003fc565b838111156200042a57848385840101525b5095945050505050565b6000806040838503121562000447578182fd5b82516001600160401b03808211156200045e578384fd5b818501915061018080838803121562000475578485fd5b620004808162000616565b90506200048d8362000386565b81526200049d6020840162000386565b6020820152604083015182811115620004b4578586fd5b620004c288828601620003a3565b604083015250606083015182811115620004da578586fd5b620004e888828601620003a3565b60608301525060808301518281111562000500578586fd5b6200050e88828601620003a3565b60808301525060a08301518281111562000526578586fd5b6200053488828601620003a3565b60a08301525060c0830151828111156200054c578586fd5b6200055a88828601620003a3565b60c08301525060e08301518281111562000572578586fd5b6200058088828601620003a3565b60e08301525061010080840151838111156200059a578687fd5b620005a889828701620003a3565b8284015250506101208084015183811115620005c2578687fd5b620005d089828701620003a3565b8284015250506101409150620005e882840162000386565b82820152610160915081830151828201528094505050506200060d6020840162000386565b90509250929050565b6040518181016001600160401b03811182821017156200063a576200063a6200067f565b604052919050565b6002810460018216806200065757607f821691505b602082108114156200067957634e487b7160e01b600052602260045260246000fd5b50919050565b634e487b7160e01b600052604160045260246000fd5b61240e80620006a56000396000f3fe608060405234801561001057600080fd5b50600436106100b95760003560e01c80624ff861146100be578063013643fd146100d35780630d13dcb0146100f1578063551edf901461011157806356a551391461012657806374b6f5fe146101395780637eb5a6881461014c5780638df45d9314610154578063922fcee9146101695780639be0e7ce1461017c578063c0320ee514610191578063c650abce14610199578063e33f34a0146101ac578063ef3090e7146101b4575b600080fd5b6100d16100cc366004611be9565b6101c9565b005b6100db6103cf565b6040516100e8919061227f565b60405180910390f35b6101046100ff366004611c52565b610403565b6040516100e891906121d3565b6101196105ec565b6040516100e89190611ea5565b6100db610134366004611b60565b6105fb565b6100d1610147366004611a5d565b6106a3565b6101196109e5565b61015c6109f4565b6040516100e89190612097565b6100d1610177366004611ace565b610a04565b610184610a09565b6040516100e891906121c0565b6100db610eee565b6100d16101a7366004611baf565b610ef4565b6100db6110b8565b6101bc611139565b6040516100e89190612037565b6000601154600160a01b900460ff1660018111156101f757634e487b7160e01b600052602160045260246000fd5b1461021d5760405162461bcd60e51b815260040161021490612118565b60405180910390fd5b600060405180610120016040528085602001516001600160a01b0316815260200185600001516001600160a01b03168152602001856060015181526020018481526020018381526020016000600181111561028857634e487b7160e01b600052602160045260246000fd5b81524260208083019190915260006040808401829052600e54606090940184905292815260128252829020835181546001600160a01b039182166001600160a01b03199182161783558584015160018401805491909316911617905591830151805193945084936102ff92600285019201906116c2565b506060820151805161031b9160038401916020909101906116c2565b506080820151600482015560a082015160058201805460ff19166001838181111561035657634e487b7160e01b600052602160045260246000fd5b021790555060c0820151816006015560e0820151816007015561010082015181600801559050507f76d9f9c0970792642516f69f8ffda978db59552bdeb44c236bf09f6c3ec02a2a816040516103ac91906121d3565b60405180910390a1600e80549060006103c483612365565b919050555050505050565b601154600090600160a01b900460ff1660018111156103fe57634e487b7160e01b600052602160045260246000fd5b905090565b61040b611746565b60008281526012602090815260409182902082516101208101845281546001600160a01b0390811682526001830154169281019290925260028101805492939192918401916104599061232a565b80601f01602080910402602001604051908101604052809291908181526020018280546104859061232a565b80156104d25780601f106104a7576101008083540402835291602001916104d2565b820191906000526020600020905b8154815290600101906020018083116104b557829003601f168201915b505050505081526020016003820180546104eb9061232a565b80601f01602080910402602001604051908101604052809291908181526020018280546105179061232a565b80156105645780601f1061053957610100808354040283529160200191610564565b820191906000526020600020905b81548152906001019060200180831161054757829003601f168201915b505050918352505060048201546020820152600582015460409091019060ff1660018111156105a357634e487b7160e01b600052602160045260246000fd5b60018111156105c257634e487b7160e01b600052602160045260246000fd5b8152602001600682015481526020016007820154815260200160088201548152505090505b919050565b600d546001600160a01b031681565b600060108360405161060d9190611e89565b90815260408051602092819003830181206001600160a01b038681166000908152918552908390205462137c1760eb1b83529251921692639be0b80092600480840193829003018186803b15801561066457600080fd5b505afa158015610678573d6000803e3d6000fd5b505050506040513d601f19601f8201168201806040525081019061069c9190611c6a565b9392505050565b60025433906001600160a01b031681146106cf5760405162461bcd60e51b815260040161021490612172565b6000601154600160a01b900460ff1660018111156106fd57634e487b7160e01b600052602160045260246000fd5b1461071a5760405162461bcd60e51b815260040161021490612118565b604051635010ecc560e01b815273__Validations___________________________90635010ecc590610754908890600f90600401611eb9565b60206040518083038186803b15801561076c57600080fd5b505af4158015610780573d6000803e3d6000fd5b505050506040513d601f19601f820116820180604052508101906107a49190611b24565b156107c15760405162461bcd60e51b8152600401610214906120cc565b60405163cfa5784960e01b81526001600160a01b0387169063cfa57849906107f190879087908a90600401612288565b600060405180830381600087803b15801561080b57600080fd5b505af115801561081f573d6000803e3d6000fd5b5050600d546040516001600160a01b03909116925060109150610843908690611e89565b90815260408051602092819003830190206001600160a01b0389811660009081529190935220541614156109465760115460405163259e757760e01b81526001600160a01b039091169063259e7577906108a390869088906004016120aa565b602060405180830381600087803b1580156108bd57600080fd5b505af11580156108d1573d6000803e3d6000fd5b505050506040513d601f19601f820116820180604052508101906108f59190611b44565b6010846040516109059190611e89565b90815260408051602092819003830190206001600160a01b038981166000908152919093522080546001600160a01b031916929091169190911790556109d4565b6010836040516109569190611e89565b9081526040805191829003602090810183206001600160a01b03808a16600090815291909252919091205463f5a5058960e01b8352169063f5a50589906109a190879060040161227f565b600060405180830381600087803b1580156109bb57600080fd5b505af11580156109cf573d6000803e3d6000fd5b505050505b6109dd8261166f565b505050505050565b6000546001600160a01b031681565b601154600160a01b900460ff1681565b505050565b610a116117c3565b6040805161018081018252600180546001600160a01b039081168352600254166020830152600380549293919291840191610a4b9061232a565b80601f0160208091040260200160405190810160405280929190818152602001828054610a779061232a565b8015610ac45780601f10610a9957610100808354040283529160200191610ac4565b820191906000526020600020905b815481529060010190602001808311610aa757829003601f168201915b50505050508152602001600382018054610add9061232a565b80601f0160208091040260200160405190810160405280929190818152602001828054610b099061232a565b8015610b565780601f10610b2b57610100808354040283529160200191610b56565b820191906000526020600020905b815481529060010190602001808311610b3957829003601f168201915b50505050508152602001600482018054610b6f9061232a565b80601f0160208091040260200160405190810160405280929190818152602001828054610b9b9061232a565b8015610be85780601f10610bbd57610100808354040283529160200191610be8565b820191906000526020600020905b815481529060010190602001808311610bcb57829003601f168201915b50505050508152602001600582018054610c019061232a565b80601f0160208091040260200160405190810160405280929190818152602001828054610c2d9061232a565b8015610c7a5780601f10610c4f57610100808354040283529160200191610c7a565b820191906000526020600020905b815481529060010190602001808311610c5d57829003601f168201915b50505050508152602001600682018054610c939061232a565b80601f0160208091040260200160405190810160405280929190818152602001828054610cbf9061232a565b8015610d0c5780601f10610ce157610100808354040283529160200191610d0c565b820191906000526020600020905b815481529060010190602001808311610cef57829003601f168201915b50505050508152602001600782018054610d259061232a565b80601f0160208091040260200160405190810160405280929190818152602001828054610d519061232a565b8015610d9e5780601f10610d7357610100808354040283529160200191610d9e565b820191906000526020600020905b815481529060010190602001808311610d8157829003601f168201915b50505050508152602001600882018054610db79061232a565b80601f0160208091040260200160405190810160405280929190818152602001828054610de39061232a565b8015610e305780601f10610e0557610100808354040283529160200191610e30565b820191906000526020600020905b815481529060010190602001808311610e1357829003601f168201915b50505050508152602001600982018054610e499061232a565b80601f0160208091040260200160405190810160405280929190818152602001828054610e759061232a565b8015610ec25780601f10610e9757610100808354040283529160200191610ec2565b820191906000526020600020905b815481529060010190602001808311610ea557829003601f168201915b5050509183525050600a8201546001600160a01b03166020820152600b90910154604090910152905090565b600e5481565b600f805460018101825560009190915281517f8d1108e10bcb7c27dddfc02ed9d693a074039d026cf4ea4240b40f7d581ac802600c90920291820180546001600160a01b03199081166001600160a01b039384161782556020808601517f8d1108e10bcb7c27dddfc02ed9d693a074039d026cf4ea4240b40f7d581ac8038601805490931694169390931790556040840151805185949293610fba937f8d1108e10bcb7c27dddfc02ed9d693a074039d026cf4ea4240b40f7d581ac804019201906116c2565b5060608201518051610fd69160038401916020909101906116c2565b5060808201518051610ff29160048401916020909101906116c2565b5060a0820151805161100e9160058401916020909101906116c2565b5060c0820151805161102a9160068401916020909101906116c2565b5060e082015180516110469160078401916020909101906116c2565b5061010082015180516110639160088401916020909101906116c2565b5061012082015180516110809160098401916020909101906116c2565b50610140820151600a820180546001600160a01b0319166001600160a01b0390921691909117905561016090910151600b9091015550565b60008054604051630e03c03b60e01b81526001600160a01b0390911690630e03c03b906110e9903390600401611ea5565b60206040518083038186803b15801561110157600080fd5b505afa158015611115573d6000803e3d6000fd5b505050506040513d601f19601f820116820180604052508101906103fe9190611c6a565b6060600f805480602002602001604051908101604052809291908181526020016000905b828210156116665760008481526020908190206040805161018081018252600c860290920180546001600160a01b03908116845260018201541693830193909352600283018054929392918401916111b49061232a565b80601f01602080910402602001604051908101604052809291908181526020018280546111e09061232a565b801561122d5780601f106112025761010080835404028352916020019161122d565b820191906000526020600020905b81548152906001019060200180831161121057829003601f168201915b505050505081526020016003820180546112469061232a565b80601f01602080910402602001604051908101604052809291908181526020018280546112729061232a565b80156112bf5780601f10611294576101008083540402835291602001916112bf565b820191906000526020600020905b8154815290600101906020018083116112a257829003601f168201915b505050505081526020016004820180546112d89061232a565b80601f01602080910402602001604051908101604052809291908181526020018280546113049061232a565b80156113515780601f1061132657610100808354040283529160200191611351565b820191906000526020600020905b81548152906001019060200180831161133457829003601f168201915b5050505050815260200160058201805461136a9061232a565b80601f01602080910402602001604051908101604052809291908181526020018280546113969061232a565b80156113e35780601f106113b8576101008083540402835291602001916113e3565b820191906000526020600020905b8154815290600101906020018083116113c657829003601f168201915b505050505081526020016006820180546113fc9061232a565b80601f01602080910402602001604051908101604052809291908181526020018280546114289061232a565b80156114755780601f1061144a57610100808354040283529160200191611475565b820191906000526020600020905b81548152906001019060200180831161145857829003601f168201915b5050505050815260200160078201805461148e9061232a565b80601f01602080910402602001604051908101604052809291908181526020018280546114ba9061232a565b80156115075780601f106114dc57610100808354040283529160200191611507565b820191906000526020600020905b8154815290600101906020018083116114ea57829003601f168201915b505050505081526020016008820180546115209061232a565b80601f016020809104026020016040519081016040528092919081815260200182805461154c9061232a565b80156115995780601f1061156e57610100808354040283529160200191611599565b820191906000526020600020905b81548152906001019060200180831161157c57829003601f168201915b505050505081526020016009820180546115b29061232a565b80601f01602080910402602001604051908101604052809291908181526020018280546115de9061232a565b801561162b5780601f106116005761010080835404028352916020019161162b565b820191906000526020600020905b81548152906001019060200180831161160e57829003601f168201915b5050509183525050600a8201546001600160a01b0316602080830191909152600b90920154604090910152908252600192909201910161115d565b50505050905090565b60025433906001600160a01b0316811461169b5760405162461bcd60e51b815260040161021490612172565b50600090815260126020526040902060058101805460ff1916600117905542600790910155565b8280546116ce9061232a565b90600052602060002090601f0160209004810192826116f05760008555611736565b82601f1061170957805160ff1916838001178555611736565b82800160010185558215611736579182015b8281111561173657825182559160200191906001019061171b565b5061174292915061183f565b5090565b60405180610120016040528060006001600160a01b0316815260200160006001600160a01b03168152602001606081526020016060815260200160008152602001600060018111156117a857634e487b7160e01b600052602160045260246000fd5b81526020016000815260200160008152602001600081525090565b60405180610180016040528060006001600160a01b0316815260200160006001600160a01b03168152602001606081526020016060815260200160608152602001606081526020016060815260200160608152602001606081526020016060815260200160006001600160a01b03168152602001600081525090565b5b808211156117425760008155600101611840565b80356105e7816123c3565b600082601f83011261186f578081fd5b81356001600160401b038111156118885761188861238c565b61189b601f8201601f19166020016122b9565b8181528460208386010111156118af578283fd5b816020850160208301379081016020019190915292915050565b60006101808083850312156118dc578182fd5b6118e5816122b9565b9150506118f182611854565b81526118ff60208301611854565b602082015260408201356001600160401b038082111561191e57600080fd5b61192a8583860161185f565b6040840152606084013591508082111561194357600080fd5b61194f8583860161185f565b6060840152608084013591508082111561196857600080fd5b6119748583860161185f565b608084015260a084013591508082111561198d57600080fd5b6119998583860161185f565b60a084015260c08401359150808211156119b257600080fd5b6119be8583860161185f565b60c084015260e08401359150808211156119d757600080fd5b6119e38583860161185f565b60e0840152610100915081840135818111156119fe57600080fd5b611a0a8682870161185f565b838501525061012091508184013581811115611a2557600080fd5b611a318682870161185f565b83850152505050610140611a46818401611854565b818301525061016080830135818301525092915050565b600080600080600060a08688031215611a74578081fd5b8535611a7f816123c3565b94506020860135611a8f816123c3565b93506040860135925060608601356001600160401b03811115611ab0578182fd5b611abc8882890161185f565b95989497509295608001359392505050565b600080600060608486031215611ae2578283fd5b8335611aed816123c3565b92506020840135915060408401356001600160401b03811115611b0e578182fd5b611b1a8682870161185f565b9150509250925092565b600060208284031215611b35578081fd5b8151801515811461069c578182fd5b600060208284031215611b55578081fd5b815161069c816123c3565b60008060408385031215611b72578182fd5b82356001600160401b03811115611b87578283fd5b611b938582860161185f565b9250506020830135611ba4816123c3565b809150509250929050565b600060208284031215611bc0578081fd5b81356001600160401b03811115611bd5578182fd5b611be1848285016118c9565b949350505050565b600080600060608486031215611bfd578283fd5b83356001600160401b0380821115611c13578485fd5b611c1f878388016118c9565b94506020860135915080821115611c34578384fd5b50611c418682870161185f565b925050604084013590509250925092565b600060208284031215611c63578081fd5b5035919050565b600060208284031215611c7b578081fd5b5051919050565b6001600160a01b03169052565b611c98816123a2565b9052565b60008151808452611cb48160208601602086016122fa565b601f01601f19169290920160200192915050565b805460009060028104600180831680611ce257607f831692505b6020808410821415611d0257634e487b7160e01b86526022600452602486fd5b611d0c848961227f565b828015611d205760018114611d3157611d5c565b60ff19871682528282019750611d5c565b611d3a896122e2565b60005b87811015611d5657815484820152908601908401611d3d565b83019850505b5050505050505092915050565b6000610180611d79848451611c82565b6020830151611d8b6020860182611c82565b506040830151816040860152611da382860182611c9c565b91505060608301518482036060860152611dbd8282611c9c565b91505060808301518482036080860152611dd78282611c9c565b91505060a083015184820360a0860152611df18282611c9c565b91505060c083015184820360c0860152611e0b8282611c9c565b91505060e083015184820360e0860152611e258282611c9c565b9150506101008084015185830382870152611e408382611c9c565b925050506101208084015185830382870152611e5c8382611c9c565b9250505061014080840151611e7382870182611c82565b5050610160928301519390920192909252919050565b60008251611e9b8184602087016122fa565b9190910192915050565b6001600160a01b0391909116815260200190565b6000604080830160018060a01b03861684526020828186015281865480845260609350838701915083838202880101888752838720875b8381101561202757605f198a8403018552610180611f1784611f1285546122ee565b611c82565b611f2460018401546122ee565b611f3088860182611c82565b508089850152611f4581850160028501611cc8565b905083810388850152611f5b8160038501611cc8565b90508381036080850152611f728160048501611cc8565b905083810360a0850152611f898160058501611cc8565b905083810360c0850152611fa08160068501611cc8565b905083810360e0850152611fb78160078501611cc8565b9050838103610100850152611fcf8160088501611cc8565b9050838103610120850152611fe78160098501611cc8565b9050611ff6600a8401546122ee565b612004610140860182611c82565b50600b830154610160949094019390935293850193600c90910190600101611ef0565b50909a9950505050505050505050565b6000602080830181845280855180835260408601915060408482028701019250838701855b8281101561208a57603f19888603018452612078858351611d69565b9450928501929085019060010161205c565b5092979650505050505050565b602081016120a4836123a2565b91905290565b6000604082526120bd6040830185611c9c565b90508260208301529392505050565b6020808252602c908201527f456c20636c69656e7465206e6f20657320756e20636c69656e7465206465206560408201526b73746520636f6e747261746f60a01b606082015260800190565b6020808252603a908201527f536f6c6f206c6f7320636f6e747261746f7320646520636c69656e746520707560408201527932b232b71032b532b1baba30b91032b9ba3090333ab731b4b7b760311b606082015260800190565b6020808252602e908201527f4e6f207469656e65207065726d69736f73207061726120656a6563757461722060408201526d3630903a3930b739b0b1b1b4b7b760911b606082015260800190565b60006020825261069c6020830184611d69565b6000602082526121e7602083018451611c82565b60208301516121f96040840182611c82565b506040830151610120806060850152612216610140850183611c9c565b91506060850151601f198584030160808601526122338382611c9c565b925050608085015160a085015260a085015161225260c0860182611c8f565b5060c085015160e085015260e0850151610100818187015280870151838701525050508091505092915050565b90815260200190565b6000848252606060208301526122a16060830185611c9c565b905060018060a01b0383166040830152949350505050565b6040518181016001600160401b03811182821017156122da576122da61238c565b604052919050565b60009081526020902090565b6001600160a01b031690565b60005b838110156123155781810151838201526020016122fd565b83811115612324576000848401525b50505050565b60028104600182168061233e57607f821691505b6020821081141561235f57634e487b7160e01b600052602260045260246000fd5b50919050565b600060001982141561238557634e487b7160e01b81526011600452602481fd5b5060010190565b634e487b7160e01b600052604160045260246000fd5b600281106123c057634e487b7160e01b600052602160045260246000fd5b50565b6001600160a01b03811681146123c057600080fdfea2646970667358221220b6b71090bcb23170d3787c13473e8371b21ba027bb9acce1fa09f4190513069064736f6c63430008000033600560c09081526439b7b630b960d91b60e0526080908152610140604052600661010090815265656f6c69636160d01b6101205260a052610044906000906002610057565b5034801561005157600080fd5b506101e0565b8280548282559060005260206000209081019282156100a4579160200282015b828111156100a457825180516100949184916020909101906100b4565b5091602001919060010190610077565b506100b0929150610134565b5090565b8280546100c0906101a5565b90600052602060002090601f0160209004810192826100e25760008555610128565b82601f106100fb57805160ff1916838001178555610128565b82800160010185558215610128579182015b8281111561012857825182559160200191906001019061010d565b506100b0929150610151565b808211156100b05760006101488282610166565b50600101610134565b5b808211156100b05760008155600101610152565b508054610172906101a5565b6000825580601f1061018457506101a2565b601f0160209004906000526020600020908101906101a29190610151565b50565b6002810460018216806101b957607f821691505b602082108114156101da57634e487b7160e01b600052602260045260246000fd5b50919050565b6111f4806101ef6000396000f3fe608060405234801561001057600080fd5b50600436106100365760003560e01c8063259e75771461003b5780636d4fe5c714610064575b600080fd5b61004e610049366004610338565b610084565b60405161005b9190610472565b60405180910390f35b6100776100723660046103de565b61024b565b60405161005b9190610486565b6040516388d8da5f60e01b81526000908190819073__StringLibrary_________________________906388d8da5f906100c2908890600401610499565b60206040518083038186803b1580156100da57600080fd5b505af41580156100ee573d6000803e3d6000fd5b505050506040513d601f19601f820116820180604052508101906101129190610311565b156101565783604051610124906102f7565b61012e9190610561565b604051809103906000f08015801561014a573d6000803e3d6000fd5b5091506001905061021d565b6040516388d8da5f60e01b815273__StringLibrary_________________________906388d8da5f9061018d9088906004016104c5565b60206040518083038186803b1580156101a557600080fd5b505af41580156101b9573d6000803e3d6000fd5b505050506040513d601f19601f820116820180604052508101906101dd9190610311565b1561021d57836040516101ef90610304565b6101f99190610581565b604051809103906000f080158015610215573d6000803e3d6000fd5b509150600190505b806102435760405162461bcd60e51b815260040161023a906104e9565b60405180910390fd5b509392505050565b6000818154811061025b57600080fd5b90600052602060002001600091509050805461027690610593565b80601f01602080910402602001604051908101604052809291908181526020018280546102a290610593565b80156102ef5780601f106102c4576101008083540402835291602001916102ef565b820191906000526020600020905b8154815290600101906020018083116102d257829003601f168201915b505050505081565b6105ed806105e583390190565b6105ed80610bd283390190565b600060208284031215610322578081fd5b81518015158114610331578182fd5b9392505050565b6000806040838503121561034a578081fd5b82356001600160401b0380821115610360578283fd5b818501915085601f830112610373578283fd5b8135602082821115610387576103876105ce565b604051601f8301601f19168101820184811182821017156103aa576103aa6105ce565b60405282815284830182018910156103c0578586fd5b82828601838301379182018101949094529694909201359450505050565b6000602082840312156103ef578081fd5b5035919050565b60008151808452815b8181101561041b576020818501810151868301820152016103ff565b8181111561042c5782602083870101525b50601f01601f19169290920160200192915050565b600581526439b7b630b960d91b602082015260400190565b6006815265656f6c69636160d01b602082015260400190565b6001600160a01b0391909116815260200190565b60006020825261033160208301846103f6565b6000604082526104ac60408301846103f6565b82810360208401526104bd81610441565b949350505050565b6000604082526104d860408301846103f6565b82810360208401526104bd81610459565b60208082526052908201527f4e6f20657320756e207469706f20646520656e65726769612076616c69646f2c60408201527f206c6f73207469706f732076616c69646f7320736f6e3a20736f6c61722c20656060820152716f6c696361206f206869647261756c69636160701b608082015260a00190565b60006040825261057360408301610441565b905082602083015292915050565b60006040825261057360408301610459565b6002810460018216806105a757607f821691505b602082108114156105c857634e487b7160e01b600052602260045260246000fd5b50919050565b634e487b7160e01b600052604160045260246000fdfe608060405234801561001057600080fd5b506040516105ed3803806105ed83398101604081905261002f916100e5565b815161004290600090602085019061004c565b5060025550610200565b828054610058906101af565b90600052602060002090601f01602090048101928261007a57600085556100c0565b82601f1061009357805160ff19168380011785556100c0565b828001600101855582156100c0579182015b828111156100c05782518255916020019190600101906100a5565b506100cc9291506100d0565b5090565b5b808211156100cc57600081556001016100d1565b600080604083850312156100f7578182fd5b82516001600160401b038082111561010d578384fd5b818501915085601f830112610120578384fd5b815181811115610132576101326101ea565b6040516020601f8301601f1916820181018481118382101715610157576101576101ea565b604052828252848301810189101561016d578687fd5b8693505b8284101561018e5784840181015182850182015292830192610171565b8284111561019e57868184840101525b969096015195979596505050505050565b6002810460018216806101c357607f821691505b602082108114156101e457634e487b7160e01b600052602260045260246000fd5b50919050565b634e487b7160e01b600052604160045260246000fd5b6103de8061020f6000396000f3fe608060405234801561001057600080fd5b50600436106100785760003560e01c80639be0b8001461007d5780639e66e0f31461009b578063ae4f7a4c146100a3578063b0b6d161146100ab578063bc7b35b2146100c0578063cb86d6e6146100d5578063f5a50589146100dd578063f7ac4af4146100f0575b600080fd5b6100856100f8565b604051610092919061031f565b60405180910390f35b6100856100fe565b610085610104565b6100be6100b93660046102b4565b61010a565b005b6100c8610121565b60405161009291906102cc565b6100c86101af565b6100be6100eb3660046102b4565b610241565b610085610251565b60025490565b60015481565b60025481565b60025460009061011a9083610256565b6002555050565b6000805461012e90610357565b80601f016020809104026020016040519081016040528092919081815260200182805461015a90610357565b80156101a75780601f1061017c576101008083540402835291602001916101a7565b820191906000526020600020905b81548152906001019060200180831161018a57829003601f168201915b505050505081565b6060600080546101be90610357565b80601f01602080910402602001604051908101604052809291908181526020018280546101ea90610357565b80156102375780601f1061020c57610100808354040283529160200191610237565b820191906000526020600020905b81548152906001019060200180831161021a57829003601f168201915b5050505050905090565b60025460009061011a9083610287565b600390565b60008282111561027657634e487b7160e01b600052600160045260246000fd5b6102808284610340565b9392505050565b6000806102948385610328565b90508381101561028057634e487b7160e01b600052600160045260246000fd5b6000602082840312156102c5578081fd5b5035919050565b6000602080835283518082850152825b818110156102f8578581018301518582016040015282016102dc565b818111156103095783604083870101525b50601f01601f1916929092016040019392505050565b90815260200190565b6000821982111561033b5761033b610392565b500190565b60008282101561035257610352610392565b500390565b60028104600182168061036b57607f821691505b6020821081141561038c57634e487b7160e01b600052602260045260246000fd5b50919050565b634e487b7160e01b600052601160045260246000fdfea2646970667358221220ec4fdd8925b9af8bbdb8212b2c1c133371927501989277696b5bc228c61f7cd464736f6c63430008000033608060405234801561001057600080fd5b506040516105ed3803806105ed83398101604081905261002f916100e5565b815161004290600090602085019061004c565b5060025550610200565b828054610058906101af565b90600052602060002090601f01602090048101928261007a57600085556100c0565b82601f1061009357805160ff19168380011785556100c0565b828001600101855582156100c0579182015b828111156100c05782518255916020019190600101906100a5565b506100cc9291506100d0565b5090565b5b808211156100cc57600081556001016100d1565b600080604083850312156100f7578182fd5b82516001600160401b038082111561010d578384fd5b818501915085601f830112610120578384fd5b815181811115610132576101326101ea565b6040516020601f8301601f1916820181018481118382101715610157576101576101ea565b604052828252848301810189101561016d578687fd5b8693505b8284101561018e5784840181015182850182015292830192610171565b8284111561019e57868184840101525b969096015195979596505050505050565b6002810460018216806101c357607f821691505b602082108114156101e457634e487b7160e01b600052602260045260246000fd5b50919050565b634e487b7160e01b600052604160045260246000fd5b6103de8061020f6000396000f3fe608060405234801561001057600080fd5b50600436106100785760003560e01c80639be0b8001461007d5780639e66e0f31461009b578063ae4f7a4c146100a3578063b0b6d161146100ab578063bc7b35b2146100c0578063cb86d6e6146100d5578063f5a50589146100dd578063f7ac4af4146100f0575b600080fd5b6100856100f8565b604051610092919061031f565b60405180910390f35b6100856100fe565b610085610104565b6100be6100b93660046102b4565b61010a565b005b6100c8610121565b60405161009291906102cc565b6100c86101af565b6100be6100eb3660046102b4565b610241565b610085610251565b60025490565b60015481565b60025481565b60025460009061011a9083610256565b6002555050565b6000805461012e90610357565b80601f016020809104026020016040519081016040528092919081815260200182805461015a90610357565b80156101a75780601f1061017c576101008083540402835291602001916101a7565b820191906000526020600020905b81548152906001019060200180831161018a57829003601f168201915b505050505081565b6060600080546101be90610357565b80601f01602080910402602001604051908101604052809291908181526020018280546101ea90610357565b80156102375780601f1061020c57610100808354040283529160200191610237565b820191906000526020600020905b81548152906001019060200180831161021a57829003601f168201915b5050505050905090565b60025460009061011a9083610287565b600290565b60008282111561027657634e487b7160e01b600052600160045260246000fd5b6102808284610340565b9392505050565b6000806102948385610328565b90508381101561028057634e487b7160e01b600052600160045260246000fd5b6000602082840312156102c5578081fd5b5035919050565b6000602080835283518082850152825b818110156102f8578581018301518582016040015282016102dc565b818111156103095783604083870101525b50601f01601f1916929092016040019392505050565b90815260200190565b6000821982111561033b5761033b610392565b500190565b60008282101561035257610352610392565b500390565b60028104600182168061036b57607f821691505b6020821081141561038c57634e487b7160e01b600052602260045260246000fd5b50919050565b634e487b7160e01b600052601160045260246000fdfea26469706673582212209fa3f8a3d7dc290461c285365a2ccb7550c882f55ab168043675370c0f01976664736f6c63430008000033a26469706673582212209c33c0417751f064b6ddd365ee7ead2e7111fd8b75e5fd31174b0073704e7f1a64736f6c63430008000033",
  "immutableReferences": {},
  "source": "// SPDX-License-Identifier: MIT\r\npragma solidity ^0.8.0;\r\npragma experimental ABIEncoderV2;\r\nimport \"./models/TipoEnergia.sol\";\r\nimport \"./models/InfoContrato.sol\";\r\nimport \"./models/TipoEnergiaFactory.sol\";\r\nimport \"./Generador.sol\";\r\nimport \"./Cliente.sol\";\r\nimport \"./models/Agente.sol\";\r\nimport \"./libraries/Validations.sol\";\r\n\r\ncontract Comercializador is Agente {\r\n    uint256 public contadorEmisiones = 0;\r\n    //Variable que se encarga de guardar las direccions de los contratos del comercializador\r\n    InfoContrato[] private clientesComercializador;\r\n\r\n    //Variable que se encarga de guardar las direccions de los contratos del comercializador segun el owner\r\n    mapping(string => mapping(address => TipoEnergia)) energiasClienteComercializador;\r\n    TipoEnergiaFactory private factoryEnergia;\r\n    TipoComercio public tipoComercio;\r\n\r\n    mapping(uint256 => InfoEmisionCompra) private emisionCompra;\r\n\r\n    event EmisionDeCompra (InfoEmisionCompra);\r\n\r\n    constructor(InfoContrato memory _infoContrato, address _reguladorMercado) {\r\n        reguladorMercado = _reguladorMercado;\r\n        infoContrato = InfoContrato(\r\n            address(this),\r\n            _infoContrato.owner,\r\n            _infoContrato.nit,\r\n            _infoContrato.empresa,\r\n            _infoContrato.contacto,\r\n            _infoContrato.telefono,\r\n            _infoContrato.correo,\r\n            _infoContrato.departamento,\r\n            _infoContrato.ciudad,\r\n            _infoContrato.direccion,\r\n            nullAddress,\r\n            _infoContrato.tipoComercio\r\n        );\r\n        tipoComercio = TipoComercio(_infoContrato.tipoComercio);\r\n        factoryEnergia = new TipoEnergiaFactory();\r\n    }\r\n\r\n    /**\r\n    Funcion que permite la compra de energia por parte del cliente a traves de un contrato de comercializador, solo la pueden ejecutar los contratos de comercializador del tipo cliente\r\n     */\r\n    function ComprarEnergia(\r\n        address _dirContrato,\r\n        address _ownerCliente,\r\n        uint256 _cantidadEnergia,\r\n        string memory nombreTipoEnergia,\r\n        uint256 index\r\n    ) public authorize(msg.sender) onlyCliente {\r\n        require(\r\n            !Validations.aproveCreation(_ownerCliente, clientesComercializador),\r\n            \"El cliente no es un cliente de este contrato\"\r\n        );\r\n        Generador(_dirContrato).ComprarEnergia(\r\n            _cantidadEnergia,\r\n            nombreTipoEnergia,\r\n            _ownerCliente\r\n        );\r\n        if (\r\n            address(\r\n                energiasClienteComercializador[nombreTipoEnergia][_ownerCliente]\r\n            ) == nullAddress\r\n        ) {\r\n            energiasClienteComercializador[nombreTipoEnergia][\r\n                _ownerCliente\r\n            ] = factoryEnergia.generarNuevaEnergia(\r\n                nombreTipoEnergia,\r\n                _cantidadEnergia\r\n            );\r\n        } else {\r\n            energiasClienteComercializador[nombreTipoEnergia][_ownerCliente]\r\n                .addCantidadEnergia(_cantidadEnergia);\r\n        }\r\n        setInfoCompras(index);\r\n    }\r\n\r\n    function setInfoEmisionesDeCompra(\r\n        InfoContrato memory _infoContrato,\r\n        string memory _tipoEnergia,\r\n        uint256 _cantidadEnergia\r\n    ) public onlyCliente {\r\n        InfoEmisionCompra memory infoEmisionCompra = InfoEmisionCompra(\r\n            _infoContrato.owner,\r\n            _infoContrato.dirContrato,\r\n            _infoContrato.empresa,\r\n            _tipoEnergia,\r\n            _cantidadEnergia,\r\n            EstadoCompra.pendiente,\r\n            block.timestamp,\r\n            0,\r\n            contadorEmisiones\r\n        );\r\n        emisionCompra[contadorEmisiones] = infoEmisionCompra;\r\n        emit EmisionDeCompra(infoEmisionCompra);\r\n        contadorEmisiones++;\r\n    }\r\n\r\n    function setInfoCompras(uint256 index) private authorize(msg.sender) {\r\n        emisionCompra[index].estado = EstadoCompra.aprobada;\r\n        emisionCompra[index].fechaAprobacion = block.timestamp;\r\n    }\r\n\r\n    function getInfoEmisionesDeCompra(uint index) public view returns (InfoEmisionCompra memory) {\r\n        return emisionCompra[index];\r\n    }\r\n    /**\r\n     Funcion que permite la venta de energia por parte del generador a traves de un contrato de comercializador, solo la pueden ejecutar los contratos de comercializador del tipo generador\r\n     */\r\n    function VentaEnergia(\r\n        address _dirContrato,\r\n        uint256 _cantidadEnergia,\r\n        string memory nombreTipoEnergia\r\n    ) public {}\r\n\r\n    function getEnergiaDisponible(\r\n        string memory _nombreTipoEnergia,\r\n        address _cliente\r\n    ) public view returns (uint256) {\r\n        return\r\n            energiasClienteComercializador[_nombreTipoEnergia][_cliente]\r\n                .getCantidadEnergia();\r\n    }\r\n\r\n    function getTipoContrato() public view returns (uint256) {\r\n        return uint256(tipoComercio);\r\n    }\r\n\r\n    function setClientesComercializador(InfoContrato memory _infoContrato)\r\n        public\r\n    {\r\n        clientesComercializador.push(_infoContrato);\r\n    }\r\n\r\n    function getClientesComercializador()\r\n        public\r\n        view\r\n        returns (InfoContrato[] memory)\r\n    {\r\n        return clientesComercializador;\r\n    }\r\n\r\n    modifier onlyCliente() {\r\n        require(\r\n            tipoComercio == TipoComercio.Cliente,\r\n            \"Solo los contratos de cliente pueden ejecutar esta funcion\"\r\n        );\r\n        _;\r\n    }\r\n}\r\n",
  "sourcePath": "C:\\Users\\alejandro.perez\\Desktop\\DemoMvmTruffle\\contracts\\Comercializador.sol",
  "compiler": {
    "name": "solc",
    "version": "0.8.0+commit.c7dfd78e.Emscripten.clang"
  },
  "schemaVersion": "3.4.7",
  "updatedAt": "2022-07-27T13:00:40.381Z",
  "devdoc": {
    "kind": "dev",
    "methods": {},
    "version": 1
  },
  "userdoc": {
    "kind": "user",
    "methods": {
      "ComprarEnergia(address,address,uint256,string,uint256)": {
        "notice": "Funcion que permite la compra de energia por parte del cliente a traves de un contrato de comercializador, solo la pueden ejecutar los contratos de comercializador del tipo cliente"
      },
      "VentaEnergia(address,uint256,string)": {
        "notice": "Funcion que permite la venta de energia por parte del generador a traves de un contrato de comercializador, solo la pueden ejecutar los contratos de comercializador del tipo generador"
      }
    },
    "version": 1
  }
}