{
  "contractName": "Comercializador",
  "abi": [
    {
      "inputs": [
        {
          "internalType": "string",
          "name": "_empresa",
          "type": "string"
        },
        {
          "internalType": "address",
          "name": "_direccion",
          "type": "address"
        },
        {
          "internalType": "address",
          "name": "_reguladorMercado",
          "type": "address"
        },
        {
          "internalType": "uint256",
          "name": "_tipoComercio",
          "type": "uint256"
        }
      ],
      "stateMutability": "nonpayable",
      "type": "constructor"
    },
    {
      "inputs": [],
      "name": "MisTokens",
      "outputs": [
        {
          "internalType": "uint256",
          "name": "",
          "type": "uint256"
        }
      ],
      "stateMutability": "view",
      "type": "function"
    },
    {
      "inputs": [],
      "name": "dirContrato",
      "outputs": [
        {
          "internalType": "address",
          "name": "",
          "type": "address"
        }
      ],
      "stateMutability": "view",
      "type": "function"
    },
    {
      "inputs": [],
      "name": "empresa",
      "outputs": [
        {
          "internalType": "string",
          "name": "",
          "type": "string"
        }
      ],
      "stateMutability": "view",
      "type": "function"
    },
    {
      "inputs": [],
      "name": "getInfoContrato",
      "outputs": [
        {
          "components": [
            {
              "internalType": "string",
              "name": "empresa",
              "type": "string"
            },
            {
              "internalType": "address",
              "name": "owner",
              "type": "address"
            },
            {
              "internalType": "address",
              "name": "dirContrato",
              "type": "address"
            }
          ],
          "internalType": "struct infoContrato",
          "name": "",
          "type": "tuple"
        }
      ],
      "stateMutability": "view",
      "type": "function"
    },
    {
      "inputs": [],
      "name": "nullAddress",
      "outputs": [
        {
          "internalType": "address",
          "name": "",
          "type": "address"
        }
      ],
      "stateMutability": "view",
      "type": "function"
    },
    {
      "inputs": [],
      "name": "owner",
      "outputs": [
        {
          "internalType": "address",
          "name": "",
          "type": "address"
        }
      ],
      "stateMutability": "view",
      "type": "function"
    },
    {
      "inputs": [],
      "name": "reguladorMercado",
      "outputs": [
        {
          "internalType": "address",
          "name": "",
          "type": "address"
        }
      ],
      "stateMutability": "view",
      "type": "function"
    },
    {
      "inputs": [],
      "name": "tipoComercio",
      "outputs": [
        {
          "internalType": "enum Comercializador.TipoComercio",
          "name": "",
          "type": "uint8"
        }
      ],
      "stateMutability": "view",
      "type": "function"
    },
    {
      "inputs": [
        {
          "internalType": "address",
          "name": "_dirContrato",
          "type": "address"
        },
        {
          "internalType": "address",
          "name": "_ownerCliente",
          "type": "address"
        },
        {
          "internalType": "uint256",
          "name": "_cantidadEnergia",
          "type": "uint256"
        },
        {
          "internalType": "string",
          "name": "nombreTipoEnergia",
          "type": "string"
        }
      ],
      "name": "ComprarEnergia",
      "outputs": [],
      "stateMutability": "nonpayable",
      "type": "function"
    },
    {
      "inputs": [
        {
          "internalType": "address",
          "name": "_dirContrato",
          "type": "address"
        },
        {
          "internalType": "uint256",
          "name": "_cantidadEnergia",
          "type": "uint256"
        },
        {
          "internalType": "string",
          "name": "nombreTipoEnergia",
          "type": "string"
        }
      ],
      "name": "VentaEnergia",
      "outputs": [],
      "stateMutability": "nonpayable",
      "type": "function"
    },
    {
      "inputs": [
        {
          "internalType": "string",
          "name": "_nombreTipoEnergia",
          "type": "string"
        },
        {
          "internalType": "address",
          "name": "_cliente",
          "type": "address"
        }
      ],
      "name": "getEnergiaDisponible",
      "outputs": [
        {
          "internalType": "uint256",
          "name": "",
          "type": "uint256"
        }
      ],
      "stateMutability": "view",
      "type": "function"
    },
    {
      "inputs": [],
      "name": "getTipoContrato",
      "outputs": [
        {
          "internalType": "uint256",
          "name": "",
          "type": "uint256"
        }
      ],
      "stateMutability": "view",
      "type": "function"
    },
    {
      "inputs": [
        {
          "internalType": "address",
          "name": "_dirCliente",
          "type": "address"
        }
      ],
      "name": "setClientesComercializador",
      "outputs": [],
      "stateMutability": "nonpayable",
      "type": "function"
    },
    {
      "inputs": [],
      "name": "getClientesComercializador",
      "outputs": [
        {
          "internalType": "address[]",
          "name": "",
          "type": "address[]"
        }
      ],
      "stateMutability": "view",
      "type": "function"
    }
  ],
  "bytecode": "0x6080604052600480546001600160a01b03191690553480156200002157600080fd5b50604051620024d3380380620024d3833981016040819052620000449162000212565b83516200005990600090602087019062000141565b50600280546001600160a01b038086166001600160a01b0319928316179092556003805482163017905560018054928516929091169190911781558190811115620000b457634e487b7160e01b600052602160045260246000fd5b6008805460ff60a01b1916600160a01b836001811115620000e557634e487b7160e01b600052602160045260246000fd5b0217905550604051620000f890620001d0565b604051809103906000f08015801562000115573d6000803e3d6000fd5b50600880546001600160a01b0319166001600160a01b0392909216919091179055506200036392505050565b8280546200014f9062000310565b90600052602060002090601f016020900481019282620001735760008555620001be565b82601f106200018e57805160ff1916838001178555620001be565b82800160010185558215620001be579182015b82811115620001be578251825591602001919060010190620001a1565b50620001cc929150620001de565b5090565b6112ba806200121983390190565b5b80821115620001cc5760008155600101620001df565b80516001600160a01b03811681146200020d57600080fd5b919050565b6000806000806080858703121562000228578384fd5b84516001600160401b03808211156200023f578586fd5b818701915087601f83011262000253578586fd5b8151818111156200026857620002686200034d565b6040516020601f8301601f19168201810184811183821017156200029057620002906200034d565b60405282825284830181018b1015620002a7578889fd5b8893505b82841015620002ca5784840181015182850182015292830192620002ab565b82841115620002db57888184840101525b819850620002eb818b01620001f5565b975050505050506200030060408601620001f5565b6060959095015193969295505050565b6002810460018216806200032557607f821691505b602082108114156200034757634e487b7160e01b600052602260045260246000fd5b50919050565b634e487b7160e01b600052604160045260246000fd5b610ea680620003736000396000f3fe608060405234801561001057600080fd5b50600436106100ea5760003560e01c80638df45d931161008c578063cf7bddef11610066578063cf7bddef1461019f578063def95882146101b4578063e33f34a0146101c7578063ef3090e7146101cf576100ea565b80638df45d9314610162578063922fcee9146101775780639be0e7ce1461018a576100ea565b80637eb5a688116100c85780637eb5a68814610135578063810d87d21461013d578063856788df146101525780638da5cb5b1461015a576100ea565b8063013643fd146100ef578063551edf901461010d57806356a5513914610122575b600080fd5b6100f76101e4565b6040516101049190610d9d565b60405180910390f35b610115610218565b6040516101049190610b40565b6100f7610130366004610a90565b610227565b6101156102cf565b61015061014b366004610993565b6102de565b005b61011561061d565b61011561062c565b61016a61063b565b6040516101049190610bfd565b6101506101853660046109fd565b61064b565b610192610650565b6040516101049190610d51565b6101a7610713565b6040516101049190610c25565b6101506101c2366004610977565b6107a1565b6100f76107f3565b6101d7610874565b6040516101049190610bb0565b600854600090600160a01b900460ff16600181111561021357634e487b7160e01b600052602160045260246000fd5b905090565b6004546001600160a01b031681565b60006007836040516102399190610b24565b90815260408051602092819003830181206001600160a01b038681166000908152918552908390205462137c1760eb1b83529251921692639be0b80092600480840193829003018186803b15801561029057600080fd5b505afa1580156102a4573d6000803e3d6000fd5b505050506040513d601f19601f820116820180604052508101906102c89190610ae0565b9392505050565b6001546001600160a01b031681565b60025433906001600160a01b031681146103135760405162461bcd60e51b815260040161030a90610d03565b60405180910390fd5b6001600854600160a01b900460ff16600181111561034157634e487b7160e01b600052602160045260246000fd5b1461035e5760405162461bcd60e51b815260040161030a90610ca6565b60405162e79c8360e31b815273__Validations___________________________9063073ce41890610397908790600690600401610b54565b60206040518083038186803b1580156103af57600080fd5b505af41580156103c3573d6000803e3d6000fd5b505050506040513d601f19601f820116820180604052508101906103e79190610a54565b6104035760405162461bcd60e51b815260040161030a90610c5a565b60405163cfa5784960e01b81526001600160a01b0386169063cfa578499061043390869086908990600401610da6565b600060405180830381600087803b15801561044d57600080fd5b505af1158015610461573d6000803e3d6000fd5b50506004546040516001600160a01b03909116925060079150610485908590610b24565b90815260408051602092819003830190206001600160a01b0388811660009081529190935220541614156105885760085460405163259e757760e01b81526001600160a01b039091169063259e7577906104e59085908790600401610c38565b602060405180830381600087803b1580156104ff57600080fd5b505af1158015610513573d6000803e3d6000fd5b505050506040513d601f19601f820116820180604052508101906105379190610a74565b6007836040516105479190610b24565b90815260408051602092819003830190206001600160a01b038881166000908152919093522080546001600160a01b03191692909116919091179055610616565b6007826040516105989190610b24565b9081526040805191829003602090810183206001600160a01b03808916600090815291909252919091205463f5a5058960e01b8352169063f5a50589906105e3908690600401610d9d565b600060405180830381600087803b1580156105fd57600080fd5b505af1158015610611573d6000803e3d6000fd5b505050505b5050505050565b6003546001600160a01b031681565b6002546001600160a01b031681565b600854600160a01b900460ff1681565b505050565b6106586108d6565b60405180606001604052806000805461067090610e07565b80601f016020809104026020016040519081016040528092919081815260200182805461069c90610e07565b80156106e95780601f106106be576101008083540402835291602001916106e9565b820191906000526020600020905b8154815290600101906020018083116106cc57829003601f168201915b50505091835250506002546001600160a01b03908116602083015260035416604090910152905090565b6000805461072090610e07565b80601f016020809104026020016040519081016040528092919081815260200182805461074c90610e07565b80156107995780601f1061076e57610100808354040283529160200191610799565b820191906000526020600020905b81548152906001019060200180831161077c57829003601f168201915b505050505081565b600680546001810182556000919091527ff652222313e28459528d920b65115c16c04f3efc82aaedc97be59f3f377c0d3f0180546001600160a01b0319166001600160a01b0392909216919091179055565b600154604051630e03c03b60e01b81526000916001600160a01b031690630e03c03b90610824903390600401610b40565b60206040518083038186803b15801561083c57600080fd5b505afa158015610850573d6000803e3d6000fd5b505050506040513d601f19601f820116820180604052508101906102139190610ae0565b606060068054806020026020016040519081016040528092919081815260200182805480156108cc57602002820191906000526020600020905b81546001600160a01b031681526001909101906020018083116108ae575b5050505050905090565b604080516060808201835281526000602082018190529181019190915290565b600082601f830112610906578081fd5b813567ffffffffffffffff8082111561092157610921610e42565b604051601f8301601f19168101602001828111828210171561094557610945610e42565b60405282815284830160200186101561095c578384fd5b82602086016020830137918201602001929092529392505050565b600060208284031215610988578081fd5b81356102c881610e58565b600080600080608085870312156109a8578283fd5b84356109b381610e58565b935060208501356109c381610e58565b925060408501359150606085013567ffffffffffffffff8111156109e5578182fd5b6109f1878288016108f6565b91505092959194509250565b600080600060608486031215610a11578283fd5b8335610a1c81610e58565b925060208401359150604084013567ffffffffffffffff811115610a3e578182fd5b610a4a868287016108f6565b9150509250925092565b600060208284031215610a65578081fd5b815180151581146102c8578182fd5b600060208284031215610a85578081fd5b81516102c881610e58565b60008060408385031215610aa2578182fd5b823567ffffffffffffffff811115610ab8578283fd5b610ac4858286016108f6565b9250506020830135610ad581610e58565b809150509250929050565b600060208284031215610af1578081fd5b5051919050565b60008151808452610b10816020860160208601610dd7565b601f01601f19169290920160200192915050565b60008251610b36818460208701610dd7565b9190910192915050565b6001600160a01b0391909116815260200190565b60006040820160018060a01b03808616845260206040818601528286548085526060870191508786528286209450855b81811015610ba2578554851683526001958601959284019201610b84565b509098975050505050505050565b6020808252825182820181905260009190848201906040850190845b81811015610bf15783516001600160a01b031683529284019291840191600101610bcc565b50909695505050505050565b6020810160028310610c1f57634e487b7160e01b600052602160045260246000fd5b91905290565b6000602082526102c86020830184610af8565b600060408252610c4b6040830185610af8565b90508260208301529392505050565b6020808252602c908201527f456c20636c69656e7465206e6f20657320756e20636c69656e7465206465206560408201526b73746520636f6e747261746f60a01b606082015260800190565b6020808252603a908201527f536f6c6f206c6f7320636f6e747261746f7320646520636c69656e746520707560408201527f6564656e20656a65637574617220657374612066756e63696f6e000000000000606082015260800190565b6020808252602e908201527f4e6f207469656e65207065726d69736f73207061726120656a6563757461722060408201526d3630903a3930b739b0b1b1b4b7b760911b606082015260800190565b600060208252825160606020840152610d6d6080840182610af8565b60208501516001600160a01b03908116604086810191909152909501519094166060909301929092525090919050565b90815260200190565b600084825260606020830152610dbf6060830185610af8565b905060018060a01b0383166040830152949350505050565b60005b83811015610df2578181015183820152602001610dda565b83811115610e01576000848401525b50505050565b600281046001821680610e1b57607f821691505b60208210811415610e3c57634e487b7160e01b600052602260045260246000fd5b50919050565b634e487b7160e01b600052604160045260246000fd5b6001600160a01b0381168114610e6d57600080fd5b5056fea2646970667358221220fb77b6377ac3022a2849181036d3e8e06a3c959c1bca099e35fdb76da8f9168c64736f6c63430008000033600560c09081526439b7b630b960d91b60e0526080908152610140604052600661010090815265656f6c69636160d01b6101205260a052610044906000906002610057565b5034801561005157600080fd5b506101e0565b8280548282559060005260206000209081019282156100a4579160200282015b828111156100a457825180516100949184916020909101906100b4565b5091602001919060010190610077565b506100b0929150610134565b5090565b8280546100c0906101a5565b90600052602060002090601f0160209004810192826100e25760008555610128565b82601f106100fb57805160ff1916838001178555610128565b82800160010185558215610128579182015b8281111561012857825182559160200191906001019061010d565b506100b0929150610151565b808211156100b05760006101488282610166565b50600101610134565b5b808211156100b05760008155600101610152565b508054610172906101a5565b6000825580601f1061018457506101a2565b601f0160209004906000526020600020908101906101a29190610151565b50565b6002810460018216806101b957607f821691505b602082108114156101da57634e487b7160e01b600052602260045260246000fd5b50919050565b6110cb806101ef6000396000f3fe608060405234801561001057600080fd5b50600436106100365760003560e01c8063259e75771461003b5780636d4fe5c714610064575b600080fd5b61004e610049366004610338565b610084565b60405161005b9190610473565b60405180910390f35b6100776100723660046103df565b61024b565b60405161005b9190610487565b6040516388d8da5f60e01b81526000908190819073__StringLibrary_________________________906388d8da5f906100c290889060040161049a565b60206040518083038186803b1580156100da57600080fd5b505af41580156100ee573d6000803e3d6000fd5b505050506040513d601f19601f820116820180604052508101906101129190610311565b156101565783604051610124906102f7565b61012e9190610562565b604051809103906000f08015801561014a573d6000803e3d6000fd5b5091506001905061021d565b6040516388d8da5f60e01b815273__StringLibrary_________________________906388d8da5f9061018d9088906004016104c6565b60206040518083038186803b1580156101a557600080fd5b505af41580156101b9573d6000803e3d6000fd5b505050506040513d601f19601f820116820180604052508101906101dd9190610311565b1561021d57836040516101ef90610304565b6101f99190610582565b604051809103906000f080158015610215573d6000803e3d6000fd5b509150600190505b806102435760405162461bcd60e51b815260040161023a906104ea565b60405180910390fd5b509392505050565b6000818154811061025b57600080fd5b90600052602060002001600091509050805461027690610594565b80601f01602080910402602001604051908101604052809291908181526020018280546102a290610594565b80156102ef5780601f106102c4576101008083540402835291602001916102ef565b820191906000526020600020905b8154815290600101906020018083116102d257829003601f168201915b505050505081565b610558806105e683390190565b61055880610b3e83390190565b600060208284031215610322578081fd5b81518015158114610331578182fd5b9392505050565b6000806040838503121561034a578081fd5b823567ffffffffffffffff80821115610361578283fd5b818501915085601f830112610374578283fd5b8135602082821115610388576103886105cf565b604051601f8301601f19168101820184811182821017156103ab576103ab6105cf565b60405282815284830182018910156103c1578586fd5b82828601838301379182018101949094529694909201359450505050565b6000602082840312156103f0578081fd5b5035919050565b60008151808452815b8181101561041c57602081850181015186830182015201610400565b8181111561042d5782602083870101525b50601f01601f19169290920160200192915050565b600581526439b7b630b960d91b602082015260400190565b6006815265656f6c69636160d01b602082015260400190565b6001600160a01b0391909116815260200190565b60006020825261033160208301846103f7565b6000604082526104ad60408301846103f7565b82810360208401526104be81610442565b949350505050565b6000604082526104d960408301846103f7565b82810360208401526104be8161045a565b60208082526052908201527f4e6f20657320756e207469706f20646520656e65726769612076616c69646f2c60408201527f206c6f73207469706f732076616c69646f7320736f6e3a20736f6c61722c20656060820152716f6c696361206f206869647261756c69636160701b608082015260a00190565b60006040825261057460408301610442565b905082602083015292915050565b6000604082526105746040830161045a565b6002810460018216806105a857607f821691505b602082108114156105c957634e487b7160e01b600052602260045260246000fd5b50919050565b634e487b7160e01b600052604160045260246000fdfe608060405234801561001057600080fd5b5060405161055838038061055883398101604081905261002f916100e5565b815161004290600090602085019061004c565b5060025550610200565b828054610058906101af565b90600052602060002090601f01602090048101928261007a57600085556100c0565b82601f1061009357805160ff19168380011785556100c0565b828001600101855582156100c0579182015b828111156100c05782518255916020019190600101906100a5565b506100cc9291506100d0565b5090565b5b808211156100cc57600081556001016100d1565b600080604083850312156100f7578182fd5b82516001600160401b038082111561010d578384fd5b818501915085601f830112610120578384fd5b815181811115610132576101326101ea565b6040516020601f8301601f1916820181018481118382101715610157576101576101ea565b604052828252848301810189101561016d578687fd5b8693505b8284101561018e5784840181015182850182015292830192610171565b8284111561019e57868184840101525b969096015195979596505050505050565b6002810460018216806101c357607f821691505b602082108114156101e457634e487b7160e01b600052602260045260246000fd5b50919050565b634e487b7160e01b600052604160045260246000fd5b6103498061020f6000396000f3fe608060405234801561001057600080fd5b506004361061007d5760003560e01c8063b0b6d1611161005b578063b0b6d161146100b0578063bc7b35b2146100c5578063f5a50589146100da578063f7ac4af4146100ed5761007d565b80639be0b800146100825780639e66e0f3146100a0578063ae4f7a4c146100a8575b600080fd5b61008a6100f5565b604051610097919061028a565b60405180910390f35b61008a6100fb565b61008a610101565b6100c36100be36600461021f565b610107565b005b6100cd61011e565b6040516100979190610237565b6100c36100e836600461021f565b6101ac565b61008a6101bc565b60025490565b60015481565b60025481565b60025460009061011790836101c1565b6002555050565b6000805461012b906102c2565b80601f0160208091040260200160405190810160405280929190818152602001828054610157906102c2565b80156101a45780601f10610179576101008083540402835291602001916101a4565b820191906000526020600020905b81548152906001019060200180831161018757829003601f168201915b505050505081565b60025460009061011790836101f2565b600390565b6000828211156101e157634e487b7160e01b600052600160045260246000fd5b6101eb82846102ab565b9392505050565b6000806101ff8385610293565b9050838110156101eb57634e487b7160e01b600052600160045260246000fd5b600060208284031215610230578081fd5b5035919050565b6000602080835283518082850152825b8181101561026357858101830151858201604001528201610247565b818111156102745783604083870101525b50601f01601f1916929092016040019392505050565b90815260200190565b600082198211156102a6576102a66102fd565b500190565b6000828210156102bd576102bd6102fd565b500390565b6002810460018216806102d657607f821691505b602082108114156102f757634e487b7160e01b600052602260045260246000fd5b50919050565b634e487b7160e01b600052601160045260246000fdfea26469706673582212206f0bca8a54f493d65ee7c9f63334f200db54562b0acf646132ca247f199b5b5464736f6c63430008000033608060405234801561001057600080fd5b5060405161055838038061055883398101604081905261002f916100e5565b815161004290600090602085019061004c565b5060025550610200565b828054610058906101af565b90600052602060002090601f01602090048101928261007a57600085556100c0565b82601f1061009357805160ff19168380011785556100c0565b828001600101855582156100c0579182015b828111156100c05782518255916020019190600101906100a5565b506100cc9291506100d0565b5090565b5b808211156100cc57600081556001016100d1565b600080604083850312156100f7578182fd5b82516001600160401b038082111561010d578384fd5b818501915085601f830112610120578384fd5b815181811115610132576101326101ea565b6040516020601f8301601f1916820181018481118382101715610157576101576101ea565b604052828252848301810189101561016d578687fd5b8693505b8284101561018e5784840181015182850182015292830192610171565b8284111561019e57868184840101525b969096015195979596505050505050565b6002810460018216806101c357607f821691505b602082108114156101e457634e487b7160e01b600052602260045260246000fd5b50919050565b634e487b7160e01b600052604160045260246000fd5b6103498061020f6000396000f3fe608060405234801561001057600080fd5b506004361061007d5760003560e01c8063b0b6d1611161005b578063b0b6d161146100b0578063bc7b35b2146100c5578063f5a50589146100da578063f7ac4af4146100ed5761007d565b80639be0b800146100825780639e66e0f3146100a0578063ae4f7a4c146100a8575b600080fd5b61008a6100f5565b604051610097919061028a565b60405180910390f35b61008a6100fb565b61008a610101565b6100c36100be36600461021f565b610107565b005b6100cd61011e565b6040516100979190610237565b6100c36100e836600461021f565b6101ac565b61008a6101bc565b60025490565b60015481565b60025481565b60025460009061011790836101c1565b6002555050565b6000805461012b906102c2565b80601f0160208091040260200160405190810160405280929190818152602001828054610157906102c2565b80156101a45780601f10610179576101008083540402835291602001916101a4565b820191906000526020600020905b81548152906001019060200180831161018757829003601f168201915b505050505081565b60025460009061011790836101f2565b600290565b6000828211156101e157634e487b7160e01b600052600160045260246000fd5b6101eb82846102ab565b9392505050565b6000806101ff8385610293565b9050838110156101eb57634e487b7160e01b600052600160045260246000fd5b600060208284031215610230578081fd5b5035919050565b6000602080835283518082850152825b8181101561026357858101830151858201604001528201610247565b818111156102745783604083870101525b50601f01601f1916929092016040019392505050565b90815260200190565b600082198211156102a6576102a66102fd565b500190565b6000828210156102bd576102bd6102fd565b500390565b6002810460018216806102d657607f821691505b602082108114156102f757634e487b7160e01b600052602260045260246000fd5b50919050565b634e487b7160e01b600052601160045260246000fdfea26469706673582212203b7db8b46cca9ce8e3ed4f5a492840dee56d945d4203dd5ce6fd1b80b84e973b64736f6c63430008000033a2646970667358221220deb1bf747051fb4a92553be3fcca3dc9d6eb105d29dca8947483bd2365d44dd364736f6c63430008000033",
  "immutableReferences": {},
  "source": "// SPDX-License-Identifier: MIT\r\npragma solidity ^0.8.0;\r\npragma experimental ABIEncoderV2;\r\nimport \"./models/TipoEnergia.sol\";\r\nimport \"./models/InfoContrato.sol\";\r\nimport \"./models/TipoEnergiaFactory.sol\";\r\nimport \"./ReguladorMercado.sol\";\r\nimport \"./Generador.sol\";\r\nimport \"./models/Agente.sol\";\r\nimport \"./libraries/Validations.sol\";\r\n\r\ncontract Comercializador is Agente {\r\n    //Direccion del contrato que genero el contrato de comercializador\r\n    address private dirFactory;\r\n    address[] private clientesComercializador;\r\n    mapping(string => mapping(address => TipoEnergia)) energiasClienteComercializador;\r\n    TipoEnergiaFactory private factoryEnergia;\r\n\r\n    enum TipoComercio {\r\n        Generador,\r\n        Cliente\r\n    }\r\n\r\n    TipoComercio public tipoComercio;\r\n\r\n    constructor(\r\n        string memory _empresa,\r\n        address _direccion,\r\n        address _reguladorMercado,\r\n        uint256 _tipoComercio\r\n    ) {\r\n        empresa = _empresa;\r\n        owner = _direccion;\r\n        dirContrato = address(this);\r\n        reguladorMercado = _reguladorMercado;\r\n        tipoComercio = TipoComercio(_tipoComercio);\r\n        factoryEnergia = new TipoEnergiaFactory();\r\n    }\r\n\r\n    /**\r\n    Funcion que permite la compra de energia por parte del cliente a traves de un contrato de comercializador, solo la pueden ejecutar los contratos de comercializador del tipo cliente\r\n     */\r\n    function ComprarEnergia(\r\n        address _dirContrato,\r\n        address _ownerCliente,\r\n        uint256 _cantidadEnergia,\r\n        string memory nombreTipoEnergia\r\n    ) public authorize(msg.sender) onlyCliente {\r\n        require(\r\n            Validations.existsAddress(_ownerCliente, clientesComercializador),\r\n            \"El cliente no es un cliente de este contrato\"\r\n        );\r\n        Generador(_dirContrato).ComprarEnergia(\r\n            _cantidadEnergia,\r\n            nombreTipoEnergia,\r\n            _ownerCliente\r\n        );\r\n        if (\r\n            address(\r\n                energiasClienteComercializador[nombreTipoEnergia][_ownerCliente]\r\n            ) == nullAddress\r\n        ) {\r\n            energiasClienteComercializador[nombreTipoEnergia][\r\n                _ownerCliente\r\n            ] = factoryEnergia.generarNuevaEnergia(\r\n                nombreTipoEnergia,\r\n                _cantidadEnergia\r\n            );\r\n        } else {\r\n            energiasClienteComercializador[nombreTipoEnergia][_ownerCliente]\r\n                .addCantidadEnergia(_cantidadEnergia);\r\n        }\r\n    }\r\n\r\n    /**\r\n     Funcion que permite la venta de energia por parte del generador a traves de un contrato de comercializador, solo la pueden ejecutar los contratos de comercializador del tipo generador\r\n     */\r\n    function VentaEnergia(\r\n        address _dirContrato,\r\n        uint256 _cantidadEnergia,\r\n        string memory nombreTipoEnergia\r\n    ) public {}\r\n\r\n    function getEnergiaDisponible(\r\n        string memory _nombreTipoEnergia,\r\n        address _cliente\r\n    ) public view returns (uint256) {\r\n        return\r\n            energiasClienteComercializador[_nombreTipoEnergia][_cliente]\r\n                .getCantidadEnergia();\r\n    }\r\n\r\n    function getTipoContrato() public view returns (uint256) {\r\n        return uint256(tipoComercio);\r\n    }\r\n\r\n    function setClientesComercializador(address _dirCliente) public {\r\n        clientesComercializador.push(_dirCliente);\r\n    }\r\n\r\n    function getClientesComercializador()\r\n        public\r\n        view\r\n        returns (address[] memory)\r\n    {\r\n        return clientesComercializador;\r\n    }\r\n\r\n    modifier onlyCliente() {\r\n        require(\r\n            tipoComercio == TipoComercio.Cliente,\r\n            \"Solo los contratos de cliente pueden ejecutar esta funcion\"\r\n        );\r\n        _;\r\n    }\r\n}\r\n",
  "sourcePath": "D:\\Santiago\\BlockChain\\DemoMvmTruffle\\contracts\\Comercializador.sol",
  "compiler": {
    "name": "solc",
    "version": "0.8.0+commit.c7dfd78e.Emscripten.clang"
  },
  "schemaVersion": "3.4.4",
  "updatedAt": "2022-07-01T13:02:06.095Z",
  "networkType": "ethereum",
  "devdoc": {
    "kind": "dev",
    "methods": {},
    "version": 1
  },
  "userdoc": {
    "kind": "user",
    "methods": {
      "ComprarEnergia(address,address,uint256,string)": {
        "notice": "Funcion que permite la compra de energia por parte del cliente a traves de un contrato de comercializador, solo la pueden ejecutar los contratos de comercializador del tipo cliente"
      },
      "VentaEnergia(address,uint256,string)": {
        "notice": "Funcion que permite la venta de energia por parte del generador a traves de un contrato de comercializador, solo la pueden ejecutar los contratos de comercializador del tipo generador"
      }
    },
    "version": 1
  }
}