{
  "contractName": "Comercializador",
  "abi": [
    {
      "inputs": [
        {
          "components": [
            {
              "internalType": "address",
              "name": "dirContrato",
              "type": "address"
            },
            {
              "internalType": "address",
              "name": "owner",
              "type": "address"
            },
            {
              "internalType": "string",
              "name": "nit",
              "type": "string"
            },
            {
              "internalType": "string",
              "name": "empresa",
              "type": "string"
            },
            {
              "internalType": "string",
              "name": "contacto",
              "type": "string"
            },
            {
              "internalType": "string",
              "name": "telefono",
              "type": "string"
            },
            {
              "internalType": "string",
              "name": "correo",
              "type": "string"
            },
            {
              "internalType": "string",
              "name": "departamento",
              "type": "string"
            },
            {
              "internalType": "string",
              "name": "ciudad",
              "type": "string"
            },
            {
              "internalType": "string",
              "name": "direccion",
              "type": "string"
            },
            {
              "internalType": "address",
              "name": "comercializador",
              "type": "address"
            },
            {
              "internalType": "uint256",
              "name": "tipoComercio",
              "type": "uint256"
            }
          ],
          "internalType": "struct InfoContrato",
          "name": "_infoContrato",
          "type": "tuple"
        },
        {
          "internalType": "address",
          "name": "_reguladorMercado",
          "type": "address"
        }
      ],
      "stateMutability": "nonpayable",
      "type": "constructor"
    },
    {
      "inputs": [],
      "name": "MisTokens",
      "outputs": [
        {
          "internalType": "uint256",
          "name": "",
          "type": "uint256"
        }
      ],
      "stateMutability": "view",
      "type": "function"
    },
    {
      "inputs": [],
      "name": "getInfoContrato",
      "outputs": [
        {
          "components": [
            {
              "internalType": "address",
              "name": "dirContrato",
              "type": "address"
            },
            {
              "internalType": "address",
              "name": "owner",
              "type": "address"
            },
            {
              "internalType": "string",
              "name": "nit",
              "type": "string"
            },
            {
              "internalType": "string",
              "name": "empresa",
              "type": "string"
            },
            {
              "internalType": "string",
              "name": "contacto",
              "type": "string"
            },
            {
              "internalType": "string",
              "name": "telefono",
              "type": "string"
            },
            {
              "internalType": "string",
              "name": "correo",
              "type": "string"
            },
            {
              "internalType": "string",
              "name": "departamento",
              "type": "string"
            },
            {
              "internalType": "string",
              "name": "ciudad",
              "type": "string"
            },
            {
              "internalType": "string",
              "name": "direccion",
              "type": "string"
            },
            {
              "internalType": "address",
              "name": "comercializador",
              "type": "address"
            },
            {
              "internalType": "uint256",
              "name": "tipoComercio",
              "type": "uint256"
            }
          ],
          "internalType": "struct InfoContrato",
          "name": "",
          "type": "tuple"
        }
      ],
      "stateMutability": "view",
      "type": "function"
    },
    {
      "inputs": [],
      "name": "nullAddress",
      "outputs": [
        {
          "internalType": "address",
          "name": "",
          "type": "address"
        }
      ],
      "stateMutability": "view",
      "type": "function"
    },
    {
      "inputs": [],
      "name": "reguladorMercado",
      "outputs": [
        {
          "internalType": "address",
          "name": "",
          "type": "address"
        }
      ],
      "stateMutability": "view",
      "type": "function"
    },
    {
      "inputs": [],
      "name": "tipoComercio",
      "outputs": [
        {
          "internalType": "enum Comercializador.TipoComercio",
          "name": "",
          "type": "uint8"
        }
      ],
      "stateMutability": "view",
      "type": "function"
    },
    {
      "inputs": [
        {
          "internalType": "address",
          "name": "_dirContrato",
          "type": "address"
        },
        {
          "internalType": "address",
          "name": "_ownerCliente",
          "type": "address"
        },
        {
          "internalType": "uint256",
          "name": "_cantidadEnergia",
          "type": "uint256"
        },
        {
          "internalType": "string",
          "name": "nombreTipoEnergia",
          "type": "string"
        }
      ],
      "name": "ComprarEnergia",
      "outputs": [],
      "stateMutability": "nonpayable",
      "type": "function"
    },
    {
      "inputs": [
        {
          "internalType": "address",
          "name": "_dirContrato",
          "type": "address"
        },
        {
          "internalType": "uint256",
          "name": "_cantidadEnergia",
          "type": "uint256"
        },
        {
          "internalType": "string",
          "name": "nombreTipoEnergia",
          "type": "string"
        }
      ],
      "name": "VentaEnergia",
      "outputs": [],
      "stateMutability": "nonpayable",
      "type": "function"
    },
    {
      "inputs": [
        {
          "internalType": "string",
          "name": "_nombreTipoEnergia",
          "type": "string"
        },
        {
          "internalType": "address",
          "name": "_cliente",
          "type": "address"
        }
      ],
      "name": "getEnergiaDisponible",
      "outputs": [
        {
          "internalType": "uint256",
          "name": "",
          "type": "uint256"
        }
      ],
      "stateMutability": "view",
      "type": "function"
    },
    {
      "inputs": [],
      "name": "getTipoContrato",
      "outputs": [
        {
          "internalType": "uint256",
          "name": "",
          "type": "uint256"
        }
      ],
      "stateMutability": "view",
      "type": "function"
    },
    {
      "inputs": [
        {
          "components": [
            {
              "internalType": "address",
              "name": "dirContrato",
              "type": "address"
            },
            {
              "internalType": "address",
              "name": "owner",
              "type": "address"
            },
            {
              "internalType": "string",
              "name": "nit",
              "type": "string"
            },
            {
              "internalType": "string",
              "name": "empresa",
              "type": "string"
            },
            {
              "internalType": "string",
              "name": "contacto",
              "type": "string"
            },
            {
              "internalType": "string",
              "name": "telefono",
              "type": "string"
            },
            {
              "internalType": "string",
              "name": "correo",
              "type": "string"
            },
            {
              "internalType": "string",
              "name": "departamento",
              "type": "string"
            },
            {
              "internalType": "string",
              "name": "ciudad",
              "type": "string"
            },
            {
              "internalType": "string",
              "name": "direccion",
              "type": "string"
            },
            {
              "internalType": "address",
              "name": "comercializador",
              "type": "address"
            },
            {
              "internalType": "uint256",
              "name": "tipoComercio",
              "type": "uint256"
            }
          ],
          "internalType": "struct InfoContrato",
          "name": "_infoContrato",
          "type": "tuple"
        }
      ],
      "name": "setClientesComercializador",
      "outputs": [],
      "stateMutability": "nonpayable",
      "type": "function"
    },
    {
      "inputs": [],
      "name": "getClientesComercializador",
      "outputs": [
        {
          "components": [
            {
              "internalType": "address",
              "name": "dirContrato",
              "type": "address"
            },
            {
              "internalType": "address",
              "name": "owner",
              "type": "address"
            },
            {
              "internalType": "string",
              "name": "nit",
              "type": "string"
            },
            {
              "internalType": "string",
              "name": "empresa",
              "type": "string"
            },
            {
              "internalType": "string",
              "name": "contacto",
              "type": "string"
            },
            {
              "internalType": "string",
              "name": "telefono",
              "type": "string"
            },
            {
              "internalType": "string",
              "name": "correo",
              "type": "string"
            },
            {
              "internalType": "string",
              "name": "departamento",
              "type": "string"
            },
            {
              "internalType": "string",
              "name": "ciudad",
              "type": "string"
            },
            {
              "internalType": "string",
              "name": "direccion",
              "type": "string"
            },
            {
              "internalType": "address",
              "name": "comercializador",
              "type": "address"
            },
            {
              "internalType": "uint256",
              "name": "tipoComercio",
              "type": "uint256"
            }
          ],
          "internalType": "struct InfoContrato[]",
          "name": "",
          "type": "tuple[]"
        }
      ],
      "stateMutability": "view",
      "type": "function"
    }
  ],
  "bytecode": "0x6080604052600d80546001600160a01b03191690553480156200002157600080fd5b50604051620038393803806200383983398101604081905262000044916200042f565b600080546001600160a01b038084166001600160a01b0319928316179092556040805161018081018252308082526020878101518616818401819052888501519484018590526060808a0151908501526080808a01519085015260a0808a01519085015260c0808a01519085015260e0808a0151908501526101008981015190850152610120808a015190850152600d549096166101408401526101608089015190840152600180548616909217825560028054909516909517909355815190936200011692600392910190620002cd565b506060820151805162000134916003840191602090910190620002cd565b506080820151805162000152916004840191602090910190620002cd565b5060a0820151805162000170916005840191602090910190620002cd565b5060c082015180516200018e916006840191602090910190620002cd565b5060e08201518051620001ac916007840191602090910190620002cd565b506101008201518051620001cb916008840191602090910190620002cd565b506101208201518051620001ea916009840191602090910190620002cd565b50610140820151600a820180546001600160a01b0319166001600160a01b0390921691909117905561016091820151600b9091015582015160018111156200024257634e487b7160e01b600052602160045260246000fd5b6011805460ff60a01b1916600160a01b8360018111156200027357634e487b7160e01b600052602160045260246000fd5b021790555060405162000286906200035c565b604051809103906000f080158015620002a3573d6000803e3d6000fd5b50601180546001600160a01b0319166001600160a01b039290921691909117905550620006909050565b828054620002db906200063d565b90600052602060002090601f016020900481019282620002ff57600085556200034a565b82601f106200031a57805160ff19168380011785556200034a565b828001600101855582156200034a579182015b828111156200034a5782518255916020019190600101906200032d565b50620003589291506200036a565b5090565b611404806200243583390190565b5b808211156200035857600081556001016200036b565b80516001600160a01b03811681146200039957600080fd5b919050565b600082601f830112620003af578081fd5b81516001600160401b03811115620003cb57620003cb6200067a565b6020620003e1601f8301601f1916820162000611565b8281528582848701011115620003f5578384fd5b835b8381101562000414578581018301518282018401528201620003f7565b838111156200042557848385840101525b5095945050505050565b6000806040838503121562000442578182fd5b82516001600160401b038082111562000459578384fd5b818501915061018080838803121562000470578485fd5b6200047b8162000611565b9050620004888362000381565b8152620004986020840162000381565b6020820152604083015182811115620004af578586fd5b620004bd888286016200039e565b604083015250606083015182811115620004d5578586fd5b620004e3888286016200039e565b606083015250608083015182811115620004fb578586fd5b62000509888286016200039e565b60808301525060a08301518281111562000521578586fd5b6200052f888286016200039e565b60a08301525060c08301518281111562000547578586fd5b62000555888286016200039e565b60c08301525060e0830151828111156200056d578586fd5b6200057b888286016200039e565b60e083015250610100808401518381111562000595578687fd5b620005a3898287016200039e565b8284015250506101208084015183811115620005bd578687fd5b620005cb898287016200039e565b8284015250506101409150620005e382840162000381565b8282015261016091508183015182820152809450505050620006086020840162000381565b90509250929050565b6040518181016001600160401b03811182821017156200063557620006356200067a565b604052919050565b6002810460018216806200065257607f821691505b602082108114156200067457634e487b7160e01b600052602260045260246000fd5b50919050565b634e487b7160e01b600052604160045260246000fd5b611d9580620006a06000396000f3fe608060405234801561001057600080fd5b50600436106100a95760003560e01c80638df45d93116100715780638df45d9314610111578063922fcee9146101265780639be0e7ce14610139578063c650abce1461014e578063e33f34a014610161578063ef3090e714610169576100a9565b8063013643fd146100ae578063551edf90146100cc57806356a55139146100e15780637eb5a688146100f4578063810d87d2146100fc575b600080fd5b6100b661017e565b6040516100c39190611c4a565b60405180910390f35b6100d46101b2565b6040516100c39190611904565b6100b66100ef3660046114d9565b6101c1565b6100d4610269565b61010f61010a3660046113dc565b610278565b005b6101196105b8565b6040516100c39190611af6565b61010f610134366004611446565b6105c8565b6101416105cd565b6040516100c39190611c37565b61010f61015c366004611529565b610ab2565b6100b6610c95565b610171610d16565b6040516100c39190611a96565b601154600090600160a01b900460ff1660018111156101ad57634e487b7160e01b600052602160045260246000fd5b905090565b600d546001600160a01b031681565b60006010836040516101d391906118e8565b90815260408051602092819003830181206001600160a01b038681166000908152918552908390205462137c1760eb1b83529251921692639be0b80092600480840193829003018186803b15801561022a57600080fd5b505afa15801561023e573d6000803e3d6000fd5b505050506040513d601f19601f8201168201806040525081019061026291906116d6565b9392505050565b6000546001600160a01b031681565b60025433906001600160a01b031681146102ad5760405162461bcd60e51b81526004016102a490611be9565b60405180910390fd5b6000601154600160a01b900460ff1660018111156102db57634e487b7160e01b600052602160045260246000fd5b146102f85760405162461bcd60e51b81526004016102a490611b8c565b604051635010ecc560e01b815273__Validations___________________________90635010ecc590610332908790600e90600401611918565b60206040518083038186803b15801561034a57600080fd5b505af415801561035e573d6000803e3d6000fd5b505050506040513d601f19601f82011682018060405250810190610382919061149d565b61039e5760405162461bcd60e51b81526004016102a490611b40565b60405163cfa5784960e01b81526001600160a01b0386169063cfa57849906103ce90869086908990600401611c53565b600060405180830381600087803b1580156103e857600080fd5b505af11580156103fc573d6000803e3d6000fd5b5050600d546040516001600160a01b039091169250601091506104209085906118e8565b90815260408051602092819003830190206001600160a01b0388811660009081529190935220541614156105235760115460405163259e757760e01b81526001600160a01b039091169063259e7577906104809085908790600401611b1e565b602060405180830381600087803b15801561049a57600080fd5b505af11580156104ae573d6000803e3d6000fd5b505050506040513d601f19601f820116820180604052508101906104d291906114bd565b6010836040516104e291906118e8565b90815260408051602092819003830190206001600160a01b038881166000908152919093522080546001600160a01b031916929091169190911790556105b1565b60108260405161053391906118e8565b9081526040805191829003602090810183206001600160a01b03808916600090815291909252919091205463f5a5058960e01b8352169063f5a505899061057e908690600401611c4a565b600060405180830381600087803b15801561059857600080fd5b505af11580156105ac573d6000803e3d6000fd5b505050505b5050505050565b601154600160a01b900460ff1681565b505050565b6105d561124c565b6040805161018081018252600180546001600160a01b03908116835260025416602083015260038054929391929184019161060f90611cf6565b80601f016020809104026020016040519081016040528092919081815260200182805461063b90611cf6565b80156106885780601f1061065d57610100808354040283529160200191610688565b820191906000526020600020905b81548152906001019060200180831161066b57829003601f168201915b505050505081526020016003820180546106a190611cf6565b80601f01602080910402602001604051908101604052809291908181526020018280546106cd90611cf6565b801561071a5780601f106106ef5761010080835404028352916020019161071a565b820191906000526020600020905b8154815290600101906020018083116106fd57829003601f168201915b5050505050815260200160048201805461073390611cf6565b80601f016020809104026020016040519081016040528092919081815260200182805461075f90611cf6565b80156107ac5780601f10610781576101008083540402835291602001916107ac565b820191906000526020600020905b81548152906001019060200180831161078f57829003601f168201915b505050505081526020016005820180546107c590611cf6565b80601f01602080910402602001604051908101604052809291908181526020018280546107f190611cf6565b801561083e5780601f106108135761010080835404028352916020019161083e565b820191906000526020600020905b81548152906001019060200180831161082157829003601f168201915b5050505050815260200160068201805461085790611cf6565b80601f016020809104026020016040519081016040528092919081815260200182805461088390611cf6565b80156108d05780601f106108a5576101008083540402835291602001916108d0565b820191906000526020600020905b8154815290600101906020018083116108b357829003601f168201915b505050505081526020016007820180546108e990611cf6565b80601f016020809104026020016040519081016040528092919081815260200182805461091590611cf6565b80156109625780601f1061093757610100808354040283529160200191610962565b820191906000526020600020905b81548152906001019060200180831161094557829003601f168201915b5050505050815260200160088201805461097b90611cf6565b80601f01602080910402602001604051908101604052809291908181526020018280546109a790611cf6565b80156109f45780601f106109c9576101008083540402835291602001916109f4565b820191906000526020600020905b8154815290600101906020018083116109d757829003601f168201915b50505050508152602001600982018054610a0d90611cf6565b80601f0160208091040260200160405190810160405280929190818152602001828054610a3990611cf6565b8015610a865780601f10610a5b57610100808354040283529160200191610a86565b820191906000526020600020905b815481529060010190602001808311610a6957829003601f168201915b5050509183525050600a8201546001600160a01b03166020820152600b90910154604090910152905090565b8051602080830180516001600160a01b039081166000908152600f8452604080822080549684166001600160a01b0319978816179055600e805460018101825592528651600c9092027fbb7b4a454dc3493923482f07822329ed19e8244eff582cc204f8554c3620c3fd8101805493851693881693909317835593517fbb7b4a454dc3493923482f07822329ed19e8244eff582cc204f8554c3620c3fe8501805491909416961695909517909155928401518051859493610b97937fbb7b4a454dc3493923482f07822329ed19e8244eff582cc204f8554c3620c3ff019201906112c8565b5060608201518051610bb39160038401916020909101906112c8565b5060808201518051610bcf9160048401916020909101906112c8565b5060a08201518051610beb9160058401916020909101906112c8565b5060c08201518051610c079160068401916020909101906112c8565b5060e08201518051610c239160078401916020909101906112c8565b506101008201518051610c409160088401916020909101906112c8565b506101208201518051610c5d9160098401916020909101906112c8565b50610140820151600a820180546001600160a01b0319166001600160a01b0390921691909117905561016090910151600b9091015550565b60008054604051630e03c03b60e01b81526001600160a01b0390911690630e03c03b90610cc6903390600401611904565b60206040518083038186803b158015610cde57600080fd5b505afa158015610cf2573d6000803e3d6000fd5b505050506040513d601f19601f820116820180604052508101906101ad91906116d6565b6060600e805480602002602001604051908101604052809291908181526020016000905b828210156112435760008481526020908190206040805161018081018252600c860290920180546001600160a01b0390811684526001820154169383019390935260028301805492939291840191610d9190611cf6565b80601f0160208091040260200160405190810160405280929190818152602001828054610dbd90611cf6565b8015610e0a5780601f10610ddf57610100808354040283529160200191610e0a565b820191906000526020600020905b815481529060010190602001808311610ded57829003601f168201915b50505050508152602001600382018054610e2390611cf6565b80601f0160208091040260200160405190810160405280929190818152602001828054610e4f90611cf6565b8015610e9c5780601f10610e7157610100808354040283529160200191610e9c565b820191906000526020600020905b815481529060010190602001808311610e7f57829003601f168201915b50505050508152602001600482018054610eb590611cf6565b80601f0160208091040260200160405190810160405280929190818152602001828054610ee190611cf6565b8015610f2e5780601f10610f0357610100808354040283529160200191610f2e565b820191906000526020600020905b815481529060010190602001808311610f1157829003601f168201915b50505050508152602001600582018054610f4790611cf6565b80601f0160208091040260200160405190810160405280929190818152602001828054610f7390611cf6565b8015610fc05780601f10610f9557610100808354040283529160200191610fc0565b820191906000526020600020905b815481529060010190602001808311610fa357829003601f168201915b50505050508152602001600682018054610fd990611cf6565b80601f016020809104026020016040519081016040528092919081815260200182805461100590611cf6565b80156110525780601f1061102757610100808354040283529160200191611052565b820191906000526020600020905b81548152906001019060200180831161103557829003601f168201915b5050505050815260200160078201805461106b90611cf6565b80601f016020809104026020016040519081016040528092919081815260200182805461109790611cf6565b80156110e45780601f106110b9576101008083540402835291602001916110e4565b820191906000526020600020905b8154815290600101906020018083116110c757829003601f168201915b505050505081526020016008820180546110fd90611cf6565b80601f016020809104026020016040519081016040528092919081815260200182805461112990611cf6565b80156111765780601f1061114b57610100808354040283529160200191611176565b820191906000526020600020905b81548152906001019060200180831161115957829003601f168201915b5050505050815260200160098201805461118f90611cf6565b80601f01602080910402602001604051908101604052809291908181526020018280546111bb90611cf6565b80156112085780601f106111dd57610100808354040283529160200191611208565b820191906000526020600020905b8154815290600101906020018083116111eb57829003601f168201915b5050509183525050600a8201546001600160a01b0316602080830191909152600b909201546040909101529082526001929092019101610d3a565b50505050905090565b60405180610180016040528060006001600160a01b0316815260200160006001600160a01b03168152602001606081526020016060815260200160608152602001606081526020016060815260200160608152602001606081526020016060815260200160006001600160a01b03168152602001600081525090565b8280546112d490611cf6565b90600052602060002090601f0160209004810192826112f6576000855561133c565b82601f1061130f57805160ff191683800117855561133c565b8280016001018555821561133c579182015b8281111561133c578251825591602001919060010190611321565b5061134892915061134c565b5090565b5b80821115611348576000815560010161134d565b803561136c81611d47565b919050565b600082601f830112611381578081fd5b813567ffffffffffffffff81111561139b5761139b611d31565b6113ae601f8201601f1916602001611c84565b8181528460208386010111156113c2578283fd5b816020850160208301379081016020019190915292915050565b600080600080608085870312156113f1578384fd5b84356113fc81611d47565b9350602085013561140c81611d47565b925060408501359150606085013567ffffffffffffffff81111561142e578182fd5b61143a87828801611371565b91505092959194509250565b60008060006060848603121561145a578283fd5b833561146581611d47565b925060208401359150604084013567ffffffffffffffff811115611487578182fd5b61149386828701611371565b9150509250925092565b6000602082840312156114ae578081fd5b81518015158114610262578182fd5b6000602082840312156114ce578081fd5b815161026281611d47565b600080604083850312156114eb578182fd5b823567ffffffffffffffff811115611501578283fd5b61150d85828601611371565b925050602083013561151e81611d47565b809150509250929050565b60006020828403121561153a578081fd5b813567ffffffffffffffff80821115611551578283fd5b8184019150610180808387031215611567578384fd5b61157081611c84565b905061157b83611361565b815261158960208401611361565b602082015260408301358281111561159f578485fd5b6115ab87828601611371565b6040830152506060830135828111156115c2578485fd5b6115ce87828601611371565b6060830152506080830135828111156115e5578485fd5b6115f187828601611371565b60808301525060a083013582811115611608578485fd5b61161487828601611371565b60a08301525060c08301358281111561162b578485fd5b61163787828601611371565b60c08301525060e08301358281111561164e578485fd5b61165a87828601611371565b60e0830152506101008084013583811115611673578586fd5b61167f88828701611371565b8284015250506101208084013583811115611698578586fd5b6116a488828701611371565b82840152505061014091506116ba828401611361565b9181019190915261016091820135918101919091529392505050565b6000602082840312156116e7578081fd5b5051919050565b6001600160a01b03169052565b60008151808452611713816020860160208601611cc6565b601f01601f19169290920160200192915050565b80546000906002810460018083168061174157607f831692505b602080841082141561176157634e487b7160e01b86526022600452602486fd5b61176b8489611c4a565b82801561177f5760018114611790576117bb565b60ff198716825282820197506117bb565b61179989611cae565b60005b878110156117b55781548482015290860190840161179c565b83019850505b5050505050505092915050565b60006101806117d88484516116ee565b60208301516117ea60208601826116ee565b506040830151816040860152611802828601826116fb565b9150506060830151848203606086015261181c82826116fb565b9150506080830151848203608086015261183682826116fb565b91505060a083015184820360a086015261185082826116fb565b91505060c083015184820360c086015261186a82826116fb565b91505060e083015184820360e086015261188482826116fb565b915050610100808401518583038287015261189f83826116fb565b9250505061012080840151858303828701526118bb83826116fb565b92505050610140808401516118d2828701826116ee565b5050610160928301519390920192909252919050565b600082516118fa818460208701611cc6565b9190910192915050565b6001600160a01b0391909116815260200190565b6000604080830160018060a01b03861684526020828186015281865480845260609350838701915083838202880101888752838720875b83811015611a8657605f198a8403018552610180611976846119718554611cba565b6116ee565b6119836001840154611cba565b61198f888601826116ee565b5080898501526119a481850160028501611727565b9050838103888501526119ba8160038501611727565b905083810360808501526119d18160048501611727565b905083810360a08501526119e88160058501611727565b905083810360c08501526119ff8160068501611727565b905083810360e0850152611a168160078501611727565b9050838103610100850152611a2e8160088501611727565b9050838103610120850152611a468160098501611727565b9050611a55600a840154611cba565b611a636101408601826116ee565b50600b830154610160949094019390935293850193600c9091019060010161194f565b50909a9950505050505050505050565b6000602080830181845280855180835260408601915060408482028701019250838701855b82811015611ae957603f19888603018452611ad78583516117c8565b94509285019290850190600101611abb565b5092979650505050505050565b6020810160028310611b1857634e487b7160e01b600052602160045260246000fd5b91905290565b600060408252611b3160408301856116fb565b90508260208301529392505050565b6020808252602c908201527f456c20636c69656e7465206e6f20657320756e20636c69656e7465206465206560408201526b73746520636f6e747261746f60a01b606082015260800190565b6020808252603a908201527f536f6c6f206c6f7320636f6e747261746f7320646520636c69656e746520707560408201527f6564656e20656a65637574617220657374612066756e63696f6e000000000000606082015260800190565b6020808252602e908201527f4e6f207469656e65207065726d69736f73207061726120656a6563757461722060408201526d3630903a3930b739b0b1b1b4b7b760911b606082015260800190565b60006020825261026260208301846117c8565b90815260200190565b600084825260606020830152611c6c60608301856116fb565b905060018060a01b0383166040830152949350505050565b60405181810167ffffffffffffffff81118282101715611ca657611ca6611d31565b604052919050565b60009081526020902090565b6001600160a01b031690565b60005b83811015611ce1578181015183820152602001611cc9565b83811115611cf0576000848401525b50505050565b600281046001821680611d0a57607f821691505b60208210811415611d2b57634e487b7160e01b600052602260045260246000fd5b50919050565b634e487b7160e01b600052604160045260246000fd5b6001600160a01b0381168114611d5c57600080fd5b5056fea264697066735822122057f80162d427d3c43ac9f29df7c259f0776b64e4e64a4d3a62b114db175a076764736f6c63430008000033600560c09081526439b7b630b960d91b60e0526080908152610140604052600661010090815265656f6c69636160d01b6101205260a052610044906000906002610057565b5034801561005157600080fd5b506101e0565b8280548282559060005260206000209081019282156100a4579160200282015b828111156100a457825180516100949184916020909101906100b4565b5091602001919060010190610077565b506100b0929150610134565b5090565b8280546100c0906101a5565b90600052602060002090601f0160209004810192826100e25760008555610128565b82601f106100fb57805160ff1916838001178555610128565b82800160010185558215610128579182015b8281111561012857825182559160200191906001019061010d565b506100b0929150610151565b808211156100b05760006101488282610166565b50600101610134565b5b808211156100b05760008155600101610152565b508054610172906101a5565b6000825580601f1061018457506101a2565b601f0160209004906000526020600020908101906101a29190610151565b50565b6002810460018216806101b957607f821691505b602082108114156101da57634e487b7160e01b600052602260045260246000fd5b50919050565b611215806101ef6000396000f3fe608060405234801561001057600080fd5b50600436106100365760003560e01c8063259e75771461003b5780636d4fe5c714610064575b600080fd5b61004e610049366004610338565b610084565b60405161005b9190610473565b60405180910390f35b6100776100723660046103df565b61024b565b60405161005b9190610487565b6040516388d8da5f60e01b81526000908190819073__StringLibrary_________________________906388d8da5f906100c290889060040161049a565b60206040518083038186803b1580156100da57600080fd5b505af41580156100ee573d6000803e3d6000fd5b505050506040513d601f19601f820116820180604052508101906101129190610311565b156101565783604051610124906102f7565b61012e9190610562565b604051809103906000f08015801561014a573d6000803e3d6000fd5b5091506001905061021d565b6040516388d8da5f60e01b815273__StringLibrary_________________________906388d8da5f9061018d9088906004016104c6565b60206040518083038186803b1580156101a557600080fd5b505af41580156101b9573d6000803e3d6000fd5b505050506040513d601f19601f820116820180604052508101906101dd9190610311565b1561021d57836040516101ef90610304565b6101f99190610582565b604051809103906000f080158015610215573d6000803e3d6000fd5b509150600190505b806102435760405162461bcd60e51b815260040161023a906104ea565b60405180910390fd5b509392505050565b6000818154811061025b57600080fd5b90600052602060002001600091509050805461027690610594565b80601f01602080910402602001604051908101604052809291908181526020018280546102a290610594565b80156102ef5780601f106102c4576101008083540402835291602001916102ef565b820191906000526020600020905b8154815290600101906020018083116102d257829003601f168201915b505050505081565b6105fd806105e683390190565b6105fd80610be383390190565b600060208284031215610322578081fd5b81518015158114610331578182fd5b9392505050565b6000806040838503121561034a578081fd5b823567ffffffffffffffff80821115610361578283fd5b818501915085601f830112610374578283fd5b8135602082821115610388576103886105cf565b604051601f8301601f19168101820184811182821017156103ab576103ab6105cf565b60405282815284830182018910156103c1578586fd5b82828601838301379182018101949094529694909201359450505050565b6000602082840312156103f0578081fd5b5035919050565b60008151808452815b8181101561041c57602081850181015186830182015201610400565b8181111561042d5782602083870101525b50601f01601f19169290920160200192915050565b600581526439b7b630b960d91b602082015260400190565b6006815265656f6c69636160d01b602082015260400190565b6001600160a01b0391909116815260200190565b60006020825261033160208301846103f7565b6000604082526104ad60408301846103f7565b82810360208401526104be81610442565b949350505050565b6000604082526104d960408301846103f7565b82810360208401526104be8161045a565b60208082526052908201527f4e6f20657320756e207469706f20646520656e65726769612076616c69646f2c60408201527f206c6f73207469706f732076616c69646f7320736f6e3a20736f6c61722c20656060820152716f6c696361206f206869647261756c69636160701b608082015260a00190565b60006040825261057460408301610442565b905082602083015292915050565b6000604082526105746040830161045a565b6002810460018216806105a857607f821691505b602082108114156105c957634e487b7160e01b600052602260045260246000fd5b50919050565b634e487b7160e01b600052604160045260246000fdfe608060405234801561001057600080fd5b506040516105fd3803806105fd83398101604081905261002f916100e5565b815161004290600090602085019061004c565b5060025550610200565b828054610058906101af565b90600052602060002090601f01602090048101928261007a57600085556100c0565b82601f1061009357805160ff19168380011785556100c0565b828001600101855582156100c0579182015b828111156100c05782518255916020019190600101906100a5565b506100cc9291506100d0565b5090565b5b808211156100cc57600081556001016100d1565b600080604083850312156100f7578182fd5b82516001600160401b038082111561010d578384fd5b818501915085601f830112610120578384fd5b815181811115610132576101326101ea565b6040516020601f8301601f1916820181018481118382101715610157576101576101ea565b604052828252848301810189101561016d578687fd5b8693505b8284101561018e5784840181015182850182015292830192610171565b8284111561019e57868184840101525b969096015195979596505050505050565b6002810460018216806101c357607f821691505b602082108114156101e457634e487b7160e01b600052602260045260246000fd5b50919050565b634e487b7160e01b600052604160045260246000fd5b6103ee8061020f6000396000f3fe608060405234801561001057600080fd5b50600436106100885760003560e01c8063bc7b35b21161005b578063bc7b35b2146100d0578063cb86d6e6146100e5578063f5a50589146100ed578063f7ac4af41461010057610088565b80639be0b8001461008d5780639e66e0f3146100ab578063ae4f7a4c146100b3578063b0b6d161146100bb575b600080fd5b610095610108565b6040516100a2919061032f565b60405180910390f35b61009561010e565b610095610114565b6100ce6100c93660046102c4565b61011a565b005b6100d8610131565b6040516100a291906102dc565b6100d86101bf565b6100ce6100fb3660046102c4565b610251565b610095610261565b60025490565b60015481565b60025481565b60025460009061012a9083610266565b6002555050565b6000805461013e90610367565b80601f016020809104026020016040519081016040528092919081815260200182805461016a90610367565b80156101b75780601f1061018c576101008083540402835291602001916101b7565b820191906000526020600020905b81548152906001019060200180831161019a57829003601f168201915b505050505081565b6060600080546101ce90610367565b80601f01602080910402602001604051908101604052809291908181526020018280546101fa90610367565b80156102475780601f1061021c57610100808354040283529160200191610247565b820191906000526020600020905b81548152906001019060200180831161022a57829003601f168201915b5050505050905090565b60025460009061012a9083610297565b600390565b60008282111561028657634e487b7160e01b600052600160045260246000fd5b6102908284610350565b9392505050565b6000806102a48385610338565b90508381101561029057634e487b7160e01b600052600160045260246000fd5b6000602082840312156102d5578081fd5b5035919050565b6000602080835283518082850152825b81811015610308578581018301518582016040015282016102ec565b818111156103195783604083870101525b50601f01601f1916929092016040019392505050565b90815260200190565b6000821982111561034b5761034b6103a2565b500190565b600082821015610362576103626103a2565b500390565b60028104600182168061037b57607f821691505b6020821081141561039c57634e487b7160e01b600052602260045260246000fd5b50919050565b634e487b7160e01b600052601160045260246000fdfea2646970667358221220522a642ffda458c3b6d2087ad5c6ffbde8123f97b9141f11c750a44dcb8cc2db64736f6c63430008000033608060405234801561001057600080fd5b506040516105fd3803806105fd83398101604081905261002f916100e5565b815161004290600090602085019061004c565b5060025550610200565b828054610058906101af565b90600052602060002090601f01602090048101928261007a57600085556100c0565b82601f1061009357805160ff19168380011785556100c0565b828001600101855582156100c0579182015b828111156100c05782518255916020019190600101906100a5565b506100cc9291506100d0565b5090565b5b808211156100cc57600081556001016100d1565b600080604083850312156100f7578182fd5b82516001600160401b038082111561010d578384fd5b818501915085601f830112610120578384fd5b815181811115610132576101326101ea565b6040516020601f8301601f1916820181018481118382101715610157576101576101ea565b604052828252848301810189101561016d578687fd5b8693505b8284101561018e5784840181015182850182015292830192610171565b8284111561019e57868184840101525b969096015195979596505050505050565b6002810460018216806101c357607f821691505b602082108114156101e457634e487b7160e01b600052602260045260246000fd5b50919050565b634e487b7160e01b600052604160045260246000fd5b6103ee8061020f6000396000f3fe608060405234801561001057600080fd5b50600436106100885760003560e01c8063bc7b35b21161005b578063bc7b35b2146100d0578063cb86d6e6146100e5578063f5a50589146100ed578063f7ac4af41461010057610088565b80639be0b8001461008d5780639e66e0f3146100ab578063ae4f7a4c146100b3578063b0b6d161146100bb575b600080fd5b610095610108565b6040516100a2919061032f565b60405180910390f35b61009561010e565b610095610114565b6100ce6100c93660046102c4565b61011a565b005b6100d8610131565b6040516100a291906102dc565b6100d86101bf565b6100ce6100fb3660046102c4565b610251565b610095610261565b60025490565b60015481565b60025481565b60025460009061012a9083610266565b6002555050565b6000805461013e90610367565b80601f016020809104026020016040519081016040528092919081815260200182805461016a90610367565b80156101b75780601f1061018c576101008083540402835291602001916101b7565b820191906000526020600020905b81548152906001019060200180831161019a57829003601f168201915b505050505081565b6060600080546101ce90610367565b80601f01602080910402602001604051908101604052809291908181526020018280546101fa90610367565b80156102475780601f1061021c57610100808354040283529160200191610247565b820191906000526020600020905b81548152906001019060200180831161022a57829003601f168201915b5050505050905090565b60025460009061012a9083610297565b600290565b60008282111561028657634e487b7160e01b600052600160045260246000fd5b6102908284610350565b9392505050565b6000806102a48385610338565b90508381101561029057634e487b7160e01b600052600160045260246000fd5b6000602082840312156102d5578081fd5b5035919050565b6000602080835283518082850152825b81811015610308578581018301518582016040015282016102ec565b818111156103195783604083870101525b50601f01601f1916929092016040019392505050565b90815260200190565b6000821982111561034b5761034b6103a2565b500190565b600082821015610362576103626103a2565b500390565b60028104600182168061037b57607f821691505b6020821081141561039c57634e487b7160e01b600052602260045260246000fd5b50919050565b634e487b7160e01b600052601160045260246000fdfea2646970667358221220ae17df97da482874c997dd27f5d737eb79494328e54686bdd4271c62b1375a6364736f6c63430008000033a2646970667358221220d99a428a72c6953f8d33181f6c65fc8baf03cd230ccf39605b8b02aaaf9de8de64736f6c63430008000033",
  "immutableReferences": {},
  "source": "// SPDX-License-Identifier: MIT\r\npragma solidity ^0.8.0;\r\npragma experimental ABIEncoderV2;\r\nimport \"./models/TipoEnergia.sol\";\r\nimport \"./models/InfoContrato.sol\";\r\nimport \"./models/TipoEnergiaFactory.sol\";\r\nimport \"./Generador.sol\";\r\nimport \"./Cliente.sol\";\r\nimport \"./models/Agente.sol\";\r\nimport \"./libraries/Validations.sol\";\r\n\r\ncontract Comercializador is Agente {\r\n    //Variable que se encarga de guardar las direccions de los contratos del comercializador\r\n    InfoContrato[] private clientesComercializador;\r\n\r\n    //Variable que se encarga de guardar las direccions de los contratos del comercializador segun el owner\r\n    mapping(address => address) clientesComercializadorMapping;\r\n    mapping(string => mapping(address => TipoEnergia)) energiasClienteComercializador;\r\n    TipoEnergiaFactory private factoryEnergia;\r\n\r\n    enum TipoComercio {\r\n        Cliente,\r\n        Generador\r\n    }\r\n\r\n    TipoComercio public tipoComercio;\r\n\r\n    constructor(InfoContrato memory _infoContrato, address _reguladorMercado) {\r\n        reguladorMercado = _reguladorMercado;\r\n        infoContrato = InfoContrato(\r\n            address(this),\r\n            _infoContrato.owner,\r\n            _infoContrato.nit,\r\n            _infoContrato.empresa,\r\n            _infoContrato.contacto,\r\n            _infoContrato.telefono,\r\n            _infoContrato.correo,\r\n            _infoContrato.departamento,\r\n            _infoContrato.ciudad,\r\n            _infoContrato.direccion,\r\n            nullAddress,\r\n            _infoContrato.tipoComercio\r\n        );\r\n        tipoComercio = TipoComercio(_infoContrato.tipoComercio);\r\n        factoryEnergia = new TipoEnergiaFactory();\r\n    }\r\n\r\n    /**\r\n    Funcion que permite la compra de energia por parte del cliente a traves de un contrato de comercializador, solo la pueden ejecutar los contratos de comercializador del tipo cliente\r\n     */\r\n    function ComprarEnergia(\r\n        address _dirContrato,\r\n        address _ownerCliente,\r\n        uint256 _cantidadEnergia,\r\n        string memory nombreTipoEnergia\r\n    ) public authorize(msg.sender) onlyCliente {\r\n        require(\r\n            Validations.aproveCreation(_ownerCliente, clientesComercializador),\r\n            \"El cliente no es un cliente de este contrato\"\r\n        );\r\n        Generador(_dirContrato).ComprarEnergia(\r\n            _cantidadEnergia,\r\n            nombreTipoEnergia,\r\n            _ownerCliente\r\n        );\r\n        if (\r\n            address(\r\n                energiasClienteComercializador[nombreTipoEnergia][_ownerCliente]\r\n            ) == nullAddress\r\n        ) {\r\n            energiasClienteComercializador[nombreTipoEnergia][\r\n                _ownerCliente\r\n            ] = factoryEnergia.generarNuevaEnergia(\r\n                nombreTipoEnergia,\r\n                _cantidadEnergia\r\n            );\r\n        } else {\r\n            energiasClienteComercializador[nombreTipoEnergia][_ownerCliente]\r\n                .addCantidadEnergia(_cantidadEnergia);\r\n        }\r\n    }\r\n\r\n    /**\r\n     Funcion que permite la venta de energia por parte del generador a traves de un contrato de comercializador, solo la pueden ejecutar los contratos de comercializador del tipo generador\r\n     */\r\n    function VentaEnergia(\r\n        address _dirContrato,\r\n        uint256 _cantidadEnergia,\r\n        string memory nombreTipoEnergia\r\n    ) public {}\r\n\r\n    function getEnergiaDisponible(\r\n        string memory _nombreTipoEnergia,\r\n        address _cliente\r\n    ) public view returns (uint256) {\r\n        return\r\n            energiasClienteComercializador[_nombreTipoEnergia][_cliente]\r\n                .getCantidadEnergia();\r\n    }\r\n\r\n    function getTipoContrato() public view returns (uint256) {\r\n        return uint256(tipoComercio);\r\n    }\r\n\r\n    function setClientesComercializador(InfoContrato memory _infoContrato) public {\r\n        clientesComercializadorMapping[_infoContrato.owner] = _infoContrato.dirContrato;\r\n        clientesComercializador.push(_infoContrato);\r\n    }\r\n\r\n    function getClientesComercializador()\r\n        public\r\n        view\r\n        returns (InfoContrato[] memory)\r\n    {\r\n        return clientesComercializador;\r\n    }\r\n\r\n    modifier onlyCliente() {\r\n        require(\r\n            tipoComercio == TipoComercio.Cliente,\r\n            \"Solo los contratos de cliente pueden ejecutar esta funcion\"\r\n        );\r\n        _;\r\n    }\r\n}\r\n",
  "sourcePath": "C:\\Users\\alejandro.perez\\Desktop\\DemoMvmTruffle\\contracts\\Comercializador.sol",
  "compiler": {
    "name": "solc",
    "version": "0.8.0+commit.c7dfd78e.Emscripten.clang"
  },
  "schemaVersion": "3.4.7",
  "updatedAt": "2022-07-15T00:25:52.662Z",
  "networkType": "ethereum",
  "devdoc": {
    "kind": "dev",
    "methods": {},
    "version": 1
  },
  "userdoc": {
    "kind": "user",
    "methods": {
      "ComprarEnergia(address,address,uint256,string)": {
        "notice": "Funcion que permite la compra de energia por parte del cliente a traves de un contrato de comercializador, solo la pueden ejecutar los contratos de comercializador del tipo cliente"
      },
      "VentaEnergia(address,uint256,string)": {
        "notice": "Funcion que permite la venta de energia por parte del generador a traves de un contrato de comercializador, solo la pueden ejecutar los contratos de comercializador del tipo generador"
      }
    },
    "version": 1
  }
}