{
  "contractName": "Comercializador",
  "abi": [
    {
      "inputs": [
        {
          "components": [
            {
              "internalType": "address",
              "name": "dirContrato",
              "type": "address"
            },
            {
              "internalType": "address",
              "name": "owner",
              "type": "address"
            },
            {
              "internalType": "string",
              "name": "nit",
              "type": "string"
            },
            {
              "internalType": "string",
              "name": "empresa",
              "type": "string"
            },
            {
              "internalType": "string",
              "name": "contacto",
              "type": "string"
            },
            {
              "internalType": "string",
              "name": "telefono",
              "type": "string"
            },
            {
              "internalType": "string",
              "name": "correo",
              "type": "string"
            },
            {
              "internalType": "string",
              "name": "departamento",
              "type": "string"
            },
            {
              "internalType": "string",
              "name": "ciudad",
              "type": "string"
            },
            {
              "internalType": "string",
              "name": "direccion",
              "type": "string"
            },
            {
              "internalType": "address",
              "name": "comercializador",
              "type": "address"
            },
            {
              "internalType": "uint256",
              "name": "tipoComercio",
              "type": "uint256"
            }
          ],
          "internalType": "struct InfoContrato",
          "name": "_infoContrato",
          "type": "tuple"
        },
        {
          "internalType": "address",
          "name": "_reguladorMercado",
          "type": "address"
        }
      ],
      "stateMutability": "nonpayable",
      "type": "constructor"
    },
    {
      "anonymous": false,
      "inputs": [
        {
          "components": [
            {
              "internalType": "address",
              "name": "dirContratoCliente",
              "type": "address"
            },
            {
              "internalType": "string",
              "name": "empresaCliente",
              "type": "string"
            },
            {
              "internalType": "string",
              "name": "tipoEnergia",
              "type": "string"
            },
            {
              "internalType": "uint256",
              "name": "cantidadEnergia",
              "type": "uint256"
            },
            {
              "internalType": "enum EstadoCompra",
              "name": "estado",
              "type": "uint8"
            },
            {
              "internalType": "uint256",
              "name": "fechaEmision",
              "type": "uint256"
            },
            {
              "internalType": "uint256",
              "name": "fechaAprobacion",
              "type": "uint256"
            }
          ],
          "indexed": false,
          "internalType": "struct InfoEmisionCompra",
          "name": "",
          "type": "tuple"
        }
      ],
      "name": "EmisionDeCompra",
      "type": "event"
    },
    {
      "inputs": [],
      "name": "MisTokens",
      "outputs": [
        {
          "internalType": "uint256",
          "name": "",
          "type": "uint256"
        }
      ],
      "stateMutability": "view",
      "type": "function"
    },
    {
      "inputs": [],
      "name": "contadorEmisiones",
      "outputs": [
        {
          "internalType": "uint256",
          "name": "",
          "type": "uint256"
        }
      ],
      "stateMutability": "view",
      "type": "function"
    },
    {
      "inputs": [],
      "name": "getInfoContrato",
      "outputs": [
        {
          "components": [
            {
              "internalType": "address",
              "name": "dirContrato",
              "type": "address"
            },
            {
              "internalType": "address",
              "name": "owner",
              "type": "address"
            },
            {
              "internalType": "string",
              "name": "nit",
              "type": "string"
            },
            {
              "internalType": "string",
              "name": "empresa",
              "type": "string"
            },
            {
              "internalType": "string",
              "name": "contacto",
              "type": "string"
            },
            {
              "internalType": "string",
              "name": "telefono",
              "type": "string"
            },
            {
              "internalType": "string",
              "name": "correo",
              "type": "string"
            },
            {
              "internalType": "string",
              "name": "departamento",
              "type": "string"
            },
            {
              "internalType": "string",
              "name": "ciudad",
              "type": "string"
            },
            {
              "internalType": "string",
              "name": "direccion",
              "type": "string"
            },
            {
              "internalType": "address",
              "name": "comercializador",
              "type": "address"
            },
            {
              "internalType": "uint256",
              "name": "tipoComercio",
              "type": "uint256"
            }
          ],
          "internalType": "struct InfoContrato",
          "name": "",
          "type": "tuple"
        }
      ],
      "stateMutability": "view",
      "type": "function"
    },
    {
      "inputs": [],
      "name": "nullAddress",
      "outputs": [
        {
          "internalType": "address",
          "name": "",
          "type": "address"
        }
      ],
      "stateMutability": "view",
      "type": "function"
    },
    {
      "inputs": [],
      "name": "reguladorMercado",
      "outputs": [
        {
          "internalType": "address",
          "name": "",
          "type": "address"
        }
      ],
      "stateMutability": "view",
      "type": "function"
    },
    {
      "inputs": [],
      "name": "tipoComercio",
      "outputs": [
        {
          "internalType": "enum TipoComercio",
          "name": "",
          "type": "uint8"
        }
      ],
      "stateMutability": "view",
      "type": "function"
    },
    {
      "inputs": [
        {
          "internalType": "address",
          "name": "_dirContrato",
          "type": "address"
        },
        {
          "internalType": "address",
          "name": "_ownerCliente",
          "type": "address"
        },
        {
          "internalType": "uint256",
          "name": "_cantidadEnergia",
          "type": "uint256"
        },
        {
          "internalType": "string",
          "name": "nombreTipoEnergia",
          "type": "string"
        },
        {
          "internalType": "uint256",
          "name": "index",
          "type": "uint256"
        }
      ],
      "name": "ComprarEnergia",
      "outputs": [],
      "stateMutability": "nonpayable",
      "type": "function"
    },
    {
      "inputs": [
        {
          "components": [
            {
              "internalType": "address",
              "name": "dirContrato",
              "type": "address"
            },
            {
              "internalType": "address",
              "name": "owner",
              "type": "address"
            },
            {
              "internalType": "string",
              "name": "nit",
              "type": "string"
            },
            {
              "internalType": "string",
              "name": "empresa",
              "type": "string"
            },
            {
              "internalType": "string",
              "name": "contacto",
              "type": "string"
            },
            {
              "internalType": "string",
              "name": "telefono",
              "type": "string"
            },
            {
              "internalType": "string",
              "name": "correo",
              "type": "string"
            },
            {
              "internalType": "string",
              "name": "departamento",
              "type": "string"
            },
            {
              "internalType": "string",
              "name": "ciudad",
              "type": "string"
            },
            {
              "internalType": "string",
              "name": "direccion",
              "type": "string"
            },
            {
              "internalType": "address",
              "name": "comercializador",
              "type": "address"
            },
            {
              "internalType": "uint256",
              "name": "tipoComercio",
              "type": "uint256"
            }
          ],
          "internalType": "struct InfoContrato",
          "name": "_infoContrato",
          "type": "tuple"
        },
        {
          "internalType": "string",
          "name": "_tipoEnergia",
          "type": "string"
        },
        {
          "internalType": "uint256",
          "name": "_cantidadEnergia",
          "type": "uint256"
        }
      ],
      "name": "setInfoEmisionesDeCompra",
      "outputs": [],
      "stateMutability": "nonpayable",
      "type": "function"
    },
    {
      "inputs": [
        {
          "internalType": "uint256",
          "name": "index",
          "type": "uint256"
        }
      ],
      "name": "getInfoEmisionesDeCompra",
      "outputs": [
        {
          "components": [
            {
              "internalType": "address",
              "name": "dirContratoCliente",
              "type": "address"
            },
            {
              "internalType": "string",
              "name": "empresaCliente",
              "type": "string"
            },
            {
              "internalType": "string",
              "name": "tipoEnergia",
              "type": "string"
            },
            {
              "internalType": "uint256",
              "name": "cantidadEnergia",
              "type": "uint256"
            },
            {
              "internalType": "enum EstadoCompra",
              "name": "estado",
              "type": "uint8"
            },
            {
              "internalType": "uint256",
              "name": "fechaEmision",
              "type": "uint256"
            },
            {
              "internalType": "uint256",
              "name": "fechaAprobacion",
              "type": "uint256"
            }
          ],
          "internalType": "struct InfoEmisionCompra",
          "name": "",
          "type": "tuple"
        }
      ],
      "stateMutability": "view",
      "type": "function"
    },
    {
      "inputs": [
        {
          "internalType": "address",
          "name": "_dirContrato",
          "type": "address"
        },
        {
          "internalType": "uint256",
          "name": "_cantidadEnergia",
          "type": "uint256"
        },
        {
          "internalType": "string",
          "name": "nombreTipoEnergia",
          "type": "string"
        }
      ],
      "name": "VentaEnergia",
      "outputs": [],
      "stateMutability": "nonpayable",
      "type": "function"
    },
    {
      "inputs": [
        {
          "internalType": "string",
          "name": "_nombreTipoEnergia",
          "type": "string"
        },
        {
          "internalType": "address",
          "name": "_cliente",
          "type": "address"
        }
      ],
      "name": "getEnergiaDisponible",
      "outputs": [
        {
          "internalType": "uint256",
          "name": "",
          "type": "uint256"
        }
      ],
      "stateMutability": "view",
      "type": "function"
    },
    {
      "inputs": [],
      "name": "getTipoContrato",
      "outputs": [
        {
          "internalType": "uint256",
          "name": "",
          "type": "uint256"
        }
      ],
      "stateMutability": "view",
      "type": "function"
    },
    {
      "inputs": [
        {
          "components": [
            {
              "internalType": "address",
              "name": "dirContrato",
              "type": "address"
            },
            {
              "internalType": "address",
              "name": "owner",
              "type": "address"
            },
            {
              "internalType": "string",
              "name": "nit",
              "type": "string"
            },
            {
              "internalType": "string",
              "name": "empresa",
              "type": "string"
            },
            {
              "internalType": "string",
              "name": "contacto",
              "type": "string"
            },
            {
              "internalType": "string",
              "name": "telefono",
              "type": "string"
            },
            {
              "internalType": "string",
              "name": "correo",
              "type": "string"
            },
            {
              "internalType": "string",
              "name": "departamento",
              "type": "string"
            },
            {
              "internalType": "string",
              "name": "ciudad",
              "type": "string"
            },
            {
              "internalType": "string",
              "name": "direccion",
              "type": "string"
            },
            {
              "internalType": "address",
              "name": "comercializador",
              "type": "address"
            },
            {
              "internalType": "uint256",
              "name": "tipoComercio",
              "type": "uint256"
            }
          ],
          "internalType": "struct InfoContrato",
          "name": "_infoContrato",
          "type": "tuple"
        }
      ],
      "name": "setClientesComercializador",
      "outputs": [],
      "stateMutability": "nonpayable",
      "type": "function"
    },
    {
      "inputs": [],
      "name": "getClientesComercializador",
      "outputs": [
        {
          "components": [
            {
              "internalType": "address",
              "name": "dirContrato",
              "type": "address"
            },
            {
              "internalType": "address",
              "name": "owner",
              "type": "address"
            },
            {
              "internalType": "string",
              "name": "nit",
              "type": "string"
            },
            {
              "internalType": "string",
              "name": "empresa",
              "type": "string"
            },
            {
              "internalType": "string",
              "name": "contacto",
              "type": "string"
            },
            {
              "internalType": "string",
              "name": "telefono",
              "type": "string"
            },
            {
              "internalType": "string",
              "name": "correo",
              "type": "string"
            },
            {
              "internalType": "string",
              "name": "departamento",
              "type": "string"
            },
            {
              "internalType": "string",
              "name": "ciudad",
              "type": "string"
            },
            {
              "internalType": "string",
              "name": "direccion",
              "type": "string"
            },
            {
              "internalType": "address",
              "name": "comercializador",
              "type": "address"
            },
            {
              "internalType": "uint256",
              "name": "tipoComercio",
              "type": "uint256"
            }
          ],
          "internalType": "struct InfoContrato[]",
          "name": "",
          "type": "tuple[]"
        }
      ],
      "stateMutability": "view",
      "type": "function"
    }
  ],
  "bytecode": "0x6080604052600d80546001600160a01b03191690556000600e553480156200002657600080fd5b5060405162003dcb38038062003dcb833981016040819052620000499162000434565b600080546001600160a01b038084166001600160a01b0319928316179092556040805161018081018252308082526020878101518616818401819052888501519484018590526060808a0151908501526080808a01519085015260a0808a01519085015260c0808a01519085015260e0808a0151908501526101008981015190850152610120808a015190850152600d549096166101408401526101608089015190840152600180548616909217825560028054909516909517909355815190936200011b92600392910190620002d2565b506060820151805162000139916003840191602090910190620002d2565b506080820151805162000157916004840191602090910190620002d2565b5060a0820151805162000175916005840191602090910190620002d2565b5060c0820151805162000193916006840191602090910190620002d2565b5060e08201518051620001b1916007840191602090910190620002d2565b506101008201518051620001d0916008840191602090910190620002d2565b506101208201518051620001ef916009840191602090910190620002d2565b50610140820151600a820180546001600160a01b0319166001600160a01b0390921691909117905561016091820151600b9091015582015160018111156200024757634e487b7160e01b600052602160045260246000fd5b6011805460ff60a01b1916600160a01b8360018111156200027857634e487b7160e01b600052602160045260246000fd5b02179055506040516200028b9062000361565b604051809103906000f080158015620002a8573d6000803e3d6000fd5b50601180546001600160a01b0319166001600160a01b039290921691909117905550620006959050565b828054620002e09062000642565b90600052602060002090601f0160209004810192826200030457600085556200034f565b82601f106200031f57805160ff19168380011785556200034f565b828001600101855582156200034f579182015b828111156200034f57825182559160200191906001019062000332565b506200035d9291506200036f565b5090565b6113e380620029e883390190565b5b808211156200035d576000815560010162000370565b80516001600160a01b03811681146200039e57600080fd5b919050565b600082601f830112620003b4578081fd5b81516001600160401b03811115620003d057620003d06200067f565b6020620003e6601f8301601f1916820162000616565b8281528582848701011115620003fa578384fd5b835b8381101562000419578581018301518282018401528201620003fc565b838111156200042a57848385840101525b5095945050505050565b6000806040838503121562000447578182fd5b82516001600160401b03808211156200045e578384fd5b818501915061018080838803121562000475578485fd5b620004808162000616565b90506200048d8362000386565b81526200049d6020840162000386565b6020820152604083015182811115620004b4578586fd5b620004c288828601620003a3565b604083015250606083015182811115620004da578586fd5b620004e888828601620003a3565b60608301525060808301518281111562000500578586fd5b6200050e88828601620003a3565b60808301525060a08301518281111562000526578586fd5b6200053488828601620003a3565b60a08301525060c0830151828111156200054c578586fd5b6200055a88828601620003a3565b60c08301525060e08301518281111562000572578586fd5b6200058088828601620003a3565b60e08301525061010080840151838111156200059a578687fd5b620005a889828701620003a3565b8284015250506101208084015183811115620005c2578687fd5b620005d089828701620003a3565b8284015250506101409150620005e882840162000386565b82820152610160915081830151828201528094505050506200060d6020840162000386565b90509250929050565b6040518181016001600160401b03811182821017156200063a576200063a6200067f565b604052919050565b6002810460018216806200065757607f821691505b602082108114156200067957634e487b7160e01b600052602260045260246000fd5b50919050565b634e487b7160e01b600052604160045260246000fd5b61234380620006a56000396000f3fe608060405234801561001057600080fd5b50600436106100b95760003560e01c80624ff861146100be578063013643fd146100d35780630d13dcb0146100f1578063551edf901461011157806356a551391461012657806374b6f5fe146101395780637eb5a6881461014c5780638df45d9314610154578063922fcee9146101695780639be0e7ce1461017c578063c0320ee514610191578063c650abce14610199578063e33f34a0146101ac578063ef3090e7146101b4575b600080fd5b6100d16100cc366004611b4b565b6101c9565b005b6100db610366565b6040516100e891906121b4565b60405180910390f35b6101046100ff366004611bb4565b61039a565b6040516100e89190612128565b610119610567565b6040516100e89190611dfa565b6100db610134366004611ac2565b610576565b6100d16101473660046119bf565b61061e565b61011961095f565b61015c61096e565b6040516100e89190611fec565b6100d1610177366004611a30565b61097e565b610184610983565b6040516100e89190612115565b6100db610e68565b6100d16101a7366004611b11565b610e6e565b6100db611032565b6101bc6110b3565b6040516100e89190611f8c565b6000601154600160a01b900460ff1660018111156101f757634e487b7160e01b600052602160045260246000fd5b1461021d5760405162461bcd60e51b81526004016102149061206d565b60405180910390fd5b6040805160e08101825284516001600160a01b03908116825260608087015160208085019182528486018890529184018690526000608085018190524260a086015260c08501819052600e5481526012835294909420835181546001600160a01b031916931692909217825592518051929384936102a1926001850192019061163c565b50604082015180516102bd91600284019160209091019061163c565b5060608201516003820155608082015160048201805460ff1916600183818111156102f857634e487b7160e01b600052602160045260246000fd5b021790555060a0820151816005015560c082015181600601559050507fdc1f05df672b1021a134f3ffa9c63ed7d1784e087d5d95666e07712b043a6191816040516103439190612128565b60405180910390a1600e805490600061035b8361229a565b919050555050505050565b601154600090600160a01b900460ff16600181111561039557634e487b7160e01b600052602160045260246000fd5b905090565b6103a26116c0565b600082815260126020908152604091829020825160e0810190935280546001600160a01b0316835260018101805491928401916103de9061225f565b80601f016020809104026020016040519081016040528092919081815260200182805461040a9061225f565b80156104575780601f1061042c57610100808354040283529160200191610457565b820191906000526020600020905b81548152906001019060200180831161043a57829003601f168201915b505050505081526020016002820180546104709061225f565b80601f016020809104026020016040519081016040528092919081815260200182805461049c9061225f565b80156104e95780601f106104be576101008083540402835291602001916104e9565b820191906000526020600020905b8154815290600101906020018083116104cc57829003601f168201915b505050918352505060038201546020820152600482015460409091019060ff16600181111561052857634e487b7160e01b600052602160045260246000fd5b600181111561054757634e487b7160e01b600052602160045260246000fd5b81526020016005820154815260200160068201548152505090505b919050565b600d546001600160a01b031681565b60006010836040516105889190611dde565b90815260408051602092819003830181206001600160a01b038681166000908152918552908390205462137c1760eb1b83529251921692639be0b80092600480840193829003018186803b1580156105df57600080fd5b505afa1580156105f3573d6000803e3d6000fd5b505050506040513d601f19601f820116820180604052508101906106179190611bcc565b9392505050565b60025433906001600160a01b0316811461064a5760405162461bcd60e51b8152600401610214906120c7565b6000601154600160a01b900460ff16600181111561067857634e487b7160e01b600052602160045260246000fd5b146106955760405162461bcd60e51b81526004016102149061206d565b604051635010ecc560e01b815273__Validations___________________________90635010ecc5906106cf908890600f90600401611e0e565b60206040518083038186803b1580156106e757600080fd5b505af41580156106fb573d6000803e3d6000fd5b505050506040513d601f19601f8201168201806040525081019061071f9190611a86565b61073b5760405162461bcd60e51b815260040161021490612021565b60405163cfa5784960e01b81526001600160a01b0387169063cfa578499061076b90879087908a906004016121bd565b600060405180830381600087803b15801561078557600080fd5b505af1158015610799573d6000803e3d6000fd5b5050600d546040516001600160a01b039091169250601091506107bd908690611dde565b90815260408051602092819003830190206001600160a01b0389811660009081529190935220541614156108c05760115460405163259e757760e01b81526001600160a01b039091169063259e75779061081d9086908890600401611fff565b602060405180830381600087803b15801561083757600080fd5b505af115801561084b573d6000803e3d6000fd5b505050506040513d601f19601f8201168201806040525081019061086f9190611aa6565b60108460405161087f9190611dde565b90815260408051602092819003830190206001600160a01b038981166000908152919093522080546001600160a01b0319169290911691909117905561094e565b6010836040516108d09190611dde565b9081526040805191829003602090810183206001600160a01b03808a16600090815291909252919091205463f5a5058960e01b8352169063f5a505899061091b9087906004016121b4565b600060405180830381600087803b15801561093557600080fd5b505af1158015610949573d6000803e3d6000fd5b505050505b610957826115e9565b505050505050565b6000546001600160a01b031681565b601154600160a01b900460ff1681565b505050565b61098b611725565b6040805161018081018252600180546001600160a01b0390811683526002541660208301526003805492939192918401916109c59061225f565b80601f01602080910402602001604051908101604052809291908181526020018280546109f19061225f565b8015610a3e5780601f10610a1357610100808354040283529160200191610a3e565b820191906000526020600020905b815481529060010190602001808311610a2157829003601f168201915b50505050508152602001600382018054610a579061225f565b80601f0160208091040260200160405190810160405280929190818152602001828054610a839061225f565b8015610ad05780601f10610aa557610100808354040283529160200191610ad0565b820191906000526020600020905b815481529060010190602001808311610ab357829003601f168201915b50505050508152602001600482018054610ae99061225f565b80601f0160208091040260200160405190810160405280929190818152602001828054610b159061225f565b8015610b625780601f10610b3757610100808354040283529160200191610b62565b820191906000526020600020905b815481529060010190602001808311610b4557829003601f168201915b50505050508152602001600582018054610b7b9061225f565b80601f0160208091040260200160405190810160405280929190818152602001828054610ba79061225f565b8015610bf45780601f10610bc957610100808354040283529160200191610bf4565b820191906000526020600020905b815481529060010190602001808311610bd757829003601f168201915b50505050508152602001600682018054610c0d9061225f565b80601f0160208091040260200160405190810160405280929190818152602001828054610c399061225f565b8015610c865780601f10610c5b57610100808354040283529160200191610c86565b820191906000526020600020905b815481529060010190602001808311610c6957829003601f168201915b50505050508152602001600782018054610c9f9061225f565b80601f0160208091040260200160405190810160405280929190818152602001828054610ccb9061225f565b8015610d185780601f10610ced57610100808354040283529160200191610d18565b820191906000526020600020905b815481529060010190602001808311610cfb57829003601f168201915b50505050508152602001600882018054610d319061225f565b80601f0160208091040260200160405190810160405280929190818152602001828054610d5d9061225f565b8015610daa5780601f10610d7f57610100808354040283529160200191610daa565b820191906000526020600020905b815481529060010190602001808311610d8d57829003601f168201915b50505050508152602001600982018054610dc39061225f565b80601f0160208091040260200160405190810160405280929190818152602001828054610def9061225f565b8015610e3c5780601f10610e1157610100808354040283529160200191610e3c565b820191906000526020600020905b815481529060010190602001808311610e1f57829003601f168201915b5050509183525050600a8201546001600160a01b03166020820152600b90910154604090910152905090565b600e5481565b600f805460018101825560009190915281517f8d1108e10bcb7c27dddfc02ed9d693a074039d026cf4ea4240b40f7d581ac802600c90920291820180546001600160a01b03199081166001600160a01b039384161782556020808601517f8d1108e10bcb7c27dddfc02ed9d693a074039d026cf4ea4240b40f7d581ac8038601805490931694169390931790556040840151805185949293610f34937f8d1108e10bcb7c27dddfc02ed9d693a074039d026cf4ea4240b40f7d581ac8040192019061163c565b5060608201518051610f5091600384019160209091019061163c565b5060808201518051610f6c91600484019160209091019061163c565b5060a08201518051610f8891600584019160209091019061163c565b5060c08201518051610fa491600684019160209091019061163c565b5060e08201518051610fc091600784019160209091019061163c565b506101008201518051610fdd91600884019160209091019061163c565b506101208201518051610ffa91600984019160209091019061163c565b50610140820151600a820180546001600160a01b0319166001600160a01b0390921691909117905561016090910151600b9091015550565b60008054604051630e03c03b60e01b81526001600160a01b0390911690630e03c03b90611063903390600401611dfa565b60206040518083038186803b15801561107b57600080fd5b505afa15801561108f573d6000803e3d6000fd5b505050506040513d601f19601f820116820180604052508101906103959190611bcc565b6060600f805480602002602001604051908101604052809291908181526020016000905b828210156115e05760008481526020908190206040805161018081018252600c860290920180546001600160a01b039081168452600182015416938301939093526002830180549293929184019161112e9061225f565b80601f016020809104026020016040519081016040528092919081815260200182805461115a9061225f565b80156111a75780601f1061117c576101008083540402835291602001916111a7565b820191906000526020600020905b81548152906001019060200180831161118a57829003601f168201915b505050505081526020016003820180546111c09061225f565b80601f01602080910402602001604051908101604052809291908181526020018280546111ec9061225f565b80156112395780601f1061120e57610100808354040283529160200191611239565b820191906000526020600020905b81548152906001019060200180831161121c57829003601f168201915b505050505081526020016004820180546112529061225f565b80601f016020809104026020016040519081016040528092919081815260200182805461127e9061225f565b80156112cb5780601f106112a0576101008083540402835291602001916112cb565b820191906000526020600020905b8154815290600101906020018083116112ae57829003601f168201915b505050505081526020016005820180546112e49061225f565b80601f01602080910402602001604051908101604052809291908181526020018280546113109061225f565b801561135d5780601f106113325761010080835404028352916020019161135d565b820191906000526020600020905b81548152906001019060200180831161134057829003601f168201915b505050505081526020016006820180546113769061225f565b80601f01602080910402602001604051908101604052809291908181526020018280546113a29061225f565b80156113ef5780601f106113c4576101008083540402835291602001916113ef565b820191906000526020600020905b8154815290600101906020018083116113d257829003601f168201915b505050505081526020016007820180546114089061225f565b80601f01602080910402602001604051908101604052809291908181526020018280546114349061225f565b80156114815780601f1061145657610100808354040283529160200191611481565b820191906000526020600020905b81548152906001019060200180831161146457829003601f168201915b5050505050815260200160088201805461149a9061225f565b80601f01602080910402602001604051908101604052809291908181526020018280546114c69061225f565b80156115135780601f106114e857610100808354040283529160200191611513565b820191906000526020600020905b8154815290600101906020018083116114f657829003601f168201915b5050505050815260200160098201805461152c9061225f565b80601f01602080910402602001604051908101604052809291908181526020018280546115589061225f565b80156115a55780601f1061157a576101008083540402835291602001916115a5565b820191906000526020600020905b81548152906001019060200180831161158857829003601f168201915b5050509183525050600a8201546001600160a01b0316602080830191909152600b9092015460409091015290825260019290920191016110d7565b50505050905090565b60025433906001600160a01b031681146116155760405162461bcd60e51b8152600401610214906120c7565b50600090815260136020526040902060048101805460ff1916600117905542600690910155565b8280546116489061225f565b90600052602060002090601f01602090048101928261166a57600085556116b0565b82601f1061168357805160ff19168380011785556116b0565b828001600101855582156116b0579182015b828111156116b0578251825591602001919060010190611695565b506116bc9291506117a1565b5090565b6040518060e0016040528060006001600160a01b031681526020016060815260200160608152602001600081526020016000600181111561171157634e487b7160e01b600052602160045260246000fd5b815260200160008152602001600081525090565b60405180610180016040528060006001600160a01b0316815260200160006001600160a01b03168152602001606081526020016060815260200160608152602001606081526020016060815260200160608152602001606081526020016060815260200160006001600160a01b03168152602001600081525090565b5b808211156116bc57600081556001016117a2565b8035610562816122f8565b600082601f8301126117d1578081fd5b81356001600160401b038111156117ea576117ea6122c1565b6117fd601f8201601f19166020016121ee565b818152846020838601011115611811578283fd5b816020850160208301379081016020019190915292915050565b600061018080838503121561183e578182fd5b611847816121ee565b915050611853826117b6565b8152611861602083016117b6565b602082015260408201356001600160401b038082111561188057600080fd5b61188c858386016117c1565b604084015260608401359150808211156118a557600080fd5b6118b1858386016117c1565b606084015260808401359150808211156118ca57600080fd5b6118d6858386016117c1565b608084015260a08401359150808211156118ef57600080fd5b6118fb858386016117c1565b60a084015260c084013591508082111561191457600080fd5b611920858386016117c1565b60c084015260e084013591508082111561193957600080fd5b611945858386016117c1565b60e08401526101009150818401358181111561196057600080fd5b61196c868287016117c1565b83850152506101209150818401358181111561198757600080fd5b611993868287016117c1565b838501525050506101406119a88184016117b6565b818301525061016080830135818301525092915050565b600080600080600060a086880312156119d6578081fd5b85356119e1816122f8565b945060208601356119f1816122f8565b93506040860135925060608601356001600160401b03811115611a12578182fd5b611a1e888289016117c1565b95989497509295608001359392505050565b600080600060608486031215611a44578283fd5b8335611a4f816122f8565b92506020840135915060408401356001600160401b03811115611a70578182fd5b611a7c868287016117c1565b9150509250925092565b600060208284031215611a97578081fd5b81518015158114610617578182fd5b600060208284031215611ab7578081fd5b8151610617816122f8565b60008060408385031215611ad4578182fd5b82356001600160401b03811115611ae9578283fd5b611af5858286016117c1565b9250506020830135611b06816122f8565b809150509250929050565b600060208284031215611b22578081fd5b81356001600160401b03811115611b37578182fd5b611b438482850161182b565b949350505050565b600080600060608486031215611b5f578283fd5b83356001600160401b0380821115611b75578485fd5b611b818783880161182b565b94506020860135915080821115611b96578384fd5b50611ba3868287016117c1565b925050604084013590509250925092565b600060208284031215611bc5578081fd5b5035919050565b600060208284031215611bdd578081fd5b5051919050565b6001600160a01b03169052565b60008151808452611c0981602086016020860161222f565b601f01601f19169290920160200192915050565b805460009060028104600180831680611c3757607f831692505b6020808410821415611c5757634e487b7160e01b86526022600452602486fd5b611c6184896121b4565b828015611c755760018114611c8657611cb1565b60ff19871682528282019750611cb1565b611c8f89612217565b60005b87811015611cab57815484820152908601908401611c92565b83019850505b5050505050505092915050565b6000610180611cce848451611be4565b6020830151611ce06020860182611be4565b506040830151816040860152611cf882860182611bf1565b91505060608301518482036060860152611d128282611bf1565b91505060808301518482036080860152611d2c8282611bf1565b91505060a083015184820360a0860152611d468282611bf1565b91505060c083015184820360c0860152611d608282611bf1565b91505060e083015184820360e0860152611d7a8282611bf1565b9150506101008084015185830382870152611d958382611bf1565b925050506101208084015185830382870152611db18382611bf1565b9250505061014080840151611dc882870182611be4565b5050610160928301519390920192909252919050565b60008251611df081846020870161222f565b9190910192915050565b6001600160a01b0391909116815260200190565b6000604080830160018060a01b03861684526020828186015281865480845260609350838701915083838202880101888752838720875b83811015611f7c57605f198a8403018552610180611e6c84611e678554612223565b611be4565b611e796001840154612223565b611e8588860182611be4565b508089850152611e9a81850160028501611c1d565b905083810388850152611eb08160038501611c1d565b90508381036080850152611ec78160048501611c1d565b905083810360a0850152611ede8160058501611c1d565b905083810360c0850152611ef58160068501611c1d565b905083810360e0850152611f0c8160078501611c1d565b9050838103610100850152611f248160088501611c1d565b9050838103610120850152611f3c8160098501611c1d565b9050611f4b600a840154612223565b611f59610140860182611be4565b50600b830154610160949094019390935293850193600c90910190600101611e45565b50909a9950505050505050505050565b6000602080830181845280855180835260408601915060408482028701019250838701855b82811015611fdf57603f19888603018452611fcd858351611cbe565b94509285019290850190600101611fb1565b5092979650505050505050565b60208101611ff9836122d7565b91905290565b6000604082526120126040830185611bf1565b90508260208301529392505050565b6020808252602c908201527f456c20636c69656e7465206e6f20657320756e20636c69656e7465206465206560408201526b73746520636f6e747261746f60a01b606082015260800190565b6020808252603a908201527f536f6c6f206c6f7320636f6e747261746f7320646520636c69656e746520707560408201527932b232b71032b532b1baba30b91032b9ba3090333ab731b4b7b760311b606082015260800190565b6020808252602e908201527f4e6f207469656e65207065726d69736f73207061726120656a6563757461722060408201526d3630903a3930b739b0b1b1b4b7b760911b606082015260800190565b6000602082526106176020830184611cbe565b602080825282516001600160a01b03168282015282015160e06040830152600090612157610100840182611bf1565b90506040840151601f198483030160608501526121748282611bf1565b91505060608401516080840152608084015161218f816122d7565b8060a08501525060a084015160c084015260c084015160e08401528091505092915050565b90815260200190565b6000848252606060208301526121d66060830185611bf1565b905060018060a01b0383166040830152949350505050565b6040518181016001600160401b038111828210171561220f5761220f6122c1565b604052919050565b60009081526020902090565b6001600160a01b031690565b60005b8381101561224a578181015183820152602001612232565b83811115612259576000848401525b50505050565b60028104600182168061227357607f821691505b6020821081141561229457634e487b7160e01b600052602260045260246000fd5b50919050565b60006000198214156122ba57634e487b7160e01b81526011600452602481fd5b5060010190565b634e487b7160e01b600052604160045260246000fd5b600281106122f557634e487b7160e01b600052602160045260246000fd5b50565b6001600160a01b03811681146122f557600080fdfea26469706673582212203a90631d432d1dae7474228471d81296b6b2a153fed5de8086a7d0604ce0071064736f6c63430008000033600560c09081526439b7b630b960d91b60e0526080908152610140604052600661010090815265656f6c69636160d01b6101205260a052610044906000906002610057565b5034801561005157600080fd5b506101e0565b8280548282559060005260206000209081019282156100a4579160200282015b828111156100a457825180516100949184916020909101906100b4565b5091602001919060010190610077565b506100b0929150610134565b5090565b8280546100c0906101a5565b90600052602060002090601f0160209004810192826100e25760008555610128565b82601f106100fb57805160ff1916838001178555610128565b82800160010185558215610128579182015b8281111561012857825182559160200191906001019061010d565b506100b0929150610151565b808211156100b05760006101488282610166565b50600101610134565b5b808211156100b05760008155600101610152565b508054610172906101a5565b6000825580601f1061018457506101a2565b601f0160209004906000526020600020908101906101a29190610151565b50565b6002810460018216806101b957607f821691505b602082108114156101da57634e487b7160e01b600052602260045260246000fd5b50919050565b6111f4806101ef6000396000f3fe608060405234801561001057600080fd5b50600436106100365760003560e01c8063259e75771461003b5780636d4fe5c714610064575b600080fd5b61004e610049366004610338565b610084565b60405161005b9190610472565b60405180910390f35b6100776100723660046103de565b61024b565b60405161005b9190610486565b6040516388d8da5f60e01b81526000908190819073__StringLibrary_________________________906388d8da5f906100c2908890600401610499565b60206040518083038186803b1580156100da57600080fd5b505af41580156100ee573d6000803e3d6000fd5b505050506040513d601f19601f820116820180604052508101906101129190610311565b156101565783604051610124906102f7565b61012e9190610561565b604051809103906000f08015801561014a573d6000803e3d6000fd5b5091506001905061021d565b6040516388d8da5f60e01b815273__StringLibrary_________________________906388d8da5f9061018d9088906004016104c5565b60206040518083038186803b1580156101a557600080fd5b505af41580156101b9573d6000803e3d6000fd5b505050506040513d601f19601f820116820180604052508101906101dd9190610311565b1561021d57836040516101ef90610304565b6101f99190610581565b604051809103906000f080158015610215573d6000803e3d6000fd5b509150600190505b806102435760405162461bcd60e51b815260040161023a906104e9565b60405180910390fd5b509392505050565b6000818154811061025b57600080fd5b90600052602060002001600091509050805461027690610593565b80601f01602080910402602001604051908101604052809291908181526020018280546102a290610593565b80156102ef5780601f106102c4576101008083540402835291602001916102ef565b820191906000526020600020905b8154815290600101906020018083116102d257829003601f168201915b505050505081565b6105ed806105e583390190565b6105ed80610bd283390190565b600060208284031215610322578081fd5b81518015158114610331578182fd5b9392505050565b6000806040838503121561034a578081fd5b82356001600160401b0380821115610360578283fd5b818501915085601f830112610373578283fd5b8135602082821115610387576103876105ce565b604051601f8301601f19168101820184811182821017156103aa576103aa6105ce565b60405282815284830182018910156103c0578586fd5b82828601838301379182018101949094529694909201359450505050565b6000602082840312156103ef578081fd5b5035919050565b60008151808452815b8181101561041b576020818501810151868301820152016103ff565b8181111561042c5782602083870101525b50601f01601f19169290920160200192915050565b600581526439b7b630b960d91b602082015260400190565b6006815265656f6c69636160d01b602082015260400190565b6001600160a01b0391909116815260200190565b60006020825261033160208301846103f6565b6000604082526104ac60408301846103f6565b82810360208401526104bd81610441565b949350505050565b6000604082526104d860408301846103f6565b82810360208401526104bd81610459565b60208082526052908201527f4e6f20657320756e207469706f20646520656e65726769612076616c69646f2c60408201527f206c6f73207469706f732076616c69646f7320736f6e3a20736f6c61722c20656060820152716f6c696361206f206869647261756c69636160701b608082015260a00190565b60006040825261057360408301610441565b905082602083015292915050565b60006040825261057360408301610459565b6002810460018216806105a757607f821691505b602082108114156105c857634e487b7160e01b600052602260045260246000fd5b50919050565b634e487b7160e01b600052604160045260246000fdfe608060405234801561001057600080fd5b506040516105ed3803806105ed83398101604081905261002f916100e5565b815161004290600090602085019061004c565b5060025550610200565b828054610058906101af565b90600052602060002090601f01602090048101928261007a57600085556100c0565b82601f1061009357805160ff19168380011785556100c0565b828001600101855582156100c0579182015b828111156100c05782518255916020019190600101906100a5565b506100cc9291506100d0565b5090565b5b808211156100cc57600081556001016100d1565b600080604083850312156100f7578182fd5b82516001600160401b038082111561010d578384fd5b818501915085601f830112610120578384fd5b815181811115610132576101326101ea565b6040516020601f8301601f1916820181018481118382101715610157576101576101ea565b604052828252848301810189101561016d578687fd5b8693505b8284101561018e5784840181015182850182015292830192610171565b8284111561019e57868184840101525b969096015195979596505050505050565b6002810460018216806101c357607f821691505b602082108114156101e457634e487b7160e01b600052602260045260246000fd5b50919050565b634e487b7160e01b600052604160045260246000fd5b6103de8061020f6000396000f3fe608060405234801561001057600080fd5b50600436106100785760003560e01c80639be0b8001461007d5780639e66e0f31461009b578063ae4f7a4c146100a3578063b0b6d161146100ab578063bc7b35b2146100c0578063cb86d6e6146100d5578063f5a50589146100dd578063f7ac4af4146100f0575b600080fd5b6100856100f8565b604051610092919061031f565b60405180910390f35b6100856100fe565b610085610104565b6100be6100b93660046102b4565b61010a565b005b6100c8610121565b60405161009291906102cc565b6100c86101af565b6100be6100eb3660046102b4565b610241565b610085610251565b60025490565b60015481565b60025481565b60025460009061011a9083610256565b6002555050565b6000805461012e90610357565b80601f016020809104026020016040519081016040528092919081815260200182805461015a90610357565b80156101a75780601f1061017c576101008083540402835291602001916101a7565b820191906000526020600020905b81548152906001019060200180831161018a57829003601f168201915b505050505081565b6060600080546101be90610357565b80601f01602080910402602001604051908101604052809291908181526020018280546101ea90610357565b80156102375780601f1061020c57610100808354040283529160200191610237565b820191906000526020600020905b81548152906001019060200180831161021a57829003601f168201915b5050505050905090565b60025460009061011a9083610287565b600390565b60008282111561027657634e487b7160e01b600052600160045260246000fd5b6102808284610340565b9392505050565b6000806102948385610328565b90508381101561028057634e487b7160e01b600052600160045260246000fd5b6000602082840312156102c5578081fd5b5035919050565b6000602080835283518082850152825b818110156102f8578581018301518582016040015282016102dc565b818111156103095783604083870101525b50601f01601f1916929092016040019392505050565b90815260200190565b6000821982111561033b5761033b610392565b500190565b60008282101561035257610352610392565b500390565b60028104600182168061036b57607f821691505b6020821081141561038c57634e487b7160e01b600052602260045260246000fd5b50919050565b634e487b7160e01b600052601160045260246000fdfea2646970667358221220ec4fdd8925b9af8bbdb8212b2c1c133371927501989277696b5bc228c61f7cd464736f6c63430008000033608060405234801561001057600080fd5b506040516105ed3803806105ed83398101604081905261002f916100e5565b815161004290600090602085019061004c565b5060025550610200565b828054610058906101af565b90600052602060002090601f01602090048101928261007a57600085556100c0565b82601f1061009357805160ff19168380011785556100c0565b828001600101855582156100c0579182015b828111156100c05782518255916020019190600101906100a5565b506100cc9291506100d0565b5090565b5b808211156100cc57600081556001016100d1565b600080604083850312156100f7578182fd5b82516001600160401b038082111561010d578384fd5b818501915085601f830112610120578384fd5b815181811115610132576101326101ea565b6040516020601f8301601f1916820181018481118382101715610157576101576101ea565b604052828252848301810189101561016d578687fd5b8693505b8284101561018e5784840181015182850182015292830192610171565b8284111561019e57868184840101525b969096015195979596505050505050565b6002810460018216806101c357607f821691505b602082108114156101e457634e487b7160e01b600052602260045260246000fd5b50919050565b634e487b7160e01b600052604160045260246000fd5b6103de8061020f6000396000f3fe608060405234801561001057600080fd5b50600436106100785760003560e01c80639be0b8001461007d5780639e66e0f31461009b578063ae4f7a4c146100a3578063b0b6d161146100ab578063bc7b35b2146100c0578063cb86d6e6146100d5578063f5a50589146100dd578063f7ac4af4146100f0575b600080fd5b6100856100f8565b604051610092919061031f565b60405180910390f35b6100856100fe565b610085610104565b6100be6100b93660046102b4565b61010a565b005b6100c8610121565b60405161009291906102cc565b6100c86101af565b6100be6100eb3660046102b4565b610241565b610085610251565b60025490565b60015481565b60025481565b60025460009061011a9083610256565b6002555050565b6000805461012e90610357565b80601f016020809104026020016040519081016040528092919081815260200182805461015a90610357565b80156101a75780601f1061017c576101008083540402835291602001916101a7565b820191906000526020600020905b81548152906001019060200180831161018a57829003601f168201915b505050505081565b6060600080546101be90610357565b80601f01602080910402602001604051908101604052809291908181526020018280546101ea90610357565b80156102375780601f1061020c57610100808354040283529160200191610237565b820191906000526020600020905b81548152906001019060200180831161021a57829003601f168201915b5050505050905090565b60025460009061011a9083610287565b600290565b60008282111561027657634e487b7160e01b600052600160045260246000fd5b6102808284610340565b9392505050565b6000806102948385610328565b90508381101561028057634e487b7160e01b600052600160045260246000fd5b6000602082840312156102c5578081fd5b5035919050565b6000602080835283518082850152825b818110156102f8578581018301518582016040015282016102dc565b818111156103095783604083870101525b50601f01601f1916929092016040019392505050565b90815260200190565b6000821982111561033b5761033b610392565b500190565b60008282101561035257610352610392565b500390565b60028104600182168061036b57607f821691505b6020821081141561038c57634e487b7160e01b600052602260045260246000fd5b50919050565b634e487b7160e01b600052601160045260246000fdfea26469706673582212209fa3f8a3d7dc290461c285365a2ccb7550c882f55ab168043675370c0f01976664736f6c63430008000033a26469706673582212209c33c0417751f064b6ddd365ee7ead2e7111fd8b75e5fd31174b0073704e7f1a64736f6c63430008000033",
  "immutableReferences": {},
  "source": "// SPDX-License-Identifier: MIT\r\npragma solidity ^0.8.0;\r\npragma experimental ABIEncoderV2;\r\nimport \"./models/TipoEnergia.sol\";\r\nimport \"./models/InfoContrato.sol\";\r\nimport \"./models/TipoEnergiaFactory.sol\";\r\nimport \"./Generador.sol\";\r\nimport \"./Cliente.sol\";\r\nimport \"./models/Agente.sol\";\r\nimport \"./libraries/Validations.sol\";\r\n\r\ncontract Comercializador is Agente {\r\n    uint256 public contadorEmisiones = 0;\r\n    //Variable que se encarga de guardar las direccions de los contratos del comercializador\r\n    InfoContrato[] private clientesComercializador;\r\n\r\n    //Variable que se encarga de guardar las direccions de los contratos del comercializador segun el owner\r\n    mapping(string => mapping(address => TipoEnergia)) energiasClienteComercializador;\r\n    TipoEnergiaFactory private factoryEnergia;\r\n    TipoComercio public tipoComercio;\r\n\r\n    mapping(uint256 => InfoEmisionCompra) private emisionCompra;\r\n    mapping(uint256 => InfoEmisionCompra) private compra;\r\n    event EmisionDeCompra (InfoEmisionCompra);\r\n\r\n    constructor(InfoContrato memory _infoContrato, address _reguladorMercado) {\r\n        reguladorMercado = _reguladorMercado;\r\n        infoContrato = InfoContrato(\r\n            address(this),\r\n            _infoContrato.owner,\r\n            _infoContrato.nit,\r\n            _infoContrato.empresa,\r\n            _infoContrato.contacto,\r\n            _infoContrato.telefono,\r\n            _infoContrato.correo,\r\n            _infoContrato.departamento,\r\n            _infoContrato.ciudad,\r\n            _infoContrato.direccion,\r\n            nullAddress,\r\n            _infoContrato.tipoComercio\r\n        );\r\n        tipoComercio = TipoComercio(_infoContrato.tipoComercio);\r\n        factoryEnergia = new TipoEnergiaFactory();\r\n    }\r\n\r\n    /**\r\n    Funcion que permite la compra de energia por parte del cliente a traves de un contrato de comercializador, solo la pueden ejecutar los contratos de comercializador del tipo cliente\r\n     */\r\n    function ComprarEnergia(\r\n        address _dirContrato,\r\n        address _ownerCliente,\r\n        uint256 _cantidadEnergia,\r\n        string memory nombreTipoEnergia,\r\n        uint256 index\r\n    ) public authorize(msg.sender) onlyCliente {\r\n        require(\r\n            Validations.aproveCreation(_ownerCliente, clientesComercializador),\r\n            \"El cliente no es un cliente de este contrato\"\r\n        );\r\n        Generador(_dirContrato).ComprarEnergia(\r\n            _cantidadEnergia,\r\n            nombreTipoEnergia,\r\n            _ownerCliente\r\n        );\r\n        if (\r\n            address(\r\n                energiasClienteComercializador[nombreTipoEnergia][_ownerCliente]\r\n            ) == nullAddress\r\n        ) {\r\n            energiasClienteComercializador[nombreTipoEnergia][\r\n                _ownerCliente\r\n            ] = factoryEnergia.generarNuevaEnergia(\r\n                nombreTipoEnergia,\r\n                _cantidadEnergia\r\n            );\r\n        } else {\r\n            energiasClienteComercializador[nombreTipoEnergia][_ownerCliente]\r\n                .addCantidadEnergia(_cantidadEnergia);\r\n        }\r\n        setInfoCompras(index);\r\n    }\r\n\r\n    function setInfoEmisionesDeCompra(\r\n        InfoContrato memory _infoContrato,\r\n        string memory _tipoEnergia,\r\n        uint256 _cantidadEnergia\r\n    ) public onlyCliente {\r\n        InfoEmisionCompra memory infoEmisionCompra = InfoEmisionCompra(\r\n            _infoContrato.dirContrato,\r\n            _infoContrato.empresa,\r\n            _tipoEnergia,\r\n            _cantidadEnergia,\r\n            EstadoCompra.pendiente,\r\n            block.timestamp,\r\n            0\r\n        );\r\n        emisionCompra[contadorEmisiones] = infoEmisionCompra;\r\n        emit EmisionDeCompra(infoEmisionCompra);\r\n        contadorEmisiones++;\r\n    }\r\n\r\n    function setInfoCompras(uint256 index) private authorize(msg.sender) {\r\n        compra[index].estado = EstadoCompra.aprobada;\r\n        compra[index].fechaAprobacion = block.timestamp;\r\n    }\r\n\r\n    function getInfoEmisionesDeCompra(uint index) public view returns (InfoEmisionCompra memory) {\r\n        return emisionCompra[index];\r\n    }\r\n    /**\r\n     Funcion que permite la venta de energia por parte del generador a traves de un contrato de comercializador, solo la pueden ejecutar los contratos de comercializador del tipo generador\r\n     */\r\n    function VentaEnergia(\r\n        address _dirContrato,\r\n        uint256 _cantidadEnergia,\r\n        string memory nombreTipoEnergia\r\n    ) public {}\r\n\r\n    function getEnergiaDisponible(\r\n        string memory _nombreTipoEnergia,\r\n        address _cliente\r\n    ) public view returns (uint256) {\r\n        return\r\n            energiasClienteComercializador[_nombreTipoEnergia][_cliente]\r\n                .getCantidadEnergia();\r\n    }\r\n\r\n    function getTipoContrato() public view returns (uint256) {\r\n        return uint256(tipoComercio);\r\n    }\r\n\r\n    function setClientesComercializador(InfoContrato memory _infoContrato)\r\n        public\r\n    {\r\n        clientesComercializador.push(_infoContrato);\r\n    }\r\n\r\n    function getClientesComercializador()\r\n        public\r\n        view\r\n        returns (InfoContrato[] memory)\r\n    {\r\n        return clientesComercializador;\r\n    }\r\n\r\n    modifier onlyCliente() {\r\n        require(\r\n            tipoComercio == TipoComercio.Cliente,\r\n            \"Solo los contratos de cliente pueden ejecutar esta funcion\"\r\n        );\r\n        _;\r\n    }\r\n}\r\n",
  "sourcePath": "D:\\Santiago\\BlockChain\\DemoMvmTruffle\\contracts\\Comercializador.sol",
  "compiler": {
    "name": "solc",
    "version": "0.8.0+commit.c7dfd78e.Emscripten.clang"
  },
  "schemaVersion": "3.4.4",
  "updatedAt": "2022-07-18T14:16:48.815Z",
  "networkType": "ethereum",
  "devdoc": {
    "kind": "dev",
    "methods": {},
    "version": 1
  },
  "userdoc": {
    "kind": "user",
    "methods": {
      "ComprarEnergia(address,address,uint256,string,uint256)": {
        "notice": "Funcion que permite la compra de energia por parte del cliente a traves de un contrato de comercializador, solo la pueden ejecutar los contratos de comercializador del tipo cliente"
      },
      "VentaEnergia(address,uint256,string)": {
        "notice": "Funcion que permite la venta de energia por parte del generador a traves de un contrato de comercializador, solo la pueden ejecutar los contratos de comercializador del tipo generador"
      }
    },
    "version": 1
  }
}