{
  "contractName": "ERC20Basic",
  "abi": [
    {
      "inputs": [
        {
          "internalType": "uint256",
          "name": "initialSupply",
          "type": "uint256"
        }
      ],
      "stateMutability": "nonpayable",
      "type": "constructor"
    },
    {
      "anonymous": false,
      "inputs": [
        {
          "indexed": true,
          "internalType": "address",
          "name": "owner",
          "type": "address"
        },
        {
          "indexed": true,
          "internalType": "address",
          "name": "spender",
          "type": "address"
        },
        {
          "indexed": false,
          "internalType": "uint256",
          "name": "value",
          "type": "uint256"
        }
      ],
      "name": "Approval",
      "type": "event"
    },
    {
      "anonymous": false,
      "inputs": [
        {
          "indexed": true,
          "internalType": "address",
          "name": "from",
          "type": "address"
        },
        {
          "indexed": true,
          "internalType": "address",
          "name": "to",
          "type": "address"
        },
        {
          "indexed": false,
          "internalType": "uint256",
          "name": "value",
          "type": "uint256"
        }
      ],
      "name": "Transfer",
      "type": "event"
    },
    {
      "inputs": [],
      "name": "decimals",
      "outputs": [
        {
          "internalType": "uint8",
          "name": "",
          "type": "uint8"
        }
      ],
      "stateMutability": "view",
      "type": "function"
    },
    {
      "inputs": [],
      "name": "name",
      "outputs": [
        {
          "internalType": "string",
          "name": "",
          "type": "string"
        }
      ],
      "stateMutability": "view",
      "type": "function"
    },
    {
      "inputs": [],
      "name": "symbol",
      "outputs": [
        {
          "internalType": "string",
          "name": "",
          "type": "string"
        }
      ],
      "stateMutability": "view",
      "type": "function"
    },
    {
      "inputs": [],
      "name": "totalSupply_",
      "outputs": [
        {
          "internalType": "uint256",
          "name": "",
          "type": "uint256"
        }
      ],
      "stateMutability": "view",
      "type": "function"
    },
    {
      "inputs": [],
      "name": "totalSupply",
      "outputs": [
        {
          "internalType": "uint256",
          "name": "",
          "type": "uint256"
        }
      ],
      "stateMutability": "view",
      "type": "function"
    },
    {
      "inputs": [
        {
          "internalType": "uint256",
          "name": "newTokensAmount",
          "type": "uint256"
        }
      ],
      "name": "increaseTotalSupply",
      "outputs": [],
      "stateMutability": "nonpayable",
      "type": "function"
    },
    {
      "inputs": [
        {
          "internalType": "address",
          "name": "account",
          "type": "address"
        }
      ],
      "name": "balanceOf",
      "outputs": [
        {
          "internalType": "uint256",
          "name": "",
          "type": "uint256"
        }
      ],
      "stateMutability": "view",
      "type": "function"
    },
    {
      "inputs": [
        {
          "internalType": "address",
          "name": "owner",
          "type": "address"
        },
        {
          "internalType": "address",
          "name": "delegate",
          "type": "address"
        }
      ],
      "name": "allowance",
      "outputs": [
        {
          "internalType": "uint256",
          "name": "",
          "type": "uint256"
        }
      ],
      "stateMutability": "view",
      "type": "function"
    },
    {
      "inputs": [
        {
          "internalType": "address",
          "name": "recipiant",
          "type": "address"
        },
        {
          "internalType": "uint256",
          "name": "amount",
          "type": "uint256"
        }
      ],
      "name": "transfer",
      "outputs": [
        {
          "internalType": "bool",
          "name": "",
          "type": "bool"
        }
      ],
      "stateMutability": "nonpayable",
      "type": "function"
    },
    {
      "inputs": [
        {
          "internalType": "address",
          "name": "sender",
          "type": "address"
        },
        {
          "internalType": "address",
          "name": "receiver",
          "type": "address"
        },
        {
          "internalType": "uint256",
          "name": "numTokens",
          "type": "uint256"
        }
      ],
      "name": "transferTwo",
      "outputs": [
        {
          "internalType": "bool",
          "name": "",
          "type": "bool"
        }
      ],
      "stateMutability": "nonpayable",
      "type": "function"
    },
    {
      "inputs": [
        {
          "internalType": "address",
          "name": "delegate",
          "type": "address"
        },
        {
          "internalType": "uint256",
          "name": "numTokens",
          "type": "uint256"
        }
      ],
      "name": "approve",
      "outputs": [
        {
          "internalType": "bool",
          "name": "",
          "type": "bool"
        }
      ],
      "stateMutability": "nonpayable",
      "type": "function"
    },
    {
      "inputs": [
        {
          "internalType": "address",
          "name": "owner",
          "type": "address"
        },
        {
          "internalType": "address",
          "name": "buyer",
          "type": "address"
        },
        {
          "internalType": "uint256",
          "name": "numTokens",
          "type": "uint256"
        }
      ],
      "name": "transferFrom",
      "outputs": [
        {
          "internalType": "bool",
          "name": "",
          "type": "bool"
        }
      ],
      "stateMutability": "nonpayable",
      "type": "function"
    }
  ],
  "bytecode": "0x608060405234801561001057600080fd5b5060405161094138038061094183398101604081905261002f91610046565b60008181553381526001602052604090205561005e565b600060208284031215610057578081fd5b5051919050565b6108d48061006d6000396000f3fe608060405234801561001057600080fd5b50600436106100a45760003560e01c806306fdde03146100a9578063095ea7b3146100c757806318160ddd146100e75780631d43cc98146100fc57806323b872dd14610111578063313ce56714610124578063324536eb1461013957806370a082311461014157806395d89b4114610154578063a9059cbb1461015c578063dd62ed3e1461016f578063eee4b8d414610182575b600080fd5b6100b1610195565b6040516100be91906106cd565b60405180910390f35b6100da6100d5366004610681565b6101ba565b6040516100be91906106c2565b6100ef610224565b6040516100be9190610822565b61010f61010a3660046106aa565b61022a565b005b6100da61011f366004610646565b610267565b61012c6103d5565b6040516100be919061082b565b6100ef6103da565b6100ef61014f3660046105fa565b6103e0565b6100b16103ff565b6100da61016a366004610681565b61041e565b6100ef61017d366004610614565b6104d0565b6100da610190366004610646565b6104fb565b6040518060400160405280600981526020016845524332305f4d564d60b81b81525081565b3260008181526002602090815260408083206001600160a01b038716808552925280832085905551919290917f8c5be1e5ebec7d5bd14f71427d1e84f3dd0314c0f7b2291e5b200ac8c7c3b92590610213908690610822565b60405180910390a350600192915050565b60005490565b8060008082825461023b9190610839565b9091555050336000908152600160205260408120805483929061025f908490610839565b909155505050565b6001600160a01b0383166000908152600160205260408120548211156102a85760405162461bcd60e51b815260040161029f90610796565b60405180910390fd5b6001600160a01b03841660009081526002602090815260408083203284529091529020548211156102eb5760405162461bcd60e51b815260040161029f9061074a565b6001600160a01b03841660009081526001602052604090205461030e9083610585565b6001600160a01b03851660009081526001602090815260408083209390935560028152828220328352905220546103459083610585565b6001600160a01b03808616600090815260026020908152604080832032845282528083209490945591861681526001909152205461038390836105b6565b6001600160a01b03808516600081815260016020526040908190209390935591519086169060008051602061087f833981519152906103c3908690610822565b60405180910390a35060019392505050565b600281565b60005481565b6001600160a01b0381166000908152600160205260409020545b919050565b604051806040016040528060038152602001624d564d60e81b81525081565b3360009081526001602052604081205482111561044d5760405162461bcd60e51b815260040161029f90610720565b336000908152600160205260409020546104679083610585565b33600090815260016020526040808220929092556001600160a01b0385168152205461049390836105b6565b6001600160a01b03841660008181526001602052604090819020929092559051339060008051602061087f83398151915290610213908690610822565b6001600160a01b03918216600090815260026020908152604080832093909416825291909152205490565b6001600160a01b0383166000908152600160205260408120548211156105335760405162461bcd60e51b815260040161029f906107cc565b6001600160a01b0384166000908152600160205260409020546105569083610585565b6001600160a01b03808616600090815260016020526040808220939093559085168152205461038390836105b6565b6000828211156105a557634e487b7160e01b600052600160045260246000fd5b6105af8284610851565b9392505050565b6000806105c38385610839565b9050838110156105af57634e487b7160e01b600052600160045260246000fd5b80356001600160a01b03811681146103fa57600080fd5b60006020828403121561060b578081fd5b6105af826105e3565b60008060408385031215610626578081fd5b61062f836105e3565b915061063d602084016105e3565b90509250929050565b60008060006060848603121561065a578081fd5b610663846105e3565b9250610671602085016105e3565b9150604084013590509250925092565b60008060408385031215610693578182fd5b61069c836105e3565b946020939093013593505050565b6000602082840312156106bb578081fd5b5035919050565b901515815260200190565b6000602080835283518082850152825b818110156106f9578581018301518582016040015282016106dd565b8181111561070a5783604083870101525b50601f01601f1916929092016040019392505050565b60208082526010908201526f4572726f7220656e2062616c616e636560801b604082015260600190565b6020808252602c908201527f4e6f2073652068616e2064656c656761646f206c6f7320746f6b656e7320612060408201526b3630903234b932b1b1b4b7b760a11b606082015260800190565b6020808252601c908201527b456c206f776e6572206e6f207469656e65206c6f7320746f6b656e7360201b604082015260600190565b60208082526036908201527f456c206e756d65726f20646520746f6b656e732061207472616e736665726972604082015275206573206d61796f722071756520656c2073616c646f60501b606082015260800190565b90815260200190565b60ff91909116815260200190565b6000821982111561084c5761084c610868565b500190565b60008282101561086357610863610868565b500390565b634e487b7160e01b600052601160045260246000fdfeddf252ad1be2c89b69c2b068fc378daa952ba7f163c4a11628f55a4df523b3efa26469706673582212208e5b36cd2426d01c8e8850b30695cbb6966657dc28d435ed5430db249c18862e64736f6c63430008000033",
  "immutableReferences": {},
  "source": "// SPDX-License-Identifier: MIT\r\npragma solidity ^0.8.0;\r\npragma experimental ABIEncoderV2;\r\nimport \"./SafeMath.sol\";\r\n\r\ninterface IERC20 {\r\n    //Devuelve la cantidad de tokens en existencia en toda la red\r\n    function totalSupply() external view returns (uint256);\r\n\r\n    //Devuelve la cantidad de tokens para una direccion indicada por parametro\r\n    function balanceOf(address account) external view returns (uint256);\r\n\r\n    //Devuelve el numero de token que el spender podra gastar en nombre del propietario\r\n    function allowance(address owner, address spender)\r\n        external\r\n        view\r\n        returns (uint256);\r\n\r\n    //Devuelve un valor boolean resultado de la operacion de transferencia\r\n    function transfer(address recipiant, uint256 amount)\r\n        external\r\n        returns (bool);\r\n\r\n    //Devuelve un valor boolean resultado de la operacion de gasto\r\n    function approve(address spender, uint256 amount) external returns (bool);\r\n\r\n    //Devuelve un valor boolean resultado de la operacion de paso de una cantidad de tokens usando el metodo allowance\r\n    function transferFrom(\r\n        address owner,\r\n        address recipiant,\r\n        uint256 amount\r\n    ) external returns (bool);\r\n\r\n    //Eventos\r\n    //Evento que se dispara cuando una cantidad de tokens pase de un origen a un destino\r\n    event Transfer(address indexed from, address indexed to, uint256 value);\r\n\r\n    //Evento que se dispara cuando se establece una asignacion con el metodo allowance\r\n    event Approval(\r\n        address indexed owner,\r\n        address indexed spender,\r\n        uint256 value\r\n    );\r\n}\r\n\r\ncontract ERC20Basic is IERC20 {\r\n    //Variables de instancia\r\n    string public constant name = \"ERC20_MVM\";\r\n    string public constant symbol = \"MVM\";\r\n    uint8 public constant decimals = 2;\r\n\r\n    //Cantidad de tokens en existencia\r\n    uint256 public totalSupply_;\r\n\r\n    using SafeMath for uint256;\r\n    //Mapping: Es una estructura de datos que permite almacenar una lista de valores\r\n    mapping(address => uint256) balances;\r\n    //Mapping de direcciones a cantidades de tokens, ejemplo de minero y cede las cantidades a diferentes personas\r\n    mapping(address => mapping(address => uint256)) allowed;\r\n\r\n    //Constructor\r\n    constructor(uint256 initialSupply) {\r\n        totalSupply_ = initialSupply;\r\n        balances[msg.sender] = initialSupply;\r\n    }\r\n\r\n    function totalSupply() public view override returns (uint256) {\r\n        return totalSupply_;\r\n    }\r\n\r\n    function increaseTotalSupply(uint256 newTokensAmount) public {\r\n        totalSupply_ += newTokensAmount;\r\n        balances[msg.sender] += newTokensAmount;\r\n    }\r\n\r\n    function balanceOf(address account) public view override returns (uint256) {\r\n        return balances[account];\r\n    }\r\n\r\n    function allowance(address owner, address delegate)\r\n        public\r\n        view\r\n        override\r\n        returns (uint256)\r\n    {\r\n        return allowed[owner][delegate];\r\n    }\r\n\r\n    function transfer(address recipiant, uint256 amount)\r\n        public\r\n        override\r\n        returns (bool)\r\n    {\r\n        require(amount <= balances[msg.sender], \"Error en balance\");\r\n        //Primero se realiza el descuento de las transferencias\r\n        balances[msg.sender] = balances[msg.sender].sub(amount);\r\n        balances[recipiant] = balances[recipiant].add(amount);\r\n\r\n        //Notificacion de evento\r\n        emit Transfer(msg.sender, recipiant, amount);\r\n        return true;\r\n    }\r\n\r\n    function transferTwo(\r\n        address sender,\r\n        address receiver,\r\n        uint256 numTokens\r\n    ) public returns (bool) {\r\n        require(\r\n            numTokens <= balances[sender],\r\n            \"El numero de tokens a transferir es mayor que el saldo\"\r\n        );\r\n        balances[sender] = balances[sender].sub(numTokens);\r\n        balances[receiver] = balances[receiver].add(numTokens);\r\n        emit Transfer(sender, receiver, numTokens);\r\n        return true;\r\n    }\r\n\r\n    function approve(address delegate, uint256 numTokens)\r\n        public\r\n        override\r\n        returns (bool)\r\n    {\r\n        allowed[tx.origin][delegate] = numTokens;\r\n        emit Approval(tx.origin, delegate, numTokens);\r\n        return true;\r\n    }\r\n\r\n    //Metodo para transferir tokens a una direccion desde un intermediario, primero se deben de delegar los tokens al intermediario\r\n    function transferFrom(\r\n        address owner,\r\n        address buyer,\r\n        uint256 numTokens\r\n    ) public override returns (bool) {\r\n        require(numTokens <= balances[owner], \"El owner no tiene los tokens\");\r\n        require(numTokens <= allowed[owner][tx.origin], \"No se han delegado los tokens a la direccion\");\r\n\r\n        balances[owner] = balances[owner].sub(numTokens);\r\n        allowed[owner][tx.origin] = allowed[owner][tx.origin].sub(numTokens);\r\n\r\n        balances[buyer] = balances[buyer].add(numTokens);\r\n        emit Transfer(owner, buyer, numTokens);\r\n        return true;\r\n    }\r\n}\r\n",
  "sourcePath": "D:\\Santiago\\BlockChain\\DemoMvmTruffle\\contracts\\TokenErc20\\ERC20.sol",
  "compiler": {
    "name": "solc",
    "version": "0.8.0+commit.c7dfd78e.Emscripten.clang"
  },
  "schemaVersion": "3.4.4",
  "updatedAt": "2022-07-18T14:16:37.115Z",
  "devdoc": {
    "kind": "dev",
    "methods": {},
    "version": 1
  },
  "userdoc": {
    "kind": "user",
    "methods": {},
    "version": 1
  }
}