{
  "contractName": "ERC20Basic",
  "abi": [
    {
      "inputs": [
        {
          "internalType": "uint256",
          "name": "initialSupply",
          "type": "uint256"
        }
      ],
      "stateMutability": "nonpayable",
      "type": "constructor"
    },
    {
      "anonymous": false,
      "inputs": [
        {
          "indexed": true,
          "internalType": "address",
          "name": "owner",
          "type": "address"
        },
        {
          "indexed": true,
          "internalType": "address",
          "name": "spender",
          "type": "address"
        },
        {
          "indexed": false,
          "internalType": "uint256",
          "name": "value",
          "type": "uint256"
        }
      ],
      "name": "Approval",
      "type": "event"
    },
    {
      "anonymous": false,
      "inputs": [
        {
          "indexed": true,
          "internalType": "address",
          "name": "from",
          "type": "address"
        },
        {
          "indexed": true,
          "internalType": "address",
          "name": "to",
          "type": "address"
        },
        {
          "indexed": false,
          "internalType": "uint256",
          "name": "value",
          "type": "uint256"
        }
      ],
      "name": "Transfer",
      "type": "event"
    },
    {
      "inputs": [],
      "name": "decimals",
      "outputs": [
        {
          "internalType": "uint8",
          "name": "",
          "type": "uint8"
        }
      ],
      "stateMutability": "view",
      "type": "function"
    },
    {
      "inputs": [],
      "name": "name",
      "outputs": [
        {
          "internalType": "string",
          "name": "",
          "type": "string"
        }
      ],
      "stateMutability": "view",
      "type": "function"
    },
    {
      "inputs": [],
      "name": "symbol",
      "outputs": [
        {
          "internalType": "string",
          "name": "",
          "type": "string"
        }
      ],
      "stateMutability": "view",
      "type": "function"
    },
    {
      "inputs": [],
      "name": "totalSupply_",
      "outputs": [
        {
          "internalType": "uint256",
          "name": "",
          "type": "uint256"
        }
      ],
      "stateMutability": "view",
      "type": "function"
    },
    {
      "inputs": [],
      "name": "totalSupply",
      "outputs": [
        {
          "internalType": "uint256",
          "name": "",
          "type": "uint256"
        }
      ],
      "stateMutability": "view",
      "type": "function"
    },
    {
      "inputs": [
        {
          "internalType": "uint256",
          "name": "newTokensAmount",
          "type": "uint256"
        }
      ],
      "name": "increaseTotalSupply",
      "outputs": [],
      "stateMutability": "nonpayable",
      "type": "function"
    },
    {
      "inputs": [
        {
          "internalType": "address",
          "name": "account",
          "type": "address"
        }
      ],
      "name": "balanceOf",
      "outputs": [
        {
          "internalType": "uint256",
          "name": "",
          "type": "uint256"
        }
      ],
      "stateMutability": "view",
      "type": "function"
    },
    {
      "inputs": [
        {
          "internalType": "address",
          "name": "owner",
          "type": "address"
        },
        {
          "internalType": "address",
          "name": "delegate",
          "type": "address"
        }
      ],
      "name": "allowance",
      "outputs": [
        {
          "internalType": "uint256",
          "name": "",
          "type": "uint256"
        }
      ],
      "stateMutability": "view",
      "type": "function"
    },
    {
      "inputs": [
        {
          "internalType": "address",
          "name": "recipiant",
          "type": "address"
        },
        {
          "internalType": "uint256",
          "name": "amount",
          "type": "uint256"
        }
      ],
      "name": "transfer",
      "outputs": [
        {
          "internalType": "bool",
          "name": "",
          "type": "bool"
        }
      ],
      "stateMutability": "nonpayable",
      "type": "function"
    },
    {
      "inputs": [
        {
          "internalType": "address",
          "name": "sender",
          "type": "address"
        },
        {
          "internalType": "address",
          "name": "receiver",
          "type": "address"
        },
        {
          "internalType": "uint256",
          "name": "numTokens",
          "type": "uint256"
        }
      ],
      "name": "transferTwo",
      "outputs": [
        {
          "internalType": "bool",
          "name": "",
          "type": "bool"
        }
      ],
      "stateMutability": "nonpayable",
      "type": "function"
    },
    {
      "inputs": [
        {
          "internalType": "address",
          "name": "delegate",
          "type": "address"
        },
        {
          "internalType": "uint256",
          "name": "numTokens",
          "type": "uint256"
        }
      ],
      "name": "approve",
      "outputs": [
        {
          "internalType": "bool",
          "name": "",
          "type": "bool"
        }
      ],
      "stateMutability": "nonpayable",
      "type": "function"
    },
    {
      "inputs": [
        {
          "internalType": "address",
          "name": "delegate",
          "type": "address"
        },
        {
          "internalType": "uint256",
          "name": "numTokens",
          "type": "uint256"
        }
      ],
      "name": "disapprove",
      "outputs": [
        {
          "internalType": "bool",
          "name": "",
          "type": "bool"
        }
      ],
      "stateMutability": "nonpayable",
      "type": "function"
    },
    {
      "inputs": [
        {
          "internalType": "address",
          "name": "owner",
          "type": "address"
        },
        {
          "internalType": "address",
          "name": "buyer",
          "type": "address"
        },
        {
          "internalType": "address",
          "name": "intermediary",
          "type": "address"
        },
        {
          "internalType": "uint256",
          "name": "numTokens",
          "type": "uint256"
        }
      ],
      "name": "transferFrom",
      "outputs": [
        {
          "internalType": "bool",
          "name": "",
          "type": "bool"
        }
      ],
      "stateMutability": "nonpayable",
      "type": "function"
    }
  ],
  "bytecode": "0x608060405234801561001057600080fd5b50604051610b07380380610b0783398101604081905261002f91610046565b60008181553381526001602052604090205561005e565b600060208284031215610057578081fd5b5051919050565b610a9a8061006d6000396000f3fe608060405234801561001057600080fd5b50600436106100af5760003560e01c806306fdde03146100b4578063095ea7b3146100d257806315dacbea146100f257806318160ddd146101055780631d43cc981461011a578063313ce5671461012f578063324536eb1461014457806370a082311461014c57806395d89b411461015f578063a9059cbb14610167578063dd62ed3e1461017a578063eee4b8d41461018d578063fbabdb06146101a0575b600080fd5b6100bc6101b3565b6040516100c9919061085d565b60405180910390f35b6100e56100e0366004610811565b6101d8565b6040516100c99190610852565b6100e561010036600461078c565b6102a6565b61010d610415565b6040516100c991906109e8565b61012d61012836600461083a565b61041b565b005b610137610458565b6040516100c991906109f1565b61010d61045d565b61010d61015a366004610740565b610463565b6100bc610482565b6100e5610175366004610811565b6104a1565b61010d61018836600461075a565b610553565b6100e561019b3660046107d6565b61057e565b6100e56101ae366004610811565b61065a565b6040518060400160405280600981526020016845524332305f4d564d60b81b81525081565b326000908152600160205260408120548211156102105760405162461bcd60e51b8152600401610207906109b2565b60405180910390fd5b3260009081526002602090815260408083206001600160a01b038716845290915290205461023e90836106cb565b3260008181526002602090815260408083206001600160a01b03891680855292529182902093909355517f8c5be1e5ebec7d5bd14f71427d1e84f3dd0314c0f7b2291e5b200ac8c7c3b925906102959086906109e8565b60405180910390a350600192915050565b6001600160a01b0384166000908152600160205260408120548211156102de5760405162461bcd60e51b815260040161020790610926565b6001600160a01b038086166000908152600260209081526040808320938716835292905220548211156103235760405162461bcd60e51b8152600401610207906108da565b6001600160a01b03851660009081526001602052604090205461034690836106ff565b6001600160a01b0380871660009081526001602090815260408083209490945560028152838220928716825291909152205461038290836106ff565b6001600160a01b03808716600090815260026020908152604080832088851684528252808320949094559187168152600190915220546103c290836106cb565b6001600160a01b038086166000818152600160205260409081902093909355915190871690600080516020610a45833981519152906104029086906109e8565b60405180910390a3506001949350505050565b60005490565b8060008082825461042c91906109ff565b909155505033600090815260016020526040812080548392906104509084906109ff565b909155505050565b600281565b60005481565b6001600160a01b0381166000908152600160205260409020545b919050565b604051806040016040528060038152602001624d564d60e81b81525081565b336000908152600160205260408120548211156104d05760405162461bcd60e51b8152600401610207906108b0565b336000908152600160205260409020546104ea90836106ff565b33600090815260016020526040808220929092556001600160a01b0385168152205461051690836106cb565b6001600160a01b038416600081815260016020526040908190209290925590513390600080516020610a45833981519152906102959086906109e8565b6001600160a01b03918216600090815260026020908152604080832093909416825291909152205490565b6001600160a01b0383166000908152600160205260408120548211156105b65760405162461bcd60e51b81526004016102079061095c565b6001600160a01b0384166000908152600160205260409020546105d990836106ff565b6001600160a01b03808616600090815260016020526040808220939093559085168152205461060890836106cb565b6001600160a01b038085166000818152600160205260409081902093909355915190861690600080516020610a45833981519152906106489086906109e8565b60405180910390a35060019392505050565b3260009081526002602090815260408083206001600160a01b038616845290915281205482111561069d5760405162461bcd60e51b8152600401610207906109b2565b3260009081526002602090815260408083206001600160a01b038716845290915290205461023e90836106ff565b6000806106d883856109ff565b9050838110156106f857634e487b7160e01b600052600160045260246000fd5b9392505050565b60008282111561071f57634e487b7160e01b600052600160045260246000fd5b6106f88284610a17565b80356001600160a01b038116811461047d57600080fd5b600060208284031215610751578081fd5b6106f882610729565b6000806040838503121561076c578081fd5b61077583610729565b915061078360208401610729565b90509250929050565b600080600080608085870312156107a1578182fd5b6107aa85610729565b93506107b860208601610729565b92506107c660408601610729565b9396929550929360600135925050565b6000806000606084860312156107ea578283fd5b6107f384610729565b925061080160208501610729565b9150604084013590509250925092565b60008060408385031215610823578182fd5b61082c83610729565b946020939093013593505050565b60006020828403121561084b578081fd5b5035919050565b901515815260200190565b6000602080835283518082850152825b818110156108895785810183015185820160400152820161086d565b8181111561089a5783604083870101525b50601f01601f1916929092016040019392505050565b60208082526010908201526f4572726f7220656e2062616c616e636560801b604082015260600190565b6020808252602c908201527f4e6f2073652068616e2064656c656761646f206c6f7320746f6b656e7320612060408201526b3630903234b932b1b1b4b7b760a11b606082015260800190565b6020808252601c908201527b456c206f776e6572206e6f207469656e65206c6f7320746f6b656e7360201b604082015260600190565b60208082526036908201527f456c206e756d65726f20646520746f6b656e732061207472616e736665726972604082015275206573206d61796f722071756520656c2073616c646f60501b606082015260800190565b6020808252601c908201527b4e6f207469656e657320737566696369656e74657320746f6b656e7360201b604082015260600190565b90815260200190565b60ff91909116815260200190565b60008219821115610a1257610a12610a2e565b500190565b600082821015610a2957610a29610a2e565b500390565b634e487b7160e01b600052601160045260246000fdfeddf252ad1be2c89b69c2b068fc378daa952ba7f163c4a11628f55a4df523b3efa26469706673582212203afd00d353a6d276cb1e363e2ea26d1b2d585f0f934443b7c20fdade4988b63264736f6c63430008000033",
  "immutableReferences": {},
  "source": "// SPDX-License-Identifier: MIT\r\npragma solidity ^0.8.0;\r\npragma experimental ABIEncoderV2;\r\nimport \"./SafeMath.sol\";\r\n\r\ninterface IERC20 {\r\n    //Devuelve la cantidad de tokens en existencia en toda la red\r\n    function totalSupply() external view returns (uint256);\r\n\r\n    //Devuelve la cantidad de tokens para una direccion indicada por parametro\r\n    function balanceOf(address account) external view returns (uint256);\r\n\r\n    //Devuelve el numero de token que el spender podra gastar en nombre del propietario\r\n    function allowance(address owner, address spender)\r\n        external\r\n        view\r\n        returns (uint256);\r\n\r\n    //Devuelve un valor boolean resultado de la operacion de transferencia\r\n    function transfer(address recipiant, uint256 amount)\r\n        external\r\n        returns (bool);\r\n\r\n    //Devuelve un valor boolean resultado de la operacion de gasto\r\n    function approve(address spender, uint256 amount) external returns (bool);\r\n\r\n    function disapprove(address spender, uint256 amount)\r\n        external\r\n        returns (bool);\r\n\r\n    //Devuelve un valor boolean resultado de la operacion de paso de una cantidad de tokens usando el metodo allowance\r\n    function transferFrom(\r\n        address owner,\r\n        address recipiant,\r\n        address intermediary,\r\n        uint256 amount\r\n    ) external returns (bool);\r\n\r\n    //Eventos\r\n    //Evento que se dispara cuando una cantidad de tokens pase de un origen a un destino\r\n    event Transfer(address indexed from, address indexed to, uint256 value);\r\n\r\n    //Evento que se dispara cuando se establece una asignacion con el metodo allowance\r\n    event Approval(\r\n        address indexed owner,\r\n        address indexed spender,\r\n        uint256 value\r\n    );\r\n}\r\n\r\ncontract ERC20Basic is IERC20 {\r\n    //Variables de instancia\r\n    string public constant name = \"ERC20_MVM\";\r\n    string public constant symbol = \"MVM\";\r\n    uint8 public constant decimals = 2;\r\n\r\n    //Cantidad de tokens en existencia\r\n    uint256 public totalSupply_;\r\n\r\n    using SafeMath for uint256;\r\n    //Mapping: Es una estructura de datos que permite almacenar una lista de valores\r\n    mapping(address => uint256) balances;\r\n    //Mapping de direcciones a cantidades de tokens, ejemplo de minero y cede las cantidades a diferentes personas\r\n    mapping(address => mapping(address => uint256)) allowed;\r\n\r\n    //Constructor\r\n    constructor(uint256 initialSupply) {\r\n        totalSupply_ = initialSupply;\r\n        balances[msg.sender] = initialSupply;\r\n    }\r\n\r\n    function totalSupply() public view override returns (uint256) {\r\n        return totalSupply_;\r\n    }\r\n\r\n    function increaseTotalSupply(uint256 newTokensAmount) public {\r\n        totalSupply_ += newTokensAmount;\r\n        balances[msg.sender] += newTokensAmount;\r\n    }\r\n\r\n    function balanceOf(address account) public view override returns (uint256) {\r\n        return balances[account];\r\n    }\r\n\r\n    function allowance(address owner, address delegate)\r\n        public\r\n        view\r\n        override\r\n        returns (uint256)\r\n    {\r\n        return allowed[owner][delegate];\r\n    }\r\n\r\n    function transfer(address recipiant, uint256 amount)\r\n        public\r\n        override\r\n        returns (bool)\r\n    {\r\n        require(amount <= balances[msg.sender], \"Error en balance\");\r\n        //Primero se realiza el descuento de las transferencias\r\n        balances[msg.sender] = balances[msg.sender].sub(amount);\r\n        balances[recipiant] = balances[recipiant].add(amount);\r\n\r\n        //Notificacion de evento\r\n        emit Transfer(msg.sender, recipiant, amount);\r\n        return true;\r\n    }\r\n\r\n    function transferTwo(\r\n        address sender,\r\n        address receiver,\r\n        uint256 numTokens\r\n    ) public returns (bool) {\r\n        require(\r\n            numTokens <= balances[sender],\r\n            \"El numero de tokens a transferir es mayor que el saldo\"\r\n        );\r\n        balances[sender] = balances[sender].sub(numTokens);\r\n        balances[receiver] = balances[receiver].add(numTokens);\r\n        emit Transfer(sender, receiver, numTokens);\r\n        return true;\r\n    }\r\n\r\n    function approve(address delegate, uint256 numTokens)\r\n        public\r\n        override\r\n        returns (bool)\r\n    {\r\n        require(\r\n            balances[tx.origin] >= numTokens,\r\n            \"No tienes suficientes tokens\"\r\n        );\r\n        allowed[tx.origin][delegate] = allowed[tx.origin][delegate].add(\r\n            numTokens\r\n        );\r\n        emit Approval(tx.origin, delegate, numTokens);\r\n        return true;\r\n    }\r\n\r\n    function disapprove(address delegate, uint256 numTokens)\r\n        public\r\n        override\r\n        returns (bool)\r\n    {\r\n        require(\r\n            allowed[tx.origin][delegate] >= numTokens,\r\n            \"No tienes suficientes tokens\"\r\n        );\r\n        allowed[tx.origin][delegate] = allowed[tx.origin][delegate].sub(\r\n            numTokens\r\n        );\r\n        emit Approval(tx.origin, delegate, numTokens);\r\n        return true;\r\n    }\r\n\r\n    //Metodo para transferir tokens a una direccion desde un intermediario, primero se deben de delegar los tokens al intermediario\r\n    function transferFrom(\r\n        address owner,\r\n        address buyer,\r\n        address intermediary,\r\n        uint256 numTokens\r\n    ) public override returns (bool) {\r\n        require(numTokens <= balances[owner], \"El owner no tiene los tokens\");\r\n        require(\r\n            numTokens <= allowed[owner][intermediary],\r\n            \"No se han delegado los tokens a la direccion\"\r\n        );\r\n\r\n        balances[owner] = balances[owner].sub(numTokens);\r\n        allowed[owner][intermediary] = allowed[owner][intermediary].sub(\r\n            numTokens\r\n        );\r\n\r\n        balances[buyer] = balances[buyer].add(numTokens);\r\n        emit Transfer(owner, buyer, numTokens);\r\n        return true;\r\n    }\r\n}\r\n",
  "sourcePath": "D:\\Santiago\\BlockChain\\DemoMvmTruffle\\contracts\\TokenErc20\\ERC20.sol",
  "compiler": {
    "name": "solc",
    "version": "0.8.0+commit.c7dfd78e.Emscripten.clang"
  },
  "schemaVersion": "3.4.4",
  "updatedAt": "2022-07-26T14:51:13.386Z",
  "devdoc": {
    "kind": "dev",
    "methods": {},
    "version": 1
  },
  "userdoc": {
    "kind": "user",
    "methods": {},
    "version": 1
  }
}