{
  "contractName": "Generador",
  "abi": [
    {
      "inputs": [
        {
          "components": [
            {
              "internalType": "address",
              "name": "dirContrato",
              "type": "address"
            },
            {
              "internalType": "address",
              "name": "owner",
              "type": "address"
            },
            {
              "internalType": "string",
              "name": "nit",
              "type": "string"
            },
            {
              "internalType": "string",
              "name": "empresa",
              "type": "string"
            },
            {
              "internalType": "string",
              "name": "contacto",
              "type": "string"
            },
            {
              "internalType": "string",
              "name": "telefono",
              "type": "string"
            },
            {
              "internalType": "string",
              "name": "correo",
              "type": "string"
            },
            {
              "internalType": "string",
              "name": "departamento",
              "type": "string"
            },
            {
              "internalType": "string",
              "name": "ciudad",
              "type": "string"
            },
            {
              "internalType": "string",
              "name": "direccion",
              "type": "string"
            },
            {
              "internalType": "address",
              "name": "comercializador",
              "type": "address"
            },
            {
              "internalType": "uint256",
              "name": "tipoComercio",
              "type": "uint256"
            }
          ],
          "internalType": "struct InfoContrato",
          "name": "_infoContrato",
          "type": "tuple"
        },
        {
          "internalType": "address",
          "name": "_reguladorMercado",
          "type": "address"
        },
        {
          "internalType": "address",
          "name": "_bancoEnergia",
          "type": "address"
        }
      ],
      "stateMutability": "nonpayable",
      "type": "constructor"
    },
    {
      "anonymous": false,
      "inputs": [
        {
          "indexed": false,
          "internalType": "uint256",
          "name": "",
          "type": "uint256"
        },
        {
          "indexed": false,
          "internalType": "string",
          "name": "",
          "type": "string"
        },
        {
          "indexed": false,
          "internalType": "address",
          "name": "",
          "type": "address"
        }
      ],
      "name": "compraEnergia",
      "type": "event"
    },
    {
      "inputs": [],
      "name": "MisTokens",
      "outputs": [
        {
          "internalType": "uint256",
          "name": "",
          "type": "uint256"
        }
      ],
      "stateMutability": "view",
      "type": "function"
    },
    {
      "inputs": [],
      "name": "getInfoContrato",
      "outputs": [
        {
          "components": [
            {
              "internalType": "address",
              "name": "dirContrato",
              "type": "address"
            },
            {
              "internalType": "address",
              "name": "owner",
              "type": "address"
            },
            {
              "internalType": "string",
              "name": "nit",
              "type": "string"
            },
            {
              "internalType": "string",
              "name": "empresa",
              "type": "string"
            },
            {
              "internalType": "string",
              "name": "contacto",
              "type": "string"
            },
            {
              "internalType": "string",
              "name": "telefono",
              "type": "string"
            },
            {
              "internalType": "string",
              "name": "correo",
              "type": "string"
            },
            {
              "internalType": "string",
              "name": "departamento",
              "type": "string"
            },
            {
              "internalType": "string",
              "name": "ciudad",
              "type": "string"
            },
            {
              "internalType": "string",
              "name": "direccion",
              "type": "string"
            },
            {
              "internalType": "address",
              "name": "comercializador",
              "type": "address"
            },
            {
              "internalType": "uint256",
              "name": "tipoComercio",
              "type": "uint256"
            }
          ],
          "internalType": "struct InfoContrato",
          "name": "",
          "type": "tuple"
        }
      ],
      "stateMutability": "view",
      "type": "function"
    },
    {
      "inputs": [],
      "name": "nullAddress",
      "outputs": [
        {
          "internalType": "address",
          "name": "",
          "type": "address"
        }
      ],
      "stateMutability": "view",
      "type": "function"
    },
    {
      "inputs": [],
      "name": "reguladorMercado",
      "outputs": [
        {
          "internalType": "address",
          "name": "",
          "type": "address"
        }
      ],
      "stateMutability": "view",
      "type": "function"
    },
    {
      "inputs": [
        {
          "internalType": "string",
          "name": "nombreTipoEnergia",
          "type": "string"
        },
        {
          "internalType": "uint256",
          "name": "_cantidadEnergia",
          "type": "uint256"
        }
      ],
      "name": "GenerarNuevaEnergia",
      "outputs": [],
      "stateMutability": "nonpayable",
      "type": "function"
    },
    {
      "inputs": [
        {
          "internalType": "string",
          "name": "nombreTipoEnergia",
          "type": "string"
        },
        {
          "internalType": "uint256",
          "name": "_cantidadEnergia",
          "type": "uint256"
        }
      ],
      "name": "InyectarEnergia",
      "outputs": [],
      "stateMutability": "nonpayable",
      "type": "function"
    },
    {
      "inputs": [
        {
          "internalType": "uint256",
          "name": "cantidadEnergia",
          "type": "uint256"
        },
        {
          "internalType": "string",
          "name": "tipoEnergia",
          "type": "string"
        },
        {
          "internalType": "address",
          "name": "_dirOwnerContrato",
          "type": "address"
        }
      ],
      "name": "ComprarEnergia",
      "outputs": [],
      "stateMutability": "nonpayable",
      "type": "function"
    },
    {
      "inputs": [
        {
          "internalType": "string",
          "name": "_tipoEnergia",
          "type": "string"
        }
      ],
      "name": "getTipoEnergia",
      "outputs": [
        {
          "internalType": "contract TipoEnergia",
          "name": "",
          "type": "address"
        }
      ],
      "stateMutability": "view",
      "type": "function"
    },
    {
      "inputs": [
        {
          "internalType": "string",
          "name": "_tipoEnergia",
          "type": "string"
        }
      ],
      "name": "getCantidadEnergia",
      "outputs": [
        {
          "internalType": "uint256",
          "name": "",
          "type": "uint256"
        }
      ],
      "stateMutability": "view",
      "type": "function"
    },
    {
      "inputs": [
        {
          "internalType": "address",
          "name": "_dirOwnerContrato",
          "type": "address"
        }
      ],
      "name": "getEnergiaComprador",
      "outputs": [
        {
          "internalType": "contract TipoEnergia",
          "name": "",
          "type": "address"
        }
      ],
      "stateMutability": "view",
      "type": "function"
    },
    {
      "inputs": [
        {
          "internalType": "address",
          "name": "_contratoComercializador",
          "type": "address"
        }
      ],
      "name": "contratarComercializador",
      "outputs": [],
      "stateMutability": "nonpayable",
      "type": "function"
    }
  ],
  "bytecode": "0x6080604052600d80546001600160a01b03191690553480156200002157600080fd5b5060405162003309380380620033098339810160408190526200004491620003e5565b600080546001600160a01b038085166001600160a01b0319928316179092556040805161018081018252308082526020888101518616818401819052898501519484018590526060808b0151908501526080808b01519085015260a0808b01519085015260c0808b01519085015260e0808b0151908501526101008a81015190850152610120808b015190850152600d54909616610140840152610160808a01519084015260018054861690921782556002805490951690951790935581519093620001169260039291019062000283565b50606082015180516200013491600384019160209091019062000283565b50608082015180516200015291600484019160209091019062000283565b5060a082015180516200017091600584019160209091019062000283565b5060c082015180516200018e91600684019160209091019062000283565b5060e08201518051620001ac91600784019160209091019062000283565b506101008201518051620001cb91600884019160209091019062000283565b506101208201518051620001ea91600984019160209091019062000283565b50610140820151600a820180546001600160a01b0319166001600160a01b0390921691909117905561016090910151600b909101556040516200022d9062000312565b604051809103906000f0801580156200024a573d6000803e3d6000fd5b50600e80546001600160a01b039283166001600160a01b031991821617909155600f805493909216921691909117905550620006589050565b828054620002919062000605565b90600052602060002090601f016020900481019282620002b5576000855562000300565b82601f10620002d057805160ff191683800117855562000300565b8280016001018555821562000300579182015b8281111562000300578251825591602001919060010190620002e3565b506200030e92915062000320565b5090565b6113e38062001f2683390190565b5b808211156200030e576000815560010162000321565b80516001600160a01b03811681146200034f57600080fd5b919050565b600082601f83011262000365578081fd5b81516001600160401b0381111562000381576200038162000642565b602062000397601f8301601f19168201620005d9565b8281528582848701011115620003ab578384fd5b835b83811015620003ca578581018301518282018401528201620003ad565b83811115620003db57848385840101525b5095945050505050565b600080600060608486031215620003fa578283fd5b83516001600160401b038082111562000411578485fd5b818601915061018080838903121562000428578586fd5b6200043381620005d9565b9050620004408362000337565b8152620004506020840162000337565b602082015260408301518281111562000467578687fd5b620004758982860162000354565b6040830152506060830151828111156200048d578687fd5b6200049b8982860162000354565b606083015250608083015182811115620004b3578687fd5b620004c18982860162000354565b60808301525060a083015182811115620004d9578687fd5b620004e78982860162000354565b60a08301525060c083015182811115620004ff578687fd5b6200050d8982860162000354565b60c08301525060e08301518281111562000525578687fd5b620005338982860162000354565b60e08301525061010080840151838111156200054d578788fd5b6200055b8a82870162000354565b828401525050610120808401518381111562000575578788fd5b620005838a82870162000354565b82840152505061014091506200059b82840162000337565b8282015261016091508183015182820152809550505050620005c06020850162000337565b9150620005d06040850162000337565b90509250925092565b6040518181016001600160401b0381118282101715620005fd57620005fd62000642565b604052919050565b6002810460018216806200061a57607f821691505b602082108114156200063c57634e487b7160e01b600052602260045260246000fd5b50919050565b634e487b7160e01b600052604160045260246000fd5b6118be80620006686000396000f3fe608060405234801561001057600080fd5b50600436106100995760003560e01c8063158e62a31461009e578063551edf90146100c75780635a3e349d146100cf5780636a7165c0146100e45780637eb5a688146100f757806395965bda146100ff5780639be0e7ce14610112578063a3a6883e14610127578063cfa5784914610147578063e33f34a01461015a578063fcbe8eb114610162575b600080fd5b6100b16100ac3660046110cb565b610175565b6040516100be91906112ad565b60405180910390f35b6100b16101a7565b6100e26100dd366004611105565b6101b6565b005b6100e26100f2366004611105565b61030b565b6100b1610438565b6100e261010d36600461108c565b610447565b61011a610548565b6040516100be91906114ff565b61013a6101353660046110cb565b610a2d565b6040516100be9190611772565b6100e261015536600461115f565b610ac6565b61013a610eec565b6100b161017036600461108c565b610f72565b60006010826040516101879190611291565b908152604051908190036020019020546001600160a01b03169050919050565b600d546001600160a01b031681565b60025433906001600160a01b031681146101eb5760405162461bcd60e51b81526004016101e29061142e565b60405180910390fd5b600e5460405163259e757760e01b81526001600160a01b039091169063259e75779061021d90869086906004016112eb565b602060405180830381600087803b15801561023757600080fd5b505af115801561024b573d6000803e3d6000fd5b505050506040513d601f19601f8201168201806040525081019061026f91906110af565b60108460405161027f9190611291565b90815260405190819003602001812080546001600160a01b039384166001600160a01b0319909116179055600f5463017759f360e41b8252909116906317759f30906102d4908690869060009060040161130d565b600060405180830381600087803b1580156102ee57600080fd5b505af1158015610302573d6000803e3d6000fd5b50505050505050565b60025433906001600160a01b031681146103375760405162461bcd60e51b81526004016101e29061142e565b60006001600160a01b03166010846040516103529190611291565b908152604051908190036020019020546001600160a01b031614156103895760405162461bcd60e51b81526004016101e2906114c9565b6010836040516103999190611291565b9081526040519081900360200181205463f5a5058960e01b82526001600160a01b03169063f5a50589906103d1908590600401611772565b600060405180830381600087803b1580156103eb57600080fd5b505af11580156103ff573d6000803e3d6000fd5b5050600f5460405163017759f360e41b81526001600160a01b0390911692506317759f3091506102d4908690869060009060040161130d565b6000546001600160a01b031681565b60025433906001600160a01b031681146104735760405162461bcd60e51b81526004016101e29061142e565b6000826001600160a01b031663013643fd6040518163ffffffff1660e01b815260040160206040518083038186803b1580156104ae57600080fd5b505afa1580156104c2573d6000803e3d6000fd5b505050506040513d601f19601f820116820180604052508101906104e69190611147565b9050806001146105085760405162461bcd60e51b81526004016101e290611354565b600b80546001600160a01b0319166001600160a01b03851690811790915560405163632855e760e11b815263c650abce906102d49060019060040161163e565b610550610f90565b6040805161018081018252600180546001600160a01b03908116835260025416602083015260038054929391929184019161058a9061181f565b80601f01602080910402602001604051908101604052809291908181526020018280546105b69061181f565b80156106035780601f106105d857610100808354040283529160200191610603565b820191906000526020600020905b8154815290600101906020018083116105e657829003601f168201915b5050505050815260200160038201805461061c9061181f565b80601f01602080910402602001604051908101604052809291908181526020018280546106489061181f565b80156106955780601f1061066a57610100808354040283529160200191610695565b820191906000526020600020905b81548152906001019060200180831161067857829003601f168201915b505050505081526020016004820180546106ae9061181f565b80601f01602080910402602001604051908101604052809291908181526020018280546106da9061181f565b80156107275780601f106106fc57610100808354040283529160200191610727565b820191906000526020600020905b81548152906001019060200180831161070a57829003601f168201915b505050505081526020016005820180546107409061181f565b80601f016020809104026020016040519081016040528092919081815260200182805461076c9061181f565b80156107b95780601f1061078e576101008083540402835291602001916107b9565b820191906000526020600020905b81548152906001019060200180831161079c57829003601f168201915b505050505081526020016006820180546107d29061181f565b80601f01602080910402602001604051908101604052809291908181526020018280546107fe9061181f565b801561084b5780601f106108205761010080835404028352916020019161084b565b820191906000526020600020905b81548152906001019060200180831161082e57829003601f168201915b505050505081526020016007820180546108649061181f565b80601f01602080910402602001604051908101604052809291908181526020018280546108909061181f565b80156108dd5780601f106108b2576101008083540402835291602001916108dd565b820191906000526020600020905b8154815290600101906020018083116108c057829003601f168201915b505050505081526020016008820180546108f69061181f565b80601f01602080910402602001604051908101604052809291908181526020018280546109229061181f565b801561096f5780601f106109445761010080835404028352916020019161096f565b820191906000526020600020905b81548152906001019060200180831161095257829003601f168201915b505050505081526020016009820180546109889061181f565b80601f01602080910402602001604051908101604052809291908181526020018280546109b49061181f565b8015610a015780601f106109d657610100808354040283529160200191610a01565b820191906000526020600020905b8154815290600101906020018083116109e457829003601f168201915b5050509183525050600a8201546001600160a01b03166020820152600b90910154604090910152905090565b6000601082604051610a3f9190611291565b90815260408051602092819003830181205462137c1760eb1b825291516001600160a01b0390921692639be0b80092600480840193829003018186803b158015610a8857600080fd5b505afa158015610a9c573d6000803e3d6000fd5b505050506040513d601f19601f82011682018060405250810190610ac09190611147565b92915050565b6000601083604051610ad89190611291565b90815260405190819003602001902054600d546001600160a01b03918216925016811415610b185760405162461bcd60e51b81526004016101e2906113d7565b6000601084604051610b2a9190611291565b90815260408051602092819003830181205462137c1760eb1b825291516001600160a01b0390921692639be0b80092600480840193829003018186803b158015610b7357600080fd5b505afa158015610b87573d6000803e3d6000fd5b505050506040513d601f19601f82011682018060405250810190610bab9190611147565b905084811015610bcd5760405162461bcd60e51b81526004016101e29061147c565b6000601085604051610bdf9190611291565b908152604080516020928190038301812054633deb12bd60e21b825291516001600160a01b039092169263f7ac4af492600480840193829003018186803b158015610c2957600080fd5b505afa158015610c3d573d6000803e3d6000fd5b505050506040513d601f19601f82011682018060405250810190610c619190611147565b610c6b90876117b8565b600054604051630e03c03b60e01b81529192506001600160a01b031690630e03c03b90610c9c9087906004016112ad565b60206040518083038186803b158015610cb457600080fd5b505afa158015610cc8573d6000803e3d6000fd5b505050506040513d601f19601f82011682018060405250810190610cec9190611147565b811115610d0b5760405162461bcd60e51b81526004016101e2906113a1565b600054600254604051630573b68b60e31b81526001600160a01b0392831692632b9db45892610d4692899290911690339087906004016112c1565b600060405180830381600087803b158015610d6057600080fd5b505af1158015610d74573d6000803e3d6000fd5b50505050601085604051610d889190611291565b9081526040519081900360200181205463b0b6d16160e01b82526001600160a01b03169063b0b6d16190610dc0908990600401611772565b600060405180830381600087803b158015610dda57600080fd5b505af1158015610dee573d6000803e3d6000fd5b5050600f5460405163017759f360e41b81526001600160a01b0390911692506317759f309150610e279088908a9060019060040161130d565b600060405180830381600087803b158015610e4157600080fd5b505af1158015610e55573d6000803e3d6000fd5b50505050601085604051610e699190611291565b908152604080519182900360209081018320546001600160a01b03888116600090815260119093529290912080546001600160a01b031916929091169190911790557f63a6215c2d4b06bd0b74656dbfc6eb1fc9aa6029fbb18ebb4243d524217c672a90610edc9088908890889061177b565b60405180910390a1505050505050565b60008054604051630e03c03b60e01b81526001600160a01b0390911690630e03c03b90610f1d9033906004016112ad565b60206040518083038186803b158015610f3557600080fd5b505afa158015610f49573d6000803e3d6000fd5b505050506040513d601f19601f82011682018060405250810190610f6d9190611147565b905090565b6001600160a01b039081166000908152601160205260409020541690565b60405180610180016040528060006001600160a01b0316815260200160006001600160a01b03168152602001606081526020016060815260200160608152602001606081526020016060815260200160608152602001606081526020016060815260200160006001600160a01b03168152602001600081525090565b600082601f83011261101c578081fd5b81356001600160401b03808211156110365761103661185a565b604051601f8301601f19168101602001828111828210171561105a5761105a61185a565b604052828152848301602001861015611071578384fd5b82602086016020830137918201602001929092529392505050565b60006020828403121561109d578081fd5b81356110a881611870565b9392505050565b6000602082840312156110c0578081fd5b81516110a881611870565b6000602082840312156110dc578081fd5b81356001600160401b038111156110f1578182fd5b6110fd8482850161100c565b949350505050565b60008060408385031215611117578081fd5b82356001600160401b0381111561112c578182fd5b6111388582860161100c565b95602094909401359450505050565b600060208284031215611158578081fd5b5051919050565b600080600060608486031215611173578081fd5b8335925060208401356001600160401b0381111561118f578182fd5b61119b8682870161100c565b92505060408401356111ac81611870565b809150509250925092565b6001600160a01b03169052565b600081518084526111dc8160208601602086016117ef565b601f01601f19169290920160200192915050565b80546000906002810460018083168061120a57607f831692505b602080841082141561122a57634e487b7160e01b86526022600452602486fd5b6112348489611772565b828015611248576001811461125957611284565b60ff19871682528282019750611284565b611262896117ac565b60005b8781101561127e57815484820152908601908401611265565b83019850505b5050505050505092915050565b600082516112a38184602087016117ef565b9190910192915050565b6001600160a01b0391909116815260200190565b6001600160a01b039485168152928416602084015292166040820152606081019190915260800190565b6000604082526112fe60408301856111c4565b90508260208301529392505050565b60006060825261132060608301866111c4565b90508360208301526002831061134657634e487b7160e01b600052602160045260246000fd5b826040830152949350505050565b6020808252602d908201527f456c20636f6d65726369616c697a61646f72206465626520736572206465207460408201526c34b8379023b2b732b930b237b960991b606082015260800190565b6020808252601c908201527b4e6f207469656e657320746f6b656e7320737566696369656e74657360201b604082015260600190565b60208082526037908201527f456c207469706f20646520656e65726769612c206e6f20736520656e6375656e6040820152767472612064656e74726f2064656c20636174616c6f676f60481b606082015260800190565b6020808252602e908201527f4e6f207469656e65207065726d69736f73207061726120656a6563757461722060408201526d3630903a3930b739b0b1b1b4b7b760911b606082015260800190565b6020808252602d908201527f4e6f20707565646520636f6d70726172206d617320656e65726769612064652060408201526c6c6120646973706f6e69626c6560981b606082015260800190565b6020808252601c908201527b456c207469706f20646520656e6572676961206e6f2065786973746560201b604082015260600190565b6000602082526115136020830184516111b7565b602083015161152560408401826111b7565b5060408301516101808060608501526115426101a08501836111c4565b91506060850151601f198086850301608087015261156084836111c4565b935060808701519150808685030160a087015261157d84836111c4565b935060a08701519150808685030160c087015261159a84836111c4565b935060c08701519150808685030160e08701526115b784836111c4565b935060e087015191506101008187860301818801526115d685846111c4565b9450808801519250506101208187860301818801526115f585846111c4565b94508088015192505061014081878603018188015261161485846111c4565b9450808801519250505061016061162d818701836111b7565b959095015193019290925250919050565b60006020825261165a6020830161165585546117e3565b6111b7565b61166760018401546117e3565b61167460408401826111b7565b5061018080606084015261168f6101a08401600286016111f0565b601f19808583030160808601526116a982600388016111f0565b9150808583030160a08601526116c282600488016111f0565b9150808583030160c08601526116db82600588016111f0565b9150808583030160e08601526116f482600688016111f0565b9150808583030161010086015261170e82600788016111f0565b9150808583030161012086015261172882600888016111f0565b915080858303016101408601525061174381600987016111f0565b9050611752600a8601546117e3565b6117606101608601826111b7565b50600b94909401549201919091525090565b90815260200190565b60008482526060602083015261179460608301856111c4565b905060018060a01b0383166040830152949350505050565b60009081526020902090565b60008160001904831182151516156117de57634e487b7160e01b81526011600452602481fd5b500290565b6001600160a01b031690565b60005b8381101561180a5781810151838201526020016117f2565b83811115611819576000848401525b50505050565b60028104600182168061183357607f821691505b6020821081141561185457634e487b7160e01b600052602260045260246000fd5b50919050565b634e487b7160e01b600052604160045260246000fd5b6001600160a01b038116811461188557600080fd5b5056fea26469706673582212207d3cbfc1aaef535425118b50a90e88c954221f0275ff106245fdab3fe0f55d2a64736f6c63430008000033600560c09081526439b7b630b960d91b60e0526080908152610140604052600661010090815265656f6c69636160d01b6101205260a052610044906000906002610057565b5034801561005157600080fd5b506101e0565b8280548282559060005260206000209081019282156100a4579160200282015b828111156100a457825180516100949184916020909101906100b4565b5091602001919060010190610077565b506100b0929150610134565b5090565b8280546100c0906101a5565b90600052602060002090601f0160209004810192826100e25760008555610128565b82601f106100fb57805160ff1916838001178555610128565b82800160010185558215610128579182015b8281111561012857825182559160200191906001019061010d565b506100b0929150610151565b808211156100b05760006101488282610166565b50600101610134565b5b808211156100b05760008155600101610152565b508054610172906101a5565b6000825580601f1061018457506101a2565b601f0160209004906000526020600020908101906101a29190610151565b50565b6002810460018216806101b957607f821691505b602082108114156101da57634e487b7160e01b600052602260045260246000fd5b50919050565b6111f4806101ef6000396000f3fe608060405234801561001057600080fd5b50600436106100365760003560e01c8063259e75771461003b5780636d4fe5c714610064575b600080fd5b61004e610049366004610338565b610084565b60405161005b9190610472565b60405180910390f35b6100776100723660046103de565b61024b565b60405161005b9190610486565b6040516388d8da5f60e01b81526000908190819073__StringLibrary_________________________906388d8da5f906100c2908890600401610499565b60206040518083038186803b1580156100da57600080fd5b505af41580156100ee573d6000803e3d6000fd5b505050506040513d601f19601f820116820180604052508101906101129190610311565b156101565783604051610124906102f7565b61012e9190610561565b604051809103906000f08015801561014a573d6000803e3d6000fd5b5091506001905061021d565b6040516388d8da5f60e01b815273__StringLibrary_________________________906388d8da5f9061018d9088906004016104c5565b60206040518083038186803b1580156101a557600080fd5b505af41580156101b9573d6000803e3d6000fd5b505050506040513d601f19601f820116820180604052508101906101dd9190610311565b1561021d57836040516101ef90610304565b6101f99190610581565b604051809103906000f080158015610215573d6000803e3d6000fd5b509150600190505b806102435760405162461bcd60e51b815260040161023a906104e9565b60405180910390fd5b509392505050565b6000818154811061025b57600080fd5b90600052602060002001600091509050805461027690610593565b80601f01602080910402602001604051908101604052809291908181526020018280546102a290610593565b80156102ef5780601f106102c4576101008083540402835291602001916102ef565b820191906000526020600020905b8154815290600101906020018083116102d257829003601f168201915b505050505081565b6105ed806105e583390190565b6105ed80610bd283390190565b600060208284031215610322578081fd5b81518015158114610331578182fd5b9392505050565b6000806040838503121561034a578081fd5b82356001600160401b0380821115610360578283fd5b818501915085601f830112610373578283fd5b8135602082821115610387576103876105ce565b604051601f8301601f19168101820184811182821017156103aa576103aa6105ce565b60405282815284830182018910156103c0578586fd5b82828601838301379182018101949094529694909201359450505050565b6000602082840312156103ef578081fd5b5035919050565b60008151808452815b8181101561041b576020818501810151868301820152016103ff565b8181111561042c5782602083870101525b50601f01601f19169290920160200192915050565b600581526439b7b630b960d91b602082015260400190565b6006815265656f6c69636160d01b602082015260400190565b6001600160a01b0391909116815260200190565b60006020825261033160208301846103f6565b6000604082526104ac60408301846103f6565b82810360208401526104bd81610441565b949350505050565b6000604082526104d860408301846103f6565b82810360208401526104bd81610459565b60208082526052908201527f4e6f20657320756e207469706f20646520656e65726769612076616c69646f2c60408201527f206c6f73207469706f732076616c69646f7320736f6e3a20736f6c61722c20656060820152716f6c696361206f206869647261756c69636160701b608082015260a00190565b60006040825261057360408301610441565b905082602083015292915050565b60006040825261057360408301610459565b6002810460018216806105a757607f821691505b602082108114156105c857634e487b7160e01b600052602260045260246000fd5b50919050565b634e487b7160e01b600052604160045260246000fdfe608060405234801561001057600080fd5b506040516105ed3803806105ed83398101604081905261002f916100e5565b815161004290600090602085019061004c565b5060025550610200565b828054610058906101af565b90600052602060002090601f01602090048101928261007a57600085556100c0565b82601f1061009357805160ff19168380011785556100c0565b828001600101855582156100c0579182015b828111156100c05782518255916020019190600101906100a5565b506100cc9291506100d0565b5090565b5b808211156100cc57600081556001016100d1565b600080604083850312156100f7578182fd5b82516001600160401b038082111561010d578384fd5b818501915085601f830112610120578384fd5b815181811115610132576101326101ea565b6040516020601f8301601f1916820181018481118382101715610157576101576101ea565b604052828252848301810189101561016d578687fd5b8693505b8284101561018e5784840181015182850182015292830192610171565b8284111561019e57868184840101525b969096015195979596505050505050565b6002810460018216806101c357607f821691505b602082108114156101e457634e487b7160e01b600052602260045260246000fd5b50919050565b634e487b7160e01b600052604160045260246000fd5b6103de8061020f6000396000f3fe608060405234801561001057600080fd5b50600436106100785760003560e01c80639be0b8001461007d5780639e66e0f31461009b578063ae4f7a4c146100a3578063b0b6d161146100ab578063bc7b35b2146100c0578063cb86d6e6146100d5578063f5a50589146100dd578063f7ac4af4146100f0575b600080fd5b6100856100f8565b604051610092919061031f565b60405180910390f35b6100856100fe565b610085610104565b6100be6100b93660046102b4565b61010a565b005b6100c8610121565b60405161009291906102cc565b6100c86101af565b6100be6100eb3660046102b4565b610241565b610085610251565b60025490565b60015481565b60025481565b60025460009061011a9083610256565b6002555050565b6000805461012e90610357565b80601f016020809104026020016040519081016040528092919081815260200182805461015a90610357565b80156101a75780601f1061017c576101008083540402835291602001916101a7565b820191906000526020600020905b81548152906001019060200180831161018a57829003601f168201915b505050505081565b6060600080546101be90610357565b80601f01602080910402602001604051908101604052809291908181526020018280546101ea90610357565b80156102375780601f1061020c57610100808354040283529160200191610237565b820191906000526020600020905b81548152906001019060200180831161021a57829003601f168201915b5050505050905090565b60025460009061011a9083610287565b600390565b60008282111561027657634e487b7160e01b600052600160045260246000fd5b6102808284610340565b9392505050565b6000806102948385610328565b90508381101561028057634e487b7160e01b600052600160045260246000fd5b6000602082840312156102c5578081fd5b5035919050565b6000602080835283518082850152825b818110156102f8578581018301518582016040015282016102dc565b818111156103095783604083870101525b50601f01601f1916929092016040019392505050565b90815260200190565b6000821982111561033b5761033b610392565b500190565b60008282101561035257610352610392565b500390565b60028104600182168061036b57607f821691505b6020821081141561038c57634e487b7160e01b600052602260045260246000fd5b50919050565b634e487b7160e01b600052601160045260246000fdfea2646970667358221220ec4fdd8925b9af8bbdb8212b2c1c133371927501989277696b5bc228c61f7cd464736f6c63430008000033608060405234801561001057600080fd5b506040516105ed3803806105ed83398101604081905261002f916100e5565b815161004290600090602085019061004c565b5060025550610200565b828054610058906101af565b90600052602060002090601f01602090048101928261007a57600085556100c0565b82601f1061009357805160ff19168380011785556100c0565b828001600101855582156100c0579182015b828111156100c05782518255916020019190600101906100a5565b506100cc9291506100d0565b5090565b5b808211156100cc57600081556001016100d1565b600080604083850312156100f7578182fd5b82516001600160401b038082111561010d578384fd5b818501915085601f830112610120578384fd5b815181811115610132576101326101ea565b6040516020601f8301601f1916820181018481118382101715610157576101576101ea565b604052828252848301810189101561016d578687fd5b8693505b8284101561018e5784840181015182850182015292830192610171565b8284111561019e57868184840101525b969096015195979596505050505050565b6002810460018216806101c357607f821691505b602082108114156101e457634e487b7160e01b600052602260045260246000fd5b50919050565b634e487b7160e01b600052604160045260246000fd5b6103de8061020f6000396000f3fe608060405234801561001057600080fd5b50600436106100785760003560e01c80639be0b8001461007d5780639e66e0f31461009b578063ae4f7a4c146100a3578063b0b6d161146100ab578063bc7b35b2146100c0578063cb86d6e6146100d5578063f5a50589146100dd578063f7ac4af4146100f0575b600080fd5b6100856100f8565b604051610092919061031f565b60405180910390f35b6100856100fe565b610085610104565b6100be6100b93660046102b4565b61010a565b005b6100c8610121565b60405161009291906102cc565b6100c86101af565b6100be6100eb3660046102b4565b610241565b610085610251565b60025490565b60015481565b60025481565b60025460009061011a9083610256565b6002555050565b6000805461012e90610357565b80601f016020809104026020016040519081016040528092919081815260200182805461015a90610357565b80156101a75780601f1061017c576101008083540402835291602001916101a7565b820191906000526020600020905b81548152906001019060200180831161018a57829003601f168201915b505050505081565b6060600080546101be90610357565b80601f01602080910402602001604051908101604052809291908181526020018280546101ea90610357565b80156102375780601f1061020c57610100808354040283529160200191610237565b820191906000526020600020905b81548152906001019060200180831161021a57829003601f168201915b5050505050905090565b60025460009061011a9083610287565b600290565b60008282111561027657634e487b7160e01b600052600160045260246000fd5b6102808284610340565b9392505050565b6000806102948385610328565b90508381101561028057634e487b7160e01b600052600160045260246000fd5b6000602082840312156102c5578081fd5b5035919050565b6000602080835283518082850152825b818110156102f8578581018301518582016040015282016102dc565b818111156103095783604083870101525b50601f01601f1916929092016040019392505050565b90815260200190565b6000821982111561033b5761033b610392565b500190565b60008282101561035257610352610392565b500390565b60028104600182168061036b57607f821691505b6020821081141561038c57634e487b7160e01b600052602260045260246000fd5b50919050565b634e487b7160e01b600052601160045260246000fdfea26469706673582212209fa3f8a3d7dc290461c285365a2ccb7550c882f55ab168043675370c0f01976664736f6c63430008000033a26469706673582212209c33c0417751f064b6ddd365ee7ead2e7111fd8b75e5fd31174b0073704e7f1a64736f6c63430008000033",
  "immutableReferences": {},
  "source": "// SPDX-License-Identifier: MIT\r\npragma solidity ^0.8.0;\r\npragma experimental ABIEncoderV2;\r\nimport \"./libraries/StringLibrary.sol\";\r\nimport \"./models/TipoEnergia.sol\";\r\nimport \"./TokenErc20/ERC20.sol\";\r\nimport \"./models/TipoEnergiaFactory.sol\";\r\nimport \"./models/InfoContrato.sol\";\r\nimport \"./models/Agente.sol\";\r\nimport \"./Comercializador.sol\";\r\nimport \"./BancoEnergia.sol\";\r\n\r\ncontract Generador is Agente {\r\n    TipoEnergiaFactory private factoryEnergia;\r\n    address private bancoEnergia;\r\n    mapping(string => TipoEnergia) private tiposEnergiasGenerador;\r\n    mapping(address => TipoEnergia) private EnergiasComprador;\r\n    using StringLibrary for string;\r\n\r\n    //Evento de compra de tokens\r\n    event compraEnergia(uint256, string, address);\r\n\r\n    constructor(\r\n        InfoContrato memory _infoContrato,\r\n        address _reguladorMercado,\r\n        address _bancoEnergia\r\n    ) {\r\n        reguladorMercado = _reguladorMercado;\r\n        infoContrato = InfoContrato(\r\n            address(this),\r\n            _infoContrato.owner,\r\n            _infoContrato.nit,\r\n            _infoContrato.empresa,\r\n            _infoContrato.contacto,\r\n            _infoContrato.telefono,\r\n            _infoContrato.correo,\r\n            _infoContrato.departamento,\r\n            _infoContrato.ciudad,\r\n            _infoContrato.direccion,\r\n            nullAddress,\r\n            _infoContrato.tipoComercio\r\n        );\r\n        factoryEnergia = new TipoEnergiaFactory();\r\n        bancoEnergia = _bancoEnergia;\r\n    }\r\n\r\n    function GenerarNuevaEnergia(\r\n        string memory nombreTipoEnergia,\r\n        uint256 _cantidadEnergia\r\n    ) public authorize(msg.sender) {\r\n        tiposEnergiasGenerador[nombreTipoEnergia] = factoryEnergia\r\n            .generarNuevaEnergia(nombreTipoEnergia, _cantidadEnergia);\r\n\r\n        BancoEnergia(bancoEnergia).onCantidadEnergiaChange(\r\n            nombreTipoEnergia,\r\n            _cantidadEnergia,\r\n            Operacion.adicionar\r\n        );\r\n    }\r\n\r\n    function InyectarEnergia(\r\n        string memory nombreTipoEnergia,\r\n        uint256 _cantidadEnergia\r\n    ) public authorize(msg.sender) {\r\n        require(\r\n            address(tiposEnergiasGenerador[nombreTipoEnergia]) !=\r\n                Validations.nullAddress,\r\n            \"El tipo de energia no existe\"\r\n        );\r\n        tiposEnergiasGenerador[nombreTipoEnergia].addCantidadEnergia(\r\n            _cantidadEnergia\r\n        );\r\n        BancoEnergia(bancoEnergia).onCantidadEnergiaChange(\r\n            nombreTipoEnergia,\r\n            _cantidadEnergia,\r\n            Operacion.adicionar\r\n        );\r\n    }\r\n\r\n    //_dirOwnerContrato, direccion del owner del cliente\r\n    function ComprarEnergia(\r\n        uint256 cantidadEnergia,\r\n        string memory tipoEnergia,\r\n        address _dirOwnerContrato\r\n    ) public {\r\n        //Verificar que el tipo de energia exista\r\n        address dirTipoEnergia = address(tiposEnergiasGenerador[tipoEnergia]);\r\n        require(\r\n            dirTipoEnergia != nullAddress,\r\n            \"El tipo de energia, no se encuentra dentro del catalogo\"\r\n        );\r\n\r\n        //Comprobar que la cantiadad de energia solicitada no supere la producida\r\n        uint256 cantidadEnergiaDisponible = tiposEnergiasGenerador[tipoEnergia]\r\n            .getCantidadEnergia();\r\n        require(\r\n            cantidadEnergiaDisponible >= cantidadEnergia,\r\n            \"No puede comprar mas energia de la disponible\"\r\n        );\r\n\r\n        //Caluclar el coste de la energia\r\n        uint256 costeEnergia = cantidadEnergia *\r\n            tiposEnergiasGenerador[tipoEnergia].calcularPrecio();\r\n        //Verficar que el comprador cuente con fondos suficientes\r\n        require(\r\n            costeEnergia <=\r\n                ReguladorMercado(reguladorMercado).MisTokens(_dirOwnerContrato),\r\n            \"No tienes tokens suficientes\"\r\n        );\r\n\r\n        //Transferencia de los tokens al owner del contrato\r\n        ReguladorMercado(reguladorMercado).IntercambiarTokens(\r\n            _dirOwnerContrato,\r\n            infoContrato.owner,\r\n            msg.sender,\r\n            costeEnergia\r\n        );\r\n\r\n        //Descontar la energia disponible\r\n        tiposEnergiasGenerador[tipoEnergia].restarCantidadEnergia(\r\n            cantidadEnergia\r\n        );\r\n        BancoEnergia(bancoEnergia).onCantidadEnergiaChange(\r\n            tipoEnergia,\r\n            cantidadEnergia,\r\n            Operacion.restar\r\n        );\r\n        EnergiasComprador[_dirOwnerContrato] = tiposEnergiasGenerador[\r\n            tipoEnergia\r\n        ];\r\n        emit compraEnergia(cantidadEnergia, tipoEnergia, _dirOwnerContrato);\r\n    }\r\n\r\n    function getTipoEnergia(string memory _tipoEnergia)\r\n        public\r\n        view\r\n        returns (TipoEnergia)\r\n    {\r\n        return tiposEnergiasGenerador[_tipoEnergia];\r\n    }\r\n\r\n    function getCantidadEnergia(string memory _tipoEnergia)\r\n        public\r\n        view\r\n        returns (uint256)\r\n    {\r\n        return tiposEnergiasGenerador[_tipoEnergia].getCantidadEnergia();\r\n    }\r\n\r\n    function getEnergiaComprador(address _dirOwnerContrato)\r\n        public\r\n        view\r\n        returns (TipoEnergia)\r\n    {\r\n        return EnergiasComprador[_dirOwnerContrato];\r\n    }\r\n\r\n    function contratarComercializador(address _contratoComercializador)\r\n        public\r\n        authorize(msg.sender)\r\n    {\r\n        uint256 tipoComercializador = Comercializador(_contratoComercializador)\r\n            .getTipoContrato();\r\n        require(\r\n            tipoComercializador == 1,\r\n            \"El comercializador debe ser de tipo Generador\"\r\n        );\r\n        infoContrato.comercializador = _contratoComercializador;\r\n        Comercializador(_contratoComercializador).setClientesComercializador(\r\n            infoContrato\r\n        );\r\n    }\r\n}\r\n",
  "sourcePath": "D:\\Santiago\\BlockChain\\DemoMvmTruffle\\contracts\\Generador.sol",
  "compiler": {
    "name": "solc",
    "version": "0.8.0+commit.c7dfd78e.Emscripten.clang"
  },
  "schemaVersion": "3.4.4",
  "updatedAt": "2022-07-25T12:40:31.602Z",
  "devdoc": {
    "kind": "dev",
    "methods": {},
    "version": 1
  },
  "userdoc": {
    "kind": "user",
    "methods": {},
    "version": 1
  }
}