{
  "contractName": "Generador",
  "abi": [
    {
      "inputs": [
        {
          "internalType": "string",
          "name": "_name",
          "type": "string"
        },
        {
          "internalType": "address",
          "name": "_direccion",
          "type": "address"
        },
        {
          "internalType": "address",
          "name": "_reguladorMercado",
          "type": "address"
        }
      ],
      "stateMutability": "nonpayable",
      "type": "constructor"
    },
    {
      "anonymous": false,
      "inputs": [
        {
          "indexed": false,
          "internalType": "uint256",
          "name": "",
          "type": "uint256"
        },
        {
          "indexed": false,
          "internalType": "string",
          "name": "",
          "type": "string"
        },
        {
          "indexed": false,
          "internalType": "address",
          "name": "",
          "type": "address"
        }
      ],
      "name": "compraEnergia",
      "type": "event"
    },
    {
      "inputs": [
        {
          "internalType": "uint256",
          "name": "numeroTokens",
          "type": "uint256"
        }
      ],
      "name": "DevolverTokens",
      "outputs": [],
      "stateMutability": "payable",
      "type": "function"
    },
    {
      "inputs": [],
      "name": "MisTokens",
      "outputs": [
        {
          "internalType": "uint256",
          "name": "",
          "type": "uint256"
        }
      ],
      "stateMutability": "view",
      "type": "function"
    },
    {
      "inputs": [
        {
          "internalType": "uint256",
          "name": "cantidad",
          "type": "uint256"
        }
      ],
      "name": "comprarTokens",
      "outputs": [],
      "stateMutability": "payable",
      "type": "function"
    },
    {
      "inputs": [],
      "name": "dirContrato",
      "outputs": [
        {
          "internalType": "address",
          "name": "",
          "type": "address"
        }
      ],
      "stateMutability": "view",
      "type": "function"
    },
    {
      "inputs": [],
      "name": "getBalanceContract",
      "outputs": [
        {
          "internalType": "uint256",
          "name": "",
          "type": "uint256"
        }
      ],
      "stateMutability": "view",
      "type": "function"
    },
    {
      "inputs": [],
      "name": "name",
      "outputs": [
        {
          "internalType": "string",
          "name": "",
          "type": "string"
        }
      ],
      "stateMutability": "view",
      "type": "function"
    },
    {
      "inputs": [],
      "name": "nullAddress",
      "outputs": [
        {
          "internalType": "address",
          "name": "",
          "type": "address"
        }
      ],
      "stateMutability": "view",
      "type": "function"
    },
    {
      "inputs": [],
      "name": "owner",
      "outputs": [
        {
          "internalType": "address",
          "name": "",
          "type": "address"
        }
      ],
      "stateMutability": "view",
      "type": "function"
    },
    {
      "inputs": [],
      "name": "reguladorMercado",
      "outputs": [
        {
          "internalType": "address",
          "name": "",
          "type": "address"
        }
      ],
      "stateMutability": "view",
      "type": "function"
    },
    {
      "inputs": [
        {
          "internalType": "string",
          "name": "nombreTipoEnergia",
          "type": "string"
        },
        {
          "internalType": "uint256",
          "name": "_cantidadEnergia",
          "type": "uint256"
        }
      ],
      "name": "GenerarNuevaEnergia",
      "outputs": [],
      "stateMutability": "nonpayable",
      "type": "function"
    },
    {
      "inputs": [
        {
          "internalType": "uint256",
          "name": "cantidadEnergia",
          "type": "uint256"
        },
        {
          "internalType": "string",
          "name": "tipoEnergia",
          "type": "string"
        },
        {
          "internalType": "address",
          "name": "_dirOwnerContrato",
          "type": "address"
        }
      ],
      "name": "ComprarEnergia",
      "outputs": [],
      "stateMutability": "nonpayable",
      "type": "function"
    },
    {
      "inputs": [
        {
          "internalType": "string",
          "name": "_tipoEnergia",
          "type": "string"
        }
      ],
      "name": "getTipoEnergia",
      "outputs": [
        {
          "internalType": "contract TipoEnergia",
          "name": "",
          "type": "address"
        }
      ],
      "stateMutability": "view",
      "type": "function"
    },
    {
      "inputs": [
        {
          "internalType": "string",
          "name": "_tipoEnergia",
          "type": "string"
        }
      ],
      "name": "getCantidadEnergia",
      "outputs": [
        {
          "internalType": "uint256",
          "name": "",
          "type": "uint256"
        }
      ],
      "stateMutability": "view",
      "type": "function"
    },
    {
      "inputs": [
        {
          "internalType": "address",
          "name": "_dirOwnerContrato",
          "type": "address"
        }
      ],
      "name": "getEnergiaComprador",
      "outputs": [
        {
          "internalType": "contract TipoEnergia",
          "name": "",
          "type": "address"
        }
      ],
      "stateMutability": "view",
      "type": "function"
    }
  ],
  "bytecode": "0x6080604052600380546001600160a01b03191690553480156200002157600080fd5b50604051620029a9380380620029a98339810160408190526200004491620001bb565b825162000059906005906020860190620000ea565b50600180546001600160a01b038085166001600160a01b031992831617909255600280548216301790556000805492841692909116919091179055604051620000a29062000179565b604051809103906000f080158015620000bf573d6000803e3d6000fd5b50600480546001600160a01b0319166001600160a01b03929092169190911790555062000304915050565b828054620000f890620002b1565b90600052602060002090601f0160209004810192826200011c576000855562000167565b82601f106200013757805160ff191683800117855562000167565b8280016001018555821562000167579182015b82811115620001675782518255916020019190600101906200014a565b506200017592915062000187565b5090565b61160980620013a083390190565b5b8082111562000175576000815560010162000188565b80516001600160a01b0381168114620001b657600080fd5b919050565b600080600060608486031215620001d0578283fd5b83516001600160401b0380821115620001e7578485fd5b818601915086601f830112620001fb578485fd5b815181811115620002105762000210620002ee565b6040516020601f8301601f1916820181018481118382101715620002385762000238620002ee565b60405282825284830181018a10156200024f578788fd5b8793505b8284101562000272578484018101518285018201529283019262000253565b828411156200028357878184840101525b81975062000293818a016200019e565b96505050505050620002a8604085016200019e565b90509250925092565b600281046001821680620002c657607f821691505b60208210811415620002e857634e487b7160e01b600052602260045260246000fd5b50919050565b634e487b7160e01b600052604160045260246000fd5b61108c80620003146000396000f3fe6080604052600436106100dd5760003560e01c80637eb5a6881161007f578063a3a6883e11610059578063a3a6883e146101f8578063cfa5784914610218578063e33f34a014610238578063fcbe8eb11461024d576100dd565b80637eb5a688146101b9578063856788df146101ce5780638da5cb5b146101e3576100dd565b80631afd64e2116100bb5780631afd64e21461014f578063551edf90146101625780635a3e349d1461017757806366bd78fd14610197576100dd565b806306fdde03146100e2578063158e62a31461010d5780631890154c1461013a575b600080fd5b3480156100ee57600080fd5b506100f761026d565b6040516101049190610d94565b60405180910390f35b34801561011957600080fd5b5061012d610128366004610c0d565b6102fb565b6040516101049190610d5c565b61014d610148366004610c8b565b61032d565b005b61014d61015d366004610c8b565b61043d565b34801561016e57600080fd5b5061012d610520565b34801561018357600080fd5b5061014d610192366004610c48565b61052f565b3480156101a357600080fd5b506101ac610622565b6040516101049190610f26565b3480156101c557600080fd5b5061012d610626565b3480156101da57600080fd5b5061012d610635565b3480156101ef57600080fd5b5061012d610644565b34801561020457600080fd5b506101ac610213366004610c0d565b610653565b34801561022457600080fd5b5061014d610233366004610cbb565b6106ec565b34801561024457600080fd5b506101ac610aa9565b34801561025957600080fd5b5061012d610268366004610bce565b610b2f565b6005805461027a90610fed565b80601f01602080910402602001604051908101604052809291908181526020018280546102a690610fed565b80156102f35780601f106102c8576101008083540402835291602001916102f3565b820191906000526020600020905b8154815290600101906020018083116102d657829003601f168201915b505050505081565b600060068260405161030d9190610d40565b908152604051908190036020019020546001600160a01b03169050919050565b60015433906001600160a01b031681146103625760405162461bcd60e51b815260040161035990610e8b565b60405180910390fd5b6000805460405163649513c560e11b81526001600160a01b039091169063c92a278a906103959086903390600401610f2f565b602060405180830381600087803b1580156103af57600080fd5b505af11580156103c3573d6000803e3d6000fd5b505050506040513d601f19601f820116820180604052508101906103e79190610ca3565b9050600147101561040a5760405162461bcd60e51b815260040161035990610dc9565b604051339082156108fc029083906000818181858888f19350505050158015610437573d6000803e3d6000fd5b50505050565b60015433906001600160a01b031681146104695760405162461bcd60e51b815260040161035990610e8b565b600080546040516311ac8a5b60e21b81526001600160a01b03909116906346b2296c9061049e90349087903390600401610f77565b602060405180830381600087803b1580156104b857600080fd5b505af11580156104cc573d6000803e3d6000fd5b505050506040513d601f19601f820116820180604052508101906104f09190610ca3565b604051909150339082156108fc029083906000818181858888f19350505050158015610437573d6000803e3d6000fd5b6003546001600160a01b031681565b60015433906001600160a01b0316811461055b5760405162461bcd60e51b815260040161035990610e8b565b6004805460405163259e757760e01b81526001600160a01b039091169163259e75779161058c918791879101610da7565b602060405180830381600087803b1580156105a657600080fd5b505af11580156105ba573d6000803e3d6000fd5b505050506040513d601f19601f820116820180604052508101906105de9190610bf1565b6006846040516105ee9190610d40565b90815260405190819003602001902080546001600160a01b03929092166001600160a01b0319909216919091179055505050565b4790565b6000546001600160a01b031681565b6002546001600160a01b031681565b6001546001600160a01b031681565b60006006826040516106659190610d40565b90815260408051602092819003830181205462137c1760eb1b825291516001600160a01b0390921692639be0b80092600480840193829003018186803b1580156106ae57600080fd5b505afa1580156106c2573d6000803e3d6000fd5b505050506040513d601f19601f820116820180604052508101906106e69190610ca3565b92915050565b60006006836040516106fe9190610d40565b908152604051908190036020019020546003546001600160a01b0391821692501681141561073e5760405162461bcd60e51b815260040161035990610e2e565b60006006846040516107509190610d40565b90815260408051602092819003830181205462137c1760eb1b825291516001600160a01b0390921692639be0b80092600480840193829003018186803b15801561079957600080fd5b505afa1580156107ad573d6000803e3d6000fd5b505050506040513d601f19601f820116820180604052508101906107d19190610ca3565b9050848110156107f35760405162461bcd60e51b815260040161035990610ed9565b60006006856040516108059190610d40565b908152604080516020928190038301812054633deb12bd60e21b825291516001600160a01b039092169263f7ac4af492600480840193829003018186803b15801561084f57600080fd5b505afa158015610863573d6000803e3d6000fd5b505050506040513d601f19601f820116820180604052508101906108879190610ca3565b6108919087610f96565b600054604051630e03c03b60e01b81529192506001600160a01b031690630e03c03b906108c2908790600401610d5c565b60206040518083038186803b1580156108da57600080fd5b505afa1580156108ee573d6000803e3d6000fd5b505050506040513d601f19601f820116820180604052508101906109129190610ca3565b8111156109315760405162461bcd60e51b815260040161035990610df7565b60005460015460405163013e8a2560e41b81526001600160a01b03928316926313e8a2509261096a928992909116908690600401610d70565b600060405180830381600087803b15801561098457600080fd5b505af1158015610998573d6000803e3d6000fd5b505050506006856040516109ac9190610d40565b9081526040519081900360200181205463b0b6d16160e01b82526001600160a01b03169063b0b6d161906109e4908990600401610f26565b600060405180830381600087803b1580156109fe57600080fd5b505af1158015610a12573d6000803e3d6000fd5b50505050600685604051610a269190610d40565b908152604080519182900360209081018320546001600160a01b03888116600090815260079093529290912080546001600160a01b031916929091169190911790557f63a6215c2d4b06bd0b74656dbfc6eb1fc9aa6029fbb18ebb4243d524217c672a90610a9990889088908890610f46565b60405180910390a1505050505050565b60008054604051630e03c03b60e01b81526001600160a01b0390911690630e03c03b90610ada903390600401610d5c565b60206040518083038186803b158015610af257600080fd5b505afa158015610b06573d6000803e3d6000fd5b505050506040513d601f19601f82011682018060405250810190610b2a9190610ca3565b905090565b6001600160a01b039081166000908152600760205260409020541690565b600082601f830112610b5d578081fd5b813567ffffffffffffffff80821115610b7857610b78611028565b604051601f8301601f191681016020018281118282101715610b9c57610b9c611028565b604052828152848301602001861015610bb3578384fd5b82602086016020830137918201602001929092529392505050565b600060208284031215610bdf578081fd5b8135610bea8161103e565b9392505050565b600060208284031215610c02578081fd5b8151610bea8161103e565b600060208284031215610c1e578081fd5b813567ffffffffffffffff811115610c34578182fd5b610c4084828501610b4d565b949350505050565b60008060408385031215610c5a578081fd5b823567ffffffffffffffff811115610c70578182fd5b610c7c85828601610b4d565b95602094909401359450505050565b600060208284031215610c9c578081fd5b5035919050565b600060208284031215610cb4578081fd5b5051919050565b600080600060608486031215610ccf578081fd5b83359250602084013567ffffffffffffffff811115610cec578182fd5b610cf886828701610b4d565b9250506040840135610d098161103e565b809150509250925092565b60008151808452610d2c816020860160208601610fc1565b601f01601f19169290920160200192915050565b60008251610d52818460208701610fc1565b9190910192915050565b6001600160a01b0391909116815260200190565b6001600160a01b039384168152919092166020820152604081019190915260600190565b600060208252610bea6020830184610d14565b600060408252610dba6040830185610d14565b90508260208301529392505050565b60208082526014908201527310dbdb9d1c9858dd081d5b99195c999d5b99195960621b604082015260600190565b6020808252601c908201527f4e6f207469656e657320746f6b656e7320737566696369656e74657300000000604082015260600190565b60208082526037908201527f456c207469706f20646520656e65726769612c206e6f20736520656e6375656e60408201527f7472612064656e74726f2064656c20636174616c6f676f000000000000000000606082015260800190565b6020808252602e908201527f4e6f207469656e65207065726d69736f73207061726120656a6563757461722060408201526d3630903a3930b739b0b1b1b4b7b760911b606082015260800190565b6020808252602d908201527f4e6f20707565646520636f6d70726172206d617320656e65726769612064652060408201526c6c6120646973706f6e69626c6560981b606082015260800190565b90815260200190565b9182526001600160a01b0316602082015260400190565b600084825260606020830152610f5f6060830185610d14565b905060018060a01b0383166040830152949350505050565b92835260208301919091526001600160a01b0316604082015260600190565b6000816000190483118215151615610fbc57634e487b7160e01b81526011600452602481fd5b500290565b60005b83811015610fdc578181015183820152602001610fc4565b838111156104375750506000910152565b60028104600182168061100157607f821691505b6020821081141561102257634e487b7160e01b600052602260045260246000fd5b50919050565b634e487b7160e01b600052604160045260246000fd5b6001600160a01b038116811461105357600080fd5b5056fea26469706673582212207fc91859d5b5447f48cc9aeb9b66f9b70b951dcf5c821bc1799c98d18ce4499264736f6c63430008000033608060405234801561001057600080fd5b506115e9806100206000396000f3fe608060405234801561001057600080fd5b506004361061002b5760003560e01c8063259e757714610030575b600080fd5b61004361003e366004610311565b610059565b6040516100509190610451565b60405180910390f35b6040516388d8da5f60e01b81526000908190819073__StringLibrary_________________________906388d8da5f90610097908890600401610465565b60206040518083038186803b1580156100af57600080fd5b505af41580156100c3573d6000803e3d6000fd5b505050506040513d601f19601f820116820180604052508101906100e791906102ea565b1561012b57836040516100f9906102c3565b6101039190610551565b604051809103906000f08015801561011f573d6000803e3d6000fd5b50915060019050610295565b6040516388d8da5f60e01b815273__StringLibrary_________________________906388d8da5f90610162908890600401610491565b60206040518083038186803b15801561017a57600080fd5b505af415801561018e573d6000803e3d6000fd5b505050506040513d601f19601f820116820180604052508101906101b291906102ea565b156101ce57836040516101c4906102d0565b6101039190610571565b6040516388d8da5f60e01b815273__StringLibrary_________________________906388d8da5f906102059088906004016104b5565b60206040518083038186803b15801561021d57600080fd5b505af4158015610231573d6000803e3d6000fd5b505050506040513d601f19601f8201168201806040525081019061025591906102ea565b156102955783604051610267906102dd565b6102719190610583565b604051809103906000f08015801561028d573d6000803e3d6000fd5b509150600190505b806102bb5760405162461bcd60e51b81526004016102b2906104d9565b60405180910390fd5b509392505050565b610558806105ac83390190565b61055880610b0483390190565b6105588061105c83390190565b6000602082840312156102fb578081fd5b8151801515811461030a578182fd5b9392505050565b60008060408385031215610323578081fd5b823567ffffffffffffffff8082111561033a578283fd5b818501915085601f83011261034d578283fd5b813560208282111561036157610361610595565b604051601f8301601f191681018201848111828210171561038457610384610595565b604052828152848301820189101561039a578586fd5b82828601838301379182018101949094529694909201359450505050565b60008151808452815b818110156103dd576020818501810151868301820152016103c1565b818111156103ee5782602083870101525b50601f01601f19169290920160200192915050565b600581526439b7b630b960d91b602082015260400190565b6006815265656f6c69636160d01b602082015260400190565b600a8152696869647261756c69636160b01b602082015260400190565b6001600160a01b0391909116815260200190565b60006040825261047860408301846103b8565b828103602084015261048981610403565b949350505050565b6000604082526104a460408301846103b8565b82810360208401526104898161041b565b6000604082526104c860408301846103b8565b828103602084015261048981610434565b60208082526052908201527f4e6f20657320756e207469706f20646520656e65726769612076616c69646f2c60408201527f206c6f73207469706f732076616c69646f7320736f6e3a20736f6c61722c20656060820152716f6c696361206f206869647261756c69636160701b608082015260a00190565b60006040825261056360408301610403565b905082602083015292915050565b6000604082526105636040830161041b565b60006040825261056360408301610434565b634e487b7160e01b600052604160045260246000fdfe608060405234801561001057600080fd5b5060405161055838038061055883398101604081905261002f916100e5565b815161004290600090602085019061004c565b5060025550610200565b828054610058906101af565b90600052602060002090601f01602090048101928261007a57600085556100c0565b82601f1061009357805160ff19168380011785556100c0565b828001600101855582156100c0579182015b828111156100c05782518255916020019190600101906100a5565b506100cc9291506100d0565b5090565b5b808211156100cc57600081556001016100d1565b600080604083850312156100f7578182fd5b82516001600160401b038082111561010d578384fd5b818501915085601f830112610120578384fd5b815181811115610132576101326101ea565b6040516020601f8301601f1916820181018481118382101715610157576101576101ea565b604052828252848301810189101561016d578687fd5b8693505b8284101561018e5784840181015182850182015292830192610171565b8284111561019e57868184840101525b969096015195979596505050505050565b6002810460018216806101c357607f821691505b602082108114156101e457634e487b7160e01b600052602260045260246000fd5b50919050565b634e487b7160e01b600052604160045260246000fd5b6103498061020f6000396000f3fe608060405234801561001057600080fd5b506004361061007d5760003560e01c8063b0b6d1611161005b578063b0b6d161146100b0578063bc7b35b2146100c5578063f5a50589146100da578063f7ac4af4146100ed5761007d565b80639be0b800146100825780639e66e0f3146100a0578063ae4f7a4c146100a8575b600080fd5b61008a6100f5565b604051610097919061028a565b60405180910390f35b61008a6100fb565b61008a610101565b6100c36100be36600461021f565b610107565b005b6100cd61011e565b6040516100979190610237565b6100c36100e836600461021f565b6101ac565b61008a6101bc565b60025490565b60015481565b60025481565b60025460009061011790836101c1565b6002555050565b6000805461012b906102c2565b80601f0160208091040260200160405190810160405280929190818152602001828054610157906102c2565b80156101a45780601f10610179576101008083540402835291602001916101a4565b820191906000526020600020905b81548152906001019060200180831161018757829003601f168201915b505050505081565b60025460009061011790836101f2565b600390565b6000828211156101e157634e487b7160e01b600052600160045260246000fd5b6101eb82846102ab565b9392505050565b6000806101ff8385610293565b9050838110156101eb57634e487b7160e01b600052600160045260246000fd5b600060208284031215610230578081fd5b5035919050565b6000602080835283518082850152825b8181101561026357858101830151858201604001528201610247565b818111156102745783604083870101525b50601f01601f1916929092016040019392505050565b90815260200190565b600082198211156102a6576102a66102fd565b500190565b6000828210156102bd576102bd6102fd565b500390565b6002810460018216806102d657607f821691505b602082108114156102f757634e487b7160e01b600052602260045260246000fd5b50919050565b634e487b7160e01b600052601160045260246000fdfea26469706673582212206f0bca8a54f493d65ee7c9f63334f200db54562b0acf646132ca247f199b5b5464736f6c63430008000033608060405234801561001057600080fd5b5060405161055838038061055883398101604081905261002f916100e5565b815161004290600090602085019061004c565b5060025550610200565b828054610058906101af565b90600052602060002090601f01602090048101928261007a57600085556100c0565b82601f1061009357805160ff19168380011785556100c0565b828001600101855582156100c0579182015b828111156100c05782518255916020019190600101906100a5565b506100cc9291506100d0565b5090565b5b808211156100cc57600081556001016100d1565b600080604083850312156100f7578182fd5b82516001600160401b038082111561010d578384fd5b818501915085601f830112610120578384fd5b815181811115610132576101326101ea565b6040516020601f8301601f1916820181018481118382101715610157576101576101ea565b604052828252848301810189101561016d578687fd5b8693505b8284101561018e5784840181015182850182015292830192610171565b8284111561019e57868184840101525b969096015195979596505050505050565b6002810460018216806101c357607f821691505b602082108114156101e457634e487b7160e01b600052602260045260246000fd5b50919050565b634e487b7160e01b600052604160045260246000fd5b6103498061020f6000396000f3fe608060405234801561001057600080fd5b506004361061007d5760003560e01c8063b0b6d1611161005b578063b0b6d161146100b0578063bc7b35b2146100c5578063f5a50589146100da578063f7ac4af4146100ed5761007d565b80639be0b800146100825780639e66e0f3146100a0578063ae4f7a4c146100a8575b600080fd5b61008a6100f5565b604051610097919061028a565b60405180910390f35b61008a6100fb565b61008a610101565b6100c36100be36600461021f565b610107565b005b6100cd61011e565b6040516100979190610237565b6100c36100e836600461021f565b6101ac565b61008a6101bc565b60025490565b60015481565b60025481565b60025460009061011790836101c1565b6002555050565b6000805461012b906102c2565b80601f0160208091040260200160405190810160405280929190818152602001828054610157906102c2565b80156101a45780601f10610179576101008083540402835291602001916101a4565b820191906000526020600020905b81548152906001019060200180831161018757829003601f168201915b505050505081565b60025460009061011790836101f2565b600290565b6000828211156101e157634e487b7160e01b600052600160045260246000fd5b6101eb82846102ab565b9392505050565b6000806101ff8385610293565b9050838110156101eb57634e487b7160e01b600052600160045260246000fd5b600060208284031215610230578081fd5b5035919050565b6000602080835283518082850152825b8181101561026357858101830151858201604001528201610247565b818111156102745783604083870101525b50601f01601f1916929092016040019392505050565b90815260200190565b600082198211156102a6576102a66102fd565b500190565b6000828210156102bd576102bd6102fd565b500390565b6002810460018216806102d657607f821691505b602082108114156102f757634e487b7160e01b600052602260045260246000fd5b50919050565b634e487b7160e01b600052601160045260246000fdfea26469706673582212203b7db8b46cca9ce8e3ed4f5a492840dee56d945d4203dd5ce6fd1b80b84e973b64736f6c63430008000033608060405234801561001057600080fd5b5060405161055838038061055883398101604081905261002f916100e5565b815161004290600090602085019061004c565b5060025550610200565b828054610058906101af565b90600052602060002090601f01602090048101928261007a57600085556100c0565b82601f1061009357805160ff19168380011785556100c0565b828001600101855582156100c0579182015b828111156100c05782518255916020019190600101906100a5565b506100cc9291506100d0565b5090565b5b808211156100cc57600081556001016100d1565b600080604083850312156100f7578182fd5b82516001600160401b038082111561010d578384fd5b818501915085601f830112610120578384fd5b815181811115610132576101326101ea565b6040516020601f8301601f1916820181018481118382101715610157576101576101ea565b604052828252848301810189101561016d578687fd5b8693505b8284101561018e5784840181015182850182015292830192610171565b8284111561019e57868184840101525b969096015195979596505050505050565b6002810460018216806101c357607f821691505b602082108114156101e457634e487b7160e01b600052602260045260246000fd5b50919050565b634e487b7160e01b600052604160045260246000fd5b6103498061020f6000396000f3fe608060405234801561001057600080fd5b506004361061007d5760003560e01c8063b0b6d1611161005b578063b0b6d161146100b0578063bc7b35b2146100c5578063f5a50589146100da578063f7ac4af4146100ed5761007d565b80639be0b800146100825780639e66e0f3146100a0578063ae4f7a4c146100a8575b600080fd5b61008a6100f5565b604051610097919061028a565b60405180910390f35b61008a6100fb565b61008a610101565b6100c36100be36600461021f565b610107565b005b6100cd61011e565b6040516100979190610237565b6100c36100e836600461021f565b6101ac565b61008a6101bc565b60025490565b60015481565b60025481565b60025460009061011790836101c1565b6002555050565b6000805461012b906102c2565b80601f0160208091040260200160405190810160405280929190818152602001828054610157906102c2565b80156101a45780601f10610179576101008083540402835291602001916101a4565b820191906000526020600020905b81548152906001019060200180831161018757829003601f168201915b505050505081565b60025460009061011790836101f2565b600190565b6000828211156101e157634e487b7160e01b600052600160045260246000fd5b6101eb82846102ab565b9392505050565b6000806101ff8385610293565b9050838110156101eb57634e487b7160e01b600052600160045260246000fd5b600060208284031215610230578081fd5b5035919050565b6000602080835283518082850152825b8181101561026357858101830151858201604001528201610247565b818111156102745783604083870101525b50601f01601f1916929092016040019392505050565b90815260200190565b600082198211156102a6576102a66102fd565b500190565b6000828210156102bd576102bd6102fd565b500390565b6002810460018216806102d657607f821691505b602082108114156102f757634e487b7160e01b600052602260045260246000fd5b50919050565b634e487b7160e01b600052601160045260246000fdfea2646970667358221220e51303f656df638c9f04b6d1dec7b0b19beae6d0429f63d9cb96a39a22bd13b264736f6c63430008000033a2646970667358221220487a2330314cd049dfeb5814b34ba137159df85870da92ab3702e666a8e5859b64736f6c63430008000033",
  "immutableReferences": {},
  "source": "// SPDX-License-Identifier: MIT\r\npragma solidity ^0.8.0;\r\npragma experimental ABIEncoderV2;\r\nimport \"./libraries/StringLibrary.sol\";\r\nimport \"./models/TipoEnergia.sol\";\r\nimport \"./TokenErc20/ERC20.sol\";\r\nimport \"./ReguladorMercado.sol\";\r\nimport \"./models/TipoEnergiaFactory.sol\";\r\nimport \"./models/Agente.sol\";\r\n\r\ncontract Generador is Agente {\r\n    TipoEnergiaFactory private factoryEnergia;\r\n    string public name;\r\n    mapping(string => TipoEnergia) private tiposEnergiasGenerador;\r\n    mapping(address => TipoEnergia) private EnergiasComprador;\r\n    using StringLibrary for string;\r\n\r\n    //Evento de compra de tokens\r\n    event compraEnergia(uint256, string, address);\r\n\r\n    constructor(\r\n        string memory _name,\r\n        address _direccion,\r\n        address _reguladorMercado\r\n    ) {\r\n        name = _name;\r\n        owner = _direccion;\r\n        dirContrato = address(this);\r\n        reguladorMercado = _reguladorMercado;\r\n        factoryEnergia = new TipoEnergiaFactory();\r\n    }\r\n\r\n    function GenerarNuevaEnergia(\r\n        string memory nombreTipoEnergia,\r\n        uint256 _cantidadEnergia\r\n    ) public authorize(msg.sender) {\r\n        tiposEnergiasGenerador[nombreTipoEnergia] = factoryEnergia\r\n            .generarNuevaEnergia(nombreTipoEnergia, _cantidadEnergia);\r\n    }\r\n\r\n    //_dirOwnerContrato, direccion del owner del cliente\r\n    function ComprarEnergia(\r\n        uint256 cantidadEnergia,\r\n        string memory tipoEnergia,\r\n        address _dirOwnerContrato\r\n    ) public {\r\n        //Verificar que el tipo de energia exista\r\n        address dirTipoEnergia = address(tiposEnergiasGenerador[tipoEnergia]);\r\n        require(\r\n            dirTipoEnergia != nullAddress,\r\n            \"El tipo de energia, no se encuentra dentro del catalogo\"\r\n        );\r\n\r\n        //Comprobar que la cantiadad de energia solicitada no supere la producida\r\n        uint256 cantidadEnergiaDisponible = tiposEnergiasGenerador[tipoEnergia]\r\n            .getCantidadEnergia();\r\n        require(\r\n            cantidadEnergiaDisponible >= cantidadEnergia,\r\n            \"No puede comprar mas energia de la disponible\"\r\n        );\r\n\r\n        //Caluclar el coste de la energia\r\n        uint256 costeEnergia = cantidadEnergia *\r\n            tiposEnergiasGenerador[tipoEnergia].calcularPrecio();\r\n        //Verficar que el comprador cuente con fondos suficientes\r\n        require(\r\n            costeEnergia <=\r\n                ReguladorMercado(reguladorMercado).MisTokens(_dirOwnerContrato),\r\n            \"No tienes tokens suficientes\"\r\n        );\r\n\r\n        //Transferencia de los tokens al owner del contrato\r\n        ReguladorMercado(reguladorMercado).IntercambiarTokens(\r\n            _dirOwnerContrato,\r\n            owner,\r\n            costeEnergia\r\n        );\r\n\r\n        //Descontar la energia disponible\r\n        tiposEnergiasGenerador[tipoEnergia].restarCantidadEnergia(\r\n            cantidadEnergia\r\n        );\r\n        EnergiasComprador[_dirOwnerContrato] = tiposEnergiasGenerador[\r\n            tipoEnergia\r\n        ];\r\n        emit compraEnergia(cantidadEnergia, tipoEnergia, _dirOwnerContrato);\r\n    }\r\n\r\n    function getTipoEnergia(string memory _tipoEnergia)\r\n        public\r\n        view\r\n        returns (TipoEnergia)\r\n    {\r\n        return tiposEnergiasGenerador[_tipoEnergia];\r\n    }\r\n\r\n    function getCantidadEnergia(string memory _tipoEnergia)\r\n        public\r\n        view\r\n        returns (uint256)\r\n    {\r\n        return tiposEnergiasGenerador[_tipoEnergia].getCantidadEnergia();\r\n    }\r\n\r\n    function getEnergiaComprador(address _dirOwnerContrato)\r\n        public\r\n        view\r\n        returns (TipoEnergia)\r\n    {\r\n        return EnergiasComprador[_dirOwnerContrato];\r\n    }\r\n}\r\n",
  "sourcePath": "C:\\Users\\alejandro.perez\\Desktop\\DemoMvmTruffle\\contracts\\Generador.sol",
  "compiler": {
    "name": "solc",
    "version": "0.8.0+commit.c7dfd78e.Emscripten.clang"
  },
  "schemaVersion": "3.4.7",
  "updatedAt": "2022-07-07T19:15:35.405Z",
  "networkType": "ethereum",
  "devdoc": {
    "kind": "dev",
    "methods": {},
    "version": 1
  },
  "userdoc": {
    "kind": "user",
    "methods": {},
    "version": 1
  }
}