{
  "contractName": "Generador",
  "abi": [
    {
      "inputs": [
        {
          "internalType": "string",
          "name": "_empresa",
          "type": "string"
        },
        {
          "internalType": "address",
          "name": "_direccion",
          "type": "address"
        },
        {
          "internalType": "address",
          "name": "_reguladorMercado",
          "type": "address"
        }
      ],
      "stateMutability": "nonpayable",
      "type": "constructor"
    },
    {
      "anonymous": false,
      "inputs": [
        {
          "indexed": false,
          "internalType": "uint256",
          "name": "",
          "type": "uint256"
        },
        {
          "indexed": false,
          "internalType": "string",
          "name": "",
          "type": "string"
        },
        {
          "indexed": false,
          "internalType": "address",
          "name": "",
          "type": "address"
        }
      ],
      "name": "compraEnergia",
      "type": "event"
    },
    {
      "inputs": [],
      "name": "MisTokens",
      "outputs": [
        {
          "internalType": "uint256",
          "name": "",
          "type": "uint256"
        }
      ],
      "stateMutability": "view",
      "type": "function"
    },
    {
      "inputs": [],
      "name": "dirContrato",
      "outputs": [
        {
          "internalType": "address",
          "name": "",
          "type": "address"
        }
      ],
      "stateMutability": "view",
      "type": "function"
    },
    {
      "inputs": [],
      "name": "empresa",
      "outputs": [
        {
          "internalType": "string",
          "name": "",
          "type": "string"
        }
      ],
      "stateMutability": "view",
      "type": "function"
    },
    {
      "inputs": [],
      "name": "getInfoContrato",
      "outputs": [
        {
          "components": [
            {
              "internalType": "string",
              "name": "empresa",
              "type": "string"
            },
            {
              "internalType": "address",
              "name": "owner",
              "type": "address"
            },
            {
              "internalType": "address",
              "name": "dirContrato",
              "type": "address"
            }
          ],
          "internalType": "struct infoContrato",
          "name": "",
          "type": "tuple"
        }
      ],
      "stateMutability": "view",
      "type": "function"
    },
    {
      "inputs": [],
      "name": "nullAddress",
      "outputs": [
        {
          "internalType": "address",
          "name": "",
          "type": "address"
        }
      ],
      "stateMutability": "view",
      "type": "function"
    },
    {
      "inputs": [],
      "name": "owner",
      "outputs": [
        {
          "internalType": "address",
          "name": "",
          "type": "address"
        }
      ],
      "stateMutability": "view",
      "type": "function"
    },
    {
      "inputs": [],
      "name": "reguladorMercado",
      "outputs": [
        {
          "internalType": "address",
          "name": "",
          "type": "address"
        }
      ],
      "stateMutability": "view",
      "type": "function"
    },
    {
      "inputs": [
        {
          "internalType": "string",
          "name": "nombreTipoEnergia",
          "type": "string"
        },
        {
          "internalType": "uint256",
          "name": "_cantidadEnergia",
          "type": "uint256"
        }
      ],
      "name": "GenerarNuevaEnergia",
      "outputs": [],
      "stateMutability": "nonpayable",
      "type": "function"
    },
    {
      "inputs": [
        {
          "internalType": "uint256",
          "name": "cantidadEnergia",
          "type": "uint256"
        },
        {
          "internalType": "string",
          "name": "tipoEnergia",
          "type": "string"
        },
        {
          "internalType": "address",
          "name": "_dirOwnerContrato",
          "type": "address"
        }
      ],
      "name": "ComprarEnergia",
      "outputs": [],
      "stateMutability": "nonpayable",
      "type": "function"
    },
    {
      "inputs": [
        {
          "internalType": "string",
          "name": "_tipoEnergia",
          "type": "string"
        }
      ],
      "name": "getTipoEnergia",
      "outputs": [
        {
          "internalType": "contract TipoEnergia",
          "name": "",
          "type": "address"
        }
      ],
      "stateMutability": "view",
      "type": "function"
    },
    {
      "inputs": [
        {
          "internalType": "string",
          "name": "_tipoEnergia",
          "type": "string"
        }
      ],
      "name": "getCantidadEnergia",
      "outputs": [
        {
          "internalType": "uint256",
          "name": "",
          "type": "uint256"
        }
      ],
      "stateMutability": "view",
      "type": "function"
    },
    {
      "inputs": [
        {
          "internalType": "address",
          "name": "_dirOwnerContrato",
          "type": "address"
        }
      ],
      "name": "getEnergiaComprador",
      "outputs": [
        {
          "internalType": "contract TipoEnergia",
          "name": "",
          "type": "address"
        }
      ],
      "stateMutability": "view",
      "type": "function"
    },
    {
      "inputs": [
        {
          "internalType": "address",
          "name": "_contratoComercializador",
          "type": "address"
        }
      ],
      "name": "contratarComercializador",
      "outputs": [],
      "stateMutability": "nonpayable",
      "type": "function"
    }
  ],
  "bytecode": "0x6080604052600480546001600160a01b03191690553480156200002157600080fd5b50604051620025f6380380620025f68339810160408190526200004491620001bb565b825162000059906000906020860190620000ea565b50600280546001600160a01b038085166001600160a01b031992831617909255600380548216301790556001805492841692909116919091179055604051620000a29062000179565b604051809103906000f080158015620000bf573d6000803e3d6000fd5b50600680546001600160a01b0319166001600160a01b03929092169190911790555062000304915050565b828054620000f890620002b1565b90600052602060002090601f0160209004810192826200011c576000855562000167565b82601f106200013757805160ff191683800117855562000167565b8280016001018555821562000167579182015b82811115620001675782518255916020019190600101906200014a565b506200017592915062000187565b5090565b6112ba806200133c83390190565b5b8082111562000175576000815560010162000188565b80516001600160a01b0381168114620001b657600080fd5b919050565b600080600060608486031215620001d0578283fd5b83516001600160401b0380821115620001e7578485fd5b818601915086601f830112620001fb578485fd5b815181811115620002105762000210620002ee565b6040516020601f8301601f1916820181018481118382101715620002385762000238620002ee565b60405282825284830181018a10156200024f578788fd5b8793505b8284101562000272578484018101518285018201529283019262000253565b828411156200028357878184840101525b81975062000293818a016200019e565b96505050505050620002a8604085016200019e565b90509250925092565b600281046001821680620002c657607f821691505b60208210811415620002e857634e487b7160e01b600052602260045260246000fd5b50919050565b634e487b7160e01b600052604160045260246000fd5b61102880620003146000396000f3fe608060405234801561001057600080fd5b50600436106100cf5760003560e01c806395965bda1161008c578063cf7bddef11610066578063cf7bddef1461017a578063cfa578491461018f578063e33f34a0146101a2578063fcbe8eb1146101aa576100cf565b806395965bda146101325780639be0e7ce14610145578063a3a6883e1461015a576100cf565b8063158e62a3146100d4578063551edf90146100fd5780635a3e349d146101055780637eb5a6881461011a578063856788df146101225780638da5cb5b1461012a575b600080fd5b6100e76100e2366004610b88565b6101bd565b6040516100f49190610cbf565b60405180910390f35b6100e76101ef565b610118610113366004610bc3565b6101fe565b005b6100e76102fb565b6100e761030a565b6100e7610319565b610118610140366004610b49565b610328565b61014d61045d565b6040516100f49190610ea8565b61016d610168366004610b88565b610520565b6040516100f49190610ef4565b6101826105b9565b6040516100f49190610cf7565b61011861019d366004610c1e565b610647565b61016d610a04565b6100e76101b8366004610b49565b610a8a565b60006007826040516101cf9190610ca3565b908152604051908190036020019020546001600160a01b03169050919050565b6004546001600160a01b031681565b60025433906001600160a01b031681146102335760405162461bcd60e51b815260040161022a90610e0d565b60405180910390fd5b60065460405163259e757760e01b81526001600160a01b039091169063259e7577906102659086908690600401610d0a565b602060405180830381600087803b15801561027f57600080fd5b505af1158015610293573d6000803e3d6000fd5b505050506040513d601f19601f820116820180604052508101906102b79190610b6c565b6007846040516102c79190610ca3565b90815260405190819003602001902080546001600160a01b03929092166001600160a01b0319909216919091179055505050565b6001546001600160a01b031681565b6003546001600160a01b031681565b6002546001600160a01b031681565b60025433906001600160a01b031681146103545760405162461bcd60e51b815260040161022a90610e0d565b6000826001600160a01b031663013643fd6040518163ffffffff1660e01b815260040160206040518083038186803b15801561038f57600080fd5b505afa1580156103a3573d6000803e3d6000fd5b505050506040513d601f19601f820116820180604052508101906103c79190610c06565b905080156103e75760405162461bcd60e51b815260040161022a90610d2c565b600580546001600160a01b0319166001600160a01b038516908117909155604051636f7cac4160e11b815263def9588290610426903390600401610cbf565b600060405180830381600087803b15801561044057600080fd5b505af1158015610454573d6000803e3d6000fd5b50505050505050565b610465610aa8565b60405180606001604052806000805461047d90610f89565b80601f01602080910402602001604051908101604052809291908181526020018280546104a990610f89565b80156104f65780601f106104cb576101008083540402835291602001916104f6565b820191906000526020600020905b8154815290600101906020018083116104d957829003601f168201915b50505091835250506002546001600160a01b03908116602083015260035416604090910152905090565b60006007826040516105329190610ca3565b90815260408051602092819003830181205462137c1760eb1b825291516001600160a01b0390921692639be0b80092600480840193829003018186803b15801561057b57600080fd5b505afa15801561058f573d6000803e3d6000fd5b505050506040513d601f19601f820116820180604052508101906105b39190610c06565b92915050565b600080546105c690610f89565b80601f01602080910402602001604051908101604052809291908181526020018280546105f290610f89565b801561063f5780601f106106145761010080835404028352916020019161063f565b820191906000526020600020905b81548152906001019060200180831161062257829003601f168201915b505050505081565b60006007836040516106599190610ca3565b908152604051908190036020019020546004546001600160a01b039182169250168114156106995760405162461bcd60e51b815260040161022a90610db0565b60006007846040516106ab9190610ca3565b90815260408051602092819003830181205462137c1760eb1b825291516001600160a01b0390921692639be0b80092600480840193829003018186803b1580156106f457600080fd5b505afa158015610708573d6000803e3d6000fd5b505050506040513d601f19601f8201168201806040525081019061072c9190610c06565b90508481101561074e5760405162461bcd60e51b815260040161022a90610e5b565b60006007856040516107609190610ca3565b908152604080516020928190038301812054633deb12bd60e21b825291516001600160a01b039092169263f7ac4af492600480840193829003018186803b1580156107aa57600080fd5b505afa1580156107be573d6000803e3d6000fd5b505050506040513d601f19601f820116820180604052508101906107e29190610c06565b6107ec9087610f2e565b600154604051630e03c03b60e01b81529192506001600160a01b031690630e03c03b9061081d908790600401610cbf565b60206040518083038186803b15801561083557600080fd5b505afa158015610849573d6000803e3d6000fd5b505050506040513d601f19601f8201168201806040525081019061086d9190610c06565b81111561088c5760405162461bcd60e51b815260040161022a90610d79565b60015460025460405163013e8a2560e41b81526001600160a01b03928316926313e8a250926108c5928992909116908690600401610cd3565b600060405180830381600087803b1580156108df57600080fd5b505af11580156108f3573d6000803e3d6000fd5b505050506007856040516109079190610ca3565b9081526040519081900360200181205463b0b6d16160e01b82526001600160a01b03169063b0b6d1619061093f908990600401610ef4565b600060405180830381600087803b15801561095957600080fd5b505af115801561096d573d6000803e3d6000fd5b505050506007856040516109819190610ca3565b908152604080519182900360209081018320546001600160a01b03888116600090815260089093529290912080546001600160a01b031916929091169190911790557f63a6215c2d4b06bd0b74656dbfc6eb1fc9aa6029fbb18ebb4243d524217c672a906109f490889088908890610efd565b60405180910390a1505050505050565b600154604051630e03c03b60e01b81526000916001600160a01b031690630e03c03b90610a35903390600401610cbf565b60206040518083038186803b158015610a4d57600080fd5b505afa158015610a61573d6000803e3d6000fd5b505050506040513d601f19601f82011682018060405250810190610a859190610c06565b905090565b6001600160a01b039081166000908152600860205260409020541690565b604080516060808201835281526000602082018190529181019190915290565b600082601f830112610ad8578081fd5b813567ffffffffffffffff80821115610af357610af3610fc4565b604051601f8301601f191681016020018281118282101715610b1757610b17610fc4565b604052828152848301602001861015610b2e578384fd5b82602086016020830137918201602001929092529392505050565b600060208284031215610b5a578081fd5b8135610b6581610fda565b9392505050565b600060208284031215610b7d578081fd5b8151610b6581610fda565b600060208284031215610b99578081fd5b813567ffffffffffffffff811115610baf578182fd5b610bbb84828501610ac8565b949350505050565b60008060408385031215610bd5578081fd5b823567ffffffffffffffff811115610beb578182fd5b610bf785828601610ac8565b95602094909401359450505050565b600060208284031215610c17578081fd5b5051919050565b600080600060608486031215610c32578081fd5b83359250602084013567ffffffffffffffff811115610c4f578182fd5b610c5b86828701610ac8565b9250506040840135610c6c81610fda565b809150509250925092565b60008151808452610c8f816020860160208601610f59565b601f01601f19169290920160200192915050565b60008251610cb5818460208701610f59565b9190910192915050565b6001600160a01b0391909116815260200190565b6001600160a01b039384168152919092166020820152604081019190915260600190565b600060208252610b656020830184610c77565b600060408252610d1d6040830185610c77565b90508260208301529392505050565b6020808252602d908201527f456c20636f6d65726369616c697a61646f72206465626520736572206465207460408201526c34b8379023b2b732b930b237b960991b606082015260800190565b6020808252601c908201527f4e6f207469656e657320746f6b656e7320737566696369656e74657300000000604082015260600190565b60208082526037908201527f456c207469706f20646520656e65726769612c206e6f20736520656e6375656e60408201527f7472612064656e74726f2064656c20636174616c6f676f000000000000000000606082015260800190565b6020808252602e908201527f4e6f207469656e65207065726d69736f73207061726120656a6563757461722060408201526d3630903a3930b739b0b1b1b4b7b760911b606082015260800190565b6020808252602d908201527f4e6f20707565646520636f6d70726172206d617320656e65726769612064652060408201526c6c6120646973706f6e69626c6560981b606082015260800190565b600060208252825160606020840152610ec46080840182610c77565b60208501516001600160a01b03908116604086810191909152909501519094166060909301929092525090919050565b90815260200190565b600084825260606020830152610f166060830185610c77565b905060018060a01b0383166040830152949350505050565b6000816000190483118215151615610f5457634e487b7160e01b81526011600452602481fd5b500290565b60005b83811015610f74578181015183820152602001610f5c565b83811115610f83576000848401525b50505050565b600281046001821680610f9d57607f821691505b60208210811415610fbe57634e487b7160e01b600052602260045260246000fd5b50919050565b634e487b7160e01b600052604160045260246000fd5b6001600160a01b0381168114610fef57600080fd5b5056fea264697066735822122016ecd51e87f33bd16d45b27dcfa3b50b88d2de2d1ab90f47c18a62ae569987ca64736f6c63430008000033600560c09081526439b7b630b960d91b60e0526080908152610140604052600661010090815265656f6c69636160d01b6101205260a052610044906000906002610057565b5034801561005157600080fd5b506101e0565b8280548282559060005260206000209081019282156100a4579160200282015b828111156100a457825180516100949184916020909101906100b4565b5091602001919060010190610077565b506100b0929150610134565b5090565b8280546100c0906101a5565b90600052602060002090601f0160209004810192826100e25760008555610128565b82601f106100fb57805160ff1916838001178555610128565b82800160010185558215610128579182015b8281111561012857825182559160200191906001019061010d565b506100b0929150610151565b808211156100b05760006101488282610166565b50600101610134565b5b808211156100b05760008155600101610152565b508054610172906101a5565b6000825580601f1061018457506101a2565b601f0160209004906000526020600020908101906101a29190610151565b50565b6002810460018216806101b957607f821691505b602082108114156101da57634e487b7160e01b600052602260045260246000fd5b50919050565b6110cb806101ef6000396000f3fe608060405234801561001057600080fd5b50600436106100365760003560e01c8063259e75771461003b5780636d4fe5c714610064575b600080fd5b61004e610049366004610338565b610084565b60405161005b9190610473565b60405180910390f35b6100776100723660046103df565b61024b565b60405161005b9190610487565b6040516388d8da5f60e01b81526000908190819073__StringLibrary_________________________906388d8da5f906100c290889060040161049a565b60206040518083038186803b1580156100da57600080fd5b505af41580156100ee573d6000803e3d6000fd5b505050506040513d601f19601f820116820180604052508101906101129190610311565b156101565783604051610124906102f7565b61012e9190610562565b604051809103906000f08015801561014a573d6000803e3d6000fd5b5091506001905061021d565b6040516388d8da5f60e01b815273__StringLibrary_________________________906388d8da5f9061018d9088906004016104c6565b60206040518083038186803b1580156101a557600080fd5b505af41580156101b9573d6000803e3d6000fd5b505050506040513d601f19601f820116820180604052508101906101dd9190610311565b1561021d57836040516101ef90610304565b6101f99190610582565b604051809103906000f080158015610215573d6000803e3d6000fd5b509150600190505b806102435760405162461bcd60e51b815260040161023a906104ea565b60405180910390fd5b509392505050565b6000818154811061025b57600080fd5b90600052602060002001600091509050805461027690610594565b80601f01602080910402602001604051908101604052809291908181526020018280546102a290610594565b80156102ef5780601f106102c4576101008083540402835291602001916102ef565b820191906000526020600020905b8154815290600101906020018083116102d257829003601f168201915b505050505081565b610558806105e683390190565b61055880610b3e83390190565b600060208284031215610322578081fd5b81518015158114610331578182fd5b9392505050565b6000806040838503121561034a578081fd5b823567ffffffffffffffff80821115610361578283fd5b818501915085601f830112610374578283fd5b8135602082821115610388576103886105cf565b604051601f8301601f19168101820184811182821017156103ab576103ab6105cf565b60405282815284830182018910156103c1578586fd5b82828601838301379182018101949094529694909201359450505050565b6000602082840312156103f0578081fd5b5035919050565b60008151808452815b8181101561041c57602081850181015186830182015201610400565b8181111561042d5782602083870101525b50601f01601f19169290920160200192915050565b600581526439b7b630b960d91b602082015260400190565b6006815265656f6c69636160d01b602082015260400190565b6001600160a01b0391909116815260200190565b60006020825261033160208301846103f7565b6000604082526104ad60408301846103f7565b82810360208401526104be81610442565b949350505050565b6000604082526104d960408301846103f7565b82810360208401526104be8161045a565b60208082526052908201527f4e6f20657320756e207469706f20646520656e65726769612076616c69646f2c60408201527f206c6f73207469706f732076616c69646f7320736f6e3a20736f6c61722c20656060820152716f6c696361206f206869647261756c69636160701b608082015260a00190565b60006040825261057460408301610442565b905082602083015292915050565b6000604082526105746040830161045a565b6002810460018216806105a857607f821691505b602082108114156105c957634e487b7160e01b600052602260045260246000fd5b50919050565b634e487b7160e01b600052604160045260246000fdfe608060405234801561001057600080fd5b5060405161055838038061055883398101604081905261002f916100e5565b815161004290600090602085019061004c565b5060025550610200565b828054610058906101af565b90600052602060002090601f01602090048101928261007a57600085556100c0565b82601f1061009357805160ff19168380011785556100c0565b828001600101855582156100c0579182015b828111156100c05782518255916020019190600101906100a5565b506100cc9291506100d0565b5090565b5b808211156100cc57600081556001016100d1565b600080604083850312156100f7578182fd5b82516001600160401b038082111561010d578384fd5b818501915085601f830112610120578384fd5b815181811115610132576101326101ea565b6040516020601f8301601f1916820181018481118382101715610157576101576101ea565b604052828252848301810189101561016d578687fd5b8693505b8284101561018e5784840181015182850182015292830192610171565b8284111561019e57868184840101525b969096015195979596505050505050565b6002810460018216806101c357607f821691505b602082108114156101e457634e487b7160e01b600052602260045260246000fd5b50919050565b634e487b7160e01b600052604160045260246000fd5b6103498061020f6000396000f3fe608060405234801561001057600080fd5b506004361061007d5760003560e01c8063b0b6d1611161005b578063b0b6d161146100b0578063bc7b35b2146100c5578063f5a50589146100da578063f7ac4af4146100ed5761007d565b80639be0b800146100825780639e66e0f3146100a0578063ae4f7a4c146100a8575b600080fd5b61008a6100f5565b604051610097919061028a565b60405180910390f35b61008a6100fb565b61008a610101565b6100c36100be36600461021f565b610107565b005b6100cd61011e565b6040516100979190610237565b6100c36100e836600461021f565b6101ac565b61008a6101bc565b60025490565b60015481565b60025481565b60025460009061011790836101c1565b6002555050565b6000805461012b906102c2565b80601f0160208091040260200160405190810160405280929190818152602001828054610157906102c2565b80156101a45780601f10610179576101008083540402835291602001916101a4565b820191906000526020600020905b81548152906001019060200180831161018757829003601f168201915b505050505081565b60025460009061011790836101f2565b600390565b6000828211156101e157634e487b7160e01b600052600160045260246000fd5b6101eb82846102ab565b9392505050565b6000806101ff8385610293565b9050838110156101eb57634e487b7160e01b600052600160045260246000fd5b600060208284031215610230578081fd5b5035919050565b6000602080835283518082850152825b8181101561026357858101830151858201604001528201610247565b818111156102745783604083870101525b50601f01601f1916929092016040019392505050565b90815260200190565b600082198211156102a6576102a66102fd565b500190565b6000828210156102bd576102bd6102fd565b500390565b6002810460018216806102d657607f821691505b602082108114156102f757634e487b7160e01b600052602260045260246000fd5b50919050565b634e487b7160e01b600052601160045260246000fdfea26469706673582212206f0bca8a54f493d65ee7c9f63334f200db54562b0acf646132ca247f199b5b5464736f6c63430008000033608060405234801561001057600080fd5b5060405161055838038061055883398101604081905261002f916100e5565b815161004290600090602085019061004c565b5060025550610200565b828054610058906101af565b90600052602060002090601f01602090048101928261007a57600085556100c0565b82601f1061009357805160ff19168380011785556100c0565b828001600101855582156100c0579182015b828111156100c05782518255916020019190600101906100a5565b506100cc9291506100d0565b5090565b5b808211156100cc57600081556001016100d1565b600080604083850312156100f7578182fd5b82516001600160401b038082111561010d578384fd5b818501915085601f830112610120578384fd5b815181811115610132576101326101ea565b6040516020601f8301601f1916820181018481118382101715610157576101576101ea565b604052828252848301810189101561016d578687fd5b8693505b8284101561018e5784840181015182850182015292830192610171565b8284111561019e57868184840101525b969096015195979596505050505050565b6002810460018216806101c357607f821691505b602082108114156101e457634e487b7160e01b600052602260045260246000fd5b50919050565b634e487b7160e01b600052604160045260246000fd5b6103498061020f6000396000f3fe608060405234801561001057600080fd5b506004361061007d5760003560e01c8063b0b6d1611161005b578063b0b6d161146100b0578063bc7b35b2146100c5578063f5a50589146100da578063f7ac4af4146100ed5761007d565b80639be0b800146100825780639e66e0f3146100a0578063ae4f7a4c146100a8575b600080fd5b61008a6100f5565b604051610097919061028a565b60405180910390f35b61008a6100fb565b61008a610101565b6100c36100be36600461021f565b610107565b005b6100cd61011e565b6040516100979190610237565b6100c36100e836600461021f565b6101ac565b61008a6101bc565b60025490565b60015481565b60025481565b60025460009061011790836101c1565b6002555050565b6000805461012b906102c2565b80601f0160208091040260200160405190810160405280929190818152602001828054610157906102c2565b80156101a45780601f10610179576101008083540402835291602001916101a4565b820191906000526020600020905b81548152906001019060200180831161018757829003601f168201915b505050505081565b60025460009061011790836101f2565b600290565b6000828211156101e157634e487b7160e01b600052600160045260246000fd5b6101eb82846102ab565b9392505050565b6000806101ff8385610293565b9050838110156101eb57634e487b7160e01b600052600160045260246000fd5b600060208284031215610230578081fd5b5035919050565b6000602080835283518082850152825b8181101561026357858101830151858201604001528201610247565b818111156102745783604083870101525b50601f01601f1916929092016040019392505050565b90815260200190565b600082198211156102a6576102a66102fd565b500190565b6000828210156102bd576102bd6102fd565b500390565b6002810460018216806102d657607f821691505b602082108114156102f757634e487b7160e01b600052602260045260246000fd5b50919050565b634e487b7160e01b600052601160045260246000fdfea26469706673582212203b7db8b46cca9ce8e3ed4f5a492840dee56d945d4203dd5ce6fd1b80b84e973b64736f6c63430008000033a2646970667358221220deb1bf747051fb4a92553be3fcca3dc9d6eb105d29dca8947483bd2365d44dd364736f6c63430008000033",
  "immutableReferences": {},
  "source": "// SPDX-License-Identifier: MIT\r\npragma solidity ^0.8.0;\r\npragma experimental ABIEncoderV2;\r\nimport \"./libraries/StringLibrary.sol\";\r\nimport \"./models/TipoEnergia.sol\";\r\nimport \"./TokenErc20/ERC20.sol\";\r\nimport \"./ReguladorMercado.sol\";\r\nimport \"./models/TipoEnergiaFactory.sol\";\r\nimport \"./models/Agente.sol\";\r\nimport \"./Comercializador.sol\";\r\n\r\ncontract Generador is Agente {\r\n    address contratoComercializador;\r\n    TipoEnergiaFactory private factoryEnergia;\r\n    mapping(string => TipoEnergia) private tiposEnergiasGenerador;\r\n    mapping(address => TipoEnergia) private EnergiasComprador;\r\n    using StringLibrary for string;\r\n\r\n    //Evento de compra de tokens\r\n    event compraEnergia(uint256, string, address);\r\n\r\n    constructor(\r\n        string memory _empresa,\r\n        address _direccion,\r\n        address _reguladorMercado\r\n    ) {\r\n        empresa = _empresa;\r\n        owner = _direccion;\r\n        dirContrato = address(this);\r\n        reguladorMercado = _reguladorMercado;\r\n        factoryEnergia = new TipoEnergiaFactory();\r\n    }\r\n\r\n    function GenerarNuevaEnergia(\r\n        string memory nombreTipoEnergia,\r\n        uint256 _cantidadEnergia\r\n    ) public authorize(msg.sender) {\r\n        tiposEnergiasGenerador[nombreTipoEnergia] = factoryEnergia\r\n            .generarNuevaEnergia(nombreTipoEnergia, _cantidadEnergia);\r\n    }\r\n\r\n    //_dirOwnerContrato, direccion del owner del cliente\r\n    function ComprarEnergia(\r\n        uint256 cantidadEnergia,\r\n        string memory tipoEnergia,\r\n        address _dirOwnerContrato\r\n    ) public {\r\n        //Verificar que el tipo de energia exista\r\n        address dirTipoEnergia = address(tiposEnergiasGenerador[tipoEnergia]);\r\n        require(\r\n            dirTipoEnergia != nullAddress,\r\n            \"El tipo de energia, no se encuentra dentro del catalogo\"\r\n        );\r\n\r\n        //Comprobar que la cantiadad de energia solicitada no supere la producida\r\n        uint256 cantidadEnergiaDisponible = tiposEnergiasGenerador[tipoEnergia]\r\n            .getCantidadEnergia();\r\n        require(\r\n            cantidadEnergiaDisponible >= cantidadEnergia,\r\n            \"No puede comprar mas energia de la disponible\"\r\n        );\r\n\r\n        //Caluclar el coste de la energia\r\n        uint256 costeEnergia = cantidadEnergia *\r\n            tiposEnergiasGenerador[tipoEnergia].calcularPrecio();\r\n        //Verficar que el comprador cuente con fondos suficientes\r\n        require(\r\n            costeEnergia <=\r\n                ReguladorMercado(reguladorMercado).MisTokens(_dirOwnerContrato),\r\n            \"No tienes tokens suficientes\"\r\n        );\r\n\r\n        //Transferencia de los tokens al owner del contrato\r\n        ReguladorMercado(reguladorMercado).IntercambiarTokens(\r\n            _dirOwnerContrato,\r\n            owner,\r\n            costeEnergia\r\n        );\r\n\r\n        //Descontar la energia disponible\r\n        tiposEnergiasGenerador[tipoEnergia].restarCantidadEnergia(\r\n            cantidadEnergia\r\n        );\r\n        EnergiasComprador[_dirOwnerContrato] = tiposEnergiasGenerador[\r\n            tipoEnergia\r\n        ];\r\n        emit compraEnergia(cantidadEnergia, tipoEnergia, _dirOwnerContrato);\r\n    }\r\n\r\n    function getTipoEnergia(string memory _tipoEnergia)\r\n        public\r\n        view\r\n        returns (TipoEnergia)\r\n    {\r\n        return tiposEnergiasGenerador[_tipoEnergia];\r\n    }\r\n\r\n    function getCantidadEnergia(string memory _tipoEnergia)\r\n        public\r\n        view\r\n        returns (uint256)\r\n    {\r\n        return tiposEnergiasGenerador[_tipoEnergia].getCantidadEnergia();\r\n    }\r\n\r\n    function getEnergiaComprador(address _dirOwnerContrato)\r\n        public\r\n        view\r\n        returns (TipoEnergia)\r\n    {\r\n        return EnergiasComprador[_dirOwnerContrato];\r\n    }\r\n\r\n    function contratarComercializador(address _contratoComercializador)\r\n        public\r\n        authorize(msg.sender)\r\n    {\r\n        uint256 tipoComercializador = Comercializador(_contratoComercializador)\r\n            .getTipoContrato();\r\n        require(\r\n            tipoComercializador == 0,\r\n            \"El comercializador debe ser de tipo Generador\"\r\n        );\r\n        contratoComercializador = _contratoComercializador;\r\n        Comercializador(_contratoComercializador).setClientesComercializador(\r\n            msg.sender\r\n        );\r\n    }\r\n}\r\n",
  "sourcePath": "D:\\Santiago\\BlockChain\\DemoMvmTruffle\\contracts\\Generador.sol",
  "compiler": {
    "name": "solc",
    "version": "0.8.0+commit.c7dfd78e.Emscripten.clang"
  },
  "schemaVersion": "3.4.4",
  "updatedAt": "2022-06-30T19:26:09.181Z",
  "networkType": "ethereum",
  "devdoc": {
    "kind": "dev",
    "methods": {},
    "version": 1
  },
  "userdoc": {
    "kind": "user",
    "methods": {},
    "version": 1
  }
}