{
  "contractName": "Generador",
  "abi": [
    {
      "inputs": [
        {
          "components": [
            {
              "internalType": "address",
              "name": "dirContrato",
              "type": "address"
            },
            {
              "internalType": "address",
              "name": "owner",
              "type": "address"
            },
            {
              "internalType": "string",
              "name": "nit",
              "type": "string"
            },
            {
              "internalType": "string",
              "name": "empresa",
              "type": "string"
            },
            {
              "internalType": "string",
              "name": "contacto",
              "type": "string"
            },
            {
              "internalType": "string",
              "name": "telefono",
              "type": "string"
            },
            {
              "internalType": "string",
              "name": "correo",
              "type": "string"
            },
            {
              "internalType": "string",
              "name": "departamento",
              "type": "string"
            },
            {
              "internalType": "string",
              "name": "ciudad",
              "type": "string"
            },
            {
              "internalType": "string",
              "name": "direccion",
              "type": "string"
            },
            {
              "internalType": "address",
              "name": "comercializador",
              "type": "address"
            },
            {
              "internalType": "uint256",
              "name": "tipoComercio",
              "type": "uint256"
            }
          ],
          "internalType": "struct InfoContrato",
          "name": "_infoContrato",
          "type": "tuple"
        },
        {
          "internalType": "address",
          "name": "_reguladorMercado",
          "type": "address"
        }
      ],
      "stateMutability": "nonpayable",
      "type": "constructor"
    },
    {
      "anonymous": false,
      "inputs": [
        {
          "indexed": false,
          "internalType": "uint256",
          "name": "",
          "type": "uint256"
        },
        {
          "indexed": false,
          "internalType": "string",
          "name": "",
          "type": "string"
        },
        {
          "indexed": false,
          "internalType": "address",
          "name": "",
          "type": "address"
        }
      ],
      "name": "compraEnergia",
      "type": "event"
    },
    {
      "inputs": [],
      "name": "MisTokens",
      "outputs": [
        {
          "internalType": "uint256",
          "name": "",
          "type": "uint256"
        }
      ],
      "stateMutability": "view",
      "type": "function"
    },
    {
      "inputs": [],
      "name": "getInfoContrato",
      "outputs": [
        {
          "components": [
            {
              "internalType": "address",
              "name": "dirContrato",
              "type": "address"
            },
            {
              "internalType": "address",
              "name": "owner",
              "type": "address"
            },
            {
              "internalType": "string",
              "name": "nit",
              "type": "string"
            },
            {
              "internalType": "string",
              "name": "empresa",
              "type": "string"
            },
            {
              "internalType": "string",
              "name": "contacto",
              "type": "string"
            },
            {
              "internalType": "string",
              "name": "telefono",
              "type": "string"
            },
            {
              "internalType": "string",
              "name": "correo",
              "type": "string"
            },
            {
              "internalType": "string",
              "name": "departamento",
              "type": "string"
            },
            {
              "internalType": "string",
              "name": "ciudad",
              "type": "string"
            },
            {
              "internalType": "string",
              "name": "direccion",
              "type": "string"
            },
            {
              "internalType": "address",
              "name": "comercializador",
              "type": "address"
            },
            {
              "internalType": "uint256",
              "name": "tipoComercio",
              "type": "uint256"
            }
          ],
          "internalType": "struct InfoContrato",
          "name": "",
          "type": "tuple"
        }
      ],
      "stateMutability": "view",
      "type": "function"
    },
    {
      "inputs": [],
      "name": "nullAddress",
      "outputs": [
        {
          "internalType": "address",
          "name": "",
          "type": "address"
        }
      ],
      "stateMutability": "view",
      "type": "function"
    },
    {
      "inputs": [],
      "name": "reguladorMercado",
      "outputs": [
        {
          "internalType": "address",
          "name": "",
          "type": "address"
        }
      ],
      "stateMutability": "view",
      "type": "function"
    },
    {
      "inputs": [
        {
          "internalType": "string",
          "name": "nombreTipoEnergia",
          "type": "string"
        },
        {
          "internalType": "uint256",
          "name": "_cantidadEnergia",
          "type": "uint256"
        }
      ],
      "name": "GenerarNuevaEnergia",
      "outputs": [],
      "stateMutability": "nonpayable",
      "type": "function"
    },
    {
      "inputs": [
        {
          "internalType": "uint256",
          "name": "cantidadEnergia",
          "type": "uint256"
        },
        {
          "internalType": "string",
          "name": "tipoEnergia",
          "type": "string"
        },
        {
          "internalType": "address",
          "name": "_dirOwnerContrato",
          "type": "address"
        }
      ],
      "name": "ComprarEnergia",
      "outputs": [],
      "stateMutability": "nonpayable",
      "type": "function"
    },
    {
      "inputs": [
        {
          "internalType": "string",
          "name": "_tipoEnergia",
          "type": "string"
        }
      ],
      "name": "getTipoEnergia",
      "outputs": [
        {
          "internalType": "contract TipoEnergia",
          "name": "",
          "type": "address"
        }
      ],
      "stateMutability": "view",
      "type": "function"
    },
    {
      "inputs": [
        {
          "internalType": "string",
          "name": "_tipoEnergia",
          "type": "string"
        }
      ],
      "name": "getCantidadEnergia",
      "outputs": [
        {
          "internalType": "uint256",
          "name": "",
          "type": "uint256"
        }
      ],
      "stateMutability": "view",
      "type": "function"
    },
    {
      "inputs": [
        {
          "internalType": "address",
          "name": "_dirOwnerContrato",
          "type": "address"
        }
      ],
      "name": "getEnergiaComprador",
      "outputs": [
        {
          "internalType": "contract TipoEnergia",
          "name": "",
          "type": "address"
        }
      ],
      "stateMutability": "view",
      "type": "function"
    },
    {
      "inputs": [
        {
          "internalType": "address",
          "name": "_contratoComercializador",
          "type": "address"
        }
      ],
      "name": "contratarComercializador",
      "outputs": [],
      "stateMutability": "nonpayable",
      "type": "function"
    }
  ],
  "bytecode": "0x6080604052600d80546001600160a01b03191690553480156200002157600080fd5b5060405162002f0038038062002f008339810160408190526200004491620003d6565b600080546001600160a01b038084166001600160a01b0319928316179092556040805161018081018252308082526020878101518616818401819052888501519484018590526060808a0151908501526080808a01519085015260a0808a01519085015260c0808a01519085015260e0808a0151908501526101008981015190850152610120808a015190850152600d54909616610140840152610160808901519084015260018054861690921782556002805490951690951790935581519093620001169260039291019062000274565b50606082015180516200013491600384019160209091019062000274565b50608082015180516200015291600484019160209091019062000274565b5060a082015180516200017091600584019160209091019062000274565b5060c082015180516200018e91600684019160209091019062000274565b5060e08201518051620001ac91600784019160209091019062000274565b506101008201518051620001cb91600884019160209091019062000274565b506101208201518051620001ea91600984019160209091019062000274565b50610140820151600a820180546001600160a01b0319166001600160a01b0390921691909117905561016090910151600b909101556040516200022d9062000303565b604051809103906000f0801580156200024a573d6000803e3d6000fd5b50600e80546001600160a01b0319166001600160a01b039290921691909117905550620006379050565b8280546200028290620005e4565b90600052602060002090601f016020900481019282620002a65760008555620002f1565b82601f10620002c157805160ff1916838001178555620002f1565b82800160010185558215620002f1579182015b82811115620002f1578251825591602001919060010190620002d4565b50620002ff92915062000311565b5090565b6114048062001afc83390190565b5b80821115620002ff576000815560010162000312565b80516001600160a01b03811681146200034057600080fd5b919050565b600082601f83011262000356578081fd5b81516001600160401b0381111562000372576200037262000621565b602062000388601f8301601f19168201620005b8565b82815285828487010111156200039c578384fd5b835b83811015620003bb5785810183015182820184015282016200039e565b83811115620003cc57848385840101525b5095945050505050565b60008060408385031215620003e9578182fd5b82516001600160401b038082111562000400578384fd5b818501915061018080838803121562000417578485fd5b6200042281620005b8565b90506200042f8362000328565b81526200043f6020840162000328565b602082015260408301518281111562000456578586fd5b620004648882860162000345565b6040830152506060830151828111156200047c578586fd5b6200048a8882860162000345565b606083015250608083015182811115620004a2578586fd5b620004b08882860162000345565b60808301525060a083015182811115620004c8578586fd5b620004d68882860162000345565b60a08301525060c083015182811115620004ee578586fd5b620004fc8882860162000345565b60c08301525060e08301518281111562000514578586fd5b620005228882860162000345565b60e08301525061010080840151838111156200053c578687fd5b6200054a8982870162000345565b828401525050610120808401518381111562000564578687fd5b620005728982870162000345565b82840152505061014091506200058a82840162000328565b8282015261016091508183015182820152809450505050620005af6020840162000328565b90509250929050565b6040518181016001600160401b0381118282101715620005dc57620005dc62000621565b604052919050565b600281046001821680620005f957607f821691505b602082108114156200061b57634e487b7160e01b600052602260045260246000fd5b50919050565b634e487b7160e01b600052604160045260246000fd5b6114b580620006476000396000f3fe608060405234801561001057600080fd5b506004361061009e5760003560e01c80639be0e7ce116100665780639be0e7ce14610104578063a3a6883e14610119578063cfa5784914610139578063e33f34a01461014c578063fcbe8eb1146101545761009e565b8063158e62a3146100a3578063551edf90146100cc5780635a3e349d146100d45780637eb5a688146100e957806395965bda146100f1575b600080fd5b6100b66100b1366004610f0e565b610167565b6040516100c39190611052565b60405180910390f35b6100b6610199565b6100e76100e2366004610f49565b6101a8565b005b6100b66102a5565b6100e76100ff366004610ecf565b6102b4565b61010c6103f3565b6040516100c39190611242565b61012c610127366004610f0e565b6108d8565b6040516100c39190611381565b6100e7610147366004610fa4565b610971565b61012c610d2e565b6100b6610162366004610ecf565b610db4565b6000600f826040516101799190611036565b908152604051908190036020019020546001600160a01b03169050919050565b600d546001600160a01b031681565b60025433906001600160a01b031681146101dd5760405162461bcd60e51b81526004016101d4906111a7565b60405180910390fd5b600e5460405163259e757760e01b81526001600160a01b039091169063259e75779061020f90869086906004016110a4565b602060405180830381600087803b15801561022957600080fd5b505af115801561023d573d6000803e3d6000fd5b505050506040513d601f19601f820116820180604052508101906102619190610ef2565b600f846040516102719190611036565b90815260405190819003602001902080546001600160a01b03929092166001600160a01b0319909216919091179055505050565b6000546001600160a01b031681565b60025433906001600160a01b031681146102e05760405162461bcd60e51b81526004016101d4906111a7565b6000826001600160a01b031663013643fd6040518163ffffffff1660e01b815260040160206040518083038186803b15801561031b57600080fd5b505afa15801561032f573d6000803e3d6000fd5b505050506040513d601f19601f820116820180604052508101906103539190610f8c565b9050806001146103755760405162461bcd60e51b81526004016101d4906110c6565b600b80546001600160a01b0319166001600160a01b038581169182179092556002546040516314dd7ae360e21b81529192635375eb8c926103bc9233921690600401611066565b600060405180830381600087803b1580156103d657600080fd5b505af11580156103ea573d6000803e3d6000fd5b50505050505050565b6103fb610dd2565b6040805161018081018252600180546001600160a01b03908116835260025416602083015260038054929391929184019161043590611416565b80601f016020809104026020016040519081016040528092919081815260200182805461046190611416565b80156104ae5780601f10610483576101008083540402835291602001916104ae565b820191906000526020600020905b81548152906001019060200180831161049157829003601f168201915b505050505081526020016003820180546104c790611416565b80601f01602080910402602001604051908101604052809291908181526020018280546104f390611416565b80156105405780601f1061051557610100808354040283529160200191610540565b820191906000526020600020905b81548152906001019060200180831161052357829003601f168201915b5050505050815260200160048201805461055990611416565b80601f016020809104026020016040519081016040528092919081815260200182805461058590611416565b80156105d25780601f106105a7576101008083540402835291602001916105d2565b820191906000526020600020905b8154815290600101906020018083116105b557829003601f168201915b505050505081526020016005820180546105eb90611416565b80601f016020809104026020016040519081016040528092919081815260200182805461061790611416565b80156106645780601f1061063957610100808354040283529160200191610664565b820191906000526020600020905b81548152906001019060200180831161064757829003601f168201915b5050505050815260200160068201805461067d90611416565b80601f01602080910402602001604051908101604052809291908181526020018280546106a990611416565b80156106f65780601f106106cb576101008083540402835291602001916106f6565b820191906000526020600020905b8154815290600101906020018083116106d957829003601f168201915b5050505050815260200160078201805461070f90611416565b80601f016020809104026020016040519081016040528092919081815260200182805461073b90611416565b80156107885780601f1061075d57610100808354040283529160200191610788565b820191906000526020600020905b81548152906001019060200180831161076b57829003601f168201915b505050505081526020016008820180546107a190611416565b80601f01602080910402602001604051908101604052809291908181526020018280546107cd90611416565b801561081a5780601f106107ef5761010080835404028352916020019161081a565b820191906000526020600020905b8154815290600101906020018083116107fd57829003601f168201915b5050505050815260200160098201805461083390611416565b80601f016020809104026020016040519081016040528092919081815260200182805461085f90611416565b80156108ac5780601f10610881576101008083540402835291602001916108ac565b820191906000526020600020905b81548152906001019060200180831161088f57829003601f168201915b5050509183525050600a8201546001600160a01b03166020820152600b90910154604090910152905090565b6000600f826040516108ea9190611036565b90815260408051602092819003830181205462137c1760eb1b825291516001600160a01b0390921692639be0b80092600480840193829003018186803b15801561093357600080fd5b505afa158015610947573d6000803e3d6000fd5b505050506040513d601f19601f8201168201806040525081019061096b9190610f8c565b92915050565b6000600f836040516109839190611036565b90815260405190819003602001902054600d546001600160a01b039182169250168114156109c35760405162461bcd60e51b81526004016101d49061114a565b6000600f846040516109d59190611036565b90815260408051602092819003830181205462137c1760eb1b825291516001600160a01b0390921692639be0b80092600480840193829003018186803b158015610a1e57600080fd5b505afa158015610a32573d6000803e3d6000fd5b505050506040513d601f19601f82011682018060405250810190610a569190610f8c565b905084811015610a785760405162461bcd60e51b81526004016101d4906111f5565b6000600f85604051610a8a9190611036565b908152604080516020928190038301812054633deb12bd60e21b825291516001600160a01b039092169263f7ac4af492600480840193829003018186803b158015610ad457600080fd5b505afa158015610ae8573d6000803e3d6000fd5b505050506040513d601f19601f82011682018060405250810190610b0c9190610f8c565b610b1690876113bb565b600054604051630e03c03b60e01b81529192506001600160a01b031690630e03c03b90610b47908790600401611052565b60206040518083038186803b158015610b5f57600080fd5b505afa158015610b73573d6000803e3d6000fd5b505050506040513d601f19601f82011682018060405250810190610b979190610f8c565b811115610bb65760405162461bcd60e51b81526004016101d490611113565b60005460025460405163013e8a2560e41b81526001600160a01b03928316926313e8a25092610bef928992909116908690600401611080565b600060405180830381600087803b158015610c0957600080fd5b505af1158015610c1d573d6000803e3d6000fd5b50505050600f85604051610c319190611036565b9081526040519081900360200181205463b0b6d16160e01b82526001600160a01b03169063b0b6d16190610c69908990600401611381565b600060405180830381600087803b158015610c8357600080fd5b505af1158015610c97573d6000803e3d6000fd5b50505050600f85604051610cab9190611036565b908152604080519182900360209081018320546001600160a01b03888116600090815260109093529290912080546001600160a01b031916929091169190911790557f63a6215c2d4b06bd0b74656dbfc6eb1fc9aa6029fbb18ebb4243d524217c672a90610d1e9088908890889061138a565b60405180910390a1505050505050565b60008054604051630e03c03b60e01b81526001600160a01b0390911690630e03c03b90610d5f903390600401611052565b60206040518083038186803b158015610d7757600080fd5b505afa158015610d8b573d6000803e3d6000fd5b505050506040513d601f19601f82011682018060405250810190610daf9190610f8c565b905090565b6001600160a01b039081166000908152601060205260409020541690565b60405180610180016040528060006001600160a01b0316815260200160006001600160a01b03168152602001606081526020016060815260200160608152602001606081526020016060815260200160608152602001606081526020016060815260200160006001600160a01b03168152602001600081525090565b600082601f830112610e5e578081fd5b813567ffffffffffffffff80821115610e7957610e79611451565b604051601f8301601f191681016020018281118282101715610e9d57610e9d611451565b604052828152848301602001861015610eb4578384fd5b82602086016020830137918201602001929092529392505050565b600060208284031215610ee0578081fd5b8135610eeb81611467565b9392505050565b600060208284031215610f03578081fd5b8151610eeb81611467565b600060208284031215610f1f578081fd5b813567ffffffffffffffff811115610f35578182fd5b610f4184828501610e4e565b949350505050565b60008060408385031215610f5b578081fd5b823567ffffffffffffffff811115610f71578182fd5b610f7d85828601610e4e565b95602094909401359450505050565b600060208284031215610f9d578081fd5b5051919050565b600080600060608486031215610fb8578081fd5b83359250602084013567ffffffffffffffff811115610fd5578182fd5b610fe186828701610e4e565b9250506040840135610ff281611467565b809150509250925092565b6001600160a01b03169052565b600081518084526110228160208601602086016113e6565b601f01601f19169290920160200192915050565b600082516110488184602087016113e6565b9190910192915050565b6001600160a01b0391909116815260200190565b6001600160a01b0392831681529116602082015260400190565b6001600160a01b039384168152919092166020820152604081019190915260600190565b6000604082526110b7604083018561100a565b90508260208301529392505050565b6020808252602d908201527f456c20636f6d65726369616c697a61646f72206465626520736572206465207460408201526c34b8379023b2b732b930b237b960991b606082015260800190565b6020808252601c908201527f4e6f207469656e657320746f6b656e7320737566696369656e74657300000000604082015260600190565b60208082526037908201527f456c207469706f20646520656e65726769612c206e6f20736520656e6375656e60408201527f7472612064656e74726f2064656c20636174616c6f676f000000000000000000606082015260800190565b6020808252602e908201527f4e6f207469656e65207065726d69736f73207061726120656a6563757461722060408201526d3630903a3930b739b0b1b1b4b7b760911b606082015260800190565b6020808252602d908201527f4e6f20707565646520636f6d70726172206d617320656e65726769612064652060408201526c6c6120646973706f6e69626c6560981b606082015260800190565b600060208252611256602083018451610ffd565b60208301516112686040840182610ffd565b5060408301516101808060608501526112856101a085018361100a565b91506060850151601f19808685030160808701526112a3848361100a565b935060808701519150808685030160a08701526112c0848361100a565b935060a08701519150808685030160c08701526112dd848361100a565b935060c08701519150808685030160e08701526112fa848361100a565b935060e08701519150610100818786030181880152611319858461100a565b945080880151925050610120818786030181880152611338858461100a565b945080880151925050610140818786030181880152611357858461100a565b9450808801519250505061016061137081870183610ffd565b959095015193019290925250919050565b90815260200190565b6000848252606060208301526113a3606083018561100a565b905060018060a01b0383166040830152949350505050565b60008160001904831182151516156113e157634e487b7160e01b81526011600452602481fd5b500290565b60005b838110156114015781810151838201526020016113e9565b83811115611410576000848401525b50505050565b60028104600182168061142a57607f821691505b6020821081141561144b57634e487b7160e01b600052602260045260246000fd5b50919050565b634e487b7160e01b600052604160045260246000fd5b6001600160a01b038116811461147c57600080fd5b5056fea264697066735822122070d6beee61a237529201bb7f224106b5d6e1d1504677a3de27bbad976547248464736f6c63430008000033600560c09081526439b7b630b960d91b60e0526080908152610140604052600661010090815265656f6c69636160d01b6101205260a052610044906000906002610057565b5034801561005157600080fd5b506101e0565b8280548282559060005260206000209081019282156100a4579160200282015b828111156100a457825180516100949184916020909101906100b4565b5091602001919060010190610077565b506100b0929150610134565b5090565b8280546100c0906101a5565b90600052602060002090601f0160209004810192826100e25760008555610128565b82601f106100fb57805160ff1916838001178555610128565b82800160010185558215610128579182015b8281111561012857825182559160200191906001019061010d565b506100b0929150610151565b808211156100b05760006101488282610166565b50600101610134565b5b808211156100b05760008155600101610152565b508054610172906101a5565b6000825580601f1061018457506101a2565b601f0160209004906000526020600020908101906101a29190610151565b50565b6002810460018216806101b957607f821691505b602082108114156101da57634e487b7160e01b600052602260045260246000fd5b50919050565b611215806101ef6000396000f3fe608060405234801561001057600080fd5b50600436106100365760003560e01c8063259e75771461003b5780636d4fe5c714610064575b600080fd5b61004e610049366004610338565b610084565b60405161005b9190610473565b60405180910390f35b6100776100723660046103df565b61024b565b60405161005b9190610487565b6040516388d8da5f60e01b81526000908190819073__StringLibrary_________________________906388d8da5f906100c290889060040161049a565b60206040518083038186803b1580156100da57600080fd5b505af41580156100ee573d6000803e3d6000fd5b505050506040513d601f19601f820116820180604052508101906101129190610311565b156101565783604051610124906102f7565b61012e9190610562565b604051809103906000f08015801561014a573d6000803e3d6000fd5b5091506001905061021d565b6040516388d8da5f60e01b815273__StringLibrary_________________________906388d8da5f9061018d9088906004016104c6565b60206040518083038186803b1580156101a557600080fd5b505af41580156101b9573d6000803e3d6000fd5b505050506040513d601f19601f820116820180604052508101906101dd9190610311565b1561021d57836040516101ef90610304565b6101f99190610582565b604051809103906000f080158015610215573d6000803e3d6000fd5b509150600190505b806102435760405162461bcd60e51b815260040161023a906104ea565b60405180910390fd5b509392505050565b6000818154811061025b57600080fd5b90600052602060002001600091509050805461027690610594565b80601f01602080910402602001604051908101604052809291908181526020018280546102a290610594565b80156102ef5780601f106102c4576101008083540402835291602001916102ef565b820191906000526020600020905b8154815290600101906020018083116102d257829003601f168201915b505050505081565b6105fd806105e683390190565b6105fd80610be383390190565b600060208284031215610322578081fd5b81518015158114610331578182fd5b9392505050565b6000806040838503121561034a578081fd5b823567ffffffffffffffff80821115610361578283fd5b818501915085601f830112610374578283fd5b8135602082821115610388576103886105cf565b604051601f8301601f19168101820184811182821017156103ab576103ab6105cf565b60405282815284830182018910156103c1578586fd5b82828601838301379182018101949094529694909201359450505050565b6000602082840312156103f0578081fd5b5035919050565b60008151808452815b8181101561041c57602081850181015186830182015201610400565b8181111561042d5782602083870101525b50601f01601f19169290920160200192915050565b600581526439b7b630b960d91b602082015260400190565b6006815265656f6c69636160d01b602082015260400190565b6001600160a01b0391909116815260200190565b60006020825261033160208301846103f7565b6000604082526104ad60408301846103f7565b82810360208401526104be81610442565b949350505050565b6000604082526104d960408301846103f7565b82810360208401526104be8161045a565b60208082526052908201527f4e6f20657320756e207469706f20646520656e65726769612076616c69646f2c60408201527f206c6f73207469706f732076616c69646f7320736f6e3a20736f6c61722c20656060820152716f6c696361206f206869647261756c69636160701b608082015260a00190565b60006040825261057460408301610442565b905082602083015292915050565b6000604082526105746040830161045a565b6002810460018216806105a857607f821691505b602082108114156105c957634e487b7160e01b600052602260045260246000fd5b50919050565b634e487b7160e01b600052604160045260246000fdfe608060405234801561001057600080fd5b506040516105fd3803806105fd83398101604081905261002f916100e5565b815161004290600090602085019061004c565b5060025550610200565b828054610058906101af565b90600052602060002090601f01602090048101928261007a57600085556100c0565b82601f1061009357805160ff19168380011785556100c0565b828001600101855582156100c0579182015b828111156100c05782518255916020019190600101906100a5565b506100cc9291506100d0565b5090565b5b808211156100cc57600081556001016100d1565b600080604083850312156100f7578182fd5b82516001600160401b038082111561010d578384fd5b818501915085601f830112610120578384fd5b815181811115610132576101326101ea565b6040516020601f8301601f1916820181018481118382101715610157576101576101ea565b604052828252848301810189101561016d578687fd5b8693505b8284101561018e5784840181015182850182015292830192610171565b8284111561019e57868184840101525b969096015195979596505050505050565b6002810460018216806101c357607f821691505b602082108114156101e457634e487b7160e01b600052602260045260246000fd5b50919050565b634e487b7160e01b600052604160045260246000fd5b6103ee8061020f6000396000f3fe608060405234801561001057600080fd5b50600436106100885760003560e01c8063bc7b35b21161005b578063bc7b35b2146100d0578063cb86d6e6146100e5578063f5a50589146100ed578063f7ac4af41461010057610088565b80639be0b8001461008d5780639e66e0f3146100ab578063ae4f7a4c146100b3578063b0b6d161146100bb575b600080fd5b610095610108565b6040516100a2919061032f565b60405180910390f35b61009561010e565b610095610114565b6100ce6100c93660046102c4565b61011a565b005b6100d8610131565b6040516100a291906102dc565b6100d86101bf565b6100ce6100fb3660046102c4565b610251565b610095610261565b60025490565b60015481565b60025481565b60025460009061012a9083610266565b6002555050565b6000805461013e90610367565b80601f016020809104026020016040519081016040528092919081815260200182805461016a90610367565b80156101b75780601f1061018c576101008083540402835291602001916101b7565b820191906000526020600020905b81548152906001019060200180831161019a57829003601f168201915b505050505081565b6060600080546101ce90610367565b80601f01602080910402602001604051908101604052809291908181526020018280546101fa90610367565b80156102475780601f1061021c57610100808354040283529160200191610247565b820191906000526020600020905b81548152906001019060200180831161022a57829003601f168201915b5050505050905090565b60025460009061012a9083610297565b600390565b60008282111561028657634e487b7160e01b600052600160045260246000fd5b6102908284610350565b9392505050565b6000806102a48385610338565b90508381101561029057634e487b7160e01b600052600160045260246000fd5b6000602082840312156102d5578081fd5b5035919050565b6000602080835283518082850152825b81811015610308578581018301518582016040015282016102ec565b818111156103195783604083870101525b50601f01601f1916929092016040019392505050565b90815260200190565b6000821982111561034b5761034b6103a2565b500190565b600082821015610362576103626103a2565b500390565b60028104600182168061037b57607f821691505b6020821081141561039c57634e487b7160e01b600052602260045260246000fd5b50919050565b634e487b7160e01b600052601160045260246000fdfea2646970667358221220522a642ffda458c3b6d2087ad5c6ffbde8123f97b9141f11c750a44dcb8cc2db64736f6c63430008000033608060405234801561001057600080fd5b506040516105fd3803806105fd83398101604081905261002f916100e5565b815161004290600090602085019061004c565b5060025550610200565b828054610058906101af565b90600052602060002090601f01602090048101928261007a57600085556100c0565b82601f1061009357805160ff19168380011785556100c0565b828001600101855582156100c0579182015b828111156100c05782518255916020019190600101906100a5565b506100cc9291506100d0565b5090565b5b808211156100cc57600081556001016100d1565b600080604083850312156100f7578182fd5b82516001600160401b038082111561010d578384fd5b818501915085601f830112610120578384fd5b815181811115610132576101326101ea565b6040516020601f8301601f1916820181018481118382101715610157576101576101ea565b604052828252848301810189101561016d578687fd5b8693505b8284101561018e5784840181015182850182015292830192610171565b8284111561019e57868184840101525b969096015195979596505050505050565b6002810460018216806101c357607f821691505b602082108114156101e457634e487b7160e01b600052602260045260246000fd5b50919050565b634e487b7160e01b600052604160045260246000fd5b6103ee8061020f6000396000f3fe608060405234801561001057600080fd5b50600436106100885760003560e01c8063bc7b35b21161005b578063bc7b35b2146100d0578063cb86d6e6146100e5578063f5a50589146100ed578063f7ac4af41461010057610088565b80639be0b8001461008d5780639e66e0f3146100ab578063ae4f7a4c146100b3578063b0b6d161146100bb575b600080fd5b610095610108565b6040516100a2919061032f565b60405180910390f35b61009561010e565b610095610114565b6100ce6100c93660046102c4565b61011a565b005b6100d8610131565b6040516100a291906102dc565b6100d86101bf565b6100ce6100fb3660046102c4565b610251565b610095610261565b60025490565b60015481565b60025481565b60025460009061012a9083610266565b6002555050565b6000805461013e90610367565b80601f016020809104026020016040519081016040528092919081815260200182805461016a90610367565b80156101b75780601f1061018c576101008083540402835291602001916101b7565b820191906000526020600020905b81548152906001019060200180831161019a57829003601f168201915b505050505081565b6060600080546101ce90610367565b80601f01602080910402602001604051908101604052809291908181526020018280546101fa90610367565b80156102475780601f1061021c57610100808354040283529160200191610247565b820191906000526020600020905b81548152906001019060200180831161022a57829003601f168201915b5050505050905090565b60025460009061012a9083610297565b600290565b60008282111561028657634e487b7160e01b600052600160045260246000fd5b6102908284610350565b9392505050565b6000806102a48385610338565b90508381101561029057634e487b7160e01b600052600160045260246000fd5b6000602082840312156102d5578081fd5b5035919050565b6000602080835283518082850152825b81811015610308578581018301518582016040015282016102ec565b818111156103195783604083870101525b50601f01601f1916929092016040019392505050565b90815260200190565b6000821982111561034b5761034b6103a2565b500190565b600082821015610362576103626103a2565b500390565b60028104600182168061037b57607f821691505b6020821081141561039c57634e487b7160e01b600052602260045260246000fd5b50919050565b634e487b7160e01b600052601160045260246000fdfea2646970667358221220ae17df97da482874c997dd27f5d737eb79494328e54686bdd4271c62b1375a6364736f6c63430008000033a2646970667358221220d99a428a72c6953f8d33181f6c65fc8baf03cd230ccf39605b8b02aaaf9de8de64736f6c63430008000033",
  "immutableReferences": {},
  "source": "// SPDX-License-Identifier: MIT\r\npragma solidity ^0.8.0;\r\npragma experimental ABIEncoderV2;\r\nimport \"./libraries/StringLibrary.sol\";\r\nimport \"./models/TipoEnergia.sol\";\r\nimport \"./TokenErc20/ERC20.sol\";\r\nimport \"./models/TipoEnergiaFactory.sol\";\r\nimport \"./models/InfoContrato.sol\";\r\nimport \"./models/Agente.sol\";\r\nimport \"./Comercializador.sol\";\r\n\r\ncontract Generador is Agente {\r\n    TipoEnergiaFactory private factoryEnergia;\r\n    mapping(string => TipoEnergia) private tiposEnergiasGenerador;\r\n    mapping(address => TipoEnergia) private EnergiasComprador;\r\n    using StringLibrary for string;\r\n\r\n    //Evento de compra de tokens\r\n    event compraEnergia(uint256, string, address);\r\n\r\n    constructor(InfoContrato memory _infoContrato, address _reguladorMercado) {\r\n        reguladorMercado = _reguladorMercado;\r\n        infoContrato = InfoContrato(\r\n            address(this),\r\n            _infoContrato.owner,\r\n            _infoContrato.nit,\r\n            _infoContrato.empresa,\r\n            _infoContrato.contacto,\r\n            _infoContrato.telefono,\r\n            _infoContrato.correo,\r\n            _infoContrato.departamento,\r\n            _infoContrato.ciudad,\r\n            _infoContrato.direccion,\r\n            nullAddress,\r\n            _infoContrato.tipoComercio\r\n        );\r\n        factoryEnergia = new TipoEnergiaFactory();\r\n    }\r\n\r\n    function GenerarNuevaEnergia(\r\n        string memory nombreTipoEnergia,\r\n        uint256 _cantidadEnergia\r\n    ) public authorize(msg.sender) {\r\n        tiposEnergiasGenerador[nombreTipoEnergia] = factoryEnergia\r\n            .generarNuevaEnergia(nombreTipoEnergia, _cantidadEnergia);\r\n    }\r\n\r\n    //_dirOwnerContrato, direccion del owner del cliente\r\n    function ComprarEnergia(\r\n        uint256 cantidadEnergia,\r\n        string memory tipoEnergia,\r\n        address _dirOwnerContrato\r\n    ) public {\r\n        //Verificar que el tipo de energia exista\r\n        address dirTipoEnergia = address(tiposEnergiasGenerador[tipoEnergia]);\r\n        require(\r\n            dirTipoEnergia != nullAddress,\r\n            \"El tipo de energia, no se encuentra dentro del catalogo\"\r\n        );\r\n\r\n        //Comprobar que la cantiadad de energia solicitada no supere la producida\r\n        uint256 cantidadEnergiaDisponible = tiposEnergiasGenerador[tipoEnergia]\r\n            .getCantidadEnergia();\r\n        require(\r\n            cantidadEnergiaDisponible >= cantidadEnergia,\r\n            \"No puede comprar mas energia de la disponible\"\r\n        );\r\n\r\n        //Caluclar el coste de la energia\r\n        uint256 costeEnergia = cantidadEnergia *\r\n            tiposEnergiasGenerador[tipoEnergia].calcularPrecio();\r\n        //Verficar que el comprador cuente con fondos suficientes\r\n        require(\r\n            costeEnergia <=\r\n                ReguladorMercado(reguladorMercado).MisTokens(_dirOwnerContrato),\r\n            \"No tienes tokens suficientes\"\r\n        );\r\n\r\n        //Transferencia de los tokens al owner del contrato\r\n        ReguladorMercado(reguladorMercado).IntercambiarTokens(\r\n            _dirOwnerContrato,\r\n            infoContrato.owner,\r\n            costeEnergia\r\n        );\r\n\r\n        //Descontar la energia disponible\r\n        tiposEnergiasGenerador[tipoEnergia].restarCantidadEnergia(\r\n            cantidadEnergia\r\n        );\r\n        EnergiasComprador[_dirOwnerContrato] = tiposEnergiasGenerador[\r\n            tipoEnergia\r\n        ];\r\n        emit compraEnergia(cantidadEnergia, tipoEnergia, _dirOwnerContrato);\r\n    }\r\n\r\n    function getTipoEnergia(string memory _tipoEnergia)\r\n        public\r\n        view\r\n        returns (TipoEnergia)\r\n    {\r\n        return tiposEnergiasGenerador[_tipoEnergia];\r\n    }\r\n\r\n    function getCantidadEnergia(string memory _tipoEnergia)\r\n        public\r\n        view\r\n        returns (uint256)\r\n    {\r\n        return tiposEnergiasGenerador[_tipoEnergia].getCantidadEnergia();\r\n    }\r\n\r\n    function getEnergiaComprador(address _dirOwnerContrato)\r\n        public\r\n        view\r\n        returns (TipoEnergia)\r\n    {\r\n        return EnergiasComprador[_dirOwnerContrato];\r\n    }\r\n\r\n    function contratarComercializador(address _contratoComercializador)\r\n        public\r\n        authorize(msg.sender)\r\n    {\r\n        uint256 tipoComercializador = Comercializador(_contratoComercializador)\r\n            .getTipoContrato();\r\n        require(\r\n            tipoComercializador == 1,\r\n            \"El comercializador debe ser de tipo Generador\"\r\n        );\r\n        infoContrato.comercializador = _contratoComercializador;\r\n        Comercializador(_contratoComercializador).setClientesComercializador(\r\n            msg.sender,\r\n            infoContrato.owner\r\n        );\r\n    }\r\n}\r\n",
  "sourcePath": "D:\\Santiago\\BlockChain\\DemoMvmTruffle\\contracts\\Generador.sol",
  "compiler": {
    "name": "solc",
    "version": "0.8.0+commit.c7dfd78e.Emscripten.clang"
  },
  "schemaVersion": "3.4.4",
  "updatedAt": "2022-07-12T16:03:38.386Z",
  "networkType": "ethereum",
  "devdoc": {
    "kind": "dev",
    "methods": {},
    "version": 1
  },
  "userdoc": {
    "kind": "user",
    "methods": {},
    "version": 1
  }
}