{
  "contractName": "MvmClienteFactory",
  "abi": [
    {
      "inputs": [
        {
          "internalType": "address",
          "name": "_reguladorMercado",
          "type": "address"
        }
      ],
      "stateMutability": "nonpayable",
      "type": "constructor"
    },
    {
      "anonymous": false,
      "inputs": [
        {
          "indexed": false,
          "internalType": "string",
          "name": "",
          "type": "string"
        },
        {
          "indexed": false,
          "internalType": "address",
          "name": "",
          "type": "address"
        }
      ],
      "name": "Creacion",
      "type": "event"
    },
    {
      "inputs": [
        {
          "internalType": "address",
          "name": "",
          "type": "address"
        }
      ],
      "name": "DirContratosClientes",
      "outputs": [
        {
          "internalType": "address",
          "name": "",
          "type": "address"
        }
      ],
      "stateMutability": "view",
      "type": "function",
      "constant": true
    },
    {
      "inputs": [],
      "name": "dirContrato",
      "outputs": [
        {
          "internalType": "address",
          "name": "",
          "type": "address"
        }
      ],
      "stateMutability": "view",
      "type": "function",
      "constant": true
    },
    {
      "inputs": [],
      "name": "direccionRegistrada",
      "outputs": [
        {
          "internalType": "bool",
          "name": "",
          "type": "bool"
        }
      ],
      "stateMutability": "view",
      "type": "function",
      "constant": true
    },
    {
      "inputs": [],
      "name": "getContratosOwners",
      "outputs": [
        {
          "components": [
            {
              "internalType": "address",
              "name": "dirContrato",
              "type": "address"
            },
            {
              "internalType": "address",
              "name": "owner",
              "type": "address"
            },
            {
              "internalType": "string",
              "name": "nit",
              "type": "string"
            },
            {
              "internalType": "string",
              "name": "empresa",
              "type": "string"
            },
            {
              "internalType": "string",
              "name": "contacto",
              "type": "string"
            },
            {
              "internalType": "string",
              "name": "telefono",
              "type": "string"
            },
            {
              "internalType": "string",
              "name": "correo",
              "type": "string"
            },
            {
              "internalType": "string",
              "name": "departamento",
              "type": "string"
            },
            {
              "internalType": "string",
              "name": "ciudad",
              "type": "string"
            },
            {
              "internalType": "string",
              "name": "direccion",
              "type": "string"
            },
            {
              "internalType": "address",
              "name": "comercializador",
              "type": "address"
            },
            {
              "internalType": "uint256",
              "name": "tipoComercio",
              "type": "uint256"
            }
          ],
          "internalType": "struct InfoContrato[]",
          "name": "",
          "type": "tuple[]"
        }
      ],
      "stateMutability": "view",
      "type": "function",
      "constant": true
    },
    {
      "inputs": [],
      "name": "owner",
      "outputs": [
        {
          "internalType": "address",
          "name": "",
          "type": "address"
        }
      ],
      "stateMutability": "view",
      "type": "function",
      "constant": true
    },
    {
      "inputs": [],
      "name": "reguladorMercado",
      "outputs": [
        {
          "internalType": "address",
          "name": "",
          "type": "address"
        }
      ],
      "stateMutability": "view",
      "type": "function",
      "constant": true
    },
    {
      "inputs": [
        {
          "components": [
            {
              "internalType": "address",
              "name": "dirContrato",
              "type": "address"
            },
            {
              "internalType": "address",
              "name": "owner",
              "type": "address"
            },
            {
              "internalType": "string",
              "name": "nit",
              "type": "string"
            },
            {
              "internalType": "string",
              "name": "empresa",
              "type": "string"
            },
            {
              "internalType": "string",
              "name": "contacto",
              "type": "string"
            },
            {
              "internalType": "string",
              "name": "telefono",
              "type": "string"
            },
            {
              "internalType": "string",
              "name": "correo",
              "type": "string"
            },
            {
              "internalType": "string",
              "name": "departamento",
              "type": "string"
            },
            {
              "internalType": "string",
              "name": "ciudad",
              "type": "string"
            },
            {
              "internalType": "string",
              "name": "direccion",
              "type": "string"
            },
            {
              "internalType": "address",
              "name": "comercializador",
              "type": "address"
            },
            {
              "internalType": "uint256",
              "name": "tipoComercio",
              "type": "uint256"
            }
          ],
          "internalType": "struct InfoContrato",
          "name": "_infoContrato",
          "type": "tuple"
        }
      ],
      "name": "FactoryContrato",
      "outputs": [],
      "stateMutability": "nonpayable",
      "type": "function"
    }
  ],
  "bytecode": "0x608060405234801561001057600080fd5b5060405161301138038061301183398101604081905261002f9161006d565b600080546001600160a01b0319908116331790915560018054821630179055600280546001600160a01b03939093169290911691909117905561009b565b60006020828403121561007e578081fd5b81516001600160a01b0381168114610094578182fd5b9392505050565b612f67806100aa6000396000f3fe60806040523480156200001157600080fd5b5060043610620000885760003560e01c806365cd10e7116200006357806365cd10e714620000e15780637eb5a6881462000107578063856788df14620001115780638da5cb5b146200011b5762000088565b8063037ad4dd146200008d5780633607329d14620000a65780634cdbdb6d14620000c8575b600080fd5b620000a46200009e36600462000d88565b62000125565b005b620000b06200054c565b604051620000bf91906200155a565b60405180910390f35b620000d2620005e5565b604051620000bf9190620014f6565b620000f8620000f236600462000d21565b62000b5d565b604051620000bf919062001346565b620000f862000b78565b620000f862000b87565b620000f862000b96565b600260009054906101000a90046001600160a01b03166001600160a01b031663893d20e86040518163ffffffff1660e01b815260040160206040518083038186803b1580156200017457600080fd5b505afa15801562000189573d6000803e3d6000fd5b505050506040513d601f19601f82011682018060405250810190620001af919062000d47565b6001600160a01b0316336001600160a01b031614620001eb5760405162461bcd60e51b8152600401620001e290620015bf565b60405180910390fd5b604051635010ecc560e01b815273__Validations___________________________90635010ecc590620002279033906003906004016200135a565b60206040518083038186803b1580156200024057600080fd5b505af415801562000255573d6000803e3d6000fd5b505050506040513d601f19601f820116820180604052508101906200027b919062000d66565b6200029a5760405162461bcd60e51b8152600401620001e29062001591565b60025460405182916001600160a01b031690620002b79062000ba5565b620002c492919062001605565b604051809103906000f080158015620002e1573d6000803e3d6000fd5b5033600090815260046020819052604080832080546001600160a01b0319166001600160a01b0395861617908190558151634df073e760e11b815291516003959190911693639be0e7ce9383810193919291829003018186803b1580156200034857600080fd5b505afa1580156200035d573d6000803e3d6000fd5b505050506040513d6000823e601f3d908101601f1916820160405262000387919081019062000f58565b81546001818101845560009384526020938490208351600c9093020180546001600160a01b039384166001600160a01b0319918216178255858501519282018054939094169216919091179091556040820151805192939192620003f2926002850192019062000bb3565b50606082015180516200041091600384019160209091019062000bb3565b50608082015180516200042e91600484019160209091019062000bb3565b5060a082015180516200044c91600584019160209091019062000bb3565b5060c082015180516200046a91600684019160209091019062000bb3565b5060e082015180516200048891600784019160209091019062000bb3565b506101008201518051620004a791600884019160209091019062000bb3565b506101208201518051620004c691600984019160209091019062000bb3565b50610140820151600a820180546001600160a01b0319166001600160a01b0392831617905561016090920151600b90910155606082015133600090815260046020526040908190205490517f35671b86a8a0b2b88538732ff30f9073d71b6400e3e4fe564003bc8220b8a11793620005419392169062001565565b60405180910390a150565b604051635010ecc560e01b815260009073__Validations___________________________90635010ecc5906200058b9033906003906004016200135a565b60206040518083038186803b158015620005a457600080fd5b505af4158015620005b9573d6000803e3d6000fd5b505050506040513d601f19601f82011682018060405250810190620005df919062000d66565b15905090565b60606003805480602002602001604051908101604052809291908181526020016000905b8282101562000b545760008481526020908190206040805161018081018252600c860290920180546001600160a01b03908116845260018201541693830193909352600283018054929392918401916200066390620016c6565b80601f01602080910402602001604051908101604052809291908181526020018280546200069190620016c6565b8015620006e25780601f10620006b657610100808354040283529160200191620006e2565b820191906000526020600020905b815481529060010190602001808311620006c457829003601f168201915b50505050508152602001600382018054620006fd90620016c6565b80601f01602080910402602001604051908101604052809291908181526020018280546200072b90620016c6565b80156200077c5780601f1062000750576101008083540402835291602001916200077c565b820191906000526020600020905b8154815290600101906020018083116200075e57829003601f168201915b505050505081526020016004820180546200079790620016c6565b80601f0160208091040260200160405190810160405280929190818152602001828054620007c590620016c6565b8015620008165780601f10620007ea5761010080835404028352916020019162000816565b820191906000526020600020905b815481529060010190602001808311620007f857829003601f168201915b505050505081526020016005820180546200083190620016c6565b80601f01602080910402602001604051908101604052809291908181526020018280546200085f90620016c6565b8015620008b05780601f106200088457610100808354040283529160200191620008b0565b820191906000526020600020905b8154815290600101906020018083116200089257829003601f168201915b50505050508152602001600682018054620008cb90620016c6565b80601f0160208091040260200160405190810160405280929190818152602001828054620008f990620016c6565b80156200094a5780601f106200091e576101008083540402835291602001916200094a565b820191906000526020600020905b8154815290600101906020018083116200092c57829003601f168201915b505050505081526020016007820180546200096590620016c6565b80601f01602080910402602001604051908101604052809291908181526020018280546200099390620016c6565b8015620009e45780601f10620009b857610100808354040283529160200191620009e4565b820191906000526020600020905b815481529060010190602001808311620009c657829003601f168201915b50505050508152602001600882018054620009ff90620016c6565b80601f016020809104026020016040519081016040528092919081815260200182805462000a2d90620016c6565b801562000a7e5780601f1062000a525761010080835404028352916020019162000a7e565b820191906000526020600020905b81548152906001019060200180831162000a6057829003601f168201915b5050505050815260200160098201805462000a9990620016c6565b80601f016020809104026020016040519081016040528092919081815260200182805462000ac790620016c6565b801562000b185780601f1062000aec5761010080835404028352916020019162000b18565b820191906000526020600020905b81548152906001019060200180831162000afa57829003601f168201915b5050509183525050600a8201546001600160a01b0316602080830191909152600b90920154604090910152908252600192909201910162000609565b50505050905090565b6004602052600090815260409020546001600160a01b031681565b6002546001600160a01b031681565b6001546001600160a01b031681565b6000546001600160a01b031681565b6117ff806200173383390190565b82805462000bc190620016c6565b90600052602060002090601f01602090048101928262000be5576000855562000c30565b82601f1062000c0057805160ff191683800117855562000c30565b8280016001018555821562000c30579182015b8281111562000c3057825182559160200191906001019062000c13565b5062000c3e92915062000c42565b5090565b5b8082111562000c3e576000815560010162000c43565b803562000c668162001719565b919050565b805162000c668162001719565b600082601f83011262000c89578081fd5b813562000ca062000c9a8262001647565b6200161a565b81815284602083860101111562000cb5578283fd5b816020850160208301379081016020019190915292915050565b600082601f83011262000ce0578081fd5b815162000cf162000c9a8262001647565b81815284602083860101111562000d06578283fd5b62000d1982602083016020870162001693565b949350505050565b60006020828403121562000d33578081fd5b813562000d408162001719565b9392505050565b60006020828403121562000d59578081fd5b815162000d408162001719565b60006020828403121562000d78578081fd5b8151801515811462000d40578182fd5b60006020828403121562000d9a578081fd5b813567ffffffffffffffff8082111562000db2578283fd5b818401915061018080838703121562000dc9578384fd5b62000dd4816200161a565b905062000de18362000c59565b815262000df16020840162000c59565b602082015260408301358281111562000e08578485fd5b62000e168782860162000c78565b60408301525060608301358281111562000e2e578485fd5b62000e3c8782860162000c78565b60608301525060808301358281111562000e54578485fd5b62000e628782860162000c78565b60808301525060a08301358281111562000e7a578485fd5b62000e888782860162000c78565b60a08301525060c08301358281111562000ea0578485fd5b62000eae8782860162000c78565b60c08301525060e08301358281111562000ec6578485fd5b62000ed48782860162000c78565b60e083015250610100808401358381111562000eee578586fd5b62000efc8882870162000c78565b828401525050610120808401358381111562000f16578586fd5b62000f248882870162000c78565b828401525050610140915062000f3c82840162000c59565b9181019190915261016091820135918101919091529392505050565b60006020828403121562000f6a578081fd5b815167ffffffffffffffff8082111562000f82578283fd5b818401915061018080838703121562000f99578384fd5b62000fa4816200161a565b905062000fb18362000c6b565b815262000fc16020840162000c6b565b602082015260408301518281111562000fd8578485fd5b62000fe68782860162000ccf565b60408301525060608301518281111562000ffe578485fd5b6200100c8782860162000ccf565b60608301525060808301518281111562001024578485fd5b620010328782860162000ccf565b60808301525060a0830151828111156200104a578485fd5b620010588782860162000ccf565b60a08301525060c08301518281111562001070578485fd5b6200107e8782860162000ccf565b60c08301525060e08301518281111562001096578485fd5b620010a48782860162000ccf565b60e0830152506101008084015183811115620010be578586fd5b620010cc8882870162000ccf565b8284015250506101208084015183811115620010e6578586fd5b620010f48882870162000ccf565b82840152505061014091506200110c82840162000c6b565b9181019190915261016091820151918101919091529392505050565b6001600160a01b03169052565b600081518084526200114f81602086016020860162001693565b601f01601f19169290920160200192915050565b8054600090600281046001808316806200117e57607f831692505b60208084108214156200119f57634e487b7160e01b86526022600452602486fd5b620011ab84896200167e565b828015620011c25760018114620011d45762001203565b60ff1987168252828201975062001203565b620011df8962001672565b60005b87811015620011fd57815484820152908601908401620011e2565b83019850505b5050505050505092915050565b60006101806200122284845162001128565b602083015162001236602086018262001128565b506040830151816040860152620012508286018262001135565b915050606083015184820360608601526200126c828262001135565b9150506080830151848203608086015262001288828262001135565b91505060a083015184820360a0860152620012a4828262001135565b91505060c083015184820360c0860152620012c0828262001135565b91505060e083015184820360e0860152620012dc828262001135565b9150506101008084015185830382870152620012f9838262001135565b92505050610120808401518583038287015262001317838262001135565b9250505061014080840151620013308287018262001128565b5050610160928301519390920192909252919050565b6001600160a01b0391909116815260200190565b6000604080830160018060a01b03861684526020828186015281865480845260609350838701915083838202880101888752838720875b83811015620014e657605f198a8403018552610180620013bd84620013b7855462001687565b62001128565b620013cc600184015462001687565b620013da8886018262001128565b508089850152620013f18185016002850162001163565b90508381038885015262001409816003850162001163565b9050838103608085015262001422816004850162001163565b905083810360a08501526200143b816005850162001163565b905083810360c085015262001454816006850162001163565b905083810360e08501526200146d816007850162001163565b905083810361010085015262001487816008850162001163565b9050838103610120850152620014a1816009850162001163565b9050620014b2600a84015462001687565b620014c261014086018262001128565b50600b830154610160949094019390935293850193600c9091019060010162001391565b50909a9950505050505050505050565b6000602080830181845280855180835260408601915060408482028701019250838701855b828110156200154d57603f198886030184526200153a85835162001210565b945092850192908501906001016200151b565b5092979650505050505050565b901515815260200190565b6000604082526200157a604083018562001135565b905060018060a01b03831660208301529392505050565b602080825260149082015273456c20636c69656e74652079612065786973746560601b604082015260600190565b60208082526026908201527f4e6f207469656e65207065726d69736f73207061726120637265617220636f6e604082015265747261746f7360d01b606082015260800190565b6000604082526200157a604083018562001210565b60405181810167ffffffffffffffff811182821017156200163f576200163f62001703565b604052919050565b600067ffffffffffffffff82111562001664576200166462001703565b50601f01601f191660200190565b60009081526020902090565b90815260200190565b6001600160a01b031690565b60005b83811015620016b057818101518382015260200162001696565b83811115620016c0576000848401525b50505050565b600281046001821680620016db57607f821691505b60208210811415620016fd57634e487b7160e01b600052602260045260246000fd5b50919050565b634e487b7160e01b600052604160045260246000fd5b6001600160a01b03811681146200172f57600080fd5b5056fe6080604052600d80546001600160a01b03191690553480156200002157600080fd5b50604051620017ff380380620017ff83398101604081905262000044916200037c565b600080546001600160a01b038084166001600160a01b0319928316179092556040805161018081018252308082526020878101518616818401819052888501519484018590526060808a0151908501526080808a01519085015260a0808a01519085015260c0808a01519085015260e0808a0151908501526101008981015190850152610120808a015190850152600d54909616610140840152610160808901519084015260018054861690921782556002805490951690951790935581519093620001169260039291019062000228565b50606082015180516200013491600384019160209091019062000228565b50608082015180516200015291600484019160209091019062000228565b5060a082015180516200017091600584019160209091019062000228565b5060c082015180516200018e91600684019160209091019062000228565b5060e08201518051620001ac91600784019160209091019062000228565b506101008201518051620001cb91600884019160209091019062000228565b506101208201518051620001ea91600984019160209091019062000228565b50610140820151600a820180546001600160a01b0319166001600160a01b0390921691909117905561016090910151600b9091015550620005dd9050565b82805462000236906200058a565b90600052602060002090601f0160209004810192826200025a5760008555620002a5565b82601f106200027557805160ff1916838001178555620002a5565b82800160010185558215620002a5579182015b82811115620002a557825182559160200191906001019062000288565b50620002b3929150620002b7565b5090565b5b80821115620002b35760008155600101620002b8565b80516001600160a01b0381168114620002e657600080fd5b919050565b600082601f830112620002fc578081fd5b81516001600160401b03811115620003185762000318620005c7565b60206200032e601f8301601f191682016200055e565b828152858284870101111562000342578384fd5b835b838110156200036157858101830151828201840152820162000344565b838111156200037257848385840101525b5095945050505050565b600080604083850312156200038f578182fd5b82516001600160401b0380821115620003a6578384fd5b8185019150610180808388031215620003bd578485fd5b620003c8816200055e565b9050620003d583620002ce565b8152620003e560208401620002ce565b6020820152604083015182811115620003fc578586fd5b6200040a88828601620002eb565b60408301525060608301518281111562000422578586fd5b6200043088828601620002eb565b60608301525060808301518281111562000448578586fd5b6200045688828601620002eb565b60808301525060a0830151828111156200046e578586fd5b6200047c88828601620002eb565b60a08301525060c08301518281111562000494578586fd5b620004a288828601620002eb565b60c08301525060e083015182811115620004ba578586fd5b620004c888828601620002eb565b60e0830152506101008084015183811115620004e2578687fd5b620004f089828701620002eb565b82840152505061012080840151838111156200050a578687fd5b6200051889828701620002eb565b828401525050610140915062000530828401620002ce565b82820152610160915081830151828201528094505050506200055560208401620002ce565b90509250929050565b6040518181016001600160401b0381118282101715620005825762000582620005c7565b604052919050565b6002810460018216806200059f57607f821691505b60208210811415620005c157634e487b7160e01b600052602260045260246000fd5b50919050565b634e487b7160e01b600052604160045260246000fd5b61121280620005ed6000396000f3fe608060405234801561001057600080fd5b506004361061007d5760003560e01c80639be0e7ce1161005b5780639be0e7ce146100bd578063d0b58746146100d2578063e0817576146100f2578063e33f34a0146101055761007d565b8063551edf90146100825780637eb5a688146100a057806395965bda146100a8575b600080fd5b61008a61011a565b6040516100979190610ddb565b60405180910390f35b61008a610129565b6100bb6100b6366004610c9f565b610138565b005b6100c5610280565b604051610097919061101e565b6100e56100e0366004610ced565b610765565b604051610097919061115d565b6100bb610100366004610d28565b6109d4565b61010d610b02565b6040516100979190611182565b600d546001600160a01b031681565b6000546001600160a01b031681565b60025433906001600160a01b0316811461016d5760405162461bcd60e51b815260040161016490610fd0565b60405180910390fd5b6000826001600160a01b031663013643fd6040518163ffffffff1660e01b815260040160206040518083038186803b1580156101a857600080fd5b505afa1580156101bc573d6000803e3d6000fd5b505050506040513d601f19601f820116820180604052508101906101e09190610d6b565b9050806001146102025760405162461bcd60e51b815260040161016490610f85565b600b80546001600160a01b0319166001600160a01b038581169182179092556002546040516314dd7ae360e21b81529192635375eb8c926102499233921690600401610def565b600060405180830381600087803b15801561026357600080fd5b505af1158015610277573d6000803e3d6000fd5b50505050505050565b610288610b88565b6040805161018081018252600180546001600160a01b0390811683526002541660208301526003805492939192918401916102c29061118b565b80601f01602080910402602001604051908101604052809291908181526020018280546102ee9061118b565b801561033b5780601f106103105761010080835404028352916020019161033b565b820191906000526020600020905b81548152906001019060200180831161031e57829003601f168201915b505050505081526020016003820180546103549061118b565b80601f01602080910402602001604051908101604052809291908181526020018280546103809061118b565b80156103cd5780601f106103a2576101008083540402835291602001916103cd565b820191906000526020600020905b8154815290600101906020018083116103b057829003601f168201915b505050505081526020016004820180546103e69061118b565b80601f01602080910402602001604051908101604052809291908181526020018280546104129061118b565b801561045f5780601f106104345761010080835404028352916020019161045f565b820191906000526020600020905b81548152906001019060200180831161044257829003601f168201915b505050505081526020016005820180546104789061118b565b80601f01602080910402602001604051908101604052809291908181526020018280546104a49061118b565b80156104f15780601f106104c6576101008083540402835291602001916104f1565b820191906000526020600020905b8154815290600101906020018083116104d457829003601f168201915b5050505050815260200160068201805461050a9061118b565b80601f01602080910402602001604051908101604052809291908181526020018280546105369061118b565b80156105835780601f1061055857610100808354040283529160200191610583565b820191906000526020600020905b81548152906001019060200180831161056657829003601f168201915b5050505050815260200160078201805461059c9061118b565b80601f01602080910402602001604051908101604052809291908181526020018280546105c89061118b565b80156106155780601f106105ea57610100808354040283529160200191610615565b820191906000526020600020905b8154815290600101906020018083116105f857829003601f168201915b5050505050815260200160088201805461062e9061118b565b80601f016020809104026020016040519081016040528092919081815260200182805461065a9061118b565b80156106a75780601f1061067c576101008083540402835291602001916106a7565b820191906000526020600020905b81548152906001019060200180831161068a57829003601f168201915b505050505081526020016009820180546106c09061118b565b80601f01602080910402602001604051908101604052809291908181526020018280546106ec9061118b565b80156107395780601f1061070e57610100808354040283529160200191610739565b820191906000526020600020905b81548152906001019060200180831161071c57829003601f168201915b5050509183525050600a8201546001600160a01b03166020820152600b90910154604090910152905090565b61076d610c04565b6040516388d8da5f60e01b815273__StringLibrary_________________________906388d8da5f906107a4908590600401610e33565b60206040518083038186803b1580156107bc57600080fd5b505af41580156107d0573d6000803e3d6000fd5b505050506040513d601f19601f820116820180604052508101906107f49190610ccd565b158061088457506040516388d8da5f60e01b815273__StringLibrary_________________________906388d8da5f90610832908590600401610e6d565b60206040518083038186803b15801561084a57600080fd5b505af415801561085e573d6000803e3d6000fd5b505050506040513d601f19601f820116820180604052508101906108829190610ccd565b155b8061091357506040516388d8da5f60e01b815273__StringLibrary_________________________906388d8da5f906108c1908590600401610ea8565b60206040518083038186803b1580156108d957600080fd5b505af41580156108ed573d6000803e3d6000fd5b505050506040513d601f19601f820116820180604052508101906109119190610ccd565b155b156109305760405162461bcd60e51b815260040161016490610f09565b600b546002546040516356a5513960e01b81526000926001600160a01b03908116926356a55139926109689288921690600401610e09565b60206040518083038186803b15801561098057600080fd5b505afa158015610994573d6000803e3d6000fd5b505050506040513d601f19601f820116820180604052508101906109b89190610d6b565b6040805180820190915290815260208101849052915050919050565b60025433906001600160a01b03168114610a005760405162461bcd60e51b815260040161016490610fd0565b600b546001600160a01b0316610a285760405162461bcd60e51b815260040161016490610f40565b600b546040805163013643fd60e01b815290516001600160a01b039092169163013643fd91600480820192602092909190829003018186803b158015610a6d57600080fd5b505afa158015610a81573d6000803e3d6000fd5b505050506040513d601f19601f82011682018060405250810190610aa59190610d6b565b600114610ac45760405162461bcd60e51b815260040161016490610f85565b7faaa4328ecde636decad3cbfb3b155848fc6b72fac6d85f4b2d04d65e4ffce3fa8383604051610af5929190610ee7565b60405180910390a1505050565b60008054604051630e03c03b60e01b81526001600160a01b0390911690630e03c03b90610b33903390600401610ddb565b60206040518083038186803b158015610b4b57600080fd5b505afa158015610b5f573d6000803e3d6000fd5b505050506040513d601f19601f82011682018060405250810190610b839190610d6b565b905090565b60405180610180016040528060006001600160a01b0316815260200160006001600160a01b03168152602001606081526020016060815260200160608152602001606081526020016060815260200160608152602001606081526020016060815260200160006001600160a01b03168152602001600081525090565b604051806040016040528060008152602001606081525090565b600082601f830112610c2e578081fd5b813567ffffffffffffffff80821115610c4957610c496111c6565b604051601f8301601f191681016020018281118282101715610c6d57610c6d6111c6565b604052828152848301602001861015610c84578384fd5b82602086016020830137918201602001929092529392505050565b600060208284031215610cb0578081fd5b81356001600160a01b0381168114610cc6578182fd5b9392505050565b600060208284031215610cde578081fd5b81518015158114610cc6578182fd5b600060208284031215610cfe578081fd5b813567ffffffffffffffff811115610d14578182fd5b610d2084828501610c1e565b949350505050565b60008060408385031215610d3a578081fd5b823567ffffffffffffffff811115610d50578182fd5b610d5c85828601610c1e565b95602094909401359450505050565b600060208284031215610d7c578081fd5b5051919050565b6001600160a01b03169052565b60008151808452815b81811015610db557602081850181015186830182015201610d99565b81811115610dc65782602083870101525b50601f01601f19169290920160200192915050565b6001600160a01b0391909116815260200190565b6001600160a01b0392831681529116602082015260400190565b600060408252610e1c6040830185610d90565b905060018060a01b03831660208301529392505050565b600060408252610e466040830184610d90565b8281036020840152600581526439b7b630b960d91b60208201526040810191505092915050565b600060408252610e806040830184610d90565b82810360208401526006815265656f6c69636160d01b60208201526040810191505092915050565b600060408252610ebb6040830184610d90565b8281036020840152600a8152696869647261756c69636160b01b60208201526040810191505092915050565b600060408252610efa6040830185610d90565b90508260208301529392505050565b6020808252601f908201527f456c207469706f20646520656e6572676961206e6f2065732076616c69646f00604082015260600190565b60208082526025908201527f4e6f207469656e657320636f6e747261746f20646520636f6d65726369616c696040820152643d30b237b960d91b606082015260800190565b6020808252602b908201527f456c20636f6d65726369616c697a61646f72206465626520736572206465207460408201526a69706f20436c69656e746560a81b606082015260800190565b6020808252602e908201527f4e6f207469656e65207065726d69736f73207061726120656a6563757461722060408201526d3630903a3930b739b0b1b1b4b7b760911b606082015260800190565b600060208252611032602083018451610d83565b60208301516110446040840182610d83565b5060408301516101808060608501526110616101a0850183610d90565b91506060850151601f198086850301608087015261107f8483610d90565b935060808701519150808685030160a087015261109c8483610d90565b935060a08701519150808685030160c08701526110b98483610d90565b935060c08701519150808685030160e08701526110d68483610d90565b935060e087015191506101008187860301818801526110f58584610d90565b9450808801519250506101208187860301818801526111148584610d90565b9450808801519250506101408187860301818801526111338584610d90565b9450808801519250505061016061114c81870183610d83565b959095015193019290925250919050565b600060208252825160208301526020830151604080840152610d206060840182610d90565b90815260200190565b60028104600182168061119f57607f821691505b602082108114156111c057634e487b7160e01b600052602260045260246000fd5b50919050565b634e487b7160e01b600052604160045260246000fdfea264697066735822122060558e12ae4004c627825451067a21f920f2ed210c0eed1e312719f384ca648764736f6c63430008000033a26469706673582212200f69ded4cf2a818119b5811b30fed956f590385feef4c8959951807ab0053f8e64736f6c63430008000033",
  "immutableReferences": {},
  "source": "// SPDX-License-Identifier: MIT\r\npragma solidity ^0.8.0;\r\npragma experimental ABIEncoderV2;\r\nimport \"./models/InfoContrato.sol\";\r\nimport \"./models/Factory.sol\";\r\nimport \"./libraries/Validations.sol\";\r\nimport \"./Cliente.sol\";\r\n\r\ncontract MvmClienteFactory is Factory {\r\n    mapping(address => address) public DirContratosClientes;\r\n\r\n    constructor(address _reguladorMercado) {\r\n        owner = msg.sender;\r\n        dirContrato = address(this);\r\n        reguladorMercado = _reguladorMercado;\r\n    }\r\n\r\n    function FactoryContrato(InfoContrato memory _infoContrato)\r\n        public\r\n        override\r\n        canCreate\r\n    {\r\n        require(\r\n            Validations.aproveCreation(msg.sender, contratosOwners),\r\n            \"El cliente ya existe\"\r\n        );\r\n        DirContratosClientes[msg.sender] = address(\r\n            new Cliente(_infoContrato, reguladorMercado)\r\n        );\r\n\r\n        contratosOwners.push(\r\n            Cliente(DirContratosClientes[msg.sender]).getInfoContrato()\r\n        );\r\n        emit Creacion(_infoContrato.empresa, DirContratosClientes[msg.sender]);\r\n    }\r\n}\r\n",
  "sourcePath": "D:\\Santiago\\BlockChain\\DemoMvmTruffle\\contracts\\MvmClienteFactory.sol",
  "compiler": {
    "name": "solc",
    "version": "0.8.0+commit.c7dfd78e.Emscripten.clang"
  },
  "schemaVersion": "3.4.4",
  "updatedAt": "2022-07-06T19:07:40.089Z",
  "networkType": "ethereum",
  "devdoc": {
    "kind": "dev",
    "methods": {},
    "version": 1
  },
  "userdoc": {
    "kind": "user",
    "methods": {},
    "version": 1
  }
}