{
  "contractName": "MvmComercializadorFactory",
  "abi": [
    {
      "inputs": [
        {
          "internalType": "address",
          "name": "_reguladorMercado",
          "type": "address"
        }
      ],
      "stateMutability": "nonpayable",
      "type": "constructor"
    },
    {
      "anonymous": false,
      "inputs": [
        {
          "indexed": false,
          "internalType": "string",
          "name": "",
          "type": "string"
        },
        {
          "indexed": false,
          "internalType": "address",
          "name": "",
          "type": "address"
        }
      ],
      "name": "Creacion",
      "type": "event"
    },
    {
      "inputs": [
        {
          "internalType": "address",
          "name": "",
          "type": "address"
        }
      ],
      "name": "DirContratosComercializadores",
      "outputs": [
        {
          "internalType": "address",
          "name": "",
          "type": "address"
        }
      ],
      "stateMutability": "view",
      "type": "function",
      "constant": true
    },
    {
      "inputs": [
        {
          "internalType": "address",
          "name": "dir",
          "type": "address"
        }
      ],
      "name": "diligenciarContratoRegulador",
      "outputs": [],
      "stateMutability": "nonpayable",
      "type": "function"
    },
    {
      "inputs": [],
      "name": "dirContrato",
      "outputs": [
        {
          "internalType": "address",
          "name": "",
          "type": "address"
        }
      ],
      "stateMutability": "view",
      "type": "function",
      "constant": true
    },
    {
      "inputs": [],
      "name": "direccionRegistrada",
      "outputs": [
        {
          "internalType": "bool",
          "name": "",
          "type": "bool"
        }
      ],
      "stateMutability": "view",
      "type": "function",
      "constant": true
    },
    {
      "inputs": [],
      "name": "getContratosOwners",
      "outputs": [
        {
          "components": [
            {
              "internalType": "address",
              "name": "dirContrato",
              "type": "address"
            },
            {
              "internalType": "address",
              "name": "owner",
              "type": "address"
            },
            {
              "internalType": "string",
              "name": "nit",
              "type": "string"
            },
            {
              "internalType": "string",
              "name": "empresa",
              "type": "string"
            },
            {
              "internalType": "string",
              "name": "contacto",
              "type": "string"
            },
            {
              "internalType": "string",
              "name": "telefono",
              "type": "string"
            },
            {
              "internalType": "string",
              "name": "correo",
              "type": "string"
            },
            {
              "internalType": "string",
              "name": "departamento",
              "type": "string"
            },
            {
              "internalType": "string",
              "name": "ciudad",
              "type": "string"
            },
            {
              "internalType": "string",
              "name": "direccion",
              "type": "string"
            },
            {
              "internalType": "address",
              "name": "comercializador",
              "type": "address"
            },
            {
              "internalType": "uint256",
              "name": "tipoComercio",
              "type": "uint256"
            }
          ],
          "internalType": "struct InfoContrato[]",
          "name": "",
          "type": "tuple[]"
        }
      ],
      "stateMutability": "view",
      "type": "function",
      "constant": true
    },
    {
      "inputs": [],
      "name": "owner",
      "outputs": [
        {
          "internalType": "address",
          "name": "",
          "type": "address"
        }
      ],
      "stateMutability": "view",
      "type": "function",
      "constant": true
    },
    {
      "inputs": [],
      "name": "reguladorMercado",
      "outputs": [
        {
          "internalType": "address",
          "name": "",
          "type": "address"
        }
      ],
      "stateMutability": "view",
      "type": "function",
      "constant": true
    },
    {
      "inputs": [
        {
          "components": [
            {
              "internalType": "address",
              "name": "dirContrato",
              "type": "address"
            },
            {
              "internalType": "address",
              "name": "owner",
              "type": "address"
            },
            {
              "internalType": "string",
              "name": "nit",
              "type": "string"
            },
            {
              "internalType": "string",
              "name": "empresa",
              "type": "string"
            },
            {
              "internalType": "string",
              "name": "contacto",
              "type": "string"
            },
            {
              "internalType": "string",
              "name": "telefono",
              "type": "string"
            },
            {
              "internalType": "string",
              "name": "correo",
              "type": "string"
            },
            {
              "internalType": "string",
              "name": "departamento",
              "type": "string"
            },
            {
              "internalType": "string",
              "name": "ciudad",
              "type": "string"
            },
            {
              "internalType": "string",
              "name": "direccion",
              "type": "string"
            },
            {
              "internalType": "address",
              "name": "comercializador",
              "type": "address"
            },
            {
              "internalType": "uint256",
              "name": "tipoComercio",
              "type": "uint256"
            }
          ],
          "internalType": "struct InfoContrato",
          "name": "_infoContrato",
          "type": "tuple"
        }
      ],
      "name": "FactoryContrato",
      "outputs": [],
      "stateMutability": "nonpayable",
      "type": "function"
    },
    {
      "inputs": [
        {
          "internalType": "address",
          "name": "contractDir",
          "type": "address"
        },
        {
          "components": [
            {
              "internalType": "address",
              "name": "dirContrato",
              "type": "address"
            },
            {
              "internalType": "address",
              "name": "owner",
              "type": "address"
            },
            {
              "internalType": "string",
              "name": "nit",
              "type": "string"
            },
            {
              "internalType": "string",
              "name": "empresa",
              "type": "string"
            },
            {
              "internalType": "string",
              "name": "contacto",
              "type": "string"
            },
            {
              "internalType": "string",
              "name": "telefono",
              "type": "string"
            },
            {
              "internalType": "string",
              "name": "correo",
              "type": "string"
            },
            {
              "internalType": "string",
              "name": "departamento",
              "type": "string"
            },
            {
              "internalType": "string",
              "name": "ciudad",
              "type": "string"
            },
            {
              "internalType": "string",
              "name": "direccion",
              "type": "string"
            },
            {
              "internalType": "address",
              "name": "comercializador",
              "type": "address"
            },
            {
              "internalType": "uint256",
              "name": "tipoComercio",
              "type": "uint256"
            }
          ],
          "internalType": "struct InfoContrato[]",
          "name": "arrayContracts",
          "type": "tuple[]"
        }
      ],
      "name": "existeComercializador",
      "outputs": [
        {
          "internalType": "bool",
          "name": "",
          "type": "bool"
        }
      ],
      "stateMutability": "pure",
      "type": "function",
      "constant": true
    }
  ],
  "bytecode": "0x608060405234801561001057600080fd5b5060405162004b6438038062004b648339810160408190526100319161006f565b600080546001600160a01b0319908116331790915560018054821630179055600280546001600160a01b03939093169290911691909117905561009d565b600060208284031215610080578081fd5b81516001600160a01b0381168114610096578182fd5b9392505050565b614ab780620000ad6000396000f3fe60806040523480156200001157600080fd5b5060043610620000a05760003560e01c80637eb5a688116200006f5780637eb5a6881462000110578063856788df14620001295780638da5cb5b1462000133578063c2aa43cc146200013d578063c35b3c4c146200015457620000a0565b8063037ad4dd14620000a55780632455c02614620000be5780633607329d14620000d55780634cdbdb6d14620000f7575b600080fd5b620000bc620000b6366004620012af565b6200016b565b005b620000bc620000cf3660046200118f565b620005d4565b620000df6200076b565b604051620000ee919062001a88565b60405180910390f35b6200010162000804565b604051620000ee919062001a24565b6200011a62000d7c565b604051620000ee9190620016ed565b6200011a62000d8b565b6200011a62000d9a565b620000df6200014e366004620011cd565b62000da9565b6200011a620001653660046200118f565b62000e42565b600260009054906101000a90046001600160a01b03166001600160a01b031663893d20e86040518163ffffffff1660e01b815260040160206040518083038186803b158015620001ba57600080fd5b505afa158015620001cf573d6000803e3d6000fd5b505050506040513d601f19601f82011682018060405250810190620001f59190620011ae565b6001600160a01b0316336001600160a01b031614620002315760405162461bcd60e51b8152600401620002289062001abf565b60405180910390fd5b6020810151604051635010ecc560e01b815273__Validations___________________________91635010ecc59162000271919060039060040162001898565b60206040518083038186803b1580156200028a57600080fd5b505af41580156200029f573d6000803e3d6000fd5b505050506040513d601f19601f82011682018060405250810190620002c591906200128d565b620002e45760405162461bcd60e51b8152600401620002289062001b05565b60025460405182916001600160a01b031690620003019062000e5d565b6200030e92919062001b88565b604051809103906000f0801580156200032b573d6000803e3d6000fd5b50602082810180516001600160a01b0390811660009081526004909352604090922080546001600160a01b03191693909216929092179055516200036f90620005d4565b6020808201516001600160a01b0390811660009081526004928390526040808220548151634df073e760e11b815291516003959190941693639be0e7ce9383830193909290829003018186803b158015620003c957600080fd5b505afa158015620003de573d6000803e3d6000fd5b505050506040513d6000823e601f3d908101601f19168201604052620004089190810190620012e6565b81546001818101845560009384526020938490208351600c9093020180546001600160a01b039384166001600160a01b031991821617825585850151928201805493909416921691909117909155604082015180519293919262000473926002850192019062000e6b565b50606082015180516200049191600384019160209091019062000e6b565b5060808201518051620004af91600484019160209091019062000e6b565b5060a08201518051620004cd91600584019160209091019062000e6b565b5060c08201518051620004eb91600684019160209091019062000e6b565b5060e082015180516200050991600784019160209091019062000e6b565b5061010082015180516200052891600884019160209091019062000e6b565b5061012082015180516200054791600984019160209091019062000e6b565b50610140820151600a820180546001600160a01b0319166001600160a01b0392831617905561016090920151600b9091015560608201516020808401518316600090815260049091526040908190205490517f35671b86a8a0b2b88538732ff30f9073d71b6400e3e4fe564003bc8220b8a11793620005c99392169062001a93565b60405180910390a150565b6002546040516340fd3f3960e01b81526001600160a01b03909116906340fd3f399062000606908490600401620016ed565b60206040518083038186803b1580156200061f57600080fd5b505afa15801562000634573d6000803e3d6000fd5b505050506040513d601f19601f820116820180604052508101906200065a91906200128d565b620006795760405162461bcd60e51b8152600401620002289062001b5b565b600254604051630d098a3b60e01b81526000916001600160a01b031690630d098a3b90620006ac908590600401620016ed565b60206040518083038186803b158015620006c557600080fd5b505afa158015620006da573d6000803e3d6000fd5b505050506040513d601f19601f82011682018060405250810190620007009190620014b6565b600254604051634de2626760e01b81529192506001600160a01b031690634de26267906200073390849060040162001b9d565b600060405180830381600087803b1580156200074e57600080fd5b505af115801562000763573d6000803e3d6000fd5b505050505050565b604051635010ecc560e01b815260009073__Validations___________________________90635010ecc590620007aa90339060039060040162001898565b60206040518083038186803b158015620007c357600080fd5b505af4158015620007d8573d6000803e3d6000fd5b505050506040513d601f19601f82011682018060405250810190620007fe91906200128d565b15905090565b60606003805480602002602001604051908101604052809291908181526020016000905b8282101562000d735760008481526020908190206040805161018081018252600c860290920180546001600160a01b0390811684526001820154169383019390935260028301805492939291840191620008829062001c49565b80601f0160208091040260200160405190810160405280929190818152602001828054620008b09062001c49565b8015620009015780601f10620008d55761010080835404028352916020019162000901565b820191906000526020600020905b815481529060010190602001808311620008e357829003601f168201915b505050505081526020016003820180546200091c9062001c49565b80601f01602080910402602001604051908101604052809291908181526020018280546200094a9062001c49565b80156200099b5780601f106200096f576101008083540402835291602001916200099b565b820191906000526020600020905b8154815290600101906020018083116200097d57829003601f168201915b50505050508152602001600482018054620009b69062001c49565b80601f0160208091040260200160405190810160405280929190818152602001828054620009e49062001c49565b801562000a355780601f1062000a095761010080835404028352916020019162000a35565b820191906000526020600020905b81548152906001019060200180831162000a1757829003601f168201915b5050505050815260200160058201805462000a509062001c49565b80601f016020809104026020016040519081016040528092919081815260200182805462000a7e9062001c49565b801562000acf5780601f1062000aa35761010080835404028352916020019162000acf565b820191906000526020600020905b81548152906001019060200180831162000ab157829003601f168201915b5050505050815260200160068201805462000aea9062001c49565b80601f016020809104026020016040519081016040528092919081815260200182805462000b189062001c49565b801562000b695780601f1062000b3d5761010080835404028352916020019162000b69565b820191906000526020600020905b81548152906001019060200180831162000b4b57829003601f168201915b5050505050815260200160078201805462000b849062001c49565b80601f016020809104026020016040519081016040528092919081815260200182805462000bb29062001c49565b801562000c035780601f1062000bd75761010080835404028352916020019162000c03565b820191906000526020600020905b81548152906001019060200180831162000be557829003601f168201915b5050505050815260200160088201805462000c1e9062001c49565b80601f016020809104026020016040519081016040528092919081815260200182805462000c4c9062001c49565b801562000c9d5780601f1062000c715761010080835404028352916020019162000c9d565b820191906000526020600020905b81548152906001019060200180831162000c7f57829003601f168201915b5050505050815260200160098201805462000cb89062001c49565b80601f016020809104026020016040519081016040528092919081815260200182805462000ce69062001c49565b801562000d375780601f1062000d0b5761010080835404028352916020019162000d37565b820191906000526020600020905b81548152906001019060200180831162000d1957829003601f168201915b5050509183525050600a8201546001600160a01b0316602080830191909152600b90920154604090910152908252600192909201910162000828565b50505050905090565b6002546001600160a01b031681565b6001546001600160a01b031681565b6000546001600160a01b031681565b604051631c7ab85d60e21b815260009073__Validations___________________________906371eae1749062000de7908690869060040162001701565b60206040518083038186803b15801562000e0057600080fd5b505af415801562000e15573d6000803e3d6000fd5b505050506040513d601f19601f8201168201806040525081019062000e3b91906200128d565b9392505050565b6004602052600090815260409020546001600160a01b031681565b612dcc8062001cb683390190565b82805462000e799062001c49565b90600052602060002090601f01602090048101928262000e9d576000855562000ee8565b82601f1062000eb857805160ff191683800117855562000ee8565b8280016001018555821562000ee8579182015b8281111562000ee857825182559160200191906001019062000ecb565b5062000ef692915062000efa565b5090565b5b8082111562000ef6576000815560010162000efb565b803562000f1e8162001c9c565b919050565b805162000f1e8162001c9c565b600082601f83011262000f41578081fd5b813562000f5862000f528262001bd3565b62001ba6565b81815284602083860101111562000f6d578283fd5b816020850160208301379081016020019190915292915050565b600082601f83011262000f98578081fd5b815162000fa962000f528262001bd3565b81815284602083860101111562000fbe578283fd5b62000fd182602083016020870162001c16565b949350505050565b600061018080838503121562000fed578182fd5b62000ff88162001ba6565b915050620010068262000f11565b8152620010166020830162000f11565b6020820152604082013567ffffffffffffffff808211156200103757600080fd5b620010458583860162000f30565b604084015260608401359150808211156200105f57600080fd5b6200106d8583860162000f30565b606084015260808401359150808211156200108757600080fd5b620010958583860162000f30565b608084015260a0840135915080821115620010af57600080fd5b620010bd8583860162000f30565b60a084015260c0840135915080821115620010d757600080fd5b620010e58583860162000f30565b60c084015260e0840135915080821115620010ff57600080fd5b6200110d8583860162000f30565b60e0840152610100915081840135818111156200112957600080fd5b620011378682870162000f30565b8385015250610120915081840135818111156200115357600080fd5b620011618682870162000f30565b838501525050506101406200117881840162000f11565b818301525061016080830135818301525092915050565b600060208284031215620011a1578081fd5b813562000e3b8162001c9c565b600060208284031215620011c0578081fd5b815162000e3b8162001c9c565b60008060408385031215620011e0578081fd5b8235620011ed8162001c9c565b915060208381013567ffffffffffffffff808211156200120b578384fd5b818601915086601f8301126200121f578384fd5b81358181111562001234576200123462001c86565b62001243848583020162001ba6565b8181528481019250838501865b838110156200127d576200126a8b88843589010162000fd9565b8552938601939086019060010162001250565b5096999098509650505050505050565b6000602082840312156200129f578081fd5b8151801515811462000e3b578182fd5b600060208284031215620012c1578081fd5b813567ffffffffffffffff811115620012d8578182fd5b62000fd18482850162000fd9565b600060208284031215620012f8578081fd5b815167ffffffffffffffff8082111562001310578283fd5b818401915061018080838703121562001327578384fd5b620013328162001ba6565b90506200133f8362000f23565b81526200134f6020840162000f23565b602082015260408301518281111562001366578485fd5b620013748782860162000f87565b6040830152506060830151828111156200138c578485fd5b6200139a8782860162000f87565b606083015250608083015182811115620013b2578485fd5b620013c08782860162000f87565b60808301525060a083015182811115620013d8578485fd5b620013e68782860162000f87565b60a08301525060c083015182811115620013fe578485fd5b6200140c8782860162000f87565b60c08301525060e08301518281111562001424578485fd5b620014328782860162000f87565b60e08301525061010080840151838111156200144c578586fd5b6200145a8882870162000f87565b828401525050610120808401518381111562001474578586fd5b620014828882870162000f87565b82840152505061014091506200149a82840162000f23565b9181019190915261016091820151918101919091529392505050565b600060208284031215620014c8578081fd5b5051919050565b6001600160a01b03169052565b60008151808452620014f681602086016020860162001c16565b601f01601f19169290920160200192915050565b8054600090600281046001808316806200152557607f831692505b60208084108214156200154657634e487b7160e01b86526022600452602486fd5b62001552848962001b9d565b8280156200156957600181146200157b57620015aa565b60ff19871682528282019750620015aa565b620015868962001bfe565b60005b87811015620015a45781548482015290860190840162001589565b83019850505b5050505050505092915050565b6000610180620015c9848451620014cf565b6020830151620015dd6020860182620014cf565b506040830151816040860152620015f782860182620014dc565b91505060608301518482036060860152620016138282620014dc565b915050608083015184820360808601526200162f8282620014dc565b91505060a083015184820360a08601526200164b8282620014dc565b91505060c083015184820360c0860152620016678282620014dc565b91505060e083015184820360e0860152620016838282620014dc565b9150506101008084015185830382870152620016a08382620014dc565b925050506101208084015185830382870152620016be8382620014dc565b9250505061014080840151620016d782870182620014cf565b5050610160928301519390920192909252919050565b6001600160a01b0391909116815260200190565b6001600160a01b0383168152604060208083018290528351838301819052600092916060918286019080830287018401888401875b838110156200188857605f198a840301855281516101806200175a858351620014cf565b878201516200176c89870182620014cf565b5089820151818b8701526200178482870182620014dc565b915050888201518582038a8701526200179e8282620014dc565b91505060808083015186830382880152620017ba8382620014dc565b9250505060a08083015186830382880152620017d78382620014dc565b9250505060c08083015186830382880152620017f48382620014dc565b9250505060e08083015186830382880152620018118382620014dc565b9250505061010080830151868303828801526200182f8382620014dc565b9250505061012080830151868303828801526200184d8382620014dc565b92505050610140808301516200186682880182620014cf565b5050610160918201519490910193909352938501939085019060010162001736565b50909a9950505050505050505050565b6000604080830160018060a01b03861684526020828186015281865480845260609350838701915083838202880101888752838720875b838110156200188857605f198a8403018552610180620018fb84620018f5855462001c0a565b620014cf565b6200190a600184015462001c0a565b6200191888860182620014cf565b5080898501526200192f818501600285016200150a565b9050838103888501526200194781600385016200150a565b905083810360808501526200196081600485016200150a565b905083810360a08501526200197981600585016200150a565b905083810360c08501526200199281600685016200150a565b905083810360e0850152620019ab81600785016200150a565b9050838103610100850152620019c581600885016200150a565b9050838103610120850152620019df81600985016200150a565b9050620019f0600a84015462001c0a565b62001a00610140860182620014cf565b50600b830154610160949094019390935293850193600c90910190600101620018cf565b6000602080830181845280855180835260408601915060408482028701019250838701855b8281101562001a7b57603f1988860301845262001a68858351620015b7565b9450928501929085019060010162001a49565b5092979650505050505050565b901515815260200190565b60006040825262001aa86040830185620014dc565b905060018060a01b03831660208301529392505050565b60208082526026908201527f4e6f207469656e65207065726d69736f73207061726120637265617220636f6e604082015265747261746f7360d01b606082015260800190565b60208082526036908201527f556e6120646972656363696f6e206e6f2070756564652074656e6572206d6173604082015275103232903ab71031b7b6b2b931b4b0b634bd30b237b960511b606082015260800190565b602080825260139082015272139bc8195e1a5cdd19481cdbdb1a58da5d1d59606a1b604082015260600190565b60006040825262001aa86040830185620015b7565b90815260200190565b60405181810167ffffffffffffffff8111828210171562001bcb5762001bcb62001c86565b604052919050565b600067ffffffffffffffff82111562001bf05762001bf062001c86565b50601f01601f191660200190565b60009081526020902090565b6001600160a01b031690565b60005b8381101562001c3357818101518382015260200162001c19565b8381111562001c43576000848401525b50505050565b60028104600182168062001c5e57607f821691505b6020821081141562001c8057634e487b7160e01b600052602260045260246000fd5b50919050565b634e487b7160e01b600052604160045260246000fd5b6001600160a01b038116811462001cb257600080fd5b5056fe6080604052600d80546001600160a01b03191690553480156200002157600080fd5b5060405162002dcc38038062002dcc83398101604081905262000044916200042f565b600080546001600160a01b038084166001600160a01b0319928316179092556040805161018081018252308082526020878101518616818401819052888501519484018590526060808a0151908501526080808a01519085015260a0808a01519085015260c0808a01519085015260e0808a0151908501526101008981015190850152610120808a015190850152600d549096166101408401526101608089015190840152600180548616909217825560028054909516909517909355815190936200011692600392910190620002cd565b506060820151805162000134916003840191602090910190620002cd565b506080820151805162000152916004840191602090910190620002cd565b5060a0820151805162000170916005840191602090910190620002cd565b5060c082015180516200018e916006840191602090910190620002cd565b5060e08201518051620001ac916007840191602090910190620002cd565b506101008201518051620001cb916008840191602090910190620002cd565b506101208201518051620001ea916009840191602090910190620002cd565b50610140820151600a820180546001600160a01b0319166001600160a01b0390921691909117905561016091820151600b9091015582015160018111156200024257634e487b7160e01b600052602160045260246000fd5b6011805460ff60a01b1916600160a01b8360018111156200027357634e487b7160e01b600052602160045260246000fd5b021790555060405162000286906200035c565b604051809103906000f080158015620002a3573d6000803e3d6000fd5b50601180546001600160a01b0319166001600160a01b039290921691909117905550620006909050565b828054620002db906200063d565b90600052602060002090601f016020900481019282620002ff57600085556200034a565b82601f106200031a57805160ff19168380011785556200034a565b828001600101855582156200034a579182015b828111156200034a5782518255916020019190600101906200032d565b50620003589291506200036a565b5090565b61140480620019c883390190565b5b808211156200035857600081556001016200036b565b80516001600160a01b03811681146200039957600080fd5b919050565b600082601f830112620003af578081fd5b81516001600160401b03811115620003cb57620003cb6200067a565b6020620003e1601f8301601f1916820162000611565b8281528582848701011115620003f5578384fd5b835b8381101562000414578581018301518282018401528201620003f7565b838111156200042557848385840101525b5095945050505050565b6000806040838503121562000442578182fd5b82516001600160401b038082111562000459578384fd5b818501915061018080838803121562000470578485fd5b6200047b8162000611565b9050620004888362000381565b8152620004986020840162000381565b6020820152604083015182811115620004af578586fd5b620004bd888286016200039e565b604083015250606083015182811115620004d5578586fd5b620004e3888286016200039e565b606083015250608083015182811115620004fb578586fd5b62000509888286016200039e565b60808301525060a08301518281111562000521578586fd5b6200052f888286016200039e565b60a08301525060c08301518281111562000547578586fd5b62000555888286016200039e565b60c08301525060e0830151828111156200056d578586fd5b6200057b888286016200039e565b60e083015250610100808401518381111562000595578687fd5b620005a3898287016200039e565b8284015250506101208084015183811115620005bd578687fd5b620005cb898287016200039e565b8284015250506101409150620005e382840162000381565b8282015261016091508183015182820152809450505050620006086020840162000381565b90509250929050565b6040518181016001600160401b03811182821017156200063557620006356200067a565b604052919050565b6002810460018216806200065257607f821691505b602082108114156200067457634e487b7160e01b600052602260045260246000fd5b50919050565b634e487b7160e01b600052604160045260246000fd5b61132880620006a06000396000f3fe608060405234801561001057600080fd5b50600436106100a95760003560e01c8063810d87d211610071578063810d87d2146101115780638df45d9314610124578063922fcee9146101395780639be0e7ce1461014c578063e33f34a014610161578063ef3090e714610169576100a9565b8063013643fd146100ae5780635375eb8c146100cc578063551edf90146100e157806356a55139146100f65780637eb5a68814610109575b600080fd5b6100b661017e565b6040516100c3919061121f565b60405180910390f35b6100df6100da366004610cfb565b6101b2565b005b6100e961021c565b6040516100c39190610ee2565b6100b6610104366004610e30565b61022b565b6100e96102d3565b6100df61011f366004610d33565b6102e2565b61012c610621565b6040516100c39190610f9f565b6100df610147366004610d9d565b610631565b610154610636565b6040516100c391906110e0565b6100b6610b1b565b610171610b9c565b6040516100c39190610f52565b601154600090600160a01b900460ff1660018111156101ad57634e487b7160e01b600052602160045260246000fd5b905090565b6001600160a01b039081166000908152600f602052604081208054929093166001600160a01b03199283168117909355600e805460018101825591527fbb7b4a454dc3493923482f07822329ed19e8244eff582cc204f8554c3620c3fd0180549091169091179055565b600d546001600160a01b031681565b600060108360405161023d9190610ec6565b90815260408051602092819003830181206001600160a01b038681166000908152918552908390205462137c1760eb1b83529251921692639be0b80092600480840193829003018186803b15801561029457600080fd5b505afa1580156102a8573d6000803e3d6000fd5b505050506040513d601f19601f820116820180604052508101906102cc9190610e75565b9392505050565b6000546001600160a01b031681565b60025433906001600160a01b031681146103175760405162461bcd60e51b815260040161030e90611092565b60405180910390fd5b6001601154600160a01b900460ff16600181111561034557634e487b7160e01b600052602160045260246000fd5b146103625760405162461bcd60e51b815260040161030e90611035565b60405162e79c8360e31b815273__Validations___________________________9063073ce4189061039b908790600e90600401610ef6565b60206040518083038186803b1580156103b357600080fd5b505af41580156103c7573d6000803e3d6000fd5b505050506040513d601f19601f820116820180604052508101906103eb9190610df4565b6104075760405162461bcd60e51b815260040161030e90610fe9565b60405163cfa5784960e01b81526001600160a01b0386169063cfa578499061043790869086908990600401611228565b600060405180830381600087803b15801561045157600080fd5b505af1158015610465573d6000803e3d6000fd5b5050600d546040516001600160a01b03909116925060109150610489908590610ec6565b90815260408051602092819003830190206001600160a01b03888116600090815291909352205416141561058c5760115460405163259e757760e01b81526001600160a01b039091169063259e7577906104e99085908790600401610fc7565b602060405180830381600087803b15801561050357600080fd5b505af1158015610517573d6000803e3d6000fd5b505050506040513d601f19601f8201168201806040525081019061053b9190610e14565b60108360405161054b9190610ec6565b90815260408051602092819003830190206001600160a01b038881166000908152919093522080546001600160a01b0319169290911691909117905561061a565b60108260405161059c9190610ec6565b9081526040805191829003602090810183206001600160a01b03808916600090815291909252919091205463f5a5058960e01b8352169063f5a50589906105e790869060040161121f565b600060405180830381600087803b15801561060157600080fd5b505af1158015610615573d6000803e3d6000fd5b505050505b5050505050565b601154600160a01b900460ff1681565b505050565b61063e610bfe565b6040805161018081018252600180546001600160a01b03908116835260025416602083015260038054929391929184019161067890611289565b80601f01602080910402602001604051908101604052809291908181526020018280546106a490611289565b80156106f15780601f106106c6576101008083540402835291602001916106f1565b820191906000526020600020905b8154815290600101906020018083116106d457829003601f168201915b5050505050815260200160038201805461070a90611289565b80601f016020809104026020016040519081016040528092919081815260200182805461073690611289565b80156107835780601f1061075857610100808354040283529160200191610783565b820191906000526020600020905b81548152906001019060200180831161076657829003601f168201915b5050505050815260200160048201805461079c90611289565b80601f01602080910402602001604051908101604052809291908181526020018280546107c890611289565b80156108155780601f106107ea57610100808354040283529160200191610815565b820191906000526020600020905b8154815290600101906020018083116107f857829003601f168201915b5050505050815260200160058201805461082e90611289565b80601f016020809104026020016040519081016040528092919081815260200182805461085a90611289565b80156108a75780601f1061087c576101008083540402835291602001916108a7565b820191906000526020600020905b81548152906001019060200180831161088a57829003601f168201915b505050505081526020016006820180546108c090611289565b80601f01602080910402602001604051908101604052809291908181526020018280546108ec90611289565b80156109395780601f1061090e57610100808354040283529160200191610939565b820191906000526020600020905b81548152906001019060200180831161091c57829003601f168201915b5050505050815260200160078201805461095290611289565b80601f016020809104026020016040519081016040528092919081815260200182805461097e90611289565b80156109cb5780601f106109a0576101008083540402835291602001916109cb565b820191906000526020600020905b8154815290600101906020018083116109ae57829003601f168201915b505050505081526020016008820180546109e490611289565b80601f0160208091040260200160405190810160405280929190818152602001828054610a1090611289565b8015610a5d5780601f10610a3257610100808354040283529160200191610a5d565b820191906000526020600020905b815481529060010190602001808311610a4057829003601f168201915b50505050508152602001600982018054610a7690611289565b80601f0160208091040260200160405190810160405280929190818152602001828054610aa290611289565b8015610aef5780601f10610ac457610100808354040283529160200191610aef565b820191906000526020600020905b815481529060010190602001808311610ad257829003601f168201915b5050509183525050600a8201546001600160a01b03166020820152600b90910154604090910152905090565b60008054604051630e03c03b60e01b81526001600160a01b0390911690630e03c03b90610b4c903390600401610ee2565b60206040518083038186803b158015610b6457600080fd5b505afa158015610b78573d6000803e3d6000fd5b505050506040513d601f19601f820116820180604052508101906101ad9190610e75565b6060600e805480602002602001604051908101604052809291908181526020018280548015610bf457602002820191906000526020600020905b81546001600160a01b03168152600190910190602001808311610bd6575b5050505050905090565b60405180610180016040528060006001600160a01b0316815260200160006001600160a01b03168152602001606081526020016060815260200160608152602001606081526020016060815260200160608152602001606081526020016060815260200160006001600160a01b03168152602001600081525090565b600082601f830112610c8a578081fd5b813567ffffffffffffffff80821115610ca557610ca56112c4565b604051601f8301601f191681016020018281118282101715610cc957610cc96112c4565b604052828152848301602001861015610ce0578384fd5b82602086016020830137918201602001929092529392505050565b60008060408385031215610d0d578182fd5b8235610d18816112da565b91506020830135610d28816112da565b809150509250929050565b60008060008060808587031215610d48578182fd5b8435610d53816112da565b93506020850135610d63816112da565b925060408501359150606085013567ffffffffffffffff811115610d85578182fd5b610d9187828801610c7a565b91505092959194509250565b600080600060608486031215610db1578283fd5b8335610dbc816112da565b925060208401359150604084013567ffffffffffffffff811115610dde578182fd5b610dea86828701610c7a565b9150509250925092565b600060208284031215610e05578081fd5b815180151581146102cc578182fd5b600060208284031215610e25578081fd5b81516102cc816112da565b60008060408385031215610e42578182fd5b823567ffffffffffffffff811115610e58578283fd5b610e6485828601610c7a565b9250506020830135610d28816112da565b600060208284031215610e86578081fd5b5051919050565b6001600160a01b03169052565b60008151808452610eb2816020860160208601611259565b601f01601f19169290920160200192915050565b60008251610ed8818460208701611259565b9190910192915050565b6001600160a01b0391909116815260200190565b60006040820160018060a01b03808616845260206040818601528286548085526060870191508786528286209450855b81811015610f44578554851683526001958601959284019201610f26565b509098975050505050505050565b6020808252825182820181905260009190848201906040850190845b81811015610f935783516001600160a01b031683529284019291840191600101610f6e565b50909695505050505050565b6020810160028310610fc157634e487b7160e01b600052602160045260246000fd5b91905290565b600060408252610fda6040830185610e9a565b90508260208301529392505050565b6020808252602c908201527f456c20636c69656e7465206e6f20657320756e20636c69656e7465206465206560408201526b73746520636f6e747261746f60a01b606082015260800190565b6020808252603a908201527f536f6c6f206c6f7320636f6e747261746f7320646520636c69656e746520707560408201527f6564656e20656a65637574617220657374612066756e63696f6e000000000000606082015260800190565b6020808252602e908201527f4e6f207469656e65207065726d69736f73207061726120656a6563757461722060408201526d3630903a3930b739b0b1b1b4b7b760911b606082015260800190565b6000602082526110f4602083018451610e8d565b60208301516111066040840182610e8d565b5060408301516101808060608501526111236101a0850183610e9a565b91506060850151601f19808685030160808701526111418483610e9a565b935060808701519150808685030160a087015261115e8483610e9a565b935060a08701519150808685030160c087015261117b8483610e9a565b935060c08701519150808685030160e08701526111988483610e9a565b935060e087015191506101008187860301818801526111b78584610e9a565b9450808801519250506101208187860301818801526111d68584610e9a565b9450808801519250506101408187860301818801526111f58584610e9a565b9450808801519250505061016061120e81870183610e8d565b959095015193019290925250919050565b90815260200190565b6000848252606060208301526112416060830185610e9a565b905060018060a01b0383166040830152949350505050565b60005b8381101561127457818101518382015260200161125c565b83811115611283576000848401525b50505050565b60028104600182168061129d57607f821691505b602082108114156112be57634e487b7160e01b600052602260045260246000fd5b50919050565b634e487b7160e01b600052604160045260246000fd5b6001600160a01b03811681146112ef57600080fd5b5056fea2646970667358221220537dda64ea0773b8160eacb17209f3159b888b6960cc296c9e2d9df66b77422564736f6c63430008000033600560c09081526439b7b630b960d91b60e0526080908152610140604052600661010090815265656f6c69636160d01b6101205260a052610044906000906002610057565b5034801561005157600080fd5b506101e0565b8280548282559060005260206000209081019282156100a4579160200282015b828111156100a457825180516100949184916020909101906100b4565b5091602001919060010190610077565b506100b0929150610134565b5090565b8280546100c0906101a5565b90600052602060002090601f0160209004810192826100e25760008555610128565b82601f106100fb57805160ff1916838001178555610128565b82800160010185558215610128579182015b8281111561012857825182559160200191906001019061010d565b506100b0929150610151565b808211156100b05760006101488282610166565b50600101610134565b5b808211156100b05760008155600101610152565b508054610172906101a5565b6000825580601f1061018457506101a2565b601f0160209004906000526020600020908101906101a29190610151565b50565b6002810460018216806101b957607f821691505b602082108114156101da57634e487b7160e01b600052602260045260246000fd5b50919050565b611215806101ef6000396000f3fe608060405234801561001057600080fd5b50600436106100365760003560e01c8063259e75771461003b5780636d4fe5c714610064575b600080fd5b61004e610049366004610338565b610084565b60405161005b9190610473565b60405180910390f35b6100776100723660046103df565b61024b565b60405161005b9190610487565b6040516388d8da5f60e01b81526000908190819073__StringLibrary_________________________906388d8da5f906100c290889060040161049a565b60206040518083038186803b1580156100da57600080fd5b505af41580156100ee573d6000803e3d6000fd5b505050506040513d601f19601f820116820180604052508101906101129190610311565b156101565783604051610124906102f7565b61012e9190610562565b604051809103906000f08015801561014a573d6000803e3d6000fd5b5091506001905061021d565b6040516388d8da5f60e01b815273__StringLibrary_________________________906388d8da5f9061018d9088906004016104c6565b60206040518083038186803b1580156101a557600080fd5b505af41580156101b9573d6000803e3d6000fd5b505050506040513d601f19601f820116820180604052508101906101dd9190610311565b1561021d57836040516101ef90610304565b6101f99190610582565b604051809103906000f080158015610215573d6000803e3d6000fd5b509150600190505b806102435760405162461bcd60e51b815260040161023a906104ea565b60405180910390fd5b509392505050565b6000818154811061025b57600080fd5b90600052602060002001600091509050805461027690610594565b80601f01602080910402602001604051908101604052809291908181526020018280546102a290610594565b80156102ef5780601f106102c4576101008083540402835291602001916102ef565b820191906000526020600020905b8154815290600101906020018083116102d257829003601f168201915b505050505081565b6105fd806105e683390190565b6105fd80610be383390190565b600060208284031215610322578081fd5b81518015158114610331578182fd5b9392505050565b6000806040838503121561034a578081fd5b823567ffffffffffffffff80821115610361578283fd5b818501915085601f830112610374578283fd5b8135602082821115610388576103886105cf565b604051601f8301601f19168101820184811182821017156103ab576103ab6105cf565b60405282815284830182018910156103c1578586fd5b82828601838301379182018101949094529694909201359450505050565b6000602082840312156103f0578081fd5b5035919050565b60008151808452815b8181101561041c57602081850181015186830182015201610400565b8181111561042d5782602083870101525b50601f01601f19169290920160200192915050565b600581526439b7b630b960d91b602082015260400190565b6006815265656f6c69636160d01b602082015260400190565b6001600160a01b0391909116815260200190565b60006020825261033160208301846103f7565b6000604082526104ad60408301846103f7565b82810360208401526104be81610442565b949350505050565b6000604082526104d960408301846103f7565b82810360208401526104be8161045a565b60208082526052908201527f4e6f20657320756e207469706f20646520656e65726769612076616c69646f2c60408201527f206c6f73207469706f732076616c69646f7320736f6e3a20736f6c61722c20656060820152716f6c696361206f206869647261756c69636160701b608082015260a00190565b60006040825261057460408301610442565b905082602083015292915050565b6000604082526105746040830161045a565b6002810460018216806105a857607f821691505b602082108114156105c957634e487b7160e01b600052602260045260246000fd5b50919050565b634e487b7160e01b600052604160045260246000fdfe608060405234801561001057600080fd5b506040516105fd3803806105fd83398101604081905261002f916100e5565b815161004290600090602085019061004c565b5060025550610200565b828054610058906101af565b90600052602060002090601f01602090048101928261007a57600085556100c0565b82601f1061009357805160ff19168380011785556100c0565b828001600101855582156100c0579182015b828111156100c05782518255916020019190600101906100a5565b506100cc9291506100d0565b5090565b5b808211156100cc57600081556001016100d1565b600080604083850312156100f7578182fd5b82516001600160401b038082111561010d578384fd5b818501915085601f830112610120578384fd5b815181811115610132576101326101ea565b6040516020601f8301601f1916820181018481118382101715610157576101576101ea565b604052828252848301810189101561016d578687fd5b8693505b8284101561018e5784840181015182850182015292830192610171565b8284111561019e57868184840101525b969096015195979596505050505050565b6002810460018216806101c357607f821691505b602082108114156101e457634e487b7160e01b600052602260045260246000fd5b50919050565b634e487b7160e01b600052604160045260246000fd5b6103ee8061020f6000396000f3fe608060405234801561001057600080fd5b50600436106100885760003560e01c8063bc7b35b21161005b578063bc7b35b2146100d0578063cb86d6e6146100e5578063f5a50589146100ed578063f7ac4af41461010057610088565b80639be0b8001461008d5780639e66e0f3146100ab578063ae4f7a4c146100b3578063b0b6d161146100bb575b600080fd5b610095610108565b6040516100a2919061032f565b60405180910390f35b61009561010e565b610095610114565b6100ce6100c93660046102c4565b61011a565b005b6100d8610131565b6040516100a291906102dc565b6100d86101bf565b6100ce6100fb3660046102c4565b610251565b610095610261565b60025490565b60015481565b60025481565b60025460009061012a9083610266565b6002555050565b6000805461013e90610367565b80601f016020809104026020016040519081016040528092919081815260200182805461016a90610367565b80156101b75780601f1061018c576101008083540402835291602001916101b7565b820191906000526020600020905b81548152906001019060200180831161019a57829003601f168201915b505050505081565b6060600080546101ce90610367565b80601f01602080910402602001604051908101604052809291908181526020018280546101fa90610367565b80156102475780601f1061021c57610100808354040283529160200191610247565b820191906000526020600020905b81548152906001019060200180831161022a57829003601f168201915b5050505050905090565b60025460009061012a9083610297565b600390565b60008282111561028657634e487b7160e01b600052600160045260246000fd5b6102908284610350565b9392505050565b6000806102a48385610338565b90508381101561029057634e487b7160e01b600052600160045260246000fd5b6000602082840312156102d5578081fd5b5035919050565b6000602080835283518082850152825b81811015610308578581018301518582016040015282016102ec565b818111156103195783604083870101525b50601f01601f1916929092016040019392505050565b90815260200190565b6000821982111561034b5761034b6103a2565b500190565b600082821015610362576103626103a2565b500390565b60028104600182168061037b57607f821691505b6020821081141561039c57634e487b7160e01b600052602260045260246000fd5b50919050565b634e487b7160e01b600052601160045260246000fdfea2646970667358221220522a642ffda458c3b6d2087ad5c6ffbde8123f97b9141f11c750a44dcb8cc2db64736f6c63430008000033608060405234801561001057600080fd5b506040516105fd3803806105fd83398101604081905261002f916100e5565b815161004290600090602085019061004c565b5060025550610200565b828054610058906101af565b90600052602060002090601f01602090048101928261007a57600085556100c0565b82601f1061009357805160ff19168380011785556100c0565b828001600101855582156100c0579182015b828111156100c05782518255916020019190600101906100a5565b506100cc9291506100d0565b5090565b5b808211156100cc57600081556001016100d1565b600080604083850312156100f7578182fd5b82516001600160401b038082111561010d578384fd5b818501915085601f830112610120578384fd5b815181811115610132576101326101ea565b6040516020601f8301601f1916820181018481118382101715610157576101576101ea565b604052828252848301810189101561016d578687fd5b8693505b8284101561018e5784840181015182850182015292830192610171565b8284111561019e57868184840101525b969096015195979596505050505050565b6002810460018216806101c357607f821691505b602082108114156101e457634e487b7160e01b600052602260045260246000fd5b50919050565b634e487b7160e01b600052604160045260246000fd5b6103ee8061020f6000396000f3fe608060405234801561001057600080fd5b50600436106100885760003560e01c8063bc7b35b21161005b578063bc7b35b2146100d0578063cb86d6e6146100e5578063f5a50589146100ed578063f7ac4af41461010057610088565b80639be0b8001461008d5780639e66e0f3146100ab578063ae4f7a4c146100b3578063b0b6d161146100bb575b600080fd5b610095610108565b6040516100a2919061032f565b60405180910390f35b61009561010e565b610095610114565b6100ce6100c93660046102c4565b61011a565b005b6100d8610131565b6040516100a291906102dc565b6100d86101bf565b6100ce6100fb3660046102c4565b610251565b610095610261565b60025490565b60015481565b60025481565b60025460009061012a9083610266565b6002555050565b6000805461013e90610367565b80601f016020809104026020016040519081016040528092919081815260200182805461016a90610367565b80156101b75780601f1061018c576101008083540402835291602001916101b7565b820191906000526020600020905b81548152906001019060200180831161019a57829003601f168201915b505050505081565b6060600080546101ce90610367565b80601f01602080910402602001604051908101604052809291908181526020018280546101fa90610367565b80156102475780601f1061021c57610100808354040283529160200191610247565b820191906000526020600020905b81548152906001019060200180831161022a57829003601f168201915b5050505050905090565b60025460009061012a9083610297565b600290565b60008282111561028657634e487b7160e01b600052600160045260246000fd5b6102908284610350565b9392505050565b6000806102a48385610338565b90508381101561029057634e487b7160e01b600052600160045260246000fd5b6000602082840312156102d5578081fd5b5035919050565b6000602080835283518082850152825b81811015610308578581018301518582016040015282016102ec565b818111156103195783604083870101525b50601f01601f1916929092016040019392505050565b90815260200190565b6000821982111561034b5761034b6103a2565b500190565b600082821015610362576103626103a2565b500390565b60028104600182168061037b57607f821691505b6020821081141561039c57634e487b7160e01b600052602260045260246000fd5b50919050565b634e487b7160e01b600052601160045260246000fdfea2646970667358221220ae17df97da482874c997dd27f5d737eb79494328e54686bdd4271c62b1375a6364736f6c63430008000033a2646970667358221220d99a428a72c6953f8d33181f6c65fc8baf03cd230ccf39605b8b02aaaf9de8de64736f6c63430008000033a2646970667358221220e4928251e6493c4bbf09bfdc9e1f0277e6684d8909003fd41f4ca7ed51b4241864736f6c63430008000033",
  "immutableReferences": {},
  "source": "// SPDX-License-Identifier: MIT\r\npragma solidity ^0.8.0;\r\npragma experimental ABIEncoderV2;\r\nimport \"./models/InfoContrato.sol\";\r\nimport \"./models/Factory.sol\";\r\nimport \"./libraries/Validations.sol\";\r\nimport \"./Comercializador.sol\";\r\n\r\ncontract MvmComercializadorFactory is Factory {\r\n    mapping(address => address) public DirContratosComercializadores;\r\n\r\n    constructor(address _reguladorMercado) {\r\n        owner = msg.sender;\r\n        dirContrato = address(this);\r\n        reguladorMercado = _reguladorMercado;\r\n    }\r\n\r\n    function FactoryContrato(InfoContrato memory _infoContrato)\r\n        public\r\n        override\r\n        canCreate\r\n    {\r\n        require(\r\n            Validations.aproveCreation(_infoContrato.owner, contratosOwners),\r\n            \"Una direccion no puede tener mas de un comercializador\"\r\n        );\r\n        DirContratosComercializadores[_infoContrato.owner] = address(\r\n            new Comercializador(_infoContrato, reguladorMercado)\r\n        );\r\n        diligenciarContratoRegulador(_infoContrato.owner);\r\n        contratosOwners.push(\r\n            Comercializador(DirContratosComercializadores[_infoContrato.owner])\r\n                .getInfoContrato()\r\n        );\r\n        emit Creacion(\r\n            _infoContrato.empresa,\r\n            DirContratosComercializadores[_infoContrato.owner]\r\n        );\r\n    }\r\n\r\n    function existeComercializador(\r\n        address contractDir,\r\n        InfoContrato[] memory arrayContracts\r\n    ) public pure returns (bool) {\r\n        return Validations.existsContract(contractDir, arrayContracts);\r\n    }\r\n}\r\n",
  "sourcePath": "D:\\Santiago\\BlockChain\\DemoMvmTruffle\\contracts\\MvmComercializadorFactory.sol",
  "compiler": {
    "name": "solc",
    "version": "0.8.0+commit.c7dfd78e.Emscripten.clang"
  },
  "schemaVersion": "3.4.4",
  "updatedAt": "2022-07-11T15:50:46.205Z",
  "networkType": "ethereum",
  "devdoc": {
    "kind": "dev",
    "methods": {},
    "version": 1
  },
  "userdoc": {
    "kind": "user",
    "methods": {},
    "version": 1
  }
}