{
  "contractName": "MvmClienteFactory",
  "abi": [
    {
      "inputs": [
        {
          "internalType": "address",
          "name": "_reguladorMercado",
          "type": "address"
        }
      ],
      "stateMutability": "nonpayable",
      "type": "constructor"
    },
    {
      "anonymous": false,
      "inputs": [
        {
          "indexed": false,
          "internalType": "string",
          "name": "",
          "type": "string"
        },
        {
          "indexed": false,
          "internalType": "address",
          "name": "",
          "type": "address"
        }
      ],
      "name": "Creacion",
      "type": "event"
    },
    {
      "inputs": [
        {
          "internalType": "address",
          "name": "",
          "type": "address"
        }
      ],
      "name": "DirContratosClientes",
      "outputs": [
        {
          "internalType": "address",
          "name": "",
          "type": "address"
        }
      ],
      "stateMutability": "view",
      "type": "function",
      "constant": true
    },
    {
      "inputs": [
        {
          "internalType": "address",
          "name": "dir",
          "type": "address"
        },
        {
          "components": [
            {
              "internalType": "address",
              "name": "dirContrato",
              "type": "address"
            },
            {
              "internalType": "address",
              "name": "owner",
              "type": "address"
            },
            {
              "internalType": "string",
              "name": "nit",
              "type": "string"
            },
            {
              "internalType": "string",
              "name": "empresa",
              "type": "string"
            },
            {
              "internalType": "string",
              "name": "contacto",
              "type": "string"
            },
            {
              "internalType": "string",
              "name": "telefono",
              "type": "string"
            },
            {
              "internalType": "string",
              "name": "correo",
              "type": "string"
            },
            {
              "internalType": "string",
              "name": "departamento",
              "type": "string"
            },
            {
              "internalType": "string",
              "name": "ciudad",
              "type": "string"
            },
            {
              "internalType": "string",
              "name": "direccion",
              "type": "string"
            },
            {
              "internalType": "address",
              "name": "comercializador",
              "type": "address"
            },
            {
              "internalType": "uint256",
              "name": "tipoComercio",
              "type": "uint256"
            }
          ],
          "internalType": "struct InfoContrato",
          "name": "infoContrato",
          "type": "tuple"
        }
      ],
      "name": "diligenciarContratoRegulador",
      "outputs": [],
      "stateMutability": "nonpayable",
      "type": "function"
    },
    {
      "inputs": [],
      "name": "dirContrato",
      "outputs": [
        {
          "internalType": "address",
          "name": "",
          "type": "address"
        }
      ],
      "stateMutability": "view",
      "type": "function",
      "constant": true
    },
    {
      "inputs": [],
      "name": "direccionRegistrada",
      "outputs": [
        {
          "internalType": "bool",
          "name": "",
          "type": "bool"
        }
      ],
      "stateMutability": "view",
      "type": "function",
      "constant": true
    },
    {
      "inputs": [],
      "name": "getContratosOwners",
      "outputs": [
        {
          "components": [
            {
              "internalType": "address",
              "name": "dirContrato",
              "type": "address"
            },
            {
              "internalType": "address",
              "name": "owner",
              "type": "address"
            },
            {
              "internalType": "string",
              "name": "nit",
              "type": "string"
            },
            {
              "internalType": "string",
              "name": "empresa",
              "type": "string"
            },
            {
              "internalType": "string",
              "name": "contacto",
              "type": "string"
            },
            {
              "internalType": "string",
              "name": "telefono",
              "type": "string"
            },
            {
              "internalType": "string",
              "name": "correo",
              "type": "string"
            },
            {
              "internalType": "string",
              "name": "departamento",
              "type": "string"
            },
            {
              "internalType": "string",
              "name": "ciudad",
              "type": "string"
            },
            {
              "internalType": "string",
              "name": "direccion",
              "type": "string"
            },
            {
              "internalType": "address",
              "name": "comercializador",
              "type": "address"
            },
            {
              "internalType": "uint256",
              "name": "tipoComercio",
              "type": "uint256"
            }
          ],
          "internalType": "struct InfoContrato[]",
          "name": "",
          "type": "tuple[]"
        }
      ],
      "stateMutability": "view",
      "type": "function",
      "constant": true
    },
    {
      "inputs": [],
      "name": "owner",
      "outputs": [
        {
          "internalType": "address",
          "name": "",
          "type": "address"
        }
      ],
      "stateMutability": "view",
      "type": "function",
      "constant": true
    },
    {
      "inputs": [],
      "name": "reguladorMercado",
      "outputs": [
        {
          "internalType": "address",
          "name": "",
          "type": "address"
        }
      ],
      "stateMutability": "view",
      "type": "function",
      "constant": true
    },
    {
      "inputs": [
        {
          "components": [
            {
              "internalType": "address",
              "name": "dirContrato",
              "type": "address"
            },
            {
              "internalType": "address",
              "name": "owner",
              "type": "address"
            },
            {
              "internalType": "string",
              "name": "nit",
              "type": "string"
            },
            {
              "internalType": "string",
              "name": "empresa",
              "type": "string"
            },
            {
              "internalType": "string",
              "name": "contacto",
              "type": "string"
            },
            {
              "internalType": "string",
              "name": "telefono",
              "type": "string"
            },
            {
              "internalType": "string",
              "name": "correo",
              "type": "string"
            },
            {
              "internalType": "string",
              "name": "departamento",
              "type": "string"
            },
            {
              "internalType": "string",
              "name": "ciudad",
              "type": "string"
            },
            {
              "internalType": "string",
              "name": "direccion",
              "type": "string"
            },
            {
              "internalType": "address",
              "name": "comercializador",
              "type": "address"
            },
            {
              "internalType": "uint256",
              "name": "tipoComercio",
              "type": "uint256"
            }
          ],
          "internalType": "struct InfoContrato",
          "name": "_infoContrato",
          "type": "tuple"
        }
      ],
      "name": "FactoryContrato",
      "outputs": [],
      "stateMutability": "nonpayable",
      "type": "function"
    }
  ],
  "bytecode": "0x608060405234801561001057600080fd5b506040516134bd3803806134bd83398101604081905261002f9161006d565b600080546001600160a01b0319908116331790915560018054821630179055600280546001600160a01b03939093169290911691909117905561009b565b60006020828403121561007e578081fd5b81516001600160a01b0381168114610094578182fd5b9392505050565b613413806100aa6000396000f3fe60806040523480156200001157600080fd5b5060043610620000945760003560e01c806365cd10e7116200006357806365cd10e714620001045780637eb5a688146200012a578063856788df14620001345780638da5cb5b146200013e5762000094565b8063037ad4dd14620000995780633607329d14620000b257806347ec8b0e14620000d45780634cdbdb6d14620000eb575b600080fd5b620000b0620000aa366004620011a2565b62000148565b005b620000bc620005c2565b604051620000cb9190620017f4565b60405180910390f35b620000b0620000e53660046200112c565b6200065b565b620000f5620007f5565b604051620000cb919062001790565b6200011b62000115366004620010e7565b62000d6d565b604051620000cb9190620015e0565b6200011b62000d88565b6200011b62000d97565b6200011b62000da6565b600260009054906101000a90046001600160a01b03166001600160a01b031663893d20e86040518163ffffffff1660e01b815260040160206040518083038186803b1580156200019757600080fd5b505afa158015620001ac573d6000803e3d6000fd5b505050506040513d601f19601f82011682018060405250810190620001d291906200110d565b6001600160a01b0316336001600160a01b0316146200020e5760405162461bcd60e51b8152600401620002059062001859565b60405180910390fd5b6020810151604051635010ecc560e01b815273__Validations___________________________91635010ecc5916200024e9190600390600401620015f4565b60206040518083038186803b1580156200026757600080fd5b505af41580156200027c573d6000803e3d6000fd5b505050506040513d601f19601f82011682018060405250810190620002a2919062001180565b620002c15760405162461bcd60e51b815260040162000205906200182b565b60025460405182916001600160a01b031690620002de9062000db5565b620002eb929190620018cc565b604051809103906000f08015801562000308573d6000803e3d6000fd5b50602082810180516001600160a01b0390811660009081526004909352604080842080546001600160a01b0319169583169590951790945581518116835292909120549091168252516200035d90826200065b565b6020808201516001600160a01b0390811660009081526004928390526040808220548151634df073e760e11b815291516003959190941693639be0e7ce9383830193909290829003018186803b158015620003b757600080fd5b505afa158015620003cc573d6000803e3d6000fd5b505050506040513d6000823e601f3d908101601f19168201604052620003f69190810190620011d9565b81546001818101845560009384526020938490208351600c9093020180546001600160a01b039384166001600160a01b031991821617825585850151928201805493909416921691909117909155604082015180519293919262000461926002850192019062000dc3565b50606082015180516200047f91600384019160209091019062000dc3565b50608082015180516200049d91600484019160209091019062000dc3565b5060a08201518051620004bb91600584019160209091019062000dc3565b5060c08201518051620004d991600684019160209091019062000dc3565b5060e08201518051620004f791600784019160209091019062000dc3565b5061010082015180516200051691600884019160209091019062000dc3565b5061012082015180516200053591600984019160209091019062000dc3565b50610140820151600a820180546001600160a01b0319166001600160a01b0392831617905561016090920151600b9091015560608201516020808401518316600090815260049091526040908190205490517f35671b86a8a0b2b88538732ff30f9073d71b6400e3e4fe564003bc8220b8a11793620005b793921690620017ff565b60405180910390a150565b604051635010ecc560e01b815260009073__Validations___________________________90635010ecc59062000601903390600390600401620015f4565b60206040518083038186803b1580156200061a57600080fd5b505af41580156200062f573d6000803e3d6000fd5b505050506040513d601f19601f8201168201806040525081019062000655919062001180565b15905090565b6002546040516340fd3f3960e01b81526001600160a01b03909116906340fd3f39906200068d908590600401620015e0565b60206040518083038186803b158015620006a657600080fd5b505afa158015620006bb573d6000803e3d6000fd5b505050506040513d601f19601f82011682018060405250810190620006e1919062001180565b620007005760405162461bcd60e51b815260040162000205906200189f565b600254604051630d098a3b60e01b81526000916001600160a01b031690630d098a3b9062000733908690600401620015e0565b60206040518083038186803b1580156200074c57600080fd5b505afa15801562000761573d6000803e3d6000fd5b505050506040513d601f19601f82011682018060405250810190620007879190620013a9565b600254604051635911164960e11b81529192506001600160a01b03169063b2222c9290620007bc9084908690600401620018e1565b600060405180830381600087803b158015620007d757600080fd5b505af1158015620007ec573d6000803e3d6000fd5b50505050505050565b60606003805480602002602001604051908101604052809291908181526020016000905b8282101562000d645760008481526020908190206040805161018081018252600c860290920180546001600160a01b03908116845260018201541693830193909352600283018054929392918401916200087390620019a8565b80601f0160208091040260200160405190810160405280929190818152602001828054620008a190620019a8565b8015620008f25780601f10620008c657610100808354040283529160200191620008f2565b820191906000526020600020905b815481529060010190602001808311620008d457829003601f168201915b505050505081526020016003820180546200090d90620019a8565b80601f01602080910402602001604051908101604052809291908181526020018280546200093b90620019a8565b80156200098c5780601f1062000960576101008083540402835291602001916200098c565b820191906000526020600020905b8154815290600101906020018083116200096e57829003601f168201915b50505050508152602001600482018054620009a790620019a8565b80601f0160208091040260200160405190810160405280929190818152602001828054620009d590620019a8565b801562000a265780601f10620009fa5761010080835404028352916020019162000a26565b820191906000526020600020905b81548152906001019060200180831162000a0857829003601f168201915b5050505050815260200160058201805462000a4190620019a8565b80601f016020809104026020016040519081016040528092919081815260200182805462000a6f90620019a8565b801562000ac05780601f1062000a945761010080835404028352916020019162000ac0565b820191906000526020600020905b81548152906001019060200180831162000aa257829003601f168201915b5050505050815260200160068201805462000adb90620019a8565b80601f016020809104026020016040519081016040528092919081815260200182805462000b0990620019a8565b801562000b5a5780601f1062000b2e5761010080835404028352916020019162000b5a565b820191906000526020600020905b81548152906001019060200180831162000b3c57829003601f168201915b5050505050815260200160078201805462000b7590620019a8565b80601f016020809104026020016040519081016040528092919081815260200182805462000ba390620019a8565b801562000bf45780601f1062000bc85761010080835404028352916020019162000bf4565b820191906000526020600020905b81548152906001019060200180831162000bd657829003601f168201915b5050505050815260200160088201805462000c0f90620019a8565b80601f016020809104026020016040519081016040528092919081815260200182805462000c3d90620019a8565b801562000c8e5780601f1062000c625761010080835404028352916020019162000c8e565b820191906000526020600020905b81548152906001019060200180831162000c7057829003601f168201915b5050505050815260200160098201805462000ca990620019a8565b80601f016020809104026020016040519081016040528092919081815260200182805462000cd790620019a8565b801562000d285780601f1062000cfc5761010080835404028352916020019162000d28565b820191906000526020600020905b81548152906001019060200180831162000d0a57829003601f168201915b5050509183525050600a8201546001600160a01b0316602080830191909152600b90920154604090910152908252600192909201910162000819565b50505050905090565b6004602052600090815260409020546001600160a01b031681565b6002546001600160a01b031681565b6001546001600160a01b031681565b6000546001600160a01b031681565b6119c98062001a1583390190565b82805462000dd190620019a8565b90600052602060002090601f01602090048101928262000df5576000855562000e40565b82601f1062000e1057805160ff191683800117855562000e40565b8280016001018555821562000e40579182015b8281111562000e4057825182559160200191906001019062000e23565b5062000e4e92915062000e52565b5090565b5b8082111562000e4e576000815560010162000e53565b803562000e7681620019fb565b919050565b805162000e7681620019fb565b600082601f83011262000e99578081fd5b813562000eb062000eaa8262001929565b620018fc565b81815284602083860101111562000ec5578283fd5b816020850160208301379081016020019190915292915050565b600082601f83011262000ef0578081fd5b815162000f0162000eaa8262001929565b81815284602083860101111562000f16578283fd5b62000f2982602083016020870162001975565b949350505050565b600061018080838503121562000f45578182fd5b62000f5081620018fc565b91505062000f5e8262000e69565b815262000f6e6020830162000e69565b6020820152604082013567ffffffffffffffff8082111562000f8f57600080fd5b62000f9d8583860162000e88565b6040840152606084013591508082111562000fb757600080fd5b62000fc58583860162000e88565b6060840152608084013591508082111562000fdf57600080fd5b62000fed8583860162000e88565b608084015260a08401359150808211156200100757600080fd5b620010158583860162000e88565b60a084015260c08401359150808211156200102f57600080fd5b6200103d8583860162000e88565b60c084015260e08401359150808211156200105757600080fd5b620010658583860162000e88565b60e0840152610100915081840135818111156200108157600080fd5b6200108f8682870162000e88565b838501525061012091508184013581811115620010ab57600080fd5b620010b98682870162000e88565b83850152505050610140620010d081840162000e69565b818301525061016080830135818301525092915050565b600060208284031215620010f9578081fd5b81356200110681620019fb565b9392505050565b6000602082840312156200111f578081fd5b81516200110681620019fb565b600080604083850312156200113f578081fd5b82356200114c81620019fb565b9150602083013567ffffffffffffffff81111562001168578182fd5b620011768582860162000f31565b9150509250929050565b60006020828403121562001192578081fd5b8151801515811462001106578182fd5b600060208284031215620011b4578081fd5b813567ffffffffffffffff811115620011cb578182fd5b62000f298482850162000f31565b600060208284031215620011eb578081fd5b815167ffffffffffffffff8082111562001203578283fd5b81840191506101808083870312156200121a578384fd5b6200122581620018fc565b9050620012328362000e7b565b8152620012426020840162000e7b565b602082015260408301518281111562001259578485fd5b620012678782860162000edf565b6040830152506060830151828111156200127f578485fd5b6200128d8782860162000edf565b606083015250608083015182811115620012a5578485fd5b620012b38782860162000edf565b60808301525060a083015182811115620012cb578485fd5b620012d98782860162000edf565b60a08301525060c083015182811115620012f1578485fd5b620012ff8782860162000edf565b60c08301525060e08301518281111562001317578485fd5b620013258782860162000edf565b60e08301525061010080840151838111156200133f578586fd5b6200134d8882870162000edf565b828401525050610120808401518381111562001367578586fd5b620013758882870162000edf565b82840152505061014091506200138d82840162000e7b565b9181019190915261016091820151918101919091529392505050565b600060208284031215620013bb578081fd5b5051919050565b6001600160a01b03169052565b60008151808452620013e981602086016020860162001975565b601f01601f19169290920160200192915050565b8054600090600281046001808316806200141857607f831692505b60208084108214156200143957634e487b7160e01b86526022600452602486fd5b62001445848962001960565b8280156200145c57600181146200146e576200149d565b60ff198716825282820197506200149d565b620014798962001954565b60005b8781101562001497578154848201529086019084016200147c565b83019850505b5050505050505092915050565b6000610180620014bc848451620013c2565b6020830151620014d06020860182620013c2565b506040830151816040860152620014ea82860182620013cf565b91505060608301518482036060860152620015068282620013cf565b91505060808301518482036080860152620015228282620013cf565b91505060a083015184820360a08601526200153e8282620013cf565b91505060c083015184820360c08601526200155a8282620013cf565b91505060e083015184820360e0860152620015768282620013cf565b9150506101008084015185830382870152620015938382620013cf565b925050506101208084015185830382870152620015b18382620013cf565b9250505061014080840151620015ca82870182620013c2565b5050610160928301519390920192909252919050565b6001600160a01b0391909116815260200190565b6000604080830160018060a01b03861684526020828186015281865480845260609350838701915083838202880101888752838720875b838110156200178057605f198a8403018552610180620016578462001651855462001969565b620013c2565b62001666600184015462001969565b6200167488860182620013c2565b5080898501526200168b81850160028501620013fd565b905083810388850152620016a38160038501620013fd565b90508381036080850152620016bc8160048501620013fd565b905083810360a0850152620016d58160058501620013fd565b905083810360c0850152620016ee8160068501620013fd565b905083810360e0850152620017078160078501620013fd565b9050838103610100850152620017218160088501620013fd565b90508381036101208501526200173b8160098501620013fd565b90506200174c600a84015462001969565b6200175c610140860182620013c2565b50600b830154610160949094019390935293850193600c909101906001016200162b565b50909a9950505050505050505050565b6000602080830181845280855180835260408601915060408482028701019250838701855b82811015620017e757603f19888603018452620017d4858351620014aa565b94509285019290850190600101620017b5565b5092979650505050505050565b901515815260200190565b600060408252620018146040830185620013cf565b905060018060a01b03831660208301529392505050565b602080825260149082015273456c20636c69656e74652079612065786973746560601b604082015260600190565b60208082526026908201527f4e6f207469656e65207065726d69736f73207061726120637265617220636f6e604082015265747261746f7360d01b606082015260800190565b602080825260139082015272139bc8195e1a5cdd19481cdbdb1a58da5d1d59606a1b604082015260600190565b600060408252620018146040830185620014aa565b60008382526040602083015262000f296040830184620014aa565b60405181810167ffffffffffffffff81118282101715620019215762001921620019e5565b604052919050565b600067ffffffffffffffff821115620019465762001946620019e5565b50601f01601f191660200190565b60009081526020902090565b90815260200190565b6001600160a01b031690565b60005b838110156200199257818101518382015260200162001978565b83811115620019a2576000848401525b50505050565b600281046001821680620019bd57607f821691505b60208210811415620019df57634e487b7160e01b600052602260045260246000fd5b50919050565b634e487b7160e01b600052604160045260246000fd5b6001600160a01b038116811462001a1157600080fd5b5056fe6080604052600d80546001600160a01b03191690553480156200002157600080fd5b50604051620019c9380380620019c983398101604081905262000044916200037c565b600080546001600160a01b038084166001600160a01b0319928316179092556040805161018081018252308082526020878101518616818401819052888501519484018590526060808a0151908501526080808a01519085015260a0808a01519085015260c0808a01519085015260e0808a0151908501526101008981015190850152610120808a015190850152600d54909616610140840152610160808901519084015260018054861690921782556002805490951690951790935581519093620001169260039291019062000228565b50606082015180516200013491600384019160209091019062000228565b50608082015180516200015291600484019160209091019062000228565b5060a082015180516200017091600584019160209091019062000228565b5060c082015180516200018e91600684019160209091019062000228565b5060e08201518051620001ac91600784019160209091019062000228565b506101008201518051620001cb91600884019160209091019062000228565b506101208201518051620001ea91600984019160209091019062000228565b50610140820151600a820180546001600160a01b0319166001600160a01b0390921691909117905561016090910151600b9091015550620005dd9050565b82805462000236906200058a565b90600052602060002090601f0160209004810192826200025a5760008555620002a5565b82601f106200027557805160ff1916838001178555620002a5565b82800160010185558215620002a5579182015b82811115620002a557825182559160200191906001019062000288565b50620002b3929150620002b7565b5090565b5b80821115620002b35760008155600101620002b8565b80516001600160a01b0381168114620002e657600080fd5b919050565b600082601f830112620002fc578081fd5b81516001600160401b03811115620003185762000318620005c7565b60206200032e601f8301601f191682016200055e565b828152858284870101111562000342578384fd5b835b838110156200036157858101830151828201840152820162000344565b838111156200037257848385840101525b5095945050505050565b600080604083850312156200038f578182fd5b82516001600160401b0380821115620003a6578384fd5b8185019150610180808388031215620003bd578485fd5b620003c8816200055e565b9050620003d583620002ce565b8152620003e560208401620002ce565b6020820152604083015182811115620003fc578586fd5b6200040a88828601620002eb565b60408301525060608301518281111562000422578586fd5b6200043088828601620002eb565b60608301525060808301518281111562000448578586fd5b6200045688828601620002eb565b60808301525060a0830151828111156200046e578586fd5b6200047c88828601620002eb565b60a08301525060c08301518281111562000494578586fd5b620004a288828601620002eb565b60c08301525060e083015182811115620004ba578586fd5b620004c888828601620002eb565b60e0830152506101008084015183811115620004e2578687fd5b620004f089828701620002eb565b82840152505061012080840151838111156200050a578687fd5b6200051889828701620002eb565b828401525050610140915062000530828401620002ce565b82820152610160915081830151828201528094505050506200055560208401620002ce565b90509250929050565b6040518181016001600160401b0381118282101715620005825762000582620005c7565b604052919050565b6002810460018216806200059f57607f821691505b60208210811415620005c157634e487b7160e01b600052602260045260246000fd5b50919050565b634e487b7160e01b600052604160045260246000fd5b6113dc80620005ed6000396000f3fe608060405234801561001057600080fd5b506004361061007d5760003560e01c80639be0e7ce1161005b5780639be0e7ce146100bd578063d0b58746146100d2578063e0817576146100f2578063e33f34a0146101055761007d565b8063551edf90146100825780637eb5a688146100a057806395965bda146100a8575b600080fd5b61008a61011a565b6040516100979190610e73565b60405180910390f35b61008a610129565b6100bb6100b6366004610c96565b610138565b005b6100c5610277565b604051610097919061109c565b6100e56100e0366004610ce4565b61075c565b604051610097919061130f565b6100bb610100366004610d1f565b6109cb565b61010d610af9565b6040516100979190611334565b600d546001600160a01b031681565b6000546001600160a01b031681565b60025433906001600160a01b0316811461016d5760405162461bcd60e51b81526004016101649061104e565b60405180910390fd5b6000826001600160a01b031663013643fd6040518163ffffffff1660e01b815260040160206040518083038186803b1580156101a857600080fd5b505afa1580156101bc573d6000803e3d6000fd5b505050506040513d601f19601f820116820180604052508101906101e09190610d62565b905080156102005760405162461bcd60e51b815260040161016490611003565b600b80546001600160a01b0319166001600160a01b03851690811790915560405163632855e760e11b815263c650abce90610240906001906004016111db565b600060405180830381600087803b15801561025a57600080fd5b505af115801561026e573d6000803e3d6000fd5b50505050505050565b61027f610b7f565b6040805161018081018252600180546001600160a01b0390811683526002541660208301526003805492939192918401916102b990611355565b80601f01602080910402602001604051908101604052809291908181526020018280546102e590611355565b80156103325780601f1061030757610100808354040283529160200191610332565b820191906000526020600020905b81548152906001019060200180831161031557829003601f168201915b5050505050815260200160038201805461034b90611355565b80601f016020809104026020016040519081016040528092919081815260200182805461037790611355565b80156103c45780601f10610399576101008083540402835291602001916103c4565b820191906000526020600020905b8154815290600101906020018083116103a757829003601f168201915b505050505081526020016004820180546103dd90611355565b80601f016020809104026020016040519081016040528092919081815260200182805461040990611355565b80156104565780601f1061042b57610100808354040283529160200191610456565b820191906000526020600020905b81548152906001019060200180831161043957829003601f168201915b5050505050815260200160058201805461046f90611355565b80601f016020809104026020016040519081016040528092919081815260200182805461049b90611355565b80156104e85780601f106104bd576101008083540402835291602001916104e8565b820191906000526020600020905b8154815290600101906020018083116104cb57829003601f168201915b5050505050815260200160068201805461050190611355565b80601f016020809104026020016040519081016040528092919081815260200182805461052d90611355565b801561057a5780601f1061054f5761010080835404028352916020019161057a565b820191906000526020600020905b81548152906001019060200180831161055d57829003601f168201915b5050505050815260200160078201805461059390611355565b80601f01602080910402602001604051908101604052809291908181526020018280546105bf90611355565b801561060c5780601f106105e15761010080835404028352916020019161060c565b820191906000526020600020905b8154815290600101906020018083116105ef57829003601f168201915b5050505050815260200160088201805461062590611355565b80601f016020809104026020016040519081016040528092919081815260200182805461065190611355565b801561069e5780601f106106735761010080835404028352916020019161069e565b820191906000526020600020905b81548152906001019060200180831161068157829003601f168201915b505050505081526020016009820180546106b790611355565b80601f01602080910402602001604051908101604052809291908181526020018280546106e390611355565b80156107305780601f1061070557610100808354040283529160200191610730565b820191906000526020600020905b81548152906001019060200180831161071357829003601f168201915b5050509183525050600a8201546001600160a01b03166020820152600b90910154604090910152905090565b610764610bfb565b6040516388d8da5f60e01b815273__StringLibrary_________________________906388d8da5f9061079b908590600401610eb1565b60206040518083038186803b1580156107b357600080fd5b505af41580156107c7573d6000803e3d6000fd5b505050506040513d601f19601f820116820180604052508101906107eb9190610cc4565b158061087b57506040516388d8da5f60e01b815273__StringLibrary_________________________906388d8da5f90610829908590600401610eeb565b60206040518083038186803b15801561084157600080fd5b505af4158015610855573d6000803e3d6000fd5b505050506040513d601f19601f820116820180604052508101906108799190610cc4565b155b8061090a57506040516388d8da5f60e01b815273__StringLibrary_________________________906388d8da5f906108b8908590600401610f26565b60206040518083038186803b1580156108d057600080fd5b505af41580156108e4573d6000803e3d6000fd5b505050506040513d601f19601f820116820180604052508101906109089190610cc4565b155b156109275760405162461bcd60e51b815260040161016490610f87565b600b546002546040516356a5513960e01b81526000926001600160a01b03908116926356a551399261095f9288921690600401610e87565b60206040518083038186803b15801561097757600080fd5b505afa15801561098b573d6000803e3d6000fd5b505050506040513d601f19601f820116820180604052508101906109af9190610d62565b6040805180820190915290815260208101849052915050919050565b60025433906001600160a01b031681146109f75760405162461bcd60e51b81526004016101649061104e565b600b546001600160a01b0316610a1f5760405162461bcd60e51b815260040161016490610fbe565b600b546040805163013643fd60e01b815290516001600160a01b039092169163013643fd91600480820192602092909190829003018186803b158015610a6457600080fd5b505afa158015610a78573d6000803e3d6000fd5b505050506040513d601f19601f82011682018060405250810190610a9c9190610d62565b600114610abb5760405162461bcd60e51b815260040161016490611003565b7faaa4328ecde636decad3cbfb3b155848fc6b72fac6d85f4b2d04d65e4ffce3fa8383604051610aec929190610f65565b60405180910390a1505050565b60008054604051630e03c03b60e01b81526001600160a01b0390911690630e03c03b90610b2a903390600401610e73565b60206040518083038186803b158015610b4257600080fd5b505afa158015610b56573d6000803e3d6000fd5b505050506040513d601f19601f82011682018060405250810190610b7a9190610d62565b905090565b60405180610180016040528060006001600160a01b0316815260200160006001600160a01b03168152602001606081526020016060815260200160608152602001606081526020016060815260200160608152602001606081526020016060815260200160006001600160a01b03168152602001600081525090565b604051806040016040528060008152602001606081525090565b600082601f830112610c25578081fd5b813567ffffffffffffffff80821115610c4057610c40611390565b604051601f8301601f191681016020018281118282101715610c6457610c64611390565b604052828152848301602001861015610c7b578384fd5b82602086016020830137918201602001929092529392505050565b600060208284031215610ca7578081fd5b81356001600160a01b0381168114610cbd578182fd5b9392505050565b600060208284031215610cd5578081fd5b81518015158114610cbd578182fd5b600060208284031215610cf5578081fd5b813567ffffffffffffffff811115610d0b578182fd5b610d1784828501610c15565b949350505050565b60008060408385031215610d31578081fd5b823567ffffffffffffffff811115610d47578182fd5b610d5385828601610c15565b95602094909401359450505050565b600060208284031215610d73578081fd5b5051919050565b6001600160a01b03169052565b60008151808452815b81811015610dac57602081850181015186830182015201610d90565b81811115610dbd5782602083870101525b50601f01601f19169290920160200192915050565b805460009060028104600180831680610dec57607f831692505b6020808410821415610e0c57634e487b7160e01b86526022600452602486fd5b610e168489611334565b828015610e2a5760018114610e3b57610e66565b60ff19871682528282019750610e66565b610e448961133d565b60005b87811015610e6057815484820152908601908401610e47565b83019850505b5050505050505092915050565b6001600160a01b0391909116815260200190565b600060408252610e9a6040830185610d87565b905060018060a01b03831660208301529392505050565b600060408252610ec46040830184610d87565b8281036020840152600581526439b7b630b960d91b60208201526040810191505092915050565b600060408252610efe6040830184610d87565b82810360208401526006815265656f6c69636160d01b60208201526040810191505092915050565b600060408252610f396040830184610d87565b8281036020840152600a8152696869647261756c69636160b01b60208201526040810191505092915050565b600060408252610f786040830185610d87565b90508260208301529392505050565b6020808252601f908201527f456c207469706f20646520656e6572676961206e6f2065732076616c69646f00604082015260600190565b60208082526025908201527f4e6f207469656e657320636f6e747261746f20646520636f6d65726369616c696040820152643d30b237b960d91b606082015260800190565b6020808252602b908201527f456c20636f6d65726369616c697a61646f72206465626520736572206465207460408201526a69706f20436c69656e746560a81b606082015260800190565b6020808252602e908201527f4e6f207469656e65207065726d69736f73207061726120656a6563757461722060408201526d3630903a3930b739b0b1b1b4b7b760911b606082015260800190565b6000602082526110b0602083018451610d7a565b60208301516110c26040840182610d7a565b5060408301516101808060608501526110df6101a0850183610d87565b91506060850151601f19808685030160808701526110fd8483610d87565b935060808701519150808685030160a087015261111a8483610d87565b935060a08701519150808685030160c08701526111378483610d87565b935060c08701519150808685030160e08701526111548483610d87565b935060e087015191506101008187860301818801526111738584610d87565b9450808801519250506101208187860301818801526111928584610d87565b9450808801519250506101408187860301818801526111b18584610d87565b945080880151925050506101606111ca81870183610d7a565b959095015193019290925250919050565b6000602082526111f7602083016111f28554611349565b610d7a565b6112046001840154611349565b6112116040840182610d7a565b5061018080606084015261122c6101a0840160028601610dd2565b601f19808583030160808601526112468260038801610dd2565b9150808583030160a086015261125f8260048801610dd2565b9150808583030160c08601526112788260058801610dd2565b9150808583030160e08601526112918260068801610dd2565b915080858303016101008601526112ab8260078801610dd2565b915080858303016101208601526112c58260088801610dd2565b91508085830301610140860152506112e08160098701610dd2565b90506112ef600a860154611349565b6112fd610160860182610d7a565b50600b94909401549201919091525090565b600060208252825160208301526020830151604080840152610d176060840182610d87565b90815260200190565b60009081526020902090565b6001600160a01b031690565b60028104600182168061136957607f821691505b6020821081141561138a57634e487b7160e01b600052602260045260246000fd5b50919050565b634e487b7160e01b600052604160045260246000fdfea26469706673582212203d1e0d425aae276ee3ee0fb897e43f254ebd48c5217d9f7f62ba9cf7a17cead364736f6c63430008000033a2646970667358221220bb8c7a4ba52a6ff5c91f69b4ad035c923e108259bfbe1f455caee8473600e31264736f6c63430008000033",
  "immutableReferences": {},
  "source": "// SPDX-License-Identifier: MIT\r\npragma solidity ^0.8.0;\r\npragma experimental ABIEncoderV2;\r\nimport \"./models/InfoContrato.sol\";\r\nimport \"./models/Factory.sol\";\r\nimport \"./libraries/Validations.sol\";\r\nimport \"./Cliente.sol\";\r\n\r\ncontract MvmClienteFactory is Factory {\r\n    mapping(address => address) public DirContratosClientes;\r\n\r\n    constructor(address _reguladorMercado) {\r\n        owner = msg.sender;\r\n        dirContrato = address(this);\r\n        reguladorMercado = _reguladorMercado;\r\n    }\r\n\r\n    function FactoryContrato(InfoContrato memory _infoContrato)\r\n        public\r\n        override\r\n        canCreate\r\n    {\r\n        require(\r\n            Validations.aproveCreation(_infoContrato.owner, contratosOwners),\r\n            \"El cliente ya existe\"\r\n        );\r\n        DirContratosClientes[_infoContrato.owner] = address(\r\n            new Cliente(_infoContrato, reguladorMercado)\r\n        );\r\n        _infoContrato.dirContrato = DirContratosClientes[_infoContrato.owner];\r\n        diligenciarContratoRegulador(_infoContrato.owner, _infoContrato);\r\n        contratosOwners.push(\r\n            Cliente(DirContratosClientes[_infoContrato.owner]).getInfoContrato()\r\n        );\r\n        emit Creacion(\r\n            _infoContrato.empresa,\r\n            DirContratosClientes[_infoContrato.owner]\r\n        );\r\n    }\r\n}\r\n",
  "sourcePath": "C:\\Users\\alejandro.perez\\Desktop\\DemoMvmTruffle\\contracts\\MvmClienteFactory.sol",
  "compiler": {
    "name": "solc",
    "version": "0.8.0+commit.c7dfd78e.Emscripten.clang"
  },
  "schemaVersion": "3.4.7",
  "updatedAt": "2022-07-15T00:25:52.781Z",
  "networkType": "ethereum",
  "devdoc": {
    "kind": "dev",
    "methods": {},
    "version": 1
  },
  "userdoc": {
    "kind": "user",
    "methods": {},
    "version": 1
  }
}