{
  "contractName": "MvmClienteFactory",
  "abi": [
    {
      "inputs": [
        {
          "internalType": "address",
          "name": "_reguladorMercado",
          "type": "address"
        }
      ],
      "stateMutability": "nonpayable",
      "type": "constructor"
    },
    {
      "anonymous": false,
      "inputs": [
        {
          "indexed": false,
          "internalType": "string",
          "name": "",
          "type": "string"
        },
        {
          "indexed": false,
          "internalType": "address",
          "name": "",
          "type": "address"
        }
      ],
      "name": "Creacion",
      "type": "event"
    },
    {
      "anonymous": false,
      "inputs": [
        {
          "indexed": false,
          "internalType": "string",
          "name": "",
          "type": "string"
        },
        {
          "indexed": false,
          "internalType": "address",
          "name": "",
          "type": "address"
        }
      ],
      "name": "CreacionCliente",
      "type": "event"
    },
    {
      "inputs": [
        {
          "internalType": "address",
          "name": "",
          "type": "address"
        }
      ],
      "name": "DirContratosClientes",
      "outputs": [
        {
          "internalType": "address",
          "name": "",
          "type": "address"
        }
      ],
      "stateMutability": "view",
      "type": "function",
      "constant": true
    },
    {
      "inputs": [],
      "name": "dirContrato",
      "outputs": [
        {
          "internalType": "address",
          "name": "",
          "type": "address"
        }
      ],
      "stateMutability": "view",
      "type": "function",
      "constant": true
    },
    {
      "inputs": [],
      "name": "getContratosOwners",
      "outputs": [
        {
          "components": [
            {
              "internalType": "address",
              "name": "owner",
              "type": "address"
            },
            {
              "internalType": "address",
              "name": "dirContrato",
              "type": "address"
            },
            {
              "internalType": "string",
              "name": "nombreGenerador",
              "type": "string"
            }
          ],
          "internalType": "struct infoContrato[]",
          "name": "",
          "type": "tuple[]"
        }
      ],
      "stateMutability": "view",
      "type": "function",
      "constant": true
    },
    {
      "inputs": [],
      "name": "owner",
      "outputs": [
        {
          "internalType": "address",
          "name": "",
          "type": "address"
        }
      ],
      "stateMutability": "view",
      "type": "function",
      "constant": true
    },
    {
      "inputs": [],
      "name": "reguladorMercado",
      "outputs": [
        {
          "internalType": "address",
          "name": "",
          "type": "address"
        }
      ],
      "stateMutability": "view",
      "type": "function",
      "constant": true
    },
    {
      "inputs": [
        {
          "internalType": "string",
          "name": "_empresa",
          "type": "string"
        },
        {
          "internalType": "uint256",
          "name": "_nit",
          "type": "uint256"
        },
        {
          "internalType": "string",
          "name": "_contacto",
          "type": "string"
        },
        {
          "internalType": "string",
          "name": "_telefono",
          "type": "string"
        },
        {
          "internalType": "string",
          "name": "_correo",
          "type": "string"
        },
        {
          "internalType": "string",
          "name": "_direccion",
          "type": "string"
        },
        {
          "internalType": "string",
          "name": "_ciudad",
          "type": "string"
        },
        {
          "internalType": "string",
          "name": "_departamento",
          "type": "string"
        }
      ],
      "name": "factoryCliente",
      "outputs": [],
      "stateMutability": "nonpayable",
      "type": "function"
    }
  ],
  "bytecode": "0x608060405234801561001057600080fd5b506040516119e43803806119e483398101604081905261002f9161006d565b600080546001600160a01b0319908116331790915560018054821630179055600280546001600160a01b03939093169290911691909117905561009b565b60006020828403121561007e578081fd5b81516001600160a01b0381168114610094578182fd5b9392505050565b61193a806100aa6000396000f3fe60806040523480156200001157600080fd5b50600436106200006a5760003560e01c80634cdbdb6d146200006f57806365cd10e714620000915780637eb5a68814620000b757806381048cde14620000c1578063856788df14620000da5780638da5cb5b14620000e4575b600080fd5b62000079620000ee565b60405162000088919062000926565b60405180910390f35b620000a8620000a23660046200060b565b6200020c565b604051620000889190620007de565b620000a862000227565b620000d8620000d23660046200065d565b62000236565b005b620000a8620004b0565b620000a8620004bf565b60606003805480602002602001604051908101604052809291908181526020016000905b8282101562000203576000848152602090819020604080516060810182526003860290920180546001600160a01b03908116845260018201541693830193909352600283018054929392918401916200016b9062000aee565b80601f0160208091040260200160405190810160405280929190818152602001828054620001999062000aee565b8015620001ea5780601f10620001be57610100808354040283529160200191620001ea565b820191906000526020600020905b815481529060010190602001808311620001cc57829003601f168201915b5050505050815250508152602001906001019062000112565b50505050905090565b6004602052600090815260409020546001600160a01b031681565b6002546001600160a01b031681565b60405163462a6ea560e11b815273__Validations___________________________90638c54dd4a9062000272903390600390600401620007f2565b60206040518083038186803b1580156200028b57600080fd5b505af4158015620002a0573d6000803e3d6000fd5b505050506040513d601f19601f82011682018060405250810190620002c691906200063b565b620002ee5760405162461bcd60e51b8152600401620002e59062000aab565b60405180910390fd5b878787878787878733600260009054906101000a90046001600160a01b03166040516200031b90620004ce565b620003309a99989796959493929190620009de565b604051809103906000f0801580156200034d573d6000803e3d6000fd5b5033600081815260046020818152604080842080546001600160a01b039788166001600160a01b03199182161791829055825160608101845296875293835286168583019081529085018e81526003805460018101825595819052865195027fc2575a0e9e593c00f959f8c92f12db2869c3395a3b0502d05e2516446f71f85b8101805496891696861696909617865591517fc2575a0e9e593c00f959f8c92f12db2869c3395a3b0502d05e2516446f71f85c830180549190981694169390931790955590518051939492936200044c937fc2575a0e9e593c00f959f8c92f12db2869c3395a3b0502d05e2516446f71f85d01929190910190620004dc565b505033600090815260046020526040908190205490517fc50fe6a1257a98e3c67400d38ca1b1ded7fad2d8b2024e2d7bf4946174459fa092506200049e918b916001600160a01b0390911690620009b2565b60405180910390a15050505050505050565b6001546001600160a01b031681565b6000546001600160a01b031681565b610dc38062000b4283390190565b828054620004ea9062000aee565b90600052602060002090601f0160209004810192826200050e576000855562000559565b82601f106200052957805160ff191683800117855562000559565b8280016001018555821562000559579182015b82811115620005595782518255916020019190600101906200053c565b50620005679291506200056b565b5090565b5b808211156200056757600081556001016200056c565b600082601f83011262000593578081fd5b813567ffffffffffffffff80821115620005b157620005b162000b2b565b604051601f8301601f191681016020018281118282101715620005d857620005d862000b2b565b604052828152848301602001861015620005f0578384fd5b82602086016020830137918201602001929092529392505050565b6000602082840312156200061d578081fd5b81356001600160a01b038116811462000634578182fd5b9392505050565b6000602082840312156200064d578081fd5b8151801515811462000634578182fd5b600080600080600080600080610100898b0312156200067a578384fd5b883567ffffffffffffffff8082111562000692578586fd5b620006a08c838d0162000582565b995060208b0135985060408b0135915080821115620006bd578586fd5b620006cb8c838d0162000582565b975060608b0135915080821115620006e1578586fd5b620006ef8c838d0162000582565b965060808b013591508082111562000705578586fd5b620007138c838d0162000582565b955060a08b013591508082111562000729578485fd5b620007378c838d0162000582565b945060c08b01359150808211156200074d578384fd5b6200075b8c838d0162000582565b935060e08b013591508082111562000771578283fd5b50620007808b828c0162000582565b9150509295985092959890939650565b60008151808452815b81811015620007b75760208185018101518683018201520162000799565b81811115620007c95782602083870101525b50601f01601f19169290920160200192915050565b6001600160a01b0391909116815260200190565b60006040820160018060a01b038086168452602060408186015282865480855260608701915060608382028801019450878652828620865b828110156200091757605f19898803018452858254168752856001830154168588015260028201606060408901528881548a60028204905060018216806200087357607f821691505b8982108114156200089257634e487b7160e01b8d52602260045260248dfd5b620008a18260608e0162000ae5565b818015620008b85760018114620008ca57620008fa565b60ff19851682528b82019550620008fa565b620008d58762000ad9565b8f5b85811015620008f4578154848201526001909101908d01620008d7565b83019650505b50939b50505095870195505050600391909101906001016200082a565b50949998505050505050505050565b60208082528251828201819052600091906040908185019080840286018301878501865b83811015620009a457888303603f19018552815180516001600160a01b03908116855288820151168885015286015160608785018190526200098f8186018362000790565b9689019694505050908601906001016200094a565b509098975050505050505050565b600060408252620009c7604083018562000790565b905060018060a01b03831660208301529392505050565b6000610140808352620009f48184018e62000790565b90508b6020840152828103604084015262000a10818c62000790565b9050828103606084015262000a26818b62000790565b9050828103608084015262000a3c818a62000790565b905082810360a084015262000a52818962000790565b905082810360c084015262000a68818862000790565b905082810360e084015262000a7e818762000790565b6001600160a01b039586166101008501529390941661012090920191909152509998505050505050505050565b602080825260149082015273456c20636c69656e74652079612065786973746560601b604082015260600190565b60009081526020902090565b90815260200190565b60028104600182168062000b0357607f821691505b6020821081141562000b2557634e487b7160e01b600052602260045260246000fd5b50919050565b634e487b7160e01b600052604160045260246000fdfe6080604052600380546001600160a01b03191690553480156200002157600080fd5b5060405162000dc338038062000dc38339810160408190526200004491620002aa565b600180546001600160a01b0384166001600160a01b03199182161790915560028054909116301790558951620000829060059060208d01906200013c565b50600689905587516200009d9060079060208b01906200013c565b508651620000b39060089060208a01906200013c565b508551620000c99060099060208901906200013c565b508451620000df90600a9060208801906200013c565b508351620000f590600b9060208701906200013c565b5082516200010b90600c9060208601906200013c565b50600080546001600160a01b0319166001600160a01b03929092169190911790555062000456975050505050505050565b8280546200014a9062000403565b90600052602060002090601f0160209004810192826200016e5760008555620001b9565b82601f106200018957805160ff1916838001178555620001b9565b82800160010185558215620001b9579182015b82811115620001b95782518255916020019190600101906200019c565b50620001c7929150620001cb565b5090565b5b80821115620001c75760008155600101620001cc565b80516001600160a01b0381168114620001fa57600080fd5b919050565b600082601f83011262000210578081fd5b81516001600160401b03808211156200022d576200022d62000440565b6040516020601f8401601f191682018101838111838210171562000255576200025562000440565b60405283825285840181018710156200026c578485fd5b8492505b838310156200028f578583018101518284018201529182019162000270565b83831115620002a057848185840101525b5095945050505050565b6000806000806000806000806000806101408b8d031215620002ca578586fd5b8a516001600160401b0380821115620002e1578788fd5b620002ef8e838f01620001ff565b9b5060208d01519a5060408d01519150808211156200030c578788fd5b6200031a8e838f01620001ff565b995060608d015191508082111562000330578788fd5b6200033e8e838f01620001ff565b985060808d015191508082111562000354578788fd5b620003628e838f01620001ff565b975060a08d015191508082111562000378578687fd5b620003868e838f01620001ff565b965060c08d01519150808211156200039c578586fd5b620003aa8e838f01620001ff565b955060e08d0151915080821115620003c0578485fd5b50620003cf8d828e01620001ff565b935050620003e16101008c01620001e2565b9150620003f26101208c01620001e2565b90509295989b9194979a5092959850565b6002810460018216806200041857607f821691505b602082108114156200043a57634e487b7160e01b600052602260045260246000fd5b50919050565b634e487b7160e01b600052604160045260246000fd5b61095d80620004666000396000f3fe6080604052600436106100fe5760003560e01c8063856788df11610095578063ab46744311610064578063ab46744314610238578063cf7bddef1461024d578063daa138b814610262578063e33f34a014610277578063fc0161871461028c576100fe565b8063856788df146101d95780638da5cb5b146101ee5780638f6f83961461020357806395965bda14610218576100fe565b8063362af7ee116100d1578063362af7ee14610178578063551edf901461018d57806366bd78fd146101af5780637eb5a688146101c4576100fe565b80631890154c1461010357806319936caf146101185780631afd64e214610143578063360c4ce014610156575b600080fd5b61011661011136600461074f565b6102a1565b005b34801561012457600080fd5b5061012d6103b1565b60405161013a91906108ad565b60405180910390f35b61011661015136600461074f565b6103b7565b34801561016257600080fd5b5061016b61049a565b60405161013a9190610793565b34801561018457600080fd5b5061016b610528565b34801561019957600080fd5b506101a2610535565b60405161013a919061077f565b3480156101bb57600080fd5b5061012d610544565b3480156101d057600080fd5b506101a2610548565b3480156101e557600080fd5b506101a2610557565b3480156101fa57600080fd5b506101a2610566565b34801561020f57600080fd5b5061016b610575565b34801561022457600080fd5b50610116610233366004610721565b610582565b34801561024457600080fd5b5061016b610667565b34801561025957600080fd5b5061016b610674565b34801561026e57600080fd5b5061016b610681565b34801561028357600080fd5b5061012d61068e565b34801561029857600080fd5b5061016b610714565b60015433906001600160a01b031681146102d65760405162461bcd60e51b81526004016102cd9061085f565b60405180910390fd5b6000805460405163649513c560e11b81526001600160a01b039091169063c92a278a9061030990869033906004016108b6565b602060405180830381600087803b15801561032357600080fd5b505af1158015610337573d6000803e3d6000fd5b505050506040513d601f19601f8201168201806040525081019061035b9190610767565b9050600147101561037e5760405162461bcd60e51b81526004016102cd906107e6565b604051339082156108fc029083906000818181858888f193505050501580156103ab573d6000803e3d6000fd5b50505050565b60065481565b60015433906001600160a01b031681146103e35760405162461bcd60e51b81526004016102cd9061085f565b600080546040516311ac8a5b60e21b81526001600160a01b03909116906346b2296c90610418903490879033906004016108cd565b602060405180830381600087803b15801561043257600080fd5b505af1158015610446573d6000803e3d6000fd5b505050506040513d601f19601f8201168201806040525081019061046a9190610767565b604051909150339082156108fc029083906000818181858888f193505050501580156103ab573d6000803e3d6000fd5b600880546104a7906108ec565b80601f01602080910402602001604051908101604052809291908181526020018280546104d3906108ec565b80156105205780601f106104f557610100808354040283529160200191610520565b820191906000526020600020905b81548152906001019060200180831161050357829003601f168201915b505050505081565b600780546104a7906108ec565b6003546001600160a01b031681565b4790565b6000546001600160a01b031681565b6002546001600160a01b031681565b6001546001600160a01b031681565b600b80546104a7906108ec565b60015433906001600160a01b031681146105ae5760405162461bcd60e51b81526004016102cd9061085f565b6000826001600160a01b031663013643fd6040518163ffffffff1660e01b815260040160206040518083038186803b1580156105e957600080fd5b505afa1580156105fd573d6000803e3d6000fd5b505050506040513d601f19601f820116820180604052508101906106219190610767565b9050806001146106435760405162461bcd60e51b81526004016102cd90610814565b5050600480546001600160a01b0319166001600160a01b0392909216919091179055565b600c80546104a7906108ec565b600580546104a7906108ec565b600980546104a7906108ec565b60008054604051630e03c03b60e01b81526001600160a01b0390911690630e03c03b906106bf90339060040161077f565b60206040518083038186803b1580156106d757600080fd5b505afa1580156106eb573d6000803e3d6000fd5b505050506040513d601f19601f8201168201806040525081019061070f9190610767565b905090565b600a80546104a7906108ec565b600060208284031215610732578081fd5b81356001600160a01b0381168114610748578182fd5b9392505050565b600060208284031215610760578081fd5b5035919050565b600060208284031215610778578081fd5b5051919050565b6001600160a01b0391909116815260200190565b6000602080835283518082850152825b818110156107bf578581018301518582016040015282016107a3565b818111156107d05783604083870101525b50601f01601f1916929092016040019392505050565b60208082526014908201527310dbdb9d1c9858dd081d5b99195c999d5b99195960621b604082015260600190565b6020808252602b908201527f456c20636f6d65726369616c697a61646f72206465626520736572206465207460408201526a69706f20436c69656e746560a81b606082015260800190565b6020808252602e908201527f4e6f207469656e65207065726d69736f73207061726120656a6563757461722060408201526d3630903a3930b739b0b1b1b4b7b760911b606082015260800190565b90815260200190565b9182526001600160a01b0316602082015260400190565b92835260208301919091526001600160a01b0316604082015260600190565b60028104600182168061090057607f821691505b6020821081141561092157634e487b7160e01b600052602260045260246000fd5b5091905056fea2646970667358221220eea02ff6134d66bce62357af07e593a9a8fc56801447b00fd8480f1880700bb064736f6c63430008000033a264697066735822122038e9eede9ec8ec5731e6f89b3235ce42668121be65888a07996131e71c28e94164736f6c63430008000033",
  "immutableReferences": {},
  "source": "// SPDX-License-Identifier: MIT\r\npragma solidity ^0.8.0;\r\npragma experimental ABIEncoderV2;\r\nimport \"./Generador.sol\";\r\nimport \"./Comercializador.sol\";\r\nimport \"./models/InfoContrato.sol\";\r\nimport \"./libraries/Validations.sol\";\r\nimport \"./Cliente.sol\";\r\nimport \"./models/Factory.sol\";\r\n\r\ncontract MvmClienteFactory is Factory {\r\n    mapping(address => address) public DirContratosClientes;\r\n\r\n    constructor(address _reguladorMercado) {\r\n        owner = msg.sender;\r\n        dirContrato = address(this);\r\n        reguladorMercado = _reguladorMercado;\r\n    }\r\n\r\n    event CreacionCliente(string, address);\r\n\r\n    function factoryCliente(\r\n        string memory _empresa,\r\n        uint256 _nit,\r\n        string memory _contacto,\r\n        string memory _telefono,\r\n        string memory _correo,\r\n        string memory _direccion,\r\n        string memory _ciudad,\r\n        string memory _departamento\r\n    ) public {\r\n        require(\r\n            Validations.aproveCreation(msg.sender, contratosOwners),\r\n            \"El cliente ya existe\"\r\n        );\r\n        DirContratosClientes[msg.sender] = address(\r\n            new Cliente(\r\n                _empresa,\r\n                _nit,\r\n                _contacto,\r\n                _telefono,\r\n                _correo,\r\n                _direccion,\r\n                _ciudad,\r\n                _departamento,\r\n                msg.sender,\r\n                reguladorMercado\r\n            )\r\n        );\r\n\r\n        contratosOwners.push(\r\n            infoContrato(msg.sender, DirContratosClientes[msg.sender],_empresa)\r\n        );\r\n        emit CreacionCliente(_empresa, DirContratosClientes[msg.sender]);\r\n    }\r\n}\r\n",
  "sourcePath": "C:\\Users\\alejandro.perez\\Desktop\\DemoMvmTruffle\\contracts\\MvmClienteFactory.sol",
  "compiler": {
    "name": "solc",
    "version": "0.8.0+commit.c7dfd78e.Emscripten.clang"
  },
  "schemaVersion": "3.4.7",
  "updatedAt": "2022-07-07T19:15:35.460Z",
  "networkType": "ethereum",
  "devdoc": {
    "kind": "dev",
    "methods": {},
    "version": 1
  },
  "userdoc": {
    "kind": "user",
    "methods": {},
    "version": 1
  }
}