{
  "contractName": "MvmClienteFactory",
  "abi": [
    {
      "inputs": [
        {
          "internalType": "address",
          "name": "_reguladorMercado",
          "type": "address"
        }
      ],
      "stateMutability": "nonpayable",
      "type": "constructor"
    },
    {
      "anonymous": false,
      "inputs": [
        {
          "indexed": false,
          "internalType": "string",
          "name": "",
          "type": "string"
        },
        {
          "indexed": false,
          "internalType": "address",
          "name": "",
          "type": "address"
        }
      ],
      "name": "Creacion",
      "type": "event"
    },
    {
      "anonymous": false,
      "inputs": [
        {
          "indexed": false,
          "internalType": "string",
          "name": "",
          "type": "string"
        },
        {
          "indexed": false,
          "internalType": "address",
          "name": "",
          "type": "address"
        }
      ],
      "name": "CreacionCliente",
      "type": "event"
    },
    {
      "inputs": [
        {
          "internalType": "address",
          "name": "",
          "type": "address"
        }
      ],
      "name": "DirContratosClientes",
      "outputs": [
        {
          "internalType": "address",
          "name": "",
          "type": "address"
        }
      ],
      "stateMutability": "view",
      "type": "function"
    },
    {
      "inputs": [],
      "name": "dirContrato",
      "outputs": [
        {
          "internalType": "address",
          "name": "",
          "type": "address"
        }
      ],
      "stateMutability": "view",
      "type": "function"
    },
    {
      "inputs": [],
      "name": "getContratosOwners",
      "outputs": [
        {
          "components": [
            {
              "internalType": "address",
              "name": "owner",
              "type": "address"
            },
            {
              "internalType": "address",
              "name": "dirContrato",
              "type": "address"
            }
          ],
          "internalType": "struct infoContrato[]",
          "name": "",
          "type": "tuple[]"
        }
      ],
      "stateMutability": "view",
      "type": "function"
    },
    {
      "inputs": [],
      "name": "owner",
      "outputs": [
        {
          "internalType": "address",
          "name": "",
          "type": "address"
        }
      ],
      "stateMutability": "view",
      "type": "function"
    },
    {
      "inputs": [],
      "name": "reguladorMercado",
      "outputs": [
        {
          "internalType": "address",
          "name": "",
          "type": "address"
        }
      ],
      "stateMutability": "view",
      "type": "function"
    },
    {
      "inputs": [
        {
          "internalType": "string",
          "name": "_empresa",
          "type": "string"
        },
        {
          "internalType": "uint256",
          "name": "_nit",
          "type": "uint256"
        },
        {
          "internalType": "string",
          "name": "_contacto",
          "type": "string"
        },
        {
          "internalType": "string",
          "name": "_telefono",
          "type": "string"
        },
        {
          "internalType": "string",
          "name": "_correo",
          "type": "string"
        },
        {
          "internalType": "string",
          "name": "_direccion",
          "type": "string"
        },
        {
          "internalType": "string",
          "name": "_ciudad",
          "type": "string"
        },
        {
          "internalType": "string",
          "name": "_departamento",
          "type": "string"
        }
      ],
      "name": "factoryCliente",
      "outputs": [],
      "stateMutability": "nonpayable",
      "type": "function"
    }
  ],
  "bytecode": "0x608060405234801561001057600080fd5b506040516116fa3803806116fa83398101604081905261002f9161006d565b600080546001600160a01b0319908116331790915560018054821630179055600280546001600160a01b03939093169290911691909117905561009b565b60006020828403121561007e578081fd5b81516001600160a01b0381168114610094578182fd5b9392505050565b611650806100aa6000396000f3fe60806040523480156200001157600080fd5b50600436106200006a5760003560e01c80634cdbdb6d146200006f57806365cd10e714620000915780637eb5a68814620000b757806381048cde14620000c1578063856788df14620000da5780638da5cb5b14620000e4575b600080fd5b62000079620000ee565b604051620000889190620006bc565b60405180910390f35b620000a8620000a236600462000466565b62000168565b60405162000088919062000639565b620000a862000183565b620000d8620000d2366004620004b8565b62000192565b005b620000a8620003b1565b620000a8620003c0565b60606003805480602002602001604051908101604052809291908181526020016000905b828210156200015f576000848152602090819020604080518082019091526002850290910180546001600160a01b0390811683526001918201541682840152908352909201910162000112565b50505050905090565b6004602052600090815260409020546001600160a01b031681565b6002546001600160a01b031681565b60405163462a6ea560e11b815273__Validations___________________________90638c54dd4a90620001ce9033906003906004016200064d565b60206040518083038186803b158015620001e757600080fd5b505af4158015620001fc573d6000803e3d6000fd5b505050506040513d601f19601f8201168201806040525081019062000222919062000496565b6200024a5760405162461bcd60e51b8152600401620002419062000813565b60405180910390fd5b878787878787878733600260009054906101000a90046001600160a01b03166040516200027790620003cf565b6200028c9a9998979695949392919062000746565b604051809103906000f080158015620002a9573d6000803e3d6000fd5b5033600081815260046020818152604080842080546001600160a01b03199081166001600160a01b0398891617808355835180850185528881528686529089168186019081526003805460018101825590895291517fc2575a0e9e593c00f959f8c92f12db2869c3395a3b0502d05e2516446f71f85b600290930292830180548516918c16919091179055517fc2575a0e9e593c00f959f8c92f12db2869c3395a3b0502d05e2516446f71f85c90910180549092169089161790559490935252905490517fc50fe6a1257a98e3c67400d38ca1b1ded7fad2d8b2024e2d7bf4946174459fa0926200039f928c929116906200071a565b60405180910390a15050505050505050565b6001546001600160a01b031681565b6000546001600160a01b031681565b610dc3806200085883390190565b600082601f830112620003ee578081fd5b813567ffffffffffffffff808211156200040c576200040c62000841565b604051601f8301601f19168101602001828111828210171562000433576200043362000841565b6040528281528483016020018610156200044b578384fd5b82602086016020830137918201602001929092529392505050565b60006020828403121562000478578081fd5b81356001600160a01b03811681146200048f578182fd5b9392505050565b600060208284031215620004a8578081fd5b815180151581146200048f578182fd5b600080600080600080600080610100898b031215620004d5578384fd5b883567ffffffffffffffff80821115620004ed578586fd5b620004fb8c838d01620003dd565b995060208b0135985060408b013591508082111562000518578586fd5b620005268c838d01620003dd565b975060608b01359150808211156200053c578586fd5b6200054a8c838d01620003dd565b965060808b013591508082111562000560578586fd5b6200056e8c838d01620003dd565b955060a08b013591508082111562000584578485fd5b620005928c838d01620003dd565b945060c08b0135915080821115620005a8578384fd5b620005b68c838d01620003dd565b935060e08b0135915080821115620005cc578283fd5b50620005db8b828c01620003dd565b9150509295985092959890939650565b60008151808452815b818110156200061257602081850181015186830182015201620005f4565b81811115620006245782602083870101525b50601f01601f19169290920160200192915050565b6001600160a01b0391909116815260200190565b6001600160a01b03838116825260406020808401829052845484830181905260008681528281209094909290916060870190865b81811015620006ad57855485168352600180870154861685850152600290960195928701920162000681565b50909998505050505050505050565b602080825282518282018190526000919060409081850190868401855b828110156200070d57815180516001600160a01b0390811686529087015116868501529284019290850190600101620006d9565b5091979650505050505050565b6000604082526200072f6040830185620005eb565b905060018060a01b03831660208301529392505050565b60006101408083526200075c8184018e620005eb565b90508b6020840152828103604084015262000778818c620005eb565b905082810360608401526200078e818b620005eb565b90508281036080840152620007a4818a620005eb565b905082810360a0840152620007ba8189620005eb565b905082810360c0840152620007d08188620005eb565b905082810360e0840152620007e68187620005eb565b6001600160a01b039586166101008501529390941661012090920191909152509998505050505050505050565b602080825260149082015273456c20636c69656e74652079612065786973746560601b604082015260600190565b634e487b7160e01b600052604160045260246000fdfe6080604052600380546001600160a01b03191690553480156200002157600080fd5b5060405162000dc338038062000dc38339810160408190526200004491620002aa565b600180546001600160a01b0384166001600160a01b03199182161790915560028054909116301790558951620000829060059060208d01906200013c565b50600689905587516200009d9060079060208b01906200013c565b508651620000b39060089060208a01906200013c565b508551620000c99060099060208901906200013c565b508451620000df90600a9060208801906200013c565b508351620000f590600b9060208701906200013c565b5082516200010b90600c9060208601906200013c565b50600080546001600160a01b0319166001600160a01b03929092169190911790555062000456975050505050505050565b8280546200014a9062000403565b90600052602060002090601f0160209004810192826200016e5760008555620001b9565b82601f106200018957805160ff1916838001178555620001b9565b82800160010185558215620001b9579182015b82811115620001b95782518255916020019190600101906200019c565b50620001c7929150620001cb565b5090565b5b80821115620001c75760008155600101620001cc565b80516001600160a01b0381168114620001fa57600080fd5b919050565b600082601f83011262000210578081fd5b81516001600160401b03808211156200022d576200022d62000440565b6040516020601f8401601f191682018101838111838210171562000255576200025562000440565b60405283825285840181018710156200026c578485fd5b8492505b838310156200028f578583018101518284018201529182019162000270565b83831115620002a057848185840101525b5095945050505050565b6000806000806000806000806000806101408b8d031215620002ca578586fd5b8a516001600160401b0380821115620002e1578788fd5b620002ef8e838f01620001ff565b9b5060208d01519a5060408d01519150808211156200030c578788fd5b6200031a8e838f01620001ff565b995060608d015191508082111562000330578788fd5b6200033e8e838f01620001ff565b985060808d015191508082111562000354578788fd5b620003628e838f01620001ff565b975060a08d015191508082111562000378578687fd5b620003868e838f01620001ff565b965060c08d01519150808211156200039c578586fd5b620003aa8e838f01620001ff565b955060e08d0151915080821115620003c0578485fd5b50620003cf8d828e01620001ff565b935050620003e16101008c01620001e2565b9150620003f26101208c01620001e2565b90509295989b9194979a5092959850565b6002810460018216806200041857607f821691505b602082108114156200043a57634e487b7160e01b600052602260045260246000fd5b50919050565b634e487b7160e01b600052604160045260246000fd5b61095d80620004666000396000f3fe6080604052600436106100fe5760003560e01c8063856788df11610095578063ab46744311610064578063ab46744314610238578063cf7bddef1461024d578063daa138b814610262578063e33f34a014610277578063fc0161871461028c576100fe565b8063856788df146101d95780638da5cb5b146101ee5780638f6f83961461020357806395965bda14610218576100fe565b8063362af7ee116100d1578063362af7ee14610178578063551edf901461018d57806366bd78fd146101af5780637eb5a688146101c4576100fe565b80631890154c1461010357806319936caf146101185780631afd64e214610143578063360c4ce014610156575b600080fd5b61011661011136600461074f565b6102a1565b005b34801561012457600080fd5b5061012d6103b1565b60405161013a91906108ad565b60405180910390f35b61011661015136600461074f565b6103b7565b34801561016257600080fd5b5061016b61049a565b60405161013a9190610793565b34801561018457600080fd5b5061016b610528565b34801561019957600080fd5b506101a2610535565b60405161013a919061077f565b3480156101bb57600080fd5b5061012d610544565b3480156101d057600080fd5b506101a2610548565b3480156101e557600080fd5b506101a2610557565b3480156101fa57600080fd5b506101a2610566565b34801561020f57600080fd5b5061016b610575565b34801561022457600080fd5b50610116610233366004610721565b610582565b34801561024457600080fd5b5061016b610667565b34801561025957600080fd5b5061016b610674565b34801561026e57600080fd5b5061016b610681565b34801561028357600080fd5b5061012d61068e565b34801561029857600080fd5b5061016b610714565b60015433906001600160a01b031681146102d65760405162461bcd60e51b81526004016102cd9061085f565b60405180910390fd5b6000805460405163649513c560e11b81526001600160a01b039091169063c92a278a9061030990869033906004016108b6565b602060405180830381600087803b15801561032357600080fd5b505af1158015610337573d6000803e3d6000fd5b505050506040513d601f19601f8201168201806040525081019061035b9190610767565b9050600147101561037e5760405162461bcd60e51b81526004016102cd906107e6565b604051339082156108fc029083906000818181858888f193505050501580156103ab573d6000803e3d6000fd5b50505050565b60065481565b60015433906001600160a01b031681146103e35760405162461bcd60e51b81526004016102cd9061085f565b600080546040516311ac8a5b60e21b81526001600160a01b03909116906346b2296c90610418903490879033906004016108cd565b602060405180830381600087803b15801561043257600080fd5b505af1158015610446573d6000803e3d6000fd5b505050506040513d601f19601f8201168201806040525081019061046a9190610767565b604051909150339082156108fc029083906000818181858888f193505050501580156103ab573d6000803e3d6000fd5b600880546104a7906108ec565b80601f01602080910402602001604051908101604052809291908181526020018280546104d3906108ec565b80156105205780601f106104f557610100808354040283529160200191610520565b820191906000526020600020905b81548152906001019060200180831161050357829003601f168201915b505050505081565b600780546104a7906108ec565b6003546001600160a01b031681565b4790565b6000546001600160a01b031681565b6002546001600160a01b031681565b6001546001600160a01b031681565b600b80546104a7906108ec565b60015433906001600160a01b031681146105ae5760405162461bcd60e51b81526004016102cd9061085f565b6000826001600160a01b031663013643fd6040518163ffffffff1660e01b815260040160206040518083038186803b1580156105e957600080fd5b505afa1580156105fd573d6000803e3d6000fd5b505050506040513d601f19601f820116820180604052508101906106219190610767565b9050806001146106435760405162461bcd60e51b81526004016102cd90610814565b5050600480546001600160a01b0319166001600160a01b0392909216919091179055565b600c80546104a7906108ec565b600580546104a7906108ec565b600980546104a7906108ec565b60008054604051630e03c03b60e01b81526001600160a01b0390911690630e03c03b906106bf90339060040161077f565b60206040518083038186803b1580156106d757600080fd5b505afa1580156106eb573d6000803e3d6000fd5b505050506040513d601f19601f8201168201806040525081019061070f9190610767565b905090565b600a80546104a7906108ec565b600060208284031215610732578081fd5b81356001600160a01b0381168114610748578182fd5b9392505050565b600060208284031215610760578081fd5b5035919050565b600060208284031215610778578081fd5b5051919050565b6001600160a01b0391909116815260200190565b6000602080835283518082850152825b818110156107bf578581018301518582016040015282016107a3565b818111156107d05783604083870101525b50601f01601f1916929092016040019392505050565b60208082526014908201527310dbdb9d1c9858dd081d5b99195c999d5b99195960621b604082015260600190565b6020808252602b908201527f456c20636f6d65726369616c697a61646f72206465626520736572206465207460408201526a69706f20436c69656e746560a81b606082015260800190565b6020808252602e908201527f4e6f207469656e65207065726d69736f73207061726120656a6563757461722060408201526d3630903a3930b739b0b1b1b4b7b760911b606082015260800190565b90815260200190565b9182526001600160a01b0316602082015260400190565b92835260208301919091526001600160a01b0316604082015260600190565b60028104600182168061090057607f821691505b6020821081141561092157634e487b7160e01b600052602260045260246000fd5b5091905056fea2646970667358221220cb4386588763b64b4f2d659fdbf2b4b377cb72f3f93f0cf55e413e92447fabe364736f6c63430008000033a2646970667358221220761f8d244e6938cb9fc58088f96a1436bd05186363ad6912fd6aeaee9516993364736f6c63430008000033",
  "immutableReferences": {},
  "source": "// SPDX-License-Identifier: MIT\r\npragma solidity ^0.8.0;\r\npragma experimental ABIEncoderV2;\r\nimport \"./Generador.sol\";\r\nimport \"./Comercializador.sol\";\r\nimport \"./models/InfoContrato.sol\";\r\nimport \"./libraries/Validations.sol\";\r\nimport \"./Cliente.sol\";\r\nimport \"./models/Factory.sol\";\r\n\r\ncontract MvmClienteFactory is Factory {\r\n    mapping(address => address) public DirContratosClientes;\r\n\r\n    constructor(address _reguladorMercado) {\r\n        owner = msg.sender;\r\n        dirContrato = address(this);\r\n        reguladorMercado = _reguladorMercado;\r\n    }\r\n\r\n    event CreacionCliente(string, address);\r\n\r\n    function factoryCliente(\r\n        string memory _empresa,\r\n        uint256 _nit,\r\n        string memory _contacto,\r\n        string memory _telefono,\r\n        string memory _correo,\r\n        string memory _direccion,\r\n        string memory _ciudad,\r\n        string memory _departamento\r\n    ) public {\r\n        require(\r\n            Validations.aproveCreation(msg.sender, contratosOwners),\r\n            \"El cliente ya existe\"\r\n        );\r\n        DirContratosClientes[msg.sender] = address(\r\n            new Cliente(\r\n                _empresa,\r\n                _nit,\r\n                _contacto,\r\n                _telefono,\r\n                _correo,\r\n                _direccion,\r\n                _ciudad,\r\n                _departamento,\r\n                msg.sender,\r\n                reguladorMercado\r\n            )\r\n        );\r\n\r\n        contratosOwners.push(\r\n            infoContrato(msg.sender, DirContratosClientes[msg.sender])\r\n        );\r\n        emit CreacionCliente(_empresa, DirContratosClientes[msg.sender]);\r\n    }\r\n}\r\n",
  "sourcePath": "C:\\Users\\alejandro.perez\\Desktop\\DemoMvmTruffle\\contracts\\MvmClienteFactory.sol",
  "compiler": {
    "name": "solc",
    "version": "0.8.0+commit.c7dfd78e.Emscripten.clang"
  },
  "schemaVersion": "3.4.7",
  "updatedAt": "2022-06-30T14:15:01.779Z",
  "devdoc": {
    "kind": "dev",
    "methods": {},
    "version": 1
  },
  "userdoc": {
    "kind": "user",
    "methods": {},
    "version": 1
  }
}