{
  "contractName": "MvmComercializadorFactory",
  "abi": [
    {
      "inputs": [],
      "stateMutability": "nonpayable",
      "type": "constructor"
    },
    {
      "anonymous": false,
      "inputs": [
        {
          "indexed": false,
          "internalType": "string",
          "name": "",
          "type": "string"
        },
        {
          "indexed": false,
          "internalType": "address",
          "name": "",
          "type": "address"
        }
      ],
      "name": "CreacionComercializador",
      "type": "event"
    },
    {
      "inputs": [
        {
          "internalType": "address",
          "name": "",
          "type": "address"
        }
      ],
      "name": "DirContratosComercializadores",
      "outputs": [
        {
          "internalType": "address",
          "name": "",
          "type": "address"
        }
      ],
      "stateMutability": "view",
      "type": "function"
    },
    {
      "inputs": [],
      "name": "dirContrato",
      "outputs": [
        {
          "internalType": "address",
          "name": "",
          "type": "address"
        }
      ],
      "stateMutability": "view",
      "type": "function"
    },
    {
      "inputs": [],
      "name": "owner",
      "outputs": [
        {
          "internalType": "address",
          "name": "",
          "type": "address"
        }
      ],
      "stateMutability": "view",
      "type": "function"
    },
    {
      "inputs": [
        {
          "internalType": "address",
          "name": "_reguladorMercado",
          "type": "address"
        },
        {
          "internalType": "string",
          "name": "nombreComercializador",
          "type": "string"
        },
        {
          "internalType": "uint256",
          "name": "_tipoComercio",
          "type": "uint256"
        }
      ],
      "name": "factoryComercializador",
      "outputs": [],
      "stateMutability": "nonpayable",
      "type": "function"
    },
    {
      "inputs": [],
      "name": "getComercializadoresOwners",
      "outputs": [
        {
          "components": [
            {
              "internalType": "address",
              "name": "owner",
              "type": "address"
            },
            {
              "internalType": "address",
              "name": "dirContrato",
              "type": "address"
            }
          ],
          "internalType": "struct infoContrato[]",
          "name": "",
          "type": "tuple[]"
        }
      ],
      "stateMutability": "view",
      "type": "function"
    },
    {
      "inputs": [
        {
          "internalType": "address",
          "name": "contractDir",
          "type": "address"
        },
        {
          "components": [
            {
              "internalType": "address",
              "name": "owner",
              "type": "address"
            },
            {
              "internalType": "address",
              "name": "dirContrato",
              "type": "address"
            }
          ],
          "internalType": "struct infoContrato[]",
          "name": "arrayContracts",
          "type": "tuple[]"
        }
      ],
      "name": "existeComercializador",
      "outputs": [
        {
          "internalType": "bool",
          "name": "",
          "type": "bool"
        }
      ],
      "stateMutability": "pure",
      "type": "function"
    }
  ],
  "bytecode": "0x608060405234801561001057600080fd5b50600080546001600160a01b031990811633179091556001805490911630179055612e8d806100406000396000f3fe60806040523480156200001157600080fd5b50600436106200006a5760003560e01c806313f61dca146200006f57806336448da01462000091578063856788df14620000aa5780638da5cb5b14620000c35780639010e4e514620000cd578063c35b3c4c14620000f3575b600080fd5b620000796200010a565b604051620000889190620007ea565b60405180910390f35b620000a8620000a2366004620005c7565b62000184565b005b620000b462000393565b60405162000088919062000705565b620000b4620003a2565b620000e4620000de366004620004b6565b620003b1565b6040516200008891906200083b565b620000b46200010436600462000499565b62000453565b60606002805480602002602001604051908101604052809291908181526020016000905b828210156200017b576000848152602090819020604080518082019091526002850290910180546001600160a01b039081168352600191820154168284015290835290920191016200012e565b50505050905090565b60405163462a6ea560e11b815273__Validations___________________________90638c54dd4a90620001c09033906002906004016200077b565b60206040518083038186803b158015620001d957600080fd5b505af4158015620001ee573d6000803e3d6000fd5b505050506040513d601f19601f820116820180604052508101906200021491906200067a565b6200023c5760405162461bcd60e51b81526004016200023390620008b5565b60405180910390fd5b8133600160009054906101000a90046001600160a01b0316858460405162000264906200046e565b6200027495949392919062000872565b604051809103906000f08015801562000291573d6000803e3d6000fd5b5033600081815260036020818152604080842080546001600160a01b039788166001600160a01b0319918216178083558351808501855288815286865290891681860190815260028054600181018255818a52925192027f405787fa12a823e0f2b7631cc41b3ba8828b3321ca811111fa75cd3aa3bb5ace81018054938c1693851693909317909255517f405787fa12a823e0f2b7631cc41b3ba8828b3321ca811111fa75cd3aa3bb5acf9091018054918a16919092161790559490935252905490517f4bd12854a9e761767bd38858ddb238e3cf0dcaff3acbaf0840a0e0ac61c13b5e926200038692869291169062000846565b60405180910390a1505050565b6001546001600160a01b031681565b6000546001600160a01b031681565b60405163ee1d0a7960e01b815260009073__Validations___________________________9063ee1d0a7990620003f8906001600160a01b03871690869060040162000719565b60206040518083038186803b1580156200041157600080fd5b505af415801562000426573d6000803e3d6000fd5b505050506040513d601f19601f820116820180604052508101906200044c91906200067a565b9392505050565b6003602052600090815260409020546001600160a01b031681565b612509806200094f83390190565b80356001600160a01b03811681146200049457600080fd5b919050565b600060208284031215620004ab578081fd5b6200044c826200047c565b6000806040808486031215620004ca578182fd5b620004d5846200047c565b925060208085013567ffffffffffffffff80821115620004f3578485fd5b818701915087601f83011262000507578485fd5b8135818111156200051c576200051c62000938565b6200052b84858302016200090b565b81815284810190848601878402860187018c101562000548578889fd5b8895505b83861015620005b55787818d03121562000564578889fd5b8751888101818110878211171562000580576200058062000938565b89526200058d826200047c565b81526200059c8883016200047c565b818901528352600195909501949186019187016200054c565b50809750505050505050509250929050565b600080600060608486031215620005dc578081fd5b620005e7846200047c565b925060208085013567ffffffffffffffff8082111562000605578384fd5b818701915087601f83011262000619578384fd5b8135818111156200062e576200062e62000938565b62000642601f8201601f191685016200090b565b9150808252888482850101111562000658578485fd5b8084840185840137810190920192909252929592945050506040919091013590565b6000602082840312156200068c578081fd5b815180151581146200044c578182fd5b60008151808452815b81811015620006c357602081850181015186830182015201620006a5565b81811115620006d55782602083870101525b50601f01601f19169290920160200192915050565b80516001600160a01b03908116835260209182015116910152565b6001600160a01b0391909116815260200190565b6001600160a01b038316815260406020808301829052835183830181905260009291858101916060860190855b818110156200076d576200075c838651620006ea565b938301939185019160010162000746565b509098975050505050505050565b6001600160a01b03838116825260406020808401829052845484830181905260008681528281209094909290916060870190865b81811015620007db578554851683526001808701548616858501526002909601959287019201620007af565b50909998505050505050505050565b602080825282518282018190526000919060409081850190868401855b828110156200082e576200081d848351620006ea565b928401929085019060010162000807565b5091979650505050505050565b901515815260200190565b6000604082526200085b60408301856200069c565b905060018060a01b03831660208301529392505050565b600060a082526200088760a08301886200069c565b6001600160a01b03968716602084015294861660408301525091909316606082015260800191909152919050565b60208082526036908201527f556e6120646972656363696f6e206e6f2070756564652074656e6572206d6173604082015275103232903ab71031b7b6b2b931b4b0b634bd30b237b960511b606082015260800190565b60405181810167ffffffffffffffff8111828210171562000930576200093062000938565b604052919050565b634e487b7160e01b600052604160045260246000fdfe6080604052600380546001600160a01b03191690553480156200002157600080fd5b50604051620025093803806200250983398101604081905262000044916200021c565b8451620000599060059060208801906200014b565b50600180546001600160a01b038087166001600160a01b0319928316178355600480548783169084161790556002805483163017905560008054918616919092161790558190811115620000bd57634e487b7160e01b600052602160045260246000fd5b6007805460ff60a01b1916600160a01b836001811115620000ee57634e487b7160e01b600052602160045260246000fd5b02179055506040516200010190620001da565b604051809103906000f0801580156200011e573d6000803e3d6000fd5b50600780546001600160a01b0319166001600160a01b039290921691909117905550620003829350505050565b82805462000159906200032f565b90600052602060002090601f0160209004810192826200017d5760008555620001c8565b82601f106200019857805160ff1916838001178555620001c8565b82800160010185558215620001c8579182015b82811115620001c8578251825591602001919060010190620001ab565b50620001d6929150620001e8565b5090565b6116098062000f0083390190565b5b80821115620001d65760008155600101620001e9565b80516001600160a01b03811681146200021757600080fd5b919050565b600080600080600060a0868803121562000234578081fd5b85516001600160401b03808211156200024b578283fd5b818801915088601f8301126200025f578283fd5b8151818111156200027457620002746200036c565b6040516020601f8301601f19168201810184811183821017156200029c576200029c6200036c565b60405282825284830181018c1015620002b3578586fd5b8593505b82841015620002d65784840181015182850182015292830192620002b7565b82841115620002e757858184840101525b819950620002f7818c01620001ff565b985050505050506200030c60408701620001ff565b92506200031c60608701620001ff565b9150608086015190509295509295909350565b6002810460018216806200034457607f821691505b602082108114156200036657634e487b7160e01b600052602260045260246000fd5b50919050565b634e487b7160e01b600052604160045260246000fd5b610b6e80620003926000396000f3fe6080604052600436106100c25760003560e01c80637eb5a6881161007f5780638da5cb5b116100595780638da5cb5b146101b05780638df45d93146101c5578063a0188517146101e7578063e33f34a014610207576100c2565b80637eb5a68814610166578063810d87d21461017b578063856788df1461019b576100c2565b8063013643fd146100c75780631890154c146100f25780631afd64e214610107578063551edf901461011a5780635c33aafe1461013c57806366bd78fd14610151575b600080fd5b3480156100d357600080fd5b506100dc61021c565b6040516100e99190610a6e565b60405180910390f35b61010561010036600461091c565b610250565b005b61010561011536600461091c565b610360565b34801561012657600080fd5b5061012f610443565b6040516100e99190610994565b34801561014857600080fd5b5061012f610452565b34801561015d57600080fd5b506100dc610461565b34801561017257600080fd5b5061012f610465565b34801561018757600080fd5b50610105610196366004610854565b610474565b3480156101a757600080fd5b5061012f61068b565b3480156101bc57600080fd5b5061012f61069a565b3480156101d157600080fd5b506101da6106a9565b6040516100e991906109a8565b3480156101f357600080fd5b506100dc6102023660046108e1565b6106b9565b34801561021357600080fd5b506100dc610752565b600754600090600160a01b900460ff16600181111561024b57634e487b7160e01b600052602160045260246000fd5b905090565b60015433906001600160a01b031681146102855760405162461bcd60e51b815260040161027c90610a20565b60405180910390fd5b6000805460405163649513c560e11b81526001600160a01b039091169063c92a278a906102b89086903390600401610a77565b602060405180830381600087803b1580156102d257600080fd5b505af11580156102e6573d6000803e3d6000fd5b505050506040513d601f19601f8201168201806040525081019061030a9190610934565b9050600147101561032d5760405162461bcd60e51b815260040161027c906109f2565b604051339082156108fc029083906000818181858888f1935050505015801561035a573d6000803e3d6000fd5b50505050565b60015433906001600160a01b0316811461038c5760405162461bcd60e51b815260040161027c90610a20565b600080546040516311ac8a5b60e21b81526001600160a01b03909116906346b2296c906103c190349087903390600401610abf565b602060405180830381600087803b1580156103db57600080fd5b505af11580156103ef573d6000803e3d6000fd5b505050506040513d601f19601f820116820180604052508101906104139190610934565b604051909150339082156108fc029083906000818181858888f1935050505015801561035a573d6000803e3d6000fd5b6003546001600160a01b031681565b6004546001600160a01b031690565b4790565b6000546001600160a01b031681565b60015433906001600160a01b031681146104a05760405162461bcd60e51b815260040161027c90610a20565b60405163cfa5784960e01b81526001600160a01b0386169063cfa57849906104d090869086908990600401610a8e565b600060405180830381600087803b1580156104ea57600080fd5b505af11580156104fe573d6000803e3d6000fd5b50506003546040516001600160a01b03909116925060069150610522908590610978565b908152604051908190036020019020546001600160a01b031614156106095760075460405163259e757760e01b81526001600160a01b039091169063259e75779061057390859087906004016109d0565b602060405180830381600087803b15801561058d57600080fd5b505af11580156105a1573d6000803e3d6000fd5b505050506040513d601f19601f820116820180604052508101906105c591906108be565b6006836040516105d59190610978565b90815260405190819003602001902080546001600160a01b03929092166001600160a01b0319909216919091179055610684565b6006826040516106199190610978565b9081526040519081900360200181205463f5a5058960e01b82526001600160a01b03169063f5a5058990610651908690600401610a6e565b600060405180830381600087803b15801561066b57600080fd5b505af115801561067f573d6000803e3d6000fd5b505050505b5050505050565b6002546001600160a01b031681565b6001546001600160a01b031681565b600754600160a01b900460ff1681565b60006006826040516106cb9190610978565b90815260408051602092819003830181205462137c1760eb1b825291516001600160a01b0390921692639be0b80092600480840193829003018186803b15801561071457600080fd5b505afa158015610728573d6000803e3d6000fd5b505050506040513d601f19601f8201168201806040525081019061074c9190610934565b92915050565b60008054604051630e03c03b60e01b81526001600160a01b0390911690630e03c03b90610783903390600401610994565b60206040518083038186803b15801561079b57600080fd5b505afa1580156107af573d6000803e3d6000fd5b505050506040513d601f19601f8201168201806040525081019061024b9190610934565b600082601f8301126107e3578081fd5b813567ffffffffffffffff808211156107fe576107fe610b0a565b604051601f8301601f19168101602001828111828210171561082257610822610b0a565b604052828152848301602001861015610839578384fd5b82602086016020830137918201602001929092529392505050565b60008060008060808587031215610869578384fd5b843561087481610b20565b9350602085013561088481610b20565b925060408501359150606085013567ffffffffffffffff8111156108a6578182fd5b6108b2878288016107d3565b91505092959194509250565b6000602082840312156108cf578081fd5b81516108da81610b20565b9392505050565b6000602082840312156108f2578081fd5b813567ffffffffffffffff811115610908578182fd5b610914848285016107d3565b949350505050565b60006020828403121561092d578081fd5b5035919050565b600060208284031215610945578081fd5b5051919050565b60008151808452610964816020860160208601610ade565b601f01601f19169290920160200192915050565b6000825161098a818460208701610ade565b9190910192915050565b6001600160a01b0391909116815260200190565b60208101600283106109ca57634e487b7160e01b600052602160045260246000fd5b91905290565b6000604082526109e3604083018561094c565b90508260208301529392505050565b60208082526014908201527310dbdb9d1c9858dd081d5b99195c999d5b99195960621b604082015260600190565b6020808252602e908201527f4e6f207469656e65207065726d69736f73207061726120656a6563757461722060408201526d3630903a3930b739b0b1b1b4b7b760911b606082015260800190565b90815260200190565b9182526001600160a01b0316602082015260400190565b600084825260606020830152610aa7606083018561094c565b905060018060a01b0383166040830152949350505050565b92835260208301919091526001600160a01b0316604082015260600190565b60005b83811015610af9578181015183820152602001610ae1565b8381111561035a5750506000910152565b634e487b7160e01b600052604160045260246000fd5b6001600160a01b0381168114610b3557600080fd5b5056fea26469706673582212205b9f117adc3516af1b531ec36f54bc5542a5a7b5bf8c174fbafe1f40cd8f214f64736f6c63430008000033608060405234801561001057600080fd5b506115e9806100206000396000f3fe608060405234801561001057600080fd5b506004361061002b5760003560e01c8063259e757714610030575b600080fd5b61004361003e366004610311565b610059565b6040516100509190610451565b60405180910390f35b6040516388d8da5f60e01b81526000908190819073__StringLibrary_________________________906388d8da5f90610097908890600401610465565b60206040518083038186803b1580156100af57600080fd5b505af41580156100c3573d6000803e3d6000fd5b505050506040513d601f19601f820116820180604052508101906100e791906102ea565b1561012b57836040516100f9906102c3565b6101039190610551565b604051809103906000f08015801561011f573d6000803e3d6000fd5b50915060019050610295565b6040516388d8da5f60e01b815273__StringLibrary_________________________906388d8da5f90610162908890600401610491565b60206040518083038186803b15801561017a57600080fd5b505af415801561018e573d6000803e3d6000fd5b505050506040513d601f19601f820116820180604052508101906101b291906102ea565b156101ce57836040516101c4906102d0565b6101039190610571565b6040516388d8da5f60e01b815273__StringLibrary_________________________906388d8da5f906102059088906004016104b5565b60206040518083038186803b15801561021d57600080fd5b505af4158015610231573d6000803e3d6000fd5b505050506040513d601f19601f8201168201806040525081019061025591906102ea565b156102955783604051610267906102dd565b6102719190610583565b604051809103906000f08015801561028d573d6000803e3d6000fd5b509150600190505b806102bb5760405162461bcd60e51b81526004016102b2906104d9565b60405180910390fd5b509392505050565b610558806105ac83390190565b61055880610b0483390190565b6105588061105c83390190565b6000602082840312156102fb578081fd5b8151801515811461030a578182fd5b9392505050565b60008060408385031215610323578081fd5b823567ffffffffffffffff8082111561033a578283fd5b818501915085601f83011261034d578283fd5b813560208282111561036157610361610595565b604051601f8301601f191681018201848111828210171561038457610384610595565b604052828152848301820189101561039a578586fd5b82828601838301379182018101949094529694909201359450505050565b60008151808452815b818110156103dd576020818501810151868301820152016103c1565b818111156103ee5782602083870101525b50601f01601f19169290920160200192915050565b600581526439b7b630b960d91b602082015260400190565b6006815265656f6c69636160d01b602082015260400190565b600a8152696869647261756c69636160b01b602082015260400190565b6001600160a01b0391909116815260200190565b60006040825261047860408301846103b8565b828103602084015261048981610403565b949350505050565b6000604082526104a460408301846103b8565b82810360208401526104898161041b565b6000604082526104c860408301846103b8565b828103602084015261048981610434565b60208082526052908201527f4e6f20657320756e207469706f20646520656e65726769612076616c69646f2c60408201527f206c6f73207469706f732076616c69646f7320736f6e3a20736f6c61722c20656060820152716f6c696361206f206869647261756c69636160701b608082015260a00190565b60006040825261056360408301610403565b905082602083015292915050565b6000604082526105636040830161041b565b60006040825261056360408301610434565b634e487b7160e01b600052604160045260246000fdfe608060405234801561001057600080fd5b5060405161055838038061055883398101604081905261002f916100e5565b815161004290600090602085019061004c565b5060025550610200565b828054610058906101af565b90600052602060002090601f01602090048101928261007a57600085556100c0565b82601f1061009357805160ff19168380011785556100c0565b828001600101855582156100c0579182015b828111156100c05782518255916020019190600101906100a5565b506100cc9291506100d0565b5090565b5b808211156100cc57600081556001016100d1565b600080604083850312156100f7578182fd5b82516001600160401b038082111561010d578384fd5b818501915085601f830112610120578384fd5b815181811115610132576101326101ea565b6040516020601f8301601f1916820181018481118382101715610157576101576101ea565b604052828252848301810189101561016d578687fd5b8693505b8284101561018e5784840181015182850182015292830192610171565b8284111561019e57868184840101525b969096015195979596505050505050565b6002810460018216806101c357607f821691505b602082108114156101e457634e487b7160e01b600052602260045260246000fd5b50919050565b634e487b7160e01b600052604160045260246000fd5b6103498061020f6000396000f3fe608060405234801561001057600080fd5b506004361061007d5760003560e01c8063b0b6d1611161005b578063b0b6d161146100b0578063bc7b35b2146100c5578063f5a50589146100da578063f7ac4af4146100ed5761007d565b80639be0b800146100825780639e66e0f3146100a0578063ae4f7a4c146100a8575b600080fd5b61008a6100f5565b604051610097919061028a565b60405180910390f35b61008a6100fb565b61008a610101565b6100c36100be36600461021f565b610107565b005b6100cd61011e565b6040516100979190610237565b6100c36100e836600461021f565b6101ac565b61008a6101bc565b60025490565b60015481565b60025481565b60025460009061011790836101c1565b6002555050565b6000805461012b906102c2565b80601f0160208091040260200160405190810160405280929190818152602001828054610157906102c2565b80156101a45780601f10610179576101008083540402835291602001916101a4565b820191906000526020600020905b81548152906001019060200180831161018757829003601f168201915b505050505081565b60025460009061011790836101f2565b600390565b6000828211156101e157634e487b7160e01b600052600160045260246000fd5b6101eb82846102ab565b9392505050565b6000806101ff8385610293565b9050838110156101eb57634e487b7160e01b600052600160045260246000fd5b600060208284031215610230578081fd5b5035919050565b6000602080835283518082850152825b8181101561026357858101830151858201604001528201610247565b818111156102745783604083870101525b50601f01601f1916929092016040019392505050565b90815260200190565b600082198211156102a6576102a66102fd565b500190565b6000828210156102bd576102bd6102fd565b500390565b6002810460018216806102d657607f821691505b602082108114156102f757634e487b7160e01b600052602260045260246000fd5b50919050565b634e487b7160e01b600052601160045260246000fdfea26469706673582212206f0bca8a54f493d65ee7c9f63334f200db54562b0acf646132ca247f199b5b5464736f6c63430008000033608060405234801561001057600080fd5b5060405161055838038061055883398101604081905261002f916100e5565b815161004290600090602085019061004c565b5060025550610200565b828054610058906101af565b90600052602060002090601f01602090048101928261007a57600085556100c0565b82601f1061009357805160ff19168380011785556100c0565b828001600101855582156100c0579182015b828111156100c05782518255916020019190600101906100a5565b506100cc9291506100d0565b5090565b5b808211156100cc57600081556001016100d1565b600080604083850312156100f7578182fd5b82516001600160401b038082111561010d578384fd5b818501915085601f830112610120578384fd5b815181811115610132576101326101ea565b6040516020601f8301601f1916820181018481118382101715610157576101576101ea565b604052828252848301810189101561016d578687fd5b8693505b8284101561018e5784840181015182850182015292830192610171565b8284111561019e57868184840101525b969096015195979596505050505050565b6002810460018216806101c357607f821691505b602082108114156101e457634e487b7160e01b600052602260045260246000fd5b50919050565b634e487b7160e01b600052604160045260246000fd5b6103498061020f6000396000f3fe608060405234801561001057600080fd5b506004361061007d5760003560e01c8063b0b6d1611161005b578063b0b6d161146100b0578063bc7b35b2146100c5578063f5a50589146100da578063f7ac4af4146100ed5761007d565b80639be0b800146100825780639e66e0f3146100a0578063ae4f7a4c146100a8575b600080fd5b61008a6100f5565b604051610097919061028a565b60405180910390f35b61008a6100fb565b61008a610101565b6100c36100be36600461021f565b610107565b005b6100cd61011e565b6040516100979190610237565b6100c36100e836600461021f565b6101ac565b61008a6101bc565b60025490565b60015481565b60025481565b60025460009061011790836101c1565b6002555050565b6000805461012b906102c2565b80601f0160208091040260200160405190810160405280929190818152602001828054610157906102c2565b80156101a45780601f10610179576101008083540402835291602001916101a4565b820191906000526020600020905b81548152906001019060200180831161018757829003601f168201915b505050505081565b60025460009061011790836101f2565b600290565b6000828211156101e157634e487b7160e01b600052600160045260246000fd5b6101eb82846102ab565b9392505050565b6000806101ff8385610293565b9050838110156101eb57634e487b7160e01b600052600160045260246000fd5b600060208284031215610230578081fd5b5035919050565b6000602080835283518082850152825b8181101561026357858101830151858201604001528201610247565b818111156102745783604083870101525b50601f01601f1916929092016040019392505050565b90815260200190565b600082198211156102a6576102a66102fd565b500190565b6000828210156102bd576102bd6102fd565b500390565b6002810460018216806102d657607f821691505b602082108114156102f757634e487b7160e01b600052602260045260246000fd5b50919050565b634e487b7160e01b600052601160045260246000fdfea26469706673582212203b7db8b46cca9ce8e3ed4f5a492840dee56d945d4203dd5ce6fd1b80b84e973b64736f6c63430008000033608060405234801561001057600080fd5b5060405161055838038061055883398101604081905261002f916100e5565b815161004290600090602085019061004c565b5060025550610200565b828054610058906101af565b90600052602060002090601f01602090048101928261007a57600085556100c0565b82601f1061009357805160ff19168380011785556100c0565b828001600101855582156100c0579182015b828111156100c05782518255916020019190600101906100a5565b506100cc9291506100d0565b5090565b5b808211156100cc57600081556001016100d1565b600080604083850312156100f7578182fd5b82516001600160401b038082111561010d578384fd5b818501915085601f830112610120578384fd5b815181811115610132576101326101ea565b6040516020601f8301601f1916820181018481118382101715610157576101576101ea565b604052828252848301810189101561016d578687fd5b8693505b8284101561018e5784840181015182850182015292830192610171565b8284111561019e57868184840101525b969096015195979596505050505050565b6002810460018216806101c357607f821691505b602082108114156101e457634e487b7160e01b600052602260045260246000fd5b50919050565b634e487b7160e01b600052604160045260246000fd5b6103498061020f6000396000f3fe608060405234801561001057600080fd5b506004361061007d5760003560e01c8063b0b6d1611161005b578063b0b6d161146100b0578063bc7b35b2146100c5578063f5a50589146100da578063f7ac4af4146100ed5761007d565b80639be0b800146100825780639e66e0f3146100a0578063ae4f7a4c146100a8575b600080fd5b61008a6100f5565b604051610097919061028a565b60405180910390f35b61008a6100fb565b61008a610101565b6100c36100be36600461021f565b610107565b005b6100cd61011e565b6040516100979190610237565b6100c36100e836600461021f565b6101ac565b61008a6101bc565b60025490565b60015481565b60025481565b60025460009061011790836101c1565b6002555050565b6000805461012b906102c2565b80601f0160208091040260200160405190810160405280929190818152602001828054610157906102c2565b80156101a45780601f10610179576101008083540402835291602001916101a4565b820191906000526020600020905b81548152906001019060200180831161018757829003601f168201915b505050505081565b60025460009061011790836101f2565b600190565b6000828211156101e157634e487b7160e01b600052600160045260246000fd5b6101eb82846102ab565b9392505050565b6000806101ff8385610293565b9050838110156101eb57634e487b7160e01b600052600160045260246000fd5b600060208284031215610230578081fd5b5035919050565b6000602080835283518082850152825b8181101561026357858101830151858201604001528201610247565b818111156102745783604083870101525b50601f01601f1916929092016040019392505050565b90815260200190565b600082198211156102a6576102a66102fd565b500190565b6000828210156102bd576102bd6102fd565b500390565b6002810460018216806102d657607f821691505b602082108114156102f757634e487b7160e01b600052602260045260246000fd5b50919050565b634e487b7160e01b600052601160045260246000fdfea2646970667358221220e51303f656df638c9f04b6d1dec7b0b19beae6d0429f63d9cb96a39a22bd13b264736f6c63430008000033a2646970667358221220487a2330314cd049dfeb5814b34ba137159df85870da92ab3702e666a8e5859b64736f6c63430008000033a2646970667358221220c96f5e2f2d92c12057ee9ec2089def1023fa84561935627ddbde5fcfa88aafd464736f6c63430008000033",
  "immutableReferences": {},
  "source": "// SPDX-License-Identifier: MIT\r\npragma solidity ^0.8.0;\r\npragma experimental ABIEncoderV2;\r\nimport \"./Generador.sol\";\r\nimport \"./Comercializador.sol\";\r\nimport \"./models/InfoContrato.sol\";\r\nimport \"./libraries/Validations.sol\";\r\n\r\ncontract MvmComercializadorFactory {\r\n    address public owner;\r\n    address public dirContrato;\r\n\r\n    infoContrato[] comercializadoresOwners;\r\n\r\n    mapping(address => address) public DirContratosComercializadores;\r\n\r\n    event CreacionComercializador(string, address);\r\n    using Validations for *;\r\n\r\n    constructor() {\r\n        owner = msg.sender;\r\n        dirContrato = address(this);\r\n    }\r\n\r\n    function factoryComercializador(\r\n        address _reguladorMercado,\r\n        string memory nombreComercializador,\r\n        uint256 _tipoComercio\r\n    ) public {\r\n        require(\r\n            msg.sender.aproveCreation(comercializadoresOwners),\r\n            \"Una direccion no puede tener mas de un comercializador\"\r\n        );\r\n        DirContratosComercializadores[msg.sender] = address(\r\n            new Comercializador(\r\n                nombreComercializador,\r\n                msg.sender,\r\n                dirContrato,\r\n                _reguladorMercado,\r\n                _tipoComercio\r\n            )\r\n        );\r\n        comercializadoresOwners.push(\r\n            infoContrato(msg.sender, DirContratosComercializadores[msg.sender])\r\n        );\r\n        emit CreacionComercializador(\r\n            nombreComercializador,\r\n            DirContratosComercializadores[msg.sender]\r\n        );\r\n    }\r\n\r\n    function getComercializadoresOwners()\r\n        public\r\n        view\r\n        returns (infoContrato[] memory)\r\n    {\r\n        return comercializadoresOwners;\r\n    }\r\n\r\n    function existeComercializador(\r\n        address contractDir,\r\n        infoContrato[] memory arrayContracts\r\n    ) public pure returns (bool) {\r\n        return contractDir.existsContract(arrayContracts);\r\n    }\r\n}\r\n",
  "sourcePath": "C:\\Users\\alejandro.perez\\Desktop\\DemoMvmTruffle\\contracts\\MvmComercializadorFactory.sol",
  "compiler": {
    "name": "solc",
    "version": "0.8.0+commit.c7dfd78e.Emscripten.clang"
  },
  "schemaVersion": "3.4.7",
  "updatedAt": "2022-06-30T14:15:01.794Z",
  "devdoc": {
    "kind": "dev",
    "methods": {},
    "version": 1
  },
  "userdoc": {
    "kind": "user",
    "methods": {},
    "version": 1
  }
}