{
  "contractName": "MvmClienteFactory",
  "abi": [
    {
      "inputs": [
        {
          "internalType": "address",
          "name": "_reguladorMercado",
          "type": "address"
        }
      ],
      "stateMutability": "nonpayable",
      "type": "constructor"
    },
    {
      "anonymous": false,
      "inputs": [
        {
          "indexed": false,
          "internalType": "string",
          "name": "",
          "type": "string"
        },
        {
          "indexed": false,
          "internalType": "address",
          "name": "",
          "type": "address"
        }
      ],
      "name": "Creacion",
      "type": "event"
    },
    {
      "inputs": [
        {
          "internalType": "address",
          "name": "",
          "type": "address"
        }
      ],
      "name": "DirContratosClientes",
      "outputs": [
        {
          "internalType": "address",
          "name": "",
          "type": "address"
        }
      ],
      "stateMutability": "view",
      "type": "function",
      "constant": true
    },
    {
      "inputs": [
        {
          "internalType": "address",
          "name": "dir",
          "type": "address"
        }
      ],
      "name": "diligenciarContratoRegulador",
      "outputs": [],
      "stateMutability": "nonpayable",
      "type": "function"
    },
    {
      "inputs": [],
      "name": "dirContrato",
      "outputs": [
        {
          "internalType": "address",
          "name": "",
          "type": "address"
        }
      ],
      "stateMutability": "view",
      "type": "function",
      "constant": true
    },
    {
      "inputs": [],
      "name": "direccionRegistrada",
      "outputs": [
        {
          "internalType": "bool",
          "name": "",
          "type": "bool"
        }
      ],
      "stateMutability": "view",
      "type": "function",
      "constant": true
    },
    {
      "inputs": [],
      "name": "getContratosOwners",
      "outputs": [
        {
          "components": [
            {
              "internalType": "address",
              "name": "dirContrato",
              "type": "address"
            },
            {
              "internalType": "address",
              "name": "owner",
              "type": "address"
            },
            {
              "internalType": "string",
              "name": "nit",
              "type": "string"
            },
            {
              "internalType": "string",
              "name": "empresa",
              "type": "string"
            },
            {
              "internalType": "string",
              "name": "contacto",
              "type": "string"
            },
            {
              "internalType": "string",
              "name": "telefono",
              "type": "string"
            },
            {
              "internalType": "string",
              "name": "correo",
              "type": "string"
            },
            {
              "internalType": "string",
              "name": "departamento",
              "type": "string"
            },
            {
              "internalType": "string",
              "name": "ciudad",
              "type": "string"
            },
            {
              "internalType": "string",
              "name": "direccion",
              "type": "string"
            },
            {
              "internalType": "address",
              "name": "comercializador",
              "type": "address"
            },
            {
              "internalType": "uint256",
              "name": "tipoComercio",
              "type": "uint256"
            }
          ],
          "internalType": "struct InfoContrato[]",
          "name": "",
          "type": "tuple[]"
        }
      ],
      "stateMutability": "view",
      "type": "function",
      "constant": true
    },
    {
      "inputs": [],
      "name": "owner",
      "outputs": [
        {
          "internalType": "address",
          "name": "",
          "type": "address"
        }
      ],
      "stateMutability": "view",
      "type": "function",
      "constant": true
    },
    {
      "inputs": [],
      "name": "reguladorMercado",
      "outputs": [
        {
          "internalType": "address",
          "name": "",
          "type": "address"
        }
      ],
      "stateMutability": "view",
      "type": "function",
      "constant": true
    },
    {
      "inputs": [
        {
          "components": [
            {
              "internalType": "address",
              "name": "dirContrato",
              "type": "address"
            },
            {
              "internalType": "address",
              "name": "owner",
              "type": "address"
            },
            {
              "internalType": "string",
              "name": "nit",
              "type": "string"
            },
            {
              "internalType": "string",
              "name": "empresa",
              "type": "string"
            },
            {
              "internalType": "string",
              "name": "contacto",
              "type": "string"
            },
            {
              "internalType": "string",
              "name": "telefono",
              "type": "string"
            },
            {
              "internalType": "string",
              "name": "correo",
              "type": "string"
            },
            {
              "internalType": "string",
              "name": "departamento",
              "type": "string"
            },
            {
              "internalType": "string",
              "name": "ciudad",
              "type": "string"
            },
            {
              "internalType": "string",
              "name": "direccion",
              "type": "string"
            },
            {
              "internalType": "address",
              "name": "comercializador",
              "type": "address"
            },
            {
              "internalType": "uint256",
              "name": "tipoComercio",
              "type": "uint256"
            }
          ],
          "internalType": "struct InfoContrato",
          "name": "_infoContrato",
          "type": "tuple"
        }
      ],
      "name": "FactoryContrato",
      "outputs": [],
      "stateMutability": "nonpayable",
      "type": "function"
    }
  ],
  "bytecode": "0x608060405234801561001057600080fd5b5060405161325338038061325383398101604081905261002f9161006d565b600080546001600160a01b0319908116331790915560018054821630179055600280546001600160a01b03939093169290911691909117905561009b565b60006020828403121561007e578081fd5b81516001600160a01b0381168114610094578182fd5b9392505050565b6131a9806100aa6000396000f3fe60806040523480156200001157600080fd5b5060043610620000945760003560e01c806365cd10e7116200006357806365cd10e714620001045780637eb5a688146200012a578063856788df14620001345780638da5cb5b146200013e5762000094565b8063037ad4dd14620000995780632455c02614620000b25780633607329d14620000c95780634cdbdb6d14620000eb575b600080fd5b620000b0620000aa36600462000f84565b62000148565b005b620000b0620000c336600462000f1d565b620005b1565b620000d362000748565b604051620000e291906200176f565b60405180910390f35b620000f5620007e1565b604051620000e291906200170b565b6200011b6200011536600462000f1d565b62000d59565b604051620000e291906200155b565b6200011b62000d74565b6200011b62000d83565b6200011b62000d92565b600260009054906101000a90046001600160a01b03166001600160a01b031663893d20e86040518163ffffffff1660e01b815260040160206040518083038186803b1580156200019757600080fd5b505afa158015620001ac573d6000803e3d6000fd5b505050506040513d601f19601f82011682018060405250810190620001d2919062000f43565b6001600160a01b0316336001600160a01b0316146200020e5760405162461bcd60e51b81526004016200020590620017d4565b60405180910390fd5b6020810151604051635010ecc560e01b815273__Validations___________________________91635010ecc5916200024e91906003906004016200156f565b60206040518083038186803b1580156200026757600080fd5b505af41580156200027c573d6000803e3d6000fd5b505050506040513d601f19601f82011682018060405250810190620002a2919062000f62565b620002c15760405162461bcd60e51b81526004016200020590620017a6565b60025460405182916001600160a01b031690620002de9062000da1565b620002eb92919062001847565b604051809103906000f08015801562000308573d6000803e3d6000fd5b50602082810180516001600160a01b0390811660009081526004909352604090922080546001600160a01b03191693909216929092179055516200034c90620005b1565b6020808201516001600160a01b0390811660009081526004928390526040808220548151634df073e760e11b815291516003959190941693639be0e7ce9383830193909290829003018186803b158015620003a657600080fd5b505afa158015620003bb573d6000803e3d6000fd5b505050506040513d6000823e601f3d908101601f19168201604052620003e5919081019062001154565b81546001818101845560009384526020938490208351600c9093020180546001600160a01b039384166001600160a01b031991821617825585850151928201805493909416921691909117909155604082015180519293919262000450926002850192019062000daf565b50606082015180516200046e91600384019160209091019062000daf565b50608082015180516200048c91600484019160209091019062000daf565b5060a08201518051620004aa91600584019160209091019062000daf565b5060c08201518051620004c891600684019160209091019062000daf565b5060e08201518051620004e691600784019160209091019062000daf565b5061010082015180516200050591600884019160209091019062000daf565b5061012082015180516200052491600984019160209091019062000daf565b50610140820151600a820180546001600160a01b0319166001600160a01b0392831617905561016090920151600b9091015560608201516020808401518316600090815260049091526040908190205490517f35671b86a8a0b2b88538732ff30f9073d71b6400e3e4fe564003bc8220b8a11793620005a6939216906200177a565b60405180910390a150565b6002546040516340fd3f3960e01b81526001600160a01b03909116906340fd3f3990620005e39084906004016200155b565b60206040518083038186803b158015620005fc57600080fd5b505afa15801562000611573d6000803e3d6000fd5b505050506040513d601f19601f8201168201806040525081019062000637919062000f62565b620006565760405162461bcd60e51b815260040162000205906200181a565b600254604051630d098a3b60e01b81526000916001600160a01b031690630d098a3b90620006899085906004016200155b565b60206040518083038186803b158015620006a257600080fd5b505afa158015620006b7573d6000803e3d6000fd5b505050506040513d601f19601f82011682018060405250810190620006dd919062001324565b600254604051634de2626760e01b81529192506001600160a01b031690634de2626790620007109084906004016200185c565b600060405180830381600087803b1580156200072b57600080fd5b505af115801562000740573d6000803e3d6000fd5b505050505050565b604051635010ecc560e01b815260009073__Validations___________________________90635010ecc590620007879033906003906004016200156f565b60206040518083038186803b158015620007a057600080fd5b505af4158015620007b5573d6000803e3d6000fd5b505050506040513d601f19601f82011682018060405250810190620007db919062000f62565b15905090565b60606003805480602002602001604051908101604052809291908181526020016000905b8282101562000d505760008481526020908190206040805161018081018252600c860290920180546001600160a01b03908116845260018201541693830193909352600283018054929392918401916200085f9062001908565b80601f01602080910402602001604051908101604052809291908181526020018280546200088d9062001908565b8015620008de5780601f10620008b257610100808354040283529160200191620008de565b820191906000526020600020905b815481529060010190602001808311620008c057829003601f168201915b50505050508152602001600382018054620008f99062001908565b80601f0160208091040260200160405190810160405280929190818152602001828054620009279062001908565b8015620009785780601f106200094c5761010080835404028352916020019162000978565b820191906000526020600020905b8154815290600101906020018083116200095a57829003601f168201915b50505050508152602001600482018054620009939062001908565b80601f0160208091040260200160405190810160405280929190818152602001828054620009c19062001908565b801562000a125780601f10620009e65761010080835404028352916020019162000a12565b820191906000526020600020905b815481529060010190602001808311620009f457829003601f168201915b5050505050815260200160058201805462000a2d9062001908565b80601f016020809104026020016040519081016040528092919081815260200182805462000a5b9062001908565b801562000aac5780601f1062000a805761010080835404028352916020019162000aac565b820191906000526020600020905b81548152906001019060200180831162000a8e57829003601f168201915b5050505050815260200160068201805462000ac79062001908565b80601f016020809104026020016040519081016040528092919081815260200182805462000af59062001908565b801562000b465780601f1062000b1a5761010080835404028352916020019162000b46565b820191906000526020600020905b81548152906001019060200180831162000b2857829003601f168201915b5050505050815260200160078201805462000b619062001908565b80601f016020809104026020016040519081016040528092919081815260200182805462000b8f9062001908565b801562000be05780601f1062000bb45761010080835404028352916020019162000be0565b820191906000526020600020905b81548152906001019060200180831162000bc257829003601f168201915b5050505050815260200160088201805462000bfb9062001908565b80601f016020809104026020016040519081016040528092919081815260200182805462000c299062001908565b801562000c7a5780601f1062000c4e5761010080835404028352916020019162000c7a565b820191906000526020600020905b81548152906001019060200180831162000c5c57829003601f168201915b5050505050815260200160098201805462000c959062001908565b80601f016020809104026020016040519081016040528092919081815260200182805462000cc39062001908565b801562000d145780601f1062000ce85761010080835404028352916020019162000d14565b820191906000526020600020905b81548152906001019060200180831162000cf657829003601f168201915b5050509183525050600a8201546001600160a01b0316602080830191909152600b90920154604090910152908252600192909201910162000805565b50505050905090565b6004602052600090815260409020546001600160a01b031681565b6002546001600160a01b031681565b6001546001600160a01b031681565b6000546001600160a01b031681565b6117ff806200197583390190565b82805462000dbd9062001908565b90600052602060002090601f01602090048101928262000de1576000855562000e2c565b82601f1062000dfc57805160ff191683800117855562000e2c565b8280016001018555821562000e2c579182015b8281111562000e2c57825182559160200191906001019062000e0f565b5062000e3a92915062000e3e565b5090565b5b8082111562000e3a576000815560010162000e3f565b803562000e62816200195b565b919050565b805162000e62816200195b565b600082601f83011262000e85578081fd5b813562000e9c62000e968262001892565b62001865565b81815284602083860101111562000eb1578283fd5b816020850160208301379081016020019190915292915050565b600082601f83011262000edc578081fd5b815162000eed62000e968262001892565b81815284602083860101111562000f02578283fd5b62000f15826020830160208701620018d5565b949350505050565b60006020828403121562000f2f578081fd5b813562000f3c816200195b565b9392505050565b60006020828403121562000f55578081fd5b815162000f3c816200195b565b60006020828403121562000f74578081fd5b8151801515811462000f3c578182fd5b60006020828403121562000f96578081fd5b813567ffffffffffffffff8082111562000fae578283fd5b818401915061018080838703121562000fc5578384fd5b62000fd08162001865565b905062000fdd8362000e55565b815262000fed6020840162000e55565b602082015260408301358281111562001004578485fd5b620010128782860162000e74565b6040830152506060830135828111156200102a578485fd5b620010388782860162000e74565b60608301525060808301358281111562001050578485fd5b6200105e8782860162000e74565b60808301525060a08301358281111562001076578485fd5b620010848782860162000e74565b60a08301525060c0830135828111156200109c578485fd5b620010aa8782860162000e74565b60c08301525060e083013582811115620010c2578485fd5b620010d08782860162000e74565b60e0830152506101008084013583811115620010ea578586fd5b620010f88882870162000e74565b828401525050610120808401358381111562001112578586fd5b620011208882870162000e74565b82840152505061014091506200113882840162000e55565b9181019190915261016091820135918101919091529392505050565b60006020828403121562001166578081fd5b815167ffffffffffffffff808211156200117e578283fd5b818401915061018080838703121562001195578384fd5b620011a08162001865565b9050620011ad8362000e67565b8152620011bd6020840162000e67565b6020820152604083015182811115620011d4578485fd5b620011e28782860162000ecb565b604083015250606083015182811115620011fa578485fd5b620012088782860162000ecb565b60608301525060808301518281111562001220578485fd5b6200122e8782860162000ecb565b60808301525060a08301518281111562001246578485fd5b620012548782860162000ecb565b60a08301525060c0830151828111156200126c578485fd5b6200127a8782860162000ecb565b60c08301525060e08301518281111562001292578485fd5b620012a08782860162000ecb565b60e0830152506101008084015183811115620012ba578586fd5b620012c88882870162000ecb565b8284015250506101208084015183811115620012e2578586fd5b620012f08882870162000ecb565b82840152505061014091506200130882840162000e67565b9181019190915261016091820151918101919091529392505050565b60006020828403121562001336578081fd5b5051919050565b6001600160a01b03169052565b6000815180845262001364816020860160208601620018d5565b601f01601f19169290920160200192915050565b8054600090600281046001808316806200139357607f831692505b6020808410821415620013b457634e487b7160e01b86526022600452602486fd5b620013c084896200185c565b828015620013d75760018114620013e95762001418565b60ff1987168252828201975062001418565b620013f489620018bd565b60005b878110156200141257815484820152908601908401620013f7565b83019850505b5050505050505092915050565b6000610180620014378484516200133d565b60208301516200144b60208601826200133d565b50604083015181604086015262001465828601826200134a565b915050606083015184820360608601526200148182826200134a565b915050608083015184820360808601526200149d82826200134a565b91505060a083015184820360a0860152620014b982826200134a565b91505060c083015184820360c0860152620014d582826200134a565b91505060e083015184820360e0860152620014f182826200134a565b91505061010080840151858303828701526200150e83826200134a565b9250505061012080840151858303828701526200152c83826200134a565b925050506101408084015162001545828701826200133d565b5050610160928301519390920192909252919050565b6001600160a01b0391909116815260200190565b6000604080830160018060a01b03861684526020828186015281865480845260609350838701915083838202880101888752838720875b83811015620016fb57605f198a8403018552610180620015d284620015cc8554620018c9565b6200133d565b620015e16001840154620018c9565b620015ef888601826200133d565b508089850152620016068185016002850162001378565b9050838103888501526200161e816003850162001378565b9050838103608085015262001637816004850162001378565b905083810360a085015262001650816005850162001378565b905083810360c085015262001669816006850162001378565b905083810360e085015262001682816007850162001378565b90508381036101008501526200169c816008850162001378565b9050838103610120850152620016b6816009850162001378565b9050620016c7600a840154620018c9565b620016d76101408601826200133d565b50600b830154610160949094019390935293850193600c90910190600101620015a6565b50909a9950505050505050505050565b6000602080830181845280855180835260408601915060408482028701019250838701855b828110156200176257603f198886030184526200174f85835162001425565b9450928501929085019060010162001730565b5092979650505050505050565b901515815260200190565b6000604082526200178f60408301856200134a565b905060018060a01b03831660208301529392505050565b602080825260149082015273456c20636c69656e74652079612065786973746560601b604082015260600190565b60208082526026908201527f4e6f207469656e65207065726d69736f73207061726120637265617220636f6e604082015265747261746f7360d01b606082015260800190565b602080825260139082015272139bc8195e1a5cdd19481cdbdb1a58da5d1d59606a1b604082015260600190565b6000604082526200178f604083018562001425565b90815260200190565b60405181810167ffffffffffffffff811182821017156200188a576200188a62001945565b604052919050565b600067ffffffffffffffff821115620018af57620018af62001945565b50601f01601f191660200190565b60009081526020902090565b6001600160a01b031690565b60005b83811015620018f2578181015183820152602001620018d8565b8381111562001902576000848401525b50505050565b6002810460018216806200191d57607f821691505b602082108114156200193f57634e487b7160e01b600052602260045260246000fd5b50919050565b634e487b7160e01b600052604160045260246000fd5b6001600160a01b03811681146200197157600080fd5b5056fe6080604052600d80546001600160a01b03191690553480156200002157600080fd5b50604051620017ff380380620017ff83398101604081905262000044916200037c565b600080546001600160a01b038084166001600160a01b0319928316179092556040805161018081018252308082526020878101518616818401819052888501519484018590526060808a0151908501526080808a01519085015260a0808a01519085015260c0808a01519085015260e0808a0151908501526101008981015190850152610120808a015190850152600d54909616610140840152610160808901519084015260018054861690921782556002805490951690951790935581519093620001169260039291019062000228565b50606082015180516200013491600384019160209091019062000228565b50608082015180516200015291600484019160209091019062000228565b5060a082015180516200017091600584019160209091019062000228565b5060c082015180516200018e91600684019160209091019062000228565b5060e08201518051620001ac91600784019160209091019062000228565b506101008201518051620001cb91600884019160209091019062000228565b506101208201518051620001ea91600984019160209091019062000228565b50610140820151600a820180546001600160a01b0319166001600160a01b0390921691909117905561016090910151600b9091015550620005dd9050565b82805462000236906200058a565b90600052602060002090601f0160209004810192826200025a5760008555620002a5565b82601f106200027557805160ff1916838001178555620002a5565b82800160010185558215620002a5579182015b82811115620002a557825182559160200191906001019062000288565b50620002b3929150620002b7565b5090565b5b80821115620002b35760008155600101620002b8565b80516001600160a01b0381168114620002e657600080fd5b919050565b600082601f830112620002fc578081fd5b81516001600160401b03811115620003185762000318620005c7565b60206200032e601f8301601f191682016200055e565b828152858284870101111562000342578384fd5b835b838110156200036157858101830151828201840152820162000344565b838111156200037257848385840101525b5095945050505050565b600080604083850312156200038f578182fd5b82516001600160401b0380821115620003a6578384fd5b8185019150610180808388031215620003bd578485fd5b620003c8816200055e565b9050620003d583620002ce565b8152620003e560208401620002ce565b6020820152604083015182811115620003fc578586fd5b6200040a88828601620002eb565b60408301525060608301518281111562000422578586fd5b6200043088828601620002eb565b60608301525060808301518281111562000448578586fd5b6200045688828601620002eb565b60808301525060a0830151828111156200046e578586fd5b6200047c88828601620002eb565b60a08301525060c08301518281111562000494578586fd5b620004a288828601620002eb565b60c08301525060e083015182811115620004ba578586fd5b620004c888828601620002eb565b60e0830152506101008084015183811115620004e2578687fd5b620004f089828701620002eb565b82840152505061012080840151838111156200050a578687fd5b6200051889828701620002eb565b828401525050610140915062000530828401620002ce565b82820152610160915081830151828201528094505050506200055560208401620002ce565b90509250929050565b6040518181016001600160401b0381118282101715620005825762000582620005c7565b604052919050565b6002810460018216806200059f57607f821691505b60208210811415620005c157634e487b7160e01b600052602260045260246000fd5b50919050565b634e487b7160e01b600052604160045260246000fd5b61121280620005ed6000396000f3fe608060405234801561001057600080fd5b506004361061007d5760003560e01c80639be0e7ce1161005b5780639be0e7ce146100bd578063d0b58746146100d2578063e0817576146100f2578063e33f34a0146101055761007d565b8063551edf90146100825780637eb5a688146100a057806395965bda146100a8575b600080fd5b61008a61011a565b6040516100979190610ddb565b60405180910390f35b61008a610129565b6100bb6100b6366004610c9f565b610138565b005b6100c5610280565b604051610097919061101e565b6100e56100e0366004610ced565b610765565b604051610097919061115d565b6100bb610100366004610d28565b6109d4565b61010d610b02565b6040516100979190611182565b600d546001600160a01b031681565b6000546001600160a01b031681565b60025433906001600160a01b0316811461016d5760405162461bcd60e51b815260040161016490610fd0565b60405180910390fd5b6000826001600160a01b031663013643fd6040518163ffffffff1660e01b815260040160206040518083038186803b1580156101a857600080fd5b505afa1580156101bc573d6000803e3d6000fd5b505050506040513d601f19601f820116820180604052508101906101e09190610d6b565b9050806001146102025760405162461bcd60e51b815260040161016490610f85565b600b80546001600160a01b0319166001600160a01b038581169182179092556002546040516314dd7ae360e21b81529192635375eb8c926102499233921690600401610def565b600060405180830381600087803b15801561026357600080fd5b505af1158015610277573d6000803e3d6000fd5b50505050505050565b610288610b88565b6040805161018081018252600180546001600160a01b0390811683526002541660208301526003805492939192918401916102c29061118b565b80601f01602080910402602001604051908101604052809291908181526020018280546102ee9061118b565b801561033b5780601f106103105761010080835404028352916020019161033b565b820191906000526020600020905b81548152906001019060200180831161031e57829003601f168201915b505050505081526020016003820180546103549061118b565b80601f01602080910402602001604051908101604052809291908181526020018280546103809061118b565b80156103cd5780601f106103a2576101008083540402835291602001916103cd565b820191906000526020600020905b8154815290600101906020018083116103b057829003601f168201915b505050505081526020016004820180546103e69061118b565b80601f01602080910402602001604051908101604052809291908181526020018280546104129061118b565b801561045f5780601f106104345761010080835404028352916020019161045f565b820191906000526020600020905b81548152906001019060200180831161044257829003601f168201915b505050505081526020016005820180546104789061118b565b80601f01602080910402602001604051908101604052809291908181526020018280546104a49061118b565b80156104f15780601f106104c6576101008083540402835291602001916104f1565b820191906000526020600020905b8154815290600101906020018083116104d457829003601f168201915b5050505050815260200160068201805461050a9061118b565b80601f01602080910402602001604051908101604052809291908181526020018280546105369061118b565b80156105835780601f1061055857610100808354040283529160200191610583565b820191906000526020600020905b81548152906001019060200180831161056657829003601f168201915b5050505050815260200160078201805461059c9061118b565b80601f01602080910402602001604051908101604052809291908181526020018280546105c89061118b565b80156106155780601f106105ea57610100808354040283529160200191610615565b820191906000526020600020905b8154815290600101906020018083116105f857829003601f168201915b5050505050815260200160088201805461062e9061118b565b80601f016020809104026020016040519081016040528092919081815260200182805461065a9061118b565b80156106a75780601f1061067c576101008083540402835291602001916106a7565b820191906000526020600020905b81548152906001019060200180831161068a57829003601f168201915b505050505081526020016009820180546106c09061118b565b80601f01602080910402602001604051908101604052809291908181526020018280546106ec9061118b565b80156107395780601f1061070e57610100808354040283529160200191610739565b820191906000526020600020905b81548152906001019060200180831161071c57829003601f168201915b5050509183525050600a8201546001600160a01b03166020820152600b90910154604090910152905090565b61076d610c04565b6040516388d8da5f60e01b815273__StringLibrary_________________________906388d8da5f906107a4908590600401610e33565b60206040518083038186803b1580156107bc57600080fd5b505af41580156107d0573d6000803e3d6000fd5b505050506040513d601f19601f820116820180604052508101906107f49190610ccd565b158061088457506040516388d8da5f60e01b815273__StringLibrary_________________________906388d8da5f90610832908590600401610e6d565b60206040518083038186803b15801561084a57600080fd5b505af415801561085e573d6000803e3d6000fd5b505050506040513d601f19601f820116820180604052508101906108829190610ccd565b155b8061091357506040516388d8da5f60e01b815273__StringLibrary_________________________906388d8da5f906108c1908590600401610ea8565b60206040518083038186803b1580156108d957600080fd5b505af41580156108ed573d6000803e3d6000fd5b505050506040513d601f19601f820116820180604052508101906109119190610ccd565b155b156109305760405162461bcd60e51b815260040161016490610f09565b600b546002546040516356a5513960e01b81526000926001600160a01b03908116926356a55139926109689288921690600401610e09565b60206040518083038186803b15801561098057600080fd5b505afa158015610994573d6000803e3d6000fd5b505050506040513d601f19601f820116820180604052508101906109b89190610d6b565b6040805180820190915290815260208101849052915050919050565b60025433906001600160a01b03168114610a005760405162461bcd60e51b815260040161016490610fd0565b600b546001600160a01b0316610a285760405162461bcd60e51b815260040161016490610f40565b600b546040805163013643fd60e01b815290516001600160a01b039092169163013643fd91600480820192602092909190829003018186803b158015610a6d57600080fd5b505afa158015610a81573d6000803e3d6000fd5b505050506040513d601f19601f82011682018060405250810190610aa59190610d6b565b600114610ac45760405162461bcd60e51b815260040161016490610f85565b7faaa4328ecde636decad3cbfb3b155848fc6b72fac6d85f4b2d04d65e4ffce3fa8383604051610af5929190610ee7565b60405180910390a1505050565b60008054604051630e03c03b60e01b81526001600160a01b0390911690630e03c03b90610b33903390600401610ddb565b60206040518083038186803b158015610b4b57600080fd5b505afa158015610b5f573d6000803e3d6000fd5b505050506040513d601f19601f82011682018060405250810190610b839190610d6b565b905090565b60405180610180016040528060006001600160a01b0316815260200160006001600160a01b03168152602001606081526020016060815260200160608152602001606081526020016060815260200160608152602001606081526020016060815260200160006001600160a01b03168152602001600081525090565b604051806040016040528060008152602001606081525090565b600082601f830112610c2e578081fd5b813567ffffffffffffffff80821115610c4957610c496111c6565b604051601f8301601f191681016020018281118282101715610c6d57610c6d6111c6565b604052828152848301602001861015610c84578384fd5b82602086016020830137918201602001929092529392505050565b600060208284031215610cb0578081fd5b81356001600160a01b0381168114610cc6578182fd5b9392505050565b600060208284031215610cde578081fd5b81518015158114610cc6578182fd5b600060208284031215610cfe578081fd5b813567ffffffffffffffff811115610d14578182fd5b610d2084828501610c1e565b949350505050565b60008060408385031215610d3a578081fd5b823567ffffffffffffffff811115610d50578182fd5b610d5c85828601610c1e565b95602094909401359450505050565b600060208284031215610d7c578081fd5b5051919050565b6001600160a01b03169052565b60008151808452815b81811015610db557602081850181015186830182015201610d99565b81811115610dc65782602083870101525b50601f01601f19169290920160200192915050565b6001600160a01b0391909116815260200190565b6001600160a01b0392831681529116602082015260400190565b600060408252610e1c6040830185610d90565b905060018060a01b03831660208301529392505050565b600060408252610e466040830184610d90565b8281036020840152600581526439b7b630b960d91b60208201526040810191505092915050565b600060408252610e806040830184610d90565b82810360208401526006815265656f6c69636160d01b60208201526040810191505092915050565b600060408252610ebb6040830184610d90565b8281036020840152600a8152696869647261756c69636160b01b60208201526040810191505092915050565b600060408252610efa6040830185610d90565b90508260208301529392505050565b6020808252601f908201527f456c207469706f20646520656e6572676961206e6f2065732076616c69646f00604082015260600190565b60208082526025908201527f4e6f207469656e657320636f6e747261746f20646520636f6d65726369616c696040820152643d30b237b960d91b606082015260800190565b6020808252602b908201527f456c20636f6d65726369616c697a61646f72206465626520736572206465207460408201526a69706f20436c69656e746560a81b606082015260800190565b6020808252602e908201527f4e6f207469656e65207065726d69736f73207061726120656a6563757461722060408201526d3630903a3930b739b0b1b1b4b7b760911b606082015260800190565b600060208252611032602083018451610d83565b60208301516110446040840182610d83565b5060408301516101808060608501526110616101a0850183610d90565b91506060850151601f198086850301608087015261107f8483610d90565b935060808701519150808685030160a087015261109c8483610d90565b935060a08701519150808685030160c08701526110b98483610d90565b935060c08701519150808685030160e08701526110d68483610d90565b935060e087015191506101008187860301818801526110f58584610d90565b9450808801519250506101208187860301818801526111148584610d90565b9450808801519250506101408187860301818801526111338584610d90565b9450808801519250505061016061114c81870183610d83565b959095015193019290925250919050565b600060208252825160208301526020830151604080840152610d206060840182610d90565b90815260200190565b60028104600182168061119f57607f821691505b602082108114156111c057634e487b7160e01b600052602260045260246000fd5b50919050565b634e487b7160e01b600052604160045260246000fdfea26469706673582212201f5414a363b42639fa1084c73d56358b615227ac1cf8bfb6250cdbe49cb662e264736f6c63430008000033a26469706673582212207470a1a31a580aabda1e037fc31420f3035402b05d4b35acb76b8af6110e863464736f6c63430008000033",
  "immutableReferences": {},
  "source": "// SPDX-License-Identifier: MIT\r\npragma solidity ^0.8.0;\r\npragma experimental ABIEncoderV2;\r\nimport \"./models/InfoContrato.sol\";\r\nimport \"./models/Factory.sol\";\r\nimport \"./libraries/Validations.sol\";\r\nimport \"./Cliente.sol\";\r\n\r\ncontract MvmClienteFactory is Factory {\r\n    mapping(address => address) public DirContratosClientes;\r\n\r\n    constructor(address _reguladorMercado) {\r\n        owner = msg.sender;\r\n        dirContrato = address(this);\r\n        reguladorMercado = _reguladorMercado;\r\n    }\r\n\r\n    function FactoryContrato(InfoContrato memory _infoContrato)\r\n        public\r\n        override\r\n        canCreate\r\n    {\r\n        require(\r\n            Validations.aproveCreation(_infoContrato.owner, contratosOwners),\r\n            \"El cliente ya existe\"\r\n        );\r\n        DirContratosClientes[_infoContrato.owner] = address(\r\n            new Cliente(_infoContrato, reguladorMercado)\r\n        );\r\n        diligenciarContratoRegulador(_infoContrato.owner);\r\n        contratosOwners.push(\r\n            Cliente(DirContratosClientes[_infoContrato.owner]).getInfoContrato()\r\n        );\r\n        emit Creacion(_infoContrato.empresa, DirContratosClientes[_infoContrato.owner]);\r\n    }\r\n}\r\n",
  "sourcePath": "D:\\Santiago\\BlockChain\\DemoMvmTruffle\\contracts\\MvmClienteFactory.sol",
  "compiler": {
    "name": "solc",
    "version": "0.8.0+commit.c7dfd78e.Emscripten.clang"
  },
  "schemaVersion": "3.4.4",
  "updatedAt": "2022-07-11T15:50:46.219Z",
  "networkType": "ethereum",
  "devdoc": {
    "kind": "dev",
    "methods": {},
    "version": 1
  },
  "userdoc": {
    "kind": "user",
    "methods": {},
    "version": 1
  }
}