{
  "contractName": "MVMFactory",
  "abi": [
    {
      "inputs": [],
      "stateMutability": "nonpayable",
      "type": "constructor"
    },
    {
      "anonymous": false,
      "inputs": [
        {
          "indexed": false,
          "internalType": "string",
          "name": "",
          "type": "string"
        },
        {
          "indexed": false,
          "internalType": "address",
          "name": "",
          "type": "address"
        }
      ],
      "name": "CreacionComercializador",
      "type": "event"
    },
    {
      "anonymous": false,
      "inputs": [
        {
          "indexed": false,
          "internalType": "string",
          "name": "",
          "type": "string"
        },
        {
          "indexed": false,
          "internalType": "address",
          "name": "",
          "type": "address"
        }
      ],
      "name": "CreacionGenerador",
      "type": "event"
    },
    {
      "inputs": [
        {
          "internalType": "address",
          "name": "",
          "type": "address"
        }
      ],
      "name": "DirContratosComercializadores",
      "outputs": [
        {
          "internalType": "address",
          "name": "",
          "type": "address"
        }
      ],
      "stateMutability": "view",
      "type": "function",
      "constant": true
    },
    {
      "inputs": [
        {
          "internalType": "address",
          "name": "",
          "type": "address"
        }
      ],
      "name": "DirContratosGeneradores",
      "outputs": [
        {
          "internalType": "address",
          "name": "",
          "type": "address"
        }
      ],
      "stateMutability": "view",
      "type": "function",
      "constant": true
    },
    {
      "inputs": [],
      "name": "dirContrato",
      "outputs": [
        {
          "internalType": "address",
          "name": "",
          "type": "address"
        }
      ],
      "stateMutability": "view",
      "type": "function",
      "constant": true
    },
    {
      "inputs": [],
      "name": "owner",
      "outputs": [
        {
          "internalType": "address",
          "name": "",
          "type": "address"
        }
      ],
      "stateMutability": "view",
      "type": "function",
      "constant": true
    },
    {
      "inputs": [
        {
          "internalType": "string",
          "name": "nombreGenerador",
          "type": "string"
        },
        {
          "internalType": "uint256",
          "name": "cantidadTokens",
          "type": "uint256"
        }
      ],
      "name": "factoryGenerador",
      "outputs": [],
      "stateMutability": "nonpayable",
      "type": "function"
    },
    {
      "inputs": [
        {
          "internalType": "string",
          "name": "nombreComercializador",
          "type": "string"
        }
      ],
      "name": "factoryComercializador",
      "outputs": [],
      "stateMutability": "nonpayable",
      "type": "function"
    },
    {
      "inputs": [],
      "name": "getGeneradoresOwners",
      "outputs": [
        {
          "components": [
            {
              "internalType": "address",
              "name": "owner",
              "type": "address"
            },
            {
              "internalType": "address",
              "name": "dirContrato",
              "type": "address"
            }
          ],
          "internalType": "struct infoContrato[]",
          "name": "",
          "type": "tuple[]"
        }
      ],
      "stateMutability": "view",
      "type": "function",
      "constant": true
    },
    {
      "inputs": [],
      "name": "getComercializadoresOwners",
      "outputs": [
        {
          "components": [
            {
              "internalType": "address",
              "name": "owner",
              "type": "address"
            },
            {
              "internalType": "address",
              "name": "dirContrato",
              "type": "address"
            }
          ],
          "internalType": "struct infoContrato[]",
          "name": "",
          "type": "tuple[]"
        }
      ],
      "stateMutability": "view",
      "type": "function",
      "constant": true
    },
    {
      "inputs": [
        {
          "internalType": "address",
          "name": "contractDir",
          "type": "address"
        },
        {
          "components": [
            {
              "internalType": "address",
              "name": "owner",
              "type": "address"
            },
            {
              "internalType": "address",
              "name": "dirContrato",
              "type": "address"
            }
          ],
          "internalType": "struct infoContrato[]",
          "name": "arrayContracts",
          "type": "tuple[]"
        }
      ],
      "name": "existeGenerador",
      "outputs": [
        {
          "internalType": "bool",
          "name": "",
          "type": "bool"
        }
      ],
      "stateMutability": "pure",
      "type": "function",
      "constant": true
    }
  ],
  "bytecode": "0x608060405234801561001057600080fd5b50600080546001600160a01b031990811633179091556001805490911630179055615ffe806100406000396000f3fe60806040523480156200001157600080fd5b50600436106200008e5760003560e01c806313f61dca14620000935780634d5d797414620000b55780636d7508ad14620000db578063856788df14620001015780638da5cb5b146200010b578063bd8136091462000115578063c35b3c4c146200011f578063cd2279a41462000136578063e55e3a34146200014f575b600080fd5b6200009d62000166565b604051620000ac919062000b07565b60405180910390f35b620000cc620000c636600462000840565b620001e0565b604051620000ac919062000b58565b620000f2620000ec36600462000822565b62000284565b604051620000ac919062000a22565b620000f26200029f565b620000f2620002ae565b6200009d620002bd565b620000f26200013036600462000822565b6200032d565b6200014d6200014736600462000973565b62000348565b005b6200014d6200016036600462000935565b6200053d565b60606003805480602002602001604051908101604052809291908181526020016000905b82821015620001d7576000848152602090819020604080518082019091526002850290910180546001600160a01b039081168352600191820154168284015290835290920191016200018a565b50505050905090565b60405163ee1d0a7960e01b815260009073__Validations___________________________9063ee1d0a799062000227906001600160a01b03871690869060040162000a36565b60206040518083038186803b1580156200024057600080fd5b505af415801562000255573d6000803e3d6000fd5b505050506040513d601f19601f820116820180604052508101906200027b91906200090c565b90505b92915050565b6004602052600090815260409020546001600160a01b031681565b6001546001600160a01b031681565b6000546001600160a01b031681565b606060028054806020026020016040519081016040528092919081815260200160009082821015620001d7576000848152602090819020604080518082019091526002850290910180546001600160a01b039081168352600191820154168284015290835290920191016200018a565b6005602052600090815260409020546001600160a01b031681565b60405163462a6ea560e11b815273__Validations___________________________90638c54dd4a906200038490339060029060040162000a98565b60206040518083038186803b1580156200039d57600080fd5b505af4158015620003b2573d6000803e3d6000fd5b505050506040513d601f19601f82011682018060405250810190620003d891906200090c565b620004005760405162461bcd60e51b8152600401620003f79062000bf4565b60405180910390fd5b813382604051620004119062000739565b6200041f9392919062000bc4565b604051809103906000f0801580156200043c573d6000803e3d6000fd5b5033600081815260046020818152604080842080546001600160a01b039788166001600160a01b0319918216178083558351808501855288815286865290891681860190815260028054600181018255818a52925192027f405787fa12a823e0f2b7631cc41b3ba8828b3321ca811111fa75cd3aa3bb5ace81018054938c1693851693909317909255517f405787fa12a823e0f2b7631cc41b3ba8828b3321ca811111fa75cd3aa3bb5acf9091018054918a16919092161790559490935252905490517f050246eac465d3aabd42a8b103a4eb892380ebae4c6131940f1f2084d77d8db0926200053192869291169062000b63565b60405180910390a15050565b60405163462a6ea560e11b815273__Validations___________________________90638c54dd4a906200057990339060039060040162000a98565b60206040518083038186803b1580156200059257600080fd5b505af4158015620005a7573d6000803e3d6000fd5b505050506040513d601f19601f82011682018060405250810190620005cd91906200090c565b620005ec5760405162461bcd60e51b8152600401620003f79062000c33565b600154604051829133916001600160a01b03909116906200060d9062000747565b6200061b9392919062000b8f565b604051809103906000f08015801562000638573d6000803e3d6000fd5b5033600081815260056020818152604080842080546001600160a01b03199081166001600160a01b0398891617808355835180850185528881528686529089168186019081526003805460018101825590895291517fc2575a0e9e593c00f959f8c92f12db2869c3395a3b0502d05e2516446f71f85b600290930292830180548516918c16919091179055517fc2575a0e9e593c00f959f8c92f12db2869c3395a3b0502d05e2516446f71f85c90910180549092169089161790559490935252905490517f4bd12854a9e761767bd38858ddb238e3cf0dcaff3acbaf0840a0e0ac61c13b5e926200072e92859291169062000b63565b60405180910390a150565b61314d8062000ca083390190565b6121bc8062003ded83390190565b80356001600160a01b03811681146200027e57600080fd5b600082601f8301126200077e578081fd5b81356001600160401b0381111562000794578182fd5b620007a9601f8201601f191660200162000c78565b9150808252836020828501011115620007c157600080fd5b8060208401602084013760009082016020015292915050565b600060408284031215620007ec578081fd5b620007f8604062000c78565b905062000806838362000755565b815262000817836020840162000755565b602082015292915050565b60006020828403121562000834578081fd5b6200027b838362000755565b600080604080848603121562000854578182fd5b62000860858562000755565b92506020848101356001600160401b03808211156200087d578485fd5b81870188601f8201126200088f578586fd5b8035925081831115620008a0578586fd5b620008af848585020162000c78565b8381528481019250818501868502830186018b1015620008cd578788fd5b8792505b84831015620008fb57620008e68b82620007da565b845292850192600192909201918601620008d1565b508096505050505050509250929050565b6000602082840312156200091e578081fd5b815180151581146200092e578182fd5b9392505050565b60006020828403121562000947578081fd5b81356001600160401b038111156200095d578182fd5b6200096b848285016200076d565b949350505050565b6000806040838503121562000986578182fd5b82356001600160401b038111156200099c578283fd5b620009aa858286016200076d565b95602094909401359450505050565b60008151808452815b81811015620009e057602081850181015186830182015201620009c2565b81811115620009f25782602083870101525b50601f01601f19169290920160200192915050565b80516001600160a01b03908116835260209182015116910152565b6001600160a01b0391909116815260200190565b6001600160a01b038316815260406020808301829052835183830181905260009291858101916060860190855b8181101562000a8a5762000a7983865162000a07565b938301939185019160010162000a63565b509098975050505050505050565b6001600160a01b03838116825260406020808401829052845484830181905260008681528281209094909290916060870190865b8181101562000af857855485168352600180870154861685850152600290960195928701920162000acc565b50909998505050505050505050565b602080825282518282018190526000919060409081850190868401855b8281101562000b4b5762000b3a84835162000a07565b928401929085019060010162000b24565b5091979650505050505050565b901515815260200190565b60006040825262000b786040830185620009b9565b905060018060a01b03831660208301529392505050565b60006060825262000ba46060830186620009b9565b6001600160a01b0394851660208401529290931660409091015292915050565b60006060825262000bd96060830186620009b9565b6001600160a01b039490941660208301525060400152919050565b602080825260309082015260008051602062005fa983398151915260408201526f103232903ab71033b2b732b930b237b960811b606082015260800190565b602080825260369082015260008051602062005fa9833981519152604082015275103232903ab71031b7b6b2b931b4b0b634bd30b237b960511b606082015260800190565b6040518181016001600160401b038111828210171562000c9757600080fd5b60405291905056fe6080604052600580546001600160a01b03191690553480156200002157600080fd5b506040516200314d3803806200314d8339810160408190526200004491620001f4565b82516200005990600290602086019062000133565b50600380546001600160a01b0384166001600160a01b031991821617909155600480549091163017905560405181906200009390620001b8565b6200009f9190620002aa565b604051809103906000f080158015620000bc573d6000803e3d6000fd5b50600080546001600160a01b0319166001600160a01b0392909216919091179055604051620000eb90620001c6565b604051809103906000f08015801562000108573d6000803e3d6000fd5b50600180546001600160a01b0319166001600160a01b03929092169190911790555062000326915050565b828054600181600116156101000203166002900490600052602060002090601f016020900481019282601f106200017657805160ff1916838001178555620001a6565b82800160010185558215620001a6579182015b82811115620001a657825182559160200191906001019062000189565b50620001b4929150620001d4565b5090565b610831806200163b83390190565b6112e18062001e6c83390190565b620001f191905b80821115620001b45760008155600101620001db565b90565b60008060006060848603121562000209578283fd5b83516001600160401b038082111562000220578485fd5b81860187601f82011262000232578586fd5b805192508183111562000243578586fd5b62000258601f8401601f1916602001620002b3565b91508282528760208483010111156200026f578586fd5b62000282836020840160208401620002da565b508094505050602084015162000298816200030d565b80925050604084015190509250925092565b90815260200190565b6040518181016001600160401b0381118282101715620002d257600080fd5b604052919050565b60005b83811015620002f7578181015183820152602001620002dd565b8381111562000307576000848401525b50505050565b6001600160a01b03811681146200032357600080fd5b50565b61130580620003366000396000f3fe6080604052600436106100ad5760003560e01c806306fdde03146100b25780630e03c03b146100dd5780631890154c1461010a57806346b2296c1461011f5780635a3e349d1461013257806369f4568f146101525780636a7165c0146101675780637c1b38bf14610187578063856788df146101a75780638da5cb5b146101c9578063a3a6883e146101de578063afc75c34146101fe578063cfa5784914610213578063fd889ff514610233575b600080fd5b3480156100be57600080fd5b506100c7610248565b6040516100d49190610fac565b60405180910390f35b3480156100e957600080fd5b506100fd6100f8366004610d80565b6102d3565b6040516100d49190611236565b61011d610118366004610e5b565b61035a565b005b61011d61012d366004610ee3565b6104e9565b34801561013e57600080fd5b5061011d61014d366004610e19565b610643565b34801561015e57600080fd5b506100fd610724565b34801561017357600080fd5b5061011d610182366004610e19565b6107aa565b34801561019357600080fd5b5061011d6101a2366004610e5b565b610895565b3480156101b357600080fd5b506101bc610914565b6040516100d49190610f5b565b3480156101d557600080fd5b506101bc610923565b3480156101ea57600080fd5b506100fd6101f9366004610ddf565b610932565b34801561020a57600080fd5b506100fd61098d565b34801561021f57600080fd5b5061011d61022e366004610e8b565b6109c2565b34801561023f57600080fd5b506100fd610cc2565b6002805460408051602060018416156101000260001901909316849004601f810184900484028201840190925281815292918301828280156102cb5780601f106102a0576101008083540402835291602001916102cb565b820191906000526020600020905b8154815290600101906020018083116102ae57829003601f168201915b505050505081565b600080546040516370a0823160e01b81526001600160a01b03909116906370a0823190610304908590600401610f5b565b60206040518083038186803b15801561031c57600080fd5b505afa158015610330573d6000803e3d6000fd5b505050506040513d601f19601f820116820180604052508101906103549190610e73565b92915050565b600081116103835760405162461bcd60e51b815260040161037a90610fe1565b60405180910390fd5b61038b610724565b8111156103aa5760405162461bcd60e51b815260040161037a90611192565b600054604051633bb92e3560e21b81526001600160a01b039091169063eee4b8d4906103de90339030908690600401610f6f565b602060405180830381600087803b1580156103f857600080fd5b505af115801561040c573d6000803e3d6000fd5b505050506040513d601f19601f820116820180604052508101906104309190610da3565b5060003361043d83610cf7565b60405161044990610f58565b60006040518083038185875af1925050503d8060008114610486576040519150601f19603f3d011682016040523d82523d6000602084013e61048b565b606091505b50509050806104ac5760405162461bcd60e51b815260040161037a9061114e565b7fa997a52566b1f8380f086c733e70d49a141eafece6addc432a411a73ec45c68882336040516104dd92919061123f565b60405180910390a15050565b60006104f483610cf7565b9050808410156105165760405162461bcd60e51b815260040161037a906111ed565b604051818503906001600160a01b0384169082156108fc029083906000818181858888f19350505050158015610550573d6000803e3d6000fd5b50600061055b610cc2565b90508085111561057d5760405162461bcd60e51b815260040161037a906110bd565b60005460405163a9059cbb60e01b81526001600160a01b039091169063a9059cbb906105af9087908990600401610f93565b602060405180830381600087803b1580156105c957600080fd5b505af11580156105dd573d6000803e3d6000fd5b505050506040513d601f19601f820116820180604052508101906106019190610da3565b507fc5d46be962adb867acf29dce93ab611e9064bffee951e4db9e52c693f73f4c38858560405161063392919061123f565b60405180910390a1505050505050565b60035433906001600160a01b0316811461065c57600080fd5b60015460405163259e757760e01b81526001600160a01b039091169063259e75779061068e9086908690600401610fbf565b602060405180830381600087803b1580156106a857600080fd5b505af11580156106bc573d6000803e3d6000fd5b505050506040513d601f19601f820116820180604052508101906106e09190610dc3565b6008846040516106f09190610f3c565b90815260405190819003602001902080546001600160a01b03929092166001600160a01b0319909216919091179055505050565b600080546040516370a0823160e01b81526001600160a01b03909116906370a0823190610755903390600401610f5b565b60206040518083038186803b15801561076d57600080fd5b505afa158015610781573d6000803e3d6000fd5b505050506040513d601f19601f820116820180604052508101906107a59190610e73565b905090565b60035433906001600160a01b031681146107c357600080fd5b60006008846040516107d59190610f3c565b908152604051908190036020019020546005546001600160a01b039182169250168114156108155760405162461bcd60e51b815260040161037a90611066565b6008846040516108259190610f3c565b9081526040519081900360200181205463f5a5058960e01b82526001600160a01b03169063f5a505899061085d908690600401611236565b600060405180830381600087803b15801561087757600080fd5b505af115801561088b573d6000803e3d6000fd5b5050505050505050565b60035433906001600160a01b031681146108ae57600080fd5b6000546040516303a8799360e31b81526001600160a01b0390911690631d43cc98906108de908590600401611236565b600060405180830381600087803b1580156108f857600080fd5b505af115801561090c573d6000803e3d6000fd5b505050505050565b6004546001600160a01b031681565b6003546001600160a01b031681565b60006008826040516109449190610f3c565b90815260408051602092819003830181205462137c1760eb1b825291516001600160a01b0390921692639be0b80092600480840193829003018186803b15801561031c57600080fd5b600080546003546040516370a0823160e01b81526001600160a01b03928316926370a082319261075592911690600401610f5b565b60006008836040516109d49190610f3c565b908152604051908190036020019020546005546001600160a01b03918216925016811415610a145760405162461bcd60e51b815260040161037a90611066565b6000600884604051610a269190610f3c565b90815260408051602092819003830181205462137c1760eb1b825291516001600160a01b0390921692639be0b80092600480840193829003018186803b158015610a6f57600080fd5b505afa158015610a83573d6000803e3d6000fd5b505050506040513d601f19601f82011682018060405250810190610aa79190610e73565b905084811015610ac95760405162461bcd60e51b815260040161037a90611100565b6000600885604051610adb9190610f3c565b908152604080516020928190038301812054633deb12bd60e21b825291516001600160a01b039092169263f7ac4af492600480840193829003018186803b158015610b2557600080fd5b505afa158015610b39573d6000803e3d6000fd5b505050506040513d601f19601f82011682018060405250810190610b5d9190610e73565b86029050610b6a846102d3565b811115610b895760405162461bcd60e51b815260040161037a90611030565b600054600354604051633bb92e3560e21b81526001600160a01b039283169263eee4b8d492610bc2928992909116908690600401610f6f565b602060405180830381600087803b158015610bdc57600080fd5b505af1158015610bf0573d6000803e3d6000fd5b505050506040513d601f19601f82011682018060405250810190610c149190610da3565b50600885604051610c259190610f3c565b9081526040519081900360200181205463b0b6d16160e01b82526001600160a01b03169063b0b6d16190610c5d908990600401611236565b600060405180830381600087803b158015610c7757600080fd5b505af1158015610c8b573d6000803e3d6000fd5b505050507f63a6215c2d4b06bd0b74656dbfc6eb1fc9aa6029fbb18ebb4243d524217c672a86868660405161063393929190611256565b60008054600480546040516370a0823160e01b81526001600160a01b03938416936370a0823193610755939091169101610f5b565b66038d7ea4c680000290565b600082601f830112610d13578081fd5b81356001600160401b0380821115610d29578283fd5b604051601f8301601f191681016020018281118282101715610d49578485fd5b604052828152925082848301602001861015610d6457600080fd5b8260208601602083013760006020848301015250505092915050565b600060208284031215610d91578081fd5b8135610d9c816112b7565b9392505050565b600060208284031215610db4578081fd5b81518015158114610d9c578182fd5b600060208284031215610dd4578081fd5b8151610d9c816112b7565b600060208284031215610df0578081fd5b81356001600160401b03811115610e05578182fd5b610e1184828501610d03565b949350505050565b60008060408385031215610e2b578081fd5b82356001600160401b03811115610e40578182fd5b610e4c85828601610d03565b95602094909401359450505050565b600060208284031215610e6c578081fd5b5035919050565b600060208284031215610e84578081fd5b5051919050565b600080600060608486031215610e9f578081fd5b8335925060208401356001600160401b03811115610ebb578182fd5b610ec786828701610d03565b9250506040840135610ed8816112b7565b809150509250925092565b600080600060608486031215610ef7578283fd5b83359250602084013591506040840135610ed8816112b7565b60008151808452610f28816020860160208601611287565b601f01601f19169290920160200192915050565b60008251610f4e818460208701611287565b9190910192915050565b90565b6001600160a01b0391909116815260200190565b6001600160a01b039384168152919092166020820152604081019190915260600190565b6001600160a01b03929092168252602082015260400190565b600060208252610d9c6020830184610f10565b600060408252610fd26040830185610f10565b90508260208301529392505050565b6020808252602f908201527f4e6563657369746173206465766f6c76657220756e206e756d65726f20706f7360408201526e697469766f20646520746f6b656e7360881b606082015260800190565b6020808252601c908201527b4e6f207469656e657320746f6b656e7320737566696369656e74657360201b604082015260600190565b60208082526037908201527f456c207469706f20646520656e65726769612c206e6f20736520656e6375656e6040820152767472612064656e74726f2064656c20636174616c6f676f60481b606082015260800190565b60208082526023908201527f436f6d70726120756e206e756d65726f20646520746f6b656e7320616465637560408201526261646f60e81b606082015260800190565b6020808252602e908201527f4e6f20707565646520636f6d70726172206d617320656e65726769612071756560408201526d206c6120646973706f6e69626c6560901b606082015260800190565b60208082526024908201527f4e6f207365207075646f207265616c697a6172206c61207472616e73666572656040820152636e63696160e01b606082015260800190565b6020808252603b908201527f4e6f20707565646573206465766f6c766572206d617320746f6b656e7320646560408201527a206c6f7320717565207469656e657320646973706f6e69626c657360281b606082015260800190565b60208082526029908201527f436f6d707261206d656e6f7320546f6b656e73206f207061676120636f6e206d60408201526861732045746865727360b81b606082015260800190565b90815260200190565b9182526001600160a01b0316602082015260400190565b60008482526060602083015261126f6060830185610f10565b905060018060a01b0383166040830152949350505050565b60005b838110156112a257818101518382015260200161128a565b838111156112b1576000848401525b50505050565b6001600160a01b03811681146112cc57600080fd5b5056fea26469706673582212203c668622e0478ccf4199d6318bc91e21778d87205bf3187a4f524ea134d4b8ec64736f6c63430006060033608060405234801561001057600080fd5b5060405161083138038061083183398101604081905261002f91610046565b60008181553381526001602052604090205561005e565b600060208284031215610057578081fd5b5051919050565b6107c48061006d6000396000f3fe608060405234801561001057600080fd5b50600436106100a45760003560e01c806306fdde03146100a9578063095ea7b3146100c757806318160ddd146100e75780631d43cc98146100fc57806323b872dd14610111578063313ce56714610124578063324536eb1461013957806370a082311461014157806395d89b4114610154578063a9059cbb1461015c578063dd62ed3e1461016f578063eee4b8d414610182575b600080fd5b6100b1610195565b6040516100be9190610696565b60405180910390f35b6100da6100d5366004610649565b6101ba565b6040516100be919061068b565b6100ef610225565b6040516100be919061073f565b61010f61010a366004610673565b61022b565b005b6100da61011f366004610609565b610248565b61012c61036f565b6040516100be9190610748565b6100ef610374565b6100ef61014f3660046105ba565b61037a565b6100b1610395565b6100da61016a366004610649565b6103b4565b6100ef61017d3660046105d5565b61045f565b6100da610190366004610609565b61048a565b6040518060400160405280600981526020016845524332305f4d564d60b81b81525081565b3360008181526002602090815260408083206001600160a01b038716808552925280832085905551919290917f8c5be1e5ebec7d5bd14f71427d1e84f3dd0314c0f7b2291e5b200ac8c7c3b9259061021390869061073f565b60405180910390a35060015b92915050565b60005490565b600080548201815533815260016020526040902080549091019055565b6001600160a01b03831660009081526001602052604081205482111561026d57600080fd5b6001600160a01b038416600090815260026020908152604080832033845290915290205482111561029d57600080fd5b6001600160a01b0384166000908152600160205260409020546102c6908363ffffffff61057b16565b6001600160a01b0385166000908152600160209081526040808320939093556002815282822033835290522054610303908363ffffffff61057b16565b6001600160a01b038086166000908152600260209081526040808320338452825280832094909455918616815260019091522054610347908363ffffffff61058d16565b6001600160a01b03841660009081526001602081905260409091209190915590509392505050565b600281565b60005481565b6001600160a01b031660009081526001602052604090205490565b604051806040016040528060038152602001624d564d60e81b81525081565b336000908152600160205260408120548211156103d057600080fd5b336000908152600160205260409020546103f0908363ffffffff61057b16565b33600090815260016020526040808220929092556001600160a01b03851681522054610422908363ffffffff61058d16565b6001600160a01b03841660008181526001602052604090819020929092559051339060008051602061076f8339815191529061021390869061073f565b6001600160a01b03918216600090815260026020908152604080832093909416825291909152205490565b6001600160a01b0383166000908152600160205260408120548211156104cb5760405162461bcd60e51b81526004016104c2906106e9565b60405180910390fd5b6001600160a01b0384166000908152600160205260409020546104f4908363ffffffff61057b16565b6001600160a01b038086166000908152600160205260408082209390935590851681522054610529908363ffffffff61058d16565b6001600160a01b03808516600081815260016020526040908190209390935591519086169060008051602061076f8339815191529061056990869061073f565b60405180910390a35060019392505050565b60008282111561058757fe5b50900390565b60008282018381101561059c57fe5b9392505050565b80356001600160a01b038116811461021f57600080fd5b6000602082840312156105cb578081fd5b61059c83836105a3565b600080604083850312156105e7578081fd5b6105f184846105a3565b915061060084602085016105a3565b90509250929050565b60008060006060848603121561061d578081fd5b833561062881610756565b9250602084013561063881610756565b929592945050506040919091013590565b6000806040838503121561065b578182fd5b61066584846105a3565b946020939093013593505050565b600060208284031215610684578081fd5b5035919050565b901515815260200190565b6000602080835283518082850152825b818110156106c2578581018301518582016040015282016106a6565b818111156106d35783604083870101525b50601f01601f1916929092016040019392505050565b60208082526036908201527f456c206e756d65726f20646520746f6b656e732061207472616e736665726972604082015275206573206d61796f722071756520656c2073616c646f60501b606082015260800190565b90815260200190565b60ff91909116815260200190565b6001600160a01b038116811461076b57600080fd5b5056feddf252ad1be2c89b69c2b068fc378daa952ba7f163c4a11628f55a4df523b3efa2646970667358221220def98b5ad35247c41b825ceb3322f3c08ecfd791f549862d2fe632990a178cbe64736f6c63430006060033608060405234801561001057600080fd5b506112c1806100206000396000f3fe608060405234801561001057600080fd5b506004361061002b5760003560e01c8063259e757714610030575b600080fd5b6100d66004803603604081101561004657600080fd5b810190602081018135600160201b81111561006057600080fd5b82018360208201111561007257600080fd5b803590602001918460018302840111600160201b8311171561009357600080fd5b91908080601f01602080910402602001604051908101604052809392919081815260200183838082843760009201919091525092955050913592506100f2915050565b604080516001600160a01b039092168252519081900360200190f35b604080516388d8da5f60e01b8152600481019182528351604482015283516000928392839273__StringLibrary_________________________926388d8da5f9289928291602481019160649091019060208601908083838c5b8381101561016457818101518382015260200161014c565b50505050905090810190601f1680156101915780820380516001836020036101000a031916815260200191505b50838103825260058152602001806439b7b630b960d91b815250602001935050505060206040518083038186803b1580156101cb57600080fd5b505af41580156101df573d6000803e3d6000fd5b505050506040513d60208110156101f557600080fd5b50511561025457836040516102099061054c565b602081019190915260408082526005818301526439b7b630b960d91b60608301525190819003608001906000f080158015610248573d6000803e3d6000fd5b50915060019050610508565b604080516388d8da5f60e01b81526004810191825286516044820152865173__StringLibrary_________________________926388d8da5f92899282916024810191606490910190602086019080838360005b838110156102c05781810151838201526020016102a8565b50505050905090810190601f1680156102ed5780820380516001836020036101000a031916815260200191505b508381038252600681526020018065656f6c69636160d01b815250602001935050505060206040518083038186803b15801561032857600080fd5b505af415801561033c573d6000803e3d6000fd5b505050506040513d602081101561035257600080fd5b5051156103a6578360405161036690610559565b6020810191909152604080825260068183015265656f6c69636160d01b60608301525190819003608001906000f080158015610248573d6000803e3d6000fd5b604080516388d8da5f60e01b81526004810191825286516044820152865173__StringLibrary_________________________926388d8da5f92899282916024810191606490910190602086019080838360005b838110156104125781810151838201526020016103fa565b50505050905090810190601f16801561043f5780820380516001836020036101000a031916815260200191505b508381038252600a815260200180696869647261756c69636160b01b815250602001935050505060206040518083038186803b15801561047e57600080fd5b505af4158015610492573d6000803e3d6000fd5b505050506040513d60208110156104a857600080fd5b50511561050857836040516104bc90610566565b60208101919091526040808252600a81830152696869647261756c69636160b01b60608301525190819003608001906000f080158015610500573d6000803e3d6000fd5b509150600190505b806105445760405162461bcd60e51b815260040180806020018281038252605281526020018061123a6052913960600191505060405180910390fd5b509392505050565b6104428061057483390190565b610442806109b683390190565b61044280610df88339019056fe608060405234801561001057600080fd5b506040516104423803806104428339818101604052604081101561003357600080fd5b810190808051604051939291908464010000000082111561005357600080fd5b90830190602082018581111561006857600080fd5b825164010000000081118282018810171561008257600080fd5b82525081516020918201929091019080838360005b838110156100af578181015183820152602001610097565b50505050905090810190601f1680156100dc5780820380516001836020036101000a031916815260200191505b5060405260209081015184519093506100fb9250600091850190610105565b50600255506101a0565b828054600181600116156101000203166002900490600052602060002090601f016020900481019282601f1061014657805160ff1916838001178555610173565b82800160010185558215610173579182015b82811115610173578251825591602001919060010190610158565b5061017f929150610183565b5090565b61019d91905b8082111561017f5760008155600101610189565b90565b610293806101af6000396000f3fe608060405234801561001057600080fd5b506004361061006d5760003560e01c80639be0b800146100725780639e66e0f31461008c578063ae4f7a4c14610094578063b0b6d1611461009c578063bc7b35b2146100bb578063f5a5058914610138578063f7ac4af414610155575b600080fd5b61007a61015d565b60408051918252519081900360200190f35b61007a610163565b61007a610169565b6100b9600480360360208110156100b257600080fd5b503561016f565b005b6100c361018c565b6040805160208082528351818301528351919283929083019185019080838360005b838110156100fd5781810151838201526020016100e5565b50505050905090810190601f16801561012a5780820380516001836020036101000a031916815260200191505b509250505060405180910390f35b6100b96004803603602081101561014e57600080fd5b503561021a565b61007a610230565b60025490565b60015481565b60025481565b600254600090610185908363ffffffff61023516565b6002555050565b6000805460408051602060026001851615610100026000190190941693909304601f810184900484028201840190925281815292918301828280156102125780601f106101e757610100808354040283529160200191610212565b820191906000526020600020905b8154815290600101906020018083116101f557829003601f168201915b505050505081565b600254600090610185908363ffffffff61024716565b600390565b60008282111561024157fe5b50900390565b60008282018381101561025657fe5b939250505056fea2646970667358221220a40122cd153ed1a8164480218fe8066e2aa54d8e0eb677b1a3e8dd6b931e7e4f64736f6c63430006060033608060405234801561001057600080fd5b506040516104423803806104428339818101604052604081101561003357600080fd5b810190808051604051939291908464010000000082111561005357600080fd5b90830190602082018581111561006857600080fd5b825164010000000081118282018810171561008257600080fd5b82525081516020918201929091019080838360005b838110156100af578181015183820152602001610097565b50505050905090810190601f1680156100dc5780820380516001836020036101000a031916815260200191505b5060405260209081015184519093506100fb9250600091850190610105565b50600255506101a0565b828054600181600116156101000203166002900490600052602060002090601f016020900481019282601f1061014657805160ff1916838001178555610173565b82800160010185558215610173579182015b82811115610173578251825591602001919060010190610158565b5061017f929150610183565b5090565b61019d91905b8082111561017f5760008155600101610189565b90565b610293806101af6000396000f3fe608060405234801561001057600080fd5b506004361061006d5760003560e01c80639be0b800146100725780639e66e0f31461008c578063ae4f7a4c14610094578063b0b6d1611461009c578063bc7b35b2146100bb578063f5a5058914610138578063f7ac4af414610155575b600080fd5b61007a61015d565b60408051918252519081900360200190f35b61007a610163565b61007a610169565b6100b9600480360360208110156100b257600080fd5b503561016f565b005b6100c361018c565b6040805160208082528351818301528351919283929083019185019080838360005b838110156100fd5781810151838201526020016100e5565b50505050905090810190601f16801561012a5780820380516001836020036101000a031916815260200191505b509250505060405180910390f35b6100b96004803603602081101561014e57600080fd5b503561021a565b61007a610230565b60025490565b60015481565b60025481565b600254600090610185908363ffffffff61023516565b6002555050565b6000805460408051602060026001851615610100026000190190941693909304601f810184900484028201840190925281815292918301828280156102125780601f106101e757610100808354040283529160200191610212565b820191906000526020600020905b8154815290600101906020018083116101f557829003601f168201915b505050505081565b600254600090610185908363ffffffff61024716565b600290565b60008282111561024157fe5b50900390565b60008282018381101561025657fe5b939250505056fea264697066735822122015e7bf9b3d882280c1b37e746f5cb0d82181cf6fb76462adcf7ff2c01c56c4c864736f6c63430006060033608060405234801561001057600080fd5b506040516104423803806104428339818101604052604081101561003357600080fd5b810190808051604051939291908464010000000082111561005357600080fd5b90830190602082018581111561006857600080fd5b825164010000000081118282018810171561008257600080fd5b82525081516020918201929091019080838360005b838110156100af578181015183820152602001610097565b50505050905090810190601f1680156100dc5780820380516001836020036101000a031916815260200191505b5060405260209081015184519093506100fb9250600091850190610105565b50600255506101a0565b828054600181600116156101000203166002900490600052602060002090601f016020900481019282601f1061014657805160ff1916838001178555610173565b82800160010185558215610173579182015b82811115610173578251825591602001919060010190610158565b5061017f929150610183565b5090565b61019d91905b8082111561017f5760008155600101610189565b90565b610293806101af6000396000f3fe608060405234801561001057600080fd5b506004361061006d5760003560e01c80639be0b800146100725780639e66e0f31461008c578063ae4f7a4c14610094578063b0b6d1611461009c578063bc7b35b2146100bb578063f5a5058914610138578063f7ac4af414610155575b600080fd5b61007a61015d565b60408051918252519081900360200190f35b61007a610163565b61007a610169565b6100b9600480360360208110156100b257600080fd5b503561016f565b005b6100c361018c565b6040805160208082528351818301528351919283929083019185019080838360005b838110156100fd5781810151838201526020016100e5565b50505050905090810190601f16801561012a5780820380516001836020036101000a031916815260200191505b509250505060405180910390f35b6100b96004803603602081101561014e57600080fd5b503561021a565b61007a610230565b60025490565b60015481565b60025481565b600254600090610185908363ffffffff61023516565b6002555050565b6000805460408051602060026001851615610100026000190190941693909304601f810184900484028201840190925281815292918301828280156102125780601f106101e757610100808354040283529160200191610212565b820191906000526020600020905b8154815290600101906020018083116101f557829003601f168201915b505050505081565b600254600090610185908363ffffffff61024716565b600190565b60008282111561024157fe5b50900390565b60008282018381101561025657fe5b939250505056fea264697066735822122067afd0ae7d8899d28384e536edc836f8a2cabdfcb81f2af38eaa0f877b13e5ee64736f6c634300060600334e6f20657320756e207469706f20646520656e65726769612076616c69646f2c206c6f73207469706f732076616c69646f7320736f6e3a20736f6c61722c20656f6c696361206f206869647261756c696361a2646970667358221220178757074f43b6be62d61722920fa5cc291c4ec1683615acec4ff387bef65de964736f6c634300060600336080604052600280546001600160a01b03191690553480156200002157600080fd5b50604051620021bc380380620021bc83398101604081905262000044916200019e565b825162000059906004906020860190620000eb565b50600080546001600160a01b038085166001600160a01b03199283161790925560038054928416928216929092179091556001805490911630179055604051620000a39062000170565b604051809103906000f080158015620000c0573d6000803e3d6000fd5b50600780546001600160a01b0319166001600160a01b039290921691909117905550620002d3915050565b828054600181600116156101000203166002900490600052602060002090601f016020900481019282601f106200012e57805160ff19168380011785556200015e565b828001600101855582156200015e579182015b828111156200015e57825182559160200191906001019062000141565b506200016c9291506200017e565b5090565b6112e18062000edb83390190565b6200019b91905b808211156200016c576000815560010162000185565b90565b600080600060608486031215620001b3578283fd5b83516001600160401b0380821115620001ca578485fd5b81860187601f820112620001dc578586fd5b8051925081831115620001ed578586fd5b62000202601f8401601f191660200162000260565b915082825287602084830101111562000219578586fd5b6200022c83602084016020840162000287565b50809450505060208401516200024281620002ba565b60408501519092506200025581620002ba565b809150509250925092565b6040518181016001600160401b03811182821017156200027f57600080fd5b604052919050565b60005b83811015620002a45781810151838201526020016200028a565b83811115620002b4576000848401525b50505050565b6001600160a01b0381168114620002d057600080fd5b50565b610bf880620002e36000396000f3fe6080604052600436106100815760003560e01c80630e03c03b1461008657806325d87cdc146100bc578063450efe21146100d15780635c33aafe146100f157806380bf87cb14610113578063856788df146101335780638da5cb5b14610148578063a01885171461015d578063d6cfb1ad1461017d578063d7ce639a1461019f575b600080fd5b34801561009257600080fd5b506100a66100a13660046107ea565b6101b2565b6040516100b39190610ac9565b60405180910390f35b6100cf6100ca36600461080d565b610237565b005b3480156100dd57600080fd5b506100a66100ec3660046107ea565b6102d1565b3480156100fd57600080fd5b506101066102ec565b6040516100b391906109e9565b34801561011f57600080fd5b506100cf61012e366004610838565b6102fb565b34801561013f57600080fd5b50610106610511565b34801561015457600080fd5b50610106610520565b34801561016957600080fd5b506100a661017836600461094f565b61052f565b34801561018957600080fd5b5061019261058a565b6040516100b391906109fd565b6100cf6101ad36600461080d565b610610565b604051630e03c03b60e01b81526000906001600160a01b03831690630e03c03b906101e19033906004016109e9565b60206040518083038186803b1580156101f957600080fd5b505afa15801561020d573d6000803e3d6000fd5b505050506040513d601f19601f820116820180604052508101906102319190610989565b92915050565b60005433906001600160a01b0316811461026c5760405162461bcd60e51b815260040161026390610a7b565b60405180910390fd5b60405163649513c560e11b81526001600160a01b0384169063c92a278a9061029a9085903390600401610ad2565b600060405180830381600087803b1580156102b457600080fd5b505af11580156102c8573d6000803e3d6000fd5b50505050505050565b6001600160a01b031660009081526006602052604090205490565b6003546001600160a01b031690565b60005433906001600160a01b031681146103275760405162461bcd60e51b815260040161026390610a7b565b60405163cfa5784960e01b81526001600160a01b0385169063cfa578499061035790869086903390600401610ae9565b600060405180830381600087803b15801561037157600080fd5b505af1158015610385573d6000803e3d6000fd5b50506002546040516001600160a01b039091169250600591506103a99085906109cd565b908152604051908190036020019020546001600160a01b031614156104905760075460405163259e757760e01b81526001600160a01b039091169063259e7577906103fa9085908790600401610a59565b602060405180830381600087803b15801561041457600080fd5b505af1158015610428573d6000803e3d6000fd5b505050506040513d601f19601f8201168201806040525081019061044c9190610933565b60058360405161045c91906109cd565b90815260405190819003602001902080546001600160a01b03929092166001600160a01b031990921691909117905561050b565b6005826040516104a091906109cd565b9081526040519081900360200181205463f5a5058960e01b82526001600160a01b03169063f5a50589906104d8908690600401610ac9565b600060405180830381600087803b1580156104f257600080fd5b505af1158015610506573d6000803e3d6000fd5b505050505b50505050565b6001546001600160a01b031681565b6000546001600160a01b031681565b600060058260405161054191906109cd565b90815260408051602092819003830181205462137c1760eb1b825291516001600160a01b0390921692639be0b80092600480840193829003018186803b1580156101f957600080fd5b6003546040805163bd81360960e01b815290516060926001600160a01b03169163bd813609916004808301926000929190829003018186803b1580156105cf57600080fd5b505afa1580156105e3573d6000803e3d6000fd5b505050506040513d6000823e601f3d908101601f1916820160405261060b919081019061088e565b905090565b60005433906001600160a01b0316811461063c5760405162461bcd60e51b815260040161026390610a7b565b6040516311ac8a5b60e21b81526001600160a01b038416906346b2296c9061066c90349086903390600401610b1a565b600060405180830381600087803b15801561068657600080fd5b505af115801561069a573d6000803e3d6000fd5b5050604051630e03c03b60e01b8152600092506001600160a01b0386169150630e03c03b906106cd9033906004016109e9565b60206040518083038186803b1580156106e557600080fd5b505afa1580156106f9573d6000803e3d6000fd5b505050506040513d601f19601f8201168201806040525081019061071d9190610989565b6001600160a01b03909416600090815260066020526040902093909355505050565b600082601f83011261074f578081fd5b81356001600160401b03811115610764578182fd5b610777601f8201601f1916602001610b39565b915080825283602082850101111561078e57600080fd5b8060208401602084013760009082016020015292915050565b6000604082840312156107b8578081fd5b6107c26040610b39565b905081516107cf81610baa565b815260208201516107df81610baa565b602082015292915050565b6000602082840312156107fb578081fd5b813561080681610baa565b9392505050565b6000806040838503121561081f578081fd5b823561082a81610baa565b946020939093013593505050565b60008060006060848603121561084c578081fd5b833561085781610baa565b92506020840135915060408401356001600160401b03811115610878578182fd5b6108848682870161073f565b9150509250925092565b600060208083850312156108a0578182fd5b82516001600160401b038111156108b5578283fd5b80840185601f8201126108c6578384fd5b805191506108db6108d683610b5f565b610b39565b828152838101908285016040808602850187018a10156108f9578788fd5b8794505b858510156109255761090f8a836107a7565b84526001949094019392860192908101906108fd565b509098975050505050505050565b600060208284031215610944578081fd5b815161080681610baa565b600060208284031215610960578081fd5b81356001600160401b03811115610975578182fd5b6109818482850161073f565b949350505050565b60006020828403121561099a578081fd5b5051919050565b600081518084526109b9816020860160208601610b7e565b601f01601f19169290920160200192915050565b600082516109df818460208701610b7e565b9190910192915050565b6001600160a01b0391909116815260200190565b602080825282518282018190526000919060409081850190868401855b82811015610a4c57815180516001600160a01b0390811686529087015116868501529284019290850190600101610a1a565b5091979650505050505050565b600060408252610a6c60408301856109a1565b90508260208301529392505050565b6020808252602e908201527f4e6f207469656e65207065726d69736f73207061726120656a6563757461722060408201526d3630903a3930b739b0b1b1b4b7b760911b606082015260800190565b90815260200190565b9182526001600160a01b0316602082015260400190565b600084825260606020830152610b0260608301856109a1565b905060018060a01b0383166040830152949350505050565b92835260208301919091526001600160a01b0316604082015260600190565b6040518181016001600160401b0381118282101715610b5757600080fd5b604052919050565b60006001600160401b03821115610b74578081fd5b5060209081020190565b60005b83811015610b99578181015183820152602001610b81565b8381111561050b5750506000910152565b6001600160a01b0381168114610bbf57600080fd5b5056fea26469706673582212203558a406f80e805db5bd5e4e92b7311dd4d62ef5a9f11a950648caf2594664f264736f6c63430006060033608060405234801561001057600080fd5b506112c1806100206000396000f3fe608060405234801561001057600080fd5b506004361061002b5760003560e01c8063259e757714610030575b600080fd5b6100d66004803603604081101561004657600080fd5b810190602081018135600160201b81111561006057600080fd5b82018360208201111561007257600080fd5b803590602001918460018302840111600160201b8311171561009357600080fd5b91908080601f01602080910402602001604051908101604052809392919081815260200183838082843760009201919091525092955050913592506100f2915050565b604080516001600160a01b039092168252519081900360200190f35b604080516388d8da5f60e01b8152600481019182528351604482015283516000928392839273__StringLibrary_________________________926388d8da5f9289928291602481019160649091019060208601908083838c5b8381101561016457818101518382015260200161014c565b50505050905090810190601f1680156101915780820380516001836020036101000a031916815260200191505b50838103825260058152602001806439b7b630b960d91b815250602001935050505060206040518083038186803b1580156101cb57600080fd5b505af41580156101df573d6000803e3d6000fd5b505050506040513d60208110156101f557600080fd5b50511561025457836040516102099061054c565b602081019190915260408082526005818301526439b7b630b960d91b60608301525190819003608001906000f080158015610248573d6000803e3d6000fd5b50915060019050610508565b604080516388d8da5f60e01b81526004810191825286516044820152865173__StringLibrary_________________________926388d8da5f92899282916024810191606490910190602086019080838360005b838110156102c05781810151838201526020016102a8565b50505050905090810190601f1680156102ed5780820380516001836020036101000a031916815260200191505b508381038252600681526020018065656f6c69636160d01b815250602001935050505060206040518083038186803b15801561032857600080fd5b505af415801561033c573d6000803e3d6000fd5b505050506040513d602081101561035257600080fd5b5051156103a6578360405161036690610559565b6020810191909152604080825260068183015265656f6c69636160d01b60608301525190819003608001906000f080158015610248573d6000803e3d6000fd5b604080516388d8da5f60e01b81526004810191825286516044820152865173__StringLibrary_________________________926388d8da5f92899282916024810191606490910190602086019080838360005b838110156104125781810151838201526020016103fa565b50505050905090810190601f16801561043f5780820380516001836020036101000a031916815260200191505b508381038252600a815260200180696869647261756c69636160b01b815250602001935050505060206040518083038186803b15801561047e57600080fd5b505af4158015610492573d6000803e3d6000fd5b505050506040513d60208110156104a857600080fd5b50511561050857836040516104bc90610566565b60208101919091526040808252600a81830152696869647261756c69636160b01b60608301525190819003608001906000f080158015610500573d6000803e3d6000fd5b509150600190505b806105445760405162461bcd60e51b815260040180806020018281038252605281526020018061123a6052913960600191505060405180910390fd5b509392505050565b6104428061057483390190565b610442806109b683390190565b61044280610df88339019056fe608060405234801561001057600080fd5b506040516104423803806104428339818101604052604081101561003357600080fd5b810190808051604051939291908464010000000082111561005357600080fd5b90830190602082018581111561006857600080fd5b825164010000000081118282018810171561008257600080fd5b82525081516020918201929091019080838360005b838110156100af578181015183820152602001610097565b50505050905090810190601f1680156100dc5780820380516001836020036101000a031916815260200191505b5060405260209081015184519093506100fb9250600091850190610105565b50600255506101a0565b828054600181600116156101000203166002900490600052602060002090601f016020900481019282601f1061014657805160ff1916838001178555610173565b82800160010185558215610173579182015b82811115610173578251825591602001919060010190610158565b5061017f929150610183565b5090565b61019d91905b8082111561017f5760008155600101610189565b90565b610293806101af6000396000f3fe608060405234801561001057600080fd5b506004361061006d5760003560e01c80639be0b800146100725780639e66e0f31461008c578063ae4f7a4c14610094578063b0b6d1611461009c578063bc7b35b2146100bb578063f5a5058914610138578063f7ac4af414610155575b600080fd5b61007a61015d565b60408051918252519081900360200190f35b61007a610163565b61007a610169565b6100b9600480360360208110156100b257600080fd5b503561016f565b005b6100c361018c565b6040805160208082528351818301528351919283929083019185019080838360005b838110156100fd5781810151838201526020016100e5565b50505050905090810190601f16801561012a5780820380516001836020036101000a031916815260200191505b509250505060405180910390f35b6100b96004803603602081101561014e57600080fd5b503561021a565b61007a610230565b60025490565b60015481565b60025481565b600254600090610185908363ffffffff61023516565b6002555050565b6000805460408051602060026001851615610100026000190190941693909304601f810184900484028201840190925281815292918301828280156102125780601f106101e757610100808354040283529160200191610212565b820191906000526020600020905b8154815290600101906020018083116101f557829003601f168201915b505050505081565b600254600090610185908363ffffffff61024716565b600390565b60008282111561024157fe5b50900390565b60008282018381101561025657fe5b939250505056fea2646970667358221220a40122cd153ed1a8164480218fe8066e2aa54d8e0eb677b1a3e8dd6b931e7e4f64736f6c63430006060033608060405234801561001057600080fd5b506040516104423803806104428339818101604052604081101561003357600080fd5b810190808051604051939291908464010000000082111561005357600080fd5b90830190602082018581111561006857600080fd5b825164010000000081118282018810171561008257600080fd5b82525081516020918201929091019080838360005b838110156100af578181015183820152602001610097565b50505050905090810190601f1680156100dc5780820380516001836020036101000a031916815260200191505b5060405260209081015184519093506100fb9250600091850190610105565b50600255506101a0565b828054600181600116156101000203166002900490600052602060002090601f016020900481019282601f1061014657805160ff1916838001178555610173565b82800160010185558215610173579182015b82811115610173578251825591602001919060010190610158565b5061017f929150610183565b5090565b61019d91905b8082111561017f5760008155600101610189565b90565b610293806101af6000396000f3fe608060405234801561001057600080fd5b506004361061006d5760003560e01c80639be0b800146100725780639e66e0f31461008c578063ae4f7a4c14610094578063b0b6d1611461009c578063bc7b35b2146100bb578063f5a5058914610138578063f7ac4af414610155575b600080fd5b61007a61015d565b60408051918252519081900360200190f35b61007a610163565b61007a610169565b6100b9600480360360208110156100b257600080fd5b503561016f565b005b6100c361018c565b6040805160208082528351818301528351919283929083019185019080838360005b838110156100fd5781810151838201526020016100e5565b50505050905090810190601f16801561012a5780820380516001836020036101000a031916815260200191505b509250505060405180910390f35b6100b96004803603602081101561014e57600080fd5b503561021a565b61007a610230565b60025490565b60015481565b60025481565b600254600090610185908363ffffffff61023516565b6002555050565b6000805460408051602060026001851615610100026000190190941693909304601f810184900484028201840190925281815292918301828280156102125780601f106101e757610100808354040283529160200191610212565b820191906000526020600020905b8154815290600101906020018083116101f557829003601f168201915b505050505081565b600254600090610185908363ffffffff61024716565b600290565b60008282111561024157fe5b50900390565b60008282018381101561025657fe5b939250505056fea264697066735822122015e7bf9b3d882280c1b37e746f5cb0d82181cf6fb76462adcf7ff2c01c56c4c864736f6c63430006060033608060405234801561001057600080fd5b506040516104423803806104428339818101604052604081101561003357600080fd5b810190808051604051939291908464010000000082111561005357600080fd5b90830190602082018581111561006857600080fd5b825164010000000081118282018810171561008257600080fd5b82525081516020918201929091019080838360005b838110156100af578181015183820152602001610097565b50505050905090810190601f1680156100dc5780820380516001836020036101000a031916815260200191505b5060405260209081015184519093506100fb9250600091850190610105565b50600255506101a0565b828054600181600116156101000203166002900490600052602060002090601f016020900481019282601f1061014657805160ff1916838001178555610173565b82800160010185558215610173579182015b82811115610173578251825591602001919060010190610158565b5061017f929150610183565b5090565b61019d91905b8082111561017f5760008155600101610189565b90565b610293806101af6000396000f3fe608060405234801561001057600080fd5b506004361061006d5760003560e01c80639be0b800146100725780639e66e0f31461008c578063ae4f7a4c14610094578063b0b6d1611461009c578063bc7b35b2146100bb578063f5a5058914610138578063f7ac4af414610155575b600080fd5b61007a61015d565b60408051918252519081900360200190f35b61007a610163565b61007a610169565b6100b9600480360360208110156100b257600080fd5b503561016f565b005b6100c361018c565b6040805160208082528351818301528351919283929083019185019080838360005b838110156100fd5781810151838201526020016100e5565b50505050905090810190601f16801561012a5780820380516001836020036101000a031916815260200191505b509250505060405180910390f35b6100b96004803603602081101561014e57600080fd5b503561021a565b61007a610230565b60025490565b60015481565b60025481565b600254600090610185908363ffffffff61023516565b6002555050565b6000805460408051602060026001851615610100026000190190941693909304601f810184900484028201840190925281815292918301828280156102125780601f106101e757610100808354040283529160200191610212565b820191906000526020600020905b8154815290600101906020018083116101f557829003601f168201915b505050505081565b600254600090610185908363ffffffff61024716565b600190565b60008282111561024157fe5b50900390565b60008282018381101561025657fe5b939250505056fea264697066735822122067afd0ae7d8899d28384e536edc836f8a2cabdfcb81f2af38eaa0f877b13e5ee64736f6c634300060600334e6f20657320756e207469706f20646520656e65726769612076616c69646f2c206c6f73207469706f732076616c69646f7320736f6e3a20736f6c61722c20656f6c696361206f206869647261756c696361a2646970667358221220178757074f43b6be62d61722920fa5cc291c4ec1683615acec4ff387bef65de964736f6c63430006060033556e6120646972656363696f6e206e6f2070756564652074656e6572206d6173a264697066735822122024217bc6303a138433a8bb32527a59fd37f09537728bb2431c6c1ec90847bf7764736f6c63430006060033",
  "immutableReferences": {},
  "source": "pragma solidity >=0.4.0 <0.7.0;\r\npragma experimental ABIEncoderV2;\r\nimport \"./Generador.sol\";\r\nimport \"./Comercializador.sol\";\r\nimport \"./models/InfoContrato.sol\";\r\nimport \"./libraries/Validations.sol\";\r\n\r\ncontract MVMFactory {\r\n\r\n    address public owner;\r\n    address public dirContrato;\r\n\r\n    infoContrato[] generadoresOwners;\r\n    infoContrato[] comercializadoresOwners;\r\n\r\n    mapping (address => address) public DirContratosGeneradores;\r\n    mapping (address=>address) public DirContratosComercializadores;\r\n\r\n    event CreacionGenerador (string, address);\r\n    event CreacionComercializador (string, address);\r\n    using Validations for *;\r\n\r\n    constructor () public {\r\n        owner = msg.sender;\r\n        dirContrato = address (this);\r\n    }\r\n\r\n    function factoryGenerador (string memory nombreGenerador, uint cantidadTokens) public {\r\n        require(msg.sender.aproveCreation(generadoresOwners),\"Una direccion no puede tener mas de un generador\");\r\n        DirContratosGeneradores[msg.sender] = address (new Generador(nombreGenerador,msg.sender, cantidadTokens));\r\n        generadoresOwners.push(infoContrato (msg.sender,DirContratosGeneradores[msg.sender]));\r\n        emit CreacionGenerador(nombreGenerador, DirContratosGeneradores[msg.sender]);\r\n    }   \r\n    \r\n    function factoryComercializador (string memory nombreComercializador) public {\r\n        require(msg.sender.aproveCreation(comercializadoresOwners),\"Una direccion no puede tener mas de un comercializador\");\r\n        DirContratosComercializadores[msg.sender] = address (new Comercializador(nombreComercializador,msg.sender,dirContrato));\r\n        comercializadoresOwners.push(infoContrato(msg.sender,DirContratosComercializadores[msg.sender]));\r\n        emit CreacionComercializador(nombreComercializador, DirContratosComercializadores[msg.sender]);\r\n    }\r\n\r\n    function getGeneradoresOwners () public view returns (infoContrato[] memory){\r\n        return generadoresOwners;\r\n    }   \r\n\r\n    function getComercializadoresOwners () public view returns (infoContrato[] memory){\r\n        return comercializadoresOwners;\r\n    }\r\n\r\n    function existeGenerador (address contractDir, infoContrato[] memory arrayContracts) public pure returns (bool){\r\n        return contractDir.existsContract(arrayContracts);\r\n    }\r\n}",
  "sourcePath": "D:\\Santiago\\BlockChain\\DemoMvmTruffle\\contracts\\MvmFactory.sol",
  "compiler": {
    "name": "solc",
    "version": "0.6.6+commit.6c089d02.Linux.g++"
  },
  "schemaVersion": "3.4.4",
  "updatedAt": "2022-06-15T00:43:08.538Z",
  "networkType": "ethereum",
  "devdoc": {
    "methods": {}
  },
  "userdoc": {
    "methods": {}
  }
}