{
  "contractName": "MvmGeneradorFactory",
  "abi": [
    {
      "inputs": [
        {
          "internalType": "address",
          "name": "_reguladorMercado",
          "type": "address"
        }
      ],
      "stateMutability": "nonpayable",
      "type": "constructor"
    },
    {
      "anonymous": false,
      "inputs": [
        {
          "indexed": false,
          "internalType": "string",
          "name": "",
          "type": "string"
        },
        {
          "indexed": false,
          "internalType": "address",
          "name": "",
          "type": "address"
        }
      ],
      "name": "Creacion",
      "type": "event"
    },
    {
      "inputs": [
        {
          "internalType": "address",
          "name": "",
          "type": "address"
        }
      ],
      "name": "DirContratosGeneradores",
      "outputs": [
        {
          "internalType": "address",
          "name": "",
          "type": "address"
        }
      ],
      "stateMutability": "view",
      "type": "function",
      "constant": true
    },
    {
      "inputs": [
        {
          "internalType": "address",
          "name": "dir",
          "type": "address"
        }
      ],
      "name": "diligenciarContratoRegulador",
      "outputs": [],
      "stateMutability": "nonpayable",
      "type": "function"
    },
    {
      "inputs": [],
      "name": "dirContrato",
      "outputs": [
        {
          "internalType": "address",
          "name": "",
          "type": "address"
        }
      ],
      "stateMutability": "view",
      "type": "function",
      "constant": true
    },
    {
      "inputs": [],
      "name": "direccionRegistrada",
      "outputs": [
        {
          "internalType": "bool",
          "name": "",
          "type": "bool"
        }
      ],
      "stateMutability": "view",
      "type": "function",
      "constant": true
    },
    {
      "inputs": [],
      "name": "getContratosOwners",
      "outputs": [
        {
          "components": [
            {
              "internalType": "address",
              "name": "dirContrato",
              "type": "address"
            },
            {
              "internalType": "address",
              "name": "owner",
              "type": "address"
            },
            {
              "internalType": "string",
              "name": "nit",
              "type": "string"
            },
            {
              "internalType": "string",
              "name": "empresa",
              "type": "string"
            },
            {
              "internalType": "string",
              "name": "contacto",
              "type": "string"
            },
            {
              "internalType": "string",
              "name": "telefono",
              "type": "string"
            },
            {
              "internalType": "string",
              "name": "correo",
              "type": "string"
            },
            {
              "internalType": "string",
              "name": "departamento",
              "type": "string"
            },
            {
              "internalType": "string",
              "name": "ciudad",
              "type": "string"
            },
            {
              "internalType": "string",
              "name": "direccion",
              "type": "string"
            },
            {
              "internalType": "address",
              "name": "comercializador",
              "type": "address"
            },
            {
              "internalType": "uint256",
              "name": "tipoComercio",
              "type": "uint256"
            }
          ],
          "internalType": "struct InfoContrato[]",
          "name": "",
          "type": "tuple[]"
        }
      ],
      "stateMutability": "view",
      "type": "function",
      "constant": true
    },
    {
      "inputs": [],
      "name": "owner",
      "outputs": [
        {
          "internalType": "address",
          "name": "",
          "type": "address"
        }
      ],
      "stateMutability": "view",
      "type": "function",
      "constant": true
    },
    {
      "inputs": [],
      "name": "reguladorMercado",
      "outputs": [
        {
          "internalType": "address",
          "name": "",
          "type": "address"
        }
      ],
      "stateMutability": "view",
      "type": "function",
      "constant": true
    },
    {
      "inputs": [
        {
          "components": [
            {
              "internalType": "address",
              "name": "dirContrato",
              "type": "address"
            },
            {
              "internalType": "address",
              "name": "owner",
              "type": "address"
            },
            {
              "internalType": "string",
              "name": "nit",
              "type": "string"
            },
            {
              "internalType": "string",
              "name": "empresa",
              "type": "string"
            },
            {
              "internalType": "string",
              "name": "contacto",
              "type": "string"
            },
            {
              "internalType": "string",
              "name": "telefono",
              "type": "string"
            },
            {
              "internalType": "string",
              "name": "correo",
              "type": "string"
            },
            {
              "internalType": "string",
              "name": "departamento",
              "type": "string"
            },
            {
              "internalType": "string",
              "name": "ciudad",
              "type": "string"
            },
            {
              "internalType": "string",
              "name": "direccion",
              "type": "string"
            },
            {
              "internalType": "address",
              "name": "comercializador",
              "type": "address"
            },
            {
              "internalType": "uint256",
              "name": "tipoComercio",
              "type": "uint256"
            }
          ],
          "internalType": "struct InfoContrato",
          "name": "_infoContrato",
          "type": "tuple"
        }
      ],
      "name": "FactoryContrato",
      "outputs": [],
      "stateMutability": "nonpayable",
      "type": "function"
    },
    {
      "inputs": [
        {
          "internalType": "address",
          "name": "contractDir",
          "type": "address"
        },
        {
          "components": [
            {
              "internalType": "address",
              "name": "dirContrato",
              "type": "address"
            },
            {
              "internalType": "address",
              "name": "owner",
              "type": "address"
            },
            {
              "internalType": "string",
              "name": "nit",
              "type": "string"
            },
            {
              "internalType": "string",
              "name": "empresa",
              "type": "string"
            },
            {
              "internalType": "string",
              "name": "contacto",
              "type": "string"
            },
            {
              "internalType": "string",
              "name": "telefono",
              "type": "string"
            },
            {
              "internalType": "string",
              "name": "correo",
              "type": "string"
            },
            {
              "internalType": "string",
              "name": "departamento",
              "type": "string"
            },
            {
              "internalType": "string",
              "name": "ciudad",
              "type": "string"
            },
            {
              "internalType": "string",
              "name": "direccion",
              "type": "string"
            },
            {
              "internalType": "address",
              "name": "comercializador",
              "type": "address"
            },
            {
              "internalType": "uint256",
              "name": "tipoComercio",
              "type": "uint256"
            }
          ],
          "internalType": "struct InfoContrato[]",
          "name": "arrayContracts",
          "type": "tuple[]"
        }
      ],
      "name": "existeGenerador",
      "outputs": [
        {
          "internalType": "bool",
          "name": "",
          "type": "bool"
        }
      ],
      "stateMutability": "pure",
      "type": "function",
      "constant": true
    }
  ],
  "bytecode": "0x608060405234801561001057600080fd5b5060405162004d6838038062004d688339810160408190526100319161006f565b600080546001600160a01b0319908116331790915560018054821630179055600280546001600160a01b03939093169290911691909117905561009d565b600060208284031215610080578081fd5b81516001600160a01b0381168114610096578182fd5b9392505050565b614cbb80620000ad6000396000f3fe60806040523480156200001157600080fd5b5060043610620000a05760003560e01c80636d7508ad116200006f5780636d7508ad14620001105780637eb5a6881462000136578063856788df14620001405780638da5cb5b146200014a578063ee892ddc146200015457620000a0565b8063037ad4dd14620000a55780632455c02614620000be5780633607329d14620000d55780634cdbdb6d14620000f7575b600080fd5b620000bc620000b636600462001357565b6200016b565b005b620000bc620000cf36600462001237565b6200067c565b620000df62000813565b604051620000ee919062001b30565b60405180910390f35b62000101620008ac565b604051620000ee919062001acc565b620001276200012136600462001237565b62000e24565b604051620000ee919062001795565b6200012762000e3f565b6200012762000e4e565b6200012762000e5d565b620000df6200016536600462001275565b62000e6c565b600260009054906101000a90046001600160a01b03166001600160a01b031663893d20e86040518163ffffffff1660e01b815260040160206040518083038186803b158015620001ba57600080fd5b505afa158015620001cf573d6000803e3d6000fd5b505050506040513d601f19601f82011682018060405250810190620001f5919062001256565b6001600160a01b0316336001600160a01b031614620002315760405162461bcd60e51b8152600401620002289062001b67565b60405180910390fd5b6020810151604051635010ecc560e01b815273__Validations___________________________91635010ecc59162000271919060039060040162001940565b60206040518083038186803b1580156200028a57600080fd5b505af41580156200029f573d6000803e3d6000fd5b505050506040513d601f19601f82011682018060405250810190620002c5919062001335565b620002e45760405162461bcd60e51b8152600401620002289062001bdd565b60025460208201516040516340fd3f3960e01b81526001600160a01b03909216916340fd3f3991620003199160040162001795565b60206040518083038186803b1580156200033257600080fd5b505afa15801562000347573d6000803e3d6000fd5b505050506040513d601f19601f820116820180604052508101906200036d919062001335565b6200038c5760405162461bcd60e51b8152600401620002289062001bad565b60025460405182916001600160a01b031690620003a99062000f05565b620003b692919062001c5a565b604051809103906000f080158015620003d3573d6000803e3d6000fd5b50602082810180516001600160a01b0390811660009081526004909352604090922080546001600160a01b031916939092169290921790555162000417906200067c565b6020808201516001600160a01b0390811660009081526004928390526040808220548151634df073e760e11b815291516003959190941693639be0e7ce9383830193909290829003018186803b1580156200047157600080fd5b505afa15801562000486573d6000803e3d6000fd5b505050506040513d6000823e601f3d908101601f19168201604052620004b091908101906200138e565b81546001818101845560009384526020938490208351600c9093020180546001600160a01b039384166001600160a01b03199182161782558585015192820180549390941692169190911790915560408201518051929391926200051b926002850192019062000f13565b50606082015180516200053991600384019160209091019062000f13565b50608082015180516200055791600484019160209091019062000f13565b5060a082015180516200057591600584019160209091019062000f13565b5060c082015180516200059391600684019160209091019062000f13565b5060e08201518051620005b191600784019160209091019062000f13565b506101008201518051620005d091600884019160209091019062000f13565b506101208201518051620005ef91600984019160209091019062000f13565b50610140820151600a820180546001600160a01b0319166001600160a01b0392831617905561016090920151600b9091015560608201516020808401518316600090815260049091526040908190205490517f35671b86a8a0b2b88538732ff30f9073d71b6400e3e4fe564003bc8220b8a11793620006719392169062001b3b565b60405180910390a150565b6002546040516340fd3f3960e01b81526001600160a01b03909116906340fd3f3990620006ae90849060040162001795565b60206040518083038186803b158015620006c757600080fd5b505afa158015620006dc573d6000803e3d6000fd5b505050506040513d601f19601f8201168201806040525081019062000702919062001335565b620007215760405162461bcd60e51b8152600401620002289062001c2d565b600254604051630d098a3b60e01b81526000916001600160a01b031690630d098a3b906200075490859060040162001795565b60206040518083038186803b1580156200076d57600080fd5b505afa15801562000782573d6000803e3d6000fd5b505050506040513d601f19601f82011682018060405250810190620007a891906200155e565b600254604051634de2626760e01b81529192506001600160a01b031690634de2626790620007db90849060040162001c6f565b600060405180830381600087803b158015620007f657600080fd5b505af11580156200080b573d6000803e3d6000fd5b505050505050565b604051635010ecc560e01b815260009073__Validations___________________________90635010ecc5906200085290339060039060040162001940565b60206040518083038186803b1580156200086b57600080fd5b505af415801562000880573d6000803e3d6000fd5b505050506040513d601f19601f82011682018060405250810190620008a6919062001335565b15905090565b60606003805480602002602001604051908101604052809291908181526020016000905b8282101562000e1b5760008481526020908190206040805161018081018252600c860290920180546001600160a01b03908116845260018201541693830193909352600283018054929392918401916200092a9062001d1b565b80601f0160208091040260200160405190810160405280929190818152602001828054620009589062001d1b565b8015620009a95780601f106200097d57610100808354040283529160200191620009a9565b820191906000526020600020905b8154815290600101906020018083116200098b57829003601f168201915b50505050508152602001600382018054620009c49062001d1b565b80601f0160208091040260200160405190810160405280929190818152602001828054620009f29062001d1b565b801562000a435780601f1062000a175761010080835404028352916020019162000a43565b820191906000526020600020905b81548152906001019060200180831162000a2557829003601f168201915b5050505050815260200160048201805462000a5e9062001d1b565b80601f016020809104026020016040519081016040528092919081815260200182805462000a8c9062001d1b565b801562000add5780601f1062000ab15761010080835404028352916020019162000add565b820191906000526020600020905b81548152906001019060200180831162000abf57829003601f168201915b5050505050815260200160058201805462000af89062001d1b565b80601f016020809104026020016040519081016040528092919081815260200182805462000b269062001d1b565b801562000b775780601f1062000b4b5761010080835404028352916020019162000b77565b820191906000526020600020905b81548152906001019060200180831162000b5957829003601f168201915b5050505050815260200160068201805462000b929062001d1b565b80601f016020809104026020016040519081016040528092919081815260200182805462000bc09062001d1b565b801562000c115780601f1062000be55761010080835404028352916020019162000c11565b820191906000526020600020905b81548152906001019060200180831162000bf357829003601f168201915b5050505050815260200160078201805462000c2c9062001d1b565b80601f016020809104026020016040519081016040528092919081815260200182805462000c5a9062001d1b565b801562000cab5780601f1062000c7f5761010080835404028352916020019162000cab565b820191906000526020600020905b81548152906001019060200180831162000c8d57829003601f168201915b5050505050815260200160088201805462000cc69062001d1b565b80601f016020809104026020016040519081016040528092919081815260200182805462000cf49062001d1b565b801562000d455780601f1062000d195761010080835404028352916020019162000d45565b820191906000526020600020905b81548152906001019060200180831162000d2757829003601f168201915b5050505050815260200160098201805462000d609062001d1b565b80601f016020809104026020016040519081016040528092919081815260200182805462000d8e9062001d1b565b801562000ddf5780601f1062000db35761010080835404028352916020019162000ddf565b820191906000526020600020905b81548152906001019060200180831162000dc157829003601f168201915b5050509183525050600a8201546001600160a01b0316602080830191909152600b909201546040909101529082526001929092019101620008d0565b50505050905090565b6004602052600090815260409020546001600160a01b031681565b6002546001600160a01b031681565b6001546001600160a01b031681565b6000546001600160a01b031681565b604051631c7ab85d60e21b815260009073__Validations___________________________906371eae1749062000eaa9086908690600401620017a9565b60206040518083038186803b15801562000ec357600080fd5b505af415801562000ed8573d6000803e3d6000fd5b505050506040513d601f19601f8201168201806040525081019062000efe919062001335565b9392505050565b612efe8062001d8883390190565b82805462000f219062001d1b565b90600052602060002090601f01602090048101928262000f45576000855562000f90565b82601f1062000f6057805160ff191683800117855562000f90565b8280016001018555821562000f90579182015b8281111562000f9057825182559160200191906001019062000f73565b5062000f9e92915062000fa2565b5090565b5b8082111562000f9e576000815560010162000fa3565b803562000fc68162001d6e565b919050565b805162000fc68162001d6e565b600082601f83011262000fe9578081fd5b81356200100062000ffa8262001ca5565b62001c78565b81815284602083860101111562001015578283fd5b816020850160208301379081016020019190915292915050565b600082601f83011262001040578081fd5b81516200105162000ffa8262001ca5565b81815284602083860101111562001066578283fd5b6200107982602083016020870162001ce8565b949350505050565b600061018080838503121562001095578182fd5b620010a08162001c78565b915050620010ae8262000fb9565b8152620010be6020830162000fb9565b6020820152604082013567ffffffffffffffff80821115620010df57600080fd5b620010ed8583860162000fd8565b604084015260608401359150808211156200110757600080fd5b620011158583860162000fd8565b606084015260808401359150808211156200112f57600080fd5b6200113d8583860162000fd8565b608084015260a08401359150808211156200115757600080fd5b620011658583860162000fd8565b60a084015260c08401359150808211156200117f57600080fd5b6200118d8583860162000fd8565b60c084015260e0840135915080821115620011a757600080fd5b620011b58583860162000fd8565b60e084015261010091508184013581811115620011d157600080fd5b620011df8682870162000fd8565b838501525061012091508184013581811115620011fb57600080fd5b620012098682870162000fd8565b838501525050506101406200122081840162000fb9565b818301525061016080830135818301525092915050565b60006020828403121562001249578081fd5b813562000efe8162001d6e565b60006020828403121562001268578081fd5b815162000efe8162001d6e565b6000806040838503121562001288578081fd5b8235620012958162001d6e565b915060208381013567ffffffffffffffff80821115620012b3578384fd5b818601915086601f830112620012c7578384fd5b813581811115620012dc57620012dc62001d58565b620012eb848583020162001c78565b8181528481019250838501865b838110156200132557620013128b88843589010162001081565b85529386019390860190600101620012f8565b5096999098509650505050505050565b60006020828403121562001347578081fd5b8151801515811462000efe578182fd5b60006020828403121562001369578081fd5b813567ffffffffffffffff81111562001380578182fd5b620010798482850162001081565b600060208284031215620013a0578081fd5b815167ffffffffffffffff80821115620013b8578283fd5b8184019150610180808387031215620013cf578384fd5b620013da8162001c78565b9050620013e78362000fcb565b8152620013f76020840162000fcb565b60208201526040830151828111156200140e578485fd5b6200141c878286016200102f565b60408301525060608301518281111562001434578485fd5b62001442878286016200102f565b6060830152506080830151828111156200145a578485fd5b62001468878286016200102f565b60808301525060a08301518281111562001480578485fd5b6200148e878286016200102f565b60a08301525060c083015182811115620014a6578485fd5b620014b4878286016200102f565b60c08301525060e083015182811115620014cc578485fd5b620014da878286016200102f565b60e0830152506101008084015183811115620014f4578586fd5b62001502888287016200102f565b82840152505061012080840151838111156200151c578586fd5b6200152a888287016200102f565b82840152505061014091506200154282840162000fcb565b9181019190915261016091820151918101919091529392505050565b60006020828403121562001570578081fd5b5051919050565b6001600160a01b03169052565b600081518084526200159e81602086016020860162001ce8565b601f01601f19169290920160200192915050565b805460009060028104600180831680620015cd57607f831692505b6020808410821415620015ee57634e487b7160e01b86526022600452602486fd5b620015fa848962001c6f565b828015620016115760018114620016235762001652565b60ff1987168252828201975062001652565b6200162e8962001cd0565b60005b878110156200164c5781548482015290860190840162001631565b83019850505b5050505050505092915050565b60006101806200167184845162001577565b602083015162001685602086018262001577565b5060408301518160408601526200169f8286018262001584565b91505060608301518482036060860152620016bb828262001584565b91505060808301518482036080860152620016d7828262001584565b91505060a083015184820360a0860152620016f3828262001584565b91505060c083015184820360c08601526200170f828262001584565b91505060e083015184820360e08601526200172b828262001584565b915050610100808401518583038287015262001748838262001584565b92505050610120808401518583038287015262001766838262001584565b92505050610140808401516200177f8287018262001577565b5050610160928301519390920192909252919050565b6001600160a01b0391909116815260200190565b6001600160a01b0383168152604060208083018290528351838301819052600092916060918286019080830287018401888401875b838110156200193057605f198a840301855281516101806200180285835162001577565b87820151620018148987018262001577565b5089820151818b8701526200182c8287018262001584565b915050888201518582038a87015262001846828262001584565b9150506080808301518683038288015262001862838262001584565b9250505060a080830151868303828801526200187f838262001584565b9250505060c080830151868303828801526200189c838262001584565b9250505060e08083015186830382880152620018b9838262001584565b925050506101008083015186830382880152620018d7838262001584565b925050506101208083015186830382880152620018f5838262001584565b92505050610140808301516200190e8288018262001577565b50506101609182015194909101939093529385019390850190600101620017de565b50909a9950505050505050505050565b6000604080830160018060a01b03861684526020828186015281865480845260609350838701915083838202880101888752838720875b838110156200193057605f198a8403018552610180620019a3846200199d855462001cdc565b62001577565b620019b2600184015462001cdc565b620019c08886018262001577565b508089850152620019d781850160028501620015b2565b905083810388850152620019ef8160038501620015b2565b9050838103608085015262001a088160048501620015b2565b905083810360a085015262001a218160058501620015b2565b905083810360c085015262001a3a8160068501620015b2565b905083810360e085015262001a538160078501620015b2565b905083810361010085015262001a6d8160088501620015b2565b905083810361012085015262001a878160098501620015b2565b905062001a98600a84015462001cdc565b62001aa861014086018262001577565b50600b830154610160949094019390935293850193600c9091019060010162001977565b6000602080830181845280855180835260408601915060408482028701019250838701855b8281101562001b2357603f1988860301845262001b108583516200165f565b9450928501929085019060010162001af1565b5092979650505050505050565b901515815260200190565b60006040825262001b50604083018562001584565b905060018060a01b03831660208301529392505050565b60208082526026908201527f4e6f207469656e65207065726d69736f73207061726120637265617220636f6e604082015265747261746f7360d01b606082015260800190565b602080825260169082015275139bc8195e1a5cdd19481b18481cdbdb1a58da5d1d5960521b604082015260600190565b60208082526030908201527f556e6120646972656363696f6e206e6f2070756564652074656e6572206d617360408201526f103232903ab71033b2b732b930b237b960811b606082015260800190565b602080825260139082015272139bc8195e1a5cdd19481cdbdb1a58da5d1d59606a1b604082015260600190565b60006040825262001b5060408301856200165f565b90815260200190565b60405181810167ffffffffffffffff8111828210171562001c9d5762001c9d62001d58565b604052919050565b600067ffffffffffffffff82111562001cc25762001cc262001d58565b50601f01601f191660200190565b60009081526020902090565b6001600160a01b031690565b60005b8381101562001d0557818101518382015260200162001ceb565b8381111562001d15576000848401525b50505050565b60028104600182168062001d3057607f821691505b6020821081141562001d5257634e487b7160e01b600052602260045260246000fd5b50919050565b634e487b7160e01b600052604160045260246000fd5b6001600160a01b038116811462001d8457600080fd5b5056fe6080604052600d80546001600160a01b03191690553480156200002157600080fd5b5060405162002efe38038062002efe8339810160408190526200004491620003d6565b600080546001600160a01b038084166001600160a01b0319928316179092556040805161018081018252308082526020878101518616818401819052888501519484018590526060808a0151908501526080808a01519085015260a0808a01519085015260c0808a01519085015260e0808a0151908501526101008981015190850152610120808a015190850152600d54909616610140840152610160808901519084015260018054861690921782556002805490951690951790935581519093620001169260039291019062000274565b50606082015180516200013491600384019160209091019062000274565b50608082015180516200015291600484019160209091019062000274565b5060a082015180516200017091600584019160209091019062000274565b5060c082015180516200018e91600684019160209091019062000274565b5060e08201518051620001ac91600784019160209091019062000274565b506101008201518051620001cb91600884019160209091019062000274565b506101208201518051620001ea91600984019160209091019062000274565b50610140820151600a820180546001600160a01b0319166001600160a01b0390921691909117905561016090910151600b909101556040516200022d9062000303565b604051809103906000f0801580156200024a573d6000803e3d6000fd5b50600e80546001600160a01b0319166001600160a01b039290921691909117905550620006379050565b8280546200028290620005e4565b90600052602060002090601f016020900481019282620002a65760008555620002f1565b82601f10620002c157805160ff1916838001178555620002f1565b82800160010185558215620002f1579182015b82811115620002f1578251825591602001919060010190620002d4565b50620002ff92915062000311565b5090565b6114048062001afa83390190565b5b80821115620002ff576000815560010162000312565b80516001600160a01b03811681146200034057600080fd5b919050565b600082601f83011262000356578081fd5b81516001600160401b0381111562000372576200037262000621565b602062000388601f8301601f19168201620005b8565b82815285828487010111156200039c578384fd5b835b83811015620003bb5785810183015182820184015282016200039e565b83811115620003cc57848385840101525b5095945050505050565b60008060408385031215620003e9578182fd5b82516001600160401b038082111562000400578384fd5b818501915061018080838803121562000417578485fd5b6200042281620005b8565b90506200042f8362000328565b81526200043f6020840162000328565b602082015260408301518281111562000456578586fd5b620004648882860162000345565b6040830152506060830151828111156200047c578586fd5b6200048a8882860162000345565b606083015250608083015182811115620004a2578586fd5b620004b08882860162000345565b60808301525060a083015182811115620004c8578586fd5b620004d68882860162000345565b60a08301525060c083015182811115620004ee578586fd5b620004fc8882860162000345565b60c08301525060e08301518281111562000514578586fd5b620005228882860162000345565b60e08301525061010080840151838111156200053c578687fd5b6200054a8982870162000345565b828401525050610120808401518381111562000564578687fd5b620005728982870162000345565b82840152505061014091506200058a82840162000328565b8282015261016091508183015182820152809450505050620005af6020840162000328565b90509250929050565b6040518181016001600160401b0381118282101715620005dc57620005dc62000621565b604052919050565b600281046001821680620005f957607f821691505b602082108114156200061b57634e487b7160e01b600052602260045260246000fd5b50919050565b634e487b7160e01b600052604160045260246000fd5b6114b380620006476000396000f3fe608060405234801561001057600080fd5b506004361061009e5760003560e01c80639be0e7ce116100665780639be0e7ce14610104578063a3a6883e14610119578063cfa5784914610139578063e33f34a01461014c578063fcbe8eb1146101545761009e565b8063158e62a3146100a3578063551edf90146100cc5780635a3e349d146100d45780637eb5a688146100e957806395965bda146100f1575b600080fd5b6100b66100b1366004610f0c565b610167565b6040516100c39190611050565b60405180910390f35b6100b6610199565b6100e76100e2366004610f47565b6101a8565b005b6100b66102a5565b6100e76100ff366004610ecd565b6102b4565b61010c6103f1565b6040516100c39190611240565b61012c610127366004610f0c565b6108d6565b6040516100c3919061137f565b6100e7610147366004610fa2565b61096f565b61012c610d2c565b6100b6610162366004610ecd565b610db2565b6000600f826040516101799190611034565b908152604051908190036020019020546001600160a01b03169050919050565b600d546001600160a01b031681565b60025433906001600160a01b031681146101dd5760405162461bcd60e51b81526004016101d4906111a5565b60405180910390fd5b600e5460405163259e757760e01b81526001600160a01b039091169063259e75779061020f90869086906004016110a2565b602060405180830381600087803b15801561022957600080fd5b505af115801561023d573d6000803e3d6000fd5b505050506040513d601f19601f820116820180604052508101906102619190610ef0565b600f846040516102719190611034565b90815260405190819003602001902080546001600160a01b03929092166001600160a01b0319909216919091179055505050565b6000546001600160a01b031681565b60025433906001600160a01b031681146102e05760405162461bcd60e51b81526004016101d4906111a5565b6000826001600160a01b031663013643fd6040518163ffffffff1660e01b815260040160206040518083038186803b15801561031b57600080fd5b505afa15801561032f573d6000803e3d6000fd5b505050506040513d601f19601f820116820180604052508101906103539190610f8a565b905080156103735760405162461bcd60e51b81526004016101d4906110c4565b600b80546001600160a01b0319166001600160a01b038581169182179092556002546040516314dd7ae360e21b81529192635375eb8c926103ba9233921690600401611064565b600060405180830381600087803b1580156103d457600080fd5b505af11580156103e8573d6000803e3d6000fd5b50505050505050565b6103f9610dd0565b6040805161018081018252600180546001600160a01b03908116835260025416602083015260038054929391929184019161043390611414565b80601f016020809104026020016040519081016040528092919081815260200182805461045f90611414565b80156104ac5780601f10610481576101008083540402835291602001916104ac565b820191906000526020600020905b81548152906001019060200180831161048f57829003601f168201915b505050505081526020016003820180546104c590611414565b80601f01602080910402602001604051908101604052809291908181526020018280546104f190611414565b801561053e5780601f106105135761010080835404028352916020019161053e565b820191906000526020600020905b81548152906001019060200180831161052157829003601f168201915b5050505050815260200160048201805461055790611414565b80601f016020809104026020016040519081016040528092919081815260200182805461058390611414565b80156105d05780601f106105a5576101008083540402835291602001916105d0565b820191906000526020600020905b8154815290600101906020018083116105b357829003601f168201915b505050505081526020016005820180546105e990611414565b80601f016020809104026020016040519081016040528092919081815260200182805461061590611414565b80156106625780601f1061063757610100808354040283529160200191610662565b820191906000526020600020905b81548152906001019060200180831161064557829003601f168201915b5050505050815260200160068201805461067b90611414565b80601f01602080910402602001604051908101604052809291908181526020018280546106a790611414565b80156106f45780601f106106c9576101008083540402835291602001916106f4565b820191906000526020600020905b8154815290600101906020018083116106d757829003601f168201915b5050505050815260200160078201805461070d90611414565b80601f016020809104026020016040519081016040528092919081815260200182805461073990611414565b80156107865780601f1061075b57610100808354040283529160200191610786565b820191906000526020600020905b81548152906001019060200180831161076957829003601f168201915b5050505050815260200160088201805461079f90611414565b80601f01602080910402602001604051908101604052809291908181526020018280546107cb90611414565b80156108185780601f106107ed57610100808354040283529160200191610818565b820191906000526020600020905b8154815290600101906020018083116107fb57829003601f168201915b5050505050815260200160098201805461083190611414565b80601f016020809104026020016040519081016040528092919081815260200182805461085d90611414565b80156108aa5780601f1061087f576101008083540402835291602001916108aa565b820191906000526020600020905b81548152906001019060200180831161088d57829003601f168201915b5050509183525050600a8201546001600160a01b03166020820152600b90910154604090910152905090565b6000600f826040516108e89190611034565b90815260408051602092819003830181205462137c1760eb1b825291516001600160a01b0390921692639be0b80092600480840193829003018186803b15801561093157600080fd5b505afa158015610945573d6000803e3d6000fd5b505050506040513d601f19601f820116820180604052508101906109699190610f8a565b92915050565b6000600f836040516109819190611034565b90815260405190819003602001902054600d546001600160a01b039182169250168114156109c15760405162461bcd60e51b81526004016101d490611148565b6000600f846040516109d39190611034565b90815260408051602092819003830181205462137c1760eb1b825291516001600160a01b0390921692639be0b80092600480840193829003018186803b158015610a1c57600080fd5b505afa158015610a30573d6000803e3d6000fd5b505050506040513d601f19601f82011682018060405250810190610a549190610f8a565b905084811015610a765760405162461bcd60e51b81526004016101d4906111f3565b6000600f85604051610a889190611034565b908152604080516020928190038301812054633deb12bd60e21b825291516001600160a01b039092169263f7ac4af492600480840193829003018186803b158015610ad257600080fd5b505afa158015610ae6573d6000803e3d6000fd5b505050506040513d601f19601f82011682018060405250810190610b0a9190610f8a565b610b1490876113b9565b600054604051630e03c03b60e01b81529192506001600160a01b031690630e03c03b90610b45908790600401611050565b60206040518083038186803b158015610b5d57600080fd5b505afa158015610b71573d6000803e3d6000fd5b505050506040513d601f19601f82011682018060405250810190610b959190610f8a565b811115610bb45760405162461bcd60e51b81526004016101d490611111565b60005460025460405163013e8a2560e41b81526001600160a01b03928316926313e8a25092610bed92899290911690869060040161107e565b600060405180830381600087803b158015610c0757600080fd5b505af1158015610c1b573d6000803e3d6000fd5b50505050600f85604051610c2f9190611034565b9081526040519081900360200181205463b0b6d16160e01b82526001600160a01b03169063b0b6d16190610c6790899060040161137f565b600060405180830381600087803b158015610c8157600080fd5b505af1158015610c95573d6000803e3d6000fd5b50505050600f85604051610ca99190611034565b908152604080519182900360209081018320546001600160a01b03888116600090815260109093529290912080546001600160a01b031916929091169190911790557f63a6215c2d4b06bd0b74656dbfc6eb1fc9aa6029fbb18ebb4243d524217c672a90610d1c90889088908890611388565b60405180910390a1505050505050565b60008054604051630e03c03b60e01b81526001600160a01b0390911690630e03c03b90610d5d903390600401611050565b60206040518083038186803b158015610d7557600080fd5b505afa158015610d89573d6000803e3d6000fd5b505050506040513d601f19601f82011682018060405250810190610dad9190610f8a565b905090565b6001600160a01b039081166000908152601060205260409020541690565b60405180610180016040528060006001600160a01b0316815260200160006001600160a01b03168152602001606081526020016060815260200160608152602001606081526020016060815260200160608152602001606081526020016060815260200160006001600160a01b03168152602001600081525090565b600082601f830112610e5c578081fd5b813567ffffffffffffffff80821115610e7757610e7761144f565b604051601f8301601f191681016020018281118282101715610e9b57610e9b61144f565b604052828152848301602001861015610eb2578384fd5b82602086016020830137918201602001929092529392505050565b600060208284031215610ede578081fd5b8135610ee981611465565b9392505050565b600060208284031215610f01578081fd5b8151610ee981611465565b600060208284031215610f1d578081fd5b813567ffffffffffffffff811115610f33578182fd5b610f3f84828501610e4c565b949350505050565b60008060408385031215610f59578081fd5b823567ffffffffffffffff811115610f6f578182fd5b610f7b85828601610e4c565b95602094909401359450505050565b600060208284031215610f9b578081fd5b5051919050565b600080600060608486031215610fb6578081fd5b83359250602084013567ffffffffffffffff811115610fd3578182fd5b610fdf86828701610e4c565b9250506040840135610ff081611465565b809150509250925092565b6001600160a01b03169052565b600081518084526110208160208601602086016113e4565b601f01601f19169290920160200192915050565b600082516110468184602087016113e4565b9190910192915050565b6001600160a01b0391909116815260200190565b6001600160a01b0392831681529116602082015260400190565b6001600160a01b039384168152919092166020820152604081019190915260600190565b6000604082526110b56040830185611008565b90508260208301529392505050565b6020808252602d908201527f456c20636f6d65726369616c697a61646f72206465626520736572206465207460408201526c34b8379023b2b732b930b237b960991b606082015260800190565b6020808252601c908201527f4e6f207469656e657320746f6b656e7320737566696369656e74657300000000604082015260600190565b60208082526037908201527f456c207469706f20646520656e65726769612c206e6f20736520656e6375656e60408201527f7472612064656e74726f2064656c20636174616c6f676f000000000000000000606082015260800190565b6020808252602e908201527f4e6f207469656e65207065726d69736f73207061726120656a6563757461722060408201526d3630903a3930b739b0b1b1b4b7b760911b606082015260800190565b6020808252602d908201527f4e6f20707565646520636f6d70726172206d617320656e65726769612064652060408201526c6c6120646973706f6e69626c6560981b606082015260800190565b600060208252611254602083018451610ffb565b60208301516112666040840182610ffb565b5060408301516101808060608501526112836101a0850183611008565b91506060850151601f19808685030160808701526112a18483611008565b935060808701519150808685030160a08701526112be8483611008565b935060a08701519150808685030160c08701526112db8483611008565b935060c08701519150808685030160e08701526112f88483611008565b935060e087015191506101008187860301818801526113178584611008565b9450808801519250506101208187860301818801526113368584611008565b9450808801519250506101408187860301818801526113558584611008565b9450808801519250505061016061136e81870183610ffb565b959095015193019290925250919050565b90815260200190565b6000848252606060208301526113a16060830185611008565b905060018060a01b0383166040830152949350505050565b60008160001904831182151516156113df57634e487b7160e01b81526011600452602481fd5b500290565b60005b838110156113ff5781810151838201526020016113e7565b8381111561140e576000848401525b50505050565b60028104600182168061142857607f821691505b6020821081141561144957634e487b7160e01b600052602260045260246000fd5b50919050565b634e487b7160e01b600052604160045260246000fd5b6001600160a01b038116811461147a57600080fd5b5056fea26469706673582212203aadb06981e35eb0773c4f598082f562ab66015e89d45e555a99c9e3862b84f964736f6c63430008000033600560c09081526439b7b630b960d91b60e0526080908152610140604052600661010090815265656f6c69636160d01b6101205260a052610044906000906002610057565b5034801561005157600080fd5b506101e0565b8280548282559060005260206000209081019282156100a4579160200282015b828111156100a457825180516100949184916020909101906100b4565b5091602001919060010190610077565b506100b0929150610134565b5090565b8280546100c0906101a5565b90600052602060002090601f0160209004810192826100e25760008555610128565b82601f106100fb57805160ff1916838001178555610128565b82800160010185558215610128579182015b8281111561012857825182559160200191906001019061010d565b506100b0929150610151565b808211156100b05760006101488282610166565b50600101610134565b5b808211156100b05760008155600101610152565b508054610172906101a5565b6000825580601f1061018457506101a2565b601f0160209004906000526020600020908101906101a29190610151565b50565b6002810460018216806101b957607f821691505b602082108114156101da57634e487b7160e01b600052602260045260246000fd5b50919050565b611215806101ef6000396000f3fe608060405234801561001057600080fd5b50600436106100365760003560e01c8063259e75771461003b5780636d4fe5c714610064575b600080fd5b61004e610049366004610338565b610084565b60405161005b9190610473565b60405180910390f35b6100776100723660046103df565b61024b565b60405161005b9190610487565b6040516388d8da5f60e01b81526000908190819073__StringLibrary_________________________906388d8da5f906100c290889060040161049a565b60206040518083038186803b1580156100da57600080fd5b505af41580156100ee573d6000803e3d6000fd5b505050506040513d601f19601f820116820180604052508101906101129190610311565b156101565783604051610124906102f7565b61012e9190610562565b604051809103906000f08015801561014a573d6000803e3d6000fd5b5091506001905061021d565b6040516388d8da5f60e01b815273__StringLibrary_________________________906388d8da5f9061018d9088906004016104c6565b60206040518083038186803b1580156101a557600080fd5b505af41580156101b9573d6000803e3d6000fd5b505050506040513d601f19601f820116820180604052508101906101dd9190610311565b1561021d57836040516101ef90610304565b6101f99190610582565b604051809103906000f080158015610215573d6000803e3d6000fd5b509150600190505b806102435760405162461bcd60e51b815260040161023a906104ea565b60405180910390fd5b509392505050565b6000818154811061025b57600080fd5b90600052602060002001600091509050805461027690610594565b80601f01602080910402602001604051908101604052809291908181526020018280546102a290610594565b80156102ef5780601f106102c4576101008083540402835291602001916102ef565b820191906000526020600020905b8154815290600101906020018083116102d257829003601f168201915b505050505081565b6105fd806105e683390190565b6105fd80610be383390190565b600060208284031215610322578081fd5b81518015158114610331578182fd5b9392505050565b6000806040838503121561034a578081fd5b823567ffffffffffffffff80821115610361578283fd5b818501915085601f830112610374578283fd5b8135602082821115610388576103886105cf565b604051601f8301601f19168101820184811182821017156103ab576103ab6105cf565b60405282815284830182018910156103c1578586fd5b82828601838301379182018101949094529694909201359450505050565b6000602082840312156103f0578081fd5b5035919050565b60008151808452815b8181101561041c57602081850181015186830182015201610400565b8181111561042d5782602083870101525b50601f01601f19169290920160200192915050565b600581526439b7b630b960d91b602082015260400190565b6006815265656f6c69636160d01b602082015260400190565b6001600160a01b0391909116815260200190565b60006020825261033160208301846103f7565b6000604082526104ad60408301846103f7565b82810360208401526104be81610442565b949350505050565b6000604082526104d960408301846103f7565b82810360208401526104be8161045a565b60208082526052908201527f4e6f20657320756e207469706f20646520656e65726769612076616c69646f2c60408201527f206c6f73207469706f732076616c69646f7320736f6e3a20736f6c61722c20656060820152716f6c696361206f206869647261756c69636160701b608082015260a00190565b60006040825261057460408301610442565b905082602083015292915050565b6000604082526105746040830161045a565b6002810460018216806105a857607f821691505b602082108114156105c957634e487b7160e01b600052602260045260246000fd5b50919050565b634e487b7160e01b600052604160045260246000fdfe608060405234801561001057600080fd5b506040516105fd3803806105fd83398101604081905261002f916100e5565b815161004290600090602085019061004c565b5060025550610200565b828054610058906101af565b90600052602060002090601f01602090048101928261007a57600085556100c0565b82601f1061009357805160ff19168380011785556100c0565b828001600101855582156100c0579182015b828111156100c05782518255916020019190600101906100a5565b506100cc9291506100d0565b5090565b5b808211156100cc57600081556001016100d1565b600080604083850312156100f7578182fd5b82516001600160401b038082111561010d578384fd5b818501915085601f830112610120578384fd5b815181811115610132576101326101ea565b6040516020601f8301601f1916820181018481118382101715610157576101576101ea565b604052828252848301810189101561016d578687fd5b8693505b8284101561018e5784840181015182850182015292830192610171565b8284111561019e57868184840101525b969096015195979596505050505050565b6002810460018216806101c357607f821691505b602082108114156101e457634e487b7160e01b600052602260045260246000fd5b50919050565b634e487b7160e01b600052604160045260246000fd5b6103ee8061020f6000396000f3fe608060405234801561001057600080fd5b50600436106100885760003560e01c8063bc7b35b21161005b578063bc7b35b2146100d0578063cb86d6e6146100e5578063f5a50589146100ed578063f7ac4af41461010057610088565b80639be0b8001461008d5780639e66e0f3146100ab578063ae4f7a4c146100b3578063b0b6d161146100bb575b600080fd5b610095610108565b6040516100a2919061032f565b60405180910390f35b61009561010e565b610095610114565b6100ce6100c93660046102c4565b61011a565b005b6100d8610131565b6040516100a291906102dc565b6100d86101bf565b6100ce6100fb3660046102c4565b610251565b610095610261565b60025490565b60015481565b60025481565b60025460009061012a9083610266565b6002555050565b6000805461013e90610367565b80601f016020809104026020016040519081016040528092919081815260200182805461016a90610367565b80156101b75780601f1061018c576101008083540402835291602001916101b7565b820191906000526020600020905b81548152906001019060200180831161019a57829003601f168201915b505050505081565b6060600080546101ce90610367565b80601f01602080910402602001604051908101604052809291908181526020018280546101fa90610367565b80156102475780601f1061021c57610100808354040283529160200191610247565b820191906000526020600020905b81548152906001019060200180831161022a57829003601f168201915b5050505050905090565b60025460009061012a9083610297565b600390565b60008282111561028657634e487b7160e01b600052600160045260246000fd5b6102908284610350565b9392505050565b6000806102a48385610338565b90508381101561029057634e487b7160e01b600052600160045260246000fd5b6000602082840312156102d5578081fd5b5035919050565b6000602080835283518082850152825b81811015610308578581018301518582016040015282016102ec565b818111156103195783604083870101525b50601f01601f1916929092016040019392505050565b90815260200190565b6000821982111561034b5761034b6103a2565b500190565b600082821015610362576103626103a2565b500390565b60028104600182168061037b57607f821691505b6020821081141561039c57634e487b7160e01b600052602260045260246000fd5b50919050565b634e487b7160e01b600052601160045260246000fdfea2646970667358221220522a642ffda458c3b6d2087ad5c6ffbde8123f97b9141f11c750a44dcb8cc2db64736f6c63430008000033608060405234801561001057600080fd5b506040516105fd3803806105fd83398101604081905261002f916100e5565b815161004290600090602085019061004c565b5060025550610200565b828054610058906101af565b90600052602060002090601f01602090048101928261007a57600085556100c0565b82601f1061009357805160ff19168380011785556100c0565b828001600101855582156100c0579182015b828111156100c05782518255916020019190600101906100a5565b506100cc9291506100d0565b5090565b5b808211156100cc57600081556001016100d1565b600080604083850312156100f7578182fd5b82516001600160401b038082111561010d578384fd5b818501915085601f830112610120578384fd5b815181811115610132576101326101ea565b6040516020601f8301601f1916820181018481118382101715610157576101576101ea565b604052828252848301810189101561016d578687fd5b8693505b8284101561018e5784840181015182850182015292830192610171565b8284111561019e57868184840101525b969096015195979596505050505050565b6002810460018216806101c357607f821691505b602082108114156101e457634e487b7160e01b600052602260045260246000fd5b50919050565b634e487b7160e01b600052604160045260246000fd5b6103ee8061020f6000396000f3fe608060405234801561001057600080fd5b50600436106100885760003560e01c8063bc7b35b21161005b578063bc7b35b2146100d0578063cb86d6e6146100e5578063f5a50589146100ed578063f7ac4af41461010057610088565b80639be0b8001461008d5780639e66e0f3146100ab578063ae4f7a4c146100b3578063b0b6d161146100bb575b600080fd5b610095610108565b6040516100a2919061032f565b60405180910390f35b61009561010e565b610095610114565b6100ce6100c93660046102c4565b61011a565b005b6100d8610131565b6040516100a291906102dc565b6100d86101bf565b6100ce6100fb3660046102c4565b610251565b610095610261565b60025490565b60015481565b60025481565b60025460009061012a9083610266565b6002555050565b6000805461013e90610367565b80601f016020809104026020016040519081016040528092919081815260200182805461016a90610367565b80156101b75780601f1061018c576101008083540402835291602001916101b7565b820191906000526020600020905b81548152906001019060200180831161019a57829003601f168201915b505050505081565b6060600080546101ce90610367565b80601f01602080910402602001604051908101604052809291908181526020018280546101fa90610367565b80156102475780601f1061021c57610100808354040283529160200191610247565b820191906000526020600020905b81548152906001019060200180831161022a57829003601f168201915b5050505050905090565b60025460009061012a9083610297565b600290565b60008282111561028657634e487b7160e01b600052600160045260246000fd5b6102908284610350565b9392505050565b6000806102a48385610338565b90508381101561029057634e487b7160e01b600052600160045260246000fd5b6000602082840312156102d5578081fd5b5035919050565b6000602080835283518082850152825b81811015610308578581018301518582016040015282016102ec565b818111156103195783604083870101525b50601f01601f1916929092016040019392505050565b90815260200190565b6000821982111561034b5761034b6103a2565b500190565b600082821015610362576103626103a2565b500390565b60028104600182168061037b57607f821691505b6020821081141561039c57634e487b7160e01b600052602260045260246000fd5b50919050565b634e487b7160e01b600052601160045260246000fdfea2646970667358221220ae17df97da482874c997dd27f5d737eb79494328e54686bdd4271c62b1375a6364736f6c63430008000033a2646970667358221220d99a428a72c6953f8d33181f6c65fc8baf03cd230ccf39605b8b02aaaf9de8de64736f6c63430008000033a26469706673582212207ccdc08cdc3026a0953f0585a95e9d694607ab269ab208ca131214216a41afdc64736f6c63430008000033",
  "immutableReferences": {},
  "source": "// SPDX-License-Identifier: MIT\r\npragma solidity ^0.8.0;\r\npragma experimental ABIEncoderV2;\r\nimport \"./models/InfoContrato.sol\";\r\nimport \"./models/Factory.sol\";\r\nimport \"./libraries/Validations.sol\";\r\nimport \"./Generador.sol\";\r\n\r\ncontract MvmGeneradorFactory is Factory {\r\n    mapping(address => address) public DirContratosGeneradores;\r\n\r\n    constructor(address _reguladorMercado) {\r\n        owner = msg.sender;\r\n        dirContrato = address(this);\r\n        reguladorMercado = _reguladorMercado;\r\n    }\r\n\r\n    function FactoryContrato(InfoContrato memory _infoContrato)\r\n        public\r\n        override\r\n        canCreate\r\n    {\r\n        require(\r\n            Validations.aproveCreation(_infoContrato.owner, contratosOwners),\r\n            \"Una direccion no puede tener mas de un generador\"\r\n        );\r\n        require(\r\n            ReguladorMercado(reguladorMercado).existeSolicitud(\r\n                _infoContrato.owner\r\n            ),\r\n            \"No existe la solicitud\"\r\n        );\r\n        DirContratosGeneradores[_infoContrato.owner] = address(\r\n            new Generador(_infoContrato, reguladorMercado)\r\n        );\r\n        diligenciarContratoRegulador(_infoContrato.owner);\r\n        contratosOwners.push(\r\n            Generador(DirContratosGeneradores[_infoContrato.owner]).getInfoContrato()\r\n        );\r\n\r\n        emit Creacion(\r\n            _infoContrato.empresa,\r\n            DirContratosGeneradores[_infoContrato.owner]\r\n        );\r\n    }\r\n\r\n    function existeGenerador(\r\n        address contractDir,\r\n        InfoContrato[] memory arrayContracts\r\n    ) public pure returns (bool) {\r\n        return Validations.existsContract(contractDir, arrayContracts);\r\n    }\r\n}\r\n",
  "sourcePath": "D:\\Santiago\\BlockChain\\DemoMvmTruffle\\contracts\\MvmGeneradorFactory.sol",
  "compiler": {
    "name": "solc",
    "version": "0.8.0+commit.c7dfd78e.Emscripten.clang"
  },
  "schemaVersion": "3.4.4",
  "updatedAt": "2022-07-11T15:50:46.193Z",
  "networkType": "ethereum",
  "devdoc": {
    "kind": "dev",
    "methods": {},
    "version": 1
  },
  "userdoc": {
    "kind": "user",
    "methods": {},
    "version": 1
  }
}