{
  "contractName": "MvmGeneradorFactory",
  "abi": [
    {
      "inputs": [
        {
          "internalType": "address",
          "name": "_reguladorMercado",
          "type": "address"
        },
        {
          "internalType": "address",
          "name": "_bancoEnergia",
          "type": "address"
        }
      ],
      "stateMutability": "nonpayable",
      "type": "constructor"
    },
    {
      "anonymous": false,
      "inputs": [
        {
          "indexed": false,
          "internalType": "string",
          "name": "",
          "type": "string"
        },
        {
          "indexed": false,
          "internalType": "address",
          "name": "",
          "type": "address"
        }
      ],
      "name": "Creacion",
      "type": "event"
    },
    {
      "inputs": [
        {
          "internalType": "address",
          "name": "",
          "type": "address"
        }
      ],
      "name": "DirContratosGeneradores",
      "outputs": [
        {
          "internalType": "address",
          "name": "",
          "type": "address"
        }
      ],
      "stateMutability": "view",
      "type": "function",
      "constant": true
    },
    {
      "inputs": [
        {
          "internalType": "address",
          "name": "dir",
          "type": "address"
        },
        {
          "components": [
            {
              "internalType": "address",
              "name": "dirContrato",
              "type": "address"
            },
            {
              "internalType": "address",
              "name": "owner",
              "type": "address"
            },
            {
              "internalType": "string",
              "name": "nit",
              "type": "string"
            },
            {
              "internalType": "string",
              "name": "empresa",
              "type": "string"
            },
            {
              "internalType": "string",
              "name": "contacto",
              "type": "string"
            },
            {
              "internalType": "string",
              "name": "telefono",
              "type": "string"
            },
            {
              "internalType": "string",
              "name": "correo",
              "type": "string"
            },
            {
              "internalType": "string",
              "name": "departamento",
              "type": "string"
            },
            {
              "internalType": "string",
              "name": "ciudad",
              "type": "string"
            },
            {
              "internalType": "string",
              "name": "direccion",
              "type": "string"
            },
            {
              "internalType": "address",
              "name": "comercializador",
              "type": "address"
            },
            {
              "internalType": "uint256",
              "name": "tipoComercio",
              "type": "uint256"
            }
          ],
          "internalType": "struct InfoContrato",
          "name": "infoContrato",
          "type": "tuple"
        }
      ],
      "name": "diligenciarContratoRegulador",
      "outputs": [],
      "stateMutability": "nonpayable",
      "type": "function"
    },
    {
      "inputs": [],
      "name": "dirContrato",
      "outputs": [
        {
          "internalType": "address",
          "name": "",
          "type": "address"
        }
      ],
      "stateMutability": "view",
      "type": "function",
      "constant": true
    },
    {
      "inputs": [],
      "name": "direccionRegistrada",
      "outputs": [
        {
          "internalType": "bool",
          "name": "",
          "type": "bool"
        }
      ],
      "stateMutability": "view",
      "type": "function",
      "constant": true
    },
    {
      "inputs": [],
      "name": "getContratosOwners",
      "outputs": [
        {
          "components": [
            {
              "internalType": "address",
              "name": "dirContrato",
              "type": "address"
            },
            {
              "internalType": "address",
              "name": "owner",
              "type": "address"
            },
            {
              "internalType": "string",
              "name": "nit",
              "type": "string"
            },
            {
              "internalType": "string",
              "name": "empresa",
              "type": "string"
            },
            {
              "internalType": "string",
              "name": "contacto",
              "type": "string"
            },
            {
              "internalType": "string",
              "name": "telefono",
              "type": "string"
            },
            {
              "internalType": "string",
              "name": "correo",
              "type": "string"
            },
            {
              "internalType": "string",
              "name": "departamento",
              "type": "string"
            },
            {
              "internalType": "string",
              "name": "ciudad",
              "type": "string"
            },
            {
              "internalType": "string",
              "name": "direccion",
              "type": "string"
            },
            {
              "internalType": "address",
              "name": "comercializador",
              "type": "address"
            },
            {
              "internalType": "uint256",
              "name": "tipoComercio",
              "type": "uint256"
            }
          ],
          "internalType": "struct InfoContrato[]",
          "name": "",
          "type": "tuple[]"
        }
      ],
      "stateMutability": "view",
      "type": "function",
      "constant": true
    },
    {
      "inputs": [],
      "name": "owner",
      "outputs": [
        {
          "internalType": "address",
          "name": "",
          "type": "address"
        }
      ],
      "stateMutability": "view",
      "type": "function",
      "constant": true
    },
    {
      "inputs": [],
      "name": "reguladorMercado",
      "outputs": [
        {
          "internalType": "address",
          "name": "",
          "type": "address"
        }
      ],
      "stateMutability": "view",
      "type": "function",
      "constant": true
    },
    {
      "inputs": [
        {
          "components": [
            {
              "internalType": "address",
              "name": "dirContrato",
              "type": "address"
            },
            {
              "internalType": "address",
              "name": "owner",
              "type": "address"
            },
            {
              "internalType": "string",
              "name": "nit",
              "type": "string"
            },
            {
              "internalType": "string",
              "name": "empresa",
              "type": "string"
            },
            {
              "internalType": "string",
              "name": "contacto",
              "type": "string"
            },
            {
              "internalType": "string",
              "name": "telefono",
              "type": "string"
            },
            {
              "internalType": "string",
              "name": "correo",
              "type": "string"
            },
            {
              "internalType": "string",
              "name": "departamento",
              "type": "string"
            },
            {
              "internalType": "string",
              "name": "ciudad",
              "type": "string"
            },
            {
              "internalType": "string",
              "name": "direccion",
              "type": "string"
            },
            {
              "internalType": "address",
              "name": "comercializador",
              "type": "address"
            },
            {
              "internalType": "uint256",
              "name": "tipoComercio",
              "type": "uint256"
            }
          ],
          "internalType": "struct InfoContrato",
          "name": "_infoContrato",
          "type": "tuple"
        }
      ],
      "name": "FactoryContrato",
      "outputs": [],
      "stateMutability": "nonpayable",
      "type": "function"
    },
    {
      "inputs": [
        {
          "internalType": "address",
          "name": "contractDir",
          "type": "address"
        },
        {
          "components": [
            {
              "internalType": "address",
              "name": "dirContrato",
              "type": "address"
            },
            {
              "internalType": "address",
              "name": "owner",
              "type": "address"
            },
            {
              "internalType": "string",
              "name": "nit",
              "type": "string"
            },
            {
              "internalType": "string",
              "name": "empresa",
              "type": "string"
            },
            {
              "internalType": "string",
              "name": "contacto",
              "type": "string"
            },
            {
              "internalType": "string",
              "name": "telefono",
              "type": "string"
            },
            {
              "internalType": "string",
              "name": "correo",
              "type": "string"
            },
            {
              "internalType": "string",
              "name": "departamento",
              "type": "string"
            },
            {
              "internalType": "string",
              "name": "ciudad",
              "type": "string"
            },
            {
              "internalType": "string",
              "name": "direccion",
              "type": "string"
            },
            {
              "internalType": "address",
              "name": "comercializador",
              "type": "address"
            },
            {
              "internalType": "uint256",
              "name": "tipoComercio",
              "type": "uint256"
            }
          ],
          "internalType": "struct InfoContrato[]",
          "name": "arrayContracts",
          "type": "tuple[]"
        }
      ],
      "name": "existeGenerador",
      "outputs": [
        {
          "internalType": "bool",
          "name": "",
          "type": "bool"
        }
      ],
      "stateMutability": "pure",
      "type": "function",
      "constant": true
    }
  ],
  "bytecode": "0x60806040523480156200001157600080fd5b506040516200525738038062005257833981016040819052620000349162000098565b600080546001600160a01b0319908116331790915560018054821630179055600280546001600160a01b0394851690831617905560048054929093169116179055620000cf565b80516001600160a01b03811681146200009357600080fd5b919050565b60008060408385031215620000ab578182fd5b620000b6836200007b565b9150620000c6602084016200007b565b90509250929050565b61517880620000df6000396000f3fe60806040523480156200001157600080fd5b50600436106200008e5760003560e01c8063037ad4dd14620000935780633607329d14620000ac57806347ec8b0e14620000ce5780634cdbdb6d14620000e55780636d7508ad14620000fe5780637eb5a6881462000124578063856788df146200012e5780638da5cb5b1462000138578063ee892ddc1462000142575b600080fd5b620000aa620000a4366004620013d2565b62000159565b005b620000b6620006a3565b604051620000c5919062001ba9565b60405180910390f35b620000aa620000df3660046200135d565b6200073c565b620000ef620008d6565b604051620000c5919062001b45565b620001156200010f36600462001260565b62000e4e565b604051620000c591906200180e565b6200011562000e69565b6200011562000e78565b6200011562000e87565b620000b6620001533660046200129e565b62000e96565b600260009054906101000a90046001600160a01b03166001600160a01b031663893d20e86040518163ffffffff1660e01b815260040160206040518083038186803b158015620001a857600080fd5b505afa158015620001bd573d6000803e3d6000fd5b505050506040513d601f19601f82011682018060405250810190620001e391906200127f565b6001600160a01b0316336001600160a01b0316146200021f5760405162461bcd60e51b8152600401620002169062001be0565b60405180910390fd5b6020810151604051635010ecc560e01b815273__Validations___________________________91635010ecc5916200025f9190600390600401620019b9565b60206040518083038186803b1580156200027857600080fd5b505af41580156200028d573d6000803e3d6000fd5b505050506040513d601f19601f82011682018060405250810190620002b39190620013b0565b620002d25760405162461bcd60e51b8152600401620002169062001c56565b60025460208201516040516340fd3f3960e01b81526001600160a01b03909216916340fd3f399162000307916004016200180e565b60206040518083038186803b1580156200032057600080fd5b505afa15801562000335573d6000803e3d6000fd5b505050506040513d601f19601f820116820180604052508101906200035b9190620013b0565b6200037a5760405162461bcd60e51b8152600401620002169062001c26565b6020808201516001600160a01b0390811660009081526005909252604091829020548116835260025460045492518493918316929190911690620003be9062000f2f565b620003cc9392919062001cd3565b604051809103906000f080158015620003e9573d6000803e3d6000fd5b50602082810180516001600160a01b0390811660009081526005909352604080842080546001600160a01b0319169583169590951790945581518116835292909120549091168252516200043e90826200073c565b6020808201516001600160a01b03908116600090815260059092526040808320548151634df073e760e11b815291516003949190931692639be0e7ce926004808201939291829003018186803b1580156200049857600080fd5b505afa158015620004ad573d6000803e3d6000fd5b505050506040513d6000823e601f3d908101601f19168201604052620004d7919081019062001408565b81546001818101845560009384526020938490208351600c9093020180546001600160a01b039384166001600160a01b031991821617825585850151928201805493909416921691909117909155604082015180519293919262000542926002850192019062000f3d565b50606082015180516200056091600384019160209091019062000f3d565b50608082015180516200057e91600484019160209091019062000f3d565b5060a082015180516200059c91600584019160209091019062000f3d565b5060c08201518051620005ba91600684019160209091019062000f3d565b5060e08201518051620005d891600784019160209091019062000f3d565b506101008201518051620005f791600884019160209091019062000f3d565b5061012082015180516200061691600984019160209091019062000f3d565b50610140820151600a820180546001600160a01b0319166001600160a01b0392831617905561016090920151600b9091015560608201516020808401518316600090815260059091526040908190205490517f35671b86a8a0b2b88538732ff30f9073d71b6400e3e4fe564003bc8220b8a11793620006989392169062001bb4565b60405180910390a150565b604051635010ecc560e01b815260009073__Validations___________________________90635010ecc590620006e2903390600390600401620019b9565b60206040518083038186803b158015620006fb57600080fd5b505af415801562000710573d6000803e3d6000fd5b505050506040513d601f19601f82011682018060405250810190620007369190620013b0565b15905090565b6002546040516340fd3f3960e01b81526001600160a01b03909116906340fd3f39906200076e9085906004016200180e565b60206040518083038186803b1580156200078757600080fd5b505afa1580156200079c573d6000803e3d6000fd5b505050506040513d601f19601f82011682018060405250810190620007c29190620013b0565b620007e15760405162461bcd60e51b8152600401620002169062001ca6565b600254604051630d098a3b60e01b81526000916001600160a01b031690630d098a3b90620008149086906004016200180e565b60206040518083038186803b1580156200082d57600080fd5b505afa15801562000842573d6000803e3d6000fd5b505050506040513d601f19601f82011682018060405250810190620008689190620015d7565b600254604051635911164960e11b81529192506001600160a01b03169063b2222c92906200089d908490869060040162001d08565b600060405180830381600087803b158015620008b857600080fd5b505af1158015620008cd573d6000803e3d6000fd5b50505050505050565b60606003805480602002602001604051908101604052809291908181526020016000905b8282101562000e455760008481526020908190206040805161018081018252600c860290920180546001600160a01b0390811684526001820154169383019390935260028301805492939291840191620009549062001dcd565b80601f0160208091040260200160405190810160405280929190818152602001828054620009829062001dcd565b8015620009d35780601f10620009a757610100808354040283529160200191620009d3565b820191906000526020600020905b815481529060010190602001808311620009b557829003601f168201915b50505050508152602001600382018054620009ee9062001dcd565b80601f016020809104026020016040519081016040528092919081815260200182805462000a1c9062001dcd565b801562000a6d5780601f1062000a415761010080835404028352916020019162000a6d565b820191906000526020600020905b81548152906001019060200180831162000a4f57829003601f168201915b5050505050815260200160048201805462000a889062001dcd565b80601f016020809104026020016040519081016040528092919081815260200182805462000ab69062001dcd565b801562000b075780601f1062000adb5761010080835404028352916020019162000b07565b820191906000526020600020905b81548152906001019060200180831162000ae957829003601f168201915b5050505050815260200160058201805462000b229062001dcd565b80601f016020809104026020016040519081016040528092919081815260200182805462000b509062001dcd565b801562000ba15780601f1062000b755761010080835404028352916020019162000ba1565b820191906000526020600020905b81548152906001019060200180831162000b8357829003601f168201915b5050505050815260200160068201805462000bbc9062001dcd565b80601f016020809104026020016040519081016040528092919081815260200182805462000bea9062001dcd565b801562000c3b5780601f1062000c0f5761010080835404028352916020019162000c3b565b820191906000526020600020905b81548152906001019060200180831162000c1d57829003601f168201915b5050505050815260200160078201805462000c569062001dcd565b80601f016020809104026020016040519081016040528092919081815260200182805462000c849062001dcd565b801562000cd55780601f1062000ca95761010080835404028352916020019162000cd5565b820191906000526020600020905b81548152906001019060200180831162000cb757829003601f168201915b5050505050815260200160088201805462000cf09062001dcd565b80601f016020809104026020016040519081016040528092919081815260200182805462000d1e9062001dcd565b801562000d6f5780601f1062000d435761010080835404028352916020019162000d6f565b820191906000526020600020905b81548152906001019060200180831162000d5157829003601f168201915b5050505050815260200160098201805462000d8a9062001dcd565b80601f016020809104026020016040519081016040528092919081815260200182805462000db89062001dcd565b801562000e095780601f1062000ddd5761010080835404028352916020019162000e09565b820191906000526020600020905b81548152906001019060200180831162000deb57829003601f168201915b5050509183525050600a8201546001600160a01b0316602080830191909152600b909201546040909101529082526001929092019101620008fa565b50505050905090565b6005602052600090815260409020546001600160a01b031681565b6002546001600160a01b031681565b6001546001600160a01b031681565b6000546001600160a01b031681565b604051631c7ab85d60e21b815260009073__Validations___________________________906371eae1749062000ed4908690869060040162001822565b60206040518083038186803b15801562000eed57600080fd5b505af415801562000f02573d6000803e3d6000fd5b505050506040513d601f19601f8201168201806040525081019062000f289190620013b0565b9392505050565b6133098062001e3a83390190565b82805462000f4b9062001dcd565b90600052602060002090601f01602090048101928262000f6f576000855562000fba565b82601f1062000f8a57805160ff191683800117855562000fba565b8280016001018555821562000fba579182015b8281111562000fba57825182559160200191906001019062000f9d565b5062000fc892915062000fcc565b5090565b5b8082111562000fc8576000815560010162000fcd565b803562000ff08162001e20565b919050565b805162000ff08162001e20565b600082601f83011262001013578081fd5b81356200102a620010248262001d4f565b62001d23565b8181528460208386010111156200103f578283fd5b816020850160208301379081016020019190915292915050565b600082601f8301126200106a578081fd5b81516200107b620010248262001d4f565b81815284602083860101111562001090578283fd5b620010a382602083016020870162001d9a565b949350505050565b6000610180808385031215620010bf578182fd5b620010ca8162001d23565b915050620010d88262000fe3565b8152620010e86020830162000fe3565b602082015260408201356001600160401b03808211156200110857600080fd5b620011168583860162001002565b604084015260608401359150808211156200113057600080fd5b6200113e8583860162001002565b606084015260808401359150808211156200115857600080fd5b620011668583860162001002565b608084015260a08401359150808211156200118057600080fd5b6200118e8583860162001002565b60a084015260c0840135915080821115620011a857600080fd5b620011b68583860162001002565b60c084015260e0840135915080821115620011d057600080fd5b620011de8583860162001002565b60e084015261010091508184013581811115620011fa57600080fd5b620012088682870162001002565b8385015250610120915081840135818111156200122457600080fd5b620012328682870162001002565b838501525050506101406200124981840162000fe3565b818301525061016080830135818301525092915050565b60006020828403121562001272578081fd5b813562000f288162001e20565b60006020828403121562001291578081fd5b815162000f288162001e20565b60008060408385031215620012b1578081fd5b8235620012be8162001e20565b91506020838101356001600160401b0380821115620012db578384fd5b818601915086601f830112620012ef578384fd5b81358181111562001304576200130462001e0a565b62001313848583020162001d23565b8181528481019250838501865b838110156200134d576200133a8b888435890101620010ab565b8552938601939086019060010162001320565b5096999098509650505050505050565b6000806040838503121562001370578182fd5b82356200137d8162001e20565b915060208301356001600160401b0381111562001398578182fd5b620013a685828601620010ab565b9150509250929050565b600060208284031215620013c2578081fd5b8151801515811462000f28578182fd5b600060208284031215620013e4578081fd5b81356001600160401b03811115620013fa578182fd5b620010a384828501620010ab565b6000602082840312156200141a578081fd5b81516001600160401b038082111562001431578283fd5b818401915061018080838703121562001448578384fd5b620014538162001d23565b9050620014608362000ff5565b8152620014706020840162000ff5565b602082015260408301518281111562001487578485fd5b620014958782860162001059565b604083015250606083015182811115620014ad578485fd5b620014bb8782860162001059565b606083015250608083015182811115620014d3578485fd5b620014e18782860162001059565b60808301525060a083015182811115620014f9578485fd5b620015078782860162001059565b60a08301525060c0830151828111156200151f578485fd5b6200152d8782860162001059565b60c08301525060e08301518281111562001545578485fd5b620015538782860162001059565b60e08301525061010080840151838111156200156d578586fd5b6200157b8882870162001059565b828401525050610120808401518381111562001595578586fd5b620015a38882870162001059565b8284015250506101409150620015bb82840162000ff5565b9181019190915261016091820151918101919091529392505050565b600060208284031215620015e9578081fd5b5051919050565b6001600160a01b03169052565b600081518084526200161781602086016020860162001d9a565b601f01601f19169290920160200192915050565b8054600090600281046001808316806200164657607f831692505b60208084108214156200166757634e487b7160e01b86526022600452602486fd5b62001673848962001d85565b8280156200168a57600181146200169c57620016cb565b60ff19871682528282019750620016cb565b620016a78962001d79565b60005b87811015620016c557815484820152908601908401620016aa565b83019850505b5050505050505092915050565b6000610180620016ea848451620015f0565b6020830151620016fe6020860182620015f0565b5060408301518160408601526200171882860182620015fd565b91505060608301518482036060860152620017348282620015fd565b91505060808301518482036080860152620017508282620015fd565b91505060a083015184820360a08601526200176c8282620015fd565b91505060c083015184820360c0860152620017888282620015fd565b91505060e083015184820360e0860152620017a48282620015fd565b9150506101008084015185830382870152620017c18382620015fd565b925050506101208084015185830382870152620017df8382620015fd565b9250505061014080840151620017f882870182620015f0565b5050610160928301519390920192909252919050565b6001600160a01b0391909116815260200190565b6001600160a01b0383168152604060208083018290528351838301819052600092916060918286019080830287018401888401875b83811015620019a957605f198a840301855281516101806200187b858351620015f0565b878201516200188d89870182620015f0565b5089820151818b870152620018a582870182620015fd565b915050888201518582038a870152620018bf8282620015fd565b91505060808083015186830382880152620018db8382620015fd565b9250505060a08083015186830382880152620018f88382620015fd565b9250505060c08083015186830382880152620019158382620015fd565b9250505060e08083015186830382880152620019328382620015fd565b925050506101008083015186830382880152620019508382620015fd565b9250505061012080830151868303828801526200196e8382620015fd565b92505050610140808301516200198782880182620015f0565b5050610160918201519490910193909352938501939085019060010162001857565b50909a9950505050505050505050565b6000604080830160018060a01b03861684526020828186015281865480845260609350838701915083838202880101888752838720875b83811015620019a957605f198a840301855261018062001a1c8462001a16855462001d8e565b620015f0565b62001a2b600184015462001d8e565b62001a3988860182620015f0565b50808985015262001a50818501600285016200162b565b90508381038885015262001a6881600385016200162b565b9050838103608085015262001a8181600485016200162b565b905083810360a085015262001a9a81600585016200162b565b905083810360c085015262001ab381600685016200162b565b905083810360e085015262001acc81600785016200162b565b905083810361010085015262001ae681600885016200162b565b905083810361012085015262001b0081600985016200162b565b905062001b11600a84015462001d8e565b62001b21610140860182620015f0565b50600b830154610160949094019390935293850193600c90910190600101620019f0565b6000602080830181845280855180835260408601915060408482028701019250838701855b8281101562001b9c57603f1988860301845262001b89858351620016d8565b9450928501929085019060010162001b6a565b5092979650505050505050565b901515815260200190565b60006040825262001bc96040830185620015fd565b905060018060a01b03831660208301529392505050565b60208082526026908201527f4e6f207469656e65207065726d69736f73207061726120637265617220636f6e604082015265747261746f7360d01b606082015260800190565b602080825260169082015275139bc8195e1a5cdd19481b18481cdbdb1a58da5d1d5960521b604082015260600190565b60208082526030908201527f556e6120646972656363696f6e206e6f2070756564652074656e6572206d617360408201526f103232903ab71033b2b732b930b237b960811b606082015260800190565b602080825260139082015272139bc8195e1a5cdd19481cdbdb1a58da5d1d59606a1b604082015260600190565b60006060825262001ce86060830186620016d8565b6001600160a01b0394851660208401529290931660409091015292915050565b600083825260406020830152620010a36040830184620016d8565b6040518181016001600160401b038111828210171562001d475762001d4762001e0a565b604052919050565b60006001600160401b0382111562001d6b5762001d6b62001e0a565b50601f01601f191660200190565b60009081526020902090565b90815260200190565b6001600160a01b031690565b60005b8381101562001db757818101518382015260200162001d9d565b8381111562001dc7576000848401525b50505050565b60028104600182168062001de257607f821691505b6020821081141562001e0457634e487b7160e01b600052602260045260246000fd5b50919050565b634e487b7160e01b600052604160045260246000fd5b6001600160a01b038116811462001e3657600080fd5b5056fe6080604052600d80546001600160a01b03191690553480156200002157600080fd5b5060405162003309380380620033098339810160408190526200004491620003e5565b600080546001600160a01b038085166001600160a01b0319928316179092556040805161018081018252308082526020888101518616818401819052898501519484018590526060808b0151908501526080808b01519085015260a0808b01519085015260c0808b01519085015260e0808b0151908501526101008a81015190850152610120808b015190850152600d54909616610140840152610160808a01519084015260018054861690921782556002805490951690951790935581519093620001169260039291019062000283565b50606082015180516200013491600384019160209091019062000283565b50608082015180516200015291600484019160209091019062000283565b5060a082015180516200017091600584019160209091019062000283565b5060c082015180516200018e91600684019160209091019062000283565b5060e08201518051620001ac91600784019160209091019062000283565b506101008201518051620001cb91600884019160209091019062000283565b506101208201518051620001ea91600984019160209091019062000283565b50610140820151600a820180546001600160a01b0319166001600160a01b0390921691909117905561016090910151600b909101556040516200022d9062000312565b604051809103906000f0801580156200024a573d6000803e3d6000fd5b50600e80546001600160a01b039283166001600160a01b031991821617909155600f805493909216921691909117905550620006589050565b828054620002919062000605565b90600052602060002090601f016020900481019282620002b5576000855562000300565b82601f10620002d057805160ff191683800117855562000300565b8280016001018555821562000300579182015b8281111562000300578251825591602001919060010190620002e3565b506200030e92915062000320565b5090565b6113e38062001f2683390190565b5b808211156200030e576000815560010162000321565b80516001600160a01b03811681146200034f57600080fd5b919050565b600082601f83011262000365578081fd5b81516001600160401b0381111562000381576200038162000642565b602062000397601f8301601f19168201620005d9565b8281528582848701011115620003ab578384fd5b835b83811015620003ca578581018301518282018401528201620003ad565b83811115620003db57848385840101525b5095945050505050565b600080600060608486031215620003fa578283fd5b83516001600160401b038082111562000411578485fd5b818601915061018080838903121562000428578586fd5b6200043381620005d9565b9050620004408362000337565b8152620004506020840162000337565b602082015260408301518281111562000467578687fd5b620004758982860162000354565b6040830152506060830151828111156200048d578687fd5b6200049b8982860162000354565b606083015250608083015182811115620004b3578687fd5b620004c18982860162000354565b60808301525060a083015182811115620004d9578687fd5b620004e78982860162000354565b60a08301525060c083015182811115620004ff578687fd5b6200050d8982860162000354565b60c08301525060e08301518281111562000525578687fd5b620005338982860162000354565b60e08301525061010080840151838111156200054d578788fd5b6200055b8a82870162000354565b828401525050610120808401518381111562000575578788fd5b620005838a82870162000354565b82840152505061014091506200059b82840162000337565b8282015261016091508183015182820152809550505050620005c06020850162000337565b9150620005d06040850162000337565b90509250925092565b6040518181016001600160401b0381118282101715620005fd57620005fd62000642565b604052919050565b6002810460018216806200061a57607f821691505b602082108114156200063c57634e487b7160e01b600052602260045260246000fd5b50919050565b634e487b7160e01b600052604160045260246000fd5b6118be80620006686000396000f3fe608060405234801561001057600080fd5b50600436106100995760003560e01c8063158e62a31461009e578063551edf90146100c75780635a3e349d146100cf5780636a7165c0146100e45780637eb5a688146100f757806395965bda146100ff5780639be0e7ce14610112578063a3a6883e14610127578063cfa5784914610147578063e33f34a01461015a578063fcbe8eb114610162575b600080fd5b6100b16100ac3660046110cb565b610175565b6040516100be91906112ad565b60405180910390f35b6100b16101a7565b6100e26100dd366004611105565b6101b6565b005b6100e26100f2366004611105565b61030b565b6100b1610438565b6100e261010d36600461108c565b610447565b61011a610548565b6040516100be91906114ff565b61013a6101353660046110cb565b610a2d565b6040516100be9190611772565b6100e261015536600461115f565b610ac6565b61013a610eec565b6100b161017036600461108c565b610f72565b60006010826040516101879190611291565b908152604051908190036020019020546001600160a01b03169050919050565b600d546001600160a01b031681565b60025433906001600160a01b031681146101eb5760405162461bcd60e51b81526004016101e29061142e565b60405180910390fd5b600e5460405163259e757760e01b81526001600160a01b039091169063259e75779061021d90869086906004016112eb565b602060405180830381600087803b15801561023757600080fd5b505af115801561024b573d6000803e3d6000fd5b505050506040513d601f19601f8201168201806040525081019061026f91906110af565b60108460405161027f9190611291565b90815260405190819003602001812080546001600160a01b039384166001600160a01b0319909116179055600f5463017759f360e41b8252909116906317759f30906102d4908690869060009060040161130d565b600060405180830381600087803b1580156102ee57600080fd5b505af1158015610302573d6000803e3d6000fd5b50505050505050565b60025433906001600160a01b031681146103375760405162461bcd60e51b81526004016101e29061142e565b60006001600160a01b03166010846040516103529190611291565b908152604051908190036020019020546001600160a01b031614156103895760405162461bcd60e51b81526004016101e2906114c9565b6010836040516103999190611291565b9081526040519081900360200181205463f5a5058960e01b82526001600160a01b03169063f5a50589906103d1908590600401611772565b600060405180830381600087803b1580156103eb57600080fd5b505af11580156103ff573d6000803e3d6000fd5b5050600f5460405163017759f360e41b81526001600160a01b0390911692506317759f3091506102d4908690869060009060040161130d565b6000546001600160a01b031681565b60025433906001600160a01b031681146104735760405162461bcd60e51b81526004016101e29061142e565b6000826001600160a01b031663013643fd6040518163ffffffff1660e01b815260040160206040518083038186803b1580156104ae57600080fd5b505afa1580156104c2573d6000803e3d6000fd5b505050506040513d601f19601f820116820180604052508101906104e69190611147565b9050806001146105085760405162461bcd60e51b81526004016101e290611354565b600b80546001600160a01b0319166001600160a01b03851690811790915560405163632855e760e11b815263c650abce906102d49060019060040161163e565b610550610f90565b6040805161018081018252600180546001600160a01b03908116835260025416602083015260038054929391929184019161058a9061181f565b80601f01602080910402602001604051908101604052809291908181526020018280546105b69061181f565b80156106035780601f106105d857610100808354040283529160200191610603565b820191906000526020600020905b8154815290600101906020018083116105e657829003601f168201915b5050505050815260200160038201805461061c9061181f565b80601f01602080910402602001604051908101604052809291908181526020018280546106489061181f565b80156106955780601f1061066a57610100808354040283529160200191610695565b820191906000526020600020905b81548152906001019060200180831161067857829003601f168201915b505050505081526020016004820180546106ae9061181f565b80601f01602080910402602001604051908101604052809291908181526020018280546106da9061181f565b80156107275780601f106106fc57610100808354040283529160200191610727565b820191906000526020600020905b81548152906001019060200180831161070a57829003601f168201915b505050505081526020016005820180546107409061181f565b80601f016020809104026020016040519081016040528092919081815260200182805461076c9061181f565b80156107b95780601f1061078e576101008083540402835291602001916107b9565b820191906000526020600020905b81548152906001019060200180831161079c57829003601f168201915b505050505081526020016006820180546107d29061181f565b80601f01602080910402602001604051908101604052809291908181526020018280546107fe9061181f565b801561084b5780601f106108205761010080835404028352916020019161084b565b820191906000526020600020905b81548152906001019060200180831161082e57829003601f168201915b505050505081526020016007820180546108649061181f565b80601f01602080910402602001604051908101604052809291908181526020018280546108909061181f565b80156108dd5780601f106108b2576101008083540402835291602001916108dd565b820191906000526020600020905b8154815290600101906020018083116108c057829003601f168201915b505050505081526020016008820180546108f69061181f565b80601f01602080910402602001604051908101604052809291908181526020018280546109229061181f565b801561096f5780601f106109445761010080835404028352916020019161096f565b820191906000526020600020905b81548152906001019060200180831161095257829003601f168201915b505050505081526020016009820180546109889061181f565b80601f01602080910402602001604051908101604052809291908181526020018280546109b49061181f565b8015610a015780601f106109d657610100808354040283529160200191610a01565b820191906000526020600020905b8154815290600101906020018083116109e457829003601f168201915b5050509183525050600a8201546001600160a01b03166020820152600b90910154604090910152905090565b6000601082604051610a3f9190611291565b90815260408051602092819003830181205462137c1760eb1b825291516001600160a01b0390921692639be0b80092600480840193829003018186803b158015610a8857600080fd5b505afa158015610a9c573d6000803e3d6000fd5b505050506040513d601f19601f82011682018060405250810190610ac09190611147565b92915050565b6000601083604051610ad89190611291565b90815260405190819003602001902054600d546001600160a01b03918216925016811415610b185760405162461bcd60e51b81526004016101e2906113d7565b6000601084604051610b2a9190611291565b90815260408051602092819003830181205462137c1760eb1b825291516001600160a01b0390921692639be0b80092600480840193829003018186803b158015610b7357600080fd5b505afa158015610b87573d6000803e3d6000fd5b505050506040513d601f19601f82011682018060405250810190610bab9190611147565b905084811015610bcd5760405162461bcd60e51b81526004016101e29061147c565b6000601085604051610bdf9190611291565b908152604080516020928190038301812054633deb12bd60e21b825291516001600160a01b039092169263f7ac4af492600480840193829003018186803b158015610c2957600080fd5b505afa158015610c3d573d6000803e3d6000fd5b505050506040513d601f19601f82011682018060405250810190610c619190611147565b610c6b90876117b8565b600054604051630e03c03b60e01b81529192506001600160a01b031690630e03c03b90610c9c9087906004016112ad565b60206040518083038186803b158015610cb457600080fd5b505afa158015610cc8573d6000803e3d6000fd5b505050506040513d601f19601f82011682018060405250810190610cec9190611147565b811115610d0b5760405162461bcd60e51b81526004016101e2906113a1565b600054600254604051630573b68b60e31b81526001600160a01b0392831692632b9db45892610d4692899290911690339087906004016112c1565b600060405180830381600087803b158015610d6057600080fd5b505af1158015610d74573d6000803e3d6000fd5b50505050601085604051610d889190611291565b9081526040519081900360200181205463b0b6d16160e01b82526001600160a01b03169063b0b6d16190610dc0908990600401611772565b600060405180830381600087803b158015610dda57600080fd5b505af1158015610dee573d6000803e3d6000fd5b5050600f5460405163017759f360e41b81526001600160a01b0390911692506317759f309150610e279088908a9060019060040161130d565b600060405180830381600087803b158015610e4157600080fd5b505af1158015610e55573d6000803e3d6000fd5b50505050601085604051610e699190611291565b908152604080519182900360209081018320546001600160a01b03888116600090815260119093529290912080546001600160a01b031916929091169190911790557f63a6215c2d4b06bd0b74656dbfc6eb1fc9aa6029fbb18ebb4243d524217c672a90610edc9088908890889061177b565b60405180910390a1505050505050565b60008054604051630e03c03b60e01b81526001600160a01b0390911690630e03c03b90610f1d9033906004016112ad565b60206040518083038186803b158015610f3557600080fd5b505afa158015610f49573d6000803e3d6000fd5b505050506040513d601f19601f82011682018060405250810190610f6d9190611147565b905090565b6001600160a01b039081166000908152601160205260409020541690565b60405180610180016040528060006001600160a01b0316815260200160006001600160a01b03168152602001606081526020016060815260200160608152602001606081526020016060815260200160608152602001606081526020016060815260200160006001600160a01b03168152602001600081525090565b600082601f83011261101c578081fd5b81356001600160401b03808211156110365761103661185a565b604051601f8301601f19168101602001828111828210171561105a5761105a61185a565b604052828152848301602001861015611071578384fd5b82602086016020830137918201602001929092529392505050565b60006020828403121561109d578081fd5b81356110a881611870565b9392505050565b6000602082840312156110c0578081fd5b81516110a881611870565b6000602082840312156110dc578081fd5b81356001600160401b038111156110f1578182fd5b6110fd8482850161100c565b949350505050565b60008060408385031215611117578081fd5b82356001600160401b0381111561112c578182fd5b6111388582860161100c565b95602094909401359450505050565b600060208284031215611158578081fd5b5051919050565b600080600060608486031215611173578081fd5b8335925060208401356001600160401b0381111561118f578182fd5b61119b8682870161100c565b92505060408401356111ac81611870565b809150509250925092565b6001600160a01b03169052565b600081518084526111dc8160208601602086016117ef565b601f01601f19169290920160200192915050565b80546000906002810460018083168061120a57607f831692505b602080841082141561122a57634e487b7160e01b86526022600452602486fd5b6112348489611772565b828015611248576001811461125957611284565b60ff19871682528282019750611284565b611262896117ac565b60005b8781101561127e57815484820152908601908401611265565b83019850505b5050505050505092915050565b600082516112a38184602087016117ef565b9190910192915050565b6001600160a01b0391909116815260200190565b6001600160a01b039485168152928416602084015292166040820152606081019190915260800190565b6000604082526112fe60408301856111c4565b90508260208301529392505050565b60006060825261132060608301866111c4565b90508360208301526002831061134657634e487b7160e01b600052602160045260246000fd5b826040830152949350505050565b6020808252602d908201527f456c20636f6d65726369616c697a61646f72206465626520736572206465207460408201526c34b8379023b2b732b930b237b960991b606082015260800190565b6020808252601c908201527b4e6f207469656e657320746f6b656e7320737566696369656e74657360201b604082015260600190565b60208082526037908201527f456c207469706f20646520656e65726769612c206e6f20736520656e6375656e6040820152767472612064656e74726f2064656c20636174616c6f676f60481b606082015260800190565b6020808252602e908201527f4e6f207469656e65207065726d69736f73207061726120656a6563757461722060408201526d3630903a3930b739b0b1b1b4b7b760911b606082015260800190565b6020808252602d908201527f4e6f20707565646520636f6d70726172206d617320656e65726769612064652060408201526c6c6120646973706f6e69626c6560981b606082015260800190565b6020808252601c908201527b456c207469706f20646520656e6572676961206e6f2065786973746560201b604082015260600190565b6000602082526115136020830184516111b7565b602083015161152560408401826111b7565b5060408301516101808060608501526115426101a08501836111c4565b91506060850151601f198086850301608087015261156084836111c4565b935060808701519150808685030160a087015261157d84836111c4565b935060a08701519150808685030160c087015261159a84836111c4565b935060c08701519150808685030160e08701526115b784836111c4565b935060e087015191506101008187860301818801526115d685846111c4565b9450808801519250506101208187860301818801526115f585846111c4565b94508088015192505061014081878603018188015261161485846111c4565b9450808801519250505061016061162d818701836111b7565b959095015193019290925250919050565b60006020825261165a6020830161165585546117e3565b6111b7565b61166760018401546117e3565b61167460408401826111b7565b5061018080606084015261168f6101a08401600286016111f0565b601f19808583030160808601526116a982600388016111f0565b9150808583030160a08601526116c282600488016111f0565b9150808583030160c08601526116db82600588016111f0565b9150808583030160e08601526116f482600688016111f0565b9150808583030161010086015261170e82600788016111f0565b9150808583030161012086015261172882600888016111f0565b915080858303016101408601525061174381600987016111f0565b9050611752600a8601546117e3565b6117606101608601826111b7565b50600b94909401549201919091525090565b90815260200190565b60008482526060602083015261179460608301856111c4565b905060018060a01b0383166040830152949350505050565b60009081526020902090565b60008160001904831182151516156117de57634e487b7160e01b81526011600452602481fd5b500290565b6001600160a01b031690565b60005b8381101561180a5781810151838201526020016117f2565b83811115611819576000848401525b50505050565b60028104600182168061183357607f821691505b6020821081141561185457634e487b7160e01b600052602260045260246000fd5b50919050565b634e487b7160e01b600052604160045260246000fd5b6001600160a01b038116811461188557600080fd5b5056fea26469706673582212207d3cbfc1aaef535425118b50a90e88c954221f0275ff106245fdab3fe0f55d2a64736f6c63430008000033600560c09081526439b7b630b960d91b60e0526080908152610140604052600661010090815265656f6c69636160d01b6101205260a052610044906000906002610057565b5034801561005157600080fd5b506101e0565b8280548282559060005260206000209081019282156100a4579160200282015b828111156100a457825180516100949184916020909101906100b4565b5091602001919060010190610077565b506100b0929150610134565b5090565b8280546100c0906101a5565b90600052602060002090601f0160209004810192826100e25760008555610128565b82601f106100fb57805160ff1916838001178555610128565b82800160010185558215610128579182015b8281111561012857825182559160200191906001019061010d565b506100b0929150610151565b808211156100b05760006101488282610166565b50600101610134565b5b808211156100b05760008155600101610152565b508054610172906101a5565b6000825580601f1061018457506101a2565b601f0160209004906000526020600020908101906101a29190610151565b50565b6002810460018216806101b957607f821691505b602082108114156101da57634e487b7160e01b600052602260045260246000fd5b50919050565b6111f4806101ef6000396000f3fe608060405234801561001057600080fd5b50600436106100365760003560e01c8063259e75771461003b5780636d4fe5c714610064575b600080fd5b61004e610049366004610338565b610084565b60405161005b9190610472565b60405180910390f35b6100776100723660046103de565b61024b565b60405161005b9190610486565b6040516388d8da5f60e01b81526000908190819073__StringLibrary_________________________906388d8da5f906100c2908890600401610499565b60206040518083038186803b1580156100da57600080fd5b505af41580156100ee573d6000803e3d6000fd5b505050506040513d601f19601f820116820180604052508101906101129190610311565b156101565783604051610124906102f7565b61012e9190610561565b604051809103906000f08015801561014a573d6000803e3d6000fd5b5091506001905061021d565b6040516388d8da5f60e01b815273__StringLibrary_________________________906388d8da5f9061018d9088906004016104c5565b60206040518083038186803b1580156101a557600080fd5b505af41580156101b9573d6000803e3d6000fd5b505050506040513d601f19601f820116820180604052508101906101dd9190610311565b1561021d57836040516101ef90610304565b6101f99190610581565b604051809103906000f080158015610215573d6000803e3d6000fd5b509150600190505b806102435760405162461bcd60e51b815260040161023a906104e9565b60405180910390fd5b509392505050565b6000818154811061025b57600080fd5b90600052602060002001600091509050805461027690610593565b80601f01602080910402602001604051908101604052809291908181526020018280546102a290610593565b80156102ef5780601f106102c4576101008083540402835291602001916102ef565b820191906000526020600020905b8154815290600101906020018083116102d257829003601f168201915b505050505081565b6105ed806105e583390190565b6105ed80610bd283390190565b600060208284031215610322578081fd5b81518015158114610331578182fd5b9392505050565b6000806040838503121561034a578081fd5b82356001600160401b0380821115610360578283fd5b818501915085601f830112610373578283fd5b8135602082821115610387576103876105ce565b604051601f8301601f19168101820184811182821017156103aa576103aa6105ce565b60405282815284830182018910156103c0578586fd5b82828601838301379182018101949094529694909201359450505050565b6000602082840312156103ef578081fd5b5035919050565b60008151808452815b8181101561041b576020818501810151868301820152016103ff565b8181111561042c5782602083870101525b50601f01601f19169290920160200192915050565b600581526439b7b630b960d91b602082015260400190565b6006815265656f6c69636160d01b602082015260400190565b6001600160a01b0391909116815260200190565b60006020825261033160208301846103f6565b6000604082526104ac60408301846103f6565b82810360208401526104bd81610441565b949350505050565b6000604082526104d860408301846103f6565b82810360208401526104bd81610459565b60208082526052908201527f4e6f20657320756e207469706f20646520656e65726769612076616c69646f2c60408201527f206c6f73207469706f732076616c69646f7320736f6e3a20736f6c61722c20656060820152716f6c696361206f206869647261756c69636160701b608082015260a00190565b60006040825261057360408301610441565b905082602083015292915050565b60006040825261057360408301610459565b6002810460018216806105a757607f821691505b602082108114156105c857634e487b7160e01b600052602260045260246000fd5b50919050565b634e487b7160e01b600052604160045260246000fdfe608060405234801561001057600080fd5b506040516105ed3803806105ed83398101604081905261002f916100e5565b815161004290600090602085019061004c565b5060025550610200565b828054610058906101af565b90600052602060002090601f01602090048101928261007a57600085556100c0565b82601f1061009357805160ff19168380011785556100c0565b828001600101855582156100c0579182015b828111156100c05782518255916020019190600101906100a5565b506100cc9291506100d0565b5090565b5b808211156100cc57600081556001016100d1565b600080604083850312156100f7578182fd5b82516001600160401b038082111561010d578384fd5b818501915085601f830112610120578384fd5b815181811115610132576101326101ea565b6040516020601f8301601f1916820181018481118382101715610157576101576101ea565b604052828252848301810189101561016d578687fd5b8693505b8284101561018e5784840181015182850182015292830192610171565b8284111561019e57868184840101525b969096015195979596505050505050565b6002810460018216806101c357607f821691505b602082108114156101e457634e487b7160e01b600052602260045260246000fd5b50919050565b634e487b7160e01b600052604160045260246000fd5b6103de8061020f6000396000f3fe608060405234801561001057600080fd5b50600436106100785760003560e01c80639be0b8001461007d5780639e66e0f31461009b578063ae4f7a4c146100a3578063b0b6d161146100ab578063bc7b35b2146100c0578063cb86d6e6146100d5578063f5a50589146100dd578063f7ac4af4146100f0575b600080fd5b6100856100f8565b604051610092919061031f565b60405180910390f35b6100856100fe565b610085610104565b6100be6100b93660046102b4565b61010a565b005b6100c8610121565b60405161009291906102cc565b6100c86101af565b6100be6100eb3660046102b4565b610241565b610085610251565b60025490565b60015481565b60025481565b60025460009061011a9083610256565b6002555050565b6000805461012e90610357565b80601f016020809104026020016040519081016040528092919081815260200182805461015a90610357565b80156101a75780601f1061017c576101008083540402835291602001916101a7565b820191906000526020600020905b81548152906001019060200180831161018a57829003601f168201915b505050505081565b6060600080546101be90610357565b80601f01602080910402602001604051908101604052809291908181526020018280546101ea90610357565b80156102375780601f1061020c57610100808354040283529160200191610237565b820191906000526020600020905b81548152906001019060200180831161021a57829003601f168201915b5050505050905090565b60025460009061011a9083610287565b600390565b60008282111561027657634e487b7160e01b600052600160045260246000fd5b6102808284610340565b9392505050565b6000806102948385610328565b90508381101561028057634e487b7160e01b600052600160045260246000fd5b6000602082840312156102c5578081fd5b5035919050565b6000602080835283518082850152825b818110156102f8578581018301518582016040015282016102dc565b818111156103095783604083870101525b50601f01601f1916929092016040019392505050565b90815260200190565b6000821982111561033b5761033b610392565b500190565b60008282101561035257610352610392565b500390565b60028104600182168061036b57607f821691505b6020821081141561038c57634e487b7160e01b600052602260045260246000fd5b50919050565b634e487b7160e01b600052601160045260246000fdfea2646970667358221220ec4fdd8925b9af8bbdb8212b2c1c133371927501989277696b5bc228c61f7cd464736f6c63430008000033608060405234801561001057600080fd5b506040516105ed3803806105ed83398101604081905261002f916100e5565b815161004290600090602085019061004c565b5060025550610200565b828054610058906101af565b90600052602060002090601f01602090048101928261007a57600085556100c0565b82601f1061009357805160ff19168380011785556100c0565b828001600101855582156100c0579182015b828111156100c05782518255916020019190600101906100a5565b506100cc9291506100d0565b5090565b5b808211156100cc57600081556001016100d1565b600080604083850312156100f7578182fd5b82516001600160401b038082111561010d578384fd5b818501915085601f830112610120578384fd5b815181811115610132576101326101ea565b6040516020601f8301601f1916820181018481118382101715610157576101576101ea565b604052828252848301810189101561016d578687fd5b8693505b8284101561018e5784840181015182850182015292830192610171565b8284111561019e57868184840101525b969096015195979596505050505050565b6002810460018216806101c357607f821691505b602082108114156101e457634e487b7160e01b600052602260045260246000fd5b50919050565b634e487b7160e01b600052604160045260246000fd5b6103de8061020f6000396000f3fe608060405234801561001057600080fd5b50600436106100785760003560e01c80639be0b8001461007d5780639e66e0f31461009b578063ae4f7a4c146100a3578063b0b6d161146100ab578063bc7b35b2146100c0578063cb86d6e6146100d5578063f5a50589146100dd578063f7ac4af4146100f0575b600080fd5b6100856100f8565b604051610092919061031f565b60405180910390f35b6100856100fe565b610085610104565b6100be6100b93660046102b4565b61010a565b005b6100c8610121565b60405161009291906102cc565b6100c86101af565b6100be6100eb3660046102b4565b610241565b610085610251565b60025490565b60015481565b60025481565b60025460009061011a9083610256565b6002555050565b6000805461012e90610357565b80601f016020809104026020016040519081016040528092919081815260200182805461015a90610357565b80156101a75780601f1061017c576101008083540402835291602001916101a7565b820191906000526020600020905b81548152906001019060200180831161018a57829003601f168201915b505050505081565b6060600080546101be90610357565b80601f01602080910402602001604051908101604052809291908181526020018280546101ea90610357565b80156102375780601f1061020c57610100808354040283529160200191610237565b820191906000526020600020905b81548152906001019060200180831161021a57829003601f168201915b5050505050905090565b60025460009061011a9083610287565b600290565b60008282111561027657634e487b7160e01b600052600160045260246000fd5b6102808284610340565b9392505050565b6000806102948385610328565b90508381101561028057634e487b7160e01b600052600160045260246000fd5b6000602082840312156102c5578081fd5b5035919050565b6000602080835283518082850152825b818110156102f8578581018301518582016040015282016102dc565b818111156103095783604083870101525b50601f01601f1916929092016040019392505050565b90815260200190565b6000821982111561033b5761033b610392565b500190565b60008282101561035257610352610392565b500390565b60028104600182168061036b57607f821691505b6020821081141561038c57634e487b7160e01b600052602260045260246000fd5b50919050565b634e487b7160e01b600052601160045260246000fdfea26469706673582212209fa3f8a3d7dc290461c285365a2ccb7550c882f55ab168043675370c0f01976664736f6c63430008000033a26469706673582212209c33c0417751f064b6ddd365ee7ead2e7111fd8b75e5fd31174b0073704e7f1a64736f6c63430008000033a2646970667358221220284fddbf4b53c74adab73ac85b2328416f3ecf9eb9516bcfb4c3fad7a59f624e64736f6c63430008000033",
  "immutableReferences": {},
  "source": "// SPDX-License-Identifier: MIT\r\npragma solidity ^0.8.0;\r\npragma experimental ABIEncoderV2;\r\nimport \"./models/InfoContrato.sol\";\r\nimport \"./models/Factory.sol\";\r\nimport \"./libraries/Validations.sol\";\r\nimport \"./Generador.sol\";\r\n\r\ncontract MvmGeneradorFactory is Factory {\r\n    address private bancoEnergia;\r\n    mapping(address => address) public DirContratosGeneradores;\r\n\r\n    constructor(address _reguladorMercado, address _bancoEnergia) {\r\n        owner = msg.sender;\r\n        dirContrato = address(this);\r\n        reguladorMercado = _reguladorMercado;\r\n        bancoEnergia = _bancoEnergia;\r\n    }\r\n\r\n    function FactoryContrato(InfoContrato memory _infoContrato)\r\n        public\r\n        override\r\n        canCreate\r\n    {\r\n        require(\r\n            Validations.aproveCreation(_infoContrato.owner, contratosOwners),\r\n            \"Una direccion no puede tener mas de un generador\"\r\n        );\r\n        require(\r\n            ReguladorMercado(reguladorMercado).existeSolicitud(\r\n                _infoContrato.owner\r\n            ),\r\n            \"No existe la solicitud\"\r\n        );\r\n        _infoContrato.dirContrato = DirContratosGeneradores[\r\n            _infoContrato.owner\r\n        ];\r\n        DirContratosGeneradores[_infoContrato.owner] = address(\r\n            new Generador(_infoContrato, reguladorMercado, bancoEnergia)\r\n        );\r\n        _infoContrato.dirContrato = DirContratosGeneradores[_infoContrato.owner];\r\n        diligenciarContratoRegulador(_infoContrato.owner, _infoContrato);\r\n        contratosOwners.push(\r\n            Generador(DirContratosGeneradores[_infoContrato.owner])\r\n                .getInfoContrato()\r\n        );\r\n\r\n        emit Creacion(\r\n            _infoContrato.empresa,\r\n            DirContratosGeneradores[_infoContrato.owner]\r\n        );\r\n    }\r\n\r\n    function existeGenerador(\r\n        address contractDir,\r\n        InfoContrato[] memory arrayContracts\r\n    ) public pure returns (bool) {\r\n        return Validations.existsContract(contractDir, arrayContracts);\r\n    }\r\n}\r\n",
  "sourcePath": "D:\\Santiago\\BlockChain\\DemoMvmTruffle\\contracts\\MvmGeneradorFactory.sol",
  "compiler": {
    "name": "solc",
    "version": "0.8.0+commit.c7dfd78e.Emscripten.clang"
  },
  "schemaVersion": "3.4.4",
  "updatedAt": "2022-07-25T12:40:44.912Z",
  "networkType": "ethereum",
  "devdoc": {
    "kind": "dev",
    "methods": {},
    "version": 1
  },
  "userdoc": {
    "kind": "user",
    "methods": {},
    "version": 1
  }
}