{
  "contractName": "MvmGeneradorFactory",
  "abi": [
    {
      "inputs": [
        {
          "internalType": "address",
          "name": "_reguladorMercado",
          "type": "address"
        },
        {
          "internalType": "address",
          "name": "_bancoEnergia",
          "type": "address"
        }
      ],
      "stateMutability": "nonpayable",
      "type": "constructor"
    },
    {
      "anonymous": false,
      "inputs": [
        {
          "indexed": false,
          "internalType": "string",
          "name": "",
          "type": "string"
        },
        {
          "indexed": false,
          "internalType": "address",
          "name": "",
          "type": "address"
        }
      ],
      "name": "Creacion",
      "type": "event"
    },
    {
      "inputs": [
        {
          "internalType": "address",
          "name": "",
          "type": "address"
        }
      ],
      "name": "DirContratosGeneradores",
      "outputs": [
        {
          "internalType": "address",
          "name": "",
          "type": "address"
        }
      ],
      "stateMutability": "view",
      "type": "function",
      "constant": true
    },
    {
      "inputs": [
        {
          "internalType": "address",
          "name": "dir",
          "type": "address"
        },
        {
          "components": [
            {
              "internalType": "address",
              "name": "dirContrato",
              "type": "address"
            },
            {
              "internalType": "address",
              "name": "owner",
              "type": "address"
            },
            {
              "internalType": "string",
              "name": "nit",
              "type": "string"
            },
            {
              "internalType": "string",
              "name": "empresa",
              "type": "string"
            },
            {
              "internalType": "string",
              "name": "contacto",
              "type": "string"
            },
            {
              "internalType": "string",
              "name": "telefono",
              "type": "string"
            },
            {
              "internalType": "string",
              "name": "correo",
              "type": "string"
            },
            {
              "internalType": "string",
              "name": "departamento",
              "type": "string"
            },
            {
              "internalType": "string",
              "name": "ciudad",
              "type": "string"
            },
            {
              "internalType": "string",
              "name": "direccion",
              "type": "string"
            },
            {
              "internalType": "address",
              "name": "comercializador",
              "type": "address"
            },
            {
              "internalType": "uint256",
              "name": "tipoComercio",
              "type": "uint256"
            }
          ],
          "internalType": "struct InfoContrato",
          "name": "infoContrato",
          "type": "tuple"
        }
      ],
      "name": "diligenciarContratoRegulador",
      "outputs": [],
      "stateMutability": "nonpayable",
      "type": "function"
    },
    {
      "inputs": [],
      "name": "dirContrato",
      "outputs": [
        {
          "internalType": "address",
          "name": "",
          "type": "address"
        }
      ],
      "stateMutability": "view",
      "type": "function",
      "constant": true
    },
    {
      "inputs": [],
      "name": "direccionRegistrada",
      "outputs": [
        {
          "internalType": "bool",
          "name": "",
          "type": "bool"
        }
      ],
      "stateMutability": "view",
      "type": "function",
      "constant": true
    },
    {
      "inputs": [],
      "name": "getContratosOwners",
      "outputs": [
        {
          "components": [
            {
              "internalType": "address",
              "name": "dirContrato",
              "type": "address"
            },
            {
              "internalType": "address",
              "name": "owner",
              "type": "address"
            },
            {
              "internalType": "string",
              "name": "nit",
              "type": "string"
            },
            {
              "internalType": "string",
              "name": "empresa",
              "type": "string"
            },
            {
              "internalType": "string",
              "name": "contacto",
              "type": "string"
            },
            {
              "internalType": "string",
              "name": "telefono",
              "type": "string"
            },
            {
              "internalType": "string",
              "name": "correo",
              "type": "string"
            },
            {
              "internalType": "string",
              "name": "departamento",
              "type": "string"
            },
            {
              "internalType": "string",
              "name": "ciudad",
              "type": "string"
            },
            {
              "internalType": "string",
              "name": "direccion",
              "type": "string"
            },
            {
              "internalType": "address",
              "name": "comercializador",
              "type": "address"
            },
            {
              "internalType": "uint256",
              "name": "tipoComercio",
              "type": "uint256"
            }
          ],
          "internalType": "struct InfoContrato[]",
          "name": "",
          "type": "tuple[]"
        }
      ],
      "stateMutability": "view",
      "type": "function",
      "constant": true
    },
    {
      "inputs": [],
      "name": "owner",
      "outputs": [
        {
          "internalType": "address",
          "name": "",
          "type": "address"
        }
      ],
      "stateMutability": "view",
      "type": "function",
      "constant": true
    },
    {
      "inputs": [],
      "name": "reguladorMercado",
      "outputs": [
        {
          "internalType": "address",
          "name": "",
          "type": "address"
        }
      ],
      "stateMutability": "view",
      "type": "function",
      "constant": true
    },
    {
      "inputs": [
        {
          "components": [
            {
              "internalType": "address",
              "name": "dirContrato",
              "type": "address"
            },
            {
              "internalType": "address",
              "name": "owner",
              "type": "address"
            },
            {
              "internalType": "string",
              "name": "nit",
              "type": "string"
            },
            {
              "internalType": "string",
              "name": "empresa",
              "type": "string"
            },
            {
              "internalType": "string",
              "name": "contacto",
              "type": "string"
            },
            {
              "internalType": "string",
              "name": "telefono",
              "type": "string"
            },
            {
              "internalType": "string",
              "name": "correo",
              "type": "string"
            },
            {
              "internalType": "string",
              "name": "departamento",
              "type": "string"
            },
            {
              "internalType": "string",
              "name": "ciudad",
              "type": "string"
            },
            {
              "internalType": "string",
              "name": "direccion",
              "type": "string"
            },
            {
              "internalType": "address",
              "name": "comercializador",
              "type": "address"
            },
            {
              "internalType": "uint256",
              "name": "tipoComercio",
              "type": "uint256"
            }
          ],
          "internalType": "struct InfoContrato",
          "name": "_infoContrato",
          "type": "tuple"
        }
      ],
      "name": "FactoryContrato",
      "outputs": [],
      "stateMutability": "nonpayable",
      "type": "function"
    },
    {
      "inputs": [
        {
          "internalType": "address",
          "name": "contractDir",
          "type": "address"
        },
        {
          "components": [
            {
              "internalType": "address",
              "name": "dirContrato",
              "type": "address"
            },
            {
              "internalType": "address",
              "name": "owner",
              "type": "address"
            },
            {
              "internalType": "string",
              "name": "nit",
              "type": "string"
            },
            {
              "internalType": "string",
              "name": "empresa",
              "type": "string"
            },
            {
              "internalType": "string",
              "name": "contacto",
              "type": "string"
            },
            {
              "internalType": "string",
              "name": "telefono",
              "type": "string"
            },
            {
              "internalType": "string",
              "name": "correo",
              "type": "string"
            },
            {
              "internalType": "string",
              "name": "departamento",
              "type": "string"
            },
            {
              "internalType": "string",
              "name": "ciudad",
              "type": "string"
            },
            {
              "internalType": "string",
              "name": "direccion",
              "type": "string"
            },
            {
              "internalType": "address",
              "name": "comercializador",
              "type": "address"
            },
            {
              "internalType": "uint256",
              "name": "tipoComercio",
              "type": "uint256"
            }
          ],
          "internalType": "struct InfoContrato[]",
          "name": "arrayContracts",
          "type": "tuple[]"
        }
      ],
      "name": "existeGenerador",
      "outputs": [
        {
          "internalType": "bool",
          "name": "",
          "type": "bool"
        }
      ],
      "stateMutability": "pure",
      "type": "function",
      "constant": true
    }
  ],
  "bytecode": "0x60806040523480156200001157600080fd5b506040516200529538038062005295833981016040819052620000349162000098565b600080546001600160a01b0319908116331790915560018054821630179055600280546001600160a01b0394851690831617905560048054929093169116179055620000cf565b80516001600160a01b03811681146200009357600080fd5b919050565b60008060408385031215620000ab578182fd5b620000b6836200007b565b9150620000c6602084016200007b565b90509250929050565b6151b680620000df6000396000f3fe60806040523480156200001157600080fd5b5060043610620000a05760003560e01c80636d7508ad116200006f5780636d7508ad14620001105780637eb5a6881462000136578063856788df14620001405780638da5cb5b146200014a578063ee892ddc146200015457620000a0565b8063037ad4dd14620000a55780633607329d14620000be57806347ec8b0e14620000e05780634cdbdb6d14620000f7575b600080fd5b620000bc620000b6366004620013d7565b6200016b565b005b620000c8620006a5565b604051620000d7919062001bb0565b60405180910390f35b620000bc620000f136600462001361565b6200073e565b62000101620008d8565b604051620000d7919062001b4c565b620001276200012136600462001263565b62000e50565b604051620000d7919062001815565b6200012762000e6b565b6200012762000e7a565b6200012762000e89565b620000c862000165366004620012a1565b62000e98565b600260009054906101000a90046001600160a01b03166001600160a01b031663893d20e86040518163ffffffff1660e01b815260040160206040518083038186803b158015620001ba57600080fd5b505afa158015620001cf573d6000803e3d6000fd5b505050506040513d601f19601f82011682018060405250810190620001f5919062001282565b6001600160a01b0316336001600160a01b031614620002315760405162461bcd60e51b8152600401620002289062001be7565b60405180910390fd5b6020810151604051635010ecc560e01b815273__Validations___________________________91635010ecc591620002719190600390600401620019c0565b60206040518083038186803b1580156200028a57600080fd5b505af41580156200029f573d6000803e3d6000fd5b505050506040513d601f19601f82011682018060405250810190620002c59190620013b5565b620002e45760405162461bcd60e51b8152600401620002289062001c5d565b60025460208201516040516340fd3f3960e01b81526001600160a01b03909216916340fd3f3991620003199160040162001815565b60206040518083038186803b1580156200033257600080fd5b505afa15801562000347573d6000803e3d6000fd5b505050506040513d601f19601f820116820180604052508101906200036d9190620013b5565b6200038c5760405162461bcd60e51b8152600401620002289062001c2d565b6020808201516001600160a01b0390811660009081526005909252604091829020548116835260025460045492518493918316929190911690620003d09062000f31565b620003de9392919062001cda565b604051809103906000f080158015620003fb573d6000803e3d6000fd5b50602082810180516001600160a01b0390811660009081526005909352604090922080546001600160a01b03191693909216929092179055516200044090826200073e565b6020808201516001600160a01b03908116600090815260059092526040808320548151634df073e760e11b815291516003949190931692639be0e7ce926004808201939291829003018186803b1580156200049a57600080fd5b505afa158015620004af573d6000803e3d6000fd5b505050506040513d6000823e601f3d908101601f19168201604052620004d991908101906200140e565b81546001818101845560009384526020938490208351600c9093020180546001600160a01b039384166001600160a01b031991821617825585850151928201805493909416921691909117909155604082015180519293919262000544926002850192019062000f3f565b50606082015180516200056291600384019160209091019062000f3f565b50608082015180516200058091600484019160209091019062000f3f565b5060a082015180516200059e91600584019160209091019062000f3f565b5060c08201518051620005bc91600684019160209091019062000f3f565b5060e08201518051620005da91600784019160209091019062000f3f565b506101008201518051620005f991600884019160209091019062000f3f565b5061012082015180516200061891600984019160209091019062000f3f565b50610140820151600a820180546001600160a01b0319166001600160a01b0392831617905561016090920151600b9091015560608201516020808401518316600090815260059091526040908190205490517f35671b86a8a0b2b88538732ff30f9073d71b6400e3e4fe564003bc8220b8a117936200069a9392169062001bbb565b60405180910390a150565b604051635010ecc560e01b815260009073__Validations___________________________90635010ecc590620006e4903390600390600401620019c0565b60206040518083038186803b158015620006fd57600080fd5b505af415801562000712573d6000803e3d6000fd5b505050506040513d601f19601f82011682018060405250810190620007389190620013b5565b15905090565b6002546040516340fd3f3960e01b81526001600160a01b03909116906340fd3f39906200077090859060040162001815565b60206040518083038186803b1580156200078957600080fd5b505afa1580156200079e573d6000803e3d6000fd5b505050506040513d601f19601f82011682018060405250810190620007c49190620013b5565b620007e35760405162461bcd60e51b8152600401620002289062001cad565b600254604051630d098a3b60e01b81526000916001600160a01b031690630d098a3b906200081690869060040162001815565b60206040518083038186803b1580156200082f57600080fd5b505afa15801562000844573d6000803e3d6000fd5b505050506040513d601f19601f820116820180604052508101906200086a9190620015de565b600254604051635911164960e11b81529192506001600160a01b03169063b2222c92906200089f908490869060040162001d0f565b600060405180830381600087803b158015620008ba57600080fd5b505af1158015620008cf573d6000803e3d6000fd5b50505050505050565b60606003805480602002602001604051908101604052809291908181526020016000905b8282101562000e475760008481526020908190206040805161018081018252600c860290920180546001600160a01b0390811684526001820154169383019390935260028301805492939291840191620009569062001dd6565b80601f0160208091040260200160405190810160405280929190818152602001828054620009849062001dd6565b8015620009d55780601f10620009a957610100808354040283529160200191620009d5565b820191906000526020600020905b815481529060010190602001808311620009b757829003601f168201915b50505050508152602001600382018054620009f09062001dd6565b80601f016020809104026020016040519081016040528092919081815260200182805462000a1e9062001dd6565b801562000a6f5780601f1062000a435761010080835404028352916020019162000a6f565b820191906000526020600020905b81548152906001019060200180831162000a5157829003601f168201915b5050505050815260200160048201805462000a8a9062001dd6565b80601f016020809104026020016040519081016040528092919081815260200182805462000ab89062001dd6565b801562000b095780601f1062000add5761010080835404028352916020019162000b09565b820191906000526020600020905b81548152906001019060200180831162000aeb57829003601f168201915b5050505050815260200160058201805462000b249062001dd6565b80601f016020809104026020016040519081016040528092919081815260200182805462000b529062001dd6565b801562000ba35780601f1062000b775761010080835404028352916020019162000ba3565b820191906000526020600020905b81548152906001019060200180831162000b8557829003601f168201915b5050505050815260200160068201805462000bbe9062001dd6565b80601f016020809104026020016040519081016040528092919081815260200182805462000bec9062001dd6565b801562000c3d5780601f1062000c115761010080835404028352916020019162000c3d565b820191906000526020600020905b81548152906001019060200180831162000c1f57829003601f168201915b5050505050815260200160078201805462000c589062001dd6565b80601f016020809104026020016040519081016040528092919081815260200182805462000c869062001dd6565b801562000cd75780601f1062000cab5761010080835404028352916020019162000cd7565b820191906000526020600020905b81548152906001019060200180831162000cb957829003601f168201915b5050505050815260200160088201805462000cf29062001dd6565b80601f016020809104026020016040519081016040528092919081815260200182805462000d209062001dd6565b801562000d715780601f1062000d455761010080835404028352916020019162000d71565b820191906000526020600020905b81548152906001019060200180831162000d5357829003601f168201915b5050505050815260200160098201805462000d8c9062001dd6565b80601f016020809104026020016040519081016040528092919081815260200182805462000dba9062001dd6565b801562000e0b5780601f1062000ddf5761010080835404028352916020019162000e0b565b820191906000526020600020905b81548152906001019060200180831162000ded57829003601f168201915b5050509183525050600a8201546001600160a01b0316602080830191909152600b909201546040909101529082526001929092019101620008fc565b50505050905090565b6005602052600090815260409020546001600160a01b031681565b6002546001600160a01b031681565b6001546001600160a01b031681565b6000546001600160a01b031681565b604051631c7ab85d60e21b815260009073__Validations___________________________906371eae1749062000ed6908690869060040162001829565b60206040518083038186803b15801562000eef57600080fd5b505af415801562000f04573d6000803e3d6000fd5b505050506040513d601f19601f8201168201806040525081019062000f2a9190620013b5565b9392505050565b61333e8062001e4383390190565b82805462000f4d9062001dd6565b90600052602060002090601f01602090048101928262000f71576000855562000fbc565b82601f1062000f8c57805160ff191683800117855562000fbc565b8280016001018555821562000fbc579182015b8281111562000fbc57825182559160200191906001019062000f9f565b5062000fca92915062000fce565b5090565b5b8082111562000fca576000815560010162000fcf565b803562000ff28162001e29565b919050565b805162000ff28162001e29565b600082601f83011262001015578081fd5b81356200102c620010268262001d57565b62001d2a565b81815284602083860101111562001041578283fd5b816020850160208301379081016020019190915292915050565b600082601f8301126200106c578081fd5b81516200107d620010268262001d57565b81815284602083860101111562001092578283fd5b620010a582602083016020870162001da3565b949350505050565b6000610180808385031215620010c1578182fd5b620010cc8162001d2a565b915050620010da8262000fe5565b8152620010ea6020830162000fe5565b6020820152604082013567ffffffffffffffff808211156200110b57600080fd5b620011198583860162001004565b604084015260608401359150808211156200113357600080fd5b620011418583860162001004565b606084015260808401359150808211156200115b57600080fd5b620011698583860162001004565b608084015260a08401359150808211156200118357600080fd5b620011918583860162001004565b60a084015260c0840135915080821115620011ab57600080fd5b620011b98583860162001004565b60c084015260e0840135915080821115620011d357600080fd5b620011e18583860162001004565b60e084015261010091508184013581811115620011fd57600080fd5b6200120b8682870162001004565b8385015250610120915081840135818111156200122757600080fd5b620012358682870162001004565b838501525050506101406200124c81840162000fe5565b818301525061016080830135818301525092915050565b60006020828403121562001275578081fd5b813562000f2a8162001e29565b60006020828403121562001294578081fd5b815162000f2a8162001e29565b60008060408385031215620012b4578081fd5b8235620012c18162001e29565b915060208381013567ffffffffffffffff80821115620012df578384fd5b818601915086601f830112620012f3578384fd5b81358181111562001308576200130862001e13565b62001317848583020162001d2a565b8181528481019250838501865b8381101562001351576200133e8b888435890101620010ad565b8552938601939086019060010162001324565b5096999098509650505050505050565b6000806040838503121562001374578182fd5b8235620013818162001e29565b9150602083013567ffffffffffffffff8111156200139d578182fd5b620013ab85828601620010ad565b9150509250929050565b600060208284031215620013c7578081fd5b8151801515811462000f2a578182fd5b600060208284031215620013e9578081fd5b813567ffffffffffffffff81111562001400578182fd5b620010a584828501620010ad565b60006020828403121562001420578081fd5b815167ffffffffffffffff8082111562001438578283fd5b81840191506101808083870312156200144f578384fd5b6200145a8162001d2a565b9050620014678362000ff7565b8152620014776020840162000ff7565b60208201526040830151828111156200148e578485fd5b6200149c878286016200105b565b604083015250606083015182811115620014b4578485fd5b620014c2878286016200105b565b606083015250608083015182811115620014da578485fd5b620014e8878286016200105b565b60808301525060a08301518281111562001500578485fd5b6200150e878286016200105b565b60a08301525060c08301518281111562001526578485fd5b62001534878286016200105b565b60c08301525060e0830151828111156200154c578485fd5b6200155a878286016200105b565b60e083015250610100808401518381111562001574578586fd5b62001582888287016200105b565b82840152505061012080840151838111156200159c578586fd5b620015aa888287016200105b565b8284015250506101409150620015c282840162000ff7565b9181019190915261016091820151918101919091529392505050565b600060208284031215620015f0578081fd5b5051919050565b6001600160a01b03169052565b600081518084526200161e81602086016020860162001da3565b601f01601f19169290920160200192915050565b8054600090600281046001808316806200164d57607f831692505b60208084108214156200166e57634e487b7160e01b86526022600452602486fd5b6200167a848962001d8e565b828015620016915760018114620016a357620016d2565b60ff19871682528282019750620016d2565b620016ae8962001d82565b60005b87811015620016cc57815484820152908601908401620016b1565b83019850505b5050505050505092915050565b6000610180620016f1848451620015f7565b6020830151620017056020860182620015f7565b5060408301518160408601526200171f8286018262001604565b915050606083015184820360608601526200173b828262001604565b9150506080830151848203608086015262001757828262001604565b91505060a083015184820360a086015262001773828262001604565b91505060c083015184820360c08601526200178f828262001604565b91505060e083015184820360e0860152620017ab828262001604565b9150506101008084015185830382870152620017c8838262001604565b925050506101208084015185830382870152620017e6838262001604565b9250505061014080840151620017ff82870182620015f7565b5050610160928301519390920192909252919050565b6001600160a01b0391909116815260200190565b6001600160a01b0383168152604060208083018290528351838301819052600092916060918286019080830287018401888401875b83811015620019b057605f198a8403018552815161018062001882858351620015f7565b878201516200189489870182620015f7565b5089820151818b870152620018ac8287018262001604565b915050888201518582038a870152620018c6828262001604565b91505060808083015186830382880152620018e2838262001604565b9250505060a08083015186830382880152620018ff838262001604565b9250505060c080830151868303828801526200191c838262001604565b9250505060e0808301518683038288015262001939838262001604565b92505050610100808301518683038288015262001957838262001604565b92505050610120808301518683038288015262001975838262001604565b92505050610140808301516200198e82880182620015f7565b505061016091820151949091019390935293850193908501906001016200185e565b50909a9950505050505050505050565b6000604080830160018060a01b03861684526020828186015281865480845260609350838701915083838202880101888752838720875b83811015620019b057605f198a840301855261018062001a238462001a1d855462001d97565b620015f7565b62001a32600184015462001d97565b62001a4088860182620015f7565b50808985015262001a578185016002850162001632565b90508381038885015262001a6f816003850162001632565b9050838103608085015262001a88816004850162001632565b905083810360a085015262001aa1816005850162001632565b905083810360c085015262001aba816006850162001632565b905083810360e085015262001ad3816007850162001632565b905083810361010085015262001aed816008850162001632565b905083810361012085015262001b07816009850162001632565b905062001b18600a84015462001d97565b62001b28610140860182620015f7565b50600b830154610160949094019390935293850193600c90910190600101620019f7565b6000602080830181845280855180835260408601915060408482028701019250838701855b8281101562001ba357603f1988860301845262001b90858351620016df565b9450928501929085019060010162001b71565b5092979650505050505050565b901515815260200190565b60006040825262001bd0604083018562001604565b905060018060a01b03831660208301529392505050565b60208082526026908201527f4e6f207469656e65207065726d69736f73207061726120637265617220636f6e604082015265747261746f7360d01b606082015260800190565b602080825260169082015275139bc8195e1a5cdd19481b18481cdbdb1a58da5d1d5960521b604082015260600190565b60208082526030908201527f556e6120646972656363696f6e206e6f2070756564652074656e6572206d617360408201526f103232903ab71033b2b732b930b237b960811b606082015260800190565b602080825260139082015272139bc8195e1a5cdd19481cdbdb1a58da5d1d59606a1b604082015260600190565b60006060825262001cef6060830186620016df565b6001600160a01b0394851660208401529290931660409091015292915050565b600083825260406020830152620010a56040830184620016df565b60405181810167ffffffffffffffff8111828210171562001d4f5762001d4f62001e13565b604052919050565b600067ffffffffffffffff82111562001d745762001d7462001e13565b50601f01601f191660200190565b60009081526020902090565b90815260200190565b6001600160a01b031690565b60005b8381101562001dc057818101518382015260200162001da6565b8381111562001dd0576000848401525b50505050565b60028104600182168062001deb57607f821691505b6020821081141562001e0d57634e487b7160e01b600052602260045260246000fd5b50919050565b634e487b7160e01b600052604160045260246000fd5b6001600160a01b038116811462001e3f57600080fd5b5056fe6080604052600d80546001600160a01b03191690553480156200002157600080fd5b506040516200333e3803806200333e8339810160408190526200004491620003e5565b600080546001600160a01b038085166001600160a01b0319928316179092556040805161018081018252308082526020888101518616818401819052898501519484018590526060808b0151908501526080808b01519085015260a0808b01519085015260c0808b01519085015260e0808b0151908501526101008a81015190850152610120808b015190850152600d54909616610140840152610160808a01519084015260018054861690921782556002805490951690951790935581519093620001169260039291019062000283565b50606082015180516200013491600384019160209091019062000283565b50608082015180516200015291600484019160209091019062000283565b5060a082015180516200017091600584019160209091019062000283565b5060c082015180516200018e91600684019160209091019062000283565b5060e08201518051620001ac91600784019160209091019062000283565b506101008201518051620001cb91600884019160209091019062000283565b506101208201518051620001ea91600984019160209091019062000283565b50610140820151600a820180546001600160a01b0319166001600160a01b0390921691909117905561016090910151600b909101556040516200022d9062000312565b604051809103906000f0801580156200024a573d6000803e3d6000fd5b50600e80546001600160a01b039283166001600160a01b031991821617909155600f805493909216921691909117905550620006589050565b828054620002919062000605565b90600052602060002090601f016020900481019282620002b5576000855562000300565b82601f10620002d057805160ff191683800117855562000300565b8280016001018555821562000300579182015b8281111562000300578251825591602001919060010190620002e3565b506200030e92915062000320565b5090565b6114048062001f3a83390190565b5b808211156200030e576000815560010162000321565b80516001600160a01b03811681146200034f57600080fd5b919050565b600082601f83011262000365578081fd5b81516001600160401b0381111562000381576200038162000642565b602062000397601f8301601f19168201620005d9565b8281528582848701011115620003ab578384fd5b835b83811015620003ca578581018301518282018401528201620003ad565b83811115620003db57848385840101525b5095945050505050565b600080600060608486031215620003fa578283fd5b83516001600160401b038082111562000411578485fd5b818601915061018080838903121562000428578586fd5b6200043381620005d9565b9050620004408362000337565b8152620004506020840162000337565b602082015260408301518281111562000467578687fd5b620004758982860162000354565b6040830152506060830151828111156200048d578687fd5b6200049b8982860162000354565b606083015250608083015182811115620004b3578687fd5b620004c18982860162000354565b60808301525060a083015182811115620004d9578687fd5b620004e78982860162000354565b60a08301525060c083015182811115620004ff578687fd5b6200050d8982860162000354565b60c08301525060e08301518281111562000525578687fd5b620005338982860162000354565b60e08301525061010080840151838111156200054d578788fd5b6200055b8a82870162000354565b828401525050610120808401518381111562000575578788fd5b620005838a82870162000354565b82840152505061014091506200059b82840162000337565b8282015261016091508183015182820152809550505050620005c06020850162000337565b9150620005d06040850162000337565b90509250925092565b6040518181016001600160401b0381118282101715620005fd57620005fd62000642565b604052919050565b6002810460018216806200061a57607f821691505b602082108114156200063c57634e487b7160e01b600052602260045260246000fd5b50919050565b634e487b7160e01b600052604160045260246000fd5b6118d280620006686000396000f3fe608060405234801561001057600080fd5b50600436106100a95760003560e01c806395965bda1161007157806395965bda1461010f5780639be0e7ce14610122578063a3a6883e14610137578063cfa5784914610157578063e33f34a01461016a578063fcbe8eb114610172576100a9565b8063158e62a3146100ae578063551edf90146100d75780635a3e349d146100df5780636a7165c0146100f45780637eb5a68814610107575b600080fd5b6100c16100bc3660046110da565b610185565b6040516100ce91906112bf565b60405180910390f35b6100c16101b7565b6100f26100ed366004611115565b6101c6565b005b6100f2610102366004611115565b61031b565b6100c1610448565b6100f261011d36600461109b565b610457565b61012a610558565b6040516100ce9190611513565b61014a6101453660046110da565b610a3d565b6040516100ce9190611786565b6100f2610165366004611170565b610ad6565b61014a610efa565b6100c161018036600461109b565b610f80565b600060108260405161019791906112a3565b908152604051908190036020019020546001600160a01b03169050919050565b600d546001600160a01b031681565b60025433906001600160a01b031681146101fb5760405162461bcd60e51b81526004016101f290611441565b60405180910390fd5b600e5460405163259e757760e01b81526001600160a01b039091169063259e75779061022d90869086906004016112f7565b602060405180830381600087803b15801561024757600080fd5b505af115801561025b573d6000803e3d6000fd5b505050506040513d601f19601f8201168201806040525081019061027f91906110be565b60108460405161028f91906112a3565b90815260405190819003602001812080546001600160a01b039384166001600160a01b0319909116179055600f5463017759f360e41b8252909116906317759f30906102e49086908690600090600401611319565b600060405180830381600087803b1580156102fe57600080fd5b505af1158015610312573d6000803e3d6000fd5b50505050505050565b60025433906001600160a01b031681146103475760405162461bcd60e51b81526004016101f290611441565b60006001600160a01b031660108460405161036291906112a3565b908152604051908190036020019020546001600160a01b031614156103995760405162461bcd60e51b81526004016101f2906114dc565b6010836040516103a991906112a3565b9081526040519081900360200181205463f5a5058960e01b82526001600160a01b03169063f5a50589906103e1908590600401611786565b600060405180830381600087803b1580156103fb57600080fd5b505af115801561040f573d6000803e3d6000fd5b5050600f5460405163017759f360e41b81526001600160a01b0390911692506317759f3091506102e49086908690600090600401611319565b6000546001600160a01b031681565b60025433906001600160a01b031681146104835760405162461bcd60e51b81526004016101f290611441565b6000826001600160a01b031663013643fd6040518163ffffffff1660e01b815260040160206040518083038186803b1580156104be57600080fd5b505afa1580156104d2573d6000803e3d6000fd5b505050506040513d601f19601f820116820180604052508101906104f69190611158565b9050806001146105185760405162461bcd60e51b81526004016101f290611360565b600b80546001600160a01b0319166001600160a01b03851690811790915560405163632855e760e11b815263c650abce906102e490600190600401611652565b610560610f9e565b6040805161018081018252600180546001600160a01b03908116835260025416602083015260038054929391929184019161059a90611833565b80601f01602080910402602001604051908101604052809291908181526020018280546105c690611833565b80156106135780601f106105e857610100808354040283529160200191610613565b820191906000526020600020905b8154815290600101906020018083116105f657829003601f168201915b5050505050815260200160038201805461062c90611833565b80601f016020809104026020016040519081016040528092919081815260200182805461065890611833565b80156106a55780601f1061067a576101008083540402835291602001916106a5565b820191906000526020600020905b81548152906001019060200180831161068857829003601f168201915b505050505081526020016004820180546106be90611833565b80601f01602080910402602001604051908101604052809291908181526020018280546106ea90611833565b80156107375780601f1061070c57610100808354040283529160200191610737565b820191906000526020600020905b81548152906001019060200180831161071a57829003601f168201915b5050505050815260200160058201805461075090611833565b80601f016020809104026020016040519081016040528092919081815260200182805461077c90611833565b80156107c95780601f1061079e576101008083540402835291602001916107c9565b820191906000526020600020905b8154815290600101906020018083116107ac57829003601f168201915b505050505081526020016006820180546107e290611833565b80601f016020809104026020016040519081016040528092919081815260200182805461080e90611833565b801561085b5780601f106108305761010080835404028352916020019161085b565b820191906000526020600020905b81548152906001019060200180831161083e57829003601f168201915b5050505050815260200160078201805461087490611833565b80601f01602080910402602001604051908101604052809291908181526020018280546108a090611833565b80156108ed5780601f106108c2576101008083540402835291602001916108ed565b820191906000526020600020905b8154815290600101906020018083116108d057829003601f168201915b5050505050815260200160088201805461090690611833565b80601f016020809104026020016040519081016040528092919081815260200182805461093290611833565b801561097f5780601f106109545761010080835404028352916020019161097f565b820191906000526020600020905b81548152906001019060200180831161096257829003601f168201915b5050505050815260200160098201805461099890611833565b80601f01602080910402602001604051908101604052809291908181526020018280546109c490611833565b8015610a115780601f106109e657610100808354040283529160200191610a11565b820191906000526020600020905b8154815290600101906020018083116109f457829003601f168201915b5050509183525050600a8201546001600160a01b03166020820152600b90910154604090910152905090565b6000601082604051610a4f91906112a3565b90815260408051602092819003830181205462137c1760eb1b825291516001600160a01b0390921692639be0b80092600480840193829003018186803b158015610a9857600080fd5b505afa158015610aac573d6000803e3d6000fd5b505050506040513d601f19601f82011682018060405250810190610ad09190611158565b92915050565b6000601083604051610ae891906112a3565b90815260405190819003602001902054600d546001600160a01b03918216925016811415610b285760405162461bcd60e51b81526004016101f2906113e4565b6000601084604051610b3a91906112a3565b90815260408051602092819003830181205462137c1760eb1b825291516001600160a01b0390921692639be0b80092600480840193829003018186803b158015610b8357600080fd5b505afa158015610b97573d6000803e3d6000fd5b505050506040513d601f19601f82011682018060405250810190610bbb9190611158565b905084811015610bdd5760405162461bcd60e51b81526004016101f29061148f565b6000601085604051610bef91906112a3565b908152604080516020928190038301812054633deb12bd60e21b825291516001600160a01b039092169263f7ac4af492600480840193829003018186803b158015610c3957600080fd5b505afa158015610c4d573d6000803e3d6000fd5b505050506040513d601f19601f82011682018060405250810190610c719190611158565b610c7b90876117cc565b600054604051630e03c03b60e01b81529192506001600160a01b031690630e03c03b90610cac9087906004016112bf565b60206040518083038186803b158015610cc457600080fd5b505afa158015610cd8573d6000803e3d6000fd5b505050506040513d601f19601f82011682018060405250810190610cfc9190611158565b811115610d1b5760405162461bcd60e51b81526004016101f2906113ad565b60005460025460405163013e8a2560e41b81526001600160a01b03928316926313e8a25092610d549289929091169086906004016112d3565b600060405180830381600087803b158015610d6e57600080fd5b505af1158015610d82573d6000803e3d6000fd5b50505050601085604051610d9691906112a3565b9081526040519081900360200181205463b0b6d16160e01b82526001600160a01b03169063b0b6d16190610dce908990600401611786565b600060405180830381600087803b158015610de857600080fd5b505af1158015610dfc573d6000803e3d6000fd5b5050600f5460405163017759f360e41b81526001600160a01b0390911692506317759f309150610e359088908a90600190600401611319565b600060405180830381600087803b158015610e4f57600080fd5b505af1158015610e63573d6000803e3d6000fd5b50505050601085604051610e7791906112a3565b908152604080519182900360209081018320546001600160a01b03888116600090815260119093529290912080546001600160a01b031916929091169190911790557f63a6215c2d4b06bd0b74656dbfc6eb1fc9aa6029fbb18ebb4243d524217c672a90610eea9088908890889061178f565b60405180910390a1505050505050565b60008054604051630e03c03b60e01b81526001600160a01b0390911690630e03c03b90610f2b9033906004016112bf565b60206040518083038186803b158015610f4357600080fd5b505afa158015610f57573d6000803e3d6000fd5b505050506040513d601f19601f82011682018060405250810190610f7b9190611158565b905090565b6001600160a01b039081166000908152601160205260409020541690565b60405180610180016040528060006001600160a01b0316815260200160006001600160a01b03168152602001606081526020016060815260200160608152602001606081526020016060815260200160608152602001606081526020016060815260200160006001600160a01b03168152602001600081525090565b600082601f83011261102a578081fd5b813567ffffffffffffffff808211156110455761104561186e565b604051601f8301601f1916810160200182811182821017156110695761106961186e565b604052828152848301602001861015611080578384fd5b82602086016020830137918201602001929092529392505050565b6000602082840312156110ac578081fd5b81356110b781611884565b9392505050565b6000602082840312156110cf578081fd5b81516110b781611884565b6000602082840312156110eb578081fd5b813567ffffffffffffffff811115611101578182fd5b61110d8482850161101a565b949350505050565b60008060408385031215611127578081fd5b823567ffffffffffffffff81111561113d578182fd5b6111498582860161101a565b95602094909401359450505050565b600060208284031215611169578081fd5b5051919050565b600080600060608486031215611184578081fd5b83359250602084013567ffffffffffffffff8111156111a1578182fd5b6111ad8682870161101a565b92505060408401356111be81611884565b809150509250925092565b6001600160a01b03169052565b600081518084526111ee816020860160208601611803565b601f01601f19169290920160200192915050565b80546000906002810460018083168061121c57607f831692505b602080841082141561123c57634e487b7160e01b86526022600452602486fd5b6112468489611786565b82801561125a576001811461126b57611296565b60ff19871682528282019750611296565b611274896117c0565b60005b8781101561129057815484820152908601908401611277565b83019850505b5050505050505092915050565b600082516112b5818460208701611803565b9190910192915050565b6001600160a01b0391909116815260200190565b6001600160a01b039384168152919092166020820152604081019190915260600190565b60006040825261130a60408301856111d6565b90508260208301529392505050565b60006060825261132c60608301866111d6565b90508360208301526002831061135257634e487b7160e01b600052602160045260246000fd5b826040830152949350505050565b6020808252602d908201527f456c20636f6d65726369616c697a61646f72206465626520736572206465207460408201526c34b8379023b2b732b930b237b960991b606082015260800190565b6020808252601c908201527f4e6f207469656e657320746f6b656e7320737566696369656e74657300000000604082015260600190565b60208082526037908201527f456c207469706f20646520656e65726769612c206e6f20736520656e6375656e60408201527f7472612064656e74726f2064656c20636174616c6f676f000000000000000000606082015260800190565b6020808252602e908201527f4e6f207469656e65207065726d69736f73207061726120656a6563757461722060408201526d3630903a3930b739b0b1b1b4b7b760911b606082015260800190565b6020808252602d908201527f4e6f20707565646520636f6d70726172206d617320656e65726769612064652060408201526c6c6120646973706f6e69626c6560981b606082015260800190565b6020808252601c908201527f456c207469706f20646520656e6572676961206e6f2065786973746500000000604082015260600190565b6000602082526115276020830184516111c9565b602083015161153960408401826111c9565b5060408301516101808060608501526115566101a08501836111d6565b91506060850151601f198086850301608087015261157484836111d6565b935060808701519150808685030160a087015261159184836111d6565b935060a08701519150808685030160c08701526115ae84836111d6565b935060c08701519150808685030160e08701526115cb84836111d6565b935060e087015191506101008187860301818801526115ea85846111d6565b94508088015192505061012081878603018188015261160985846111d6565b94508088015192505061014081878603018188015261162885846111d6565b94508088015192505050610160611641818701836111c9565b959095015193019290925250919050565b60006020825261166e6020830161166985546117f7565b6111c9565b61167b60018401546117f7565b61168860408401826111c9565b506101808060608401526116a36101a0840160028601611202565b601f19808583030160808601526116bd8260038801611202565b9150808583030160a08601526116d68260048801611202565b9150808583030160c08601526116ef8260058801611202565b9150808583030160e08601526117088260068801611202565b915080858303016101008601526117228260078801611202565b9150808583030161012086015261173c8260088801611202565b91508085830301610140860152506117578160098701611202565b9050611766600a8601546117f7565b6117746101608601826111c9565b50600b94909401549201919091525090565b90815260200190565b6000848252606060208301526117a860608301856111d6565b905060018060a01b0383166040830152949350505050565b60009081526020902090565b60008160001904831182151516156117f257634e487b7160e01b81526011600452602481fd5b500290565b6001600160a01b031690565b60005b8381101561181e578181015183820152602001611806565b8381111561182d576000848401525b50505050565b60028104600182168061184757607f821691505b6020821081141561186857634e487b7160e01b600052602260045260246000fd5b50919050565b634e487b7160e01b600052604160045260246000fd5b6001600160a01b038116811461189957600080fd5b5056fea2646970667358221220ae0fdfa475a1211cffa415d7cfc2d5bf5378079975f35b7087cfe77239ff69d264736f6c63430008000033600560c09081526439b7b630b960d91b60e0526080908152610140604052600661010090815265656f6c69636160d01b6101205260a052610044906000906002610057565b5034801561005157600080fd5b506101e0565b8280548282559060005260206000209081019282156100a4579160200282015b828111156100a457825180516100949184916020909101906100b4565b5091602001919060010190610077565b506100b0929150610134565b5090565b8280546100c0906101a5565b90600052602060002090601f0160209004810192826100e25760008555610128565b82601f106100fb57805160ff1916838001178555610128565b82800160010185558215610128579182015b8281111561012857825182559160200191906001019061010d565b506100b0929150610151565b808211156100b05760006101488282610166565b50600101610134565b5b808211156100b05760008155600101610152565b508054610172906101a5565b6000825580601f1061018457506101a2565b601f0160209004906000526020600020908101906101a29190610151565b50565b6002810460018216806101b957607f821691505b602082108114156101da57634e487b7160e01b600052602260045260246000fd5b50919050565b611215806101ef6000396000f3fe608060405234801561001057600080fd5b50600436106100365760003560e01c8063259e75771461003b5780636d4fe5c714610064575b600080fd5b61004e610049366004610338565b610084565b60405161005b9190610473565b60405180910390f35b6100776100723660046103df565b61024b565b60405161005b9190610487565b6040516388d8da5f60e01b81526000908190819073__StringLibrary_________________________906388d8da5f906100c290889060040161049a565b60206040518083038186803b1580156100da57600080fd5b505af41580156100ee573d6000803e3d6000fd5b505050506040513d601f19601f820116820180604052508101906101129190610311565b156101565783604051610124906102f7565b61012e9190610562565b604051809103906000f08015801561014a573d6000803e3d6000fd5b5091506001905061021d565b6040516388d8da5f60e01b815273__StringLibrary_________________________906388d8da5f9061018d9088906004016104c6565b60206040518083038186803b1580156101a557600080fd5b505af41580156101b9573d6000803e3d6000fd5b505050506040513d601f19601f820116820180604052508101906101dd9190610311565b1561021d57836040516101ef90610304565b6101f99190610582565b604051809103906000f080158015610215573d6000803e3d6000fd5b509150600190505b806102435760405162461bcd60e51b815260040161023a906104ea565b60405180910390fd5b509392505050565b6000818154811061025b57600080fd5b90600052602060002001600091509050805461027690610594565b80601f01602080910402602001604051908101604052809291908181526020018280546102a290610594565b80156102ef5780601f106102c4576101008083540402835291602001916102ef565b820191906000526020600020905b8154815290600101906020018083116102d257829003601f168201915b505050505081565b6105fd806105e683390190565b6105fd80610be383390190565b600060208284031215610322578081fd5b81518015158114610331578182fd5b9392505050565b6000806040838503121561034a578081fd5b823567ffffffffffffffff80821115610361578283fd5b818501915085601f830112610374578283fd5b8135602082821115610388576103886105cf565b604051601f8301601f19168101820184811182821017156103ab576103ab6105cf565b60405282815284830182018910156103c1578586fd5b82828601838301379182018101949094529694909201359450505050565b6000602082840312156103f0578081fd5b5035919050565b60008151808452815b8181101561041c57602081850181015186830182015201610400565b8181111561042d5782602083870101525b50601f01601f19169290920160200192915050565b600581526439b7b630b960d91b602082015260400190565b6006815265656f6c69636160d01b602082015260400190565b6001600160a01b0391909116815260200190565b60006020825261033160208301846103f7565b6000604082526104ad60408301846103f7565b82810360208401526104be81610442565b949350505050565b6000604082526104d960408301846103f7565b82810360208401526104be8161045a565b60208082526052908201527f4e6f20657320756e207469706f20646520656e65726769612076616c69646f2c60408201527f206c6f73207469706f732076616c69646f7320736f6e3a20736f6c61722c20656060820152716f6c696361206f206869647261756c69636160701b608082015260a00190565b60006040825261057460408301610442565b905082602083015292915050565b6000604082526105746040830161045a565b6002810460018216806105a857607f821691505b602082108114156105c957634e487b7160e01b600052602260045260246000fd5b50919050565b634e487b7160e01b600052604160045260246000fdfe608060405234801561001057600080fd5b506040516105fd3803806105fd83398101604081905261002f916100e5565b815161004290600090602085019061004c565b5060025550610200565b828054610058906101af565b90600052602060002090601f01602090048101928261007a57600085556100c0565b82601f1061009357805160ff19168380011785556100c0565b828001600101855582156100c0579182015b828111156100c05782518255916020019190600101906100a5565b506100cc9291506100d0565b5090565b5b808211156100cc57600081556001016100d1565b600080604083850312156100f7578182fd5b82516001600160401b038082111561010d578384fd5b818501915085601f830112610120578384fd5b815181811115610132576101326101ea565b6040516020601f8301601f1916820181018481118382101715610157576101576101ea565b604052828252848301810189101561016d578687fd5b8693505b8284101561018e5784840181015182850182015292830192610171565b8284111561019e57868184840101525b969096015195979596505050505050565b6002810460018216806101c357607f821691505b602082108114156101e457634e487b7160e01b600052602260045260246000fd5b50919050565b634e487b7160e01b600052604160045260246000fd5b6103ee8061020f6000396000f3fe608060405234801561001057600080fd5b50600436106100885760003560e01c8063bc7b35b21161005b578063bc7b35b2146100d0578063cb86d6e6146100e5578063f5a50589146100ed578063f7ac4af41461010057610088565b80639be0b8001461008d5780639e66e0f3146100ab578063ae4f7a4c146100b3578063b0b6d161146100bb575b600080fd5b610095610108565b6040516100a2919061032f565b60405180910390f35b61009561010e565b610095610114565b6100ce6100c93660046102c4565b61011a565b005b6100d8610131565b6040516100a291906102dc565b6100d86101bf565b6100ce6100fb3660046102c4565b610251565b610095610261565b60025490565b60015481565b60025481565b60025460009061012a9083610266565b6002555050565b6000805461013e90610367565b80601f016020809104026020016040519081016040528092919081815260200182805461016a90610367565b80156101b75780601f1061018c576101008083540402835291602001916101b7565b820191906000526020600020905b81548152906001019060200180831161019a57829003601f168201915b505050505081565b6060600080546101ce90610367565b80601f01602080910402602001604051908101604052809291908181526020018280546101fa90610367565b80156102475780601f1061021c57610100808354040283529160200191610247565b820191906000526020600020905b81548152906001019060200180831161022a57829003601f168201915b5050505050905090565b60025460009061012a9083610297565b600390565b60008282111561028657634e487b7160e01b600052600160045260246000fd5b6102908284610350565b9392505050565b6000806102a48385610338565b90508381101561029057634e487b7160e01b600052600160045260246000fd5b6000602082840312156102d5578081fd5b5035919050565b6000602080835283518082850152825b81811015610308578581018301518582016040015282016102ec565b818111156103195783604083870101525b50601f01601f1916929092016040019392505050565b90815260200190565b6000821982111561034b5761034b6103a2565b500190565b600082821015610362576103626103a2565b500390565b60028104600182168061037b57607f821691505b6020821081141561039c57634e487b7160e01b600052602260045260246000fd5b50919050565b634e487b7160e01b600052601160045260246000fdfea2646970667358221220522a642ffda458c3b6d2087ad5c6ffbde8123f97b9141f11c750a44dcb8cc2db64736f6c63430008000033608060405234801561001057600080fd5b506040516105fd3803806105fd83398101604081905261002f916100e5565b815161004290600090602085019061004c565b5060025550610200565b828054610058906101af565b90600052602060002090601f01602090048101928261007a57600085556100c0565b82601f1061009357805160ff19168380011785556100c0565b828001600101855582156100c0579182015b828111156100c05782518255916020019190600101906100a5565b506100cc9291506100d0565b5090565b5b808211156100cc57600081556001016100d1565b600080604083850312156100f7578182fd5b82516001600160401b038082111561010d578384fd5b818501915085601f830112610120578384fd5b815181811115610132576101326101ea565b6040516020601f8301601f1916820181018481118382101715610157576101576101ea565b604052828252848301810189101561016d578687fd5b8693505b8284101561018e5784840181015182850182015292830192610171565b8284111561019e57868184840101525b969096015195979596505050505050565b6002810460018216806101c357607f821691505b602082108114156101e457634e487b7160e01b600052602260045260246000fd5b50919050565b634e487b7160e01b600052604160045260246000fd5b6103ee8061020f6000396000f3fe608060405234801561001057600080fd5b50600436106100885760003560e01c8063bc7b35b21161005b578063bc7b35b2146100d0578063cb86d6e6146100e5578063f5a50589146100ed578063f7ac4af41461010057610088565b80639be0b8001461008d5780639e66e0f3146100ab578063ae4f7a4c146100b3578063b0b6d161146100bb575b600080fd5b610095610108565b6040516100a2919061032f565b60405180910390f35b61009561010e565b610095610114565b6100ce6100c93660046102c4565b61011a565b005b6100d8610131565b6040516100a291906102dc565b6100d86101bf565b6100ce6100fb3660046102c4565b610251565b610095610261565b60025490565b60015481565b60025481565b60025460009061012a9083610266565b6002555050565b6000805461013e90610367565b80601f016020809104026020016040519081016040528092919081815260200182805461016a90610367565b80156101b75780601f1061018c576101008083540402835291602001916101b7565b820191906000526020600020905b81548152906001019060200180831161019a57829003601f168201915b505050505081565b6060600080546101ce90610367565b80601f01602080910402602001604051908101604052809291908181526020018280546101fa90610367565b80156102475780601f1061021c57610100808354040283529160200191610247565b820191906000526020600020905b81548152906001019060200180831161022a57829003601f168201915b5050505050905090565b60025460009061012a9083610297565b600290565b60008282111561028657634e487b7160e01b600052600160045260246000fd5b6102908284610350565b9392505050565b6000806102a48385610338565b90508381101561029057634e487b7160e01b600052600160045260246000fd5b6000602082840312156102d5578081fd5b5035919050565b6000602080835283518082850152825b81811015610308578581018301518582016040015282016102ec565b818111156103195783604083870101525b50601f01601f1916929092016040019392505050565b90815260200190565b6000821982111561034b5761034b6103a2565b500190565b600082821015610362576103626103a2565b500390565b60028104600182168061037b57607f821691505b6020821081141561039c57634e487b7160e01b600052602260045260246000fd5b50919050565b634e487b7160e01b600052601160045260246000fdfea2646970667358221220ae17df97da482874c997dd27f5d737eb79494328e54686bdd4271c62b1375a6364736f6c63430008000033a2646970667358221220d99a428a72c6953f8d33181f6c65fc8baf03cd230ccf39605b8b02aaaf9de8de64736f6c63430008000033a26469706673582212207864a565affd8e624881e3c5caece53dfc5bc1380095e5b8d0daf0031fd041fa64736f6c63430008000033",
  "immutableReferences": {},
  "source": "// SPDX-License-Identifier: MIT\r\npragma solidity ^0.8.0;\r\npragma experimental ABIEncoderV2;\r\nimport \"./models/InfoContrato.sol\";\r\nimport \"./models/Factory.sol\";\r\nimport \"./libraries/Validations.sol\";\r\nimport \"./Generador.sol\";\r\n\r\ncontract MvmGeneradorFactory is Factory {\r\n    address private bancoEnergia;\r\n    mapping(address => address) public DirContratosGeneradores;\r\n\r\n    constructor(address _reguladorMercado, address _bancoEnergia) {\r\n        owner = msg.sender;\r\n        dirContrato = address(this);\r\n        reguladorMercado = _reguladorMercado;\r\n        bancoEnergia = _bancoEnergia;\r\n    }\r\n\r\n    function FactoryContrato(InfoContrato memory _infoContrato)\r\n        public\r\n        override\r\n        canCreate\r\n    {\r\n        require(\r\n            Validations.aproveCreation(_infoContrato.owner, contratosOwners),\r\n            \"Una direccion no puede tener mas de un generador\"\r\n        );\r\n        require(\r\n            ReguladorMercado(reguladorMercado).existeSolicitud(\r\n                _infoContrato.owner\r\n            ),\r\n            \"No existe la solicitud\"\r\n        );\r\n        _infoContrato.dirContrato = DirContratosGeneradores[\r\n            _infoContrato.owner\r\n        ];\r\n        DirContratosGeneradores[_infoContrato.owner] = address(\r\n            new Generador(_infoContrato, reguladorMercado, bancoEnergia)\r\n        );\r\n        diligenciarContratoRegulador(_infoContrato.owner, _infoContrato);\r\n        contratosOwners.push(\r\n            Generador(DirContratosGeneradores[_infoContrato.owner])\r\n                .getInfoContrato()\r\n        );\r\n\r\n        emit Creacion(\r\n            _infoContrato.empresa,\r\n            DirContratosGeneradores[_infoContrato.owner]\r\n        );\r\n    }\r\n\r\n    function existeGenerador(\r\n        address contractDir,\r\n        InfoContrato[] memory arrayContracts\r\n    ) public pure returns (bool) {\r\n        return Validations.existsContract(contractDir, arrayContracts);\r\n    }\r\n\r\n}\r\n",
  "sourcePath": "C:\\Users\\alejandro.perez\\Desktop\\DemoMvmTruffle\\contracts\\MvmGeneradorFactory.sol",
  "compiler": {
    "name": "solc",
    "version": "0.8.0+commit.c7dfd78e.Emscripten.clang"
  },
  "schemaVersion": "3.4.7",
  "updatedAt": "2022-07-15T00:25:52.698Z",
  "networkType": "ethereum",
  "devdoc": {
    "kind": "dev",
    "methods": {},
    "version": 1
  },
  "userdoc": {
    "kind": "user",
    "methods": {},
    "version": 1
  }
}