{
  "contractName": "ReguladorMercado",
  "abi": [
    {
      "inputs": [
        {
          "internalType": "string",
          "name": "_name",
          "type": "string"
        }
      ],
      "stateMutability": "nonpayable",
      "type": "constructor"
    },
    {
      "anonymous": false,
      "inputs": [
        {
          "indexed": false,
          "internalType": "uint256",
          "name": "",
          "type": "uint256"
        },
        {
          "indexed": false,
          "internalType": "address",
          "name": "",
          "type": "address"
        }
      ],
      "name": "ComprandoTokens",
      "type": "event"
    },
    {
      "anonymous": false,
      "inputs": [
        {
          "components": [
            {
              "components": [
                {
                  "internalType": "address",
                  "name": "dirContrato",
                  "type": "address"
                },
                {
                  "internalType": "address",
                  "name": "owner",
                  "type": "address"
                },
                {
                  "internalType": "string",
                  "name": "nit",
                  "type": "string"
                },
                {
                  "internalType": "string",
                  "name": "empresa",
                  "type": "string"
                },
                {
                  "internalType": "string",
                  "name": "contacto",
                  "type": "string"
                },
                {
                  "internalType": "string",
                  "name": "telefono",
                  "type": "string"
                },
                {
                  "internalType": "string",
                  "name": "correo",
                  "type": "string"
                },
                {
                  "internalType": "string",
                  "name": "departamento",
                  "type": "string"
                },
                {
                  "internalType": "string",
                  "name": "ciudad",
                  "type": "string"
                },
                {
                  "internalType": "string",
                  "name": "direccion",
                  "type": "string"
                },
                {
                  "internalType": "address",
                  "name": "comercializador",
                  "type": "address"
                },
                {
                  "internalType": "uint256",
                  "name": "tipoComercio",
                  "type": "uint256"
                }
              ],
              "internalType": "struct InfoContrato",
              "name": "infoContrato",
              "type": "tuple"
            },
            {
              "internalType": "enum ReguladorMercado.TiposContratos",
              "name": "tipoContrato",
              "type": "uint8"
            }
          ],
          "indexed": false,
          "internalType": "struct ReguladorMercado.SolicitudContrato",
          "name": "",
          "type": "tuple"
        }
      ],
      "name": "ContratoDiligenciado",
      "type": "event"
    },
    {
      "anonymous": false,
      "inputs": [
        {
          "indexed": false,
          "internalType": "uint256",
          "name": "",
          "type": "uint256"
        },
        {
          "indexed": false,
          "internalType": "address",
          "name": "",
          "type": "address"
        },
        {
          "indexed": false,
          "internalType": "address",
          "name": "",
          "type": "address"
        }
      ],
      "name": "EnviarTokensEvent",
      "type": "event"
    },
    {
      "anonymous": false,
      "inputs": [
        {
          "components": [
            {
              "components": [
                {
                  "internalType": "address",
                  "name": "dirContrato",
                  "type": "address"
                },
                {
                  "internalType": "address",
                  "name": "owner",
                  "type": "address"
                },
                {
                  "internalType": "string",
                  "name": "nit",
                  "type": "string"
                },
                {
                  "internalType": "string",
                  "name": "empresa",
                  "type": "string"
                },
                {
                  "internalType": "string",
                  "name": "contacto",
                  "type": "string"
                },
                {
                  "internalType": "string",
                  "name": "telefono",
                  "type": "string"
                },
                {
                  "internalType": "string",
                  "name": "correo",
                  "type": "string"
                },
                {
                  "internalType": "string",
                  "name": "departamento",
                  "type": "string"
                },
                {
                  "internalType": "string",
                  "name": "ciudad",
                  "type": "string"
                },
                {
                  "internalType": "string",
                  "name": "direccion",
                  "type": "string"
                },
                {
                  "internalType": "address",
                  "name": "comercializador",
                  "type": "address"
                },
                {
                  "internalType": "uint256",
                  "name": "tipoComercio",
                  "type": "uint256"
                }
              ],
              "internalType": "struct InfoContrato",
              "name": "infoContrato",
              "type": "tuple"
            },
            {
              "internalType": "enum ReguladorMercado.TiposContratos",
              "name": "tipoContrato",
              "type": "uint8"
            }
          ],
          "indexed": false,
          "internalType": "struct ReguladorMercado.SolicitudContrato",
          "name": "",
          "type": "tuple"
        }
      ],
      "name": "SolicitudDeRegistro",
      "type": "event"
    },
    {
      "anonymous": false,
      "inputs": [
        {
          "indexed": false,
          "internalType": "uint256",
          "name": "",
          "type": "uint256"
        },
        {
          "indexed": false,
          "internalType": "address",
          "name": "",
          "type": "address"
        }
      ],
      "name": "tokensDevueltos",
      "type": "event"
    },
    {
      "inputs": [],
      "name": "cantidadTokens",
      "outputs": [
        {
          "internalType": "uint256",
          "name": "",
          "type": "uint256"
        }
      ],
      "stateMutability": "view",
      "type": "function",
      "constant": true
    },
    {
      "inputs": [],
      "name": "dirContrato",
      "outputs": [
        {
          "internalType": "address",
          "name": "",
          "type": "address"
        }
      ],
      "stateMutability": "view",
      "type": "function",
      "constant": true
    },
    {
      "inputs": [],
      "name": "name",
      "outputs": [
        {
          "internalType": "string",
          "name": "",
          "type": "string"
        }
      ],
      "stateMutability": "view",
      "type": "function",
      "constant": true
    },
    {
      "inputs": [],
      "name": "owner",
      "outputs": [
        {
          "internalType": "address",
          "name": "",
          "type": "address"
        }
      ],
      "stateMutability": "view",
      "type": "function",
      "constant": true
    },
    {
      "inputs": [
        {
          "internalType": "uint256",
          "name": "numTokens",
          "type": "uint256"
        }
      ],
      "name": "GenerarTokens",
      "outputs": [],
      "stateMutability": "nonpayable",
      "type": "function"
    },
    {
      "inputs": [],
      "name": "TokensDisponibles",
      "outputs": [
        {
          "internalType": "uint256",
          "name": "",
          "type": "uint256"
        }
      ],
      "stateMutability": "view",
      "type": "function",
      "constant": true
    },
    {
      "inputs": [
        {
          "internalType": "uint256",
          "name": "numTokens",
          "type": "uint256"
        }
      ],
      "name": "ComprarTokens",
      "outputs": [],
      "stateMutability": "payable",
      "type": "function",
      "payable": true
    },
    {
      "inputs": [
        {
          "internalType": "address",
          "name": "_dir1",
          "type": "address"
        },
        {
          "internalType": "address",
          "name": "_dir2",
          "type": "address"
        },
        {
          "internalType": "uint256",
          "name": "numTokens",
          "type": "uint256"
        }
      ],
      "name": "IntercambiarTokens",
      "outputs": [],
      "stateMutability": "nonpayable",
      "type": "function"
    },
    {
      "inputs": [
        {
          "internalType": "address",
          "name": "_direction",
          "type": "address"
        }
      ],
      "name": "MisTokens",
      "outputs": [
        {
          "internalType": "uint256",
          "name": "",
          "type": "uint256"
        }
      ],
      "stateMutability": "view",
      "type": "function",
      "constant": true
    },
    {
      "inputs": [
        {
          "internalType": "uint256",
          "name": "numTokens",
          "type": "uint256"
        }
      ],
      "name": "DevolverTokens",
      "outputs": [],
      "stateMutability": "nonpayable",
      "type": "function"
    },
    {
      "inputs": [
        {
          "internalType": "address",
          "name": "delegate",
          "type": "address"
        },
        {
          "internalType": "uint256",
          "name": "numTokens",
          "type": "uint256"
        }
      ],
      "name": "delegarTokens",
      "outputs": [],
      "stateMutability": "nonpayable",
      "type": "function"
    },
    {
      "inputs": [],
      "name": "getSolicitudes",
      "outputs": [
        {
          "components": [
            {
              "components": [
                {
                  "internalType": "address",
                  "name": "dirContrato",
                  "type": "address"
                },
                {
                  "internalType": "address",
                  "name": "owner",
                  "type": "address"
                },
                {
                  "internalType": "string",
                  "name": "nit",
                  "type": "string"
                },
                {
                  "internalType": "string",
                  "name": "empresa",
                  "type": "string"
                },
                {
                  "internalType": "string",
                  "name": "contacto",
                  "type": "string"
                },
                {
                  "internalType": "string",
                  "name": "telefono",
                  "type": "string"
                },
                {
                  "internalType": "string",
                  "name": "correo",
                  "type": "string"
                },
                {
                  "internalType": "string",
                  "name": "departamento",
                  "type": "string"
                },
                {
                  "internalType": "string",
                  "name": "ciudad",
                  "type": "string"
                },
                {
                  "internalType": "string",
                  "name": "direccion",
                  "type": "string"
                },
                {
                  "internalType": "address",
                  "name": "comercializador",
                  "type": "address"
                },
                {
                  "internalType": "uint256",
                  "name": "tipoComercio",
                  "type": "uint256"
                }
              ],
              "internalType": "struct InfoContrato",
              "name": "infoContrato",
              "type": "tuple"
            },
            {
              "internalType": "enum ReguladorMercado.TiposContratos",
              "name": "tipoContrato",
              "type": "uint8"
            }
          ],
          "internalType": "struct ReguladorMercado.SolicitudContrato[]",
          "name": "",
          "type": "tuple[]"
        }
      ],
      "stateMutability": "view",
      "type": "function",
      "constant": true
    },
    {
      "inputs": [],
      "name": "getRegistros",
      "outputs": [
        {
          "components": [
            {
              "components": [
                {
                  "internalType": "address",
                  "name": "dirContrato",
                  "type": "address"
                },
                {
                  "internalType": "address",
                  "name": "owner",
                  "type": "address"
                },
                {
                  "internalType": "string",
                  "name": "nit",
                  "type": "string"
                },
                {
                  "internalType": "string",
                  "name": "empresa",
                  "type": "string"
                },
                {
                  "internalType": "string",
                  "name": "contacto",
                  "type": "string"
                },
                {
                  "internalType": "string",
                  "name": "telefono",
                  "type": "string"
                },
                {
                  "internalType": "string",
                  "name": "correo",
                  "type": "string"
                },
                {
                  "internalType": "string",
                  "name": "departamento",
                  "type": "string"
                },
                {
                  "internalType": "string",
                  "name": "ciudad",
                  "type": "string"
                },
                {
                  "internalType": "string",
                  "name": "direccion",
                  "type": "string"
                },
                {
                  "internalType": "address",
                  "name": "comercializador",
                  "type": "address"
                },
                {
                  "internalType": "uint256",
                  "name": "tipoComercio",
                  "type": "uint256"
                }
              ],
              "internalType": "struct InfoContrato",
              "name": "infoContrato",
              "type": "tuple"
            },
            {
              "internalType": "enum ReguladorMercado.TiposContratos",
              "name": "tipoContrato",
              "type": "uint8"
            }
          ],
          "internalType": "struct ReguladorMercado.SolicitudContrato[]",
          "name": "",
          "type": "tuple[]"
        }
      ],
      "stateMutability": "view",
      "type": "function",
      "constant": true
    },
    {
      "inputs": [
        {
          "components": [
            {
              "internalType": "address",
              "name": "dirContrato",
              "type": "address"
            },
            {
              "internalType": "address",
              "name": "owner",
              "type": "address"
            },
            {
              "internalType": "string",
              "name": "nit",
              "type": "string"
            },
            {
              "internalType": "string",
              "name": "empresa",
              "type": "string"
            },
            {
              "internalType": "string",
              "name": "contacto",
              "type": "string"
            },
            {
              "internalType": "string",
              "name": "telefono",
              "type": "string"
            },
            {
              "internalType": "string",
              "name": "correo",
              "type": "string"
            },
            {
              "internalType": "string",
              "name": "departamento",
              "type": "string"
            },
            {
              "internalType": "string",
              "name": "ciudad",
              "type": "string"
            },
            {
              "internalType": "string",
              "name": "direccion",
              "type": "string"
            },
            {
              "internalType": "address",
              "name": "comercializador",
              "type": "address"
            },
            {
              "internalType": "uint256",
              "name": "tipoComercio",
              "type": "uint256"
            }
          ],
          "internalType": "struct InfoContrato",
          "name": "_infoContrato",
          "type": "tuple"
        },
        {
          "internalType": "uint256",
          "name": "_tipoContrato",
          "type": "uint256"
        }
      ],
      "name": "registrarSolicitud",
      "outputs": [],
      "stateMutability": "nonpayable",
      "type": "function"
    },
    {
      "inputs": [
        {
          "internalType": "uint256",
          "name": "index",
          "type": "uint256"
        },
        {
          "components": [
            {
              "internalType": "address",
              "name": "dirContrato",
              "type": "address"
            },
            {
              "internalType": "address",
              "name": "owner",
              "type": "address"
            },
            {
              "internalType": "string",
              "name": "nit",
              "type": "string"
            },
            {
              "internalType": "string",
              "name": "empresa",
              "type": "string"
            },
            {
              "internalType": "string",
              "name": "contacto",
              "type": "string"
            },
            {
              "internalType": "string",
              "name": "telefono",
              "type": "string"
            },
            {
              "internalType": "string",
              "name": "correo",
              "type": "string"
            },
            {
              "internalType": "string",
              "name": "departamento",
              "type": "string"
            },
            {
              "internalType": "string",
              "name": "ciudad",
              "type": "string"
            },
            {
              "internalType": "string",
              "name": "direccion",
              "type": "string"
            },
            {
              "internalType": "address",
              "name": "comercializador",
              "type": "address"
            },
            {
              "internalType": "uint256",
              "name": "tipoComercio",
              "type": "uint256"
            }
          ],
          "internalType": "struct InfoContrato",
          "name": "infoContrato",
          "type": "tuple"
        }
      ],
      "name": "diligenciarSolicitud",
      "outputs": [],
      "stateMutability": "nonpayable",
      "type": "function"
    },
    {
      "inputs": [],
      "name": "getOwner",
      "outputs": [
        {
          "internalType": "address",
          "name": "",
          "type": "address"
        }
      ],
      "stateMutability": "view",
      "type": "function",
      "constant": true
    },
    {
      "inputs": [
        {
          "internalType": "address",
          "name": "ownerSolicitud",
          "type": "address"
        }
      ],
      "name": "existeSolicitud",
      "outputs": [
        {
          "internalType": "bool",
          "name": "",
          "type": "bool"
        }
      ],
      "stateMutability": "view",
      "type": "function",
      "constant": true
    },
    {
      "inputs": [
        {
          "components": [
            {
              "internalType": "address",
              "name": "dirContrato",
              "type": "address"
            },
            {
              "internalType": "address",
              "name": "owner",
              "type": "address"
            },
            {
              "internalType": "string",
              "name": "nit",
              "type": "string"
            },
            {
              "internalType": "string",
              "name": "empresa",
              "type": "string"
            },
            {
              "internalType": "string",
              "name": "contacto",
              "type": "string"
            },
            {
              "internalType": "string",
              "name": "telefono",
              "type": "string"
            },
            {
              "internalType": "string",
              "name": "correo",
              "type": "string"
            },
            {
              "internalType": "string",
              "name": "departamento",
              "type": "string"
            },
            {
              "internalType": "string",
              "name": "ciudad",
              "type": "string"
            },
            {
              "internalType": "string",
              "name": "direccion",
              "type": "string"
            },
            {
              "internalType": "address",
              "name": "comercializador",
              "type": "address"
            },
            {
              "internalType": "uint256",
              "name": "tipoComercio",
              "type": "uint256"
            }
          ],
          "internalType": "struct InfoContrato",
          "name": "infoContrato",
          "type": "tuple"
        },
        {
          "internalType": "enum ReguladorMercado.TiposContratos",
          "name": "tipoContrato",
          "type": "uint8"
        }
      ],
      "name": "setRegistroContrato",
      "outputs": [],
      "stateMutability": "nonpayable",
      "type": "function"
    },
    {
      "inputs": [],
      "name": "validarUsuario",
      "outputs": [
        {
          "internalType": "bool",
          "name": "",
          "type": "bool"
        },
        {
          "internalType": "address",
          "name": "",
          "type": "address"
        },
        {
          "internalType": "enum ReguladorMercado.TiposContratos",
          "name": "",
          "type": "uint8"
        }
      ],
      "stateMutability": "view",
      "type": "function",
      "constant": true
    },
    {
      "inputs": [
        {
          "internalType": "address",
          "name": "dir",
          "type": "address"
        }
      ],
      "name": "getIndexSolicitudes",
      "outputs": [
        {
          "internalType": "uint256",
          "name": "",
          "type": "uint256"
        }
      ],
      "stateMutability": "view",
      "type": "function",
      "constant": true
    }
  ],
  "bytecode": "0x6080604052620f42406004553480156200001857600080fd5b5060405162003d4d38038062003d4d8339810160408190526200003b9162000187565b805162000050906001906020840190620000d3565b50600280546001600160a01b031990811633179091556003805490911630179055600454604051620000829062000162565b6200008e919062000256565b604051809103906000f080158015620000ab573d6000803e3d6000fd5b50600080546001600160a01b0319166001600160a01b039290921691909117905550620002b2565b828054620000e1906200025f565b90600052602060002090601f01602090048101928262000105576000855562000150565b82601f106200012057805160ff191683800117855562000150565b8280016001018555821562000150579182015b828111156200015057825182559160200191906001019062000133565b506200015e92915062000170565b5090565b61095680620033f783390190565b5b808211156200015e576000815560010162000171565b600060208083850312156200019a578182fd5b82516001600160401b0380821115620001b1578384fd5b818501915085601f830112620001c5578384fd5b815181811115620001da57620001da6200029c565b604051601f8201601f19168101850183811182821017156200020057620002006200029c565b604052818152838201850188101562000217578586fd5b8592505b818310156200023a57838301850151818401860152918401916200021b565b818311156200024b57858583830101525b979650505050505050565b90815260200190565b6002810460018216806200027457607f821691505b602082108114156200029657634e487b7160e01b600052602260045260246000fd5b50919050565b634e487b7160e01b600052604160045260246000fd5b61313580620002c26000396000f3fe60806040526004361061011f5760003560e01c8063856788df116100a0578063b2222c9211610064578063b2222c9214610312578063d1931ccf14610332578063dc0b0ee414610345578063e7f3979f14610365578063fd889ff51461037a5761011f565b8063856788df1461028f578063893d20e8146102b15780638da5cb5b146102c6578063a28fe68c146102db578063ab9e41b4146102fd5761011f565b806325a977cf116100e757806325a977cf146101de57806340fd3f39146101fe57806370f4a4df1461022b5780637c1b38bf1461024b5780637d3ecc691461026b5761011f565b806306fdde03146101245780630d098a3b1461014f5780630e03c03b1461017c57806313e8a2501461019c5780631890154c146101be575b600080fd5b34801561013057600080fd5b5061013961038f565b6040516101469190612cc8565b60405180910390f35b34801561015b57600080fd5b5061016f61016a3660046127c3565b61041d565b6040516101469190612fc0565b34801561018857600080fd5b5061016f6101973660046127c3565b610497565b3480156101a857600080fd5b506101bc6101b73660046127e4565b61051e565b005b3480156101ca57600080fd5b506101bc6101d93660046128fe565b6105e5565b3480156101ea57600080fd5b506101bc6101f9366004612868565b61072f565b34801561020a57600080fd5b5061021e6102193660046127c3565b61090b565b6040516101469190612c98565b34801561023757600080fd5b506101bc6102463660046128bb565b61098f565b34801561025757600080fd5b506101bc6102663660046128fe565b610c1c565b34801561027757600080fd5b50610280610c9b565b60405161014693929190612ca3565b34801561029b57600080fd5b506102a4610dd3565b6040516101469190612be7565b3480156102bd57600080fd5b506102a4610de2565b3480156102d257600080fd5b506102a4610df1565b3480156102e757600080fd5b506102f0610e00565b6040516101469190612c38565b34801561030957600080fd5b5061016f61138c565b34801561031e57600080fd5b506101bc61032d36600461292e565b611392565b6101bc6103403660046128fe565b611c64565b34801561035157600080fd5b506101bc61036036600461281f565b611db0565b34801561037157600080fd5b506102f0611e39565b34801561038657600080fd5b5061016f6123bc565b6001805461039c90613077565b80601f01602080910402602001604051908101604052809291908181526020018280546103c890613077565b80156104155780601f106103ea57610100808354040283529160200191610415565b820191906000526020600020905b8154815290600101906020018083116103f857829003601f168201915b505050505081565b6000805b60055481101561048c576005818154811061044c57634e487b7160e01b600052603260045260246000fd5b600091825260209091206001600d9092020101546001600160a01b038481169116141561047a579050610492565b80610484816130b8565b915050610421565b50600090505b919050565b600080546040516370a0823160e01b81526001600160a01b03909116906370a08231906104c8908590600401612be7565b60206040518083038186803b1580156104e057600080fd5b505afa1580156104f4573d6000803e3d6000fd5b505050506040513d601f19601f820116820180604052508101906105189190612916565b92915050565b6000546040516323b872dd60e01b81526001600160a01b03909116906323b872dd9061055290869086908690600401612bfb565b602060405180830381600087803b15801561056c57600080fd5b505af1158015610580573d6000803e3d6000fd5b505050506040513d601f19601f820116820180604052508101906105a49190612848565b507f2438343549d9535d8f8ff03f9ebc22e59fd8d234198ede2a2af0cae7c2dfa85d8184846040516105d893929190612fe0565b60405180910390a1505050565b6000811161060e5760405162461bcd60e51b815260040161060590612cdb565b60405180910390fd5b61061733610497565b8111156106365760405162461bcd60e51b815260040161060590612daf565b600054604051633bb92e3560e21b81526001600160a01b039091169063eee4b8d49061066a90339030908690600401612bfb565b602060405180830381600087803b15801561068457600080fd5b505af1158015610698573d6000803e3d6000fd5b505050506040513d601f19601f820116820180604052508101906106bc9190612848565b50336108fc6106ca83612446565b6040518115909202916000818181858888f193505050501580156106f2573d6000803e3d6000fd5b507fa997a52566b1f8380f086c733e70d49a141eafece6addc432a411a73ec45c6888133604051610724929190612fc9565b60405180910390a150565b6006604051806040016040528084815260200183600481111561076257634e487b7160e01b600052602160045260246000fd5b9052815460018181018455600093845260209384902083518051600d90940290910180546001600160a01b039485166001600160a01b031991821617825582870151938201805494909516931692909217909255604082015180519394919384926107d4926002850192910190612459565b50606082015180516107f0916003840191602090910190612459565b506080820151805161080c916004840191602090910190612459565b5060a08201518051610828916005840191602090910190612459565b5060c08201518051610844916006840191602090910190612459565b5060e08201518051610860916007840191602090910190612459565b50610100820151805161087d916008840191602090910190612459565b50610120820151805161089a916009840191602090910190612459565b50610140820151600a820180546001600160a01b0319166001600160a01b0390921691909117905561016090910151600b909101556020820151600c8201805460ff1916600183600481111561090057634e487b7160e01b600052602160045260246000fd5b021790555050505050565b600554600090156109875760005b60055481101561048c576005818154811061094457634e487b7160e01b600052603260045260246000fd5b600091825260209091206001600d9092020101546001600160a01b0384811691161415610975576001915050610492565b8061097f816130b8565b915050610919565b506000919050565b600061099a3361090b565b905080156109ba5760405162461bcd60e51b815260040161060590612d2a565b600560405180604001604052808581526020018460048111156109ed57634e487b7160e01b600052602160045260246000fd5b6004811115610a0c57634e487b7160e01b600052602160045260246000fd5b9052815460018181018455600093845260209384902083518051600d90940290910180546001600160a01b039485166001600160a01b03199182161782558287015193820180549490951693169290921790925560408201518051939491938492610a7e926002850192910190612459565b5060608201518051610a9a916003840191602090910190612459565b5060808201518051610ab6916004840191602090910190612459565b5060a08201518051610ad2916005840191602090910190612459565b5060c08201518051610aee916006840191602090910190612459565b5060e08201518051610b0a916007840191602090910190612459565b506101008201518051610b27916008840191602090910190612459565b506101208201518051610b44916009840191602090910190612459565b50610140820151600a820180546001600160a01b0319166001600160a01b0390921691909117905561016090910151600b909101556020820151600c8201805460ff19166001836004811115610baa57634e487b7160e01b600052602160045260246000fd5b021790555050600580547fcebcb95b72d4f2d7173b83fa812efaa148952f3604350b50c7c1120da3f1ad1c9250610be390600190613054565b81548110610c0157634e487b7160e01b600052603260045260246000fd5b90600052602060002090600d02016040516105d89190612e68565b60025433906001600160a01b03168114610c3557600080fd5b6000546040516303a8799360e31b81526001600160a01b0390911690631d43cc9890610c65908590600401612fc0565b600060405180830381600087803b158015610c7f57600080fd5b505af1158015610c93573d6000803e3d6000fd5b505050505050565b600254600090819081906001600160a01b0316331415610cce57505060038054600192506001600160a01b031690610dce565b60065415610dc35760005b600654811015610dc15760068181548110610d0457634e487b7160e01b600052603260045260246000fd5b60009182526020909120600d90910201600101546001600160a01b0316331415610daf57600160068281548110610d4b57634e487b7160e01b600052603260045260246000fd5b60009182526020909120600d9091020154600680546001600160a01b039092169184908110610d8a57634e487b7160e01b600052603260045260246000fd5b60009182526020909120600c600d909202010154919550935060ff169150610dce9050565b80610db9816130b8565b915050610cd9565b505b506000915081905060045b909192565b6003546001600160a01b031681565b6002546001600160a01b031690565b6002546001600160a01b031681565b60606006805480602002602001604051908101604052809291908181526020016000905b8282101561138357600084815260209020604080516101c081018252600d850290920180546001600160a01b0390811692840192835260018201541660608401526002810180549192849290918491608085019190610e8290613077565b80601f0160208091040260200160405190810160405280929190818152602001828054610eae90613077565b8015610efb5780601f10610ed057610100808354040283529160200191610efb565b820191906000526020600020905b815481529060010190602001808311610ede57829003601f168201915b50505050508152602001600382018054610f1490613077565b80601f0160208091040260200160405190810160405280929190818152602001828054610f4090613077565b8015610f8d5780601f10610f6257610100808354040283529160200191610f8d565b820191906000526020600020905b815481529060010190602001808311610f7057829003601f168201915b50505050508152602001600482018054610fa690613077565b80601f0160208091040260200160405190810160405280929190818152602001828054610fd290613077565b801561101f5780601f10610ff45761010080835404028352916020019161101f565b820191906000526020600020905b81548152906001019060200180831161100257829003601f168201915b5050505050815260200160058201805461103890613077565b80601f016020809104026020016040519081016040528092919081815260200182805461106490613077565b80156110b15780601f10611086576101008083540402835291602001916110b1565b820191906000526020600020905b81548152906001019060200180831161109457829003601f168201915b505050505081526020016006820180546110ca90613077565b80601f01602080910402602001604051908101604052809291908181526020018280546110f690613077565b80156111435780601f1061111857610100808354040283529160200191611143565b820191906000526020600020905b81548152906001019060200180831161112657829003601f168201915b5050505050815260200160078201805461115c90613077565b80601f016020809104026020016040519081016040528092919081815260200182805461118890613077565b80156111d55780601f106111aa576101008083540402835291602001916111d5565b820191906000526020600020905b8154815290600101906020018083116111b857829003601f168201915b505050505081526020016008820180546111ee90613077565b80601f016020809104026020016040519081016040528092919081815260200182805461121a90613077565b80156112675780601f1061123c57610100808354040283529160200191611267565b820191906000526020600020905b81548152906001019060200180831161124a57829003601f168201915b5050505050815260200160098201805461128090613077565b80601f01602080910402602001604051908101604052809291908181526020018280546112ac90613077565b80156112f95780601f106112ce576101008083540402835291602001916112f9565b820191906000526020600020905b8154815290600101906020018083116112dc57829003601f168201915b5050509183525050600a8201546001600160a01b0316602080830191909152600b90920154604090910152908252600c83015491019060ff16600481111561135157634e487b7160e01b600052602160045260246000fd5b600481111561137057634e487b7160e01b600052602160045260246000fd5b8152505081526020019060010190610e24565b50505050905090565b60045481565b60025432906001600160a01b031681146113ab57600080fd5b6000600584815481106113ce57634e487b7160e01b600052603260045260246000fd5b60009182526020909120604080516101c081018252600d90930290910180546001600160a01b039081169284019283526001820154166060840152600281018054919284929091849160808501919061142690613077565b80601f016020809104026020016040519081016040528092919081815260200182805461145290613077565b801561149f5780601f106114745761010080835404028352916020019161149f565b820191906000526020600020905b81548152906001019060200180831161148257829003601f168201915b505050505081526020016003820180546114b890613077565b80601f01602080910402602001604051908101604052809291908181526020018280546114e490613077565b80156115315780601f1061150657610100808354040283529160200191611531565b820191906000526020600020905b81548152906001019060200180831161151457829003601f168201915b5050505050815260200160048201805461154a90613077565b80601f016020809104026020016040519081016040528092919081815260200182805461157690613077565b80156115c35780601f10611598576101008083540402835291602001916115c3565b820191906000526020600020905b8154815290600101906020018083116115a657829003601f168201915b505050505081526020016005820180546115dc90613077565b80601f016020809104026020016040519081016040528092919081815260200182805461160890613077565b80156116555780601f1061162a57610100808354040283529160200191611655565b820191906000526020600020905b81548152906001019060200180831161163857829003601f168201915b5050505050815260200160068201805461166e90613077565b80601f016020809104026020016040519081016040528092919081815260200182805461169a90613077565b80156116e75780601f106116bc576101008083540402835291602001916116e7565b820191906000526020600020905b8154815290600101906020018083116116ca57829003601f168201915b5050505050815260200160078201805461170090613077565b80601f016020809104026020016040519081016040528092919081815260200182805461172c90613077565b80156117795780601f1061174e57610100808354040283529160200191611779565b820191906000526020600020905b81548152906001019060200180831161175c57829003601f168201915b5050505050815260200160088201805461179290613077565b80601f01602080910402602001604051908101604052809291908181526020018280546117be90613077565b801561180b5780601f106117e05761010080835404028352916020019161180b565b820191906000526020600020905b8154815290600101906020018083116117ee57829003601f168201915b5050505050815260200160098201805461182490613077565b80601f016020809104026020016040519081016040528092919081815260200182805461185090613077565b801561189d5780601f106118725761010080835404028352916020019161189d565b820191906000526020600020905b81548152906001019060200180831161188057829003601f168201915b5050509183525050600a8201546001600160a01b0316602080830191909152600b90920154604090910152908252600c83015491019060ff1660048111156118f557634e487b7160e01b600052602160045260246000fd5b600481111561191457634e487b7160e01b600052602160045260246000fd5b905250600580549192509061192b90600190613054565b8154811061194957634e487b7160e01b600052603260045260246000fd5b90600052602060002090600d02016005858154811061197857634e487b7160e01b600052603260045260246000fd5b600091825260209091208254600d9092020180546001600160a01b039283166001600160a01b03199182161782556001808501549083018054919094169116179091556002808301805484928492908301916119d390613077565b6119de9291906124dd565b5060038201816003019080546119f390613077565b6119fe9291906124dd565b506004820181600401908054611a1390613077565b611a1e9291906124dd565b506005820181600501908054611a3390613077565b611a3e9291906124dd565b506006820181600601908054611a5390613077565b611a5e9291906124dd565b506007820181600701908054611a7390613077565b611a7e9291906124dd565b506008820181600801908054611a9390613077565b611a9e9291906124dd565b506009820181600901908054611ab390613077565b611abe9291906124dd565b50600a8281015490820180546001600160a01b0319166001600160a01b03909216919091179055600b91820154910155600c82810154908201805460ff9092169160ff19166001836004811115611b2557634e487b7160e01b600052602160045260246000fd5b02179055509050506005805480611b4c57634e487b7160e01b600052603160045260246000fd5b600082815260208120600d6000199093019283020180546001600160a01b031990811682556001820180549091169055908181611b8c6002830182612558565b611b9a600383016000612558565b611ba8600483016000612558565b611bb6600583016000612558565b611bc4600683016000612558565b611bd2600783016000612558565b611be0600883016000612558565b611bee600983016000612558565b50600a810180546001600160a01b03191690556000600b9091015550600c01805460ff1916905590556020810151611c2790849061072f565b7f8b35a8f8c2dc10b4672d1a95decdf391e3ef83540f79c8233f966a7642d403d581604051611c569190612e55565b60405180910390a150505050565b6000611c6f82612446565b905080341015611c915760405162461bcd60e51b815260040161060590612e0c565b6000611c9d8234613054565b604051909150339082156108fc029083906000818181858888f19350505050158015611ccd573d6000803e3d6000fd5b506000611cd86123bc565b905080841115611cfa5760405162461bcd60e51b815260040161060590612d6c565b60005460405163a9059cbb60e01b81526001600160a01b039091169063a9059cbb90611d2c9033908890600401612c1f565b602060405180830381600087803b158015611d4657600080fd5b505af1158015611d5a573d6000803e3d6000fd5b505050506040513d601f19601f82011682018060405250810190611d7e9190612848565b507fc5d46be962adb867acf29dce93ab611e9064bffee951e4db9e52c693f73f4c388433604051611c56929190612fc9565b60005460405163095ea7b360e01b81526001600160a01b039091169063095ea7b390611de29085908590600401612c1f565b602060405180830381600087803b158015611dfc57600080fd5b505af1158015611e10573d6000803e3d6000fd5b505050506040513d601f19601f82011682018060405250810190611e349190612848565b505050565b60606005805480602002602001604051908101604052809291908181526020016000905b8282101561138357600084815260209020604080516101c081018252600d850290920180546001600160a01b0390811692840192835260018201541660608401526002810180549192849290918491608085019190611ebb90613077565b80601f0160208091040260200160405190810160405280929190818152602001828054611ee790613077565b8015611f345780601f10611f0957610100808354040283529160200191611f34565b820191906000526020600020905b815481529060010190602001808311611f1757829003601f168201915b50505050508152602001600382018054611f4d90613077565b80601f0160208091040260200160405190810160405280929190818152602001828054611f7990613077565b8015611fc65780601f10611f9b57610100808354040283529160200191611fc6565b820191906000526020600020905b815481529060010190602001808311611fa957829003601f168201915b50505050508152602001600482018054611fdf90613077565b80601f016020809104026020016040519081016040528092919081815260200182805461200b90613077565b80156120585780601f1061202d57610100808354040283529160200191612058565b820191906000526020600020905b81548152906001019060200180831161203b57829003601f168201915b5050505050815260200160058201805461207190613077565b80601f016020809104026020016040519081016040528092919081815260200182805461209d90613077565b80156120ea5780601f106120bf576101008083540402835291602001916120ea565b820191906000526020600020905b8154815290600101906020018083116120cd57829003601f168201915b5050505050815260200160068201805461210390613077565b80601f016020809104026020016040519081016040528092919081815260200182805461212f90613077565b801561217c5780601f106121515761010080835404028352916020019161217c565b820191906000526020600020905b81548152906001019060200180831161215f57829003601f168201915b5050505050815260200160078201805461219590613077565b80601f01602080910402602001604051908101604052809291908181526020018280546121c190613077565b801561220e5780601f106121e35761010080835404028352916020019161220e565b820191906000526020600020905b8154815290600101906020018083116121f157829003601f168201915b5050505050815260200160088201805461222790613077565b80601f016020809104026020016040519081016040528092919081815260200182805461225390613077565b80156122a05780601f10612275576101008083540402835291602001916122a0565b820191906000526020600020905b81548152906001019060200180831161228357829003601f168201915b505050505081526020016009820180546122b990613077565b80601f01602080910402602001604051908101604052809291908181526020018280546122e590613077565b80156123325780601f1061230757610100808354040283529160200191612332565b820191906000526020600020905b81548152906001019060200180831161231557829003601f168201915b5050509183525050600a8201546001600160a01b0316602080830191909152600b90920154604090910152908252600c83015491019060ff16600481111561238a57634e487b7160e01b600052602160045260246000fd5b60048111156123a957634e487b7160e01b600052602160045260246000fd5b8152505081526020019060010190611e5d565b600080546003546040516370a0823160e01b81526001600160a01b03928316926370a08231926123f192911690600401612be7565b60206040518083038186803b15801561240957600080fd5b505afa15801561241d573d6000803e3d6000fd5b505050506040513d601f19601f820116820180604052508101906124419190612916565b905090565b60006105188266038d7ea4c68000613035565b82805461246590613077565b90600052602060002090601f01602090048101928261248757600085556124cd565b82601f106124a057805160ff19168380011785556124cd565b828001600101855582156124cd579182015b828111156124cd5782518255916020019190600101906124b2565b506124d9929150612597565b5090565b8280546124e990613077565b90600052602060002090601f01602090048101928261250b57600085556124cd565b82601f1061251c57805485556124cd565b828001600101855582156124cd57600052602060002091601f016020900482015b828111156124cd57825482559160010191906001019061253d565b50805461256490613077565b6000825580601f106125765750612594565b601f0160209004906000526020600020908101906125949190612597565b50565b5b808211156124d95760008155600101612598565b80356001600160a01b038116811461049257600080fd5b600082601f8301126125d3578081fd5b813567ffffffffffffffff8111156125ed576125ed6130e9565b612600601f8201601f1916602001612fff565b818152846020838601011115612614578283fd5b816020850160208301379081016020019190915292915050565b6000610180808385031215612641578182fd5b61264a81612fff565b915050612656826125ac565b8152612664602083016125ac565b6020820152604082013567ffffffffffffffff8082111561268457600080fd5b612690858386016125c3565b604084015260608401359150808211156126a957600080fd5b6126b5858386016125c3565b606084015260808401359150808211156126ce57600080fd5b6126da858386016125c3565b608084015260a08401359150808211156126f357600080fd5b6126ff858386016125c3565b60a084015260c084013591508082111561271857600080fd5b612724858386016125c3565b60c084015260e084013591508082111561273d57600080fd5b612749858386016125c3565b60e08401526101009150818401358181111561276457600080fd5b612770868287016125c3565b83850152506101209150818401358181111561278b57600080fd5b612797868287016125c3565b838501525050506101406127ac8184016125ac565b818301525061016080830135818301525092915050565b6000602082840312156127d4578081fd5b6127dd826125ac565b9392505050565b6000806000606084860312156127f8578182fd5b612801846125ac565b925061280f602085016125ac565b9150604084013590509250925092565b60008060408385031215612831578182fd5b61283a836125ac565b946020939093013593505050565b600060208284031215612859578081fd5b815180151581146127dd578182fd5b6000806040838503121561287a578182fd5b823567ffffffffffffffff811115612890578283fd5b61289c8582860161262e565b9250506020830135600581106128b0578182fd5b809150509250929050565b600080604083850312156128cd578182fd5b823567ffffffffffffffff8111156128e3578283fd5b6128ef8582860161262e565b95602094909401359450505050565b60006020828403121561290f578081fd5b5035919050565b600060208284031215612927578081fd5b5051919050565b60008060408385031215612940578182fd5b82359150602083013567ffffffffffffffff81111561295d578182fd5b6129698582860161262e565b9150509250929050565b6001600160a01b03169052565b6005811061299e57634e487b7160e01b600052602160045260246000fd5b9052565b60008151808452815b818110156129c7576020818501810151868301820152016129ab565b818111156129d85782602083870101525b50601f01601f19169290920160200192915050565b805460009060028104600180831680612a0757607f831692505b6020808410821415612a2757634e487b7160e01b86526022600452602486fd5b612a318489612fc0565b828015612a455760018114612a5657612a81565b60ff19871682528282019750612a81565b612a5f89613029565b60005b87811015612a7b57815484820152908601908401612a62565b83019850505b5050505050505092915050565b6000815160408452612aa4604085018251612973565b6020810151612ab66060860182612973565b506040810151610180806080870152612ad36101c08701836129a2565b91506060830151603f19808885030160a0890152612af184836129a2565b935060808501519150808885030160c0890152612b0e84836129a2565b935060a08501519150808885030160e0890152612b2b84836129a2565b935060c085015191506101008189860301818a0152612b4a85846129a2565b945060e08601519250610120828a870301818b0152612b6986856129a2565b95508187015193506101409150828a870301828b0152612b8986856129a2565b955080870151935050610160828a870301818b0152612ba886856129a2565b9550818701519350612bbc858b0185612973565b808701516101a08b0152505050505060208401519150612bdf6020860183612980565b949350505050565b6001600160a01b0391909116815260200190565b6001600160a01b039384168152919092166020820152604081019190915260600190565b6001600160a01b03929092168252602082015260400190565b6000602080830181845280855180835260408601915060408482028701019250838701855b82811015612c8b57603f19888603018452612c79858351612a8e565b94509285019290850190600101612c5d565b5092979650505050505050565b901515815260200190565b83151581526001600160a01b038316602082015260608101612bdf6040830184612980565b6000602082526127dd60208301846129a2565b6020808252602f908201527f4e6563657369746173206465766f6c76657220756e206e756d65726f20706f7360408201526e697469766f20646520746f6b656e7360881b606082015260800190565b60208082526022908201527f5961207469656e657320756e6120736f6c696369747564207265676973747261604082015261646160f01b606082015260800190565b60208082526023908201527f436f6d70726120756e206e756d65726f20646520746f6b656e7320616465637560408201526261646f60e81b606082015260800190565b6020808252603b908201527f4e6f20707565646573206465766f6c766572206d617320746f6b656e7320646560408201527f206c6f7320717565207469656e657320646973706f6e69626c65730000000000606082015260800190565b60208082526029908201527f436f6d707261206d656e6f7320546f6b656e73206f207061676120636f6e206d60408201526861732045746865727360b81b606082015260800190565b6000602082526127dd6020830184612a8e565b60006020825260406020830152612e8b60608301612e86855461306b565b612973565b612e98600184015461306b565b612ea56080840182612973565b506101808060a0840152612ec06101e08401600286016129ed565b605f19808583030160c0860152612eda82600388016129ed565b9150808583030160e0860152612ef382600488016129ed565b91508085830301610100860152612f0d82600588016129ed565b91508085830301610120860152612f2782600688016129ed565b91508085830301610140860152612f4182600788016129ed565b91508085830301610160860152612f5b82600888016129ed565b915080858303018386015250612f7481600987016129ed565b915050612f84600a85015461306b565b612f926101a0850182612973565b50600b8401546101c0840152612fab600c8501546130b2565b612fb86040850182612980565b509392505050565b90815260200190565b9182526001600160a01b0316602082015260400190565b9283526001600160a01b03918216602084015216604082015260600190565b60405181810167ffffffffffffffff81118282101715613021576130216130e9565b604052919050565b60009081526020902090565b600081600019048311821515161561304f5761304f6130d3565b500290565b600082821015613066576130666130d3565b500390565b6001600160a01b031690565b60028104600182168061308b57607f821691505b602082108114156130ac57634e487b7160e01b600052602260045260246000fd5b50919050565b60ff1690565b60006000198214156130cc576130cc6130d3565b5060010190565b634e487b7160e01b600052601160045260246000fd5b634e487b7160e01b600052604160045260246000fdfea26469706673582212206531fd4d09326644db233a7bbad67adbe642232aae4125b359870f362e084c1e64736f6c63430008000033608060405234801561001057600080fd5b5060405161095638038061095683398101604081905261002f91610046565b60008181553381526001602052604090205561005e565b600060208284031215610057578081fd5b5051919050565b6108e98061006d6000396000f3fe608060405234801561001057600080fd5b50600436106100b45760003560e01c8063324536eb11610071578063324536eb1461014957806370a082311461015157806395d89b4114610164578063a9059cbb1461016c578063dd62ed3e1461017f578063eee4b8d414610192576100b4565b806306fdde03146100b9578063095ea7b3146100d757806318160ddd146100f75780631d43cc981461010c57806323b872dd14610121578063313ce56714610134575b600080fd5b6100c16101a5565b6040516100ce9190610701565b60405180910390f35b6100ea6100e53660046106b5565b6101ca565b6040516100ce91906106f6565b6100ff610234565b6040516100ce9190610857565b61011f61011a3660046106de565b61023a565b005b6100ea61012f36600461067a565b610277565b61013c6103f7565b6040516100ce9190610860565b6100ff6103fc565b6100ff61015f36600461062e565b610402565b6100c1610421565b6100ea61017a3660046106b5565b610440565b6100ff61018d366004610648565b610504565b6100ea6101a036600461067a565b61052f565b6040518060400160405280600981526020016845524332305f4d564d60b81b81525081565b3260008181526002602090815260408083206001600160a01b038716808552925280832085905551919290917f8c5be1e5ebec7d5bd14f71427d1e84f3dd0314c0f7b2291e5b200ac8c7c3b92590610223908690610857565b60405180910390a350600192915050565b60005490565b8060008082825461024b919061086e565b9091555050336000908152600160205260408120805483929061026f90849061086e565b909155505050565b6001600160a01b0383166000908152600160205260408120548211156102b85760405162461bcd60e51b81526004016102af906107ca565b60405180910390fd5b6001600160a01b03841660009081526002602090815260408083203284529091529020548211156102fb5760405162461bcd60e51b81526004016102af9061077e565b6001600160a01b03841660009081526001602052604090205461031e90836105b9565b6001600160a01b038516600090815260016020908152604080832093909355600281528282203283529052205461035590836105b9565b6001600160a01b03808616600090815260026020908152604080832032845282528083209490945591861681526001909152205461039390836105ea565b6001600160a01b0380851660008181526001602052604090819020939093559151908616907fddf252ad1be2c89b69c2b068fc378daa952ba7f163c4a11628f55a4df523b3ef906103e5908690610857565b60405180910390a35060019392505050565b600281565b60005481565b6001600160a01b0381166000908152600160205260409020545b919050565b604051806040016040528060038152602001624d564d60e81b81525081565b3360009081526001602052604081205482111561046f5760405162461bcd60e51b81526004016102af90610754565b3360009081526001602052604090205461048990836105b9565b33600090815260016020526040808220929092556001600160a01b038516815220546104b590836105ea565b6001600160a01b0384166000818152600160205260409081902092909255905133907fddf252ad1be2c89b69c2b068fc378daa952ba7f163c4a11628f55a4df523b3ef90610223908690610857565b6001600160a01b03918216600090815260026020908152604080832093909416825291909152205490565b6001600160a01b0383166000908152600160205260408120548211156105675760405162461bcd60e51b81526004016102af90610801565b6001600160a01b03841660009081526001602052604090205461058a90836105b9565b6001600160a01b03808616600090815260016020526040808220939093559085168152205461039390836105ea565b6000828211156105d957634e487b7160e01b600052600160045260246000fd5b6105e38284610886565b9392505050565b6000806105f7838561086e565b9050838110156105e357634e487b7160e01b600052600160045260246000fd5b80356001600160a01b038116811461041c57600080fd5b60006020828403121561063f578081fd5b6105e382610617565b6000806040838503121561065a578081fd5b61066383610617565b915061067160208401610617565b90509250929050565b60008060006060848603121561068e578081fd5b61069784610617565b92506106a560208501610617565b9150604084013590509250925092565b600080604083850312156106c7578182fd5b6106d083610617565b946020939093013593505050565b6000602082840312156106ef578081fd5b5035919050565b901515815260200190565b6000602080835283518082850152825b8181101561072d57858101830151858201604001528201610711565b8181111561073e5783604083870101525b50601f01601f1916929092016040019392505050565b60208082526010908201526f4572726f7220656e2062616c616e636560801b604082015260600190565b6020808252602c908201527f4e6f2073652068616e2064656c656761646f206c6f7320746f6b656e7320612060408201526b3630903234b932b1b1b4b7b760a11b606082015260800190565b6020808252601c908201527f456c206f776e6572206e6f207469656e65206c6f7320746f6b656e7300000000604082015260600190565b60208082526036908201527f456c206e756d65726f20646520746f6b656e732061207472616e736665726972604082015275206573206d61796f722071756520656c2073616c646f60501b606082015260800190565b90815260200190565b60ff91909116815260200190565b600082198211156108815761088161089d565b500190565b6000828210156108985761089861089d565b500390565b634e487b7160e01b600052601160045260246000fdfea2646970667358221220b665137f9e4db2be88f29857b5961ded0163a6ada5d2f02a90939ed981ea4a4664736f6c63430008000033",
  "immutableReferences": {},
  "source": "// SPDX-License-Identifier: MIT\r\npragma solidity >=0.4.22 <0.9.0;\r\npragma experimental ABIEncoderV2;\r\nimport \"./TokenErc20/ERC20.sol\";\r\nimport \"./models/InfoContrato.sol\";\r\nimport \"./libraries/Validations.sol\";\r\n\r\ncontract ReguladorMercado {\r\n    //Token del contrato\r\n    ERC20Basic private token;\r\n    enum TiposContratos {\r\n        Cliente,\r\n        Comercializador,\r\n        Generador,\r\n        ReguladorMercado,\r\n        NullContract\r\n    }\r\n\r\n    struct SolicitudContrato {\r\n        InfoContrato infoContrato;\r\n        TiposContratos tipoContrato;\r\n    }\r\n\r\n    string public name;\r\n    address public owner;\r\n    address public dirContrato;\r\n    uint256 public cantidadTokens = 1000000;\r\n    SolicitudContrato[] private solicitudes;\r\n    SolicitudContrato[] private registrosContratos;\r\n\r\n    event ComprandoTokens(uint256, address);\r\n    event tokensDevueltos(uint256, address);\r\n    event EnviarTokensEvent(uint256, address, address);\r\n    event SolicitudDeRegistro(SolicitudContrato);\r\n    event ContratoDiligenciado(SolicitudContrato);\r\n\r\n    constructor(string memory _name) {\r\n        name = _name;\r\n        owner = msg.sender;\r\n        dirContrato = address(this);\r\n        token = new ERC20Basic(cantidadTokens);\r\n    }\r\n\r\n    modifier authorize(address direction) {\r\n        require(direction == owner);\r\n        _;\r\n    }\r\n\r\n    function PrecioTokens(uint256 _numTokens) private pure returns (uint256) {\r\n        return _numTokens * (1e15);\r\n    }\r\n\r\n    function GenerarTokens(uint256 numTokens) public authorize(msg.sender) {\r\n        token.increaseTotalSupply(numTokens);\r\n    }\r\n\r\n    function TokensDisponibles() public view returns (uint256) {\r\n        return token.balanceOf(dirContrato);\r\n    }\r\n\r\n    function ComprarTokens(uint256 numTokens) public payable {\r\n        uint256 coste = PrecioTokens(numTokens);\r\n        //Se requiere verificar el fondo del comprador\r\n        require(\r\n            msg.value >= coste,\r\n            \"Compra menos Tokens o paga con mas Ethers\"\r\n        );\r\n        //Devolver el dinero sobrante\r\n        uint256 returnValue = msg.value - coste;\r\n        payable(msg.sender).transfer(returnValue);\r\n        //Obtener el balance de tokens del contrato\r\n        uint256 balance = TokensDisponibles();\r\n        //Filtro para evaluar los tokens disponibles\r\n        require(numTokens <= balance, \"Compra un numero de tokens adecuado\");\r\n        //Transferir tokens al comprador\r\n        token.transfer(msg.sender, numTokens);\r\n        emit ComprandoTokens(numTokens, msg.sender);\r\n    }\r\n\r\n    function IntercambiarTokens(\r\n        address _dir1,\r\n        address _dir2,\r\n        uint256 numTokens\r\n    ) public {\r\n        token.transferFrom(_dir1, _dir2, numTokens);\r\n        emit EnviarTokensEvent(numTokens, _dir1, _dir2);\r\n    }\r\n\r\n    function MisTokens(address _direction) public view returns (uint256) {\r\n        return token.balanceOf(_direction);\r\n    }\r\n\r\n    function DevolverTokens(uint256 numTokens) public {\r\n        //El numero de tokens debe de ser mayor a cero\r\n        require(\r\n            numTokens > 0,\r\n            \"Necesitas devolver un numero positivo de tokens\"\r\n        );\r\n        //EL cliente debe tener los tokens que desea devolver\r\n        require(\r\n            numTokens <= MisTokens(msg.sender),\r\n            \"No puedes devolver mas tokens de los que tienes disponibles\"\r\n        );\r\n        //1.Devolucion de tokens por parte del cliente al contrato\r\n        token.transferTwo(msg.sender, address(this), numTokens);\r\n        payable(msg.sender).transfer(PrecioTokens(numTokens));\r\n\r\n        //2.Pago de tokens devueltos en ethers\r\n        emit tokensDevueltos(numTokens, msg.sender);\r\n    }\r\n\r\n    function delegarTokens(address delegate, uint256 numTokens) public {\r\n        token.approve(delegate, numTokens);\r\n    }\r\n\r\n    function getSolicitudes() public view returns (SolicitudContrato[] memory) {\r\n        return solicitudes;\r\n    }\r\n\r\n    function getRegistros() public view returns (SolicitudContrato[] memory) {\r\n        return registrosContratos;\r\n    }\r\n\r\n    function registrarSolicitud(\r\n        InfoContrato memory _infoContrato,\r\n        uint256 _tipoContrato\r\n    ) public {\r\n        bool bandera = existeSolicitud(msg.sender);\r\n        require(!bandera, \"Ya tienes una solicitud registrada\");\r\n        solicitudes.push(\r\n            SolicitudContrato(_infoContrato, TiposContratos(_tipoContrato))\r\n        );\r\n        emit SolicitudDeRegistro(solicitudes[solicitudes.length - 1]);\r\n    }\r\n\r\n    function diligenciarSolicitud(uint256 index, InfoContrato memory infoContrato)\r\n        public\r\n        authorize(tx.origin)\r\n    {\r\n        SolicitudContrato memory solicitud = solicitudes[index];\r\n        solicitudes[index] = solicitudes[solicitudes.length - 1];\r\n        solicitudes.pop();\r\n        setRegistroContrato(infoContrato, solicitud.tipoContrato);\r\n        emit ContratoDiligenciado(solicitud);\r\n    }\r\n\r\n    function getOwner() public view returns (address) {\r\n        return owner;\r\n    }\r\n\r\n    function existeSolicitud(address ownerSolicitud)\r\n        public\r\n        view\r\n        returns (bool)\r\n    {\r\n        if (solicitudes.length > 0) {\r\n            for (uint256 i = 0; i < solicitudes.length; i++) {\r\n                if (ownerSolicitud == solicitudes[i].infoContrato.owner) {\r\n                    return true;\r\n                }\r\n            }\r\n        }\r\n        return false;\r\n    }\r\n\r\n    function setRegistroContrato (InfoContrato memory infoContrato, TiposContratos tipoContrato) public {\r\n        registrosContratos.push(SolicitudContrato(infoContrato, tipoContrato));\r\n    }\r\n\r\n    function validarUsuario()\r\n        public\r\n        view\r\n        returns (\r\n            bool,\r\n            address,\r\n            TiposContratos\r\n        )\r\n    {\r\n        if (msg.sender == owner) {\r\n            return (true, dirContrato, TiposContratos.ReguladorMercado);\r\n        }\r\n\r\n        if (registrosContratos.length > 0) {\r\n            for (uint256 i = 0; i < registrosContratos.length; i++) {\r\n                if (msg.sender == registrosContratos[i].infoContrato.owner) {\r\n                    return (\r\n                        true,\r\n                        registrosContratos[i].infoContrato.dirContrato,\r\n                        registrosContratos[i].tipoContrato\r\n                    );\r\n                }\r\n            }\r\n        }\r\n        address nullAddress = 0x0000000000000000000000000000000000000000;\r\n        return (false, nullAddress, TiposContratos.NullContract);\r\n    }\r\n\r\n    function getIndexSolicitudes(address dir) public view returns (uint256) {\r\n        for (uint256 i = 0; i < solicitudes.length; i++) {\r\n            if (dir == solicitudes[i].infoContrato.owner) {\r\n                return i;\r\n            }\r\n        }\r\n        return 0;\r\n    }\r\n}\r\n",
  "sourcePath": "D:\\Santiago\\BlockChain\\DemoMvmTruffle\\contracts\\ReguladorMercado.sol",
  "compiler": {
    "name": "solc",
    "version": "0.8.0+commit.c7dfd78e.Emscripten.clang"
  },
  "schemaVersion": "3.4.4",
  "updatedAt": "2022-07-12T16:03:38.486Z",
  "networkType": "ethereum",
  "devdoc": {
    "kind": "dev",
    "methods": {},
    "version": 1
  },
  "userdoc": {
    "kind": "user",
    "methods": {},
    "version": 1
  }
}