{
  "contractName": "ReguladorMercado",
  "abi": [
    {
      "inputs": [
        {
          "internalType": "string",
          "name": "_name",
          "type": "string"
        }
      ],
      "stateMutability": "nonpayable",
      "type": "constructor"
    },
    {
      "anonymous": false,
      "inputs": [
        {
          "indexed": false,
          "internalType": "uint256",
          "name": "",
          "type": "uint256"
        },
        {
          "indexed": false,
          "internalType": "address",
          "name": "",
          "type": "address"
        }
      ],
      "name": "ComprandoTokens",
      "type": "event"
    },
    {
      "anonymous": false,
      "inputs": [
        {
          "components": [
            {
              "components": [
                {
                  "internalType": "address",
                  "name": "dirContrato",
                  "type": "address"
                },
                {
                  "internalType": "address",
                  "name": "owner",
                  "type": "address"
                },
                {
                  "internalType": "string",
                  "name": "nit",
                  "type": "string"
                },
                {
                  "internalType": "string",
                  "name": "empresa",
                  "type": "string"
                },
                {
                  "internalType": "string",
                  "name": "contacto",
                  "type": "string"
                },
                {
                  "internalType": "string",
                  "name": "telefono",
                  "type": "string"
                },
                {
                  "internalType": "string",
                  "name": "correo",
                  "type": "string"
                },
                {
                  "internalType": "string",
                  "name": "departamento",
                  "type": "string"
                },
                {
                  "internalType": "string",
                  "name": "ciudad",
                  "type": "string"
                },
                {
                  "internalType": "string",
                  "name": "direccion",
                  "type": "string"
                },
                {
                  "internalType": "address",
                  "name": "comercializador",
                  "type": "address"
                },
                {
                  "internalType": "uint256",
                  "name": "tipoComercio",
                  "type": "uint256"
                }
              ],
              "internalType": "struct InfoContrato",
              "name": "infoContrato",
              "type": "tuple"
            },
            {
              "internalType": "enum ReguladorMercado.TiposContratos",
              "name": "tipoContrato",
              "type": "uint8"
            }
          ],
          "indexed": false,
          "internalType": "struct ReguladorMercado.SolicitudContrato",
          "name": "",
          "type": "tuple"
        }
      ],
      "name": "ContratoDiligenciado",
      "type": "event"
    },
    {
      "anonymous": false,
      "inputs": [
        {
          "indexed": false,
          "internalType": "uint256",
          "name": "",
          "type": "uint256"
        },
        {
          "indexed": false,
          "internalType": "address",
          "name": "",
          "type": "address"
        },
        {
          "indexed": false,
          "internalType": "address",
          "name": "",
          "type": "address"
        }
      ],
      "name": "EnviarTokensEvent",
      "type": "event"
    },
    {
      "anonymous": false,
      "inputs": [
        {
          "components": [
            {
              "components": [
                {
                  "internalType": "address",
                  "name": "dirContrato",
                  "type": "address"
                },
                {
                  "internalType": "address",
                  "name": "owner",
                  "type": "address"
                },
                {
                  "internalType": "string",
                  "name": "nit",
                  "type": "string"
                },
                {
                  "internalType": "string",
                  "name": "empresa",
                  "type": "string"
                },
                {
                  "internalType": "string",
                  "name": "contacto",
                  "type": "string"
                },
                {
                  "internalType": "string",
                  "name": "telefono",
                  "type": "string"
                },
                {
                  "internalType": "string",
                  "name": "correo",
                  "type": "string"
                },
                {
                  "internalType": "string",
                  "name": "departamento",
                  "type": "string"
                },
                {
                  "internalType": "string",
                  "name": "ciudad",
                  "type": "string"
                },
                {
                  "internalType": "string",
                  "name": "direccion",
                  "type": "string"
                },
                {
                  "internalType": "address",
                  "name": "comercializador",
                  "type": "address"
                },
                {
                  "internalType": "uint256",
                  "name": "tipoComercio",
                  "type": "uint256"
                }
              ],
              "internalType": "struct InfoContrato",
              "name": "infoContrato",
              "type": "tuple"
            },
            {
              "internalType": "enum ReguladorMercado.TiposContratos",
              "name": "tipoContrato",
              "type": "uint8"
            }
          ],
          "indexed": false,
          "internalType": "struct ReguladorMercado.SolicitudContrato",
          "name": "",
          "type": "tuple"
        }
      ],
      "name": "SolicitudDeRegistro",
      "type": "event"
    },
    {
      "anonymous": false,
      "inputs": [
        {
          "indexed": false,
          "internalType": "uint256",
          "name": "",
          "type": "uint256"
        },
        {
          "indexed": false,
          "internalType": "address",
          "name": "",
          "type": "address"
        }
      ],
      "name": "tokensDevueltos",
      "type": "event"
    },
    {
      "inputs": [],
      "name": "cantidadTokens",
      "outputs": [
        {
          "internalType": "uint256",
          "name": "",
          "type": "uint256"
        }
      ],
      "stateMutability": "view",
      "type": "function",
      "constant": true
    },
    {
      "inputs": [],
      "name": "dirContrato",
      "outputs": [
        {
          "internalType": "address",
          "name": "",
          "type": "address"
        }
      ],
      "stateMutability": "view",
      "type": "function",
      "constant": true
    },
    {
      "inputs": [],
      "name": "name",
      "outputs": [
        {
          "internalType": "string",
          "name": "",
          "type": "string"
        }
      ],
      "stateMutability": "view",
      "type": "function",
      "constant": true
    },
    {
      "inputs": [],
      "name": "owner",
      "outputs": [
        {
          "internalType": "address",
          "name": "",
          "type": "address"
        }
      ],
      "stateMutability": "view",
      "type": "function",
      "constant": true
    },
    {
      "inputs": [
        {
          "internalType": "uint256",
          "name": "numTokens",
          "type": "uint256"
        }
      ],
      "name": "GenerarTokens",
      "outputs": [],
      "stateMutability": "nonpayable",
      "type": "function"
    },
    {
      "inputs": [],
      "name": "TokensDisponibles",
      "outputs": [
        {
          "internalType": "uint256",
          "name": "",
          "type": "uint256"
        }
      ],
      "stateMutability": "view",
      "type": "function",
      "constant": true
    },
    {
      "inputs": [
        {
          "internalType": "uint256",
          "name": "numTokens",
          "type": "uint256"
        }
      ],
      "name": "ComprarTokens",
      "outputs": [],
      "stateMutability": "payable",
      "type": "function",
      "payable": true
    },
    {
      "inputs": [
        {
          "internalType": "address",
          "name": "_dir1",
          "type": "address"
        },
        {
          "internalType": "address",
          "name": "_dir2",
          "type": "address"
        },
        {
          "internalType": "uint256",
          "name": "numTokens",
          "type": "uint256"
        }
      ],
      "name": "IntercambiarTokens",
      "outputs": [],
      "stateMutability": "nonpayable",
      "type": "function"
    },
    {
      "inputs": [
        {
          "internalType": "address",
          "name": "_direction",
          "type": "address"
        }
      ],
      "name": "MisTokens",
      "outputs": [
        {
          "internalType": "uint256",
          "name": "",
          "type": "uint256"
        }
      ],
      "stateMutability": "view",
      "type": "function",
      "constant": true
    },
    {
      "inputs": [
        {
          "internalType": "uint256",
          "name": "numTokens",
          "type": "uint256"
        }
      ],
      "name": "DevolverTokens",
      "outputs": [],
      "stateMutability": "nonpayable",
      "type": "function"
    },
    {
      "inputs": [
        {
          "internalType": "address",
          "name": "delegate",
          "type": "address"
        },
        {
          "internalType": "uint256",
          "name": "numTokens",
          "type": "uint256"
        }
      ],
      "name": "delegarTokens",
      "outputs": [],
      "stateMutability": "nonpayable",
      "type": "function"
    },
    {
      "inputs": [],
      "name": "getSolicitudes",
      "outputs": [
        {
          "components": [
            {
              "components": [
                {
                  "internalType": "address",
                  "name": "dirContrato",
                  "type": "address"
                },
                {
                  "internalType": "address",
                  "name": "owner",
                  "type": "address"
                },
                {
                  "internalType": "string",
                  "name": "nit",
                  "type": "string"
                },
                {
                  "internalType": "string",
                  "name": "empresa",
                  "type": "string"
                },
                {
                  "internalType": "string",
                  "name": "contacto",
                  "type": "string"
                },
                {
                  "internalType": "string",
                  "name": "telefono",
                  "type": "string"
                },
                {
                  "internalType": "string",
                  "name": "correo",
                  "type": "string"
                },
                {
                  "internalType": "string",
                  "name": "departamento",
                  "type": "string"
                },
                {
                  "internalType": "string",
                  "name": "ciudad",
                  "type": "string"
                },
                {
                  "internalType": "string",
                  "name": "direccion",
                  "type": "string"
                },
                {
                  "internalType": "address",
                  "name": "comercializador",
                  "type": "address"
                },
                {
                  "internalType": "uint256",
                  "name": "tipoComercio",
                  "type": "uint256"
                }
              ],
              "internalType": "struct InfoContrato",
              "name": "infoContrato",
              "type": "tuple"
            },
            {
              "internalType": "enum ReguladorMercado.TiposContratos",
              "name": "tipoContrato",
              "type": "uint8"
            }
          ],
          "internalType": "struct ReguladorMercado.SolicitudContrato[]",
          "name": "",
          "type": "tuple[]"
        }
      ],
      "stateMutability": "view",
      "type": "function",
      "constant": true
    },
    {
      "inputs": [
        {
          "components": [
            {
              "internalType": "address",
              "name": "dirContrato",
              "type": "address"
            },
            {
              "internalType": "address",
              "name": "owner",
              "type": "address"
            },
            {
              "internalType": "string",
              "name": "nit",
              "type": "string"
            },
            {
              "internalType": "string",
              "name": "empresa",
              "type": "string"
            },
            {
              "internalType": "string",
              "name": "contacto",
              "type": "string"
            },
            {
              "internalType": "string",
              "name": "telefono",
              "type": "string"
            },
            {
              "internalType": "string",
              "name": "correo",
              "type": "string"
            },
            {
              "internalType": "string",
              "name": "departamento",
              "type": "string"
            },
            {
              "internalType": "string",
              "name": "ciudad",
              "type": "string"
            },
            {
              "internalType": "string",
              "name": "direccion",
              "type": "string"
            },
            {
              "internalType": "address",
              "name": "comercializador",
              "type": "address"
            },
            {
              "internalType": "uint256",
              "name": "tipoComercio",
              "type": "uint256"
            }
          ],
          "internalType": "struct InfoContrato",
          "name": "_infoContrato",
          "type": "tuple"
        },
        {
          "internalType": "uint256",
          "name": "_tipoContrato",
          "type": "uint256"
        }
      ],
      "name": "registrarSolicitud",
      "outputs": [],
      "stateMutability": "nonpayable",
      "type": "function"
    },
    {
      "inputs": [
        {
          "internalType": "uint256",
          "name": "index",
          "type": "uint256"
        }
      ],
      "name": "diligenciarSolicitud",
      "outputs": [],
      "stateMutability": "nonpayable",
      "type": "function"
    },
    {
      "inputs": [],
      "name": "getOwner",
      "outputs": [
        {
          "internalType": "address",
          "name": "",
          "type": "address"
        }
      ],
      "stateMutability": "view",
      "type": "function",
      "constant": true
    },
    {
      "inputs": [
        {
          "internalType": "address",
          "name": "ownerSolicitud",
          "type": "address"
        }
      ],
      "name": "existeSolicitud",
      "outputs": [
        {
          "internalType": "bool",
          "name": "",
          "type": "bool"
        }
      ],
      "stateMutability": "view",
      "type": "function",
      "constant": true
    },
    {
      "inputs": [],
      "name": "validarUsuario",
      "outputs": [
        {
          "internalType": "bool",
          "name": "",
          "type": "bool"
        },
        {
          "internalType": "enum ReguladorMercado.TiposContratos",
          "name": "",
          "type": "uint8"
        }
      ],
      "stateMutability": "view",
      "type": "function",
      "constant": true
    },
    {
      "inputs": [
        {
          "internalType": "address",
          "name": "dir",
          "type": "address"
        }
      ],
      "name": "getIndexSolicitudes",
      "outputs": [
        {
          "internalType": "uint256",
          "name": "",
          "type": "uint256"
        }
      ],
      "stateMutability": "view",
      "type": "function",
      "constant": true
    }
  ],
  "bytecode": "0x6080604052620f42406004553480156200001857600080fd5b5060405162003671380380620036718339810160408190526200003b9162000187565b805162000050906001906020840190620000d3565b50600280546001600160a01b031990811633179091556003805490911630179055600454604051620000829062000162565b6200008e919062000256565b604051809103906000f080158015620000ab573d6000803e3d6000fd5b50600080546001600160a01b0319166001600160a01b039290921691909117905550620002b2565b828054620000e1906200025f565b90600052602060002090601f01602090048101928262000105576000855562000150565b82601f106200012057805160ff191683800117855562000150565b8280016001018555821562000150579182015b828111156200015057825182559160200191906001019062000133565b506200015e92915062000170565b5090565b6109568062002d1b83390190565b5b808211156200015e576000815560010162000171565b600060208083850312156200019a578182fd5b82516001600160401b0380821115620001b1578384fd5b818501915085601f830112620001c5578384fd5b815181811115620001da57620001da6200029c565b604051601f8201601f19168101850183811182821017156200020057620002006200029c565b604052818152838201850188101562000217578586fd5b8592505b818310156200023a57838301850151818401860152918401916200021b565b818311156200024b57858583830101525b979650505050505050565b90815260200190565b6002810460018216806200027457607f821691505b602082108114156200029657634e487b7160e01b600052602260045260246000fd5b50919050565b634e487b7160e01b600052604160045260246000fd5b612a5980620002c26000396000f3fe6080604052600436106101095760003560e01c80637d3ecc6911610095578063ab9e41b411610064578063ab9e41b4146102c4578063d1931ccf146102d9578063dc0b0ee4146102ec578063e7f3979f1461030c578063fd889ff51461032e57610109565b80637d3ecc6914610255578063856788df14610278578063893d20e81461029a5780638da5cb5b146102af57610109565b80631890154c116100dc5780631890154c146101a857806340fd3f39146101c85780634de26267146101f557806370f4a4df146102155780637c1b38bf1461023557610109565b806306fdde031461010e5780630d098a3b146101395780630e03c03b1461016657806313e8a25014610186575b600080fd5b34801561011a57600080fd5b50610123610343565b60405161013091906125ec565b60405180910390f35b34801561014557600080fd5b5061015961015436600461201c565b6103d1565b60405161013091906128e4565b34801561017257600080fd5b5061015961018136600461201c565b61044b565b34801561019257600080fd5b506101a66101a136600461203d565b6104d2565b005b3480156101b457600080fd5b506101a66101c3366004612276565b610599565b3480156101d457600080fd5b506101e86101e336600461201c565b6106e3565b60405161013091906125cb565b34801561020157600080fd5b506101a6610210366004612276565b610767565b34801561022157600080fd5b506101a66102303660046120c1565b611218565b34801561024157600080fd5b506101a6610250366004612276565b6114a5565b34801561026157600080fd5b5061026a611524565b6040516101309291906125d6565b34801561028457600080fd5b5061028d611608565b604051610130919061251a565b3480156102a657600080fd5b5061028d611617565b3480156102bb57600080fd5b5061028d611626565b3480156102d057600080fd5b50610159611635565b6101a66102e7366004612276565b61163b565b3480156102f857600080fd5b506101a6610307366004612078565b611795565b34801561031857600080fd5b5061032161181e565b604051610130919061256b565b34801561033a57600080fd5b50610159611daa565b600180546103509061299b565b80601f016020809104026020016040519081016040528092919081815260200182805461037c9061299b565b80156103c95780601f1061039e576101008083540402835291602001916103c9565b820191906000526020600020905b8154815290600101906020018083116103ac57829003601f168201915b505050505081565b6000805b600554811015610440576005818154811061040057634e487b7160e01b600052603260045260246000fd5b600091825260209091206001600d9092020101546001600160a01b038481169116141561042e579050610446565b80610438816129dc565b9150506103d5565b50600090505b919050565b600080546040516370a0823160e01b81526001600160a01b03909116906370a082319061047c90859060040161251a565b60206040518083038186803b15801561049457600080fd5b505afa1580156104a8573d6000803e3d6000fd5b505050506040513d601f19601f820116820180604052508101906104cc919061228e565b92915050565b6000546040516323b872dd60e01b81526001600160a01b03909116906323b872dd906105069086908690869060040161252e565b602060405180830381600087803b15801561052057600080fd5b505af1158015610534573d6000803e3d6000fd5b505050506040513d601f19601f8201168201806040525081019061055891906120a1565b507f2438343549d9535d8f8ff03f9ebc22e59fd8d234198ede2a2af0cae7c2dfa85d81848460405161058c93929190612904565b60405180910390a1505050565b600081116105c25760405162461bcd60e51b81526004016105b9906125ff565b60405180910390fd5b6105cb3361044b565b8111156105ea5760405162461bcd60e51b81526004016105b9906126d3565b600054604051633bb92e3560e21b81526001600160a01b039091169063eee4b8d49061061e9033903090869060040161252e565b602060405180830381600087803b15801561063857600080fd5b505af115801561064c573d6000803e3d6000fd5b505050506040513d601f19601f8201168201806040525081019061067091906120a1565b50336108fc61067e83611e34565b6040518115909202916000818181858888f193505050501580156106a6573d6000803e3d6000fd5b507fa997a52566b1f8380f086c733e70d49a141eafece6addc432a411a73ec45c68881336040516106d89291906128ed565b60405180910390a150565b6005546000901561075f5760005b600554811015610440576005818154811061071c57634e487b7160e01b600052603260045260246000fd5b600091825260209091206001600d9092020101546001600160a01b038481169116141561074d576001915050610446565b80610757816129dc565b9150506106f1565b506000919050565b60025432906001600160a01b0316811461078057600080fd5b6000600583815481106107a357634e487b7160e01b600052603260045260246000fd5b60009182526020909120604080516101c081018252600d90930290910180546001600160a01b03908116928401928352600182015416606084015260028101805491928492909184916080850191906107fb9061299b565b80601f01602080910402602001604051908101604052809291908181526020018280546108279061299b565b80156108745780601f1061084957610100808354040283529160200191610874565b820191906000526020600020905b81548152906001019060200180831161085757829003601f168201915b5050505050815260200160038201805461088d9061299b565b80601f01602080910402602001604051908101604052809291908181526020018280546108b99061299b565b80156109065780601f106108db57610100808354040283529160200191610906565b820191906000526020600020905b8154815290600101906020018083116108e957829003601f168201915b5050505050815260200160048201805461091f9061299b565b80601f016020809104026020016040519081016040528092919081815260200182805461094b9061299b565b80156109985780601f1061096d57610100808354040283529160200191610998565b820191906000526020600020905b81548152906001019060200180831161097b57829003601f168201915b505050505081526020016005820180546109b19061299b565b80601f01602080910402602001604051908101604052809291908181526020018280546109dd9061299b565b8015610a2a5780601f106109ff57610100808354040283529160200191610a2a565b820191906000526020600020905b815481529060010190602001808311610a0d57829003601f168201915b50505050508152602001600682018054610a439061299b565b80601f0160208091040260200160405190810160405280929190818152602001828054610a6f9061299b565b8015610abc5780601f10610a9157610100808354040283529160200191610abc565b820191906000526020600020905b815481529060010190602001808311610a9f57829003601f168201915b50505050508152602001600782018054610ad59061299b565b80601f0160208091040260200160405190810160405280929190818152602001828054610b019061299b565b8015610b4e5780601f10610b2357610100808354040283529160200191610b4e565b820191906000526020600020905b815481529060010190602001808311610b3157829003601f168201915b50505050508152602001600882018054610b679061299b565b80601f0160208091040260200160405190810160405280929190818152602001828054610b939061299b565b8015610be05780601f10610bb557610100808354040283529160200191610be0565b820191906000526020600020905b815481529060010190602001808311610bc357829003601f168201915b50505050508152602001600982018054610bf99061299b565b80601f0160208091040260200160405190810160405280929190818152602001828054610c259061299b565b8015610c725780601f10610c4757610100808354040283529160200191610c72565b820191906000526020600020905b815481529060010190602001808311610c5557829003601f168201915b5050509183525050600a8201546001600160a01b0316602080830191909152600b90920154604090910152908252600c83015491019060ff166004811115610cca57634e487b7160e01b600052602160045260246000fd5b6004811115610ce957634e487b7160e01b600052602160045260246000fd5b9052506005805491925090610d0090600190612978565b81548110610d1e57634e487b7160e01b600052603260045260246000fd5b90600052602060002090600d020160058481548110610d4d57634e487b7160e01b600052603260045260246000fd5b600091825260209091208254600d9092020180546001600160a01b039283166001600160a01b0319918216178255600180850154908301805491909416911617909155600280830180548492849290830191610da89061299b565b610db3929190611e47565b506003820181600301908054610dc89061299b565b610dd3929190611e47565b506004820181600401908054610de89061299b565b610df3929190611e47565b506005820181600501908054610e089061299b565b610e13929190611e47565b506006820181600601908054610e289061299b565b610e33929190611e47565b506007820181600701908054610e489061299b565b610e53929190611e47565b506008820181600801908054610e689061299b565b610e73929190611e47565b506009820181600901908054610e889061299b565b610e93929190611e47565b50600a8281015490820180546001600160a01b0319166001600160a01b03909216919091179055600b91820154910155600c82810154908201805460ff9092169160ff19166001836004811115610efa57634e487b7160e01b600052602160045260246000fd5b02179055509050506005805480610f2157634e487b7160e01b600052603160045260246000fd5b600082815260208120600d6000199093019283020180546001600160a01b031990811682556001820180549091169055908181610f616002830182611ed2565b610f6f600383016000611ed2565b610f7d600483016000611ed2565b610f8b600583016000611ed2565b610f99600683016000611ed2565b610fa7600783016000611ed2565b610fb5600883016000611ed2565b610fc3600983016000611ed2565b50600a810180546001600160a01b03199081169091556000600b909201829055600c93909301805460ff191690559290935560068054600181018255925283518051600d9093027ff652222313e28459528d920b65115c16c04f3efc82aaedc97be59f3f377c0d3f810180546001600160a01b039586169085161781556020838101517ff652222313e28459528d920b65115c16c04f3efc82aaedc97be59f3f377c0d40840180549190971695169490941790945560408201518051879650929385936110b6937ff652222313e28459528d920b65115c16c04f3efc82aaedc97be59f3f377c0d41019290910190611f11565b50606082015180516110d2916003840191602090910190611f11565b50608082015180516110ee916004840191602090910190611f11565b5060a0820151805161110a916005840191602090910190611f11565b5060c08201518051611126916006840191602090910190611f11565b5060e08201518051611142916007840191602090910190611f11565b50610100820151805161115f916008840191602090910190611f11565b50610120820151805161117c916009840191602090910190611f11565b50610140820151600a820180546001600160a01b0319166001600160a01b0390921691909117905561016090910151600b909101556020820151600c8201805460ff191660018360048111156111e257634e487b7160e01b600052602160045260246000fd5b021790555050507f8b35a8f8c2dc10b4672d1a95decdf391e3ef83540f79c8233f966a7642d403d58160405161058c9190612779565b6000611223336106e3565b905080156112435760405162461bcd60e51b81526004016105b99061264e565b6005604051806040016040528085815260200184600481111561127657634e487b7160e01b600052602160045260246000fd5b600481111561129557634e487b7160e01b600052602160045260246000fd5b9052815460018181018455600093845260209384902083518051600d90940290910180546001600160a01b039485166001600160a01b03199182161782558287015193820180549490951693169290921790925560408201518051939491938492611307926002850192910190611f11565b5060608201518051611323916003840191602090910190611f11565b506080820151805161133f916004840191602090910190611f11565b5060a0820151805161135b916005840191602090910190611f11565b5060c08201518051611377916006840191602090910190611f11565b5060e08201518051611393916007840191602090910190611f11565b5061010082015180516113b0916008840191602090910190611f11565b5061012082015180516113cd916009840191602090910190611f11565b50610140820151600a820180546001600160a01b0319166001600160a01b0390921691909117905561016090910151600b909101556020820151600c8201805460ff1916600183600481111561143357634e487b7160e01b600052602160045260246000fd5b021790555050600580547fcebcb95b72d4f2d7173b83fa812efaa148952f3604350b50c7c1120da3f1ad1c925061146c90600190612978565b8154811061148a57634e487b7160e01b600052603260045260246000fd5b90600052602060002090600d020160405161058c919061278c565b60025433906001600160a01b031681146114be57600080fd5b6000546040516303a8799360e31b81526001600160a01b0390911690631d43cc98906114ee9085906004016128e4565b600060405180830381600087803b15801561150857600080fd5b505af115801561151c573d6000803e3d6000fd5b505050505050565b60025460009081906001600160a01b03163314156115485750600190506003611604565b600654156115fc5760005b6006548110156115fa576006818154811061157e57634e487b7160e01b600052603260045260246000fd5b60009182526020909120600d90910201600101546001600160a01b03163314156115e8576001600682815481106115c557634e487b7160e01b600052603260045260246000fd5b60009182526020909120600c600d90920201015490935060ff1691506116049050565b806115f2816129dc565b915050611553565b505b506000905060045b9091565b6003546001600160a01b031681565b6002546001600160a01b031690565b6002546001600160a01b031681565b60045481565b600061164682611e34565b9050803410156116685760405162461bcd60e51b81526004016105b990612730565b60006116748234612978565b604051909150339082156108fc029083906000818181858888f193505050501580156116a4573d6000803e3d6000fd5b5060006116af611daa565b9050808411156116d15760405162461bcd60e51b81526004016105b990612690565b60005460405163a9059cbb60e01b81526001600160a01b039091169063a9059cbb906117039033908890600401612552565b602060405180830381600087803b15801561171d57600080fd5b505af1158015611731573d6000803e3d6000fd5b505050506040513d601f19601f8201168201806040525081019061175591906120a1565b507fc5d46be962adb867acf29dce93ab611e9064bffee951e4db9e52c693f73f4c3884336040516117879291906128ed565b60405180910390a150505050565b60005460405163095ea7b360e01b81526001600160a01b039091169063095ea7b3906117c79085908590600401612552565b602060405180830381600087803b1580156117e157600080fd5b505af11580156117f5573d6000803e3d6000fd5b505050506040513d601f19601f8201168201806040525081019061181991906120a1565b505050565b60606005805480602002602001604051908101604052809291908181526020016000905b82821015611da157600084815260209020604080516101c081018252600d850290920180546001600160a01b03908116928401928352600182015416606084015260028101805491928492909184916080850191906118a09061299b565b80601f01602080910402602001604051908101604052809291908181526020018280546118cc9061299b565b80156119195780601f106118ee57610100808354040283529160200191611919565b820191906000526020600020905b8154815290600101906020018083116118fc57829003601f168201915b505050505081526020016003820180546119329061299b565b80601f016020809104026020016040519081016040528092919081815260200182805461195e9061299b565b80156119ab5780601f10611980576101008083540402835291602001916119ab565b820191906000526020600020905b81548152906001019060200180831161198e57829003601f168201915b505050505081526020016004820180546119c49061299b565b80601f01602080910402602001604051908101604052809291908181526020018280546119f09061299b565b8015611a3d5780601f10611a1257610100808354040283529160200191611a3d565b820191906000526020600020905b815481529060010190602001808311611a2057829003601f168201915b50505050508152602001600582018054611a569061299b565b80601f0160208091040260200160405190810160405280929190818152602001828054611a829061299b565b8015611acf5780601f10611aa457610100808354040283529160200191611acf565b820191906000526020600020905b815481529060010190602001808311611ab257829003601f168201915b50505050508152602001600682018054611ae89061299b565b80601f0160208091040260200160405190810160405280929190818152602001828054611b149061299b565b8015611b615780601f10611b3657610100808354040283529160200191611b61565b820191906000526020600020905b815481529060010190602001808311611b4457829003601f168201915b50505050508152602001600782018054611b7a9061299b565b80601f0160208091040260200160405190810160405280929190818152602001828054611ba69061299b565b8015611bf35780601f10611bc857610100808354040283529160200191611bf3565b820191906000526020600020905b815481529060010190602001808311611bd657829003601f168201915b50505050508152602001600882018054611c0c9061299b565b80601f0160208091040260200160405190810160405280929190818152602001828054611c389061299b565b8015611c855780601f10611c5a57610100808354040283529160200191611c85565b820191906000526020600020905b815481529060010190602001808311611c6857829003601f168201915b50505050508152602001600982018054611c9e9061299b565b80601f0160208091040260200160405190810160405280929190818152602001828054611cca9061299b565b8015611d175780601f10611cec57610100808354040283529160200191611d17565b820191906000526020600020905b815481529060010190602001808311611cfa57829003601f168201915b5050509183525050600a8201546001600160a01b0316602080830191909152600b90920154604090910152908252600c83015491019060ff166004811115611d6f57634e487b7160e01b600052602160045260246000fd5b6004811115611d8e57634e487b7160e01b600052602160045260246000fd5b8152505081526020019060010190611842565b50505050905090565b600080546003546040516370a0823160e01b81526001600160a01b03928316926370a0823192611ddf9291169060040161251a565b60206040518083038186803b158015611df757600080fd5b505afa158015611e0b573d6000803e3d6000fd5b505050506040513d601f19601f82011682018060405250810190611e2f919061228e565b905090565b60006104cc8266038d7ea4c68000612959565b828054611e539061299b565b90600052602060002090601f016020900481019282611e755760008555611ec2565b82601f10611e865780548555611ec2565b82800160010185558215611ec257600052602060002091601f016020900482015b82811115611ec2578254825591600101919060010190611ea7565b50611ece929150611f85565b5090565b508054611ede9061299b565b6000825580601f10611ef05750611f0e565b601f016020900490600052602060002090810190611f0e9190611f85565b50565b828054611f1d9061299b565b90600052602060002090601f016020900481019282611f3f5760008555611ec2565b82601f10611f5857805160ff1916838001178555611ec2565b82800160010185558215611ec2579182015b82811115611ec2578251825591602001919060010190611f6a565b5b80821115611ece5760008155600101611f86565b80356001600160a01b038116811461044657600080fd5b600082601f830112611fc1578081fd5b813567ffffffffffffffff811115611fdb57611fdb612a0d565b611fee601f8201601f1916602001612923565b818152846020838601011115612002578283fd5b816020850160208301379081016020019190915292915050565b60006020828403121561202d578081fd5b61203682611f9a565b9392505050565b600080600060608486031215612051578182fd5b61205a84611f9a565b925061206860208501611f9a565b9150604084013590509250925092565b6000806040838503121561208a578182fd5b61209383611f9a565b946020939093013593505050565b6000602082840312156120b2578081fd5b81518015158114612036578182fd5b600080604083850312156120d3578182fd5b823567ffffffffffffffff808211156120ea578384fd5b8185019150610180808388031215612100578485fd5b61210981612923565b905061211483611f9a565b815261212260208401611f9a565b6020820152604083013582811115612138578586fd5b61214488828601611fb1565b60408301525060608301358281111561215b578586fd5b61216788828601611fb1565b60608301525060808301358281111561217e578586fd5b61218a88828601611fb1565b60808301525060a0830135828111156121a1578586fd5b6121ad88828601611fb1565b60a08301525060c0830135828111156121c4578586fd5b6121d088828601611fb1565b60c08301525060e0830135828111156121e7578586fd5b6121f388828601611fb1565b60e083015250610100808401358381111561220c578687fd5b61221889828701611fb1565b8284015250506101208084013583811115612231578687fd5b61223d89828701611fb1565b8284015250506101409150612253828401611f9a565b918101919091526101609182013591810191909152946020939093013593505050565b600060208284031215612287578081fd5b5035919050565b60006020828403121561229f578081fd5b5051919050565b6001600160a01b03169052565b600581106122d157634e487b7160e01b600052602160045260246000fd5b9052565b60008151808452815b818110156122fa576020818501810151868301820152016122de565b8181111561230b5782602083870101525b50601f01601f19169290920160200192915050565b80546000906002810460018083168061233a57607f831692505b602080841082141561235a57634e487b7160e01b86526022600452602486fd5b61236484896128e4565b8280156123785760018114612389576123b4565b60ff198716825282820197506123b4565b6123928961294d565b60005b878110156123ae57815484820152908601908401612395565b83019850505b5050505050505092915050565b60008151604084526123d76040850182516122a6565b60208101516123e960608601826122a6565b5060408101516101808060808701526124066101c08701836122d5565b91506060830151603f19808885030160a089015261242484836122d5565b935060808501519150808885030160c089015261244184836122d5565b935060a08501519150808885030160e089015261245e84836122d5565b935060c085015191506101008189860301818a015261247d85846122d5565b945060e08601519250610120828a870301818b015261249c86856122d5565b95508187015193506101409150828a870301828b01526124bc86856122d5565b955080870151935050610160828a870301818b01526124db86856122d5565b95508187015193506124ef858b01856122a6565b808701516101a08b015250505050506020840151915061251260208601836122b3565b949350505050565b6001600160a01b0391909116815260200190565b6001600160a01b039384168152919092166020820152604081019190915260600190565b6001600160a01b03929092168252602082015260400190565b6000602080830181845280855180835260408601915060408482028701019250838701855b828110156125be57603f198886030184526125ac8583516123c1565b94509285019290850190600101612590565b5092979650505050505050565b901515815260200190565b82151581526040810161203660208301846122b3565b60006020825261203660208301846122d5565b6020808252602f908201527f4e6563657369746173206465766f6c76657220756e206e756d65726f20706f7360408201526e697469766f20646520746f6b656e7360881b606082015260800190565b60208082526022908201527f5961207469656e657320756e6120736f6c696369747564207265676973747261604082015261646160f01b606082015260800190565b60208082526023908201527f436f6d70726120756e206e756d65726f20646520746f6b656e7320616465637560408201526261646f60e81b606082015260800190565b6020808252603b908201527f4e6f20707565646573206465766f6c766572206d617320746f6b656e7320646560408201527f206c6f7320717565207469656e657320646973706f6e69626c65730000000000606082015260800190565b60208082526029908201527f436f6d707261206d656e6f7320546f6b656e73206f207061676120636f6e206d60408201526861732045746865727360b81b606082015260800190565b60006020825261203660208301846123c1565b600060208252604060208301526127af606083016127aa855461298f565b6122a6565b6127bc600184015461298f565b6127c960808401826122a6565b506101808060a08401526127e46101e0840160028601612320565b605f19808583030160c08601526127fe8260038801612320565b9150808583030160e08601526128178260048801612320565b915080858303016101008601526128318260058801612320565b9150808583030161012086015261284b8260068801612320565b915080858303016101408601526128658260078801612320565b9150808583030161016086015261287f8260088801612320565b9150808583030183860152506128988160098701612320565b9150506128a8600a85015461298f565b6128b66101a08501826122a6565b50600b8401546101c08401526128cf600c8501546129d6565b6128dc60408501826122b3565b509392505050565b90815260200190565b9182526001600160a01b0316602082015260400190565b9283526001600160a01b03918216602084015216604082015260600190565b60405181810167ffffffffffffffff8111828210171561294557612945612a0d565b604052919050565b60009081526020902090565b6000816000190483118215151615612973576129736129f7565b500290565b60008282101561298a5761298a6129f7565b500390565b6001600160a01b031690565b6002810460018216806129af57607f821691505b602082108114156129d057634e487b7160e01b600052602260045260246000fd5b50919050565b60ff1690565b60006000198214156129f0576129f06129f7565b5060010190565b634e487b7160e01b600052601160045260246000fd5b634e487b7160e01b600052604160045260246000fdfea2646970667358221220f7b40d820e4ba251fc304e1301f4984fe0d1a4040feede3cfd9b83680b307d3d64736f6c63430008000033608060405234801561001057600080fd5b5060405161095638038061095683398101604081905261002f91610046565b60008181553381526001602052604090205561005e565b600060208284031215610057578081fd5b5051919050565b6108e98061006d6000396000f3fe608060405234801561001057600080fd5b50600436106100b45760003560e01c8063324536eb11610071578063324536eb1461014957806370a082311461015157806395d89b4114610164578063a9059cbb1461016c578063dd62ed3e1461017f578063eee4b8d414610192576100b4565b806306fdde03146100b9578063095ea7b3146100d757806318160ddd146100f75780631d43cc981461010c57806323b872dd14610121578063313ce56714610134575b600080fd5b6100c16101a5565b6040516100ce9190610701565b60405180910390f35b6100ea6100e53660046106b5565b6101ca565b6040516100ce91906106f6565b6100ff610234565b6040516100ce9190610857565b61011f61011a3660046106de565b61023a565b005b6100ea61012f36600461067a565b610277565b61013c6103f7565b6040516100ce9190610860565b6100ff6103fc565b6100ff61015f36600461062e565b610402565b6100c1610421565b6100ea61017a3660046106b5565b610440565b6100ff61018d366004610648565b610504565b6100ea6101a036600461067a565b61052f565b6040518060400160405280600981526020016845524332305f4d564d60b81b81525081565b3260008181526002602090815260408083206001600160a01b038716808552925280832085905551919290917f8c5be1e5ebec7d5bd14f71427d1e84f3dd0314c0f7b2291e5b200ac8c7c3b92590610223908690610857565b60405180910390a350600192915050565b60005490565b8060008082825461024b919061086e565b9091555050336000908152600160205260408120805483929061026f90849061086e565b909155505050565b6001600160a01b0383166000908152600160205260408120548211156102b85760405162461bcd60e51b81526004016102af906107ca565b60405180910390fd5b6001600160a01b03841660009081526002602090815260408083203284529091529020548211156102fb5760405162461bcd60e51b81526004016102af9061077e565b6001600160a01b03841660009081526001602052604090205461031e90836105b9565b6001600160a01b038516600090815260016020908152604080832093909355600281528282203283529052205461035590836105b9565b6001600160a01b03808616600090815260026020908152604080832032845282528083209490945591861681526001909152205461039390836105ea565b6001600160a01b0380851660008181526001602052604090819020939093559151908616907fddf252ad1be2c89b69c2b068fc378daa952ba7f163c4a11628f55a4df523b3ef906103e5908690610857565b60405180910390a35060019392505050565b600281565b60005481565b6001600160a01b0381166000908152600160205260409020545b919050565b604051806040016040528060038152602001624d564d60e81b81525081565b3360009081526001602052604081205482111561046f5760405162461bcd60e51b81526004016102af90610754565b3360009081526001602052604090205461048990836105b9565b33600090815260016020526040808220929092556001600160a01b038516815220546104b590836105ea565b6001600160a01b0384166000818152600160205260409081902092909255905133907fddf252ad1be2c89b69c2b068fc378daa952ba7f163c4a11628f55a4df523b3ef90610223908690610857565b6001600160a01b03918216600090815260026020908152604080832093909416825291909152205490565b6001600160a01b0383166000908152600160205260408120548211156105675760405162461bcd60e51b81526004016102af90610801565b6001600160a01b03841660009081526001602052604090205461058a90836105b9565b6001600160a01b03808616600090815260016020526040808220939093559085168152205461039390836105ea565b6000828211156105d957634e487b7160e01b600052600160045260246000fd5b6105e38284610886565b9392505050565b6000806105f7838561086e565b9050838110156105e357634e487b7160e01b600052600160045260246000fd5b80356001600160a01b038116811461041c57600080fd5b60006020828403121561063f578081fd5b6105e382610617565b6000806040838503121561065a578081fd5b61066383610617565b915061067160208401610617565b90509250929050565b60008060006060848603121561068e578081fd5b61069784610617565b92506106a560208501610617565b9150604084013590509250925092565b600080604083850312156106c7578182fd5b6106d083610617565b946020939093013593505050565b6000602082840312156106ef578081fd5b5035919050565b901515815260200190565b6000602080835283518082850152825b8181101561072d57858101830151858201604001528201610711565b8181111561073e5783604083870101525b50601f01601f1916929092016040019392505050565b60208082526010908201526f4572726f7220656e2062616c616e636560801b604082015260600190565b6020808252602c908201527f4e6f2073652068616e2064656c656761646f206c6f7320746f6b656e7320612060408201526b3630903234b932b1b1b4b7b760a11b606082015260800190565b6020808252601c908201527f456c206f776e6572206e6f207469656e65206c6f7320746f6b656e7300000000604082015260600190565b60208082526036908201527f456c206e756d65726f20646520746f6b656e732061207472616e736665726972604082015275206573206d61796f722071756520656c2073616c646f60501b606082015260800190565b90815260200190565b60ff91909116815260200190565b600082198211156108815761088161089d565b500190565b6000828210156108985761089861089d565b500390565b634e487b7160e01b600052601160045260246000fdfea2646970667358221220b665137f9e4db2be88f29857b5961ded0163a6ada5d2f02a90939ed981ea4a4664736f6c63430008000033",
  "immutableReferences": {},
  "source": "// SPDX-License-Identifier: MIT\r\npragma solidity >=0.4.22 <0.9.0;\r\npragma experimental ABIEncoderV2;\r\nimport \"./TokenErc20/ERC20.sol\";\r\nimport \"./models/InfoContrato.sol\";\r\nimport \"./libraries/Validations.sol\";\r\n\r\ncontract ReguladorMercado {\r\n    //Token del contrato\r\n    ERC20Basic private token;\r\n    enum TiposContratos {\r\n        Cliente,\r\n        Comercializador,\r\n        Generador,\r\n        ReguladorMercado,\r\n        NullContract\r\n    }\r\n\r\n    struct SolicitudContrato {\r\n        InfoContrato infoContrato;\r\n        TiposContratos tipoContrato;\r\n    }\r\n\r\n    string public name;\r\n    address public owner;\r\n    address public dirContrato;\r\n    uint256 public cantidadTokens = 1000000;\r\n    SolicitudContrato[] private solicitudes;\r\n    SolicitudContrato[] private registrosContratos;\r\n\r\n    event ComprandoTokens(uint256, address);\r\n    event tokensDevueltos(uint256, address);\r\n    event EnviarTokensEvent(uint256, address, address);\r\n    event SolicitudDeRegistro(SolicitudContrato);\r\n    event ContratoDiligenciado(SolicitudContrato);\r\n\r\n    constructor(string memory _name) {\r\n        name = _name;\r\n        owner = msg.sender;\r\n        dirContrato = address(this);\r\n        token = new ERC20Basic(cantidadTokens);\r\n    }\r\n\r\n    modifier authorize(address direction) {\r\n        require(direction == owner);\r\n        _;\r\n    }\r\n\r\n    function PrecioTokens(uint256 _numTokens) private pure returns (uint256) {\r\n        return _numTokens * (1e15);\r\n    }\r\n\r\n    function GenerarTokens(uint256 numTokens) public authorize(msg.sender) {\r\n        token.increaseTotalSupply(numTokens);\r\n    }\r\n\r\n    function TokensDisponibles() public view returns (uint256) {\r\n        return token.balanceOf(dirContrato);\r\n    }\r\n\r\n    function ComprarTokens(uint256 numTokens) public payable {\r\n        uint256 coste = PrecioTokens(numTokens);\r\n        //Se requiere verificar el fondo del comprador\r\n        require(\r\n            msg.value >= coste,\r\n            \"Compra menos Tokens o paga con mas Ethers\"\r\n        );\r\n        //Devolver el dinero sobrante\r\n        uint256 returnValue = msg.value - coste;\r\n        payable(msg.sender).transfer(returnValue);\r\n        //Obtener el balance de tokens del contrato\r\n        uint256 balance = TokensDisponibles();\r\n        //Filtro para evaluar los tokens disponibles\r\n        require(numTokens <= balance, \"Compra un numero de tokens adecuado\");\r\n        //Transferir tokens al comprador\r\n        token.transfer(msg.sender, numTokens);\r\n        emit ComprandoTokens(numTokens, msg.sender);\r\n    }\r\n\r\n    function IntercambiarTokens(\r\n        address _dir1,\r\n        address _dir2,\r\n        uint256 numTokens\r\n    ) public {\r\n        token.transferFrom(_dir1, _dir2, numTokens);\r\n        emit EnviarTokensEvent(numTokens, _dir1, _dir2);\r\n    }\r\n\r\n    function MisTokens(address _direction) public view returns (uint256) {\r\n        return token.balanceOf(_direction);\r\n    }\r\n\r\n    function DevolverTokens(uint256 numTokens) public {\r\n        //El numero de tokens debe de ser mayor a cero\r\n        require(\r\n            numTokens > 0,\r\n            \"Necesitas devolver un numero positivo de tokens\"\r\n        );\r\n        //EL cliente debe tener los tokens que desea devolver\r\n        require(\r\n            numTokens <= MisTokens(msg.sender),\r\n            \"No puedes devolver mas tokens de los que tienes disponibles\"\r\n        );\r\n        //1.Devolucion de tokens por parte del cliente al contrato\r\n        token.transferTwo(msg.sender, address(this), numTokens);\r\n        payable(msg.sender).transfer(PrecioTokens(numTokens));\r\n\r\n        //2.Pago de tokens devueltos en ethers\r\n        emit tokensDevueltos(numTokens, msg.sender);\r\n    }\r\n\r\n    function delegarTokens(address delegate, uint256 numTokens) public {\r\n        token.approve(delegate, numTokens);\r\n    }\r\n\r\n    function getSolicitudes() public view returns (SolicitudContrato[] memory) {\r\n        return solicitudes;\r\n    }\r\n\r\n    function registrarSolicitud(\r\n        InfoContrato memory _infoContrato,\r\n        uint256 _tipoContrato\r\n    ) public {\r\n        bool bandera = existeSolicitud(msg.sender);\r\n        require(!bandera, \"Ya tienes una solicitud registrada\");\r\n        solicitudes.push(\r\n            SolicitudContrato(_infoContrato, TiposContratos(_tipoContrato))\r\n        );\r\n        emit SolicitudDeRegistro(solicitudes[solicitudes.length - 1]);\r\n    }\r\n\r\n    function diligenciarSolicitud(uint256 index) public authorize(tx.origin) {\r\n        SolicitudContrato memory solicitud = solicitudes[index];\r\n        solicitudes[index] = solicitudes[solicitudes.length - 1];\r\n        solicitudes.pop();\r\n        registrosContratos.push(solicitud);\r\n        emit ContratoDiligenciado(solicitud);\r\n    }\r\n\r\n    function getOwner() public view returns (address) {\r\n        return owner;\r\n    }\r\n\r\n    function existeSolicitud(address ownerSolicitud)\r\n        public\r\n        view\r\n        returns (bool)\r\n    {\r\n        if (solicitudes.length > 0) {\r\n            for (uint256 i = 0; i < solicitudes.length; i++) {\r\n                if (ownerSolicitud == solicitudes[i].infoContrato.owner) {\r\n                    return true;\r\n                }\r\n            }\r\n        }\r\n        return false;\r\n    }\r\n\r\n    function validarUsuario() public view returns (bool, TiposContratos) {\r\n        if (msg.sender == owner) {\r\n            return (true, TiposContratos.ReguladorMercado);\r\n        }\r\n\r\n        if (registrosContratos.length > 0) {\r\n            for (uint256 i = 0; i < registrosContratos.length; i++) {\r\n                if (msg.sender == registrosContratos[i].infoContrato.owner) {\r\n                    return (true, registrosContratos[i].tipoContrato);\r\n                }\r\n            }\r\n        }\r\n\r\n        return (false, TiposContratos.NullContract);\r\n    }\r\n\r\n    function getIndexSolicitudes(address dir) public view returns (uint) {\r\n        for (uint256 i = 0; i < solicitudes.length; i++) {\r\n            if (dir == solicitudes[i].infoContrato.owner) {\r\n                return i;\r\n            }\r\n        }\r\n        return 0;\r\n    }\r\n}\r\n",
  "sourcePath": "D:\\Santiago\\BlockChain\\DemoMvmTruffle\\contracts\\ReguladorMercado.sol",
  "compiler": {
    "name": "solc",
    "version": "0.8.0+commit.c7dfd78e.Emscripten.clang"
  },
  "schemaVersion": "3.4.4",
  "updatedAt": "2022-07-11T15:50:46.230Z",
  "networkType": "ethereum",
  "devdoc": {
    "kind": "dev",
    "methods": {},
    "version": 1
  },
  "userdoc": {
    "kind": "user",
    "methods": {},
    "version": 1
  }
}