{
  "contractName": "ReguladorMercado",
  "abi": [
    {
      "inputs": [
        {
          "internalType": "string",
          "name": "_name",
          "type": "string"
        }
      ],
      "stateMutability": "nonpayable",
      "type": "constructor"
    },
    {
      "anonymous": false,
      "inputs": [
        {
          "indexed": false,
          "internalType": "uint256",
          "name": "",
          "type": "uint256"
        },
        {
          "indexed": false,
          "internalType": "address",
          "name": "",
          "type": "address"
        }
      ],
      "name": "ComprandoTokens",
      "type": "event"
    },
    {
      "anonymous": false,
      "inputs": [
        {
          "components": [
            {
              "components": [
                {
                  "internalType": "address",
                  "name": "dirContrato",
                  "type": "address"
                },
                {
                  "internalType": "address",
                  "name": "owner",
                  "type": "address"
                },
                {
                  "internalType": "string",
                  "name": "nit",
                  "type": "string"
                },
                {
                  "internalType": "string",
                  "name": "empresa",
                  "type": "string"
                },
                {
                  "internalType": "string",
                  "name": "contacto",
                  "type": "string"
                },
                {
                  "internalType": "string",
                  "name": "telefono",
                  "type": "string"
                },
                {
                  "internalType": "string",
                  "name": "correo",
                  "type": "string"
                },
                {
                  "internalType": "string",
                  "name": "departamento",
                  "type": "string"
                },
                {
                  "internalType": "string",
                  "name": "ciudad",
                  "type": "string"
                },
                {
                  "internalType": "string",
                  "name": "direccion",
                  "type": "string"
                },
                {
                  "internalType": "address",
                  "name": "comercializador",
                  "type": "address"
                },
                {
                  "internalType": "uint256",
                  "name": "tipoComercio",
                  "type": "uint256"
                }
              ],
              "internalType": "struct InfoContrato",
              "name": "infoContrato",
              "type": "tuple"
            },
            {
              "internalType": "enum TiposContratos",
              "name": "tipoContrato",
              "type": "uint8"
            }
          ],
          "indexed": false,
          "internalType": "struct SolicitudContrato",
          "name": "",
          "type": "tuple"
        }
      ],
      "name": "ContratoDiligenciado",
      "type": "event"
    },
    {
      "anonymous": false,
      "inputs": [
        {
          "indexed": false,
          "internalType": "uint256",
          "name": "",
          "type": "uint256"
        },
        {
          "indexed": false,
          "internalType": "address",
          "name": "",
          "type": "address"
        },
        {
          "indexed": false,
          "internalType": "address",
          "name": "",
          "type": "address"
        }
      ],
      "name": "EnviarTokensEvent",
      "type": "event"
    },
    {
      "anonymous": false,
      "inputs": [
        {
          "components": [
            {
              "components": [
                {
                  "internalType": "address",
                  "name": "dirContrato",
                  "type": "address"
                },
                {
                  "internalType": "address",
                  "name": "owner",
                  "type": "address"
                },
                {
                  "internalType": "string",
                  "name": "nit",
                  "type": "string"
                },
                {
                  "internalType": "string",
                  "name": "empresa",
                  "type": "string"
                },
                {
                  "internalType": "string",
                  "name": "contacto",
                  "type": "string"
                },
                {
                  "internalType": "string",
                  "name": "telefono",
                  "type": "string"
                },
                {
                  "internalType": "string",
                  "name": "correo",
                  "type": "string"
                },
                {
                  "internalType": "string",
                  "name": "departamento",
                  "type": "string"
                },
                {
                  "internalType": "string",
                  "name": "ciudad",
                  "type": "string"
                },
                {
                  "internalType": "string",
                  "name": "direccion",
                  "type": "string"
                },
                {
                  "internalType": "address",
                  "name": "comercializador",
                  "type": "address"
                },
                {
                  "internalType": "uint256",
                  "name": "tipoComercio",
                  "type": "uint256"
                }
              ],
              "internalType": "struct InfoContrato",
              "name": "infoContrato",
              "type": "tuple"
            },
            {
              "internalType": "enum TiposContratos",
              "name": "tipoContrato",
              "type": "uint8"
            }
          ],
          "indexed": false,
          "internalType": "struct SolicitudContrato",
          "name": "",
          "type": "tuple"
        }
      ],
      "name": "SolicitudDeRegistro",
      "type": "event"
    },
    {
      "anonymous": false,
      "inputs": [
        {
          "indexed": false,
          "internalType": "uint256",
          "name": "",
          "type": "uint256"
        },
        {
          "indexed": false,
          "internalType": "address",
          "name": "",
          "type": "address"
        }
      ],
      "name": "tokensDevueltos",
      "type": "event"
    },
    {
      "inputs": [],
      "name": "cantidadTokens",
      "outputs": [
        {
          "internalType": "uint256",
          "name": "",
          "type": "uint256"
        }
      ],
      "stateMutability": "view",
      "type": "function",
      "constant": true
    },
    {
      "inputs": [],
      "name": "dirContrato",
      "outputs": [
        {
          "internalType": "address",
          "name": "",
          "type": "address"
        }
      ],
      "stateMutability": "view",
      "type": "function",
      "constant": true
    },
    {
      "inputs": [],
      "name": "name",
      "outputs": [
        {
          "internalType": "string",
          "name": "",
          "type": "string"
        }
      ],
      "stateMutability": "view",
      "type": "function",
      "constant": true
    },
    {
      "inputs": [],
      "name": "owner",
      "outputs": [
        {
          "internalType": "address",
          "name": "",
          "type": "address"
        }
      ],
      "stateMutability": "view",
      "type": "function",
      "constant": true
    },
    {
      "inputs": [
        {
          "internalType": "uint256",
          "name": "numTokens",
          "type": "uint256"
        }
      ],
      "name": "GenerarTokens",
      "outputs": [],
      "stateMutability": "nonpayable",
      "type": "function"
    },
    {
      "inputs": [],
      "name": "TokensDisponibles",
      "outputs": [
        {
          "internalType": "uint256",
          "name": "",
          "type": "uint256"
        }
      ],
      "stateMutability": "view",
      "type": "function",
      "constant": true
    },
    {
      "inputs": [
        {
          "internalType": "uint256",
          "name": "numTokens",
          "type": "uint256"
        }
      ],
      "name": "ComprarTokens",
      "outputs": [],
      "stateMutability": "payable",
      "type": "function",
      "payable": true
    },
    {
      "inputs": [
        {
          "internalType": "address",
          "name": "_dir1",
          "type": "address"
        },
        {
          "internalType": "address",
          "name": "_dir2",
          "type": "address"
        },
        {
          "internalType": "uint256",
          "name": "numTokens",
          "type": "uint256"
        }
      ],
      "name": "IntercambiarTokens",
      "outputs": [],
      "stateMutability": "nonpayable",
      "type": "function"
    },
    {
      "inputs": [
        {
          "internalType": "address",
          "name": "_direction",
          "type": "address"
        }
      ],
      "name": "MisTokens",
      "outputs": [
        {
          "internalType": "uint256",
          "name": "",
          "type": "uint256"
        }
      ],
      "stateMutability": "view",
      "type": "function",
      "constant": true
    },
    {
      "inputs": [
        {
          "internalType": "uint256",
          "name": "numTokens",
          "type": "uint256"
        }
      ],
      "name": "DevolverTokens",
      "outputs": [],
      "stateMutability": "nonpayable",
      "type": "function"
    },
    {
      "inputs": [
        {
          "internalType": "address",
          "name": "delegate",
          "type": "address"
        },
        {
          "internalType": "uint256",
          "name": "numTokens",
          "type": "uint256"
        }
      ],
      "name": "delegarTokens",
      "outputs": [],
      "stateMutability": "nonpayable",
      "type": "function"
    },
    {
      "inputs": [],
      "name": "getSolicitudes",
      "outputs": [
        {
          "components": [
            {
              "components": [
                {
                  "internalType": "address",
                  "name": "dirContrato",
                  "type": "address"
                },
                {
                  "internalType": "address",
                  "name": "owner",
                  "type": "address"
                },
                {
                  "internalType": "string",
                  "name": "nit",
                  "type": "string"
                },
                {
                  "internalType": "string",
                  "name": "empresa",
                  "type": "string"
                },
                {
                  "internalType": "string",
                  "name": "contacto",
                  "type": "string"
                },
                {
                  "internalType": "string",
                  "name": "telefono",
                  "type": "string"
                },
                {
                  "internalType": "string",
                  "name": "correo",
                  "type": "string"
                },
                {
                  "internalType": "string",
                  "name": "departamento",
                  "type": "string"
                },
                {
                  "internalType": "string",
                  "name": "ciudad",
                  "type": "string"
                },
                {
                  "internalType": "string",
                  "name": "direccion",
                  "type": "string"
                },
                {
                  "internalType": "address",
                  "name": "comercializador",
                  "type": "address"
                },
                {
                  "internalType": "uint256",
                  "name": "tipoComercio",
                  "type": "uint256"
                }
              ],
              "internalType": "struct InfoContrato",
              "name": "infoContrato",
              "type": "tuple"
            },
            {
              "internalType": "enum TiposContratos",
              "name": "tipoContrato",
              "type": "uint8"
            }
          ],
          "internalType": "struct SolicitudContrato[]",
          "name": "",
          "type": "tuple[]"
        }
      ],
      "stateMutability": "view",
      "type": "function",
      "constant": true
    },
    {
      "inputs": [],
      "name": "getRegistros",
      "outputs": [
        {
          "components": [
            {
              "components": [
                {
                  "internalType": "address",
                  "name": "dirContrato",
                  "type": "address"
                },
                {
                  "internalType": "address",
                  "name": "owner",
                  "type": "address"
                },
                {
                  "internalType": "string",
                  "name": "nit",
                  "type": "string"
                },
                {
                  "internalType": "string",
                  "name": "empresa",
                  "type": "string"
                },
                {
                  "internalType": "string",
                  "name": "contacto",
                  "type": "string"
                },
                {
                  "internalType": "string",
                  "name": "telefono",
                  "type": "string"
                },
                {
                  "internalType": "string",
                  "name": "correo",
                  "type": "string"
                },
                {
                  "internalType": "string",
                  "name": "departamento",
                  "type": "string"
                },
                {
                  "internalType": "string",
                  "name": "ciudad",
                  "type": "string"
                },
                {
                  "internalType": "string",
                  "name": "direccion",
                  "type": "string"
                },
                {
                  "internalType": "address",
                  "name": "comercializador",
                  "type": "address"
                },
                {
                  "internalType": "uint256",
                  "name": "tipoComercio",
                  "type": "uint256"
                }
              ],
              "internalType": "struct InfoContrato",
              "name": "infoContrato",
              "type": "tuple"
            },
            {
              "internalType": "enum TiposContratos",
              "name": "tipoContrato",
              "type": "uint8"
            }
          ],
          "internalType": "struct SolicitudContrato[]",
          "name": "",
          "type": "tuple[]"
        }
      ],
      "stateMutability": "view",
      "type": "function",
      "constant": true
    },
    {
      "inputs": [
        {
          "components": [
            {
              "internalType": "address",
              "name": "dirContrato",
              "type": "address"
            },
            {
              "internalType": "address",
              "name": "owner",
              "type": "address"
            },
            {
              "internalType": "string",
              "name": "nit",
              "type": "string"
            },
            {
              "internalType": "string",
              "name": "empresa",
              "type": "string"
            },
            {
              "internalType": "string",
              "name": "contacto",
              "type": "string"
            },
            {
              "internalType": "string",
              "name": "telefono",
              "type": "string"
            },
            {
              "internalType": "string",
              "name": "correo",
              "type": "string"
            },
            {
              "internalType": "string",
              "name": "departamento",
              "type": "string"
            },
            {
              "internalType": "string",
              "name": "ciudad",
              "type": "string"
            },
            {
              "internalType": "string",
              "name": "direccion",
              "type": "string"
            },
            {
              "internalType": "address",
              "name": "comercializador",
              "type": "address"
            },
            {
              "internalType": "uint256",
              "name": "tipoComercio",
              "type": "uint256"
            }
          ],
          "internalType": "struct InfoContrato",
          "name": "_infoContrato",
          "type": "tuple"
        },
        {
          "internalType": "uint256",
          "name": "_tipoContrato",
          "type": "uint256"
        }
      ],
      "name": "registrarSolicitud",
      "outputs": [],
      "stateMutability": "nonpayable",
      "type": "function"
    },
    {
      "inputs": [
        {
          "internalType": "uint256",
          "name": "index",
          "type": "uint256"
        },
        {
          "components": [
            {
              "internalType": "address",
              "name": "dirContrato",
              "type": "address"
            },
            {
              "internalType": "address",
              "name": "owner",
              "type": "address"
            },
            {
              "internalType": "string",
              "name": "nit",
              "type": "string"
            },
            {
              "internalType": "string",
              "name": "empresa",
              "type": "string"
            },
            {
              "internalType": "string",
              "name": "contacto",
              "type": "string"
            },
            {
              "internalType": "string",
              "name": "telefono",
              "type": "string"
            },
            {
              "internalType": "string",
              "name": "correo",
              "type": "string"
            },
            {
              "internalType": "string",
              "name": "departamento",
              "type": "string"
            },
            {
              "internalType": "string",
              "name": "ciudad",
              "type": "string"
            },
            {
              "internalType": "string",
              "name": "direccion",
              "type": "string"
            },
            {
              "internalType": "address",
              "name": "comercializador",
              "type": "address"
            },
            {
              "internalType": "uint256",
              "name": "tipoComercio",
              "type": "uint256"
            }
          ],
          "internalType": "struct InfoContrato",
          "name": "infoContrato",
          "type": "tuple"
        }
      ],
      "name": "diligenciarSolicitud",
      "outputs": [],
      "stateMutability": "nonpayable",
      "type": "function"
    },
    {
      "inputs": [],
      "name": "getOwner",
      "outputs": [
        {
          "internalType": "address",
          "name": "",
          "type": "address"
        }
      ],
      "stateMutability": "view",
      "type": "function",
      "constant": true
    },
    {
      "inputs": [
        {
          "internalType": "address",
          "name": "ownerSolicitud",
          "type": "address"
        }
      ],
      "name": "existeSolicitud",
      "outputs": [
        {
          "internalType": "bool",
          "name": "",
          "type": "bool"
        }
      ],
      "stateMutability": "view",
      "type": "function",
      "constant": true
    },
    {
      "inputs": [
        {
          "components": [
            {
              "internalType": "address",
              "name": "dirContrato",
              "type": "address"
            },
            {
              "internalType": "address",
              "name": "owner",
              "type": "address"
            },
            {
              "internalType": "string",
              "name": "nit",
              "type": "string"
            },
            {
              "internalType": "string",
              "name": "empresa",
              "type": "string"
            },
            {
              "internalType": "string",
              "name": "contacto",
              "type": "string"
            },
            {
              "internalType": "string",
              "name": "telefono",
              "type": "string"
            },
            {
              "internalType": "string",
              "name": "correo",
              "type": "string"
            },
            {
              "internalType": "string",
              "name": "departamento",
              "type": "string"
            },
            {
              "internalType": "string",
              "name": "ciudad",
              "type": "string"
            },
            {
              "internalType": "string",
              "name": "direccion",
              "type": "string"
            },
            {
              "internalType": "address",
              "name": "comercializador",
              "type": "address"
            },
            {
              "internalType": "uint256",
              "name": "tipoComercio",
              "type": "uint256"
            }
          ],
          "internalType": "struct InfoContrato",
          "name": "infoContrato",
          "type": "tuple"
        },
        {
          "internalType": "enum TiposContratos",
          "name": "tipoContrato",
          "type": "uint8"
        }
      ],
      "name": "setRegistroContrato",
      "outputs": [],
      "stateMutability": "nonpayable",
      "type": "function"
    },
    {
      "inputs": [],
      "name": "validarUsuario",
      "outputs": [
        {
          "internalType": "bool",
          "name": "",
          "type": "bool"
        },
        {
          "internalType": "address",
          "name": "",
          "type": "address"
        },
        {
          "internalType": "enum TiposContratos",
          "name": "",
          "type": "uint8"
        }
      ],
      "stateMutability": "view",
      "type": "function",
      "constant": true
    },
    {
      "inputs": [
        {
          "internalType": "address",
          "name": "dir",
          "type": "address"
        }
      ],
      "name": "getIndexSolicitudes",
      "outputs": [
        {
          "internalType": "uint256",
          "name": "",
          "type": "uint256"
        }
      ],
      "stateMutability": "view",
      "type": "function",
      "constant": true
    },
    {
      "inputs": [],
      "name": "getInfoRegulador",
      "outputs": [
        {
          "components": [
            {
              "internalType": "address",
              "name": "owner",
              "type": "address"
            },
            {
              "internalType": "address",
              "name": "dirContrato",
              "type": "address"
            },
            {
              "internalType": "uint256",
              "name": "cantidadTokens",
              "type": "uint256"
            },
            {
              "internalType": "string",
              "name": "nombreToken",
              "type": "string"
            },
            {
              "internalType": "string",
              "name": "simboloToken",
              "type": "string"
            },
            {
              "internalType": "uint256",
              "name": "valorToken",
              "type": "uint256"
            }
          ],
          "internalType": "struct InfoRegulador",
          "name": "",
          "type": "tuple"
        }
      ],
      "stateMutability": "view",
      "type": "function",
      "constant": true
    }
  ],
  "bytecode": "0x6080604052620f42406004553480156200001857600080fd5b50604051620041d5380380620041d58339810160408190526200003b9162000187565b805162000050906001906020840190620000d3565b50600280546001600160a01b031990811633179091556003805490911630179055600454604051620000829062000162565b6200008e919062000256565b604051809103906000f080158015620000ab573d6000803e3d6000fd5b50600080546001600160a01b0319166001600160a01b039290921691909117905550620002b2565b828054620000e1906200025f565b90600052602060002090601f01602090048101928262000105576000855562000150565b82601f106200012057805160ff191683800117855562000150565b8280016001018555821562000150579182015b828111156200015057825182559160200191906001019062000133565b506200015e92915062000170565b5090565b610956806200387f83390190565b5b808211156200015e576000815560010162000171565b600060208083850312156200019a578182fd5b82516001600160401b0380821115620001b1578384fd5b818501915085601f830112620001c5578384fd5b815181811115620001da57620001da6200029c565b604051601f8201601f19168101850183811182821017156200020057620002006200029c565b604052818152838201850188101562000217578586fd5b8592505b818310156200023a57838301850151818401860152918401916200021b565b818311156200024b57858583830101525b979650505050505050565b90815260200190565b6002810460018216806200027457607f821691505b602082108114156200029657634e487b7160e01b600052602260045260246000fd5b50919050565b634e487b7160e01b600052604160045260246000fd5b6135bd80620002c26000396000f3fe60806040526004361061012a5760003560e01c8063856788df116100ab578063ab9e41b41161006f578063ab9e41b41461032a578063b2222c921461033f578063d1931ccf1461035f578063dc0b0ee414610372578063e7f3979f14610392578063fd889ff5146103a75761012a565b8063856788df1461029a578063893d20e8146102bc5780638da5cb5b146102d1578063a28fe68c146102e6578063a499a465146103085761012a565b806325a977cf116100f257806325a977cf146101e957806340fd3f391461020957806370f4a4df146102365780637c1b38bf146102565780637d3ecc69146102765761012a565b806306fdde031461012f5780630d098a3b1461015a5780630e03c03b1461018757806313e8a250146101a75780631890154c146101c9575b600080fd5b34801561013b57600080fd5b506101446103bc565b604051610151919061306d565b60405180910390f35b34801561016657600080fd5b5061017a61017536600461291c565b61044a565b60405161015191906133da565b34801561019357600080fd5b5061017a6101a236600461291c565b6104c4565b3480156101b357600080fd5b506101c76101c236600461293f565b61054b565b005b3480156101d557600080fd5b506101c76101e4366004612b13565b610612565b3480156101f557600080fd5b506101c7610204366004612a80565b61075c565b34801561021557600080fd5b5061022961022436600461291c565b610938565b604051610151919061303d565b34801561024257600080fd5b506101c7610251366004612ad0565b6109bc565b34801561026257600080fd5b506101c7610271366004612b13565b610c49565b34801561028257600080fd5b5061028b610cc8565b60405161015193929190613048565b3480156102a657600080fd5b506102af610d91565b6040516101519190612ddb565b3480156102c857600080fd5b506102af610da0565b3480156102dd57600080fd5b506102af610daf565b3480156102f257600080fd5b506102fb610dbe565b6040516101519190612fdd565b34801561031457600080fd5b5061031d61134a565b60405161015191906131fa565b34801561033657600080fd5b5061017a6114b3565b34801561034b57600080fd5b506101c761035a366004612b43565b6114b9565b6101c761036d366004612b13565b611d8b565b34801561037e57600080fd5b506101c761038d36600461297f565b611ed7565b34801561039e57600080fd5b506102fb611f60565b3480156103b357600080fd5b5061017a6124e3565b600180546103c9906134dd565b80601f01602080910402602001604051908101604052809291908181526020018280546103f5906134dd565b80156104425780601f1061041757610100808354040283529160200191610442565b820191906000526020600020905b81548152906001019060200180831161042557829003601f168201915b505050505081565b6000805b6005548110156104b9576005818154811061047957634e487b7160e01b600052603260045260246000fd5b600091825260209091206001600d9092020101546001600160a01b03848116911614156104a75790506104bf565b806104b18161351e565b91505061044e565b50600090505b919050565b600080546040516370a0823160e01b81526001600160a01b03909116906370a08231906104f5908590600401612ddb565b60206040518083038186803b15801561050d57600080fd5b505afa158015610521573d6000803e3d6000fd5b505050506040513d601f19601f820116820180604052508101906105459190612b2b565b92915050565b6000546040516323b872dd60e01b81526001600160a01b03909116906323b872dd9061057f90869086908690600401612def565b602060405180830381600087803b15801561059957600080fd5b505af11580156105ad573d6000803e3d6000fd5b505050506040513d601f19601f820116820180604052508101906105d191906129aa565b507f2438343549d9535d8f8ff03f9ebc22e59fd8d234198ede2a2af0cae7c2dfa85d818484604051610605939291906133fa565b60405180910390a1505050565b6000811161063b5760405162461bcd60e51b815260040161063290613080565b60405180910390fd5b610644336104c4565b8111156106635760405162461bcd60e51b815260040161063290613154565b600054604051633bb92e3560e21b81526001600160a01b039091169063eee4b8d49061069790339030908690600401612def565b602060405180830381600087803b1580156106b157600080fd5b505af11580156106c5573d6000803e3d6000fd5b505050506040513d601f19601f820116820180604052508101906106e991906129aa565b50336108fc6106f78361256d565b6040518115909202916000818181858888f1935050505015801561071f573d6000803e3d6000fd5b507fa997a52566b1f8380f086c733e70d49a141eafece6addc432a411a73ec45c68881336040516107519291906133e3565b60405180910390a150565b6006604051806040016040528084815260200183600481111561078f57634e487b7160e01b600052602160045260246000fd5b9052815460018181018455600093845260209384902083518051600d90940290910180546001600160a01b039485166001600160a01b03199182161782558287015193820180549490951693169290921790925560408201518051939491938492610801926002850192910190612580565b506060820151805161081d916003840191602090910190612580565b5060808201518051610839916004840191602090910190612580565b5060a08201518051610855916005840191602090910190612580565b5060c08201518051610871916006840191602090910190612580565b5060e0820151805161088d916007840191602090910190612580565b5061010082015180516108aa916008840191602090910190612580565b5061012082015180516108c7916009840191602090910190612580565b50610140820151600a820180546001600160a01b0319166001600160a01b0390921691909117905561016090910151600b909101556020820151600c8201805460ff1916600183600481111561092d57634e487b7160e01b600052602160045260246000fd5b021790555050505050565b600554600090156109b45760005b6005548110156104b9576005818154811061097157634e487b7160e01b600052603260045260246000fd5b600091825260209091206001600d9092020101546001600160a01b03848116911614156109a25760019150506104bf565b806109ac8161351e565b915050610946565b506000919050565b60006109c733610938565b905080156109e75760405162461bcd60e51b8152600401610632906130cf565b60056040518060400160405280858152602001846004811115610a1a57634e487b7160e01b600052602160045260246000fd5b6004811115610a3957634e487b7160e01b600052602160045260246000fd5b9052815460018181018455600093845260209384902083518051600d90940290910180546001600160a01b039485166001600160a01b03199182161782558287015193820180549490951693169290921790925560408201518051939491938492610aab926002850192910190612580565b5060608201518051610ac7916003840191602090910190612580565b5060808201518051610ae3916004840191602090910190612580565b5060a08201518051610aff916005840191602090910190612580565b5060c08201518051610b1b916006840191602090910190612580565b5060e08201518051610b37916007840191602090910190612580565b506101008201518051610b54916008840191602090910190612580565b506101208201518051610b71916009840191602090910190612580565b50610140820151600a820180546001600160a01b0319166001600160a01b0390921691909117905561016090910151600b909101556020820151600c8201805460ff19166001836004811115610bd757634e487b7160e01b600052602160045260246000fd5b021790555050600580547fcebcb95b72d4f2d7173b83fa812efaa148952f3604350b50c7c1120da3f1ad1c9250610c109060019061348a565b81548110610c2e57634e487b7160e01b600052603260045260246000fd5b90600052602060002090600d02016040516106059190613287565b60025433906001600160a01b03168114610c6257600080fd5b6000546040516303a8799360e31b81526001600160a01b0390911690631d43cc9890610c929085906004016133da565b600060405180830381600087803b158015610cac57600080fd5b505af1158015610cc0573d6000803e3d6000fd5b505050505050565b600254600090819081906001600160a01b0316331415610cfb57505060038054600192506001600160a01b031690610d8c565b604051631401502560e01b815273__Validations___________________________90631401502590610d35903390600690600401612e13565b60606040518083038186803b158015610d4d57600080fd5b505af4158015610d61573d6000803e3d6000fd5b505050506040513d601f19601f82011682018060405250810190610d8591906129c4565b9250925092505b909192565b6003546001600160a01b031681565b6002546001600160a01b031690565b6002546001600160a01b031681565b60606006805480602002602001604051908101604052809291908181526020016000905b8282101561134157600084815260209020604080516101c081018252600d850290920180546001600160a01b0390811692840192835260018201541660608401526002810180549192849290918491608085019190610e40906134dd565b80601f0160208091040260200160405190810160405280929190818152602001828054610e6c906134dd565b8015610eb95780601f10610e8e57610100808354040283529160200191610eb9565b820191906000526020600020905b815481529060010190602001808311610e9c57829003601f168201915b50505050508152602001600382018054610ed2906134dd565b80601f0160208091040260200160405190810160405280929190818152602001828054610efe906134dd565b8015610f4b5780601f10610f2057610100808354040283529160200191610f4b565b820191906000526020600020905b815481529060010190602001808311610f2e57829003601f168201915b50505050508152602001600482018054610f64906134dd565b80601f0160208091040260200160405190810160405280929190818152602001828054610f90906134dd565b8015610fdd5780601f10610fb257610100808354040283529160200191610fdd565b820191906000526020600020905b815481529060010190602001808311610fc057829003601f168201915b50505050508152602001600582018054610ff6906134dd565b80601f0160208091040260200160405190810160405280929190818152602001828054611022906134dd565b801561106f5780601f106110445761010080835404028352916020019161106f565b820191906000526020600020905b81548152906001019060200180831161105257829003601f168201915b50505050508152602001600682018054611088906134dd565b80601f01602080910402602001604051908101604052809291908181526020018280546110b4906134dd565b80156111015780601f106110d657610100808354040283529160200191611101565b820191906000526020600020905b8154815290600101906020018083116110e457829003601f168201915b5050505050815260200160078201805461111a906134dd565b80601f0160208091040260200160405190810160405280929190818152602001828054611146906134dd565b80156111935780601f1061116857610100808354040283529160200191611193565b820191906000526020600020905b81548152906001019060200180831161117657829003601f168201915b505050505081526020016008820180546111ac906134dd565b80601f01602080910402602001604051908101604052809291908181526020018280546111d8906134dd565b80156112255780601f106111fa57610100808354040283529160200191611225565b820191906000526020600020905b81548152906001019060200180831161120857829003601f168201915b5050505050815260200160098201805461123e906134dd565b80601f016020809104026020016040519081016040528092919081815260200182805461126a906134dd565b80156112b75780601f1061128c576101008083540402835291602001916112b7565b820191906000526020600020905b81548152906001019060200180831161129a57829003601f168201915b5050509183525050600a8201546001600160a01b0316602080830191909152600b90920154604090910152908252600c83015491019060ff16600481111561130f57634e487b7160e01b600052602160045260246000fd5b600481111561132e57634e487b7160e01b600052602160045260246000fd5b8152505081526020019060010190610de2565b50505050905090565b611352612604565b6040805160c0810182526002546001600160a01b03908116825260035416602082015260009181016113826124e3565b815260200160008054906101000a90046001600160a01b03166001600160a01b03166306fdde036040518163ffffffff1660e01b815260040160006040518083038186803b1580156113d357600080fd5b505afa1580156113e7573d6000803e3d6000fd5b505050506040513d6000823e601f3d908101601f1916820160405261140f9190810190612a0d565b815260200160008054906101000a90046001600160a01b03166001600160a01b03166395d89b416040518163ffffffff1660e01b815260040160006040518083038186803b15801561146057600080fd5b505afa158015611474573d6000803e3d6000fd5b505050506040513d6000823e601f3d908101601f1916820160405261149c9190810190612a0d565b81526020016114ab600161256d565b905291505090565b60045481565b60025432906001600160a01b031681146114d257600080fd5b6000600584815481106114f557634e487b7160e01b600052603260045260246000fd5b60009182526020909120604080516101c081018252600d90930290910180546001600160a01b039081169284019283526001820154166060840152600281018054919284929091849160808501919061154d906134dd565b80601f0160208091040260200160405190810160405280929190818152602001828054611579906134dd565b80156115c65780601f1061159b576101008083540402835291602001916115c6565b820191906000526020600020905b8154815290600101906020018083116115a957829003601f168201915b505050505081526020016003820180546115df906134dd565b80601f016020809104026020016040519081016040528092919081815260200182805461160b906134dd565b80156116585780601f1061162d57610100808354040283529160200191611658565b820191906000526020600020905b81548152906001019060200180831161163b57829003601f168201915b50505050508152602001600482018054611671906134dd565b80601f016020809104026020016040519081016040528092919081815260200182805461169d906134dd565b80156116ea5780601f106116bf576101008083540402835291602001916116ea565b820191906000526020600020905b8154815290600101906020018083116116cd57829003601f168201915b50505050508152602001600582018054611703906134dd565b80601f016020809104026020016040519081016040528092919081815260200182805461172f906134dd565b801561177c5780601f106117515761010080835404028352916020019161177c565b820191906000526020600020905b81548152906001019060200180831161175f57829003601f168201915b50505050508152602001600682018054611795906134dd565b80601f01602080910402602001604051908101604052809291908181526020018280546117c1906134dd565b801561180e5780601f106117e35761010080835404028352916020019161180e565b820191906000526020600020905b8154815290600101906020018083116117f157829003601f168201915b50505050508152602001600782018054611827906134dd565b80601f0160208091040260200160405190810160405280929190818152602001828054611853906134dd565b80156118a05780601f10611875576101008083540402835291602001916118a0565b820191906000526020600020905b81548152906001019060200180831161188357829003601f168201915b505050505081526020016008820180546118b9906134dd565b80601f01602080910402602001604051908101604052809291908181526020018280546118e5906134dd565b80156119325780601f1061190757610100808354040283529160200191611932565b820191906000526020600020905b81548152906001019060200180831161191557829003601f168201915b5050505050815260200160098201805461194b906134dd565b80601f0160208091040260200160405190810160405280929190818152602001828054611977906134dd565b80156119c45780601f10611999576101008083540402835291602001916119c4565b820191906000526020600020905b8154815290600101906020018083116119a757829003601f168201915b5050509183525050600a8201546001600160a01b0316602080830191909152600b90920154604090910152908252600c83015491019060ff166004811115611a1c57634e487b7160e01b600052602160045260246000fd5b6004811115611a3b57634e487b7160e01b600052602160045260246000fd5b9052506005805491925090611a529060019061348a565b81548110611a7057634e487b7160e01b600052603260045260246000fd5b90600052602060002090600d020160058581548110611a9f57634e487b7160e01b600052603260045260246000fd5b600091825260209091208254600d9092020180546001600160a01b039283166001600160a01b0319918216178255600180850154908301805491909416911617909155600280830180548492849290830191611afa906134dd565b611b0592919061264c565b506003820181600301908054611b1a906134dd565b611b2592919061264c565b506004820181600401908054611b3a906134dd565b611b4592919061264c565b506005820181600501908054611b5a906134dd565b611b6592919061264c565b506006820181600601908054611b7a906134dd565b611b8592919061264c565b506007820181600701908054611b9a906134dd565b611ba592919061264c565b506008820181600801908054611bba906134dd565b611bc592919061264c565b506009820181600901908054611bda906134dd565b611be592919061264c565b50600a8281015490820180546001600160a01b0319166001600160a01b03909216919091179055600b91820154910155600c82810154908201805460ff9092169160ff19166001836004811115611c4c57634e487b7160e01b600052602160045260246000fd5b02179055509050506005805480611c7357634e487b7160e01b600052603160045260246000fd5b600082815260208120600d6000199093019283020180546001600160a01b031990811682556001820180549091169055908181611cb360028301826126c7565b611cc16003830160006126c7565b611ccf6004830160006126c7565b611cdd6005830160006126c7565b611ceb6006830160006126c7565b611cf96007830160006126c7565b611d076008830160006126c7565b611d156009830160006126c7565b50600a810180546001600160a01b03191690556000600b9091015550600c01805460ff1916905590556020810151611d4e90849061075c565b7f8b35a8f8c2dc10b4672d1a95decdf391e3ef83540f79c8233f966a7642d403d581604051611d7d9190613274565b60405180910390a150505050565b6000611d968261256d565b905080341015611db85760405162461bcd60e51b8152600401610632906131b1565b6000611dc4823461348a565b604051909150339082156108fc029083906000818181858888f19350505050158015611df4573d6000803e3d6000fd5b506000611dff6124e3565b905080841115611e215760405162461bcd60e51b815260040161063290613111565b60005460405163a9059cbb60e01b81526001600160a01b039091169063a9059cbb90611e539033908890600401612fc4565b602060405180830381600087803b158015611e6d57600080fd5b505af1158015611e81573d6000803e3d6000fd5b505050506040513d601f19601f82011682018060405250810190611ea591906129aa565b507fc5d46be962adb867acf29dce93ab611e9064bffee951e4db9e52c693f73f4c388433604051611d7d9291906133e3565b60005460405163095ea7b360e01b81526001600160a01b039091169063095ea7b390611f099085908590600401612fc4565b602060405180830381600087803b158015611f2357600080fd5b505af1158015611f37573d6000803e3d6000fd5b505050506040513d601f19601f82011682018060405250810190611f5b91906129aa565b505050565b60606005805480602002602001604051908101604052809291908181526020016000905b8282101561134157600084815260209020604080516101c081018252600d850290920180546001600160a01b0390811692840192835260018201541660608401526002810180549192849290918491608085019190611fe2906134dd565b80601f016020809104026020016040519081016040528092919081815260200182805461200e906134dd565b801561205b5780601f106120305761010080835404028352916020019161205b565b820191906000526020600020905b81548152906001019060200180831161203e57829003601f168201915b50505050508152602001600382018054612074906134dd565b80601f01602080910402602001604051908101604052809291908181526020018280546120a0906134dd565b80156120ed5780601f106120c2576101008083540402835291602001916120ed565b820191906000526020600020905b8154815290600101906020018083116120d057829003601f168201915b50505050508152602001600482018054612106906134dd565b80601f0160208091040260200160405190810160405280929190818152602001828054612132906134dd565b801561217f5780601f106121545761010080835404028352916020019161217f565b820191906000526020600020905b81548152906001019060200180831161216257829003601f168201915b50505050508152602001600582018054612198906134dd565b80601f01602080910402602001604051908101604052809291908181526020018280546121c4906134dd565b80156122115780601f106121e657610100808354040283529160200191612211565b820191906000526020600020905b8154815290600101906020018083116121f457829003601f168201915b5050505050815260200160068201805461222a906134dd565b80601f0160208091040260200160405190810160405280929190818152602001828054612256906134dd565b80156122a35780601f10612278576101008083540402835291602001916122a3565b820191906000526020600020905b81548152906001019060200180831161228657829003601f168201915b505050505081526020016007820180546122bc906134dd565b80601f01602080910402602001604051908101604052809291908181526020018280546122e8906134dd565b80156123355780601f1061230a57610100808354040283529160200191612335565b820191906000526020600020905b81548152906001019060200180831161231857829003601f168201915b5050505050815260200160088201805461234e906134dd565b80601f016020809104026020016040519081016040528092919081815260200182805461237a906134dd565b80156123c75780601f1061239c576101008083540402835291602001916123c7565b820191906000526020600020905b8154815290600101906020018083116123aa57829003601f168201915b505050505081526020016009820180546123e0906134dd565b80601f016020809104026020016040519081016040528092919081815260200182805461240c906134dd565b80156124595780601f1061242e57610100808354040283529160200191612459565b820191906000526020600020905b81548152906001019060200180831161243c57829003601f168201915b5050509183525050600a8201546001600160a01b0316602080830191909152600b90920154604090910152908252600c83015491019060ff1660048111156124b157634e487b7160e01b600052602160045260246000fd5b60048111156124d057634e487b7160e01b600052602160045260246000fd5b8152505081526020019060010190611f84565b600080546003546040516370a0823160e01b81526001600160a01b03928316926370a082319261251892911690600401612ddb565b60206040518083038186803b15801561253057600080fd5b505afa158015612544573d6000803e3d6000fd5b505050506040513d601f19601f820116820180604052508101906125689190612b2b565b905090565b60006105458266038d7ea4c6800061346b565b82805461258c906134dd565b90600052602060002090601f0160209004810192826125ae57600085556125f4565b82601f106125c757805160ff19168380011785556125f4565b828001600101855582156125f4579182015b828111156125f45782518255916020019190600101906125d9565b50612600929150612706565b5090565b6040518060c0016040528060006001600160a01b0316815260200160006001600160a01b03168152602001600081526020016060815260200160608152602001600081525090565b828054612658906134dd565b90600052602060002090601f01602090048101928261267a57600085556125f4565b82601f1061268b57805485556125f4565b828001600101855582156125f457600052602060002091601f016020900482015b828111156125f45782548255916001019190600101906126ac565b5080546126d3906134dd565b6000825580601f106126e55750612703565b601f0160209004906000526020600020908101906127039190612706565b50565b5b808211156126005760008155600101612707565b80356104bf81613565565b805180151581146104bf57600080fd5b600082601f830112612746578081fd5b813561275961275482613443565b613419565b81815284602083860101111561276d578283fd5b816020850160208301379081016020019190915292915050565b600061018080838503121561279a578182fd5b6127a381613419565b9150506127af8261271b565b81526127bd6020830161271b565b6020820152604082013567ffffffffffffffff808211156127dd57600080fd5b6127e985838601612736565b6040840152606084013591508082111561280257600080fd5b61280e85838601612736565b6060840152608084013591508082111561282757600080fd5b61283385838601612736565b608084015260a084013591508082111561284c57600080fd5b61285885838601612736565b60a084015260c084013591508082111561287157600080fd5b61287d85838601612736565b60c084015260e084013591508082111561289657600080fd5b6128a285838601612736565b60e0840152610100915081840135818111156128bd57600080fd5b6128c986828701612736565b8385015250610120915081840135818111156128e457600080fd5b6128f086828701612736565b8385015250505061014061290581840161271b565b818301525061016080830135818301525092915050565b60006020828403121561292d578081fd5b813561293881613565565b9392505050565b600080600060608486031215612953578182fd5b833561295e81613565565b9250602084013561296e81613565565b929592945050506040919091013590565b60008060408385031215612991578182fd5b823561299c81613565565b946020939093013593505050565b6000602082840312156129bb578081fd5b61293882612726565b6000806000606084860312156129d8578283fd5b6129e184612726565b925060208401516129f181613565565b6040850151909250612a028161357a565b809150509250925092565b600060208284031215612a1e578081fd5b815167ffffffffffffffff811115612a34578182fd5b8201601f81018413612a44578182fd5b8051612a5261275482613443565b818152856020838501011115612a66578384fd5b612a778260208301602086016134ad565b95945050505050565b60008060408385031215612a92578182fd5b823567ffffffffffffffff811115612aa8578283fd5b612ab485828601612787565b9250506020830135612ac58161357a565b809150509250929050565b60008060408385031215612ae2578182fd5b823567ffffffffffffffff811115612af8578283fd5b612b0485828601612787565b95602094909401359450505050565b600060208284031215612b24578081fd5b5035919050565b600060208284031215612b3c578081fd5b5051919050565b60008060408385031215612b55578081fd5b82359150602083013567ffffffffffffffff811115612b72578182fd5b612b7e85828601612787565b9150509250929050565b6001600160a01b03169052565b60058110612bb357634e487b7160e01b600052602160045260246000fd5b9052565b60008151808452612bcf8160208601602086016134ad565b601f01601f19169290920160200192915050565b805460009060028104600180831680612bfd57607f831692505b6020808410821415612c1d57634e487b7160e01b86526022600452602486fd5b838852818015612c345760018114612c4857612c76565b60ff19861689830152604089019650612c76565b876000528160002060005b86811015612c6e5781548b8201850152908501908301612c53565b8a0183019750505b50505050505092915050565b6000815160408452612c98604085018251612b88565b6020810151612caa6060860182612b88565b506040810151610180806080870152612cc76101c0870183612bb7565b91506060830151603f19808885030160a0890152612ce58483612bb7565b935060808501519150808885030160c0890152612d028483612bb7565b935060a08501519150808885030160e0890152612d1f8483612bb7565b935060c085015191506101008189860301818a0152612d3e8584612bb7565b945060e08601519250610120828a870301818b0152612d5d8685612bb7565b95508187015193506101409150828a870301828b0152612d7d8685612bb7565b955080870151935050610160828a870301818b0152612d9c8685612bb7565b9550818701519350612db0858b0185612b88565b808701516101a08b0152505050505060208401519150612dd36020860183612b95565b949350505050565b6001600160a01b0391909116815260200190565b6001600160a01b039384168152919092166020820152604081019190915260600190565b6000604080830160018060a01b03861684526020828186015281865480845260609350838701915083838202880101888752838720875b83811015612fb457605f198a8403018552878352612e73888401612e6e84546134a1565b612b88565b612e8060018301546134a1565b612e8c88850182612b88565b50610180806080850152612ea76101c0850160028501612be3565b603f19808683030160a0870152612ec18260038701612be3565b9150808683030160c0870152612eda8260048701612be3565b9150808683030160e0870152612ef38260058701612be3565b91508086830301610100870152612f0d8260068701612be3565b91508086830301610120870152612f278260078701612be3565b91508086830301610140870152612f418260088701612be3565b9150808683030161016087015250612f5c8160098601612be3565b9050612f6b600a8501546134a1565b612f7783870182612b88565b50600b8401546101a0860152612f90600c850154613518565b9150612f9e88860183612b95565b95870195935050600d9190910190600101612e4a565b50909a9950505050505050505050565b6001600160a01b03929092168252602082015260400190565b6000602080830181845280855180835260408601915060408482028701019250838701855b8281101561303057603f1988860301845261301e858351612c82565b94509285019290850190600101613002565b5092979650505050505050565b901515815260200190565b83151581526001600160a01b038316602082015260608101612dd36040830184612b95565b6000602082526129386020830184612bb7565b6020808252602f908201527f4e6563657369746173206465766f6c76657220756e206e756d65726f20706f7360408201526e697469766f20646520746f6b656e7360881b606082015260800190565b60208082526022908201527f5961207469656e657320756e6120736f6c696369747564207265676973747261604082015261646160f01b606082015260800190565b60208082526023908201527f436f6d70726120756e206e756d65726f20646520746f6b656e7320616465637560408201526261646f60e81b606082015260800190565b6020808252603b908201527f4e6f20707565646573206465766f6c766572206d617320746f6b656e7320646560408201527f206c6f7320717565207469656e657320646973706f6e69626c65730000000000606082015260800190565b60208082526029908201527f436f6d707261206d656e6f7320546f6b656e73206f207061676120636f6e206d60408201526861732045746865727360b81b606082015260800190565b60006020825260018060a01b038084511660208401528060208501511660408401525060408301516060830152606083015160c0608084015261324060e0840182612bb7565b90506080840151601f198483030160a085015261325d8282612bb7565b91505060a084015160c08401528091505092915050565b6000602082526129386020830184612c82565b600060208252604060208301526132a560608301612e6e85546134a1565b6132b260018401546134a1565b6132bf6080840182612b88565b506101808060a08401526132da6101e0840160028601612be3565b605f19808583030160c08601526132f48260038801612be3565b9150808583030160e086015261330d8260048801612be3565b915080858303016101008601526133278260058801612be3565b915080858303016101208601526133418260068801612be3565b9150808583030161014086015261335b8260078801612be3565b915080858303016101608601526133758260088801612be3565b91508085830301838601525061338e8160098701612be3565b91505061339e600a8501546134a1565b6133ac6101a0850182612b88565b50600b8401546101c08401526133c5600c850154613518565b6133d26040850182612b95565b509392505050565b90815260200190565b9182526001600160a01b0316602082015260400190565b9283526001600160a01b03918216602084015216604082015260600190565b60405181810167ffffffffffffffff8111828210171561343b5761343b61354f565b604052919050565b600067ffffffffffffffff82111561345d5761345d61354f565b50601f01601f191660200190565b600081600019048311821515161561348557613485613539565b500290565b60008282101561349c5761349c613539565b500390565b6001600160a01b031690565b60005b838110156134c85781810151838201526020016134b0565b838111156134d7576000848401525b50505050565b6002810460018216806134f157607f821691505b6020821081141561351257634e487b7160e01b600052602260045260246000fd5b50919050565b60ff1690565b600060001982141561353257613532613539565b5060010190565b634e487b7160e01b600052601160045260246000fd5b634e487b7160e01b600052604160045260246000fd5b6001600160a01b038116811461270357600080fd5b6005811061270357600080fdfea264697066735822122030ba26bcc6f53ed5342ef3eb508a9e36d8b6f6ff067b3eed0c8fa54555105bce64736f6c63430008000033608060405234801561001057600080fd5b5060405161095638038061095683398101604081905261002f91610046565b60008181553381526001602052604090205561005e565b600060208284031215610057578081fd5b5051919050565b6108e98061006d6000396000f3fe608060405234801561001057600080fd5b50600436106100b45760003560e01c8063324536eb11610071578063324536eb1461014957806370a082311461015157806395d89b4114610164578063a9059cbb1461016c578063dd62ed3e1461017f578063eee4b8d414610192576100b4565b806306fdde03146100b9578063095ea7b3146100d757806318160ddd146100f75780631d43cc981461010c57806323b872dd14610121578063313ce56714610134575b600080fd5b6100c16101a5565b6040516100ce9190610701565b60405180910390f35b6100ea6100e53660046106b5565b6101ca565b6040516100ce91906106f6565b6100ff610234565b6040516100ce9190610857565b61011f61011a3660046106de565b61023a565b005b6100ea61012f36600461067a565b610277565b61013c6103f7565b6040516100ce9190610860565b6100ff6103fc565b6100ff61015f36600461062e565b610402565b6100c1610421565b6100ea61017a3660046106b5565b610440565b6100ff61018d366004610648565b610504565b6100ea6101a036600461067a565b61052f565b6040518060400160405280600981526020016845524332305f4d564d60b81b81525081565b3260008181526002602090815260408083206001600160a01b038716808552925280832085905551919290917f8c5be1e5ebec7d5bd14f71427d1e84f3dd0314c0f7b2291e5b200ac8c7c3b92590610223908690610857565b60405180910390a350600192915050565b60005490565b8060008082825461024b919061086e565b9091555050336000908152600160205260408120805483929061026f90849061086e565b909155505050565b6001600160a01b0383166000908152600160205260408120548211156102b85760405162461bcd60e51b81526004016102af906107ca565b60405180910390fd5b6001600160a01b03841660009081526002602090815260408083203284529091529020548211156102fb5760405162461bcd60e51b81526004016102af9061077e565b6001600160a01b03841660009081526001602052604090205461031e90836105b9565b6001600160a01b038516600090815260016020908152604080832093909355600281528282203283529052205461035590836105b9565b6001600160a01b03808616600090815260026020908152604080832032845282528083209490945591861681526001909152205461039390836105ea565b6001600160a01b0380851660008181526001602052604090819020939093559151908616907fddf252ad1be2c89b69c2b068fc378daa952ba7f163c4a11628f55a4df523b3ef906103e5908690610857565b60405180910390a35060019392505050565b600281565b60005481565b6001600160a01b0381166000908152600160205260409020545b919050565b604051806040016040528060038152602001624d564d60e81b81525081565b3360009081526001602052604081205482111561046f5760405162461bcd60e51b81526004016102af90610754565b3360009081526001602052604090205461048990836105b9565b33600090815260016020526040808220929092556001600160a01b038516815220546104b590836105ea565b6001600160a01b0384166000818152600160205260409081902092909255905133907fddf252ad1be2c89b69c2b068fc378daa952ba7f163c4a11628f55a4df523b3ef90610223908690610857565b6001600160a01b03918216600090815260026020908152604080832093909416825291909152205490565b6001600160a01b0383166000908152600160205260408120548211156105675760405162461bcd60e51b81526004016102af90610801565b6001600160a01b03841660009081526001602052604090205461058a90836105b9565b6001600160a01b03808616600090815260016020526040808220939093559085168152205461039390836105ea565b6000828211156105d957634e487b7160e01b600052600160045260246000fd5b6105e38284610886565b9392505050565b6000806105f7838561086e565b9050838110156105e357634e487b7160e01b600052600160045260246000fd5b80356001600160a01b038116811461041c57600080fd5b60006020828403121561063f578081fd5b6105e382610617565b6000806040838503121561065a578081fd5b61066383610617565b915061067160208401610617565b90509250929050565b60008060006060848603121561068e578081fd5b61069784610617565b92506106a560208501610617565b9150604084013590509250925092565b600080604083850312156106c7578182fd5b6106d083610617565b946020939093013593505050565b6000602082840312156106ef578081fd5b5035919050565b901515815260200190565b6000602080835283518082850152825b8181101561072d57858101830151858201604001528201610711565b8181111561073e5783604083870101525b50601f01601f1916929092016040019392505050565b60208082526010908201526f4572726f7220656e2062616c616e636560801b604082015260600190565b6020808252602c908201527f4e6f2073652068616e2064656c656761646f206c6f7320746f6b656e7320612060408201526b3630903234b932b1b1b4b7b760a11b606082015260800190565b6020808252601c908201527f456c206f776e6572206e6f207469656e65206c6f7320746f6b656e7300000000604082015260600190565b60208082526036908201527f456c206e756d65726f20646520746f6b656e732061207472616e736665726972604082015275206573206d61796f722071756520656c2073616c646f60501b606082015260800190565b90815260200190565b60ff91909116815260200190565b600082198211156108815761088161089d565b500190565b6000828210156108985761089861089d565b500390565b634e487b7160e01b600052601160045260246000fdfea2646970667358221220b665137f9e4db2be88f29857b5961ded0163a6ada5d2f02a90939ed981ea4a4664736f6c63430008000033",
  "immutableReferences": {},
  "source": "// SPDX-License-Identifier: MIT\r\npragma solidity >=0.4.22 <0.9.0;\r\npragma experimental ABIEncoderV2;\r\nimport \"./TokenErc20/ERC20.sol\";\r\nimport \"./models/InfoContrato.sol\";\r\nimport \"./libraries/Validations.sol\";\r\n\r\ncontract ReguladorMercado {\r\n    //Token del contrato\r\n    ERC20Basic private token;\r\n\r\n    string public name;\r\n    address public owner;\r\n    address public dirContrato;\r\n    uint256 public cantidadTokens = 1000000;\r\n    SolicitudContrato[] private solicitudes;\r\n    SolicitudContrato[] private registrosContratos;\r\n\r\n    event ComprandoTokens(uint256, address);\r\n    event tokensDevueltos(uint256, address);\r\n    event EnviarTokensEvent(uint256, address, address);\r\n    event SolicitudDeRegistro(SolicitudContrato);\r\n    event ContratoDiligenciado(SolicitudContrato);\r\n\r\n    constructor(string memory _name) {\r\n        name = _name;\r\n        owner = msg.sender;\r\n        dirContrato = address(this);\r\n        token = new ERC20Basic(cantidadTokens);\r\n    }\r\n\r\n    modifier authorize(address direction) {\r\n        require(direction == owner);\r\n        _;\r\n    }\r\n\r\n    function PrecioTokens(uint256 _numTokens) private pure returns (uint256) {\r\n        return _numTokens * (1e15);\r\n    }\r\n\r\n    function GenerarTokens(uint256 numTokens) public authorize(msg.sender) {\r\n        token.increaseTotalSupply(numTokens);\r\n    }\r\n\r\n    function TokensDisponibles() public view returns (uint256) {\r\n        return token.balanceOf(dirContrato);\r\n    }\r\n\r\n    function ComprarTokens(uint256 numTokens) public payable {\r\n        uint256 coste = PrecioTokens(numTokens);\r\n        //Se requiere verificar el fondo del comprador\r\n        require(\r\n            msg.value >= coste,\r\n            \"Compra menos Tokens o paga con mas Ethers\"\r\n        );\r\n        //Devolver el dinero sobrante\r\n        uint256 returnValue = msg.value - coste;\r\n        payable(msg.sender).transfer(returnValue);\r\n        //Obtener el balance de tokens del contrato\r\n        uint256 balance = TokensDisponibles();\r\n        //Filtro para evaluar los tokens disponibles\r\n        require(numTokens <= balance, \"Compra un numero de tokens adecuado\");\r\n        //Transferir tokens al comprador\r\n        token.transfer(msg.sender, numTokens);\r\n        emit ComprandoTokens(numTokens, msg.sender);\r\n    }\r\n\r\n    function IntercambiarTokens(\r\n        address _dir1,\r\n        address _dir2,\r\n        uint256 numTokens\r\n    ) public {\r\n        token.transferFrom(_dir1, _dir2, numTokens);\r\n        emit EnviarTokensEvent(numTokens, _dir1, _dir2);\r\n    }\r\n\r\n    function MisTokens(address _direction) public view returns (uint256) {\r\n        return token.balanceOf(_direction);\r\n    }\r\n\r\n    function DevolverTokens(uint256 numTokens) public {\r\n        //El numero de tokens debe de ser mayor a cero\r\n        require(\r\n            numTokens > 0,\r\n            \"Necesitas devolver un numero positivo de tokens\"\r\n        );\r\n        //EL cliente debe tener los tokens que desea devolver\r\n        require(\r\n            numTokens <= MisTokens(msg.sender),\r\n            \"No puedes devolver mas tokens de los que tienes disponibles\"\r\n        );\r\n        //1.Devolucion de tokens por parte del cliente al contrato\r\n        token.transferTwo(msg.sender, address(this), numTokens);\r\n        payable(msg.sender).transfer(PrecioTokens(numTokens));\r\n\r\n        //2.Pago de tokens devueltos en ethers\r\n        emit tokensDevueltos(numTokens, msg.sender);\r\n    }\r\n\r\n    function delegarTokens(address delegate, uint256 numTokens) public {\r\n        token.approve(delegate, numTokens);\r\n    }\r\n\r\n    function getSolicitudes() public view returns (SolicitudContrato[] memory) {\r\n        return solicitudes;\r\n    }\r\n\r\n    function getRegistros() public view returns (SolicitudContrato[] memory) {\r\n        return registrosContratos;\r\n    }\r\n\r\n    function registrarSolicitud(\r\n        InfoContrato memory _infoContrato,\r\n        uint256 _tipoContrato\r\n    ) public {\r\n        bool bandera = existeSolicitud(msg.sender);\r\n        require(!bandera, \"Ya tienes una solicitud registrada\");\r\n        solicitudes.push(\r\n            SolicitudContrato(_infoContrato, TiposContratos(_tipoContrato))\r\n        );\r\n        emit SolicitudDeRegistro(solicitudes[solicitudes.length - 1]);\r\n    }\r\n\r\n    function diligenciarSolicitud(\r\n        uint256 index,\r\n        InfoContrato memory infoContrato\r\n    ) public authorize(tx.origin) {\r\n        SolicitudContrato memory solicitud = solicitudes[index];\r\n        solicitudes[index] = solicitudes[solicitudes.length - 1];\r\n        solicitudes.pop();\r\n        setRegistroContrato(infoContrato, solicitud.tipoContrato);\r\n        emit ContratoDiligenciado(solicitud);\r\n    }\r\n\r\n    function getOwner() public view returns (address) {\r\n        return owner;\r\n    }\r\n\r\n    function existeSolicitud(address ownerSolicitud)\r\n        public\r\n        view\r\n        returns (bool)\r\n    {\r\n        if (solicitudes.length > 0) {\r\n            for (uint256 i = 0; i < solicitudes.length; i++) {\r\n                if (ownerSolicitud == solicitudes[i].infoContrato.owner) {\r\n                    return true;\r\n                }\r\n            }\r\n        }\r\n        return false;\r\n    }\r\n\r\n    function setRegistroContrato(\r\n        InfoContrato memory infoContrato,\r\n        TiposContratos tipoContrato\r\n    ) public {\r\n        registrosContratos.push(SolicitudContrato(infoContrato, tipoContrato));\r\n    }\r\n\r\n    function validarUsuario()\r\n        public\r\n        view\r\n        returns (\r\n            bool,\r\n            address,\r\n            TiposContratos\r\n        )\r\n    {\r\n        if (msg.sender == owner) {\r\n            return (true, dirContrato, TiposContratos.ReguladorMercado);\r\n        }\r\n\r\n        return Validations.validarUsuario(msg.sender, registrosContratos);\r\n    }\r\n\r\n    function getIndexSolicitudes(address dir) public view returns (uint256) {\r\n        for (uint256 i = 0; i < solicitudes.length; i++) {\r\n            if (dir == solicitudes[i].infoContrato.owner) {\r\n                return i;\r\n            }\r\n        }\r\n        return 0;\r\n    }\r\n\r\n    function getInfoRegulador() public view returns (InfoRegulador memory) {\r\n        InfoRegulador memory tempRegulador = InfoRegulador(\r\n            owner,\r\n            dirContrato,\r\n            TokensDisponibles(),\r\n            token.name(),\r\n            token.symbol(),\r\n            PrecioTokens(1)\r\n        );\r\n        return tempRegulador;\r\n    }\r\n}\r\n",
  "sourcePath": "C:\\Users\\alejandro.perez\\Desktop\\DemoMvmTruffle\\contracts\\ReguladorMercado.sol",
  "compiler": {
    "name": "solc",
    "version": "0.8.0+commit.c7dfd78e.Emscripten.clang"
  },
  "schemaVersion": "3.4.7",
  "updatedAt": "2022-07-15T00:25:52.817Z",
  "networkType": "ethereum",
  "devdoc": {
    "kind": "dev",
    "methods": {},
    "version": 1
  },
  "userdoc": {
    "kind": "user",
    "methods": {},
    "version": 1
  }
}