{
  "contractName": "ReguladorMercado",
  "abi": [
    {
      "inputs": [
        {
          "internalType": "string",
          "name": "_name",
          "type": "string"
        }
      ],
      "stateMutability": "nonpayable",
      "type": "constructor"
    },
    {
      "anonymous": false,
      "inputs": [
        {
          "indexed": false,
          "internalType": "uint256",
          "name": "",
          "type": "uint256"
        },
        {
          "indexed": false,
          "internalType": "address",
          "name": "",
          "type": "address"
        }
      ],
      "name": "ComprandoTokens",
      "type": "event"
    },
    {
      "anonymous": false,
      "inputs": [
        {
          "components": [
            {
              "components": [
                {
                  "internalType": "address",
                  "name": "dirContrato",
                  "type": "address"
                },
                {
                  "internalType": "address",
                  "name": "owner",
                  "type": "address"
                },
                {
                  "internalType": "string",
                  "name": "nit",
                  "type": "string"
                },
                {
                  "internalType": "string",
                  "name": "empresa",
                  "type": "string"
                },
                {
                  "internalType": "string",
                  "name": "contacto",
                  "type": "string"
                },
                {
                  "internalType": "string",
                  "name": "telefono",
                  "type": "string"
                },
                {
                  "internalType": "string",
                  "name": "correo",
                  "type": "string"
                },
                {
                  "internalType": "string",
                  "name": "departamento",
                  "type": "string"
                },
                {
                  "internalType": "string",
                  "name": "ciudad",
                  "type": "string"
                },
                {
                  "internalType": "string",
                  "name": "direccion",
                  "type": "string"
                },
                {
                  "internalType": "address",
                  "name": "comercializador",
                  "type": "address"
                },
                {
                  "internalType": "uint256",
                  "name": "tipoComercio",
                  "type": "uint256"
                }
              ],
              "internalType": "struct InfoContrato",
              "name": "infoContrato",
              "type": "tuple"
            },
            {
              "internalType": "enum TiposContratos",
              "name": "tipoContrato",
              "type": "uint8"
            }
          ],
          "indexed": false,
          "internalType": "struct SolicitudContrato",
          "name": "",
          "type": "tuple"
        }
      ],
      "name": "ContratoDiligenciado",
      "type": "event"
    },
    {
      "anonymous": false,
      "inputs": [
        {
          "indexed": false,
          "internalType": "uint256",
          "name": "",
          "type": "uint256"
        },
        {
          "indexed": false,
          "internalType": "address",
          "name": "",
          "type": "address"
        },
        {
          "indexed": false,
          "internalType": "address",
          "name": "",
          "type": "address"
        }
      ],
      "name": "EnviarTokensEvent",
      "type": "event"
    },
    {
      "anonymous": false,
      "inputs": [
        {
          "components": [
            {
              "components": [
                {
                  "internalType": "address",
                  "name": "dirContrato",
                  "type": "address"
                },
                {
                  "internalType": "address",
                  "name": "owner",
                  "type": "address"
                },
                {
                  "internalType": "string",
                  "name": "nit",
                  "type": "string"
                },
                {
                  "internalType": "string",
                  "name": "empresa",
                  "type": "string"
                },
                {
                  "internalType": "string",
                  "name": "contacto",
                  "type": "string"
                },
                {
                  "internalType": "string",
                  "name": "telefono",
                  "type": "string"
                },
                {
                  "internalType": "string",
                  "name": "correo",
                  "type": "string"
                },
                {
                  "internalType": "string",
                  "name": "departamento",
                  "type": "string"
                },
                {
                  "internalType": "string",
                  "name": "ciudad",
                  "type": "string"
                },
                {
                  "internalType": "string",
                  "name": "direccion",
                  "type": "string"
                },
                {
                  "internalType": "address",
                  "name": "comercializador",
                  "type": "address"
                },
                {
                  "internalType": "uint256",
                  "name": "tipoComercio",
                  "type": "uint256"
                }
              ],
              "internalType": "struct InfoContrato",
              "name": "infoContrato",
              "type": "tuple"
            },
            {
              "internalType": "enum TiposContratos",
              "name": "tipoContrato",
              "type": "uint8"
            }
          ],
          "indexed": false,
          "internalType": "struct SolicitudContrato",
          "name": "",
          "type": "tuple"
        }
      ],
      "name": "SolicitudDeRegistro",
      "type": "event"
    },
    {
      "anonymous": false,
      "inputs": [
        {
          "indexed": false,
          "internalType": "uint256",
          "name": "",
          "type": "uint256"
        },
        {
          "indexed": false,
          "internalType": "address",
          "name": "",
          "type": "address"
        }
      ],
      "name": "tokensDevueltos",
      "type": "event"
    },
    {
      "inputs": [],
      "name": "cantidadTokens",
      "outputs": [
        {
          "internalType": "uint256",
          "name": "",
          "type": "uint256"
        }
      ],
      "stateMutability": "view",
      "type": "function",
      "constant": true
    },
    {
      "inputs": [],
      "name": "dirContrato",
      "outputs": [
        {
          "internalType": "address",
          "name": "",
          "type": "address"
        }
      ],
      "stateMutability": "view",
      "type": "function",
      "constant": true
    },
    {
      "inputs": [],
      "name": "name",
      "outputs": [
        {
          "internalType": "string",
          "name": "",
          "type": "string"
        }
      ],
      "stateMutability": "view",
      "type": "function",
      "constant": true
    },
    {
      "inputs": [],
      "name": "owner",
      "outputs": [
        {
          "internalType": "address",
          "name": "",
          "type": "address"
        }
      ],
      "stateMutability": "view",
      "type": "function",
      "constant": true
    },
    {
      "inputs": [
        {
          "internalType": "uint256",
          "name": "numTokens",
          "type": "uint256"
        }
      ],
      "name": "GenerarTokens",
      "outputs": [],
      "stateMutability": "nonpayable",
      "type": "function"
    },
    {
      "inputs": [],
      "name": "TokensDisponibles",
      "outputs": [
        {
          "internalType": "uint256",
          "name": "",
          "type": "uint256"
        }
      ],
      "stateMutability": "view",
      "type": "function",
      "constant": true
    },
    {
      "inputs": [
        {
          "internalType": "uint256",
          "name": "numTokens",
          "type": "uint256"
        }
      ],
      "name": "ComprarTokens",
      "outputs": [],
      "stateMutability": "payable",
      "type": "function",
      "payable": true
    },
    {
      "inputs": [
        {
          "internalType": "address",
          "name": "_dir1",
          "type": "address"
        },
        {
          "internalType": "address",
          "name": "_dir2",
          "type": "address"
        },
        {
          "internalType": "address",
          "name": "_dir3",
          "type": "address"
        },
        {
          "internalType": "uint256",
          "name": "numTokens",
          "type": "uint256"
        }
      ],
      "name": "IntercambiarTokens",
      "outputs": [],
      "stateMutability": "nonpayable",
      "type": "function"
    },
    {
      "inputs": [
        {
          "internalType": "address",
          "name": "_direction",
          "type": "address"
        }
      ],
      "name": "MisTokens",
      "outputs": [
        {
          "internalType": "uint256",
          "name": "",
          "type": "uint256"
        }
      ],
      "stateMutability": "view",
      "type": "function",
      "constant": true
    },
    {
      "inputs": [
        {
          "internalType": "uint256",
          "name": "numTokens",
          "type": "uint256"
        }
      ],
      "name": "DevolverTokens",
      "outputs": [],
      "stateMutability": "nonpayable",
      "type": "function"
    },
    {
      "inputs": [
        {
          "internalType": "address",
          "name": "delegate",
          "type": "address"
        },
        {
          "internalType": "uint256",
          "name": "numTokens",
          "type": "uint256"
        }
      ],
      "name": "delegarTokens",
      "outputs": [],
      "stateMutability": "nonpayable",
      "type": "function"
    },
    {
      "inputs": [
        {
          "internalType": "address",
          "name": "delegate",
          "type": "address"
        },
        {
          "internalType": "uint256",
          "name": "numTokens",
          "type": "uint256"
        }
      ],
      "name": "retornarDelegacion",
      "outputs": [],
      "stateMutability": "nonpayable",
      "type": "function"
    },
    {
      "inputs": [
        {
          "internalType": "address",
          "name": "delegate",
          "type": "address"
        }
      ],
      "name": "getTokensDelegados",
      "outputs": [
        {
          "internalType": "uint256",
          "name": "",
          "type": "uint256"
        }
      ],
      "stateMutability": "view",
      "type": "function",
      "constant": true
    },
    {
      "inputs": [],
      "name": "getSolicitudes",
      "outputs": [
        {
          "components": [
            {
              "components": [
                {
                  "internalType": "address",
                  "name": "dirContrato",
                  "type": "address"
                },
                {
                  "internalType": "address",
                  "name": "owner",
                  "type": "address"
                },
                {
                  "internalType": "string",
                  "name": "nit",
                  "type": "string"
                },
                {
                  "internalType": "string",
                  "name": "empresa",
                  "type": "string"
                },
                {
                  "internalType": "string",
                  "name": "contacto",
                  "type": "string"
                },
                {
                  "internalType": "string",
                  "name": "telefono",
                  "type": "string"
                },
                {
                  "internalType": "string",
                  "name": "correo",
                  "type": "string"
                },
                {
                  "internalType": "string",
                  "name": "departamento",
                  "type": "string"
                },
                {
                  "internalType": "string",
                  "name": "ciudad",
                  "type": "string"
                },
                {
                  "internalType": "string",
                  "name": "direccion",
                  "type": "string"
                },
                {
                  "internalType": "address",
                  "name": "comercializador",
                  "type": "address"
                },
                {
                  "internalType": "uint256",
                  "name": "tipoComercio",
                  "type": "uint256"
                }
              ],
              "internalType": "struct InfoContrato",
              "name": "infoContrato",
              "type": "tuple"
            },
            {
              "internalType": "enum TiposContratos",
              "name": "tipoContrato",
              "type": "uint8"
            }
          ],
          "internalType": "struct SolicitudContrato[]",
          "name": "",
          "type": "tuple[]"
        }
      ],
      "stateMutability": "view",
      "type": "function",
      "constant": true
    },
    {
      "inputs": [],
      "name": "getRegistros",
      "outputs": [
        {
          "components": [
            {
              "components": [
                {
                  "internalType": "address",
                  "name": "dirContrato",
                  "type": "address"
                },
                {
                  "internalType": "address",
                  "name": "owner",
                  "type": "address"
                },
                {
                  "internalType": "string",
                  "name": "nit",
                  "type": "string"
                },
                {
                  "internalType": "string",
                  "name": "empresa",
                  "type": "string"
                },
                {
                  "internalType": "string",
                  "name": "contacto",
                  "type": "string"
                },
                {
                  "internalType": "string",
                  "name": "telefono",
                  "type": "string"
                },
                {
                  "internalType": "string",
                  "name": "correo",
                  "type": "string"
                },
                {
                  "internalType": "string",
                  "name": "departamento",
                  "type": "string"
                },
                {
                  "internalType": "string",
                  "name": "ciudad",
                  "type": "string"
                },
                {
                  "internalType": "string",
                  "name": "direccion",
                  "type": "string"
                },
                {
                  "internalType": "address",
                  "name": "comercializador",
                  "type": "address"
                },
                {
                  "internalType": "uint256",
                  "name": "tipoComercio",
                  "type": "uint256"
                }
              ],
              "internalType": "struct InfoContrato",
              "name": "infoContrato",
              "type": "tuple"
            },
            {
              "internalType": "enum TiposContratos",
              "name": "tipoContrato",
              "type": "uint8"
            }
          ],
          "internalType": "struct SolicitudContrato[]",
          "name": "",
          "type": "tuple[]"
        }
      ],
      "stateMutability": "view",
      "type": "function",
      "constant": true
    },
    {
      "inputs": [
        {
          "components": [
            {
              "internalType": "address",
              "name": "dirContrato",
              "type": "address"
            },
            {
              "internalType": "address",
              "name": "owner",
              "type": "address"
            },
            {
              "internalType": "string",
              "name": "nit",
              "type": "string"
            },
            {
              "internalType": "string",
              "name": "empresa",
              "type": "string"
            },
            {
              "internalType": "string",
              "name": "contacto",
              "type": "string"
            },
            {
              "internalType": "string",
              "name": "telefono",
              "type": "string"
            },
            {
              "internalType": "string",
              "name": "correo",
              "type": "string"
            },
            {
              "internalType": "string",
              "name": "departamento",
              "type": "string"
            },
            {
              "internalType": "string",
              "name": "ciudad",
              "type": "string"
            },
            {
              "internalType": "string",
              "name": "direccion",
              "type": "string"
            },
            {
              "internalType": "address",
              "name": "comercializador",
              "type": "address"
            },
            {
              "internalType": "uint256",
              "name": "tipoComercio",
              "type": "uint256"
            }
          ],
          "internalType": "struct InfoContrato",
          "name": "_infoContrato",
          "type": "tuple"
        },
        {
          "internalType": "uint256",
          "name": "_tipoContrato",
          "type": "uint256"
        }
      ],
      "name": "registrarSolicitud",
      "outputs": [],
      "stateMutability": "nonpayable",
      "type": "function"
    },
    {
      "inputs": [
        {
          "internalType": "uint256",
          "name": "index",
          "type": "uint256"
        },
        {
          "components": [
            {
              "internalType": "address",
              "name": "dirContrato",
              "type": "address"
            },
            {
              "internalType": "address",
              "name": "owner",
              "type": "address"
            },
            {
              "internalType": "string",
              "name": "nit",
              "type": "string"
            },
            {
              "internalType": "string",
              "name": "empresa",
              "type": "string"
            },
            {
              "internalType": "string",
              "name": "contacto",
              "type": "string"
            },
            {
              "internalType": "string",
              "name": "telefono",
              "type": "string"
            },
            {
              "internalType": "string",
              "name": "correo",
              "type": "string"
            },
            {
              "internalType": "string",
              "name": "departamento",
              "type": "string"
            },
            {
              "internalType": "string",
              "name": "ciudad",
              "type": "string"
            },
            {
              "internalType": "string",
              "name": "direccion",
              "type": "string"
            },
            {
              "internalType": "address",
              "name": "comercializador",
              "type": "address"
            },
            {
              "internalType": "uint256",
              "name": "tipoComercio",
              "type": "uint256"
            }
          ],
          "internalType": "struct InfoContrato",
          "name": "infoContrato",
          "type": "tuple"
        }
      ],
      "name": "diligenciarSolicitud",
      "outputs": [],
      "stateMutability": "nonpayable",
      "type": "function"
    },
    {
      "inputs": [],
      "name": "getOwner",
      "outputs": [
        {
          "internalType": "address",
          "name": "",
          "type": "address"
        }
      ],
      "stateMutability": "view",
      "type": "function",
      "constant": true
    },
    {
      "inputs": [
        {
          "internalType": "address",
          "name": "ownerSolicitud",
          "type": "address"
        }
      ],
      "name": "existeSolicitud",
      "outputs": [
        {
          "internalType": "bool",
          "name": "",
          "type": "bool"
        }
      ],
      "stateMutability": "view",
      "type": "function",
      "constant": true
    },
    {
      "inputs": [
        {
          "components": [
            {
              "internalType": "address",
              "name": "dirContrato",
              "type": "address"
            },
            {
              "internalType": "address",
              "name": "owner",
              "type": "address"
            },
            {
              "internalType": "string",
              "name": "nit",
              "type": "string"
            },
            {
              "internalType": "string",
              "name": "empresa",
              "type": "string"
            },
            {
              "internalType": "string",
              "name": "contacto",
              "type": "string"
            },
            {
              "internalType": "string",
              "name": "telefono",
              "type": "string"
            },
            {
              "internalType": "string",
              "name": "correo",
              "type": "string"
            },
            {
              "internalType": "string",
              "name": "departamento",
              "type": "string"
            },
            {
              "internalType": "string",
              "name": "ciudad",
              "type": "string"
            },
            {
              "internalType": "string",
              "name": "direccion",
              "type": "string"
            },
            {
              "internalType": "address",
              "name": "comercializador",
              "type": "address"
            },
            {
              "internalType": "uint256",
              "name": "tipoComercio",
              "type": "uint256"
            }
          ],
          "internalType": "struct InfoContrato",
          "name": "infoContrato",
          "type": "tuple"
        },
        {
          "internalType": "enum TiposContratos",
          "name": "tipoContrato",
          "type": "uint8"
        }
      ],
      "name": "setRegistroContrato",
      "outputs": [],
      "stateMutability": "nonpayable",
      "type": "function"
    },
    {
      "inputs": [],
      "name": "validarUsuario",
      "outputs": [
        {
          "internalType": "bool",
          "name": "",
          "type": "bool"
        },
        {
          "internalType": "address",
          "name": "",
          "type": "address"
        },
        {
          "internalType": "enum TiposContratos",
          "name": "",
          "type": "uint8"
        }
      ],
      "stateMutability": "view",
      "type": "function",
      "constant": true
    },
    {
      "inputs": [
        {
          "internalType": "address",
          "name": "dir",
          "type": "address"
        }
      ],
      "name": "getIndexSolicitudes",
      "outputs": [
        {
          "internalType": "uint256",
          "name": "",
          "type": "uint256"
        }
      ],
      "stateMutability": "view",
      "type": "function",
      "constant": true
    },
    {
      "inputs": [],
      "name": "getInfoRegulador",
      "outputs": [
        {
          "components": [
            {
              "internalType": "address",
              "name": "owner",
              "type": "address"
            },
            {
              "internalType": "address",
              "name": "dirContrato",
              "type": "address"
            },
            {
              "internalType": "uint256",
              "name": "cantidadTokens",
              "type": "uint256"
            },
            {
              "internalType": "string",
              "name": "nombreToken",
              "type": "string"
            },
            {
              "internalType": "string",
              "name": "simboloToken",
              "type": "string"
            },
            {
              "internalType": "uint256",
              "name": "valorToken",
              "type": "uint256"
            }
          ],
          "internalType": "struct InfoRegulador",
          "name": "",
          "type": "tuple"
        }
      ],
      "stateMutability": "view",
      "type": "function",
      "constant": true
    }
  ],
  "bytecode": "0x6080604052620f42406004553480156200001857600080fd5b506040516200445e3803806200445e8339810160408190526200003b9162000187565b805162000050906001906020840190620000d3565b50600280546001600160a01b031990811633179091556003805490911630179055600454604051620000829062000162565b6200008e919062000256565b604051809103906000f080158015620000ab573d6000803e3d6000fd5b50600080546001600160a01b0319166001600160a01b039290921691909117905550620002b2565b828054620000e1906200025f565b90600052602060002090601f01602090048101928262000105576000855562000150565b82601f106200012057805160ff191683800117855562000150565b8280016001018555821562000150579182015b828111156200015057825182559160200191906001019062000133565b506200015e92915062000170565b5090565b610b07806200395783390190565b5b808211156200015e576000815560010162000171565b600060208083850312156200019a578182fd5b82516001600160401b0380821115620001b1578384fd5b818501915085601f830112620001c5578384fd5b815181811115620001da57620001da6200029c565b604051601f8201601f19168101850183811182821017156200020057620002006200029c565b604052818152838201850188101562000217578586fd5b8592505b818310156200023a57838301850151818401860152918401916200021b565b818311156200024b57858583830101525b979650505050505050565b90815260200190565b6002810460018216806200027457607f821691505b602082108114156200029657634e487b7160e01b600052602260045260246000fd5b50919050565b634e487b7160e01b600052604160045260246000fd5b61369580620002c26000396000f3fe6080604052600436106101105760003560e01c806306fdde03146101155780630d098a3b146101405780630e03c03b1461016d5780631890154c1461018d57806325a977cf146101af5780632b9db458146101cf57806340fd3f39146101ef578063603052ab1461021c57806370f4a4df1461023c5780637c1b38bf1461025c5780637d3ecc691461027c578063856788df146102a0578063893d20e8146102c25780638da5cb5b146102d757806398139262146102ec578063a28fe68c1461030c578063a499a4651461032e578063ab9e41b414610350578063b2222c9214610365578063d1931ccf14610385578063dc0b0ee414610398578063e7f3979f146103b8578063fd889ff5146103cd575b600080fd5b34801561012157600080fd5b5061012a6103e2565b6040516101379190613149565b60405180910390f35b34801561014c57600080fd5b5061016061015b3660046129a8565b610470565b60405161013791906134b4565b34801561017957600080fd5b506101606101883660046129a8565b6104ea565b34801561019957600080fd5b506101ad6101a8366004612bac565b610571565b005b3480156101bb57600080fd5b506101ad6101ca366004612b1b565b6106bb565b3480156101db57600080fd5b506101ad6101ea3660046129cb565b610897565b3480156101fb57600080fd5b5061020f61020a3660046129a8565b610961565b6040516101379190613119565b34801561022857600080fd5b506101606102373660046129a8565b6109e5565b34801561024857600080fd5b506101ad610257366004612b6a565b610a18565b34801561026857600080fd5b506101ad610277366004612bac565b610cb2565b34801561028857600080fd5b50610291610d31565b60405161013793929190613124565b3480156102ac57600080fd5b506102b5610dfa565b6040516101379190612e73565b3480156102ce57600080fd5b506102b5610e09565b3480156102e357600080fd5b506102b5610e18565b3480156102f857600080fd5b506101ad610307366004612a1b565b610e27565b34801561031857600080fd5b50610321610eb0565b60405161013791906130b9565b34801561033a57600080fd5b5061034361143c565b60405161013791906132d4565b34801561035c57600080fd5b506101606115a5565b34801561037157600080fd5b506101ad610380366004612bdc565b6115ab565b6101ad610393366004612bac565b611e6f565b3480156103a457600080fd5b506101ad6103b3366004612a1b565b611fbb565b3480156103c457600080fd5b50610321611fed565b3480156103d957600080fd5b50610160612570565b600180546103ef906135b5565b80601f016020809104026020016040519081016040528092919081815260200182805461041b906135b5565b80156104685780601f1061043d57610100808354040283529160200191610468565b820191906000526020600020905b81548152906001019060200180831161044b57829003601f168201915b505050505081565b6000805b6005548110156104df576005818154811061049f57634e487b7160e01b600052603260045260246000fd5b600091825260209091206001600d9092020101546001600160a01b03848116911614156104cd5790506104e5565b806104d7816135f6565b915050610474565b50600090505b919050565b600080546040516370a0823160e01b81526001600160a01b03909116906370a082319061051b908590600401612e73565b60206040518083038186803b15801561053357600080fd5b505afa158015610547573d6000803e3d6000fd5b505050506040513d601f19601f8201168201806040525081019061056b9190612bc4565b92915050565b6000811161059a5760405162461bcd60e51b81526004016105919061315c565b60405180910390fd5b6105a3336104ea565b8111156105c25760405162461bcd60e51b815260040161059190613230565b600054604051633bb92e3560e21b81526001600160a01b039091169063eee4b8d4906105f690339030908690600401612ecb565b602060405180830381600087803b15801561061057600080fd5b505af1158015610624573d6000803e3d6000fd5b505050506040513d601f19601f820116820180604052508101906106489190612a46565b50336108fc610656836125fa565b6040518115909202916000818181858888f1935050505015801561067e573d6000803e3d6000fd5b507fa997a52566b1f8380f086c733e70d49a141eafece6addc432a411a73ec45c68881336040516106b09291906134bd565b60405180910390a150565b600660405180604001604052808481526020018360048111156106ee57634e487b7160e01b600052602160045260246000fd5b9052815460018181018455600093845260209384902083518051600d90940290910180546001600160a01b039485166001600160a01b0319918216178255828701519382018054949095169316929092179092556040820151805193949193849261076092600285019291019061260d565b506060820151805161077c91600384019160209091019061260d565b506080820151805161079891600484019160209091019061260d565b5060a082015180516107b491600584019160209091019061260d565b5060c082015180516107d091600684019160209091019061260d565b5060e082015180516107ec91600784019160209091019061260d565b50610100820151805161080991600884019160209091019061260d565b50610120820151805161082691600984019160209091019061260d565b50610140820151600a820180546001600160a01b0319166001600160a01b0390921691909117905561016090910151600b909101556020820151600c8201805460ff1916600183600481111561088c57634e487b7160e01b600052602160045260246000fd5b021790555050505050565b600054604051630aed65f560e11b81526001600160a01b03909116906315dacbea906108cd908790879087908790600401612ea1565b602060405180830381600087803b1580156108e757600080fd5b505af11580156108fb573d6000803e3d6000fd5b505050506040513d601f19601f8201168201806040525081019061091f9190612a46565b507f2438343549d9535d8f8ff03f9ebc22e59fd8d234198ede2a2af0cae7c2dfa85d818585604051610953939291906134d4565b60405180910390a150505050565b600554600090156109dd5760005b6005548110156104df576005818154811061099a57634e487b7160e01b600052603260045260246000fd5b600091825260209091206001600d9092020101546001600160a01b03848116911614156109cb5760019150506104e5565b806109d5816135f6565b91505061096f565b506000919050565b60008054604051636eb1769f60e11b81526001600160a01b039091169063dd62ed3e9061051b9033908690600401612e87565b6000610a2333610961565b90508015610a435760405162461bcd60e51b8152600401610591906131ab565b60056040518060400160405280858152602001846004811115610a7657634e487b7160e01b600052602160045260246000fd5b6004811115610a9557634e487b7160e01b600052602160045260246000fd5b9052815460018181018455600093845260209384902083518051600d90940290910180546001600160a01b039485166001600160a01b03199182161782558287015193820180549490951693169290921790925560408201518051939491938492610b0792600285019291019061260d565b5060608201518051610b2391600384019160209091019061260d565b5060808201518051610b3f91600484019160209091019061260d565b5060a08201518051610b5b91600584019160209091019061260d565b5060c08201518051610b7791600684019160209091019061260d565b5060e08201518051610b9391600784019160209091019061260d565b506101008201518051610bb091600884019160209091019061260d565b506101208201518051610bcd91600984019160209091019061260d565b50610140820151600a820180546001600160a01b0319166001600160a01b0390921691909117905561016090910151600b909101556020820151600c8201805460ff19166001836004811115610c3357634e487b7160e01b600052602160045260246000fd5b021790555050600580547fcebcb95b72d4f2d7173b83fa812efaa148952f3604350b50c7c1120da3f1ad1c9250610c6c90600190613562565b81548110610c8a57634e487b7160e01b600052603260045260246000fd5b90600052602060002090600d0201604051610ca59190613361565b60405180910390a1505050565b60025433906001600160a01b03168114610ccb57600080fd5b6000546040516303a8799360e31b81526001600160a01b0390911690631d43cc9890610cfb9085906004016134b4565b600060405180830381600087803b158015610d1557600080fd5b505af1158015610d29573d6000803e3d6000fd5b505050505050565b600254600090819081906001600160a01b0316331415610d6457505060038054600192506001600160a01b031690610df5565b604051631401502560e01b815273__Validations___________________________90631401502590610d9e903390600690600401612eef565b60606040518083038186803b158015610db657600080fd5b505af4158015610dca573d6000803e3d6000fd5b505050506040513d601f19601f82011682018060405250810190610dee9190612a60565b9250925092505b909192565b6003546001600160a01b031681565b6002546001600160a01b031690565b6002546001600160a01b031681565b600054604051637dd5ed8360e11b81526001600160a01b039091169063fbabdb0690610e5990859085906004016130a0565b602060405180830381600087803b158015610e7357600080fd5b505af1158015610e87573d6000803e3d6000fd5b505050506040513d601f19601f82011682018060405250810190610eab9190612a46565b505050565b60606006805480602002602001604051908101604052809291908181526020016000905b8282101561143357600084815260209020604080516101c081018252600d850290920180546001600160a01b0390811692840192835260018201541660608401526002810180549192849290918491608085019190610f32906135b5565b80601f0160208091040260200160405190810160405280929190818152602001828054610f5e906135b5565b8015610fab5780601f10610f8057610100808354040283529160200191610fab565b820191906000526020600020905b815481529060010190602001808311610f8e57829003601f168201915b50505050508152602001600382018054610fc4906135b5565b80601f0160208091040260200160405190810160405280929190818152602001828054610ff0906135b5565b801561103d5780601f106110125761010080835404028352916020019161103d565b820191906000526020600020905b81548152906001019060200180831161102057829003601f168201915b50505050508152602001600482018054611056906135b5565b80601f0160208091040260200160405190810160405280929190818152602001828054611082906135b5565b80156110cf5780601f106110a4576101008083540402835291602001916110cf565b820191906000526020600020905b8154815290600101906020018083116110b257829003601f168201915b505050505081526020016005820180546110e8906135b5565b80601f0160208091040260200160405190810160405280929190818152602001828054611114906135b5565b80156111615780601f1061113657610100808354040283529160200191611161565b820191906000526020600020905b81548152906001019060200180831161114457829003601f168201915b5050505050815260200160068201805461117a906135b5565b80601f01602080910402602001604051908101604052809291908181526020018280546111a6906135b5565b80156111f35780601f106111c8576101008083540402835291602001916111f3565b820191906000526020600020905b8154815290600101906020018083116111d657829003601f168201915b5050505050815260200160078201805461120c906135b5565b80601f0160208091040260200160405190810160405280929190818152602001828054611238906135b5565b80156112855780601f1061125a57610100808354040283529160200191611285565b820191906000526020600020905b81548152906001019060200180831161126857829003601f168201915b5050505050815260200160088201805461129e906135b5565b80601f01602080910402602001604051908101604052809291908181526020018280546112ca906135b5565b80156113175780601f106112ec57610100808354040283529160200191611317565b820191906000526020600020905b8154815290600101906020018083116112fa57829003601f168201915b50505050508152602001600982018054611330906135b5565b80601f016020809104026020016040519081016040528092919081815260200182805461135c906135b5565b80156113a95780601f1061137e576101008083540402835291602001916113a9565b820191906000526020600020905b81548152906001019060200180831161138c57829003601f168201915b5050509183525050600a8201546001600160a01b0316602080830191909152600b90920154604090910152908252600c83015491019060ff16600481111561140157634e487b7160e01b600052602160045260246000fd5b600481111561142057634e487b7160e01b600052602160045260246000fd5b8152505081526020019060010190610ed4565b50505050905090565b611444612691565b6040805160c0810182526002546001600160a01b0390811682526003541660208201526000918101611474612570565b815260200160008054906101000a90046001600160a01b03166001600160a01b03166306fdde036040518163ffffffff1660e01b815260040160006040518083038186803b1580156114c557600080fd5b505afa1580156114d9573d6000803e3d6000fd5b505050506040513d6000823e601f3d908101601f191682016040526115019190810190612aa9565b815260200160008054906101000a90046001600160a01b03166001600160a01b03166395d89b416040518163ffffffff1660e01b815260040160006040518083038186803b15801561155257600080fd5b505afa158015611566573d6000803e3d6000fd5b505050506040513d6000823e601f3d908101601f1916820160405261158e9190810190612aa9565b815260200161159d60016125fa565b905291505090565b60045481565b60025432906001600160a01b031681146115c457600080fd5b6000600584815481106115e757634e487b7160e01b600052603260045260246000fd5b60009182526020909120604080516101c081018252600d90930290910180546001600160a01b039081169284019283526001820154166060840152600281018054919284929091849160808501919061163f906135b5565b80601f016020809104026020016040519081016040528092919081815260200182805461166b906135b5565b80156116b85780601f1061168d576101008083540402835291602001916116b8565b820191906000526020600020905b81548152906001019060200180831161169b57829003601f168201915b505050505081526020016003820180546116d1906135b5565b80601f01602080910402602001604051908101604052809291908181526020018280546116fd906135b5565b801561174a5780601f1061171f5761010080835404028352916020019161174a565b820191906000526020600020905b81548152906001019060200180831161172d57829003601f168201915b50505050508152602001600482018054611763906135b5565b80601f016020809104026020016040519081016040528092919081815260200182805461178f906135b5565b80156117dc5780601f106117b1576101008083540402835291602001916117dc565b820191906000526020600020905b8154815290600101906020018083116117bf57829003601f168201915b505050505081526020016005820180546117f5906135b5565b80601f0160208091040260200160405190810160405280929190818152602001828054611821906135b5565b801561186e5780601f106118435761010080835404028352916020019161186e565b820191906000526020600020905b81548152906001019060200180831161185157829003601f168201915b50505050508152602001600682018054611887906135b5565b80601f01602080910402602001604051908101604052809291908181526020018280546118b3906135b5565b80156119005780601f106118d557610100808354040283529160200191611900565b820191906000526020600020905b8154815290600101906020018083116118e357829003601f168201915b50505050508152602001600782018054611919906135b5565b80601f0160208091040260200160405190810160405280929190818152602001828054611945906135b5565b80156119925780601f1061196757610100808354040283529160200191611992565b820191906000526020600020905b81548152906001019060200180831161197557829003601f168201915b505050505081526020016008820180546119ab906135b5565b80601f01602080910402602001604051908101604052809291908181526020018280546119d7906135b5565b8015611a245780601f106119f957610100808354040283529160200191611a24565b820191906000526020600020905b815481529060010190602001808311611a0757829003601f168201915b50505050508152602001600982018054611a3d906135b5565b80601f0160208091040260200160405190810160405280929190818152602001828054611a69906135b5565b8015611ab65780601f10611a8b57610100808354040283529160200191611ab6565b820191906000526020600020905b815481529060010190602001808311611a9957829003601f168201915b5050509183525050600a8201546001600160a01b0316602080830191909152600b90920154604090910152908252600c83015491019060ff166004811115611b0e57634e487b7160e01b600052602160045260246000fd5b6004811115611b2d57634e487b7160e01b600052602160045260246000fd5b9052506005805491925090611b4490600190613562565b81548110611b6257634e487b7160e01b600052603260045260246000fd5b90600052602060002090600d020160058581548110611b9157634e487b7160e01b600052603260045260246000fd5b600091825260209091208254600d9092020180546001600160a01b039283166001600160a01b0319918216178255600180850154908301805491909416911617909155600280830180548492849290830191611bec906135b5565b611bf79291906126d9565b506003820181600301908054611c0c906135b5565b611c179291906126d9565b506004820181600401908054611c2c906135b5565b611c379291906126d9565b506005820181600501908054611c4c906135b5565b611c579291906126d9565b506006820181600601908054611c6c906135b5565b611c779291906126d9565b506007820181600701908054611c8c906135b5565b611c979291906126d9565b506008820181600801908054611cac906135b5565b611cb79291906126d9565b506009820181600901908054611ccc906135b5565b611cd79291906126d9565b50600a8281015490820180546001600160a01b0319166001600160a01b03909216919091179055600b91820154910155600c82810154908201805460ff9092169160ff19166001836004811115611d3e57634e487b7160e01b600052602160045260246000fd5b02179055509050506005805480611d6557634e487b7160e01b600052603160045260246000fd5b600082815260208120600d6000199093019283020180546001600160a01b031990811682556001820180549091169055908181611da56002830182612754565b611db3600383016000612754565b611dc1600483016000612754565b611dcf600583016000612754565b611ddd600683016000612754565b611deb600783016000612754565b611df9600883016000612754565b611e07600983016000612754565b50600a810180546001600160a01b03191690556000600b9091015550600c01805460ff1916905590556020810151611e409084906106bb565b7f8b35a8f8c2dc10b4672d1a95decdf391e3ef83540f79c8233f966a7642d403d581604051610953919061334e565b6000611e7a826125fa565b905080341015611e9c5760405162461bcd60e51b81526004016105919061328b565b6000611ea88234613562565b604051909150339082156108fc029083906000818181858888f19350505050158015611ed8573d6000803e3d6000fd5b506000611ee3612570565b905080841115611f055760405162461bcd60e51b8152600401610591906131ed565b60005460405163a9059cbb60e01b81526001600160a01b039091169063a9059cbb90611f3790339088906004016130a0565b602060405180830381600087803b158015611f5157600080fd5b505af1158015611f65573d6000803e3d6000fd5b505050506040513d601f19601f82011682018060405250810190611f899190612a46565b507fc5d46be962adb867acf29dce93ab611e9064bffee951e4db9e52c693f73f4c3884336040516109539291906134bd565b60005460405163095ea7b360e01b81526001600160a01b039091169063095ea7b390610e5990859085906004016130a0565b60606005805480602002602001604051908101604052809291908181526020016000905b8282101561143357600084815260209020604080516101c081018252600d850290920180546001600160a01b039081169284019283526001820154166060840152600281018054919284929091849160808501919061206f906135b5565b80601f016020809104026020016040519081016040528092919081815260200182805461209b906135b5565b80156120e85780601f106120bd576101008083540402835291602001916120e8565b820191906000526020600020905b8154815290600101906020018083116120cb57829003601f168201915b50505050508152602001600382018054612101906135b5565b80601f016020809104026020016040519081016040528092919081815260200182805461212d906135b5565b801561217a5780601f1061214f5761010080835404028352916020019161217a565b820191906000526020600020905b81548152906001019060200180831161215d57829003601f168201915b50505050508152602001600482018054612193906135b5565b80601f01602080910402602001604051908101604052809291908181526020018280546121bf906135b5565b801561220c5780601f106121e15761010080835404028352916020019161220c565b820191906000526020600020905b8154815290600101906020018083116121ef57829003601f168201915b50505050508152602001600582018054612225906135b5565b80601f0160208091040260200160405190810160405280929190818152602001828054612251906135b5565b801561229e5780601f106122735761010080835404028352916020019161229e565b820191906000526020600020905b81548152906001019060200180831161228157829003601f168201915b505050505081526020016006820180546122b7906135b5565b80601f01602080910402602001604051908101604052809291908181526020018280546122e3906135b5565b80156123305780601f1061230557610100808354040283529160200191612330565b820191906000526020600020905b81548152906001019060200180831161231357829003601f168201915b50505050508152602001600782018054612349906135b5565b80601f0160208091040260200160405190810160405280929190818152602001828054612375906135b5565b80156123c25780601f10612397576101008083540402835291602001916123c2565b820191906000526020600020905b8154815290600101906020018083116123a557829003601f168201915b505050505081526020016008820180546123db906135b5565b80601f0160208091040260200160405190810160405280929190818152602001828054612407906135b5565b80156124545780601f1061242957610100808354040283529160200191612454565b820191906000526020600020905b81548152906001019060200180831161243757829003601f168201915b5050505050815260200160098201805461246d906135b5565b80601f0160208091040260200160405190810160405280929190818152602001828054612499906135b5565b80156124e65780601f106124bb576101008083540402835291602001916124e6565b820191906000526020600020905b8154815290600101906020018083116124c957829003601f168201915b5050509183525050600a8201546001600160a01b0316602080830191909152600b90920154604090910152908252600c83015491019060ff16600481111561253e57634e487b7160e01b600052602160045260246000fd5b600481111561255d57634e487b7160e01b600052602160045260246000fd5b8152505081526020019060010190612011565b600080546003546040516370a0823160e01b81526001600160a01b03928316926370a08231926125a592911690600401612e73565b60206040518083038186803b1580156125bd57600080fd5b505afa1580156125d1573d6000803e3d6000fd5b505050506040513d601f19601f820116820180604052508101906125f59190612bc4565b905090565b600061056b8266038d7ea4c68000613543565b828054612619906135b5565b90600052602060002090601f01602090048101928261263b5760008555612681565b82601f1061265457805160ff1916838001178555612681565b82800160010185558215612681579182015b82811115612681578251825591602001919060010190612666565b5061268d929150612793565b5090565b6040518060c0016040528060006001600160a01b0316815260200160006001600160a01b03168152602001600081526020016060815260200160608152602001600081525090565b8280546126e5906135b5565b90600052602060002090601f0160209004810192826127075760008555612681565b82601f106127185780548555612681565b8280016001018555821561268157600052602060002091601f016020900482015b82811115612681578254825591600101919060010190612739565b508054612760906135b5565b6000825580601f106127725750612790565b601f0160209004906000526020600020908101906127909190612793565b50565b5b8082111561268d5760008155600101612794565b80356104e58161363d565b805180151581146104e557600080fd5b600082601f8301126127d3578081fd5b81356127e66127e18261351c565b6134f3565b8181528460208386010111156127fa578283fd5b816020850160208301379081016020019190915292915050565b6000610180808385031215612827578182fd5b612830816134f3565b91505061283c826127a8565b815261284a602083016127a8565b602082015260408201356001600160401b038082111561286957600080fd5b612875858386016127c3565b6040840152606084013591508082111561288e57600080fd5b61289a858386016127c3565b606084015260808401359150808211156128b357600080fd5b6128bf858386016127c3565b608084015260a08401359150808211156128d857600080fd5b6128e4858386016127c3565b60a084015260c08401359150808211156128fd57600080fd5b612909858386016127c3565b60c084015260e084013591508082111561292257600080fd5b61292e858386016127c3565b60e08401526101009150818401358181111561294957600080fd5b612955868287016127c3565b83850152506101209150818401358181111561297057600080fd5b61297c868287016127c3565b838501525050506101406129918184016127a8565b818301525061016080830135818301525092915050565b6000602082840312156129b9578081fd5b81356129c48161363d565b9392505050565b600080600080608085870312156129e0578283fd5b84356129eb8161363d565b935060208501356129fb8161363d565b92506040850135612a0b8161363d565b9396929550929360600135925050565b60008060408385031215612a2d578182fd5b8235612a388161363d565b946020939093013593505050565b600060208284031215612a57578081fd5b6129c4826127b3565b600080600060608486031215612a74578283fd5b612a7d846127b3565b92506020840151612a8d8161363d565b6040850151909250612a9e81613652565b809150509250925092565b600060208284031215612aba578081fd5b81516001600160401b03811115612acf578182fd5b8201601f81018413612adf578182fd5b8051612aed6127e18261351c565b818152856020838501011115612b01578384fd5b612b12826020830160208601613585565b95945050505050565b60008060408385031215612b2d578182fd5b82356001600160401b03811115612b42578283fd5b612b4e85828601612814565b9250506020830135612b5f81613652565b809150509250929050565b60008060408385031215612b7c578182fd5b82356001600160401b03811115612b91578283fd5b612b9d85828601612814565b95602094909401359450505050565b600060208284031215612bbd578081fd5b5035919050565b600060208284031215612bd5578081fd5b5051919050565b60008060408385031215612bee578182fd5b8235915060208301356001600160401b03811115612c0a578182fd5b612c1685828601612814565b9150509250929050565b6001600160a01b03169052565b60058110612c4b57634e487b7160e01b600052602160045260246000fd5b9052565b60008151808452612c67816020860160208601613585565b601f01601f19169290920160200192915050565b805460009060028104600180831680612c9557607f831692505b6020808410821415612cb557634e487b7160e01b86526022600452602486fd5b838852818015612ccc5760018114612ce057612d0e565b60ff19861689830152604089019650612d0e565b876000528160002060005b86811015612d065781548b8201850152908501908301612ceb565b8a0183019750505b50505050505092915050565b6000815160408452612d30604085018251612c20565b6020810151612d426060860182612c20565b506040810151610180806080870152612d5f6101c0870183612c4f565b91506060830151603f19808885030160a0890152612d7d8483612c4f565b935060808501519150808885030160c0890152612d9a8483612c4f565b935060a08501519150808885030160e0890152612db78483612c4f565b935060c085015191506101008189860301818a0152612dd68584612c4f565b945060e08601519250610120828a870301818b0152612df58685612c4f565b95508187015193506101409150828a870301828b0152612e158685612c4f565b955080870151935050610160828a870301818b0152612e348685612c4f565b9550818701519350612e48858b0185612c20565b808701516101a08b0152505050505060208401519150612e6b6020860183612c2d565b949350505050565b6001600160a01b0391909116815260200190565b6001600160a01b0392831681529116602082015260400190565b6001600160a01b039485168152928416602084015292166040820152606081019190915260800190565b6001600160a01b039384168152919092166020820152604081019190915260600190565b6000604080830160018060a01b03861684526020828186015281865480845260609350838701915083838202880101888752838720875b8381101561309057605f198a8403018552878352612f4f888401612f4a8454613579565b612c20565b612f5c6001830154613579565b612f6888850182612c20565b50610180806080850152612f836101c0850160028501612c7b565b603f19808683030160a0870152612f9d8260038701612c7b565b9150808683030160c0870152612fb68260048701612c7b565b9150808683030160e0870152612fcf8260058701612c7b565b91508086830301610100870152612fe98260068701612c7b565b915080868303016101208701526130038260078701612c7b565b9150808683030161014087015261301d8260088701612c7b565b91508086830301610160870152506130388160098601612c7b565b9050613047600a850154613579565b61305383870182612c20565b50600b8401546101a086015261306c600c8501546135f0565b915061307a88860183612c2d565b95870195935050600d9190910190600101612f26565b50909a9950505050505050505050565b6001600160a01b03929092168252602082015260400190565b6000602080830181845280855180835260408601915060408482028701019250838701855b8281101561310c57603f198886030184526130fa858351612d1a565b945092850192908501906001016130de565b5092979650505050505050565b901515815260200190565b83151581526001600160a01b038316602082015260608101612e6b6040830184612c2d565b6000602082526129c46020830184612c4f565b6020808252602f908201527f4e6563657369746173206465766f6c76657220756e206e756d65726f20706f7360408201526e697469766f20646520746f6b656e7360881b606082015260800190565b60208082526022908201527f5961207469656e657320756e6120736f6c696369747564207265676973747261604082015261646160f01b606082015260800190565b60208082526023908201527f436f6d70726120756e206e756d65726f20646520746f6b656e7320616465637560408201526261646f60e81b606082015260800190565b6020808252603b908201527f4e6f20707565646573206465766f6c766572206d617320746f6b656e7320646560408201527a206c6f7320717565207469656e657320646973706f6e69626c657360281b606082015260800190565b60208082526029908201527f436f6d707261206d656e6f7320546f6b656e73206f207061676120636f6e206d60408201526861732045746865727360b81b606082015260800190565b60006020825260018060a01b038084511660208401528060208501511660408401525060408301516060830152606083015160c0608084015261331a60e0840182612c4f565b90506080840151601f198483030160a08501526133378282612c4f565b91505060a084015160c08401528091505092915050565b6000602082526129c46020830184612d1a565b6000602082526040602083015261337f60608301612f4a8554613579565b61338c6001840154613579565b6133996080840182612c20565b506101808060a08401526133b46101e0840160028601612c7b565b605f19808583030160c08601526133ce8260038801612c7b565b9150808583030160e08601526133e78260048801612c7b565b915080858303016101008601526134018260058801612c7b565b9150808583030161012086015261341b8260068801612c7b565b915080858303016101408601526134358260078801612c7b565b9150808583030161016086015261344f8260088801612c7b565b9150808583030183860152506134688160098701612c7b565b915050613478600a850154613579565b6134866101a0850182612c20565b50600b8401546101c084015261349f600c8501546135f0565b6134ac6040850182612c2d565b509392505050565b90815260200190565b9182526001600160a01b0316602082015260400190565b9283526001600160a01b03918216602084015216604082015260600190565b6040518181016001600160401b038111828210171561351457613514613627565b604052919050565b60006001600160401b0382111561353557613535613627565b50601f01601f191660200190565b600081600019048311821515161561355d5761355d613611565b500290565b60008282101561357457613574613611565b500390565b6001600160a01b031690565b60005b838110156135a0578181015183820152602001613588565b838111156135af576000848401525b50505050565b6002810460018216806135c957607f821691505b602082108114156135ea57634e487b7160e01b600052602260045260246000fd5b50919050565b60ff1690565b600060001982141561360a5761360a613611565b5060010190565b634e487b7160e01b600052601160045260246000fd5b634e487b7160e01b600052604160045260246000fd5b6001600160a01b038116811461279057600080fd5b6005811061279057600080fdfea2646970667358221220bc8ec10a410a007fcab9bda2fc8be580a4b2881a83547b0449e58336bec281c264736f6c63430008000033608060405234801561001057600080fd5b50604051610b07380380610b0783398101604081905261002f91610046565b60008181553381526001602052604090205561005e565b600060208284031215610057578081fd5b5051919050565b610a9a8061006d6000396000f3fe608060405234801561001057600080fd5b50600436106100af5760003560e01c806306fdde03146100b4578063095ea7b3146100d257806315dacbea146100f257806318160ddd146101055780631d43cc981461011a578063313ce5671461012f578063324536eb1461014457806370a082311461014c57806395d89b411461015f578063a9059cbb14610167578063dd62ed3e1461017a578063eee4b8d41461018d578063fbabdb06146101a0575b600080fd5b6100bc6101b3565b6040516100c9919061085d565b60405180910390f35b6100e56100e0366004610811565b6101d8565b6040516100c99190610852565b6100e561010036600461078c565b6102a6565b61010d610415565b6040516100c991906109e8565b61012d61012836600461083a565b61041b565b005b610137610458565b6040516100c991906109f1565b61010d61045d565b61010d61015a366004610740565b610463565b6100bc610482565b6100e5610175366004610811565b6104a1565b61010d61018836600461075a565b610553565b6100e561019b3660046107d6565b61057e565b6100e56101ae366004610811565b61065a565b6040518060400160405280600981526020016845524332305f4d564d60b81b81525081565b326000908152600160205260408120548211156102105760405162461bcd60e51b8152600401610207906109b2565b60405180910390fd5b3260009081526002602090815260408083206001600160a01b038716845290915290205461023e90836106cb565b3260008181526002602090815260408083206001600160a01b03891680855292529182902093909355517f8c5be1e5ebec7d5bd14f71427d1e84f3dd0314c0f7b2291e5b200ac8c7c3b925906102959086906109e8565b60405180910390a350600192915050565b6001600160a01b0384166000908152600160205260408120548211156102de5760405162461bcd60e51b815260040161020790610926565b6001600160a01b038086166000908152600260209081526040808320938716835292905220548211156103235760405162461bcd60e51b8152600401610207906108da565b6001600160a01b03851660009081526001602052604090205461034690836106ff565b6001600160a01b0380871660009081526001602090815260408083209490945560028152838220928716825291909152205461038290836106ff565b6001600160a01b03808716600090815260026020908152604080832088851684528252808320949094559187168152600190915220546103c290836106cb565b6001600160a01b038086166000818152600160205260409081902093909355915190871690600080516020610a45833981519152906104029086906109e8565b60405180910390a3506001949350505050565b60005490565b8060008082825461042c91906109ff565b909155505033600090815260016020526040812080548392906104509084906109ff565b909155505050565b600281565b60005481565b6001600160a01b0381166000908152600160205260409020545b919050565b604051806040016040528060038152602001624d564d60e81b81525081565b336000908152600160205260408120548211156104d05760405162461bcd60e51b8152600401610207906108b0565b336000908152600160205260409020546104ea90836106ff565b33600090815260016020526040808220929092556001600160a01b0385168152205461051690836106cb565b6001600160a01b038416600081815260016020526040908190209290925590513390600080516020610a45833981519152906102959086906109e8565b6001600160a01b03918216600090815260026020908152604080832093909416825291909152205490565b6001600160a01b0383166000908152600160205260408120548211156105b65760405162461bcd60e51b81526004016102079061095c565b6001600160a01b0384166000908152600160205260409020546105d990836106ff565b6001600160a01b03808616600090815260016020526040808220939093559085168152205461060890836106cb565b6001600160a01b038085166000818152600160205260409081902093909355915190861690600080516020610a45833981519152906106489086906109e8565b60405180910390a35060019392505050565b3260009081526002602090815260408083206001600160a01b038616845290915281205482111561069d5760405162461bcd60e51b8152600401610207906109b2565b3260009081526002602090815260408083206001600160a01b038716845290915290205461023e90836106ff565b6000806106d883856109ff565b9050838110156106f857634e487b7160e01b600052600160045260246000fd5b9392505050565b60008282111561071f57634e487b7160e01b600052600160045260246000fd5b6106f88284610a17565b80356001600160a01b038116811461047d57600080fd5b600060208284031215610751578081fd5b6106f882610729565b6000806040838503121561076c578081fd5b61077583610729565b915061078360208401610729565b90509250929050565b600080600080608085870312156107a1578182fd5b6107aa85610729565b93506107b860208601610729565b92506107c660408601610729565b9396929550929360600135925050565b6000806000606084860312156107ea578283fd5b6107f384610729565b925061080160208501610729565b9150604084013590509250925092565b60008060408385031215610823578182fd5b61082c83610729565b946020939093013593505050565b60006020828403121561084b578081fd5b5035919050565b901515815260200190565b6000602080835283518082850152825b818110156108895785810183015185820160400152820161086d565b8181111561089a5783604083870101525b50601f01601f1916929092016040019392505050565b60208082526010908201526f4572726f7220656e2062616c616e636560801b604082015260600190565b6020808252602c908201527f4e6f2073652068616e2064656c656761646f206c6f7320746f6b656e7320612060408201526b3630903234b932b1b1b4b7b760a11b606082015260800190565b6020808252601c908201527b456c206f776e6572206e6f207469656e65206c6f7320746f6b656e7360201b604082015260600190565b60208082526036908201527f456c206e756d65726f20646520746f6b656e732061207472616e736665726972604082015275206573206d61796f722071756520656c2073616c646f60501b606082015260800190565b6020808252601c908201527b4e6f207469656e657320737566696369656e74657320746f6b656e7360201b604082015260600190565b90815260200190565b60ff91909116815260200190565b60008219821115610a1257610a12610a2e565b500190565b600082821015610a2957610a29610a2e565b500390565b634e487b7160e01b600052601160045260246000fdfeddf252ad1be2c89b69c2b068fc378daa952ba7f163c4a11628f55a4df523b3efa26469706673582212203afd00d353a6d276cb1e363e2ea26d1b2d585f0f934443b7c20fdade4988b63264736f6c63430008000033",
  "immutableReferences": {},
  "source": "// SPDX-License-Identifier: MIT\r\npragma solidity >=0.4.22 <0.9.0;\r\npragma experimental ABIEncoderV2;\r\nimport \"./TokenErc20/ERC20.sol\";\r\nimport \"./models/InfoContrato.sol\";\r\nimport \"./libraries/Validations.sol\";\r\n\r\ncontract ReguladorMercado {\r\n    //Token del contrato\r\n    ERC20Basic private token;\r\n\r\n    string public name;\r\n    address public owner;\r\n    address public dirContrato;\r\n    uint256 public cantidadTokens = 1000000;\r\n    SolicitudContrato[] private solicitudes;\r\n    SolicitudContrato[] private registrosContratos;\r\n\r\n    event ComprandoTokens(uint256, address);\r\n    event tokensDevueltos(uint256, address);\r\n    event EnviarTokensEvent(uint256, address, address);\r\n    event SolicitudDeRegistro(SolicitudContrato);\r\n    event ContratoDiligenciado(SolicitudContrato);\r\n\r\n    constructor(string memory _name) {\r\n        name = _name;\r\n        owner = msg.sender;\r\n        dirContrato = address(this);\r\n        token = new ERC20Basic(cantidadTokens);\r\n    }\r\n\r\n    modifier authorize(address direction) {\r\n        require(direction == owner);\r\n        _;\r\n    }\r\n\r\n    function PrecioTokens(uint256 _numTokens) private pure returns (uint256) {\r\n        return _numTokens * (1e15);\r\n    }\r\n\r\n    function GenerarTokens(uint256 numTokens) public authorize(msg.sender) {\r\n        token.increaseTotalSupply(numTokens);\r\n    }\r\n\r\n    function TokensDisponibles() public view returns (uint256) {\r\n        return token.balanceOf(dirContrato);\r\n    }\r\n\r\n    function ComprarTokens(uint256 numTokens) public payable {\r\n        uint256 coste = PrecioTokens(numTokens);\r\n        //Se requiere verificar el fondo del comprador\r\n        require(\r\n            msg.value >= coste,\r\n            \"Compra menos Tokens o paga con mas Ethers\"\r\n        );\r\n        //Devolver el dinero sobrante\r\n        uint256 returnValue = msg.value - coste;\r\n        payable(msg.sender).transfer(returnValue);\r\n        //Obtener el balance de tokens del contrato\r\n        uint256 balance = TokensDisponibles();\r\n        //Filtro para evaluar los tokens disponibles\r\n        require(numTokens <= balance, \"Compra un numero de tokens adecuado\");\r\n        //Transferir tokens al comprador\r\n        token.transfer(msg.sender, numTokens);\r\n        emit ComprandoTokens(numTokens, msg.sender);\r\n    }\r\n\r\n    function IntercambiarTokens(\r\n        address _dir1,\r\n        address _dir2,\r\n        address _dir3,\r\n        uint256 numTokens\r\n    ) public {\r\n        token.transferFrom(_dir1, _dir2, _dir3, numTokens);\r\n        emit EnviarTokensEvent(numTokens, _dir1, _dir2);\r\n    }\r\n\r\n    function MisTokens(address _direction) public view returns (uint256) {\r\n        return token.balanceOf(_direction);\r\n    }\r\n\r\n    function DevolverTokens(uint256 numTokens) public {\r\n        //El numero de tokens debe de ser mayor a cero\r\n        require(\r\n            numTokens > 0,\r\n            \"Necesitas devolver un numero positivo de tokens\"\r\n        );\r\n        //EL cliente debe tener los tokens que desea devolver\r\n        require(\r\n            numTokens <= MisTokens(msg.sender),\r\n            \"No puedes devolver mas tokens de los que tienes disponibles\"\r\n        );\r\n        //1.Devolucion de tokens por parte del cliente al contrato\r\n        token.transferTwo(msg.sender, address(this), numTokens);\r\n        payable(msg.sender).transfer(PrecioTokens(numTokens));\r\n\r\n        //2.Pago de tokens devueltos en ethers\r\n        emit tokensDevueltos(numTokens, msg.sender);\r\n    }\r\n\r\n    function delegarTokens(address delegate, uint256 numTokens) public {\r\n        token.approve(delegate, numTokens);\r\n    }\r\n\r\n    function retornarDelegacion(address delegate, uint256 numTokens) public {\r\n        token.disapprove(delegate, numTokens);\r\n    }\r\n\r\n    function getTokensDelegados(address delegate)\r\n        public\r\n        view\r\n        returns (uint256)\r\n    {\r\n        return token.allowance(msg.sender, delegate);\r\n    }\r\n\r\n    function getSolicitudes() public view returns (SolicitudContrato[] memory) {\r\n        return solicitudes;\r\n    }\r\n\r\n    function getRegistros() public view returns (SolicitudContrato[] memory) {\r\n        return registrosContratos;\r\n    }\r\n\r\n    function registrarSolicitud(\r\n        InfoContrato memory _infoContrato,\r\n        uint256 _tipoContrato\r\n    ) public {\r\n        bool bandera = existeSolicitud(msg.sender);\r\n        require(!bandera, \"Ya tienes una solicitud registrada\");\r\n        solicitudes.push(\r\n            SolicitudContrato(_infoContrato, TiposContratos(_tipoContrato))\r\n        );\r\n        emit SolicitudDeRegistro(solicitudes[solicitudes.length - 1]);\r\n    }\r\n\r\n    function diligenciarSolicitud(\r\n        uint256 index,\r\n        InfoContrato memory infoContrato\r\n    ) public authorize(tx.origin) {\r\n        SolicitudContrato memory solicitud = solicitudes[index];\r\n        solicitudes[index] = solicitudes[solicitudes.length - 1];\r\n        solicitudes.pop();\r\n        setRegistroContrato(infoContrato, solicitud.tipoContrato);\r\n        emit ContratoDiligenciado(solicitud);\r\n    }\r\n\r\n    function getOwner() public view returns (address) {\r\n        return owner;\r\n    }\r\n\r\n    function existeSolicitud(address ownerSolicitud)\r\n        public\r\n        view\r\n        returns (bool)\r\n    {\r\n        if (solicitudes.length > 0) {\r\n            for (uint256 i = 0; i < solicitudes.length; i++) {\r\n                if (ownerSolicitud == solicitudes[i].infoContrato.owner) {\r\n                    return true;\r\n                }\r\n            }\r\n        }\r\n        return false;\r\n    }\r\n\r\n    function setRegistroContrato(\r\n        InfoContrato memory infoContrato,\r\n        TiposContratos tipoContrato\r\n    ) public {\r\n        registrosContratos.push(SolicitudContrato(infoContrato, tipoContrato));\r\n    }\r\n\r\n    function validarUsuario()\r\n        public\r\n        view\r\n        returns (\r\n            bool,\r\n            address,\r\n            TiposContratos\r\n        )\r\n    {\r\n        if (msg.sender == owner) {\r\n            return (true, dirContrato, TiposContratos.ReguladorMercado);\r\n        }\r\n\r\n        return Validations.validarUsuario(msg.sender, registrosContratos);\r\n    }\r\n\r\n    function getIndexSolicitudes(address dir) public view returns (uint256) {\r\n        for (uint256 i = 0; i < solicitudes.length; i++) {\r\n            if (dir == solicitudes[i].infoContrato.owner) {\r\n                return i;\r\n            }\r\n        }\r\n        return 0;\r\n    }\r\n\r\n    function getInfoRegulador() public view returns (InfoRegulador memory) {\r\n        InfoRegulador memory tempRegulador = InfoRegulador(\r\n            owner,\r\n            dirContrato,\r\n            TokensDisponibles(),\r\n            token.name(),\r\n            token.symbol(),\r\n            PrecioTokens(1)\r\n        );\r\n        return tempRegulador;\r\n    }\r\n}\r\n",
  "sourcePath": "C:\\Users\\alejandro.perez\\Desktop\\DemoMvmTruffle\\contracts\\ReguladorMercado.sol",
  "compiler": {
    "name": "solc",
    "version": "0.8.0+commit.c7dfd78e.Emscripten.clang"
  },
  "schemaVersion": "3.4.7",
  "updatedAt": "2022-07-27T13:00:57.114Z",
  "networkType": "ethereum",
  "devdoc": {
    "kind": "dev",
    "methods": {},
    "version": 1
  },
  "userdoc": {
    "kind": "user",
    "methods": {},
    "version": 1
  }
}