{
  "contractName": "ReguladorMercado",
  "abi": [
    {
      "inputs": [
        {
          "internalType": "string",
          "name": "_name",
          "type": "string"
        }
      ],
      "stateMutability": "nonpayable",
      "type": "constructor"
    },
    {
      "anonymous": false,
      "inputs": [
        {
          "indexed": false,
          "internalType": "uint256",
          "name": "",
          "type": "uint256"
        },
        {
          "indexed": false,
          "internalType": "address",
          "name": "",
          "type": "address"
        }
      ],
      "name": "ComprandoTokens",
      "type": "event"
    },
    {
      "anonymous": false,
      "inputs": [
        {
          "components": [
            {
              "components": [
                {
                  "internalType": "address",
                  "name": "dirContrato",
                  "type": "address"
                },
                {
                  "internalType": "address",
                  "name": "owner",
                  "type": "address"
                },
                {
                  "internalType": "string",
                  "name": "nit",
                  "type": "string"
                },
                {
                  "internalType": "string",
                  "name": "empresa",
                  "type": "string"
                },
                {
                  "internalType": "string",
                  "name": "contacto",
                  "type": "string"
                },
                {
                  "internalType": "string",
                  "name": "telefono",
                  "type": "string"
                },
                {
                  "internalType": "string",
                  "name": "correo",
                  "type": "string"
                },
                {
                  "internalType": "string",
                  "name": "departamento",
                  "type": "string"
                },
                {
                  "internalType": "string",
                  "name": "ciudad",
                  "type": "string"
                },
                {
                  "internalType": "string",
                  "name": "direccion",
                  "type": "string"
                },
                {
                  "internalType": "address",
                  "name": "comercializador",
                  "type": "address"
                },
                {
                  "internalType": "uint256",
                  "name": "tipoComercio",
                  "type": "uint256"
                }
              ],
              "internalType": "struct InfoContrato",
              "name": "infoContrato",
              "type": "tuple"
            },
            {
              "internalType": "enum ReguladorMercado.TiposContratos",
              "name": "tipoContrato",
              "type": "uint8"
            }
          ],
          "indexed": false,
          "internalType": "struct ReguladorMercado.SolicitudContrato",
          "name": "",
          "type": "tuple"
        }
      ],
      "name": "ContratoDiligenciado",
      "type": "event"
    },
    {
      "anonymous": false,
      "inputs": [
        {
          "indexed": false,
          "internalType": "uint256",
          "name": "",
          "type": "uint256"
        },
        {
          "indexed": false,
          "internalType": "address",
          "name": "",
          "type": "address"
        },
        {
          "indexed": false,
          "internalType": "address",
          "name": "",
          "type": "address"
        }
      ],
      "name": "EnviarTokensEvent",
      "type": "event"
    },
    {
      "anonymous": false,
      "inputs": [
        {
          "indexed": false,
          "internalType": "uint256",
          "name": "",
          "type": "uint256"
        },
        {
          "indexed": false,
          "internalType": "address",
          "name": "",
          "type": "address"
        }
      ],
      "name": "tokensDevueltos",
      "type": "event"
    },
    {
      "inputs": [],
      "name": "cantidadTokens",
      "outputs": [
        {
          "internalType": "uint256",
          "name": "",
          "type": "uint256"
        }
      ],
      "stateMutability": "view",
      "type": "function",
      "constant": true
    },
    {
      "inputs": [],
      "name": "dirContrato",
      "outputs": [
        {
          "internalType": "address",
          "name": "",
          "type": "address"
        }
      ],
      "stateMutability": "view",
      "type": "function",
      "constant": true
    },
    {
      "inputs": [],
      "name": "name",
      "outputs": [
        {
          "internalType": "string",
          "name": "",
          "type": "string"
        }
      ],
      "stateMutability": "view",
      "type": "function",
      "constant": true
    },
    {
      "inputs": [],
      "name": "owner",
      "outputs": [
        {
          "internalType": "address",
          "name": "",
          "type": "address"
        }
      ],
      "stateMutability": "view",
      "type": "function",
      "constant": true
    },
    {
      "inputs": [
        {
          "internalType": "uint256",
          "name": "numTokens",
          "type": "uint256"
        }
      ],
      "name": "GenerarTokens",
      "outputs": [],
      "stateMutability": "nonpayable",
      "type": "function"
    },
    {
      "inputs": [],
      "name": "TokensDisponibles",
      "outputs": [
        {
          "internalType": "uint256",
          "name": "",
          "type": "uint256"
        }
      ],
      "stateMutability": "view",
      "type": "function",
      "constant": true
    },
    {
      "inputs": [
        {
          "internalType": "uint256",
          "name": "numTokens",
          "type": "uint256"
        }
      ],
      "name": "ComprarTokens",
      "outputs": [],
      "stateMutability": "payable",
      "type": "function",
      "payable": true
    },
    {
      "inputs": [
        {
          "internalType": "address",
          "name": "_dir1",
          "type": "address"
        },
        {
          "internalType": "address",
          "name": "_dir2",
          "type": "address"
        },
        {
          "internalType": "uint256",
          "name": "numTokens",
          "type": "uint256"
        }
      ],
      "name": "IntercambiarTokens",
      "outputs": [],
      "stateMutability": "nonpayable",
      "type": "function"
    },
    {
      "inputs": [
        {
          "internalType": "address",
          "name": "_direction",
          "type": "address"
        }
      ],
      "name": "MisTokens",
      "outputs": [
        {
          "internalType": "uint256",
          "name": "",
          "type": "uint256"
        }
      ],
      "stateMutability": "view",
      "type": "function",
      "constant": true
    },
    {
      "inputs": [
        {
          "internalType": "uint256",
          "name": "numTokens",
          "type": "uint256"
        }
      ],
      "name": "DevolverTokens",
      "outputs": [],
      "stateMutability": "nonpayable",
      "type": "function"
    },
    {
      "inputs": [
        {
          "internalType": "address",
          "name": "delegate",
          "type": "address"
        },
        {
          "internalType": "uint256",
          "name": "numTokens",
          "type": "uint256"
        }
      ],
      "name": "delegarTokens",
      "outputs": [],
      "stateMutability": "nonpayable",
      "type": "function"
    },
    {
      "inputs": [],
      "name": "getSolicitudes",
      "outputs": [
        {
          "components": [
            {
              "components": [
                {
                  "internalType": "address",
                  "name": "dirContrato",
                  "type": "address"
                },
                {
                  "internalType": "address",
                  "name": "owner",
                  "type": "address"
                },
                {
                  "internalType": "string",
                  "name": "nit",
                  "type": "string"
                },
                {
                  "internalType": "string",
                  "name": "empresa",
                  "type": "string"
                },
                {
                  "internalType": "string",
                  "name": "contacto",
                  "type": "string"
                },
                {
                  "internalType": "string",
                  "name": "telefono",
                  "type": "string"
                },
                {
                  "internalType": "string",
                  "name": "correo",
                  "type": "string"
                },
                {
                  "internalType": "string",
                  "name": "departamento",
                  "type": "string"
                },
                {
                  "internalType": "string",
                  "name": "ciudad",
                  "type": "string"
                },
                {
                  "internalType": "string",
                  "name": "direccion",
                  "type": "string"
                },
                {
                  "internalType": "address",
                  "name": "comercializador",
                  "type": "address"
                },
                {
                  "internalType": "uint256",
                  "name": "tipoComercio",
                  "type": "uint256"
                }
              ],
              "internalType": "struct InfoContrato",
              "name": "infoContrato",
              "type": "tuple"
            },
            {
              "internalType": "enum ReguladorMercado.TiposContratos",
              "name": "tipoContrato",
              "type": "uint8"
            }
          ],
          "internalType": "struct ReguladorMercado.SolicitudContrato[]",
          "name": "",
          "type": "tuple[]"
        }
      ],
      "stateMutability": "view",
      "type": "function",
      "constant": true
    },
    {
      "inputs": [
        {
          "components": [
            {
              "internalType": "address",
              "name": "dirContrato",
              "type": "address"
            },
            {
              "internalType": "address",
              "name": "owner",
              "type": "address"
            },
            {
              "internalType": "string",
              "name": "nit",
              "type": "string"
            },
            {
              "internalType": "string",
              "name": "empresa",
              "type": "string"
            },
            {
              "internalType": "string",
              "name": "contacto",
              "type": "string"
            },
            {
              "internalType": "string",
              "name": "telefono",
              "type": "string"
            },
            {
              "internalType": "string",
              "name": "correo",
              "type": "string"
            },
            {
              "internalType": "string",
              "name": "departamento",
              "type": "string"
            },
            {
              "internalType": "string",
              "name": "ciudad",
              "type": "string"
            },
            {
              "internalType": "string",
              "name": "direccion",
              "type": "string"
            },
            {
              "internalType": "address",
              "name": "comercializador",
              "type": "address"
            },
            {
              "internalType": "uint256",
              "name": "tipoComercio",
              "type": "uint256"
            }
          ],
          "internalType": "struct InfoContrato",
          "name": "_infoContrato",
          "type": "tuple"
        },
        {
          "internalType": "uint256",
          "name": "_tipoContrato",
          "type": "uint256"
        }
      ],
      "name": "registrarSolicitud",
      "outputs": [],
      "stateMutability": "nonpayable",
      "type": "function"
    },
    {
      "inputs": [
        {
          "internalType": "uint256",
          "name": "index",
          "type": "uint256"
        }
      ],
      "name": "diligenciarSolicitud",
      "outputs": [],
      "stateMutability": "nonpayable",
      "type": "function"
    },
    {
      "inputs": [],
      "name": "getOwner",
      "outputs": [
        {
          "internalType": "address",
          "name": "",
          "type": "address"
        }
      ],
      "stateMutability": "view",
      "type": "function",
      "constant": true
    },
    {
      "inputs": [],
      "name": "existeSolicitud",
      "outputs": [
        {
          "internalType": "bool",
          "name": "",
          "type": "bool"
        }
      ],
      "stateMutability": "view",
      "type": "function",
      "constant": true
    }
  ],
  "bytecode": "0x6080604052620f42406004553480156200001857600080fd5b506040516200301f3803806200301f8339810160408190526200003b9162000187565b805162000050906001906020840190620000d3565b50600280546001600160a01b031990811633179091556003805490911630179055600454604051620000829062000162565b6200008e919062000256565b604051809103906000f080158015620000ab573d6000803e3d6000fd5b50600080546001600160a01b0319166001600160a01b039290921691909117905550620002b2565b828054620000e1906200025f565b90600052602060002090601f01602090048101928262000105576000855562000150565b82601f106200012057805160ff191683800117855562000150565b8280016001018555821562000150579182015b828111156200015057825182559160200191906001019062000133565b506200015e92915062000170565b5090565b61095680620026c983390190565b5b808211156200015e576000815560010162000171565b600060208083850312156200019a578182fd5b82516001600160401b0380821115620001b1578384fd5b818501915085601f830112620001c5578384fd5b815181811115620001da57620001da6200029c565b604051601f8201601f19168101850183811182821017156200020057620002006200029c565b604052818152838201850188101562000217578586fd5b8592505b818310156200023a57838301850151818401860152918401916200021b565b818311156200024b57858583830101525b979650505050505050565b90815260200190565b6002810460018216806200027457607f821691505b602082108114156200029657634e487b7160e01b600052602260045260246000fd5b50919050565b634e487b7160e01b600052604160045260246000fd5b61240780620002c26000396000f3fe6080604052600436106100f35760003560e01c8063893d20e81161008a578063d1931ccf11610059578063d1931ccf14610275578063dc0b0ee414610288578063e7f3979f146102a8578063fd889ff5146102ca576100f3565b8063893d20e8146102145780638da5cb5b14610229578063ab9e41b41461023e578063b9d0623d14610253576100f3565b80634de26267116100c65780634de262671461019257806370f4a4df146101b25780637c1b38bf146101d2578063856788df146101f2576100f3565b806306fdde03146100f85780630e03c03b1461012357806313e8a250146101505780631890154c14610172575b600080fd5b34801561010457600080fd5b5061010d6102df565b60405161011a9190612110565b60405180910390f35b34801561012f57600080fd5b5061014361013e366004611bf7565b61036d565b60405161011a91906122b0565b34801561015c57600080fd5b5061017061016b366004611c18565b6103f6565b005b34801561017e57600080fd5b5061017061018d366004611e51565b6104bd565b34801561019e57600080fd5b506101706101ad366004611e51565b610607565b3480156101be57600080fd5b506101706101cd366004611c9c565b610ebc565b3480156101de57600080fd5b506101706101ed366004611e51565b6110e2565b3480156101fe57600080fd5b50610207611161565b60405161011a9190612054565b34801561022057600080fd5b50610207611170565b34801561023557600080fd5b50610207611180565b34801561024a57600080fd5b5061014361118f565b34801561025f57600080fd5b50610268611195565b60405161011a9190612105565b610170610283366004611e51565b611216565b34801561029457600080fd5b506101706102a3366004611c53565b611370565b3480156102b457600080fd5b506102bd6113f9565b60405161011a91906120a5565b3480156102d657600080fd5b50610143611985565b600180546102ec9061234f565b80601f01602080910402602001604051908101604052809291908181526020018280546103189061234f565b80156103655780601f1061033a57610100808354040283529160200191610365565b820191906000526020600020905b81548152906001019060200180831161034857829003601f168201915b505050505081565b600080546040516370a0823160e01b81526001600160a01b03909116906370a082319061039e908590600401612054565b60206040518083038186803b1580156103b657600080fd5b505afa1580156103ca573d6000803e3d6000fd5b505050506040513d601f19601f820116820180604052508101906103ee9190611e69565b90505b919050565b6000546040516323b872dd60e01b81526001600160a01b03909116906323b872dd9061042a90869086908690600401612068565b602060405180830381600087803b15801561044457600080fd5b505af1158015610458573d6000803e3d6000fd5b505050506040513d601f19601f8201168201806040525081019061047c9190611c7c565b507f2438343549d9535d8f8ff03f9ebc22e59fd8d234198ede2a2af0cae7c2dfa85d8184846040516104b0939291906122d0565b60405180910390a1505050565b600081116104e65760405162461bcd60e51b81526004016104dd90612123565b60405180910390fd5b6104ef3361036d565b81111561050e5760405162461bcd60e51b81526004016104dd906121f7565b600054604051633bb92e3560e21b81526001600160a01b039091169063eee4b8d49061054290339030908690600401612068565b602060405180830381600087803b15801561055c57600080fd5b505af1158015610570573d6000803e3d6000fd5b505050506040513d601f19601f820116820180604052508101906105949190611c7c565b50336108fc6105a283611a0f565b6040518115909202916000818181858888f193505050501580156105ca573d6000803e3d6000fd5b507fa997a52566b1f8380f086c733e70d49a141eafece6addc432a411a73ec45c68881336040516105fc9291906122b9565b60405180910390a150565b60025433906001600160a01b0316811461062057600080fd5b60006005838154811061064357634e487b7160e01b600052603260045260246000fd5b60009182526020909120604080516101c081018252600d90930290910180546001600160a01b039081169284019283526001820154166060840152600281018054919284929091849160808501919061069b9061234f565b80601f01602080910402602001604051908101604052809291908181526020018280546106c79061234f565b80156107145780601f106106e957610100808354040283529160200191610714565b820191906000526020600020905b8154815290600101906020018083116106f757829003601f168201915b5050505050815260200160038201805461072d9061234f565b80601f01602080910402602001604051908101604052809291908181526020018280546107599061234f565b80156107a65780601f1061077b576101008083540402835291602001916107a6565b820191906000526020600020905b81548152906001019060200180831161078957829003601f168201915b505050505081526020016004820180546107bf9061234f565b80601f01602080910402602001604051908101604052809291908181526020018280546107eb9061234f565b80156108385780601f1061080d57610100808354040283529160200191610838565b820191906000526020600020905b81548152906001019060200180831161081b57829003601f168201915b505050505081526020016005820180546108519061234f565b80601f016020809104026020016040519081016040528092919081815260200182805461087d9061234f565b80156108ca5780601f1061089f576101008083540402835291602001916108ca565b820191906000526020600020905b8154815290600101906020018083116108ad57829003601f168201915b505050505081526020016006820180546108e39061234f565b80601f016020809104026020016040519081016040528092919081815260200182805461090f9061234f565b801561095c5780601f106109315761010080835404028352916020019161095c565b820191906000526020600020905b81548152906001019060200180831161093f57829003601f168201915b505050505081526020016007820180546109759061234f565b80601f01602080910402602001604051908101604052809291908181526020018280546109a19061234f565b80156109ee5780601f106109c3576101008083540402835291602001916109ee565b820191906000526020600020905b8154815290600101906020018083116109d157829003601f168201915b50505050508152602001600882018054610a079061234f565b80601f0160208091040260200160405190810160405280929190818152602001828054610a339061234f565b8015610a805780601f10610a5557610100808354040283529160200191610a80565b820191906000526020600020905b815481529060010190602001808311610a6357829003601f168201915b50505050508152602001600982018054610a999061234f565b80601f0160208091040260200160405190810160405280929190818152602001828054610ac59061234f565b8015610b125780601f10610ae757610100808354040283529160200191610b12565b820191906000526020600020905b815481529060010190602001808311610af557829003601f168201915b5050509183525050600a8201546001600160a01b0316602080830191909152600b90920154604090910152908252600c83015491019060ff166002811115610b6a57634e487b7160e01b600052602160045260246000fd5b6002811115610b8957634e487b7160e01b600052602160045260246000fd5b9052506005805491925090610ba090600190612338565b81548110610bbe57634e487b7160e01b600052603260045260246000fd5b90600052602060002090600d020160058481548110610bed57634e487b7160e01b600052603260045260246000fd5b600091825260209091208254600d9092020180546001600160a01b039283166001600160a01b0319918216178255600180850154908301805491909416911617909155600280830180548492849290830191610c489061234f565b610c53929190611a22565b506003820181600301908054610c689061234f565b610c73929190611a22565b506004820181600401908054610c889061234f565b610c93929190611a22565b506005820181600501908054610ca89061234f565b610cb3929190611a22565b506006820181600601908054610cc89061234f565b610cd3929190611a22565b506007820181600701908054610ce89061234f565b610cf3929190611a22565b506008820181600801908054610d089061234f565b610d13929190611a22565b506009820181600901908054610d289061234f565b610d33929190611a22565b50600a8281015490820180546001600160a01b0319166001600160a01b03909216919091179055600b91820154910155600c82810154908201805460ff9092169160ff19166001836002811115610d9a57634e487b7160e01b600052602160045260246000fd5b02179055509050506005805480610dc157634e487b7160e01b600052603160045260246000fd5b600082815260208120600d6000199093019283020180546001600160a01b031990811682556001820180549091169055908181610e016002830182611aad565b610e0f600383016000611aad565b610e1d600483016000611aad565b610e2b600583016000611aad565b610e39600683016000611aad565b610e47600783016000611aad565b610e55600883016000611aad565b610e63600983016000611aad565b50600a810180546001600160a01b03191690556000600b9091015550600c01805460ff1916905590556040517f8b35a8f8c2dc10b4672d1a95decdf391e3ef83540f79c8233f966a7642d403d5906104b090839061229d565b6000610ec6611195565b90508015610ee65760405162461bcd60e51b81526004016104dd90612172565b60056040518060400160405280858152602001846002811115610f1957634e487b7160e01b600052602160045260246000fd5b6002811115610f3857634e487b7160e01b600052602160045260246000fd5b9052815460018181018455600093845260209384902083518051600d90940290910180546001600160a01b039485166001600160a01b03199182161782558287015193820180549490951693169290921790925560408201518051939491938492610faa926002850192910190611aec565b5060608201518051610fc6916003840191602090910190611aec565b5060808201518051610fe2916004840191602090910190611aec565b5060a08201518051610ffe916005840191602090910190611aec565b5060c0820151805161101a916006840191602090910190611aec565b5060e08201518051611036916007840191602090910190611aec565b506101008201518051611053916008840191602090910190611aec565b506101208201518051611070916009840191602090910190611aec565b50610140820151600a820180546001600160a01b0319166001600160a01b0390921691909117905561016090910151600b909101556020820151600c8201805460ff191660018360028111156110d657634e487b7160e01b600052602160045260246000fd5b02179055505050505050565b60025433906001600160a01b031681146110fb57600080fd5b6000546040516303a8799360e31b81526001600160a01b0390911690631d43cc989061112b9085906004016122b0565b600060405180830381600087803b15801561114557600080fd5b505af1158015611159573d6000803e3d6000fd5b505050505050565b6003546001600160a01b031681565b6002546001600160a01b03165b90565b6002546001600160a01b031681565b60045481565b600554600090156112105760005b60055481101561120e57600581815481106111ce57634e487b7160e01b600052603260045260246000fd5b60009182526020909120600d90910201600101546001600160a01b03163314156111fc57600191505061117d565b806112068161238a565b9150506111a3565b505b50600090565b600061122182611a0f565b9050803410156112435760405162461bcd60e51b81526004016104dd90612254565b600061124f8234612338565b604051909150339082156108fc029083906000818181858888f1935050505015801561127f573d6000803e3d6000fd5b50600061128a611985565b9050808411156112ac5760405162461bcd60e51b81526004016104dd906121b4565b60005460405163a9059cbb60e01b81526001600160a01b039091169063a9059cbb906112de903390889060040161208c565b602060405180830381600087803b1580156112f857600080fd5b505af115801561130c573d6000803e3d6000fd5b505050506040513d601f19601f820116820180604052508101906113309190611c7c565b507fc5d46be962adb867acf29dce93ab611e9064bffee951e4db9e52c693f73f4c3884336040516113629291906122b9565b60405180910390a150505050565b60005460405163095ea7b360e01b81526001600160a01b039091169063095ea7b3906113a2908590859060040161208c565b602060405180830381600087803b1580156113bc57600080fd5b505af11580156113d0573d6000803e3d6000fd5b505050506040513d601f19601f820116820180604052508101906113f49190611c7c565b505050565b60606005805480602002602001604051908101604052809291908181526020016000905b8282101561197c57600084815260209020604080516101c081018252600d850290920180546001600160a01b039081169284019283526001820154166060840152600281018054919284929091849160808501919061147b9061234f565b80601f01602080910402602001604051908101604052809291908181526020018280546114a79061234f565b80156114f45780601f106114c9576101008083540402835291602001916114f4565b820191906000526020600020905b8154815290600101906020018083116114d757829003601f168201915b5050505050815260200160038201805461150d9061234f565b80601f01602080910402602001604051908101604052809291908181526020018280546115399061234f565b80156115865780601f1061155b57610100808354040283529160200191611586565b820191906000526020600020905b81548152906001019060200180831161156957829003601f168201915b5050505050815260200160048201805461159f9061234f565b80601f01602080910402602001604051908101604052809291908181526020018280546115cb9061234f565b80156116185780601f106115ed57610100808354040283529160200191611618565b820191906000526020600020905b8154815290600101906020018083116115fb57829003601f168201915b505050505081526020016005820180546116319061234f565b80601f016020809104026020016040519081016040528092919081815260200182805461165d9061234f565b80156116aa5780601f1061167f576101008083540402835291602001916116aa565b820191906000526020600020905b81548152906001019060200180831161168d57829003601f168201915b505050505081526020016006820180546116c39061234f565b80601f01602080910402602001604051908101604052809291908181526020018280546116ef9061234f565b801561173c5780601f106117115761010080835404028352916020019161173c565b820191906000526020600020905b81548152906001019060200180831161171f57829003601f168201915b505050505081526020016007820180546117559061234f565b80601f01602080910402602001604051908101604052809291908181526020018280546117819061234f565b80156117ce5780601f106117a3576101008083540402835291602001916117ce565b820191906000526020600020905b8154815290600101906020018083116117b157829003601f168201915b505050505081526020016008820180546117e79061234f565b80601f01602080910402602001604051908101604052809291908181526020018280546118139061234f565b80156118605780601f1061183557610100808354040283529160200191611860565b820191906000526020600020905b81548152906001019060200180831161184357829003601f168201915b505050505081526020016009820180546118799061234f565b80601f01602080910402602001604051908101604052809291908181526020018280546118a59061234f565b80156118f25780601f106118c7576101008083540402835291602001916118f2565b820191906000526020600020905b8154815290600101906020018083116118d557829003601f168201915b5050509183525050600a8201546001600160a01b0316602080830191909152600b90920154604090910152908252600c83015491019060ff16600281111561194a57634e487b7160e01b600052602160045260246000fd5b600281111561196957634e487b7160e01b600052602160045260246000fd5b815250508152602001906001019061141d565b50505050905090565b600080546003546040516370a0823160e01b81526001600160a01b03928316926370a08231926119ba92911690600401612054565b60206040518083038186803b1580156119d257600080fd5b505afa1580156119e6573d6000803e3d6000fd5b505050506040513d601f19601f82011682018060405250810190611a0a9190611e69565b905090565b60006103ee8266038d7ea4c68000612319565b828054611a2e9061234f565b90600052602060002090601f016020900481019282611a505760008555611a9d565b82601f10611a615780548555611a9d565b82800160010185558215611a9d57600052602060002091601f016020900482015b82811115611a9d578254825591600101919060010190611a82565b50611aa9929150611b60565b5090565b508054611ab99061234f565b6000825580601f10611acb5750611ae9565b601f016020900490600052602060002090810190611ae99190611b60565b50565b828054611af89061234f565b90600052602060002090601f016020900481019282611b1a5760008555611a9d565b82601f10611b3357805160ff1916838001178555611a9d565b82800160010185558215611a9d579182015b82811115611a9d578251825591602001919060010190611b45565b5b80821115611aa95760008155600101611b61565b80356001600160a01b03811681146103f157600080fd5b600082601f830112611b9c578081fd5b813567ffffffffffffffff811115611bb657611bb66123bb565b611bc9601f8201601f19166020016122ef565b818152846020838601011115611bdd578283fd5b816020850160208301379081016020019190915292915050565b600060208284031215611c08578081fd5b611c1182611b75565b9392505050565b600080600060608486031215611c2c578182fd5b611c3584611b75565b9250611c4360208501611b75565b9150604084013590509250925092565b60008060408385031215611c65578182fd5b611c6e83611b75565b946020939093013593505050565b600060208284031215611c8d578081fd5b81518015158114611c11578182fd5b60008060408385031215611cae578182fd5b823567ffffffffffffffff80821115611cc5578384fd5b8185019150610180808388031215611cdb578485fd5b611ce4816122ef565b9050611cef83611b75565b8152611cfd60208401611b75565b6020820152604083013582811115611d13578586fd5b611d1f88828601611b8c565b604083015250606083013582811115611d36578586fd5b611d4288828601611b8c565b606083015250608083013582811115611d59578586fd5b611d6588828601611b8c565b60808301525060a083013582811115611d7c578586fd5b611d8888828601611b8c565b60a08301525060c083013582811115611d9f578586fd5b611dab88828601611b8c565b60c08301525060e083013582811115611dc2578586fd5b611dce88828601611b8c565b60e0830152506101008084013583811115611de7578687fd5b611df389828701611b8c565b8284015250506101208084013583811115611e0c578687fd5b611e1889828701611b8c565b8284015250506101409150611e2e828401611b75565b918101919091526101609182013591810191909152946020939093013593505050565b600060208284031215611e62578081fd5b5035919050565b600060208284031215611e7a578081fd5b5051919050565b6001600160a01b03169052565b60038110611eac57634e487b7160e01b600052602160045260246000fd5b9052565b60008151808452815b81811015611ed557602081850181015186830182015201611eb9565b81811115611ee65782602083870101525b50601f01601f19169290920160200192915050565b6000815160408452611f11604085018251611e81565b6020810151611f236060860182611e81565b506040810151610180806080870152611f406101c0870183611eb0565b91506060830151603f19808885030160a0890152611f5e8483611eb0565b935060808501519150808885030160c0890152611f7b8483611eb0565b935060a08501519150808885030160e0890152611f988483611eb0565b935060c085015191506101008189860301818a0152611fb78584611eb0565b945060e08601519250610120828a870301818b0152611fd68685611eb0565b95508187015193506101409150828a870301828b0152611ff68685611eb0565b955080870151935050610160828a870301818b01526120158685611eb0565b9550818701519350612029858b0185611e81565b808701516101a08b015250505050506020840151915061204c6020860183611e8e565b949350505050565b6001600160a01b0391909116815260200190565b6001600160a01b039384168152919092166020820152604081019190915260600190565b6001600160a01b03929092168252602082015260400190565b6000602080830181845280855180835260408601915060408482028701019250838701855b828110156120f857603f198886030184526120e6858351611efb565b945092850192908501906001016120ca565b5092979650505050505050565b901515815260200190565b600060208252611c116020830184611eb0565b6020808252602f908201527f4e6563657369746173206465766f6c76657220756e206e756d65726f20706f7360408201526e697469766f20646520746f6b656e7360881b606082015260800190565b60208082526022908201527f5961207469656e657320756e6120736f6c696369747564207265676973747261604082015261646160f01b606082015260800190565b60208082526023908201527f436f6d70726120756e206e756d65726f20646520746f6b656e7320616465637560408201526261646f60e81b606082015260800190565b6020808252603b908201527f4e6f20707565646573206465766f6c766572206d617320746f6b656e7320646560408201527f206c6f7320717565207469656e657320646973706f6e69626c65730000000000606082015260800190565b60208082526029908201527f436f6d707261206d656e6f7320546f6b656e73206f207061676120636f6e206d60408201526861732045746865727360b81b606082015260800190565b600060208252611c116020830184611efb565b90815260200190565b9182526001600160a01b0316602082015260400190565b9283526001600160a01b03918216602084015216604082015260600190565b60405181810167ffffffffffffffff81118282101715612311576123116123bb565b604052919050565b6000816000190483118215151615612333576123336123a5565b500290565b60008282101561234a5761234a6123a5565b500390565b60028104600182168061236357607f821691505b6020821081141561238457634e487b7160e01b600052602260045260246000fd5b50919050565b600060001982141561239e5761239e6123a5565b5060010190565b634e487b7160e01b600052601160045260246000fd5b634e487b7160e01b600052604160045260246000fdfea2646970667358221220e38a3ac2845bd1b94a87d698bd9e13a78e36609988e24147d605a9697b310e0c64736f6c63430008000033608060405234801561001057600080fd5b5060405161095638038061095683398101604081905261002f91610046565b60008181553381526001602052604090205561005e565b600060208284031215610057578081fd5b5051919050565b6108e98061006d6000396000f3fe608060405234801561001057600080fd5b50600436106100b45760003560e01c8063324536eb11610071578063324536eb1461014957806370a082311461015157806395d89b4114610164578063a9059cbb1461016c578063dd62ed3e1461017f578063eee4b8d414610192576100b4565b806306fdde03146100b9578063095ea7b3146100d757806318160ddd146100f75780631d43cc981461010c57806323b872dd14610121578063313ce56714610134575b600080fd5b6100c16101a5565b6040516100ce9190610701565b60405180910390f35b6100ea6100e53660046106b5565b6101ca565b6040516100ce91906106f6565b6100ff610234565b6040516100ce9190610857565b61011f61011a3660046106de565b61023a565b005b6100ea61012f36600461067a565b610277565b61013c6103f7565b6040516100ce9190610860565b6100ff6103fc565b6100ff61015f36600461062e565b610402565b6100c1610421565b6100ea61017a3660046106b5565b610440565b6100ff61018d366004610648565b610504565b6100ea6101a036600461067a565b61052f565b6040518060400160405280600981526020016845524332305f4d564d60b81b81525081565b3260008181526002602090815260408083206001600160a01b038716808552925280832085905551919290917f8c5be1e5ebec7d5bd14f71427d1e84f3dd0314c0f7b2291e5b200ac8c7c3b92590610223908690610857565b60405180910390a350600192915050565b60005490565b8060008082825461024b919061086e565b9091555050336000908152600160205260408120805483929061026f90849061086e565b909155505050565b6001600160a01b0383166000908152600160205260408120548211156102b85760405162461bcd60e51b81526004016102af906107ca565b60405180910390fd5b6001600160a01b03841660009081526002602090815260408083203284529091529020548211156102fb5760405162461bcd60e51b81526004016102af9061077e565b6001600160a01b03841660009081526001602052604090205461031e90836105b9565b6001600160a01b038516600090815260016020908152604080832093909355600281528282203283529052205461035590836105b9565b6001600160a01b03808616600090815260026020908152604080832032845282528083209490945591861681526001909152205461039390836105ea565b6001600160a01b0380851660008181526001602052604090819020939093559151908616907fddf252ad1be2c89b69c2b068fc378daa952ba7f163c4a11628f55a4df523b3ef906103e5908690610857565b60405180910390a35060019392505050565b600281565b60005481565b6001600160a01b0381166000908152600160205260409020545b919050565b604051806040016040528060038152602001624d564d60e81b81525081565b3360009081526001602052604081205482111561046f5760405162461bcd60e51b81526004016102af90610754565b3360009081526001602052604090205461048990836105b9565b33600090815260016020526040808220929092556001600160a01b038516815220546104b590836105ea565b6001600160a01b0384166000818152600160205260409081902092909255905133907fddf252ad1be2c89b69c2b068fc378daa952ba7f163c4a11628f55a4df523b3ef90610223908690610857565b6001600160a01b03918216600090815260026020908152604080832093909416825291909152205490565b6001600160a01b0383166000908152600160205260408120548211156105675760405162461bcd60e51b81526004016102af90610801565b6001600160a01b03841660009081526001602052604090205461058a90836105b9565b6001600160a01b03808616600090815260016020526040808220939093559085168152205461039390836105ea565b6000828211156105d957634e487b7160e01b600052600160045260246000fd5b6105e38284610886565b9392505050565b6000806105f7838561086e565b9050838110156105e357634e487b7160e01b600052600160045260246000fd5b80356001600160a01b038116811461041c57600080fd5b60006020828403121561063f578081fd5b6105e382610617565b6000806040838503121561065a578081fd5b61066383610617565b915061067160208401610617565b90509250929050565b60008060006060848603121561068e578081fd5b61069784610617565b92506106a560208501610617565b9150604084013590509250925092565b600080604083850312156106c7578182fd5b6106d083610617565b946020939093013593505050565b6000602082840312156106ef578081fd5b5035919050565b901515815260200190565b6000602080835283518082850152825b8181101561072d57858101830151858201604001528201610711565b8181111561073e5783604083870101525b50601f01601f1916929092016040019392505050565b60208082526010908201526f4572726f7220656e2062616c616e636560801b604082015260600190565b6020808252602c908201527f4e6f2073652068616e2064656c656761646f206c6f7320746f6b656e7320612060408201526b3630903234b932b1b1b4b7b760a11b606082015260800190565b6020808252601c908201527f456c206f776e6572206e6f207469656e65206c6f7320746f6b656e7300000000604082015260600190565b60208082526036908201527f456c206e756d65726f20646520746f6b656e732061207472616e736665726972604082015275206573206d61796f722071756520656c2073616c646f60501b606082015260800190565b90815260200190565b60ff91909116815260200190565b600082198211156108815761088161089d565b500190565b6000828210156108985761089861089d565b500390565b634e487b7160e01b600052601160045260246000fdfea2646970667358221220b665137f9e4db2be88f29857b5961ded0163a6ada5d2f02a90939ed981ea4a4664736f6c63430008000033",
  "immutableReferences": {},
  "source": "// SPDX-License-Identifier: MIT\r\npragma solidity >=0.4.22 <0.9.0;\r\npragma experimental ABIEncoderV2;\r\nimport \"./TokenErc20/ERC20.sol\";\r\nimport \"./models/InfoContrato.sol\";\r\nimport \"./libraries/Validations.sol\";\r\n\r\ncontract ReguladorMercado {\r\n    //Token del contrato\r\n    ERC20Basic private token;\r\n    enum TiposContratos {\r\n        Cliente,\r\n        Comercializador,\r\n        Generador\r\n    }\r\n\r\n    struct SolicitudContrato {\r\n        InfoContrato infoContrato;\r\n        TiposContratos tipoContrato;\r\n    }\r\n\r\n    string public name;\r\n    address public owner;\r\n    address public dirContrato;\r\n    uint256 public cantidadTokens = 1000000;\r\n    SolicitudContrato[] private solicitudes;\r\n\r\n    event ComprandoTokens(uint256, address);\r\n    event tokensDevueltos(uint256, address);\r\n    event EnviarTokensEvent(uint256, address, address);\r\n    event ContratoDiligenciado(SolicitudContrato);\r\n\r\n    constructor(string memory _name) {\r\n        name = _name;\r\n        owner = msg.sender;\r\n        dirContrato = address(this);\r\n        token = new ERC20Basic(cantidadTokens);\r\n    }\r\n\r\n    modifier authorize(address direction) {\r\n        require(direction == owner);\r\n        _;\r\n    }\r\n\r\n    function PrecioTokens(uint256 _numTokens) private pure returns (uint256) {\r\n        return _numTokens * (1e15);\r\n    }\r\n\r\n    function GenerarTokens(uint256 numTokens) public authorize(msg.sender) {\r\n        token.increaseTotalSupply(numTokens);\r\n    }\r\n\r\n    function TokensDisponibles() public view returns (uint256) {\r\n        return token.balanceOf(dirContrato);\r\n    }\r\n\r\n    function ComprarTokens(uint256 numTokens) public payable {\r\n        uint256 coste = PrecioTokens(numTokens);\r\n        //Se requiere verificar el fondo del comprador\r\n        require(\r\n            msg.value >= coste,\r\n            \"Compra menos Tokens o paga con mas Ethers\"\r\n        );\r\n        //Devolver el dinero sobrante\r\n        uint256 returnValue = msg.value - coste;\r\n        payable(msg.sender).transfer(returnValue);\r\n        //Obtener el balance de tokens del contrato\r\n        uint256 balance = TokensDisponibles();\r\n        //Filtro para evaluar los tokens disponibles\r\n        require(numTokens <= balance, \"Compra un numero de tokens adecuado\");\r\n        //Transferir tokens al comprador\r\n        token.transfer(msg.sender, numTokens);\r\n        emit ComprandoTokens(numTokens, msg.sender);\r\n    }\r\n\r\n    function IntercambiarTokens(\r\n        address _dir1,\r\n        address _dir2,\r\n        uint256 numTokens\r\n    ) public {\r\n        token.transferFrom(_dir1, _dir2, numTokens);\r\n        emit EnviarTokensEvent(numTokens, _dir1, _dir2);\r\n    }\r\n\r\n    function MisTokens(address _direction) public view returns (uint256) {\r\n        return token.balanceOf(_direction);\r\n    }\r\n\r\n    function DevolverTokens(uint256 numTokens) public {\r\n        //El numero de tokens debe de ser mayor a cero\r\n        require(\r\n            numTokens > 0,\r\n            \"Necesitas devolver un numero positivo de tokens\"\r\n        );\r\n        //EL cliente debe tener los tokens que desea devolver\r\n        require(\r\n            numTokens <= MisTokens(msg.sender),\r\n            \"No puedes devolver mas tokens de los que tienes disponibles\"\r\n        );\r\n        //1.Devolucion de tokens por parte del cliente al contrato\r\n        token.transferTwo(msg.sender, address(this), numTokens);\r\n        payable(msg.sender).transfer(PrecioTokens(numTokens));\r\n\r\n        //2.Pago de tokens devueltos en ethers\r\n        emit tokensDevueltos(numTokens, msg.sender);\r\n    }\r\n\r\n    function delegarTokens(address delegate, uint256 numTokens) public {\r\n        token.approve(delegate, numTokens);\r\n    }\r\n\r\n    function getSolicitudes() public view returns (SolicitudContrato[] memory) {\r\n        return solicitudes;\r\n    }\r\n\r\n    function registrarSolicitud(\r\n        InfoContrato memory _infoContrato,\r\n        uint256 _tipoContrato\r\n    ) public {\r\n        bool bandera = existeSolicitud();\r\n        require(!bandera, \"Ya tienes una solicitud registrada\");\r\n        solicitudes.push(\r\n            SolicitudContrato(_infoContrato, TiposContratos(_tipoContrato))\r\n        );\r\n    }\r\n\r\n    function diligenciarSolicitud(uint256 index) public authorize(msg.sender) {\r\n        SolicitudContrato memory solicitud = solicitudes[index];\r\n        solicitudes[index] = solicitudes[solicitudes.length - 1];\r\n        solicitudes.pop();\r\n        emit ContratoDiligenciado(solicitud);\r\n    }\r\n\r\n    function getOwner() public view returns (address) {\r\n        return owner;\r\n    }\r\n\r\n    function existeSolicitud() public view returns (bool) {\r\n        if (solicitudes.length > 0) {\r\n            for (uint256 i = 0; i < solicitudes.length; i++) {\r\n                if (msg.sender == solicitudes[i].infoContrato.owner) {\r\n                    return true;\r\n                }\r\n            }\r\n        }\r\n        return false;\r\n    }\r\n}\r\n",
  "sourcePath": "D:\\Santiago\\BlockChain\\DemoMvmTruffle\\contracts\\ReguladorMercado.sol",
  "compiler": {
    "name": "solc",
    "version": "0.8.0+commit.c7dfd78e.Emscripten.clang"
  },
  "schemaVersion": "3.4.4",
  "updatedAt": "2022-07-06T19:07:40.103Z",
  "networkType": "ethereum",
  "devdoc": {
    "kind": "dev",
    "methods": {},
    "version": 1
  },
  "userdoc": {
    "kind": "user",
    "methods": {},
    "version": 1
  }
}