{
  "contractName": "ReguladorMercado",
  "abi": [
    {
      "inputs": [
        {
          "internalType": "string",
          "name": "_name",
          "type": "string"
        }
      ],
      "stateMutability": "nonpayable",
      "type": "constructor"
    },
    {
      "anonymous": false,
      "inputs": [
        {
          "indexed": false,
          "internalType": "uint256",
          "name": "",
          "type": "uint256"
        },
        {
          "indexed": false,
          "internalType": "address",
          "name": "",
          "type": "address"
        }
      ],
      "name": "ComprandoTokens",
      "type": "event"
    },
    {
      "anonymous": false,
      "inputs": [
        {
          "components": [
            {
              "components": [
                {
                  "internalType": "address",
                  "name": "dirContrato",
                  "type": "address"
                },
                {
                  "internalType": "address",
                  "name": "owner",
                  "type": "address"
                },
                {
                  "internalType": "string",
                  "name": "nit",
                  "type": "string"
                },
                {
                  "internalType": "string",
                  "name": "empresa",
                  "type": "string"
                },
                {
                  "internalType": "string",
                  "name": "contacto",
                  "type": "string"
                },
                {
                  "internalType": "string",
                  "name": "telefono",
                  "type": "string"
                },
                {
                  "internalType": "string",
                  "name": "correo",
                  "type": "string"
                },
                {
                  "internalType": "string",
                  "name": "departamento",
                  "type": "string"
                },
                {
                  "internalType": "string",
                  "name": "ciudad",
                  "type": "string"
                },
                {
                  "internalType": "string",
                  "name": "direccion",
                  "type": "string"
                },
                {
                  "internalType": "address",
                  "name": "comercializador",
                  "type": "address"
                },
                {
                  "internalType": "uint256",
                  "name": "tipoComercio",
                  "type": "uint256"
                }
              ],
              "internalType": "struct InfoContrato",
              "name": "infoContrato",
              "type": "tuple"
            },
            {
              "internalType": "enum ReguladorMercado.TiposContratos",
              "name": "tipoContrato",
              "type": "uint8"
            }
          ],
          "indexed": false,
          "internalType": "struct ReguladorMercado.SolicitudContrato",
          "name": "",
          "type": "tuple"
        }
      ],
      "name": "ContratoDiligenciado",
      "type": "event"
    },
    {
      "anonymous": false,
      "inputs": [
        {
          "indexed": false,
          "internalType": "uint256",
          "name": "",
          "type": "uint256"
        },
        {
          "indexed": false,
          "internalType": "address",
          "name": "",
          "type": "address"
        },
        {
          "indexed": false,
          "internalType": "address",
          "name": "",
          "type": "address"
        }
      ],
      "name": "EnviarTokensEvent",
      "type": "event"
    },
    {
      "anonymous": false,
      "inputs": [
        {
          "components": [
            {
              "components": [
                {
                  "internalType": "address",
                  "name": "dirContrato",
                  "type": "address"
                },
                {
                  "internalType": "address",
                  "name": "owner",
                  "type": "address"
                },
                {
                  "internalType": "string",
                  "name": "nit",
                  "type": "string"
                },
                {
                  "internalType": "string",
                  "name": "empresa",
                  "type": "string"
                },
                {
                  "internalType": "string",
                  "name": "contacto",
                  "type": "string"
                },
                {
                  "internalType": "string",
                  "name": "telefono",
                  "type": "string"
                },
                {
                  "internalType": "string",
                  "name": "correo",
                  "type": "string"
                },
                {
                  "internalType": "string",
                  "name": "departamento",
                  "type": "string"
                },
                {
                  "internalType": "string",
                  "name": "ciudad",
                  "type": "string"
                },
                {
                  "internalType": "string",
                  "name": "direccion",
                  "type": "string"
                },
                {
                  "internalType": "address",
                  "name": "comercializador",
                  "type": "address"
                },
                {
                  "internalType": "uint256",
                  "name": "tipoComercio",
                  "type": "uint256"
                }
              ],
              "internalType": "struct InfoContrato",
              "name": "infoContrato",
              "type": "tuple"
            },
            {
              "internalType": "enum ReguladorMercado.TiposContratos",
              "name": "tipoContrato",
              "type": "uint8"
            }
          ],
          "indexed": false,
          "internalType": "struct ReguladorMercado.SolicitudContrato",
          "name": "",
          "type": "tuple"
        }
      ],
      "name": "SolicitudDeRegistro",
      "type": "event"
    },
    {
      "anonymous": false,
      "inputs": [
        {
          "indexed": false,
          "internalType": "uint256",
          "name": "",
          "type": "uint256"
        },
        {
          "indexed": false,
          "internalType": "address",
          "name": "",
          "type": "address"
        }
      ],
      "name": "tokensDevueltos",
      "type": "event"
    },
    {
      "inputs": [],
      "name": "cantidadTokens",
      "outputs": [
        {
          "internalType": "uint256",
          "name": "",
          "type": "uint256"
        }
      ],
      "stateMutability": "view",
      "type": "function",
      "constant": true
    },
    {
      "inputs": [],
      "name": "dirContrato",
      "outputs": [
        {
          "internalType": "address",
          "name": "",
          "type": "address"
        }
      ],
      "stateMutability": "view",
      "type": "function",
      "constant": true
    },
    {
      "inputs": [],
      "name": "name",
      "outputs": [
        {
          "internalType": "string",
          "name": "",
          "type": "string"
        }
      ],
      "stateMutability": "view",
      "type": "function",
      "constant": true
    },
    {
      "inputs": [],
      "name": "owner",
      "outputs": [
        {
          "internalType": "address",
          "name": "",
          "type": "address"
        }
      ],
      "stateMutability": "view",
      "type": "function",
      "constant": true
    },
    {
      "inputs": [
        {
          "internalType": "uint256",
          "name": "numTokens",
          "type": "uint256"
        }
      ],
      "name": "GenerarTokens",
      "outputs": [],
      "stateMutability": "nonpayable",
      "type": "function"
    },
    {
      "inputs": [],
      "name": "TokensDisponibles",
      "outputs": [
        {
          "internalType": "uint256",
          "name": "",
          "type": "uint256"
        }
      ],
      "stateMutability": "view",
      "type": "function",
      "constant": true
    },
    {
      "inputs": [
        {
          "internalType": "uint256",
          "name": "numTokens",
          "type": "uint256"
        }
      ],
      "name": "ComprarTokens",
      "outputs": [],
      "stateMutability": "payable",
      "type": "function",
      "payable": true
    },
    {
      "inputs": [
        {
          "internalType": "address",
          "name": "_dir1",
          "type": "address"
        },
        {
          "internalType": "address",
          "name": "_dir2",
          "type": "address"
        },
        {
          "internalType": "uint256",
          "name": "numTokens",
          "type": "uint256"
        }
      ],
      "name": "IntercambiarTokens",
      "outputs": [],
      "stateMutability": "nonpayable",
      "type": "function"
    },
    {
      "inputs": [
        {
          "internalType": "address",
          "name": "_direction",
          "type": "address"
        }
      ],
      "name": "MisTokens",
      "outputs": [
        {
          "internalType": "uint256",
          "name": "",
          "type": "uint256"
        }
      ],
      "stateMutability": "view",
      "type": "function",
      "constant": true
    },
    {
      "inputs": [
        {
          "internalType": "uint256",
          "name": "numTokens",
          "type": "uint256"
        }
      ],
      "name": "DevolverTokens",
      "outputs": [],
      "stateMutability": "nonpayable",
      "type": "function"
    },
    {
      "inputs": [
        {
          "internalType": "address",
          "name": "delegate",
          "type": "address"
        },
        {
          "internalType": "uint256",
          "name": "numTokens",
          "type": "uint256"
        }
      ],
      "name": "delegarTokens",
      "outputs": [],
      "stateMutability": "nonpayable",
      "type": "function"
    },
    {
      "inputs": [],
      "name": "getSolicitudes",
      "outputs": [
        {
          "components": [
            {
              "components": [
                {
                  "internalType": "address",
                  "name": "dirContrato",
                  "type": "address"
                },
                {
                  "internalType": "address",
                  "name": "owner",
                  "type": "address"
                },
                {
                  "internalType": "string",
                  "name": "nit",
                  "type": "string"
                },
                {
                  "internalType": "string",
                  "name": "empresa",
                  "type": "string"
                },
                {
                  "internalType": "string",
                  "name": "contacto",
                  "type": "string"
                },
                {
                  "internalType": "string",
                  "name": "telefono",
                  "type": "string"
                },
                {
                  "internalType": "string",
                  "name": "correo",
                  "type": "string"
                },
                {
                  "internalType": "string",
                  "name": "departamento",
                  "type": "string"
                },
                {
                  "internalType": "string",
                  "name": "ciudad",
                  "type": "string"
                },
                {
                  "internalType": "string",
                  "name": "direccion",
                  "type": "string"
                },
                {
                  "internalType": "address",
                  "name": "comercializador",
                  "type": "address"
                },
                {
                  "internalType": "uint256",
                  "name": "tipoComercio",
                  "type": "uint256"
                }
              ],
              "internalType": "struct InfoContrato",
              "name": "infoContrato",
              "type": "tuple"
            },
            {
              "internalType": "enum ReguladorMercado.TiposContratos",
              "name": "tipoContrato",
              "type": "uint8"
            }
          ],
          "internalType": "struct ReguladorMercado.SolicitudContrato[]",
          "name": "",
          "type": "tuple[]"
        }
      ],
      "stateMutability": "view",
      "type": "function",
      "constant": true
    },
    {
      "inputs": [],
      "name": "getRegistros",
      "outputs": [
        {
          "components": [
            {
              "components": [
                {
                  "internalType": "address",
                  "name": "dirContrato",
                  "type": "address"
                },
                {
                  "internalType": "address",
                  "name": "owner",
                  "type": "address"
                },
                {
                  "internalType": "string",
                  "name": "nit",
                  "type": "string"
                },
                {
                  "internalType": "string",
                  "name": "empresa",
                  "type": "string"
                },
                {
                  "internalType": "string",
                  "name": "contacto",
                  "type": "string"
                },
                {
                  "internalType": "string",
                  "name": "telefono",
                  "type": "string"
                },
                {
                  "internalType": "string",
                  "name": "correo",
                  "type": "string"
                },
                {
                  "internalType": "string",
                  "name": "departamento",
                  "type": "string"
                },
                {
                  "internalType": "string",
                  "name": "ciudad",
                  "type": "string"
                },
                {
                  "internalType": "string",
                  "name": "direccion",
                  "type": "string"
                },
                {
                  "internalType": "address",
                  "name": "comercializador",
                  "type": "address"
                },
                {
                  "internalType": "uint256",
                  "name": "tipoComercio",
                  "type": "uint256"
                }
              ],
              "internalType": "struct InfoContrato",
              "name": "infoContrato",
              "type": "tuple"
            },
            {
              "internalType": "enum ReguladorMercado.TiposContratos",
              "name": "tipoContrato",
              "type": "uint8"
            }
          ],
          "internalType": "struct ReguladorMercado.SolicitudContrato[]",
          "name": "",
          "type": "tuple[]"
        }
      ],
      "stateMutability": "view",
      "type": "function",
      "constant": true
    },
    {
      "inputs": [
        {
          "components": [
            {
              "internalType": "address",
              "name": "dirContrato",
              "type": "address"
            },
            {
              "internalType": "address",
              "name": "owner",
              "type": "address"
            },
            {
              "internalType": "string",
              "name": "nit",
              "type": "string"
            },
            {
              "internalType": "string",
              "name": "empresa",
              "type": "string"
            },
            {
              "internalType": "string",
              "name": "contacto",
              "type": "string"
            },
            {
              "internalType": "string",
              "name": "telefono",
              "type": "string"
            },
            {
              "internalType": "string",
              "name": "correo",
              "type": "string"
            },
            {
              "internalType": "string",
              "name": "departamento",
              "type": "string"
            },
            {
              "internalType": "string",
              "name": "ciudad",
              "type": "string"
            },
            {
              "internalType": "string",
              "name": "direccion",
              "type": "string"
            },
            {
              "internalType": "address",
              "name": "comercializador",
              "type": "address"
            },
            {
              "internalType": "uint256",
              "name": "tipoComercio",
              "type": "uint256"
            }
          ],
          "internalType": "struct InfoContrato",
          "name": "_infoContrato",
          "type": "tuple"
        },
        {
          "internalType": "uint256",
          "name": "_tipoContrato",
          "type": "uint256"
        }
      ],
      "name": "registrarSolicitud",
      "outputs": [],
      "stateMutability": "nonpayable",
      "type": "function"
    },
    {
      "inputs": [
        {
          "internalType": "uint256",
          "name": "index",
          "type": "uint256"
        },
        {
          "components": [
            {
              "internalType": "address",
              "name": "dirContrato",
              "type": "address"
            },
            {
              "internalType": "address",
              "name": "owner",
              "type": "address"
            },
            {
              "internalType": "string",
              "name": "nit",
              "type": "string"
            },
            {
              "internalType": "string",
              "name": "empresa",
              "type": "string"
            },
            {
              "internalType": "string",
              "name": "contacto",
              "type": "string"
            },
            {
              "internalType": "string",
              "name": "telefono",
              "type": "string"
            },
            {
              "internalType": "string",
              "name": "correo",
              "type": "string"
            },
            {
              "internalType": "string",
              "name": "departamento",
              "type": "string"
            },
            {
              "internalType": "string",
              "name": "ciudad",
              "type": "string"
            },
            {
              "internalType": "string",
              "name": "direccion",
              "type": "string"
            },
            {
              "internalType": "address",
              "name": "comercializador",
              "type": "address"
            },
            {
              "internalType": "uint256",
              "name": "tipoComercio",
              "type": "uint256"
            }
          ],
          "internalType": "struct InfoContrato",
          "name": "infoContrato",
          "type": "tuple"
        }
      ],
      "name": "diligenciarSolicitud",
      "outputs": [],
      "stateMutability": "nonpayable",
      "type": "function"
    },
    {
      "inputs": [],
      "name": "getOwner",
      "outputs": [
        {
          "internalType": "address",
          "name": "",
          "type": "address"
        }
      ],
      "stateMutability": "view",
      "type": "function",
      "constant": true
    },
    {
      "inputs": [
        {
          "internalType": "address",
          "name": "ownerSolicitud",
          "type": "address"
        }
      ],
      "name": "existeSolicitud",
      "outputs": [
        {
          "internalType": "bool",
          "name": "",
          "type": "bool"
        }
      ],
      "stateMutability": "view",
      "type": "function",
      "constant": true
    },
    {
      "inputs": [
        {
          "components": [
            {
              "internalType": "address",
              "name": "dirContrato",
              "type": "address"
            },
            {
              "internalType": "address",
              "name": "owner",
              "type": "address"
            },
            {
              "internalType": "string",
              "name": "nit",
              "type": "string"
            },
            {
              "internalType": "string",
              "name": "empresa",
              "type": "string"
            },
            {
              "internalType": "string",
              "name": "contacto",
              "type": "string"
            },
            {
              "internalType": "string",
              "name": "telefono",
              "type": "string"
            },
            {
              "internalType": "string",
              "name": "correo",
              "type": "string"
            },
            {
              "internalType": "string",
              "name": "departamento",
              "type": "string"
            },
            {
              "internalType": "string",
              "name": "ciudad",
              "type": "string"
            },
            {
              "internalType": "string",
              "name": "direccion",
              "type": "string"
            },
            {
              "internalType": "address",
              "name": "comercializador",
              "type": "address"
            },
            {
              "internalType": "uint256",
              "name": "tipoComercio",
              "type": "uint256"
            }
          ],
          "internalType": "struct InfoContrato",
          "name": "infoContrato",
          "type": "tuple"
        },
        {
          "internalType": "enum ReguladorMercado.TiposContratos",
          "name": "tipoContrato",
          "type": "uint8"
        }
      ],
      "name": "setRegistroContrato",
      "outputs": [],
      "stateMutability": "nonpayable",
      "type": "function"
    },
    {
      "inputs": [],
      "name": "validarUsuario",
      "outputs": [
        {
          "internalType": "bool",
          "name": "",
          "type": "bool"
        },
        {
          "internalType": "address",
          "name": "",
          "type": "address"
        },
        {
          "internalType": "enum ReguladorMercado.TiposContratos",
          "name": "",
          "type": "uint8"
        }
      ],
      "stateMutability": "view",
      "type": "function",
      "constant": true
    },
    {
      "inputs": [
        {
          "internalType": "address",
          "name": "dir",
          "type": "address"
        }
      ],
      "name": "getIndexSolicitudes",
      "outputs": [
        {
          "internalType": "uint256",
          "name": "",
          "type": "uint256"
        }
      ],
      "stateMutability": "view",
      "type": "function",
      "constant": true
    },
    {
      "inputs": [],
      "name": "getInfoRegulador",
      "outputs": [
        {
          "components": [
            {
              "internalType": "address",
              "name": "owner",
              "type": "address"
            },
            {
              "internalType": "address",
              "name": "dirContrato",
              "type": "address"
            },
            {
              "internalType": "uint256",
              "name": "cantidadTokens",
              "type": "uint256"
            },
            {
              "internalType": "string",
              "name": "nombreToken",
              "type": "string"
            },
            {
              "internalType": "string",
              "name": "simboloToken",
              "type": "string"
            },
            {
              "internalType": "uint256",
              "name": "valorToken",
              "type": "uint256"
            }
          ],
          "internalType": "struct ReguladorMercado.InfoRegulador",
          "name": "",
          "type": "tuple"
        }
      ],
      "stateMutability": "view",
      "type": "function",
      "constant": true
    }
  ],
  "bytecode": "0x6080604052620f42406004553480156200001857600080fd5b5060405162004037380380620040378339810160408190526200003b9162000187565b805162000050906001906020840190620000d3565b50600280546001600160a01b031990811633179091556003805490911630179055600454604051620000829062000162565b6200008e919062000256565b604051809103906000f080158015620000ab573d6000803e3d6000fd5b50600080546001600160a01b0319166001600160a01b039290921691909117905550620002b2565b828054620000e1906200025f565b90600052602060002090601f01602090048101928262000105576000855562000150565b82601f106200012057805160ff191683800117855562000150565b8280016001018555821562000150579182015b828111156200015057825182559160200191906001019062000133565b506200015e92915062000170565b5090565b61095680620036e183390190565b5b808211156200015e576000815560010162000171565b600060208083850312156200019a578182fd5b82516001600160401b0380821115620001b1578384fd5b818501915085601f830112620001c5578384fd5b815181811115620001da57620001da6200029c565b604051601f8201601f19168101850183811182821017156200020057620002006200029c565b604052818152838201850188101562000217578586fd5b8592505b818310156200023a57838301850151818401860152918401916200021b565b818311156200024b57858583830101525b979650505050505050565b90815260200190565b6002810460018216806200027457607f821691505b602082108114156200029657634e487b7160e01b600052602260045260246000fd5b50919050565b634e487b7160e01b600052604160045260246000fd5b61341f80620002c26000396000f3fe60806040526004361061012a5760003560e01c8063856788df116100ab578063ab9e41b41161006f578063ab9e41b41461032a578063b2222c921461033f578063d1931ccf1461035f578063dc0b0ee414610372578063e7f3979f14610392578063fd889ff5146103a75761012a565b8063856788df1461029a578063893d20e8146102bc5780638da5cb5b146102d1578063a28fe68c146102e6578063a499a465146103085761012a565b806325a977cf116100f257806325a977cf146101e957806340fd3f391461020957806370f4a4df146102365780637c1b38bf146102565780637d3ecc69146102765761012a565b806306fdde031461012f5780630d098a3b1461015a5780630e03c03b1461018757806313e8a250146101a75780631890154c146101c9575b600080fd5b34801561013b57600080fd5b506101446103bc565b6040516101519190612ee0565b60405180910390f35b34801561016657600080fd5b5061017a610175366004612987565b61044a565b6040516101519190613252565b34801561019357600080fd5b5061017a6101a2366004612987565b6104c4565b3480156101b357600080fd5b506101c76101c23660046129a8565b61054b565b005b3480156101d557600080fd5b506101c76101e4366004612b35565b610612565b3480156101f557600080fd5b506101c7610204366004612a9f565b61075c565b34801561021557600080fd5b50610229610224366004612987565b610938565b6040516101519190612eb0565b34801561024257600080fd5b506101c7610251366004612af2565b6109bc565b34801561026257600080fd5b506101c7610271366004612b35565b610c49565b34801561028257600080fd5b5061028b610cc8565b60405161015193929190612ebb565b3480156102a657600080fd5b506102af610e00565b6040516101519190612dff565b3480156102c857600080fd5b506102af610e0f565b3480156102dd57600080fd5b506102af610e1e565b3480156102f257600080fd5b506102fb610e2d565b6040516101519190612e50565b34801561031457600080fd5b5061031d6113b9565b604051610151919061306d565b34801561033657600080fd5b5061017a611522565b34801561034b57600080fd5b506101c761035a366004612b65565b611528565b6101c761036d366004612b35565b611dfa565b34801561037e57600080fd5b506101c761038d3660046129e3565b611f46565b34801561039e57600080fd5b506102fb611fcf565b3480156103b357600080fd5b5061017a612552565b600180546103c990613361565b80601f01602080910402602001604051908101604052809291908181526020018280546103f590613361565b80156104425780601f1061041757610100808354040283529160200191610442565b820191906000526020600020905b81548152906001019060200180831161042557829003601f168201915b505050505081565b6000805b6005548110156104b9576005818154811061047957634e487b7160e01b600052603260045260246000fd5b600091825260209091206001600d9092020101546001600160a01b03848116911614156104a75790506104bf565b806104b1816133a2565b91505061044e565b50600090505b919050565b600080546040516370a0823160e01b81526001600160a01b03909116906370a08231906104f5908590600401612dff565b60206040518083038186803b15801561050d57600080fd5b505afa158015610521573d6000803e3d6000fd5b505050506040513d601f19601f820116820180604052508101906105459190612b4d565b92915050565b6000546040516323b872dd60e01b81526001600160a01b03909116906323b872dd9061057f90869086908690600401612e13565b602060405180830381600087803b15801561059957600080fd5b505af11580156105ad573d6000803e3d6000fd5b505050506040513d601f19601f820116820180604052508101906105d19190612a0c565b507f2438343549d9535d8f8ff03f9ebc22e59fd8d234198ede2a2af0cae7c2dfa85d81848460405161060593929190613272565b60405180910390a1505050565b6000811161063b5760405162461bcd60e51b815260040161063290612ef3565b60405180910390fd5b610644336104c4565b8111156106635760405162461bcd60e51b815260040161063290612fc7565b600054604051633bb92e3560e21b81526001600160a01b039091169063eee4b8d49061069790339030908690600401612e13565b602060405180830381600087803b1580156106b157600080fd5b505af11580156106c5573d6000803e3d6000fd5b505050506040513d601f19601f820116820180604052508101906106e99190612a0c565b50336108fc6106f7836125dc565b6040518115909202916000818181858888f1935050505015801561071f573d6000803e3d6000fd5b507fa997a52566b1f8380f086c733e70d49a141eafece6addc432a411a73ec45c688813360405161075192919061325b565b60405180910390a150565b6006604051806040016040528084815260200183600481111561078f57634e487b7160e01b600052602160045260246000fd5b9052815460018181018455600093845260209384902083518051600d90940290910180546001600160a01b039485166001600160a01b031991821617825582870151938201805494909516931692909217909255604082015180519394919384926108019260028501929101906125ef565b506060820151805161081d9160038401916020909101906125ef565b50608082015180516108399160048401916020909101906125ef565b5060a082015180516108559160058401916020909101906125ef565b5060c082015180516108719160068401916020909101906125ef565b5060e0820151805161088d9160078401916020909101906125ef565b5061010082015180516108aa9160088401916020909101906125ef565b5061012082015180516108c79160098401916020909101906125ef565b50610140820151600a820180546001600160a01b0319166001600160a01b0390921691909117905561016090910151600b909101556020820151600c8201805460ff1916600183600481111561092d57634e487b7160e01b600052602160045260246000fd5b021790555050505050565b600554600090156109b45760005b6005548110156104b9576005818154811061097157634e487b7160e01b600052603260045260246000fd5b600091825260209091206001600d9092020101546001600160a01b03848116911614156109a25760019150506104bf565b806109ac816133a2565b915050610946565b506000919050565b60006109c733610938565b905080156109e75760405162461bcd60e51b815260040161063290612f42565b60056040518060400160405280858152602001846004811115610a1a57634e487b7160e01b600052602160045260246000fd5b6004811115610a3957634e487b7160e01b600052602160045260246000fd5b9052815460018181018455600093845260209384902083518051600d90940290910180546001600160a01b039485166001600160a01b03199182161782558287015193820180549490951693169290921790925560408201518051939491938492610aab9260028501929101906125ef565b5060608201518051610ac79160038401916020909101906125ef565b5060808201518051610ae39160048401916020909101906125ef565b5060a08201518051610aff9160058401916020909101906125ef565b5060c08201518051610b1b9160068401916020909101906125ef565b5060e08201518051610b379160078401916020909101906125ef565b506101008201518051610b549160088401916020909101906125ef565b506101208201518051610b719160098401916020909101906125ef565b50610140820151600a820180546001600160a01b0319166001600160a01b0390921691909117905561016090910151600b909101556020820151600c8201805460ff19166001836004811115610bd757634e487b7160e01b600052602160045260246000fd5b021790555050600580547fcebcb95b72d4f2d7173b83fa812efaa148952f3604350b50c7c1120da3f1ad1c9250610c109060019061330e565b81548110610c2e57634e487b7160e01b600052603260045260246000fd5b90600052602060002090600d020160405161060591906130fa565b60025433906001600160a01b03168114610c6257600080fd5b6000546040516303a8799360e31b81526001600160a01b0390911690631d43cc9890610c92908590600401613252565b600060405180830381600087803b158015610cac57600080fd5b505af1158015610cc0573d6000803e3d6000fd5b505050505050565b600254600090819081906001600160a01b0316331415610cfb57505060038054600192506001600160a01b031690610dfb565b60065415610df05760005b600654811015610dee5760068181548110610d3157634e487b7160e01b600052603260045260246000fd5b60009182526020909120600d90910201600101546001600160a01b0316331415610ddc57600160068281548110610d7857634e487b7160e01b600052603260045260246000fd5b60009182526020909120600d9091020154600680546001600160a01b039092169184908110610db757634e487b7160e01b600052603260045260246000fd5b60009182526020909120600c600d909202010154919550935060ff169150610dfb9050565b80610de6816133a2565b915050610d06565b505b506000915081905060045b909192565b6003546001600160a01b031681565b6002546001600160a01b031690565b6002546001600160a01b031681565b60606006805480602002602001604051908101604052809291908181526020016000905b828210156113b057600084815260209020604080516101c081018252600d850290920180546001600160a01b0390811692840192835260018201541660608401526002810180549192849290918491608085019190610eaf90613361565b80601f0160208091040260200160405190810160405280929190818152602001828054610edb90613361565b8015610f285780601f10610efd57610100808354040283529160200191610f28565b820191906000526020600020905b815481529060010190602001808311610f0b57829003601f168201915b50505050508152602001600382018054610f4190613361565b80601f0160208091040260200160405190810160405280929190818152602001828054610f6d90613361565b8015610fba5780601f10610f8f57610100808354040283529160200191610fba565b820191906000526020600020905b815481529060010190602001808311610f9d57829003601f168201915b50505050508152602001600482018054610fd390613361565b80601f0160208091040260200160405190810160405280929190818152602001828054610fff90613361565b801561104c5780601f106110215761010080835404028352916020019161104c565b820191906000526020600020905b81548152906001019060200180831161102f57829003601f168201915b5050505050815260200160058201805461106590613361565b80601f016020809104026020016040519081016040528092919081815260200182805461109190613361565b80156110de5780601f106110b3576101008083540402835291602001916110de565b820191906000526020600020905b8154815290600101906020018083116110c157829003601f168201915b505050505081526020016006820180546110f790613361565b80601f016020809104026020016040519081016040528092919081815260200182805461112390613361565b80156111705780601f1061114557610100808354040283529160200191611170565b820191906000526020600020905b81548152906001019060200180831161115357829003601f168201915b5050505050815260200160078201805461118990613361565b80601f01602080910402602001604051908101604052809291908181526020018280546111b590613361565b80156112025780601f106111d757610100808354040283529160200191611202565b820191906000526020600020905b8154815290600101906020018083116111e557829003601f168201915b5050505050815260200160088201805461121b90613361565b80601f016020809104026020016040519081016040528092919081815260200182805461124790613361565b80156112945780601f1061126957610100808354040283529160200191611294565b820191906000526020600020905b81548152906001019060200180831161127757829003601f168201915b505050505081526020016009820180546112ad90613361565b80601f01602080910402602001604051908101604052809291908181526020018280546112d990613361565b80156113265780601f106112fb57610100808354040283529160200191611326565b820191906000526020600020905b81548152906001019060200180831161130957829003601f168201915b5050509183525050600a8201546001600160a01b0316602080830191909152600b90920154604090910152908252600c83015491019060ff16600481111561137e57634e487b7160e01b600052602160045260246000fd5b600481111561139d57634e487b7160e01b600052602160045260246000fd5b8152505081526020019060010190610e51565b50505050905090565b6113c1612673565b6040805160c0810182526002546001600160a01b03908116825260035416602082015260009181016113f1612552565b815260200160008054906101000a90046001600160a01b03166001600160a01b03166306fdde036040518163ffffffff1660e01b815260040160006040518083038186803b15801561144257600080fd5b505afa158015611456573d6000803e3d6000fd5b505050506040513d6000823e601f3d908101601f1916820160405261147e9190810190612a2c565b815260200160008054906101000a90046001600160a01b03166001600160a01b03166395d89b416040518163ffffffff1660e01b815260040160006040518083038186803b1580156114cf57600080fd5b505afa1580156114e3573d6000803e3d6000fd5b505050506040513d6000823e601f3d908101601f1916820160405261150b9190810190612a2c565b815260200161151a60016125dc565b905291505090565b60045481565b60025432906001600160a01b0316811461154157600080fd5b60006005848154811061156457634e487b7160e01b600052603260045260246000fd5b60009182526020909120604080516101c081018252600d90930290910180546001600160a01b03908116928401928352600182015416606084015260028101805491928492909184916080850191906115bc90613361565b80601f01602080910402602001604051908101604052809291908181526020018280546115e890613361565b80156116355780601f1061160a57610100808354040283529160200191611635565b820191906000526020600020905b81548152906001019060200180831161161857829003601f168201915b5050505050815260200160038201805461164e90613361565b80601f016020809104026020016040519081016040528092919081815260200182805461167a90613361565b80156116c75780601f1061169c576101008083540402835291602001916116c7565b820191906000526020600020905b8154815290600101906020018083116116aa57829003601f168201915b505050505081526020016004820180546116e090613361565b80601f016020809104026020016040519081016040528092919081815260200182805461170c90613361565b80156117595780601f1061172e57610100808354040283529160200191611759565b820191906000526020600020905b81548152906001019060200180831161173c57829003601f168201915b5050505050815260200160058201805461177290613361565b80601f016020809104026020016040519081016040528092919081815260200182805461179e90613361565b80156117eb5780601f106117c0576101008083540402835291602001916117eb565b820191906000526020600020905b8154815290600101906020018083116117ce57829003601f168201915b5050505050815260200160068201805461180490613361565b80601f016020809104026020016040519081016040528092919081815260200182805461183090613361565b801561187d5780601f106118525761010080835404028352916020019161187d565b820191906000526020600020905b81548152906001019060200180831161186057829003601f168201915b5050505050815260200160078201805461189690613361565b80601f01602080910402602001604051908101604052809291908181526020018280546118c290613361565b801561190f5780601f106118e45761010080835404028352916020019161190f565b820191906000526020600020905b8154815290600101906020018083116118f257829003601f168201915b5050505050815260200160088201805461192890613361565b80601f016020809104026020016040519081016040528092919081815260200182805461195490613361565b80156119a15780601f10611976576101008083540402835291602001916119a1565b820191906000526020600020905b81548152906001019060200180831161198457829003601f168201915b505050505081526020016009820180546119ba90613361565b80601f01602080910402602001604051908101604052809291908181526020018280546119e690613361565b8015611a335780601f10611a0857610100808354040283529160200191611a33565b820191906000526020600020905b815481529060010190602001808311611a1657829003601f168201915b5050509183525050600a8201546001600160a01b0316602080830191909152600b90920154604090910152908252600c83015491019060ff166004811115611a8b57634e487b7160e01b600052602160045260246000fd5b6004811115611aaa57634e487b7160e01b600052602160045260246000fd5b9052506005805491925090611ac19060019061330e565b81548110611adf57634e487b7160e01b600052603260045260246000fd5b90600052602060002090600d020160058581548110611b0e57634e487b7160e01b600052603260045260246000fd5b600091825260209091208254600d9092020180546001600160a01b039283166001600160a01b0319918216178255600180850154908301805491909416911617909155600280830180548492849290830191611b6990613361565b611b749291906126bb565b506003820181600301908054611b8990613361565b611b949291906126bb565b506004820181600401908054611ba990613361565b611bb49291906126bb565b506005820181600501908054611bc990613361565b611bd49291906126bb565b506006820181600601908054611be990613361565b611bf49291906126bb565b506007820181600701908054611c0990613361565b611c149291906126bb565b506008820181600801908054611c2990613361565b611c349291906126bb565b506009820181600901908054611c4990613361565b611c549291906126bb565b50600a8281015490820180546001600160a01b0319166001600160a01b03909216919091179055600b91820154910155600c82810154908201805460ff9092169160ff19166001836004811115611cbb57634e487b7160e01b600052602160045260246000fd5b02179055509050506005805480611ce257634e487b7160e01b600052603160045260246000fd5b600082815260208120600d6000199093019283020180546001600160a01b031990811682556001820180549091169055908181611d226002830182612736565b611d30600383016000612736565b611d3e600483016000612736565b611d4c600583016000612736565b611d5a600683016000612736565b611d68600783016000612736565b611d76600883016000612736565b611d84600983016000612736565b50600a810180546001600160a01b03191690556000600b9091015550600c01805460ff1916905590556020810151611dbd90849061075c565b7f8b35a8f8c2dc10b4672d1a95decdf391e3ef83540f79c8233f966a7642d403d581604051611dec91906130e7565b60405180910390a150505050565b6000611e05826125dc565b905080341015611e275760405162461bcd60e51b815260040161063290613024565b6000611e33823461330e565b604051909150339082156108fc029083906000818181858888f19350505050158015611e63573d6000803e3d6000fd5b506000611e6e612552565b905080841115611e905760405162461bcd60e51b815260040161063290612f84565b60005460405163a9059cbb60e01b81526001600160a01b039091169063a9059cbb90611ec29033908890600401612e37565b602060405180830381600087803b158015611edc57600080fd5b505af1158015611ef0573d6000803e3d6000fd5b505050506040513d601f19601f82011682018060405250810190611f149190612a0c565b507fc5d46be962adb867acf29dce93ab611e9064bffee951e4db9e52c693f73f4c388433604051611dec92919061325b565b60005460405163095ea7b360e01b81526001600160a01b039091169063095ea7b390611f789085908590600401612e37565b602060405180830381600087803b158015611f9257600080fd5b505af1158015611fa6573d6000803e3d6000fd5b505050506040513d601f19601f82011682018060405250810190611fca9190612a0c565b505050565b60606005805480602002602001604051908101604052809291908181526020016000905b828210156113b057600084815260209020604080516101c081018252600d850290920180546001600160a01b039081169284019283526001820154166060840152600281018054919284929091849160808501919061205190613361565b80601f016020809104026020016040519081016040528092919081815260200182805461207d90613361565b80156120ca5780601f1061209f576101008083540402835291602001916120ca565b820191906000526020600020905b8154815290600101906020018083116120ad57829003601f168201915b505050505081526020016003820180546120e390613361565b80601f016020809104026020016040519081016040528092919081815260200182805461210f90613361565b801561215c5780601f106121315761010080835404028352916020019161215c565b820191906000526020600020905b81548152906001019060200180831161213f57829003601f168201915b5050505050815260200160048201805461217590613361565b80601f01602080910402602001604051908101604052809291908181526020018280546121a190613361565b80156121ee5780601f106121c3576101008083540402835291602001916121ee565b820191906000526020600020905b8154815290600101906020018083116121d157829003601f168201915b5050505050815260200160058201805461220790613361565b80601f016020809104026020016040519081016040528092919081815260200182805461223390613361565b80156122805780601f1061225557610100808354040283529160200191612280565b820191906000526020600020905b81548152906001019060200180831161226357829003601f168201915b5050505050815260200160068201805461229990613361565b80601f01602080910402602001604051908101604052809291908181526020018280546122c590613361565b80156123125780601f106122e757610100808354040283529160200191612312565b820191906000526020600020905b8154815290600101906020018083116122f557829003601f168201915b5050505050815260200160078201805461232b90613361565b80601f016020809104026020016040519081016040528092919081815260200182805461235790613361565b80156123a45780601f10612379576101008083540402835291602001916123a4565b820191906000526020600020905b81548152906001019060200180831161238757829003601f168201915b505050505081526020016008820180546123bd90613361565b80601f01602080910402602001604051908101604052809291908181526020018280546123e990613361565b80156124365780601f1061240b57610100808354040283529160200191612436565b820191906000526020600020905b81548152906001019060200180831161241957829003601f168201915b5050505050815260200160098201805461244f90613361565b80601f016020809104026020016040519081016040528092919081815260200182805461247b90613361565b80156124c85780601f1061249d576101008083540402835291602001916124c8565b820191906000526020600020905b8154815290600101906020018083116124ab57829003601f168201915b5050509183525050600a8201546001600160a01b0316602080830191909152600b90920154604090910152908252600c83015491019060ff16600481111561252057634e487b7160e01b600052602160045260246000fd5b600481111561253f57634e487b7160e01b600052602160045260246000fd5b8152505081526020019060010190611ff3565b600080546003546040516370a0823160e01b81526001600160a01b03928316926370a082319261258792911690600401612dff565b60206040518083038186803b15801561259f57600080fd5b505afa1580156125b3573d6000803e3d6000fd5b505050506040513d601f19601f820116820180604052508101906125d79190612b4d565b905090565b60006105458266038d7ea4c680006132ef565b8280546125fb90613361565b90600052602060002090601f01602090048101928261261d5760008555612663565b82601f1061263657805160ff1916838001178555612663565b82800160010185558215612663579182015b82811115612663578251825591602001919060010190612648565b5061266f929150612775565b5090565b6040518060c0016040528060006001600160a01b0316815260200160006001600160a01b03168152602001600081526020016060815260200160608152602001600081525090565b8280546126c790613361565b90600052602060002090601f0160209004810192826126e95760008555612663565b82601f106126fa5780548555612663565b8280016001018555821561266357600052602060002091601f016020900482015b8281111561266357825482559160010191906001019061271b565b50805461274290613361565b6000825580601f106127545750612772565b601f0160209004906000526020600020908101906127729190612775565b50565b5b8082111561266f5760008155600101612776565b80356001600160a01b03811681146104bf57600080fd5b600082601f8301126127b1578081fd5b81356127c46127bf826132bb565b613291565b8181528460208386010111156127d8578283fd5b816020850160208301379081016020019190915292915050565b6000610180808385031215612805578182fd5b61280e81613291565b91505061281a8261278a565b81526128286020830161278a565b6020820152604082013567ffffffffffffffff8082111561284857600080fd5b612854858386016127a1565b6040840152606084013591508082111561286d57600080fd5b612879858386016127a1565b6060840152608084013591508082111561289257600080fd5b61289e858386016127a1565b608084015260a08401359150808211156128b757600080fd5b6128c3858386016127a1565b60a084015260c08401359150808211156128dc57600080fd5b6128e8858386016127a1565b60c084015260e084013591508082111561290157600080fd5b61290d858386016127a1565b60e08401526101009150818401358181111561292857600080fd5b612934868287016127a1565b83850152506101209150818401358181111561294f57600080fd5b61295b868287016127a1565b8385015250505061014061297081840161278a565b818301525061016080830135818301525092915050565b600060208284031215612998578081fd5b6129a18261278a565b9392505050565b6000806000606084860312156129bc578182fd5b6129c58461278a565b92506129d36020850161278a565b9150604084013590509250925092565b600080604083850312156129f5578182fd5b6129fe8361278a565b946020939093013593505050565b600060208284031215612a1d578081fd5b815180151581146129a1578182fd5b600060208284031215612a3d578081fd5b815167ffffffffffffffff811115612a53578182fd5b8201601f81018413612a63578182fd5b8051612a716127bf826132bb565b818152856020838501011115612a85578384fd5b612a96826020830160208601613331565b95945050505050565b60008060408385031215612ab1578182fd5b823567ffffffffffffffff811115612ac7578283fd5b612ad3858286016127f2565b925050602083013560058110612ae7578182fd5b809150509250929050565b60008060408385031215612b04578182fd5b823567ffffffffffffffff811115612b1a578283fd5b612b26858286016127f2565b95602094909401359450505050565b600060208284031215612b46578081fd5b5035919050565b600060208284031215612b5e578081fd5b5051919050565b60008060408385031215612b77578182fd5b82359150602083013567ffffffffffffffff811115612b94578182fd5b612ba0858286016127f2565b9150509250929050565b6001600160a01b03169052565b60058110612bd557634e487b7160e01b600052602160045260246000fd5b9052565b60008151808452612bf1816020860160208601613331565b601f01601f19169290920160200192915050565b805460009060028104600180831680612c1f57607f831692505b6020808410821415612c3f57634e487b7160e01b86526022600452602486fd5b612c498489613252565b828015612c5d5760018114612c6e57612c99565b60ff19871682528282019750612c99565b612c77896132e3565b60005b87811015612c9357815484820152908601908401612c7a565b83019850505b5050505050505092915050565b6000815160408452612cbc604085018251612baa565b6020810151612cce6060860182612baa565b506040810151610180806080870152612ceb6101c0870183612bd9565b91506060830151603f19808885030160a0890152612d098483612bd9565b935060808501519150808885030160c0890152612d268483612bd9565b935060a08501519150808885030160e0890152612d438483612bd9565b935060c085015191506101008189860301818a0152612d628584612bd9565b945060e08601519250610120828a870301818b0152612d818685612bd9565b95508187015193506101409150828a870301828b0152612da18685612bd9565b955080870151935050610160828a870301818b0152612dc08685612bd9565b9550818701519350612dd4858b0185612baa565b808701516101a08b0152505050505060208401519150612df76020860183612bb7565b949350505050565b6001600160a01b0391909116815260200190565b6001600160a01b039384168152919092166020820152604081019190915260600190565b6001600160a01b03929092168252602082015260400190565b6000602080830181845280855180835260408601915060408482028701019250838701855b82811015612ea357603f19888603018452612e91858351612ca6565b94509285019290850190600101612e75565b5092979650505050505050565b901515815260200190565b83151581526001600160a01b038316602082015260608101612df76040830184612bb7565b6000602082526129a16020830184612bd9565b6020808252602f908201527f4e6563657369746173206465766f6c76657220756e206e756d65726f20706f7360408201526e697469766f20646520746f6b656e7360881b606082015260800190565b60208082526022908201527f5961207469656e657320756e6120736f6c696369747564207265676973747261604082015261646160f01b606082015260800190565b60208082526023908201527f436f6d70726120756e206e756d65726f20646520746f6b656e7320616465637560408201526261646f60e81b606082015260800190565b6020808252603b908201527f4e6f20707565646573206465766f6c766572206d617320746f6b656e7320646560408201527f206c6f7320717565207469656e657320646973706f6e69626c65730000000000606082015260800190565b60208082526029908201527f436f6d707261206d656e6f7320546f6b656e73206f207061676120636f6e206d60408201526861732045746865727360b81b606082015260800190565b60006020825260018060a01b038084511660208401528060208501511660408401525060408301516060830152606083015160c060808401526130b360e0840182612bd9565b90506080840151601f198483030160a08501526130d08282612bd9565b91505060a084015160c08401528091505092915050565b6000602082526129a16020830184612ca6565b6000602082526040602083015261311d606083016131188554613325565b612baa565b61312a6001840154613325565b6131376080840182612baa565b506101808060a08401526131526101e0840160028601612c05565b605f19808583030160c086015261316c8260038801612c05565b9150808583030160e08601526131858260048801612c05565b9150808583030161010086015261319f8260058801612c05565b915080858303016101208601526131b98260068801612c05565b915080858303016101408601526131d38260078801612c05565b915080858303016101608601526131ed8260088801612c05565b9150808583030183860152506132068160098701612c05565b915050613216600a850154613325565b6132246101a0850182612baa565b50600b8401546101c084015261323d600c85015461339c565b61324a6040850182612bb7565b509392505050565b90815260200190565b9182526001600160a01b0316602082015260400190565b9283526001600160a01b03918216602084015216604082015260600190565b60405181810167ffffffffffffffff811182821017156132b3576132b36133d3565b604052919050565b600067ffffffffffffffff8211156132d5576132d56133d3565b50601f01601f191660200190565b60009081526020902090565b6000816000190483118215151615613309576133096133bd565b500290565b600082821015613320576133206133bd565b500390565b6001600160a01b031690565b60005b8381101561334c578181015183820152602001613334565b8381111561335b576000848401525b50505050565b60028104600182168061337557607f821691505b6020821081141561339657634e487b7160e01b600052602260045260246000fd5b50919050565b60ff1690565b60006000198214156133b6576133b66133bd565b5060010190565b634e487b7160e01b600052601160045260246000fd5b634e487b7160e01b600052604160045260246000fdfea2646970667358221220bd5d01daad458f30263b163b8bb90b4712dc8b41b267708e4ffc83eaf84c2dcc64736f6c63430008000033608060405234801561001057600080fd5b5060405161095638038061095683398101604081905261002f91610046565b60008181553381526001602052604090205561005e565b600060208284031215610057578081fd5b5051919050565b6108e98061006d6000396000f3fe608060405234801561001057600080fd5b50600436106100b45760003560e01c8063324536eb11610071578063324536eb1461014957806370a082311461015157806395d89b4114610164578063a9059cbb1461016c578063dd62ed3e1461017f578063eee4b8d414610192576100b4565b806306fdde03146100b9578063095ea7b3146100d757806318160ddd146100f75780631d43cc981461010c57806323b872dd14610121578063313ce56714610134575b600080fd5b6100c16101a5565b6040516100ce9190610701565b60405180910390f35b6100ea6100e53660046106b5565b6101ca565b6040516100ce91906106f6565b6100ff610234565b6040516100ce9190610857565b61011f61011a3660046106de565b61023a565b005b6100ea61012f36600461067a565b610277565b61013c6103f7565b6040516100ce9190610860565b6100ff6103fc565b6100ff61015f36600461062e565b610402565b6100c1610421565b6100ea61017a3660046106b5565b610440565b6100ff61018d366004610648565b610504565b6100ea6101a036600461067a565b61052f565b6040518060400160405280600981526020016845524332305f4d564d60b81b81525081565b3260008181526002602090815260408083206001600160a01b038716808552925280832085905551919290917f8c5be1e5ebec7d5bd14f71427d1e84f3dd0314c0f7b2291e5b200ac8c7c3b92590610223908690610857565b60405180910390a350600192915050565b60005490565b8060008082825461024b919061086e565b9091555050336000908152600160205260408120805483929061026f90849061086e565b909155505050565b6001600160a01b0383166000908152600160205260408120548211156102b85760405162461bcd60e51b81526004016102af906107ca565b60405180910390fd5b6001600160a01b03841660009081526002602090815260408083203284529091529020548211156102fb5760405162461bcd60e51b81526004016102af9061077e565b6001600160a01b03841660009081526001602052604090205461031e90836105b9565b6001600160a01b038516600090815260016020908152604080832093909355600281528282203283529052205461035590836105b9565b6001600160a01b03808616600090815260026020908152604080832032845282528083209490945591861681526001909152205461039390836105ea565b6001600160a01b0380851660008181526001602052604090819020939093559151908616907fddf252ad1be2c89b69c2b068fc378daa952ba7f163c4a11628f55a4df523b3ef906103e5908690610857565b60405180910390a35060019392505050565b600281565b60005481565b6001600160a01b0381166000908152600160205260409020545b919050565b604051806040016040528060038152602001624d564d60e81b81525081565b3360009081526001602052604081205482111561046f5760405162461bcd60e51b81526004016102af90610754565b3360009081526001602052604090205461048990836105b9565b33600090815260016020526040808220929092556001600160a01b038516815220546104b590836105ea565b6001600160a01b0384166000818152600160205260409081902092909255905133907fddf252ad1be2c89b69c2b068fc378daa952ba7f163c4a11628f55a4df523b3ef90610223908690610857565b6001600160a01b03918216600090815260026020908152604080832093909416825291909152205490565b6001600160a01b0383166000908152600160205260408120548211156105675760405162461bcd60e51b81526004016102af90610801565b6001600160a01b03841660009081526001602052604090205461058a90836105b9565b6001600160a01b03808616600090815260016020526040808220939093559085168152205461039390836105ea565b6000828211156105d957634e487b7160e01b600052600160045260246000fd5b6105e38284610886565b9392505050565b6000806105f7838561086e565b9050838110156105e357634e487b7160e01b600052600160045260246000fd5b80356001600160a01b038116811461041c57600080fd5b60006020828403121561063f578081fd5b6105e382610617565b6000806040838503121561065a578081fd5b61066383610617565b915061067160208401610617565b90509250929050565b60008060006060848603121561068e578081fd5b61069784610617565b92506106a560208501610617565b9150604084013590509250925092565b600080604083850312156106c7578182fd5b6106d083610617565b946020939093013593505050565b6000602082840312156106ef578081fd5b5035919050565b901515815260200190565b6000602080835283518082850152825b8181101561072d57858101830151858201604001528201610711565b8181111561073e5783604083870101525b50601f01601f1916929092016040019392505050565b60208082526010908201526f4572726f7220656e2062616c616e636560801b604082015260600190565b6020808252602c908201527f4e6f2073652068616e2064656c656761646f206c6f7320746f6b656e7320612060408201526b3630903234b932b1b1b4b7b760a11b606082015260800190565b6020808252601c908201527f456c206f776e6572206e6f207469656e65206c6f7320746f6b656e7300000000604082015260600190565b60208082526036908201527f456c206e756d65726f20646520746f6b656e732061207472616e736665726972604082015275206573206d61796f722071756520656c2073616c646f60501b606082015260800190565b90815260200190565b60ff91909116815260200190565b600082198211156108815761088161089d565b500190565b6000828210156108985761089861089d565b500390565b634e487b7160e01b600052601160045260246000fdfea2646970667358221220b665137f9e4db2be88f29857b5961ded0163a6ada5d2f02a90939ed981ea4a4664736f6c63430008000033",
  "immutableReferences": {},
  "source": "// SPDX-License-Identifier: MIT\r\npragma solidity >=0.4.22 <0.9.0;\r\npragma experimental ABIEncoderV2;\r\nimport \"./TokenErc20/ERC20.sol\";\r\nimport \"./models/InfoContrato.sol\";\r\nimport \"./libraries/Validations.sol\";\r\n\r\ncontract ReguladorMercado {\r\n    //Token del contrato\r\n    ERC20Basic private token;\r\n    enum TiposContratos {\r\n        Cliente,\r\n        Comercializador,\r\n        Generador,\r\n        ReguladorMercado,\r\n        NullContract\r\n    }\r\n\r\n    struct SolicitudContrato {\r\n        InfoContrato infoContrato;\r\n        TiposContratos tipoContrato;\r\n    }\r\n\r\n    struct InfoRegulador {\r\n        address owner;\r\n        address dirContrato;\r\n        uint256 cantidadTokens;\r\n        string nombreToken;\r\n        string simboloToken;\r\n        uint256 valorToken;\r\n    }\r\n\r\n    string public name;\r\n    address public owner;\r\n    address public dirContrato;\r\n    uint256 public cantidadTokens = 1000000;\r\n    SolicitudContrato[] private solicitudes;\r\n    SolicitudContrato[] private registrosContratos;\r\n\r\n    event ComprandoTokens(uint256, address);\r\n    event tokensDevueltos(uint256, address);\r\n    event EnviarTokensEvent(uint256, address, address);\r\n    event SolicitudDeRegistro(SolicitudContrato);\r\n    event ContratoDiligenciado(SolicitudContrato);\r\n\r\n    constructor(string memory _name) {\r\n        name = _name;\r\n        owner = msg.sender;\r\n        dirContrato = address(this);\r\n        token = new ERC20Basic(cantidadTokens);\r\n    }\r\n\r\n    modifier authorize(address direction) {\r\n        require(direction == owner);\r\n        _;\r\n    }\r\n\r\n    function PrecioTokens(uint256 _numTokens) private pure returns (uint256) {\r\n        return _numTokens * (1e15);\r\n    }\r\n\r\n    function GenerarTokens(uint256 numTokens) public authorize(msg.sender) {\r\n        token.increaseTotalSupply(numTokens);\r\n    }\r\n\r\n    function TokensDisponibles() public view returns (uint256) {\r\n        return token.balanceOf(dirContrato);\r\n    }\r\n\r\n    function ComprarTokens(uint256 numTokens) public payable {\r\n        uint256 coste = PrecioTokens(numTokens);\r\n        //Se requiere verificar el fondo del comprador\r\n        require(\r\n            msg.value >= coste,\r\n            \"Compra menos Tokens o paga con mas Ethers\"\r\n        );\r\n        //Devolver el dinero sobrante\r\n        uint256 returnValue = msg.value - coste;\r\n        payable(msg.sender).transfer(returnValue);\r\n        //Obtener el balance de tokens del contrato\r\n        uint256 balance = TokensDisponibles();\r\n        //Filtro para evaluar los tokens disponibles\r\n        require(numTokens <= balance, \"Compra un numero de tokens adecuado\");\r\n        //Transferir tokens al comprador\r\n        token.transfer(msg.sender, numTokens);\r\n        emit ComprandoTokens(numTokens, msg.sender);\r\n    }\r\n\r\n    function IntercambiarTokens(\r\n        address _dir1,\r\n        address _dir2,\r\n        uint256 numTokens\r\n    ) public {\r\n        token.transferFrom(_dir1, _dir2, numTokens);\r\n        emit EnviarTokensEvent(numTokens, _dir1, _dir2);\r\n    }\r\n\r\n    function MisTokens(address _direction) public view returns (uint256) {\r\n        return token.balanceOf(_direction);\r\n    }\r\n\r\n    function DevolverTokens(uint256 numTokens) public {\r\n        //El numero de tokens debe de ser mayor a cero\r\n        require(\r\n            numTokens > 0,\r\n            \"Necesitas devolver un numero positivo de tokens\"\r\n        );\r\n        //EL cliente debe tener los tokens que desea devolver\r\n        require(\r\n            numTokens <= MisTokens(msg.sender),\r\n            \"No puedes devolver mas tokens de los que tienes disponibles\"\r\n        );\r\n        //1.Devolucion de tokens por parte del cliente al contrato\r\n        token.transferTwo(msg.sender, address(this), numTokens);\r\n        payable(msg.sender).transfer(PrecioTokens(numTokens));\r\n\r\n        //2.Pago de tokens devueltos en ethers\r\n        emit tokensDevueltos(numTokens, msg.sender);\r\n    }\r\n\r\n    function delegarTokens(address delegate, uint256 numTokens) public {\r\n        token.approve(delegate, numTokens);\r\n    }\r\n\r\n    function getSolicitudes() public view returns (SolicitudContrato[] memory) {\r\n        return solicitudes;\r\n    }\r\n\r\n    function getRegistros() public view returns (SolicitudContrato[] memory) {\r\n        return registrosContratos;\r\n    }\r\n\r\n    function registrarSolicitud(\r\n        InfoContrato memory _infoContrato,\r\n        uint256 _tipoContrato\r\n    ) public {\r\n        bool bandera = existeSolicitud(msg.sender);\r\n        require(!bandera, \"Ya tienes una solicitud registrada\");\r\n        solicitudes.push(\r\n            SolicitudContrato(_infoContrato, TiposContratos(_tipoContrato))\r\n        );\r\n        emit SolicitudDeRegistro(solicitudes[solicitudes.length - 1]);\r\n    }\r\n\r\n    function diligenciarSolicitud(\r\n        uint256 index,\r\n        InfoContrato memory infoContrato\r\n    ) public authorize(tx.origin) {\r\n        SolicitudContrato memory solicitud = solicitudes[index];\r\n        solicitudes[index] = solicitudes[solicitudes.length - 1];\r\n        solicitudes.pop();\r\n        setRegistroContrato(infoContrato, solicitud.tipoContrato);\r\n        emit ContratoDiligenciado(solicitud);\r\n    }\r\n\r\n    function getOwner() public view returns (address) {\r\n        return owner;\r\n    }\r\n\r\n    function existeSolicitud(address ownerSolicitud)\r\n        public\r\n        view\r\n        returns (bool)\r\n    {\r\n        if (solicitudes.length > 0) {\r\n            for (uint256 i = 0; i < solicitudes.length; i++) {\r\n                if (ownerSolicitud == solicitudes[i].infoContrato.owner) {\r\n                    return true;\r\n                }\r\n            }\r\n        }\r\n        return false;\r\n    }\r\n\r\n    function setRegistroContrato(\r\n        InfoContrato memory infoContrato,\r\n        TiposContratos tipoContrato\r\n    ) public {\r\n        registrosContratos.push(SolicitudContrato(infoContrato, tipoContrato));\r\n    }\r\n\r\n    function validarUsuario()\r\n        public\r\n        view\r\n        returns (\r\n            bool,\r\n            address,\r\n            TiposContratos\r\n        )\r\n    {\r\n        if (msg.sender == owner) {\r\n            return (true, dirContrato, TiposContratos.ReguladorMercado);\r\n        }\r\n\r\n        if (registrosContratos.length > 0) {\r\n            for (uint256 i = 0; i < registrosContratos.length; i++) {\r\n                if (msg.sender == registrosContratos[i].infoContrato.owner) {\r\n                    return (\r\n                        true,\r\n                        registrosContratos[i].infoContrato.dirContrato,\r\n                        registrosContratos[i].tipoContrato\r\n                    );\r\n                }\r\n            }\r\n        }\r\n        address nullAddress = 0x0000000000000000000000000000000000000000;\r\n        return (false, nullAddress, TiposContratos.NullContract);\r\n    }\r\n\r\n    function getIndexSolicitudes(address dir) public view returns (uint256) {\r\n        for (uint256 i = 0; i < solicitudes.length; i++) {\r\n            if (dir == solicitudes[i].infoContrato.owner) {\r\n                return i;\r\n            }\r\n        }\r\n        return 0;\r\n    }\r\n\r\n    function getInfoRegulador() public view returns (InfoRegulador memory) {\r\n        InfoRegulador memory tempRegulador = InfoRegulador(\r\n            owner,\r\n            dirContrato,\r\n            TokensDisponibles(),\r\n            token.name(),\r\n            token.symbol(),\r\n            PrecioTokens(1)\r\n        );\r\n        return tempRegulador;\r\n    }\r\n}\r\n",
  "sourcePath": "D:\\Santiago\\BlockChain\\DemoMvmTruffle\\contracts\\ReguladorMercado.sol",
  "compiler": {
    "name": "solc",
    "version": "0.8.0+commit.c7dfd78e.Emscripten.clang"
  },
  "schemaVersion": "3.4.4",
  "updatedAt": "2022-07-13T16:19:31.260Z",
  "networkType": "ethereum",
  "devdoc": {
    "kind": "dev",
    "methods": {},
    "version": 1
  },
  "userdoc": {
    "kind": "user",
    "methods": {},
    "version": 1
  }
}