{
  "contractName": "ReguladorMercado",
  "abi": [
    {
      "inputs": [
        {
          "internalType": "string",
          "name": "_name",
          "type": "string"
        }
      ],
      "stateMutability": "nonpayable",
      "type": "constructor"
    },
    {
      "anonymous": false,
      "inputs": [
        {
          "indexed": false,
          "internalType": "uint256",
          "name": "",
          "type": "uint256"
        },
        {
          "indexed": false,
          "internalType": "address",
          "name": "",
          "type": "address"
        }
      ],
      "name": "ComprandoTokens",
      "type": "event"
    },
    {
      "anonymous": false,
      "inputs": [
        {
          "components": [
            {
              "components": [
                {
                  "internalType": "address",
                  "name": "dirContrato",
                  "type": "address"
                },
                {
                  "internalType": "address",
                  "name": "owner",
                  "type": "address"
                },
                {
                  "internalType": "string",
                  "name": "nit",
                  "type": "string"
                },
                {
                  "internalType": "string",
                  "name": "empresa",
                  "type": "string"
                },
                {
                  "internalType": "string",
                  "name": "contacto",
                  "type": "string"
                },
                {
                  "internalType": "string",
                  "name": "telefono",
                  "type": "string"
                },
                {
                  "internalType": "string",
                  "name": "correo",
                  "type": "string"
                },
                {
                  "internalType": "string",
                  "name": "departamento",
                  "type": "string"
                },
                {
                  "internalType": "string",
                  "name": "ciudad",
                  "type": "string"
                },
                {
                  "internalType": "string",
                  "name": "direccion",
                  "type": "string"
                },
                {
                  "internalType": "address",
                  "name": "comercializador",
                  "type": "address"
                },
                {
                  "internalType": "uint256",
                  "name": "tipoComercio",
                  "type": "uint256"
                }
              ],
              "internalType": "struct InfoContrato",
              "name": "infoContrato",
              "type": "tuple"
            },
            {
              "internalType": "enum TiposContratos",
              "name": "tipoContrato",
              "type": "uint8"
            }
          ],
          "indexed": false,
          "internalType": "struct SolicitudContrato",
          "name": "",
          "type": "tuple"
        }
      ],
      "name": "ContratoDiligenciado",
      "type": "event"
    },
    {
      "anonymous": false,
      "inputs": [
        {
          "indexed": false,
          "internalType": "uint256",
          "name": "",
          "type": "uint256"
        },
        {
          "indexed": false,
          "internalType": "address",
          "name": "",
          "type": "address"
        },
        {
          "indexed": false,
          "internalType": "address",
          "name": "",
          "type": "address"
        }
      ],
      "name": "EnviarTokensEvent",
      "type": "event"
    },
    {
      "anonymous": false,
      "inputs": [
        {
          "components": [
            {
              "components": [
                {
                  "internalType": "address",
                  "name": "dirContrato",
                  "type": "address"
                },
                {
                  "internalType": "address",
                  "name": "owner",
                  "type": "address"
                },
                {
                  "internalType": "string",
                  "name": "nit",
                  "type": "string"
                },
                {
                  "internalType": "string",
                  "name": "empresa",
                  "type": "string"
                },
                {
                  "internalType": "string",
                  "name": "contacto",
                  "type": "string"
                },
                {
                  "internalType": "string",
                  "name": "telefono",
                  "type": "string"
                },
                {
                  "internalType": "string",
                  "name": "correo",
                  "type": "string"
                },
                {
                  "internalType": "string",
                  "name": "departamento",
                  "type": "string"
                },
                {
                  "internalType": "string",
                  "name": "ciudad",
                  "type": "string"
                },
                {
                  "internalType": "string",
                  "name": "direccion",
                  "type": "string"
                },
                {
                  "internalType": "address",
                  "name": "comercializador",
                  "type": "address"
                },
                {
                  "internalType": "uint256",
                  "name": "tipoComercio",
                  "type": "uint256"
                }
              ],
              "internalType": "struct InfoContrato",
              "name": "infoContrato",
              "type": "tuple"
            },
            {
              "internalType": "enum TiposContratos",
              "name": "tipoContrato",
              "type": "uint8"
            }
          ],
          "indexed": false,
          "internalType": "struct SolicitudContrato",
          "name": "",
          "type": "tuple"
        }
      ],
      "name": "SolicitudDeRegistro",
      "type": "event"
    },
    {
      "anonymous": false,
      "inputs": [
        {
          "indexed": false,
          "internalType": "uint256",
          "name": "",
          "type": "uint256"
        },
        {
          "indexed": false,
          "internalType": "address",
          "name": "",
          "type": "address"
        }
      ],
      "name": "tokensDevueltos",
      "type": "event"
    },
    {
      "inputs": [],
      "name": "cantidadTokens",
      "outputs": [
        {
          "internalType": "uint256",
          "name": "",
          "type": "uint256"
        }
      ],
      "stateMutability": "view",
      "type": "function",
      "constant": true
    },
    {
      "inputs": [],
      "name": "dirContrato",
      "outputs": [
        {
          "internalType": "address",
          "name": "",
          "type": "address"
        }
      ],
      "stateMutability": "view",
      "type": "function",
      "constant": true
    },
    {
      "inputs": [],
      "name": "name",
      "outputs": [
        {
          "internalType": "string",
          "name": "",
          "type": "string"
        }
      ],
      "stateMutability": "view",
      "type": "function",
      "constant": true
    },
    {
      "inputs": [],
      "name": "owner",
      "outputs": [
        {
          "internalType": "address",
          "name": "",
          "type": "address"
        }
      ],
      "stateMutability": "view",
      "type": "function",
      "constant": true
    },
    {
      "inputs": [
        {
          "internalType": "uint256",
          "name": "numTokens",
          "type": "uint256"
        }
      ],
      "name": "GenerarTokens",
      "outputs": [],
      "stateMutability": "nonpayable",
      "type": "function"
    },
    {
      "inputs": [],
      "name": "TokensDisponibles",
      "outputs": [
        {
          "internalType": "uint256",
          "name": "",
          "type": "uint256"
        }
      ],
      "stateMutability": "view",
      "type": "function",
      "constant": true
    },
    {
      "inputs": [
        {
          "internalType": "uint256",
          "name": "numTokens",
          "type": "uint256"
        }
      ],
      "name": "ComprarTokens",
      "outputs": [],
      "stateMutability": "payable",
      "type": "function",
      "payable": true
    },
    {
      "inputs": [
        {
          "internalType": "address",
          "name": "_dir1",
          "type": "address"
        },
        {
          "internalType": "address",
          "name": "_dir2",
          "type": "address"
        },
        {
          "internalType": "uint256",
          "name": "numTokens",
          "type": "uint256"
        }
      ],
      "name": "IntercambiarTokens",
      "outputs": [],
      "stateMutability": "nonpayable",
      "type": "function"
    },
    {
      "inputs": [
        {
          "internalType": "address",
          "name": "_direction",
          "type": "address"
        }
      ],
      "name": "MisTokens",
      "outputs": [
        {
          "internalType": "uint256",
          "name": "",
          "type": "uint256"
        }
      ],
      "stateMutability": "view",
      "type": "function",
      "constant": true
    },
    {
      "inputs": [
        {
          "internalType": "uint256",
          "name": "numTokens",
          "type": "uint256"
        }
      ],
      "name": "DevolverTokens",
      "outputs": [],
      "stateMutability": "nonpayable",
      "type": "function"
    },
    {
      "inputs": [
        {
          "internalType": "address",
          "name": "delegate",
          "type": "address"
        },
        {
          "internalType": "uint256",
          "name": "numTokens",
          "type": "uint256"
        }
      ],
      "name": "delegarTokens",
      "outputs": [],
      "stateMutability": "nonpayable",
      "type": "function"
    },
    {
      "inputs": [
        {
          "internalType": "address",
          "name": "delegate",
          "type": "address"
        }
      ],
      "name": "getTokensDelegados",
      "outputs": [
        {
          "internalType": "uint256",
          "name": "",
          "type": "uint256"
        }
      ],
      "stateMutability": "view",
      "type": "function",
      "constant": true
    },
    {
      "inputs": [],
      "name": "getSolicitudes",
      "outputs": [
        {
          "components": [
            {
              "components": [
                {
                  "internalType": "address",
                  "name": "dirContrato",
                  "type": "address"
                },
                {
                  "internalType": "address",
                  "name": "owner",
                  "type": "address"
                },
                {
                  "internalType": "string",
                  "name": "nit",
                  "type": "string"
                },
                {
                  "internalType": "string",
                  "name": "empresa",
                  "type": "string"
                },
                {
                  "internalType": "string",
                  "name": "contacto",
                  "type": "string"
                },
                {
                  "internalType": "string",
                  "name": "telefono",
                  "type": "string"
                },
                {
                  "internalType": "string",
                  "name": "correo",
                  "type": "string"
                },
                {
                  "internalType": "string",
                  "name": "departamento",
                  "type": "string"
                },
                {
                  "internalType": "string",
                  "name": "ciudad",
                  "type": "string"
                },
                {
                  "internalType": "string",
                  "name": "direccion",
                  "type": "string"
                },
                {
                  "internalType": "address",
                  "name": "comercializador",
                  "type": "address"
                },
                {
                  "internalType": "uint256",
                  "name": "tipoComercio",
                  "type": "uint256"
                }
              ],
              "internalType": "struct InfoContrato",
              "name": "infoContrato",
              "type": "tuple"
            },
            {
              "internalType": "enum TiposContratos",
              "name": "tipoContrato",
              "type": "uint8"
            }
          ],
          "internalType": "struct SolicitudContrato[]",
          "name": "",
          "type": "tuple[]"
        }
      ],
      "stateMutability": "view",
      "type": "function",
      "constant": true
    },
    {
      "inputs": [],
      "name": "getRegistros",
      "outputs": [
        {
          "components": [
            {
              "components": [
                {
                  "internalType": "address",
                  "name": "dirContrato",
                  "type": "address"
                },
                {
                  "internalType": "address",
                  "name": "owner",
                  "type": "address"
                },
                {
                  "internalType": "string",
                  "name": "nit",
                  "type": "string"
                },
                {
                  "internalType": "string",
                  "name": "empresa",
                  "type": "string"
                },
                {
                  "internalType": "string",
                  "name": "contacto",
                  "type": "string"
                },
                {
                  "internalType": "string",
                  "name": "telefono",
                  "type": "string"
                },
                {
                  "internalType": "string",
                  "name": "correo",
                  "type": "string"
                },
                {
                  "internalType": "string",
                  "name": "departamento",
                  "type": "string"
                },
                {
                  "internalType": "string",
                  "name": "ciudad",
                  "type": "string"
                },
                {
                  "internalType": "string",
                  "name": "direccion",
                  "type": "string"
                },
                {
                  "internalType": "address",
                  "name": "comercializador",
                  "type": "address"
                },
                {
                  "internalType": "uint256",
                  "name": "tipoComercio",
                  "type": "uint256"
                }
              ],
              "internalType": "struct InfoContrato",
              "name": "infoContrato",
              "type": "tuple"
            },
            {
              "internalType": "enum TiposContratos",
              "name": "tipoContrato",
              "type": "uint8"
            }
          ],
          "internalType": "struct SolicitudContrato[]",
          "name": "",
          "type": "tuple[]"
        }
      ],
      "stateMutability": "view",
      "type": "function",
      "constant": true
    },
    {
      "inputs": [
        {
          "components": [
            {
              "internalType": "address",
              "name": "dirContrato",
              "type": "address"
            },
            {
              "internalType": "address",
              "name": "owner",
              "type": "address"
            },
            {
              "internalType": "string",
              "name": "nit",
              "type": "string"
            },
            {
              "internalType": "string",
              "name": "empresa",
              "type": "string"
            },
            {
              "internalType": "string",
              "name": "contacto",
              "type": "string"
            },
            {
              "internalType": "string",
              "name": "telefono",
              "type": "string"
            },
            {
              "internalType": "string",
              "name": "correo",
              "type": "string"
            },
            {
              "internalType": "string",
              "name": "departamento",
              "type": "string"
            },
            {
              "internalType": "string",
              "name": "ciudad",
              "type": "string"
            },
            {
              "internalType": "string",
              "name": "direccion",
              "type": "string"
            },
            {
              "internalType": "address",
              "name": "comercializador",
              "type": "address"
            },
            {
              "internalType": "uint256",
              "name": "tipoComercio",
              "type": "uint256"
            }
          ],
          "internalType": "struct InfoContrato",
          "name": "_infoContrato",
          "type": "tuple"
        },
        {
          "internalType": "uint256",
          "name": "_tipoContrato",
          "type": "uint256"
        }
      ],
      "name": "registrarSolicitud",
      "outputs": [],
      "stateMutability": "nonpayable",
      "type": "function"
    },
    {
      "inputs": [
        {
          "internalType": "uint256",
          "name": "index",
          "type": "uint256"
        },
        {
          "components": [
            {
              "internalType": "address",
              "name": "dirContrato",
              "type": "address"
            },
            {
              "internalType": "address",
              "name": "owner",
              "type": "address"
            },
            {
              "internalType": "string",
              "name": "nit",
              "type": "string"
            },
            {
              "internalType": "string",
              "name": "empresa",
              "type": "string"
            },
            {
              "internalType": "string",
              "name": "contacto",
              "type": "string"
            },
            {
              "internalType": "string",
              "name": "telefono",
              "type": "string"
            },
            {
              "internalType": "string",
              "name": "correo",
              "type": "string"
            },
            {
              "internalType": "string",
              "name": "departamento",
              "type": "string"
            },
            {
              "internalType": "string",
              "name": "ciudad",
              "type": "string"
            },
            {
              "internalType": "string",
              "name": "direccion",
              "type": "string"
            },
            {
              "internalType": "address",
              "name": "comercializador",
              "type": "address"
            },
            {
              "internalType": "uint256",
              "name": "tipoComercio",
              "type": "uint256"
            }
          ],
          "internalType": "struct InfoContrato",
          "name": "infoContrato",
          "type": "tuple"
        }
      ],
      "name": "diligenciarSolicitud",
      "outputs": [],
      "stateMutability": "nonpayable",
      "type": "function"
    },
    {
      "inputs": [],
      "name": "getOwner",
      "outputs": [
        {
          "internalType": "address",
          "name": "",
          "type": "address"
        }
      ],
      "stateMutability": "view",
      "type": "function",
      "constant": true
    },
    {
      "inputs": [
        {
          "internalType": "address",
          "name": "ownerSolicitud",
          "type": "address"
        }
      ],
      "name": "existeSolicitud",
      "outputs": [
        {
          "internalType": "bool",
          "name": "",
          "type": "bool"
        }
      ],
      "stateMutability": "view",
      "type": "function",
      "constant": true
    },
    {
      "inputs": [
        {
          "components": [
            {
              "internalType": "address",
              "name": "dirContrato",
              "type": "address"
            },
            {
              "internalType": "address",
              "name": "owner",
              "type": "address"
            },
            {
              "internalType": "string",
              "name": "nit",
              "type": "string"
            },
            {
              "internalType": "string",
              "name": "empresa",
              "type": "string"
            },
            {
              "internalType": "string",
              "name": "contacto",
              "type": "string"
            },
            {
              "internalType": "string",
              "name": "telefono",
              "type": "string"
            },
            {
              "internalType": "string",
              "name": "correo",
              "type": "string"
            },
            {
              "internalType": "string",
              "name": "departamento",
              "type": "string"
            },
            {
              "internalType": "string",
              "name": "ciudad",
              "type": "string"
            },
            {
              "internalType": "string",
              "name": "direccion",
              "type": "string"
            },
            {
              "internalType": "address",
              "name": "comercializador",
              "type": "address"
            },
            {
              "internalType": "uint256",
              "name": "tipoComercio",
              "type": "uint256"
            }
          ],
          "internalType": "struct InfoContrato",
          "name": "infoContrato",
          "type": "tuple"
        },
        {
          "internalType": "enum TiposContratos",
          "name": "tipoContrato",
          "type": "uint8"
        }
      ],
      "name": "setRegistroContrato",
      "outputs": [],
      "stateMutability": "nonpayable",
      "type": "function"
    },
    {
      "inputs": [],
      "name": "validarUsuario",
      "outputs": [
        {
          "internalType": "bool",
          "name": "",
          "type": "bool"
        },
        {
          "internalType": "address",
          "name": "",
          "type": "address"
        },
        {
          "internalType": "enum TiposContratos",
          "name": "",
          "type": "uint8"
        }
      ],
      "stateMutability": "view",
      "type": "function",
      "constant": true
    },
    {
      "inputs": [
        {
          "internalType": "address",
          "name": "dir",
          "type": "address"
        }
      ],
      "name": "getIndexSolicitudes",
      "outputs": [
        {
          "internalType": "uint256",
          "name": "",
          "type": "uint256"
        }
      ],
      "stateMutability": "view",
      "type": "function",
      "constant": true
    },
    {
      "inputs": [],
      "name": "getInfoRegulador",
      "outputs": [
        {
          "components": [
            {
              "internalType": "address",
              "name": "owner",
              "type": "address"
            },
            {
              "internalType": "address",
              "name": "dirContrato",
              "type": "address"
            },
            {
              "internalType": "uint256",
              "name": "cantidadTokens",
              "type": "uint256"
            },
            {
              "internalType": "string",
              "name": "nombreToken",
              "type": "string"
            },
            {
              "internalType": "string",
              "name": "simboloToken",
              "type": "string"
            },
            {
              "internalType": "uint256",
              "name": "valorToken",
              "type": "uint256"
            }
          ],
          "internalType": "struct InfoRegulador",
          "name": "",
          "type": "tuple"
        }
      ],
      "stateMutability": "view",
      "type": "function",
      "constant": true
    }
  ],
  "bytecode": "0x6080604052620f42406004553480156200001857600080fd5b50604051620041ff380380620041ff8339810160408190526200003b9162000187565b805162000050906001906020840190620000d3565b50600280546001600160a01b031990811633179091556003805490911630179055600454604051620000829062000162565b6200008e919062000256565b604051809103906000f080158015620000ab573d6000803e3d6000fd5b50600080546001600160a01b0319166001600160a01b039290921691909117905550620002b2565b828054620000e1906200025f565b90600052602060002090601f01602090048101928262000105576000855562000150565b82601f106200012057805160ff191683800117855562000150565b8280016001018555821562000150579182015b828111156200015057825182559160200191906001019062000133565b506200015e92915062000170565b5090565b61094180620038be83390190565b5b808211156200015e576000815560010162000171565b600060208083850312156200019a578182fd5b82516001600160401b0380821115620001b1578384fd5b818501915085601f830112620001c5578384fd5b815181811115620001da57620001da6200029c565b604051601f8201601f19168101850183811182821017156200020057620002006200029c565b604052818152838201850188101562000217578586fd5b8592505b818310156200023a57838301850151818401860152918401916200021b565b818311156200024b57858583830101525b979650505050505050565b90815260200190565b6002810460018216806200027457607f821691505b602082108114156200029657634e487b7160e01b600052602260045260246000fd5b50919050565b634e487b7160e01b600052604160045260246000fd5b6135fc80620002c26000396000f3fe6080604052600436106101055760003560e01c806306fdde031461010a5780630d098a3b146101355780630e03c03b1461016257806313e8a250146101825780631890154c146101a457806325a977cf146101c457806340fd3f39146101e4578063603052ab1461021157806370f4a4df146102315780637c1b38bf146102515780637d3ecc6914610271578063856788df14610295578063893d20e8146102b75780638da5cb5b146102cc578063a28fe68c146102e1578063a499a46514610303578063ab9e41b414610325578063b2222c921461033a578063d1931ccf1461035a578063dc0b0ee41461036d578063e7f3979f1461038d578063fd889ff5146103a2575b600080fd5b34801561011657600080fd5b5061011f6103b7565b60405161012c91906130b0565b60405180910390f35b34801561014157600080fd5b50610155610150366004612949565b610445565b60405161012c919061341b565b34801561016e57600080fd5b5061015561017d366004612949565b6104bf565b34801561018e57600080fd5b506101a261019d36600461296c565b610546565b005b3480156101b057600080fd5b506101a26101bf366004612b3d565b61060d565b3480156101d057600080fd5b506101a26101df366004612aac565b610757565b3480156101f057600080fd5b506102046101ff366004612949565b610933565b60405161012c9190613080565b34801561021d57600080fd5b5061015561022c366004612949565b6109b7565b34801561023d57600080fd5b506101a261024c366004612afb565b6109ea565b34801561025d57600080fd5b506101a261026c366004612b3d565b610c77565b34801561027d57600080fd5b50610286610cf6565b60405161012c9392919061308b565b3480156102a157600080fd5b506102aa610dbf565b60405161012c9190612e04565b3480156102c357600080fd5b506102aa610dce565b3480156102d857600080fd5b506102aa610ddd565b3480156102ed57600080fd5b506102f6610dec565b60405161012c9190613020565b34801561030f57600080fd5b50610318611378565b60405161012c919061323b565b34801561033157600080fd5b506101556114e1565b34801561034657600080fd5b506101a2610355366004612b6d565b6114e7565b6101a2610368366004612b3d565b611db9565b34801561037957600080fd5b506101a26103883660046129ac565b611f05565b34801561039957600080fd5b506102f6611f8e565b3480156103ae57600080fd5b50610155612511565b600180546103c49061351c565b80601f01602080910402602001604051908101604052809291908181526020018280546103f09061351c565b801561043d5780601f106104125761010080835404028352916020019161043d565b820191906000526020600020905b81548152906001019060200180831161042057829003601f168201915b505050505081565b6000805b6005548110156104b4576005818154811061047457634e487b7160e01b600052603260045260246000fd5b600091825260209091206001600d9092020101546001600160a01b03848116911614156104a25790506104ba565b806104ac8161355d565b915050610449565b50600090505b919050565b600080546040516370a0823160e01b81526001600160a01b03909116906370a08231906104f0908590600401612e04565b60206040518083038186803b15801561050857600080fd5b505afa15801561051c573d6000803e3d6000fd5b505050506040513d601f19601f820116820180604052508101906105409190612b55565b92915050565b6000546040516323b872dd60e01b81526001600160a01b03909116906323b872dd9061057a90869086908690600401612e32565b602060405180830381600087803b15801561059457600080fd5b505af11580156105a8573d6000803e3d6000fd5b505050506040513d601f19601f820116820180604052508101906105cc91906129d7565b507f2438343549d9535d8f8ff03f9ebc22e59fd8d234198ede2a2af0cae7c2dfa85d8184846040516106009392919061343b565b60405180910390a1505050565b600081116106365760405162461bcd60e51b815260040161062d906130c3565b60405180910390fd5b61063f336104bf565b81111561065e5760405162461bcd60e51b815260040161062d90613197565b600054604051633bb92e3560e21b81526001600160a01b039091169063eee4b8d49061069290339030908690600401612e32565b602060405180830381600087803b1580156106ac57600080fd5b505af11580156106c0573d6000803e3d6000fd5b505050506040513d601f19601f820116820180604052508101906106e491906129d7565b50336108fc6106f28361259b565b6040518115909202916000818181858888f1935050505015801561071a573d6000803e3d6000fd5b507fa997a52566b1f8380f086c733e70d49a141eafece6addc432a411a73ec45c688813360405161074c929190613424565b60405180910390a150565b6006604051806040016040528084815260200183600481111561078a57634e487b7160e01b600052602160045260246000fd5b9052815460018181018455600093845260209384902083518051600d90940290910180546001600160a01b039485166001600160a01b031991821617825582870151938201805494909516931692909217909255604082015180519394919384926107fc9260028501929101906125ae565b50606082015180516108189160038401916020909101906125ae565b50608082015180516108349160048401916020909101906125ae565b5060a082015180516108509160058401916020909101906125ae565b5060c0820151805161086c9160068401916020909101906125ae565b5060e082015180516108889160078401916020909101906125ae565b5061010082015180516108a59160088401916020909101906125ae565b5061012082015180516108c29160098401916020909101906125ae565b50610140820151600a820180546001600160a01b0319166001600160a01b0390921691909117905561016090910151600b909101556020820151600c8201805460ff1916600183600481111561092857634e487b7160e01b600052602160045260246000fd5b021790555050505050565b600554600090156109af5760005b6005548110156104b4576005818154811061096c57634e487b7160e01b600052603260045260246000fd5b600091825260209091206001600d9092020101546001600160a01b038481169116141561099d5760019150506104ba565b806109a78161355d565b915050610941565b506000919050565b60008054604051636eb1769f60e11b81526001600160a01b039091169063dd62ed3e906104f09033908690600401612e18565b60006109f533610933565b90508015610a155760405162461bcd60e51b815260040161062d90613112565b60056040518060400160405280858152602001846004811115610a4857634e487b7160e01b600052602160045260246000fd5b6004811115610a6757634e487b7160e01b600052602160045260246000fd5b9052815460018181018455600093845260209384902083518051600d90940290910180546001600160a01b039485166001600160a01b03199182161782558287015193820180549490951693169290921790925560408201518051939491938492610ad99260028501929101906125ae565b5060608201518051610af59160038401916020909101906125ae565b5060808201518051610b119160048401916020909101906125ae565b5060a08201518051610b2d9160058401916020909101906125ae565b5060c08201518051610b499160068401916020909101906125ae565b5060e08201518051610b659160078401916020909101906125ae565b506101008201518051610b829160088401916020909101906125ae565b506101208201518051610b9f9160098401916020909101906125ae565b50610140820151600a820180546001600160a01b0319166001600160a01b0390921691909117905561016090910151600b909101556020820151600c8201805460ff19166001836004811115610c0557634e487b7160e01b600052602160045260246000fd5b021790555050600580547fcebcb95b72d4f2d7173b83fa812efaa148952f3604350b50c7c1120da3f1ad1c9250610c3e906001906134c9565b81548110610c5c57634e487b7160e01b600052603260045260246000fd5b90600052602060002090600d020160405161060091906132c8565b60025433906001600160a01b03168114610c9057600080fd5b6000546040516303a8799360e31b81526001600160a01b0390911690631d43cc9890610cc090859060040161341b565b600060405180830381600087803b158015610cda57600080fd5b505af1158015610cee573d6000803e3d6000fd5b505050505050565b600254600090819081906001600160a01b0316331415610d2957505060038054600192506001600160a01b031690610dba565b604051631401502560e01b815273__Validations___________________________90631401502590610d63903390600690600401612e56565b60606040518083038186803b158015610d7b57600080fd5b505af4158015610d8f573d6000803e3d6000fd5b505050506040513d601f19601f82011682018060405250810190610db391906129f1565b9250925092505b909192565b6003546001600160a01b031681565b6002546001600160a01b031690565b6002546001600160a01b031681565b60606006805480602002602001604051908101604052809291908181526020016000905b8282101561136f57600084815260209020604080516101c081018252600d850290920180546001600160a01b0390811692840192835260018201541660608401526002810180549192849290918491608085019190610e6e9061351c565b80601f0160208091040260200160405190810160405280929190818152602001828054610e9a9061351c565b8015610ee75780601f10610ebc57610100808354040283529160200191610ee7565b820191906000526020600020905b815481529060010190602001808311610eca57829003601f168201915b50505050508152602001600382018054610f009061351c565b80601f0160208091040260200160405190810160405280929190818152602001828054610f2c9061351c565b8015610f795780601f10610f4e57610100808354040283529160200191610f79565b820191906000526020600020905b815481529060010190602001808311610f5c57829003601f168201915b50505050508152602001600482018054610f929061351c565b80601f0160208091040260200160405190810160405280929190818152602001828054610fbe9061351c565b801561100b5780601f10610fe05761010080835404028352916020019161100b565b820191906000526020600020905b815481529060010190602001808311610fee57829003601f168201915b505050505081526020016005820180546110249061351c565b80601f01602080910402602001604051908101604052809291908181526020018280546110509061351c565b801561109d5780601f106110725761010080835404028352916020019161109d565b820191906000526020600020905b81548152906001019060200180831161108057829003601f168201915b505050505081526020016006820180546110b69061351c565b80601f01602080910402602001604051908101604052809291908181526020018280546110e29061351c565b801561112f5780601f106111045761010080835404028352916020019161112f565b820191906000526020600020905b81548152906001019060200180831161111257829003601f168201915b505050505081526020016007820180546111489061351c565b80601f01602080910402602001604051908101604052809291908181526020018280546111749061351c565b80156111c15780601f10611196576101008083540402835291602001916111c1565b820191906000526020600020905b8154815290600101906020018083116111a457829003601f168201915b505050505081526020016008820180546111da9061351c565b80601f01602080910402602001604051908101604052809291908181526020018280546112069061351c565b80156112535780601f1061122857610100808354040283529160200191611253565b820191906000526020600020905b81548152906001019060200180831161123657829003601f168201915b5050505050815260200160098201805461126c9061351c565b80601f01602080910402602001604051908101604052809291908181526020018280546112989061351c565b80156112e55780601f106112ba576101008083540402835291602001916112e5565b820191906000526020600020905b8154815290600101906020018083116112c857829003601f168201915b5050509183525050600a8201546001600160a01b0316602080830191909152600b90920154604090910152908252600c83015491019060ff16600481111561133d57634e487b7160e01b600052602160045260246000fd5b600481111561135c57634e487b7160e01b600052602160045260246000fd5b8152505081526020019060010190610e10565b50505050905090565b611380612632565b6040805160c0810182526002546001600160a01b03908116825260035416602082015260009181016113b0612511565b815260200160008054906101000a90046001600160a01b03166001600160a01b03166306fdde036040518163ffffffff1660e01b815260040160006040518083038186803b15801561140157600080fd5b505afa158015611415573d6000803e3d6000fd5b505050506040513d6000823e601f3d908101601f1916820160405261143d9190810190612a3a565b815260200160008054906101000a90046001600160a01b03166001600160a01b03166395d89b416040518163ffffffff1660e01b815260040160006040518083038186803b15801561148e57600080fd5b505afa1580156114a2573d6000803e3d6000fd5b505050506040513d6000823e601f3d908101601f191682016040526114ca9190810190612a3a565b81526020016114d9600161259b565b905291505090565b60045481565b60025432906001600160a01b0316811461150057600080fd5b60006005848154811061152357634e487b7160e01b600052603260045260246000fd5b60009182526020909120604080516101c081018252600d90930290910180546001600160a01b039081169284019283526001820154166060840152600281018054919284929091849160808501919061157b9061351c565b80601f01602080910402602001604051908101604052809291908181526020018280546115a79061351c565b80156115f45780601f106115c9576101008083540402835291602001916115f4565b820191906000526020600020905b8154815290600101906020018083116115d757829003601f168201915b5050505050815260200160038201805461160d9061351c565b80601f01602080910402602001604051908101604052809291908181526020018280546116399061351c565b80156116865780601f1061165b57610100808354040283529160200191611686565b820191906000526020600020905b81548152906001019060200180831161166957829003601f168201915b5050505050815260200160048201805461169f9061351c565b80601f01602080910402602001604051908101604052809291908181526020018280546116cb9061351c565b80156117185780601f106116ed57610100808354040283529160200191611718565b820191906000526020600020905b8154815290600101906020018083116116fb57829003601f168201915b505050505081526020016005820180546117319061351c565b80601f016020809104026020016040519081016040528092919081815260200182805461175d9061351c565b80156117aa5780601f1061177f576101008083540402835291602001916117aa565b820191906000526020600020905b81548152906001019060200180831161178d57829003601f168201915b505050505081526020016006820180546117c39061351c565b80601f01602080910402602001604051908101604052809291908181526020018280546117ef9061351c565b801561183c5780601f106118115761010080835404028352916020019161183c565b820191906000526020600020905b81548152906001019060200180831161181f57829003601f168201915b505050505081526020016007820180546118559061351c565b80601f01602080910402602001604051908101604052809291908181526020018280546118819061351c565b80156118ce5780601f106118a3576101008083540402835291602001916118ce565b820191906000526020600020905b8154815290600101906020018083116118b157829003601f168201915b505050505081526020016008820180546118e79061351c565b80601f01602080910402602001604051908101604052809291908181526020018280546119139061351c565b80156119605780601f1061193557610100808354040283529160200191611960565b820191906000526020600020905b81548152906001019060200180831161194357829003601f168201915b505050505081526020016009820180546119799061351c565b80601f01602080910402602001604051908101604052809291908181526020018280546119a59061351c565b80156119f25780601f106119c7576101008083540402835291602001916119f2565b820191906000526020600020905b8154815290600101906020018083116119d557829003601f168201915b5050509183525050600a8201546001600160a01b0316602080830191909152600b90920154604090910152908252600c83015491019060ff166004811115611a4a57634e487b7160e01b600052602160045260246000fd5b6004811115611a6957634e487b7160e01b600052602160045260246000fd5b9052506005805491925090611a80906001906134c9565b81548110611a9e57634e487b7160e01b600052603260045260246000fd5b90600052602060002090600d020160058581548110611acd57634e487b7160e01b600052603260045260246000fd5b600091825260209091208254600d9092020180546001600160a01b039283166001600160a01b0319918216178255600180850154908301805491909416911617909155600280830180548492849290830191611b289061351c565b611b3392919061267a565b506003820181600301908054611b489061351c565b611b5392919061267a565b506004820181600401908054611b689061351c565b611b7392919061267a565b506005820181600501908054611b889061351c565b611b9392919061267a565b506006820181600601908054611ba89061351c565b611bb392919061267a565b506007820181600701908054611bc89061351c565b611bd392919061267a565b506008820181600801908054611be89061351c565b611bf392919061267a565b506009820181600901908054611c089061351c565b611c1392919061267a565b50600a8281015490820180546001600160a01b0319166001600160a01b03909216919091179055600b91820154910155600c82810154908201805460ff9092169160ff19166001836004811115611c7a57634e487b7160e01b600052602160045260246000fd5b02179055509050506005805480611ca157634e487b7160e01b600052603160045260246000fd5b600082815260208120600d6000199093019283020180546001600160a01b031990811682556001820180549091169055908181611ce160028301826126f5565b611cef6003830160006126f5565b611cfd6004830160006126f5565b611d0b6005830160006126f5565b611d196006830160006126f5565b611d276007830160006126f5565b611d356008830160006126f5565b611d436009830160006126f5565b50600a810180546001600160a01b03191690556000600b9091015550600c01805460ff1916905590556020810151611d7c908490610757565b7f8b35a8f8c2dc10b4672d1a95decdf391e3ef83540f79c8233f966a7642d403d581604051611dab91906132b5565b60405180910390a150505050565b6000611dc48261259b565b905080341015611de65760405162461bcd60e51b815260040161062d906131f2565b6000611df282346134c9565b604051909150339082156108fc029083906000818181858888f19350505050158015611e22573d6000803e3d6000fd5b506000611e2d612511565b905080841115611e4f5760405162461bcd60e51b815260040161062d90613154565b60005460405163a9059cbb60e01b81526001600160a01b039091169063a9059cbb90611e819033908890600401613007565b602060405180830381600087803b158015611e9b57600080fd5b505af1158015611eaf573d6000803e3d6000fd5b505050506040513d601f19601f82011682018060405250810190611ed391906129d7565b507fc5d46be962adb867acf29dce93ab611e9064bffee951e4db9e52c693f73f4c388433604051611dab929190613424565b60005460405163095ea7b360e01b81526001600160a01b039091169063095ea7b390611f379085908590600401613007565b602060405180830381600087803b158015611f5157600080fd5b505af1158015611f65573d6000803e3d6000fd5b505050506040513d601f19601f82011682018060405250810190611f8991906129d7565b505050565b60606005805480602002602001604051908101604052809291908181526020016000905b8282101561136f57600084815260209020604080516101c081018252600d850290920180546001600160a01b03908116928401928352600182015416606084015260028101805491928492909184916080850191906120109061351c565b80601f016020809104026020016040519081016040528092919081815260200182805461203c9061351c565b80156120895780601f1061205e57610100808354040283529160200191612089565b820191906000526020600020905b81548152906001019060200180831161206c57829003601f168201915b505050505081526020016003820180546120a29061351c565b80601f01602080910402602001604051908101604052809291908181526020018280546120ce9061351c565b801561211b5780601f106120f05761010080835404028352916020019161211b565b820191906000526020600020905b8154815290600101906020018083116120fe57829003601f168201915b505050505081526020016004820180546121349061351c565b80601f01602080910402602001604051908101604052809291908181526020018280546121609061351c565b80156121ad5780601f10612182576101008083540402835291602001916121ad565b820191906000526020600020905b81548152906001019060200180831161219057829003601f168201915b505050505081526020016005820180546121c69061351c565b80601f01602080910402602001604051908101604052809291908181526020018280546121f29061351c565b801561223f5780601f106122145761010080835404028352916020019161223f565b820191906000526020600020905b81548152906001019060200180831161222257829003601f168201915b505050505081526020016006820180546122589061351c565b80601f01602080910402602001604051908101604052809291908181526020018280546122849061351c565b80156122d15780601f106122a6576101008083540402835291602001916122d1565b820191906000526020600020905b8154815290600101906020018083116122b457829003601f168201915b505050505081526020016007820180546122ea9061351c565b80601f01602080910402602001604051908101604052809291908181526020018280546123169061351c565b80156123635780601f1061233857610100808354040283529160200191612363565b820191906000526020600020905b81548152906001019060200180831161234657829003601f168201915b5050505050815260200160088201805461237c9061351c565b80601f01602080910402602001604051908101604052809291908181526020018280546123a89061351c565b80156123f55780601f106123ca576101008083540402835291602001916123f5565b820191906000526020600020905b8154815290600101906020018083116123d857829003601f168201915b5050505050815260200160098201805461240e9061351c565b80601f016020809104026020016040519081016040528092919081815260200182805461243a9061351c565b80156124875780601f1061245c57610100808354040283529160200191612487565b820191906000526020600020905b81548152906001019060200180831161246a57829003601f168201915b5050509183525050600a8201546001600160a01b0316602080830191909152600b90920154604090910152908252600c83015491019060ff1660048111156124df57634e487b7160e01b600052602160045260246000fd5b60048111156124fe57634e487b7160e01b600052602160045260246000fd5b8152505081526020019060010190611fb2565b600080546003546040516370a0823160e01b81526001600160a01b03928316926370a082319261254692911690600401612e04565b60206040518083038186803b15801561255e57600080fd5b505afa158015612572573d6000803e3d6000fd5b505050506040513d601f19601f820116820180604052508101906125969190612b55565b905090565b60006105408266038d7ea4c680006134aa565b8280546125ba9061351c565b90600052602060002090601f0160209004810192826125dc5760008555612622565b82601f106125f557805160ff1916838001178555612622565b82800160010185558215612622579182015b82811115612622578251825591602001919060010190612607565b5061262e929150612734565b5090565b6040518060c0016040528060006001600160a01b0316815260200160006001600160a01b03168152602001600081526020016060815260200160608152602001600081525090565b8280546126869061351c565b90600052602060002090601f0160209004810192826126a85760008555612622565b82601f106126b95780548555612622565b8280016001018555821561262257600052602060002091601f016020900482015b828111156126225782548255916001019190600101906126da565b5080546127019061351c565b6000825580601f106127135750612731565b601f0160209004906000526020600020908101906127319190612734565b50565b5b8082111561262e5760008155600101612735565b80356104ba816135a4565b805180151581146104ba57600080fd5b600082601f830112612774578081fd5b813561278761278282613483565b61345a565b81815284602083860101111561279b578283fd5b816020850160208301379081016020019190915292915050565b60006101808083850312156127c8578182fd5b6127d18161345a565b9150506127dd82612749565b81526127eb60208301612749565b602082015260408201356001600160401b038082111561280a57600080fd5b61281685838601612764565b6040840152606084013591508082111561282f57600080fd5b61283b85838601612764565b6060840152608084013591508082111561285457600080fd5b61286085838601612764565b608084015260a084013591508082111561287957600080fd5b61288585838601612764565b60a084015260c084013591508082111561289e57600080fd5b6128aa85838601612764565b60c084015260e08401359150808211156128c357600080fd5b6128cf85838601612764565b60e0840152610100915081840135818111156128ea57600080fd5b6128f686828701612764565b83850152506101209150818401358181111561291157600080fd5b61291d86828701612764565b83850152505050610140612932818401612749565b818301525061016080830135818301525092915050565b60006020828403121561295a578081fd5b8135612965816135a4565b9392505050565b600080600060608486031215612980578182fd5b833561298b816135a4565b9250602084013561299b816135a4565b929592945050506040919091013590565b600080604083850312156129be578182fd5b82356129c9816135a4565b946020939093013593505050565b6000602082840312156129e8578081fd5b61296582612754565b600080600060608486031215612a05578283fd5b612a0e84612754565b92506020840151612a1e816135a4565b6040850151909250612a2f816135b9565b809150509250925092565b600060208284031215612a4b578081fd5b81516001600160401b03811115612a60578182fd5b8201601f81018413612a70578182fd5b8051612a7e61278282613483565b818152856020838501011115612a92578384fd5b612aa38260208301602086016134ec565b95945050505050565b60008060408385031215612abe578182fd5b82356001600160401b03811115612ad3578283fd5b612adf858286016127b5565b9250506020830135612af0816135b9565b809150509250929050565b60008060408385031215612b0d578182fd5b82356001600160401b03811115612b22578283fd5b612b2e858286016127b5565b95602094909401359450505050565b600060208284031215612b4e578081fd5b5035919050565b600060208284031215612b66578081fd5b5051919050565b60008060408385031215612b7f578081fd5b8235915060208301356001600160401b03811115612b9b578182fd5b612ba7858286016127b5565b9150509250929050565b6001600160a01b03169052565b60058110612bdc57634e487b7160e01b600052602160045260246000fd5b9052565b60008151808452612bf88160208601602086016134ec565b601f01601f19169290920160200192915050565b805460009060028104600180831680612c2657607f831692505b6020808410821415612c4657634e487b7160e01b86526022600452602486fd5b838852818015612c5d5760018114612c7157612c9f565b60ff19861689830152604089019650612c9f565b876000528160002060005b86811015612c975781548b8201850152908501908301612c7c565b8a0183019750505b50505050505092915050565b6000815160408452612cc1604085018251612bb1565b6020810151612cd36060860182612bb1565b506040810151610180806080870152612cf06101c0870183612be0565b91506060830151603f19808885030160a0890152612d0e8483612be0565b935060808501519150808885030160c0890152612d2b8483612be0565b935060a08501519150808885030160e0890152612d488483612be0565b935060c085015191506101008189860301818a0152612d678584612be0565b945060e08601519250610120828a870301818b0152612d868685612be0565b95508187015193506101409150828a870301828b0152612da68685612be0565b955080870151935050610160828a870301818b0152612dc58685612be0565b9550818701519350612dd9858b0185612bb1565b808701516101a08b0152505050505060208401519150612dfc6020860183612bbe565b949350505050565b6001600160a01b0391909116815260200190565b6001600160a01b0392831681529116602082015260400190565b6001600160a01b039384168152919092166020820152604081019190915260600190565b6000604080830160018060a01b03861684526020828186015281865480845260609350838701915083838202880101888752838720875b83811015612ff757605f198a8403018552878352612eb6888401612eb184546134e0565b612bb1565b612ec360018301546134e0565b612ecf88850182612bb1565b50610180806080850152612eea6101c0850160028501612c0c565b603f19808683030160a0870152612f048260038701612c0c565b9150808683030160c0870152612f1d8260048701612c0c565b9150808683030160e0870152612f368260058701612c0c565b91508086830301610100870152612f508260068701612c0c565b91508086830301610120870152612f6a8260078701612c0c565b91508086830301610140870152612f848260088701612c0c565b9150808683030161016087015250612f9f8160098601612c0c565b9050612fae600a8501546134e0565b612fba83870182612bb1565b50600b8401546101a0860152612fd3600c850154613557565b9150612fe188860183612bbe565b95870195935050600d9190910190600101612e8d565b50909a9950505050505050505050565b6001600160a01b03929092168252602082015260400190565b6000602080830181845280855180835260408601915060408482028701019250838701855b8281101561307357603f19888603018452613061858351612cab565b94509285019290850190600101613045565b5092979650505050505050565b901515815260200190565b83151581526001600160a01b038316602082015260608101612dfc6040830184612bbe565b6000602082526129656020830184612be0565b6020808252602f908201527f4e6563657369746173206465766f6c76657220756e206e756d65726f20706f7360408201526e697469766f20646520746f6b656e7360881b606082015260800190565b60208082526022908201527f5961207469656e657320756e6120736f6c696369747564207265676973747261604082015261646160f01b606082015260800190565b60208082526023908201527f436f6d70726120756e206e756d65726f20646520746f6b656e7320616465637560408201526261646f60e81b606082015260800190565b6020808252603b908201527f4e6f20707565646573206465766f6c766572206d617320746f6b656e7320646560408201527a206c6f7320717565207469656e657320646973706f6e69626c657360281b606082015260800190565b60208082526029908201527f436f6d707261206d656e6f7320546f6b656e73206f207061676120636f6e206d60408201526861732045746865727360b81b606082015260800190565b60006020825260018060a01b038084511660208401528060208501511660408401525060408301516060830152606083015160c0608084015261328160e0840182612be0565b90506080840151601f198483030160a085015261329e8282612be0565b91505060a084015160c08401528091505092915050565b6000602082526129656020830184612cab565b600060208252604060208301526132e660608301612eb185546134e0565b6132f360018401546134e0565b6133006080840182612bb1565b506101808060a084015261331b6101e0840160028601612c0c565b605f19808583030160c08601526133358260038801612c0c565b9150808583030160e086015261334e8260048801612c0c565b915080858303016101008601526133688260058801612c0c565b915080858303016101208601526133828260068801612c0c565b9150808583030161014086015261339c8260078801612c0c565b915080858303016101608601526133b68260088801612c0c565b9150808583030183860152506133cf8160098701612c0c565b9150506133df600a8501546134e0565b6133ed6101a0850182612bb1565b50600b8401546101c0840152613406600c850154613557565b6134136040850182612bbe565b509392505050565b90815260200190565b9182526001600160a01b0316602082015260400190565b9283526001600160a01b03918216602084015216604082015260600190565b6040518181016001600160401b038111828210171561347b5761347b61358e565b604052919050565b60006001600160401b0382111561349c5761349c61358e565b50601f01601f191660200190565b60008160001904831182151516156134c4576134c4613578565b500290565b6000828210156134db576134db613578565b500390565b6001600160a01b031690565b60005b838110156135075781810151838201526020016134ef565b83811115613516576000848401525b50505050565b60028104600182168061353057607f821691505b6020821081141561355157634e487b7160e01b600052602260045260246000fd5b50919050565b60ff1690565b600060001982141561357157613571613578565b5060010190565b634e487b7160e01b600052601160045260246000fd5b634e487b7160e01b600052604160045260246000fd5b6001600160a01b038116811461273157600080fd5b6005811061273157600080fdfea2646970667358221220b0f5252de1fd22ab10c61fb8c915a60efdd9949ec1b81bbf1460a44d7227f67f64736f6c63430008000033608060405234801561001057600080fd5b5060405161094138038061094183398101604081905261002f91610046565b60008181553381526001602052604090205561005e565b600060208284031215610057578081fd5b5051919050565b6108d48061006d6000396000f3fe608060405234801561001057600080fd5b50600436106100a45760003560e01c806306fdde03146100a9578063095ea7b3146100c757806318160ddd146100e75780631d43cc98146100fc57806323b872dd14610111578063313ce56714610124578063324536eb1461013957806370a082311461014157806395d89b4114610154578063a9059cbb1461015c578063dd62ed3e1461016f578063eee4b8d414610182575b600080fd5b6100b1610195565b6040516100be91906106cd565b60405180910390f35b6100da6100d5366004610681565b6101ba565b6040516100be91906106c2565b6100ef610224565b6040516100be9190610822565b61010f61010a3660046106aa565b61022a565b005b6100da61011f366004610646565b610267565b61012c6103d5565b6040516100be919061082b565b6100ef6103da565b6100ef61014f3660046105fa565b6103e0565b6100b16103ff565b6100da61016a366004610681565b61041e565b6100ef61017d366004610614565b6104d0565b6100da610190366004610646565b6104fb565b6040518060400160405280600981526020016845524332305f4d564d60b81b81525081565b3260008181526002602090815260408083206001600160a01b038716808552925280832085905551919290917f8c5be1e5ebec7d5bd14f71427d1e84f3dd0314c0f7b2291e5b200ac8c7c3b92590610213908690610822565b60405180910390a350600192915050565b60005490565b8060008082825461023b9190610839565b9091555050336000908152600160205260408120805483929061025f908490610839565b909155505050565b6001600160a01b0383166000908152600160205260408120548211156102a85760405162461bcd60e51b815260040161029f90610796565b60405180910390fd5b6001600160a01b03841660009081526002602090815260408083203284529091529020548211156102eb5760405162461bcd60e51b815260040161029f9061074a565b6001600160a01b03841660009081526001602052604090205461030e9083610585565b6001600160a01b03851660009081526001602090815260408083209390935560028152828220328352905220546103459083610585565b6001600160a01b03808616600090815260026020908152604080832032845282528083209490945591861681526001909152205461038390836105b6565b6001600160a01b03808516600081815260016020526040908190209390935591519086169060008051602061087f833981519152906103c3908690610822565b60405180910390a35060019392505050565b600281565b60005481565b6001600160a01b0381166000908152600160205260409020545b919050565b604051806040016040528060038152602001624d564d60e81b81525081565b3360009081526001602052604081205482111561044d5760405162461bcd60e51b815260040161029f90610720565b336000908152600160205260409020546104679083610585565b33600090815260016020526040808220929092556001600160a01b0385168152205461049390836105b6565b6001600160a01b03841660008181526001602052604090819020929092559051339060008051602061087f83398151915290610213908690610822565b6001600160a01b03918216600090815260026020908152604080832093909416825291909152205490565b6001600160a01b0383166000908152600160205260408120548211156105335760405162461bcd60e51b815260040161029f906107cc565b6001600160a01b0384166000908152600160205260409020546105569083610585565b6001600160a01b03808616600090815260016020526040808220939093559085168152205461038390836105b6565b6000828211156105a557634e487b7160e01b600052600160045260246000fd5b6105af8284610851565b9392505050565b6000806105c38385610839565b9050838110156105af57634e487b7160e01b600052600160045260246000fd5b80356001600160a01b03811681146103fa57600080fd5b60006020828403121561060b578081fd5b6105af826105e3565b60008060408385031215610626578081fd5b61062f836105e3565b915061063d602084016105e3565b90509250929050565b60008060006060848603121561065a578081fd5b610663846105e3565b9250610671602085016105e3565b9150604084013590509250925092565b60008060408385031215610693578182fd5b61069c836105e3565b946020939093013593505050565b6000602082840312156106bb578081fd5b5035919050565b901515815260200190565b6000602080835283518082850152825b818110156106f9578581018301518582016040015282016106dd565b8181111561070a5783604083870101525b50601f01601f1916929092016040019392505050565b60208082526010908201526f4572726f7220656e2062616c616e636560801b604082015260600190565b6020808252602c908201527f4e6f2073652068616e2064656c656761646f206c6f7320746f6b656e7320612060408201526b3630903234b932b1b1b4b7b760a11b606082015260800190565b6020808252601c908201527b456c206f776e6572206e6f207469656e65206c6f7320746f6b656e7360201b604082015260600190565b60208082526036908201527f456c206e756d65726f20646520746f6b656e732061207472616e736665726972604082015275206573206d61796f722071756520656c2073616c646f60501b606082015260800190565b90815260200190565b60ff91909116815260200190565b6000821982111561084c5761084c610868565b500190565b60008282101561086357610863610868565b500390565b634e487b7160e01b600052601160045260246000fdfeddf252ad1be2c89b69c2b068fc378daa952ba7f163c4a11628f55a4df523b3efa26469706673582212208e5b36cd2426d01c8e8850b30695cbb6966657dc28d435ed5430db249c18862e64736f6c63430008000033",
  "immutableReferences": {},
  "source": "// SPDX-License-Identifier: MIT\r\npragma solidity >=0.4.22 <0.9.0;\r\npragma experimental ABIEncoderV2;\r\nimport \"./TokenErc20/ERC20.sol\";\r\nimport \"./models/InfoContrato.sol\";\r\nimport \"./libraries/Validations.sol\";\r\n\r\ncontract ReguladorMercado {\r\n    //Token del contrato\r\n    ERC20Basic private token;\r\n\r\n    string public name;\r\n    address public owner;\r\n    address public dirContrato;\r\n    uint256 public cantidadTokens = 1000000;\r\n    SolicitudContrato[] private solicitudes;\r\n    SolicitudContrato[] private registrosContratos;\r\n\r\n    event ComprandoTokens(uint256, address);\r\n    event tokensDevueltos(uint256, address);\r\n    event EnviarTokensEvent(uint256, address, address);\r\n    event SolicitudDeRegistro(SolicitudContrato);\r\n    event ContratoDiligenciado(SolicitudContrato);\r\n\r\n    constructor(string memory _name) {\r\n        name = _name;\r\n        owner = msg.sender;\r\n        dirContrato = address(this);\r\n        token = new ERC20Basic(cantidadTokens);\r\n    }\r\n\r\n    modifier authorize(address direction) {\r\n        require(direction == owner);\r\n        _;\r\n    }\r\n\r\n    function PrecioTokens(uint256 _numTokens) private pure returns (uint256) {\r\n        return _numTokens * (1e15);\r\n    }\r\n\r\n    function GenerarTokens(uint256 numTokens) public authorize(msg.sender) {\r\n        token.increaseTotalSupply(numTokens);\r\n    }\r\n\r\n    function TokensDisponibles() public view returns (uint256) {\r\n        return token.balanceOf(dirContrato);\r\n    }\r\n\r\n    function ComprarTokens(uint256 numTokens) public payable {\r\n        uint256 coste = PrecioTokens(numTokens);\r\n        //Se requiere verificar el fondo del comprador\r\n        require(\r\n            msg.value >= coste,\r\n            \"Compra menos Tokens o paga con mas Ethers\"\r\n        );\r\n        //Devolver el dinero sobrante\r\n        uint256 returnValue = msg.value - coste;\r\n        payable(msg.sender).transfer(returnValue);\r\n        //Obtener el balance de tokens del contrato\r\n        uint256 balance = TokensDisponibles();\r\n        //Filtro para evaluar los tokens disponibles\r\n        require(numTokens <= balance, \"Compra un numero de tokens adecuado\");\r\n        //Transferir tokens al comprador\r\n        token.transfer(msg.sender, numTokens);\r\n        emit ComprandoTokens(numTokens, msg.sender);\r\n    }\r\n\r\n    function IntercambiarTokens(\r\n        address _dir1,\r\n        address _dir2,\r\n        uint256 numTokens\r\n    ) public {\r\n        token.transferFrom(_dir1, _dir2, numTokens);\r\n        emit EnviarTokensEvent(numTokens, _dir1, _dir2);\r\n    }\r\n\r\n    function MisTokens(address _direction) public view returns (uint256) {\r\n        return token.balanceOf(_direction);\r\n    }\r\n\r\n    function DevolverTokens(uint256 numTokens) public {\r\n        //El numero de tokens debe de ser mayor a cero\r\n        require(\r\n            numTokens > 0,\r\n            \"Necesitas devolver un numero positivo de tokens\"\r\n        );\r\n        //EL cliente debe tener los tokens que desea devolver\r\n        require(\r\n            numTokens <= MisTokens(msg.sender),\r\n            \"No puedes devolver mas tokens de los que tienes disponibles\"\r\n        );\r\n        //1.Devolucion de tokens por parte del cliente al contrato\r\n        token.transferTwo(msg.sender, address(this), numTokens);\r\n        payable(msg.sender).transfer(PrecioTokens(numTokens));\r\n\r\n        //2.Pago de tokens devueltos en ethers\r\n        emit tokensDevueltos(numTokens, msg.sender);\r\n    }\r\n\r\n    function delegarTokens(address delegate, uint256 numTokens) public {\r\n        token.approve(delegate, numTokens);\r\n    }\r\n\r\n    function getTokensDelegados (address delegate) public view returns (uint256) {\r\n        return token.allowance(msg.sender, delegate);\r\n    }\r\n\r\n    function getSolicitudes() public view returns (SolicitudContrato[] memory) {\r\n        return solicitudes;\r\n    }\r\n\r\n    function getRegistros() public view returns (SolicitudContrato[] memory) {\r\n        return registrosContratos;\r\n    }\r\n\r\n    function registrarSolicitud(\r\n        InfoContrato memory _infoContrato,\r\n        uint256 _tipoContrato\r\n    ) public {\r\n        bool bandera = existeSolicitud(msg.sender);\r\n        require(!bandera, \"Ya tienes una solicitud registrada\");\r\n        solicitudes.push(\r\n            SolicitudContrato(_infoContrato, TiposContratos(_tipoContrato))\r\n        );\r\n        emit SolicitudDeRegistro(solicitudes[solicitudes.length - 1]);\r\n    }\r\n\r\n    function diligenciarSolicitud(\r\n        uint256 index,\r\n        InfoContrato memory infoContrato\r\n    ) public authorize(tx.origin) {\r\n        SolicitudContrato memory solicitud = solicitudes[index];\r\n        solicitudes[index] = solicitudes[solicitudes.length - 1];\r\n        solicitudes.pop();\r\n        setRegistroContrato(infoContrato, solicitud.tipoContrato);\r\n        emit ContratoDiligenciado(solicitud);\r\n    }\r\n\r\n    function getOwner() public view returns (address) {\r\n        return owner;\r\n    }\r\n\r\n    function existeSolicitud(address ownerSolicitud)\r\n        public\r\n        view\r\n        returns (bool)\r\n    {\r\n        if (solicitudes.length > 0) {\r\n            for (uint256 i = 0; i < solicitudes.length; i++) {\r\n                if (ownerSolicitud == solicitudes[i].infoContrato.owner) {\r\n                    return true;\r\n                }\r\n            }\r\n        }\r\n        return false;\r\n    }\r\n\r\n    function setRegistroContrato(\r\n        InfoContrato memory infoContrato,\r\n        TiposContratos tipoContrato\r\n    ) public {\r\n        registrosContratos.push(SolicitudContrato(infoContrato, tipoContrato));\r\n    }\r\n\r\n    function validarUsuario()\r\n        public\r\n        view\r\n        returns (\r\n            bool,\r\n            address,\r\n            TiposContratos\r\n        )\r\n    {\r\n        if (msg.sender == owner) {\r\n            return (true, dirContrato, TiposContratos.ReguladorMercado);\r\n        }\r\n\r\n        return Validations.validarUsuario(msg.sender, registrosContratos);\r\n    }\r\n\r\n    function getIndexSolicitudes(address dir) public view returns (uint256) {\r\n        for (uint256 i = 0; i < solicitudes.length; i++) {\r\n            if (dir == solicitudes[i].infoContrato.owner) {\r\n                return i;\r\n            }\r\n        }\r\n        return 0;\r\n    }\r\n\r\n    function getInfoRegulador() public view returns (InfoRegulador memory) {\r\n        InfoRegulador memory tempRegulador = InfoRegulador(\r\n            owner,\r\n            dirContrato,\r\n            TokensDisponibles(),\r\n            token.name(),\r\n            token.symbol(),\r\n            PrecioTokens(1)\r\n        );\r\n        return tempRegulador;\r\n    }\r\n}\r\n",
  "sourcePath": "C:\\Users\\alejandro.perez\\Desktop\\DemoMvmTruffle\\contracts\\ReguladorMercado.sol",
  "compiler": {
    "name": "solc",
    "version": "0.8.0+commit.c7dfd78e.Emscripten.clang"
  },
  "schemaVersion": "3.4.7",
  "updatedAt": "2022-07-18T16:32:00.999Z",
  "networkType": "ethereum",
  "devdoc": {
    "kind": "dev",
    "methods": {},
    "version": 1
  },
  "userdoc": {
    "kind": "user",
    "methods": {},
    "version": 1
  }
}