{
  "contractName": "StringLibrary",
  "abi": [
    {
      "inputs": [
        {
          "internalType": "string",
          "name": "cadena1",
          "type": "string"
        },
        {
          "internalType": "string",
          "name": "cadena2",
          "type": "string"
        }
      ],
      "name": "equals",
      "outputs": [
        {
          "internalType": "bool",
          "name": "",
          "type": "bool"
        }
      ],
      "stateMutability": "pure",
      "type": "function",
      "constant": true
    }
  ],
  "bytecode": "0x61025261003a600b82828239805160001a60731461002d57634e487b7160e01b600052600060045260246000fd5b30600052607381538281f3fe73000000000000000000000000000000000000000030146080604052600436106100355760003560e01c806388d8da5f1461003a575b600080fd5b61004d610048366004610147565b610063565b60405161005a91906101a8565b60405180910390f35b6000808360405160200161007791906101b3565b6040516020818303038152906040528051906020012090506000836040516020016100a291906101b3565b60408051601f19818403018152919052805160209091012091909114949350505050565b600082601f8301126100d6578081fd5b813567ffffffffffffffff808211156100f1576100f1610206565b604051601f8301601f19168101602001828111828210171561011557610115610206565b60405282815284830160200186101561012c578384fd5b82602086016020830137918201602001929092529392505050565b60008060408385031215610159578182fd5b823567ffffffffffffffff80821115610170578384fd5b61017c868387016100c6565b93506020850135915080821115610191578283fd5b5061019e858286016100c6565b9150509250929050565b901515815260200190565b6000602080835283518082850152825b818110156101df578581018301518582016040015282016101c3565b818111156101f05783604083870101525b50601f01601f1916929092016040019392505050565b634e487b7160e01b600052604160045260246000fdfea2646970667358221220dd543ffdb427669a9ac497237a3dacb83967c62647ad463ddbda097ae44be1d464736f6c63430008000033",
  "immutableReferences": {},
  "source": "// SPDX-License-Identifier: MIT\r\npragma solidity ^0.8.0;\r\npragma experimental ABIEncoderV2;\r\n\r\nlibrary StringLibrary{\r\n    \r\n    function equals (string memory cadena1, string memory cadena2) public pure returns (bool){\r\n        bytes32 hashCadena1 = keccak256(abi.encode (cadena1));\r\n        bytes32 hashCadena2 = keccak256(abi.encode (cadena2));\r\n        return hashCadena1==hashCadena2;\r\n    }\r\n}",
  "sourcePath": "D:\\Santiago\\BlockChain\\DemoMvmTruffle\\contracts\\libraries\\StringLibrary.sol",
  "compiler": {
    "name": "solc",
    "version": "0.8.0+commit.c7dfd78e.Emscripten.clang"
  },
  "schemaVersion": "3.4.4",
  "updatedAt": "2022-07-06T19:07:40.011Z",
  "networkType": "ethereum",
  "devdoc": {
    "kind": "dev",
    "methods": {},
    "version": 1
  },
  "userdoc": {
    "kind": "user",
    "methods": {},
    "version": 1
  }
}