{
  "contractName": "TipoEnergiaFactory",
  "abi": [
    {
      "inputs": [
        {
          "internalType": "uint256",
          "name": "",
          "type": "uint256"
        }
      ],
      "name": "tiposEnergia",
      "outputs": [
        {
          "internalType": "string",
          "name": "",
          "type": "string"
        }
      ],
      "stateMutability": "view",
      "type": "function"
    },
    {
      "inputs": [
        {
          "internalType": "string",
          "name": "nombreTipoEnergia",
          "type": "string"
        },
        {
          "internalType": "uint256",
          "name": "_cantidadEnergia",
          "type": "uint256"
        }
      ],
      "name": "generarNuevaEnergia",
      "outputs": [
        {
          "internalType": "contract TipoEnergia",
          "name": "",
          "type": "address"
        }
      ],
      "stateMutability": "nonpayable",
      "type": "function"
    }
  ],
  "bytecode": "0x600560c09081526439b7b630b960d91b60e0526080908152610140604052600661010090815265656f6c69636160d01b6101205260a052610044906000906002610057565b5034801561005157600080fd5b506101e0565b8280548282559060005260206000209081019282156100a4579160200282015b828111156100a457825180516100949184916020909101906100b4565b5091602001919060010190610077565b506100b0929150610134565b5090565b8280546100c0906101a5565b90600052602060002090601f0160209004810192826100e25760008555610128565b82601f106100fb57805160ff1916838001178555610128565b82800160010185558215610128579182015b8281111561012857825182559160200191906001019061010d565b506100b0929150610151565b808211156100b05760006101488282610166565b50600101610134565b5b808211156100b05760008155600101610152565b508054610172906101a5565b6000825580601f1061018457506101a2565b601f0160209004906000526020600020908101906101a29190610151565b50565b6002810460018216806101b957607f821691505b602082108114156101da57634e487b7160e01b600052602260045260246000fd5b50919050565b6110cb806101ef6000396000f3fe608060405234801561001057600080fd5b50600436106100365760003560e01c8063259e75771461003b5780636d4fe5c714610064575b600080fd5b61004e610049366004610338565b610084565b60405161005b9190610473565b60405180910390f35b6100776100723660046103df565b61024b565b60405161005b9190610487565b6040516388d8da5f60e01b81526000908190819073__StringLibrary_________________________906388d8da5f906100c290889060040161049a565b60206040518083038186803b1580156100da57600080fd5b505af41580156100ee573d6000803e3d6000fd5b505050506040513d601f19601f820116820180604052508101906101129190610311565b156101565783604051610124906102f7565b61012e9190610562565b604051809103906000f08015801561014a573d6000803e3d6000fd5b5091506001905061021d565b6040516388d8da5f60e01b815273__StringLibrary_________________________906388d8da5f9061018d9088906004016104c6565b60206040518083038186803b1580156101a557600080fd5b505af41580156101b9573d6000803e3d6000fd5b505050506040513d601f19601f820116820180604052508101906101dd9190610311565b1561021d57836040516101ef90610304565b6101f99190610582565b604051809103906000f080158015610215573d6000803e3d6000fd5b509150600190505b806102435760405162461bcd60e51b815260040161023a906104ea565b60405180910390fd5b509392505050565b6000818154811061025b57600080fd5b90600052602060002001600091509050805461027690610594565b80601f01602080910402602001604051908101604052809291908181526020018280546102a290610594565b80156102ef5780601f106102c4576101008083540402835291602001916102ef565b820191906000526020600020905b8154815290600101906020018083116102d257829003601f168201915b505050505081565b610558806105e683390190565b61055880610b3e83390190565b600060208284031215610322578081fd5b81518015158114610331578182fd5b9392505050565b6000806040838503121561034a578081fd5b823567ffffffffffffffff80821115610361578283fd5b818501915085601f830112610374578283fd5b8135602082821115610388576103886105cf565b604051601f8301601f19168101820184811182821017156103ab576103ab6105cf565b60405282815284830182018910156103c1578586fd5b82828601838301379182018101949094529694909201359450505050565b6000602082840312156103f0578081fd5b5035919050565b60008151808452815b8181101561041c57602081850181015186830182015201610400565b8181111561042d5782602083870101525b50601f01601f19169290920160200192915050565b600581526439b7b630b960d91b602082015260400190565b6006815265656f6c69636160d01b602082015260400190565b6001600160a01b0391909116815260200190565b60006020825261033160208301846103f7565b6000604082526104ad60408301846103f7565b82810360208401526104be81610442565b949350505050565b6000604082526104d960408301846103f7565b82810360208401526104be8161045a565b60208082526052908201527f4e6f20657320756e207469706f20646520656e65726769612076616c69646f2c60408201527f206c6f73207469706f732076616c69646f7320736f6e3a20736f6c61722c20656060820152716f6c696361206f206869647261756c69636160701b608082015260a00190565b60006040825261057460408301610442565b905082602083015292915050565b6000604082526105746040830161045a565b6002810460018216806105a857607f821691505b602082108114156105c957634e487b7160e01b600052602260045260246000fd5b50919050565b634e487b7160e01b600052604160045260246000fdfe608060405234801561001057600080fd5b5060405161055838038061055883398101604081905261002f916100e5565b815161004290600090602085019061004c565b5060025550610200565b828054610058906101af565b90600052602060002090601f01602090048101928261007a57600085556100c0565b82601f1061009357805160ff19168380011785556100c0565b828001600101855582156100c0579182015b828111156100c05782518255916020019190600101906100a5565b506100cc9291506100d0565b5090565b5b808211156100cc57600081556001016100d1565b600080604083850312156100f7578182fd5b82516001600160401b038082111561010d578384fd5b818501915085601f830112610120578384fd5b815181811115610132576101326101ea565b6040516020601f8301601f1916820181018481118382101715610157576101576101ea565b604052828252848301810189101561016d578687fd5b8693505b8284101561018e5784840181015182850182015292830192610171565b8284111561019e57868184840101525b969096015195979596505050505050565b6002810460018216806101c357607f821691505b602082108114156101e457634e487b7160e01b600052602260045260246000fd5b50919050565b634e487b7160e01b600052604160045260246000fd5b6103498061020f6000396000f3fe608060405234801561001057600080fd5b506004361061007d5760003560e01c8063b0b6d1611161005b578063b0b6d161146100b0578063bc7b35b2146100c5578063f5a50589146100da578063f7ac4af4146100ed5761007d565b80639be0b800146100825780639e66e0f3146100a0578063ae4f7a4c146100a8575b600080fd5b61008a6100f5565b604051610097919061028a565b60405180910390f35b61008a6100fb565b61008a610101565b6100c36100be36600461021f565b610107565b005b6100cd61011e565b6040516100979190610237565b6100c36100e836600461021f565b6101ac565b61008a6101bc565b60025490565b60015481565b60025481565b60025460009061011790836101c1565b6002555050565b6000805461012b906102c2565b80601f0160208091040260200160405190810160405280929190818152602001828054610157906102c2565b80156101a45780601f10610179576101008083540402835291602001916101a4565b820191906000526020600020905b81548152906001019060200180831161018757829003601f168201915b505050505081565b60025460009061011790836101f2565b600390565b6000828211156101e157634e487b7160e01b600052600160045260246000fd5b6101eb82846102ab565b9392505050565b6000806101ff8385610293565b9050838110156101eb57634e487b7160e01b600052600160045260246000fd5b600060208284031215610230578081fd5b5035919050565b6000602080835283518082850152825b8181101561026357858101830151858201604001528201610247565b818111156102745783604083870101525b50601f01601f1916929092016040019392505050565b90815260200190565b600082198211156102a6576102a66102fd565b500190565b6000828210156102bd576102bd6102fd565b500390565b6002810460018216806102d657607f821691505b602082108114156102f757634e487b7160e01b600052602260045260246000fd5b50919050565b634e487b7160e01b600052601160045260246000fdfea26469706673582212206f0bca8a54f493d65ee7c9f63334f200db54562b0acf646132ca247f199b5b5464736f6c63430008000033608060405234801561001057600080fd5b5060405161055838038061055883398101604081905261002f916100e5565b815161004290600090602085019061004c565b5060025550610200565b828054610058906101af565b90600052602060002090601f01602090048101928261007a57600085556100c0565b82601f1061009357805160ff19168380011785556100c0565b828001600101855582156100c0579182015b828111156100c05782518255916020019190600101906100a5565b506100cc9291506100d0565b5090565b5b808211156100cc57600081556001016100d1565b600080604083850312156100f7578182fd5b82516001600160401b038082111561010d578384fd5b818501915085601f830112610120578384fd5b815181811115610132576101326101ea565b6040516020601f8301601f1916820181018481118382101715610157576101576101ea565b604052828252848301810189101561016d578687fd5b8693505b8284101561018e5784840181015182850182015292830192610171565b8284111561019e57868184840101525b969096015195979596505050505050565b6002810460018216806101c357607f821691505b602082108114156101e457634e487b7160e01b600052602260045260246000fd5b50919050565b634e487b7160e01b600052604160045260246000fd5b6103498061020f6000396000f3fe608060405234801561001057600080fd5b506004361061007d5760003560e01c8063b0b6d1611161005b578063b0b6d161146100b0578063bc7b35b2146100c5578063f5a50589146100da578063f7ac4af4146100ed5761007d565b80639be0b800146100825780639e66e0f3146100a0578063ae4f7a4c146100a8575b600080fd5b61008a6100f5565b604051610097919061028a565b60405180910390f35b61008a6100fb565b61008a610101565b6100c36100be36600461021f565b610107565b005b6100cd61011e565b6040516100979190610237565b6100c36100e836600461021f565b6101ac565b61008a6101bc565b60025490565b60015481565b60025481565b60025460009061011790836101c1565b6002555050565b6000805461012b906102c2565b80601f0160208091040260200160405190810160405280929190818152602001828054610157906102c2565b80156101a45780601f10610179576101008083540402835291602001916101a4565b820191906000526020600020905b81548152906001019060200180831161018757829003601f168201915b505050505081565b60025460009061011790836101f2565b600290565b6000828211156101e157634e487b7160e01b600052600160045260246000fd5b6101eb82846102ab565b9392505050565b6000806101ff8385610293565b9050838110156101eb57634e487b7160e01b600052600160045260246000fd5b600060208284031215610230578081fd5b5035919050565b6000602080835283518082850152825b8181101561026357858101830151858201604001528201610247565b818111156102745783604083870101525b50601f01601f1916929092016040019392505050565b90815260200190565b600082198211156102a6576102a66102fd565b500190565b6000828210156102bd576102bd6102fd565b500390565b6002810460018216806102d657607f821691505b602082108114156102f757634e487b7160e01b600052602260045260246000fd5b50919050565b634e487b7160e01b600052601160045260246000fdfea26469706673582212203b7db8b46cca9ce8e3ed4f5a492840dee56d945d4203dd5ce6fd1b80b84e973b64736f6c63430008000033a2646970667358221220deb1bf747051fb4a92553be3fcca3dc9d6eb105d29dca8947483bd2365d44dd364736f6c63430008000033",
  "immutableReferences": {},
  "source": "// SPDX-License-Identifier: MIT\r\npragma solidity ^0.8.0;\r\nimport \"./TipoEnergia.sol\";\r\nimport \"../libraries/StringLibrary.sol\";\r\n\r\ncontract TipoEnergiaFactory {\r\n    using StringLibrary for string;\r\n    string[] public tiposEnergia = [\"solar\", \"eolica\"];\r\n\r\n    function generarNuevaEnergia(\r\n        string memory nombreTipoEnergia,\r\n        uint256 _cantidadEnergia\r\n    ) public returns (TipoEnergia) {\r\n        TipoEnergia tempTipoEnergia;\r\n        bool flag = false;\r\n        if (nombreTipoEnergia.equals(\"solar\")) {\r\n            tempTipoEnergia = new EnergiaSolar(\"solar\", _cantidadEnergia);\r\n            flag = true;\r\n        } else if (nombreTipoEnergia.equals(\"eolica\")) {\r\n            tempTipoEnergia = new EnergiaEolica(\"eolica\", _cantidadEnergia);\r\n            flag = true;\r\n        }\r\n        require(\r\n            flag,\r\n            \"No es un tipo de energia valido, los tipos validos son: solar, eolica o hidraulica\"\r\n        );\r\n        return tempTipoEnergia;\r\n    }\r\n}\r\n",
  "sourcePath": "D:\\Santiago\\BlockChain\\DemoMvmTruffle\\contracts\\models\\TipoEnergiaFactory.sol",
  "compiler": {
    "name": "solc",
    "version": "0.8.0+commit.c7dfd78e.Emscripten.clang"
  },
  "schemaVersion": "3.4.4",
  "updatedAt": "2022-07-01T13:01:56.393Z",
  "devdoc": {
    "kind": "dev",
    "methods": {},
    "version": 1
  },
  "userdoc": {
    "kind": "user",
    "methods": {},
    "version": 1
  }
}