{
  "contractName": "Validations",
  "abi": [
    {
      "inputs": [
        {
          "internalType": "address",
          "name": "direction",
          "type": "address"
        },
        {
          "components": [
            {
              "internalType": "address",
              "name": "dirContrato",
              "type": "address"
            },
            {
              "internalType": "address",
              "name": "owner",
              "type": "address"
            },
            {
              "internalType": "string",
              "name": "nit",
              "type": "string"
            },
            {
              "internalType": "string",
              "name": "empresa",
              "type": "string"
            },
            {
              "internalType": "string",
              "name": "contacto",
              "type": "string"
            },
            {
              "internalType": "string",
              "name": "telefono",
              "type": "string"
            },
            {
              "internalType": "string",
              "name": "correo",
              "type": "string"
            },
            {
              "internalType": "string",
              "name": "departamento",
              "type": "string"
            },
            {
              "internalType": "string",
              "name": "ciudad",
              "type": "string"
            },
            {
              "internalType": "string",
              "name": "direccion",
              "type": "string"
            },
            {
              "internalType": "address",
              "name": "comercializador",
              "type": "address"
            },
            {
              "internalType": "uint256",
              "name": "tipoComercio",
              "type": "uint256"
            }
          ],
          "internalType": "struct InfoContrato[]",
          "name": "arrayDirections",
          "type": "tuple[]"
        }
      ],
      "name": "aproveCreation",
      "outputs": [
        {
          "internalType": "bool",
          "name": "",
          "type": "bool"
        }
      ],
      "stateMutability": "pure",
      "type": "function",
      "constant": true
    },
    {
      "inputs": [
        {
          "internalType": "address",
          "name": "contractDir",
          "type": "address"
        },
        {
          "components": [
            {
              "internalType": "address",
              "name": "dirContrato",
              "type": "address"
            },
            {
              "internalType": "address",
              "name": "owner",
              "type": "address"
            },
            {
              "internalType": "string",
              "name": "nit",
              "type": "string"
            },
            {
              "internalType": "string",
              "name": "empresa",
              "type": "string"
            },
            {
              "internalType": "string",
              "name": "contacto",
              "type": "string"
            },
            {
              "internalType": "string",
              "name": "telefono",
              "type": "string"
            },
            {
              "internalType": "string",
              "name": "correo",
              "type": "string"
            },
            {
              "internalType": "string",
              "name": "departamento",
              "type": "string"
            },
            {
              "internalType": "string",
              "name": "ciudad",
              "type": "string"
            },
            {
              "internalType": "string",
              "name": "direccion",
              "type": "string"
            },
            {
              "internalType": "address",
              "name": "comercializador",
              "type": "address"
            },
            {
              "internalType": "uint256",
              "name": "tipoComercio",
              "type": "uint256"
            }
          ],
          "internalType": "struct InfoContrato[]",
          "name": "arrayContracts",
          "type": "tuple[]"
        }
      ],
      "name": "existsContract",
      "outputs": [
        {
          "internalType": "bool",
          "name": "",
          "type": "bool"
        }
      ],
      "stateMutability": "pure",
      "type": "function",
      "constant": true
    },
    {
      "inputs": [
        {
          "internalType": "address",
          "name": "dir",
          "type": "address"
        },
        {
          "internalType": "address[]",
          "name": "arrayDirs",
          "type": "address[]"
        }
      ],
      "name": "existsAddress",
      "outputs": [
        {
          "internalType": "bool",
          "name": "",
          "type": "bool"
        }
      ],
      "stateMutability": "pure",
      "type": "function",
      "constant": true
    },
    {
      "inputs": [
        {
          "internalType": "address",
          "name": "_dirContrato",
          "type": "address"
        },
        {
          "components": [
            {
              "components": [
                {
                  "internalType": "address",
                  "name": "dirContrato",
                  "type": "address"
                },
                {
                  "internalType": "address",
                  "name": "owner",
                  "type": "address"
                },
                {
                  "internalType": "string",
                  "name": "nit",
                  "type": "string"
                },
                {
                  "internalType": "string",
                  "name": "empresa",
                  "type": "string"
                },
                {
                  "internalType": "string",
                  "name": "contacto",
                  "type": "string"
                },
                {
                  "internalType": "string",
                  "name": "telefono",
                  "type": "string"
                },
                {
                  "internalType": "string",
                  "name": "correo",
                  "type": "string"
                },
                {
                  "internalType": "string",
                  "name": "departamento",
                  "type": "string"
                },
                {
                  "internalType": "string",
                  "name": "ciudad",
                  "type": "string"
                },
                {
                  "internalType": "string",
                  "name": "direccion",
                  "type": "string"
                },
                {
                  "internalType": "address",
                  "name": "comercializador",
                  "type": "address"
                },
                {
                  "internalType": "uint256",
                  "name": "tipoComercio",
                  "type": "uint256"
                }
              ],
              "internalType": "struct InfoContrato",
              "name": "infoContrato",
              "type": "tuple"
            },
            {
              "internalType": "enum TiposContratos",
              "name": "tipoContrato",
              "type": "TiposContratos"
            }
          ],
          "internalType": "struct SolicitudContrato[]",
          "name": "_contratos",
          "type": "tuple[]"
        }
      ],
      "name": "getInfoContrato",
      "outputs": [
        {
          "components": [
            {
              "components": [
                {
                  "internalType": "address",
                  "name": "dirContrato",
                  "type": "address"
                },
                {
                  "internalType": "address",
                  "name": "owner",
                  "type": "address"
                },
                {
                  "internalType": "string",
                  "name": "nit",
                  "type": "string"
                },
                {
                  "internalType": "string",
                  "name": "empresa",
                  "type": "string"
                },
                {
                  "internalType": "string",
                  "name": "contacto",
                  "type": "string"
                },
                {
                  "internalType": "string",
                  "name": "telefono",
                  "type": "string"
                },
                {
                  "internalType": "string",
                  "name": "correo",
                  "type": "string"
                },
                {
                  "internalType": "string",
                  "name": "departamento",
                  "type": "string"
                },
                {
                  "internalType": "string",
                  "name": "ciudad",
                  "type": "string"
                },
                {
                  "internalType": "string",
                  "name": "direccion",
                  "type": "string"
                },
                {
                  "internalType": "address",
                  "name": "comercializador",
                  "type": "address"
                },
                {
                  "internalType": "uint256",
                  "name": "tipoComercio",
                  "type": "uint256"
                }
              ],
              "internalType": "struct InfoContrato",
              "name": "infoContrato",
              "type": "tuple"
            },
            {
              "internalType": "enum TiposContratos",
              "name": "tipoContrato",
              "type": "TiposContratos"
            }
          ],
          "internalType": "struct SolicitudContrato",
          "name": "",
          "type": "tuple"
        }
      ],
      "stateMutability": "pure",
      "type": "function",
      "constant": true
    },
    {
      "inputs": [
        {
          "internalType": "address",
          "name": "_owner",
          "type": "address"
        },
        {
          "components": [
            {
              "components": [
                {
                  "internalType": "address",
                  "name": "dirContrato",
                  "type": "address"
                },
                {
                  "internalType": "address",
                  "name": "owner",
                  "type": "address"
                },
                {
                  "internalType": "string",
                  "name": "nit",
                  "type": "string"
                },
                {
                  "internalType": "string",
                  "name": "empresa",
                  "type": "string"
                },
                {
                  "internalType": "string",
                  "name": "contacto",
                  "type": "string"
                },
                {
                  "internalType": "string",
                  "name": "telefono",
                  "type": "string"
                },
                {
                  "internalType": "string",
                  "name": "correo",
                  "type": "string"
                },
                {
                  "internalType": "string",
                  "name": "departamento",
                  "type": "string"
                },
                {
                  "internalType": "string",
                  "name": "ciudad",
                  "type": "string"
                },
                {
                  "internalType": "string",
                  "name": "direccion",
                  "type": "string"
                },
                {
                  "internalType": "address",
                  "name": "comercializador",
                  "type": "address"
                },
                {
                  "internalType": "uint256",
                  "name": "tipoComercio",
                  "type": "uint256"
                }
              ],
              "internalType": "struct InfoContrato",
              "name": "infoContrato",
              "type": "tuple"
            },
            {
              "internalType": "enum TiposContratos",
              "name": "tipoContrato",
              "type": "TiposContratos"
            }
          ],
          "internalType": "struct SolicitudContrato[]",
          "name": "_contratos",
          "type": "tuple[]"
        }
      ],
      "name": "validarUsuario",
      "outputs": [
        {
          "internalType": "bool",
          "name": "",
          "type": "bool"
        },
        {
          "internalType": "address",
          "name": "",
          "type": "address"
        },
        {
          "internalType": "enum TiposContratos",
          "name": "",
          "type": "TiposContratos"
        }
      ],
      "stateMutability": "pure",
      "type": "function",
      "constant": true
    }
  ],
  "bytecode": "0x610be061003a600b82828239805160001a60731461002d57634e487b7160e01b600052600060045260246000fd5b30600052607381538281f3fe73000000000000000000000000000000000000000030146080604052600436106100615760003560e01c8063073ce4181461006657806312032a371461008f57806314015025146100af5780635010ecc5146100d157806371eae174146100e4575b600080fd5b6100796100743660046106cc565b6100f7565b604051610086919061098f565b60405180910390f35b6100a261009d366004610815565b610176565b60405161008691906109c7565b6100c26100bd366004610815565b610229565b6040516100869392919061099a565b6100796100df36600461077b565b61031c565b6100796100f236600461077b565b61039e565b80516000901561016c5760005b825181101561016a5782818151811061012d57634e487b7160e01b600052603260045260246000fd5b60200260200101516001600160a01b0316846001600160a01b03161415610158576001915050610170565b8061016281610b6d565b915050610104565b505b5060005b92915050565b61017e610415565b610186610415565b60005b8351811015610221578381815181106101b257634e487b7160e01b600052603260045260246000fd5b602002602001015160000151600001516001600160a01b0316856001600160a01b0316141561020f578381815181106101fb57634e487b7160e01b600052603260045260246000fd5b602002602001015191508192505050610170565b8061021981610b6d565b915050610189565b509392505050565b6000806000808451111561030a5760005b84518110156103085784818151811061026357634e487b7160e01b600052603260045260246000fd5b602002602001015160000151602001516001600160a01b0316866001600160a01b031614156102f65760018582815181106102ae57634e487b7160e01b600052603260045260246000fd5b602002602001015160000151600001518683815181106102de57634e487b7160e01b600052603260045260246000fd5b60200260200101516020015193509350935050610315565b8061030081610b6d565b91505061023a565b505b506000915081905060045b9250925092565b8051600090156103955760005b82518110156103935782818151811061035257634e487b7160e01b600052603260045260246000fd5b6020026020010151602001516001600160a01b0316846001600160a01b03161415610381576000915050610170565b8061038b81610b6d565b915050610329565b505b50600192915050565b80516000901561016c5760005b825181101561016a578281815181106103d457634e487b7160e01b600052603260045260246000fd5b6020026020010151600001516001600160a01b0316846001600160a01b03161415610403576001915050610170565b8061040d81610b6d565b9150506103ab565b6040518060400160405280610428610434565b81526020016000905290565b60405180610180016040528060006001600160a01b0316815260200160006001600160a01b03168152602001606081526020016060815260200160608152602001606081526020016060815260200160608152602001606081526020016060815260200160006001600160a01b03168152602001600081525090565b80356001600160a01b03811681146104c757600080fd5b919050565b600082601f8301126104dc578081fd5b813567ffffffffffffffff8111156104f6576104f6610b94565b610509601f8201601f1916602001610b1f565b81815284602083860101111561051d578283fd5b816020850160208301379081016020019190915292915050565b600061018080838503121561054a578182fd5b61055381610b1f565b91505061055f826104b0565b815261056d602083016104b0565b6020820152604082013567ffffffffffffffff8082111561058d57600080fd5b610599858386016104cc565b604084015260608401359150808211156105b257600080fd5b6105be858386016104cc565b606084015260808401359150808211156105d757600080fd5b6105e3858386016104cc565b608084015260a08401359150808211156105fc57600080fd5b610608858386016104cc565b60a084015260c084013591508082111561062157600080fd5b61062d858386016104cc565b60c084015260e084013591508082111561064657600080fd5b610652858386016104cc565b60e08401526101009150818401358181111561066d57600080fd5b610679868287016104cc565b83850152506101209150818401358181111561069457600080fd5b6106a0868287016104cc565b838501525050506101406106b58184016104b0565b818301525061016080830135818301525092915050565b600080604083850312156106de578182fd5b6106e7836104b0565b915060208084013567ffffffffffffffff811115610703578283fd5b8401601f81018613610713578283fd5b803561072661072182610b49565b610b1f565b81815283810190838501858402850186018a1015610742578687fd5b8694505b8385101561076b57610757816104b0565b835260019490940193918501918501610746565b5080955050505050509250929050565b6000806040838503121561078d578182fd5b610796836104b0565b915060208084013567ffffffffffffffff8111156107b2578283fd5b8401601f810186136107c2578283fd5b80356107d061072182610b49565b81815283810190838501865b84811015610805576107f38b888435890101610537565b845292860192908601906001016107dc565b5096999098509650505050505050565b60008060408385031215610827578182fd5b610830836104b0565b915060208084013567ffffffffffffffff8082111561084d578384fd5b818601915086601f830112610860578384fd5b813561086e61072182610b49565b81815284810190848601875b8481101561090457813587016040818e03601f1901121561089957898afd5b6040516040810181811089821117156108b4576108b4610b94565b604052818a0135888111156108c7578b8cfd5b6108d58f8c83860101610537565b82525060408201359150600582106108eb578a8bfd5b808a01919091528452928701929087019060010161087a565b50979a909950975050505050505050565b6001600160a01b03169052565b6005811061094057634e487b7160e01b600052602160045260246000fd5b9052565b60008151808452815b818110156109695760208185018101518683018201520161094d565b8181111561097a5782602083870101525b50601f01601f19169290920160200192915050565b901515815260200190565b83151581526001600160a01b0383166020820152606081016109bf6040830184610922565b949350505050565b6000602082528251604060208401526109e4606084018251610915565b60208101516109f66080850182610915565b5060408101516101808060a0860152610a136101e0860183610944565b91506060830151605f19808785030160c0880152610a318483610944565b935060808501519150808785030160e0880152610a4e8483610944565b935060a08501519150610100818886030181890152610a6d8584610944565b945060c086015192506101208289870301818a0152610a8c8685610944565b955060e08701519350610140838a880301818b0152610aab8786610944565b96508288015194506101609250838a880301838b0152610acb8786610944565b9650818801519450838a880301868b0152610ae68786610944565b96508088015195505050610afe6101a0890185610915565b94909401516101c08701525050602085015191506109bf6040850183610922565b60405181810167ffffffffffffffff81118282101715610b4157610b41610b94565b604052919050565b600067ffffffffffffffff821115610b6357610b63610b94565b5060209081020190565b6000600019821415610b8d57634e487b7160e01b81526011600452602481fd5b5060010190565b634e487b7160e01b600052604160045260246000fdfea2646970667358221220bbeb0eef44441299e61af71871ce22cb4517c28b006ea484bbc4e6bf76d823c864736f6c63430008000033",
  "immutableReferences": {},
  "source": "// SPDX-License-Identifier: MIT\r\npragma solidity ^0.8.0;\r\npragma experimental ABIEncoderV2;\r\nimport \"../models/InfoContrato.sol\";\r\n\r\nlibrary Validations {\r\n    address constant nullAddress = 0x0000000000000000000000000000000000000000;\r\n\r\n    function aproveCreation(\r\n        address direction,\r\n        InfoContrato[] memory arrayDirections\r\n    ) public pure returns (bool) {\r\n        if (arrayDirections.length > 0) {\r\n            for (uint256 i = 0; i < arrayDirections.length; i++) {\r\n                if (direction == arrayDirections[i].owner) {\r\n                    return false;\r\n                }\r\n            }\r\n        }\r\n        return true;\r\n    }\r\n\r\n    function existsContract(\r\n        address contractDir,\r\n        InfoContrato[] memory arrayContracts\r\n    ) public pure returns (bool) {\r\n        if (arrayContracts.length > 0) {\r\n            for (uint256 i = 0; i < arrayContracts.length; i++) {\r\n                if (contractDir == arrayContracts[i].dirContrato) {\r\n                    return true;\r\n                }\r\n            }\r\n        }\r\n        return false;\r\n    }\r\n\r\n    function existsAddress(address dir, address[] memory arrayDirs)\r\n        public\r\n        pure\r\n        returns (bool)\r\n    {\r\n        if (arrayDirs.length > 0) {\r\n            for (uint256 i = 0; i < arrayDirs.length; i++) {\r\n                if (dir == arrayDirs[i]) {\r\n                    return true;\r\n                }\r\n            }\r\n        }\r\n        return false;\r\n    }\r\n\r\n    function getInfoContrato(\r\n        address _dirContrato,\r\n        SolicitudContrato[] memory _contratos\r\n    ) public pure returns (SolicitudContrato memory) {\r\n        SolicitudContrato memory infoContrato;\r\n        for (uint256 i = 0; i < _contratos.length; i++) {\r\n            if (_dirContrato == _contratos[i].infoContrato.dirContrato) {\r\n                infoContrato = _contratos[i];\r\n                return infoContrato;\r\n            }\r\n        }\r\n        return infoContrato;\r\n    }\r\n\r\n    function validarUsuario(\r\n        address _owner,\r\n        SolicitudContrato[] memory _contratos\r\n    )\r\n        public\r\n        pure\r\n        returns (\r\n            bool,\r\n            address,\r\n            TiposContratos\r\n        )\r\n    {\r\n        if (_contratos.length > 0) {\r\n            for (uint256 i = 0; i < _contratos.length; i++) {\r\n                if (_owner == _contratos[i].infoContrato.owner) {\r\n                    return (\r\n                        true,\r\n                        _contratos[i].infoContrato.dirContrato,\r\n                        _contratos[i].tipoContrato\r\n                    );\r\n                }\r\n            }\r\n        }\r\n\r\n        return (false, nullAddress, TiposContratos.NullContract);\r\n    }\r\n}\r\n",
  "sourcePath": "D:\\Santiago\\BlockChain\\DemoMvmTruffle\\contracts\\libraries\\Validations.sol",
  "compiler": {
    "name": "solc",
    "version": "0.8.0+commit.c7dfd78e.Emscripten.clang"
  },
  "schemaVersion": "3.4.4",
  "updatedAt": "2022-07-14T20:28:47.594Z",
  "networkType": "ethereum",
  "devdoc": {
    "kind": "dev",
    "methods": {},
    "version": 1
  },
  "userdoc": {
    "kind": "user",
    "methods": {},
    "version": 1
  }
}