{
  "contractName": "Validations",
  "abi": [
    {
      "inputs": [
        {
          "internalType": "address",
          "name": "direction",
          "type": "address"
        },
        {
          "components": [
            {
              "internalType": "string",
              "name": "empresa",
              "type": "string"
            },
            {
              "internalType": "address",
              "name": "owner",
              "type": "address"
            },
            {
              "internalType": "address",
              "name": "dirContrato",
              "type": "address"
            }
          ],
          "internalType": "struct infoContrato[]",
          "name": "arrayDirections",
          "type": "tuple[]"
        }
      ],
      "name": "aproveCreation",
      "outputs": [
        {
          "internalType": "bool",
          "name": "",
          "type": "bool"
        }
      ],
      "stateMutability": "pure",
      "type": "function",
      "constant": true
    },
    {
      "inputs": [
        {
          "internalType": "address",
          "name": "contractDir",
          "type": "address"
        },
        {
          "components": [
            {
              "internalType": "string",
              "name": "empresa",
              "type": "string"
            },
            {
              "internalType": "address",
              "name": "owner",
              "type": "address"
            },
            {
              "internalType": "address",
              "name": "dirContrato",
              "type": "address"
            }
          ],
          "internalType": "struct infoContrato[]",
          "name": "arrayContracts",
          "type": "tuple[]"
        }
      ],
      "name": "existsContract",
      "outputs": [
        {
          "internalType": "bool",
          "name": "",
          "type": "bool"
        }
      ],
      "stateMutability": "pure",
      "type": "function",
      "constant": true
    },
    {
      "inputs": [
        {
          "internalType": "address",
          "name": "dir",
          "type": "address"
        },
        {
          "internalType": "address[]",
          "name": "arrayDirs",
          "type": "address[]"
        }
      ],
      "name": "existsAddress",
      "outputs": [
        {
          "internalType": "bool",
          "name": "",
          "type": "bool"
        }
      ],
      "stateMutability": "pure",
      "type": "function",
      "constant": true
    }
  ],
  "bytecode": "0x61050561003a600b82828239805160001a60731461002d57634e487b7160e01b600052600060045260246000fd5b30600052607381538281f3fe730000000000000000000000000000000000000000301460806040526004361061004b5760003560e01c8063073ce418146100505780638c54dd4a14610079578063ee1d0a791461008c575b600080fd5b61006361005e366004610233565b61009f565b6040516100709190610439565b60405180910390f35b6100636100873660046102e2565b61011e565b61006361009a3660046102e2565b6101a0565b8051600090156101145760005b8251811015610112578281815181106100d557634e487b7160e01b600052603260045260246000fd5b60200260200101516001600160a01b0316846001600160a01b03161415610100576001915050610118565b8061010a81610492565b9150506100ac565b505b5060005b92915050565b8051600090156101975760005b82518110156101955782818151811061015457634e487b7160e01b600052603260045260246000fd5b6020026020010151602001516001600160a01b0316846001600160a01b03161415610183576000915050610118565b8061018d81610492565b91505061012b565b505b50600192915050565b8051600090156101145760005b8251811015610112578281815181106101d657634e487b7160e01b600052603260045260246000fd5b6020026020010151604001516001600160a01b0316846001600160a01b03161415610205576001915050610118565b8061020f81610492565b9150506101ad565b80356001600160a01b038116811461022e57600080fd5b919050565b60008060408385031215610245578182fd5b61024e83610217565b915060208084013567ffffffffffffffff81111561026a578283fd5b8401601f8101861361027a578283fd5b803561028d6102888261046e565b610444565b81815283810190838501858402850186018a10156102a9578687fd5b8694505b838510156102d2576102be81610217565b8352600194909401939185019185016102ad565b5080955050505050509250929050565b600080604083850312156102f4578182fd5b6102fd83610217565b915060208084013567ffffffffffffffff8082111561031a578384fd5b818601915086601f83011261032d578384fd5b61033a610288833561046e565b8235815283810190848401865b85358110156104295781358601601f196060828e038201121561036857898afd5b604051606081018181108982111715610383576103836104b9565b604052828a013588811115610396578b8cfd5b8301603f81018f136103a6578b8cfd5b8a810135898111156103ba576103ba6104b9565b6103ca8c85601f84011601610444565b93508084528f60408284010111156103e0578c8dfd5b80604083018d86013783018b018c90525081815261040060408401610217565b8a82015261041060608401610217565b6040820152865250509286019290860190600101610347565b5096999098509650505050505050565b901515815260200190565b60405181810167ffffffffffffffff81118282101715610466576104666104b9565b604052919050565b600067ffffffffffffffff821115610488576104886104b9565b5060209081020190565b60006000198214156104b257634e487b7160e01b81526011600452602481fd5b5060010190565b634e487b7160e01b600052604160045260246000fdfea2646970667358221220877ba314424fcd8366349e77a5ce37d38848221d6fdee9510dc9e29dd689ada564736f6c63430008000033",
  "immutableReferences": {},
  "source": "// SPDX-License-Identifier: MIT\r\npragma solidity ^0.8.0;\r\npragma experimental ABIEncoderV2;\r\nimport \"../models/InfoContrato.sol\";\r\n\r\nlibrary Validations {\r\n    function aproveCreation(\r\n        address direction,\r\n        infoContrato[] memory arrayDirections\r\n    ) public pure returns (bool) {\r\n        if (arrayDirections.length > 0) {\r\n            for (uint256 i = 0; i < arrayDirections.length; i++) {\r\n                if (direction == arrayDirections[i].owner) {\r\n                    return false;\r\n                }\r\n            }\r\n        }\r\n        return true;\r\n    }\r\n\r\n    function existsContract(\r\n        address contractDir,\r\n        infoContrato[] memory arrayContracts\r\n    ) public pure returns (bool) {\r\n        if (arrayContracts.length > 0) {\r\n            for (uint256 i = 0; i < arrayContracts.length; i++) {\r\n                if (contractDir == arrayContracts[i].dirContrato) {\r\n                    return true;\r\n                }\r\n            }\r\n        }\r\n        return false;\r\n    }\r\n\r\n    function existsAddress(address dir, address[] memory arrayDirs)\r\n        public\r\n        pure\r\n        returns (bool)\r\n    {\r\n        if (arrayDirs.length > 0) {\r\n            for (uint256 i = 0; i < arrayDirs.length; i++) {\r\n                if (dir == arrayDirs[i]) {\r\n                    return true;\r\n                }\r\n            }\r\n        }\r\n        return false;\r\n    }\r\n}\r\n",
  "sourcePath": "D:\\Santiago\\BlockChain\\DemoMvmTruffle\\contracts\\libraries\\Validations.sol",
  "compiler": {
    "name": "solc",
    "version": "0.8.0+commit.c7dfd78e.Emscripten.clang"
  },
  "schemaVersion": "3.4.4",
  "updatedAt": "2022-06-30T19:26:09.169Z",
  "networkType": "ethereum",
  "devdoc": {
    "kind": "dev",
    "methods": {},
    "version": 1
  },
  "userdoc": {
    "kind": "user",
    "methods": {},
    "version": 1
  }
}