{
  "contractName": "Validations",
  "abi": [
    {
      "inputs": [
        {
          "internalType": "address",
          "name": "direction",
          "type": "address"
        },
        {
          "components": [
            {
              "internalType": "address",
              "name": "owner",
              "type": "address"
            },
            {
              "internalType": "address",
              "name": "dirContrato",
              "type": "address"
            },
            {
              "internalType": "string",
              "name": "nombreGenerador",
              "type": "string"
            }
          ],
          "internalType": "struct infoContrato[]",
          "name": "arrayDirections",
          "type": "tuple[]"
        }
      ],
      "name": "aproveCreation",
      "outputs": [
        {
          "internalType": "bool",
          "name": "",
          "type": "bool"
        }
      ],
      "stateMutability": "pure",
      "type": "function",
      "constant": true
    },
    {
      "inputs": [
        {
          "internalType": "address",
          "name": "contractDir",
          "type": "address"
        },
        {
          "components": [
            {
              "internalType": "address",
              "name": "owner",
              "type": "address"
            },
            {
              "internalType": "address",
              "name": "dirContrato",
              "type": "address"
            },
            {
              "internalType": "string",
              "name": "nombreGenerador",
              "type": "string"
            }
          ],
          "internalType": "struct infoContrato[]",
          "name": "arrayContracts",
          "type": "tuple[]"
        }
      ],
      "name": "existsContract",
      "outputs": [
        {
          "internalType": "bool",
          "name": "",
          "type": "bool"
        }
      ],
      "stateMutability": "pure",
      "type": "function",
      "constant": true
    }
  ],
  "bytecode": "0x6103bf61003a600b82828239805160001a60731461002d57634e487b7160e01b600052600060045260246000fd5b30600052607381538281f3fe73000000000000000000000000000000000000000030146080604052600436106100405760003560e01c80638c54dd4a14610045578063ee1d0a791461006e575b600080fd5b6100586100533660046101a2565b610081565b6040516100659190610317565b60405180910390f35b61005861007c3660046101a2565b610104565b8051600090156100fa5760005b82518110156100f8578281815181106100b757634e487b7160e01b600052603260045260246000fd5b6020026020010151600001516001600160a01b0316846001600160a01b031614156100e65760009150506100fe565b806100f08161034c565b91505061008e565b505b5060015b92915050565b80516000901561017d5760005b825181101561017b5782818151811061013a57634e487b7160e01b600052603260045260246000fd5b6020026020010151602001516001600160a01b0316846001600160a01b031614156101695760019150506100fe565b806101738161034c565b915050610111565b505b50600092915050565b80356001600160a01b038116811461019d57600080fd5b919050565b600080604083850312156101b4578182fd5b6101bd83610186565b915060208084013567ffffffffffffffff808211156101da578384fd5b818601915086601f8301126101ed578384fd5b80823511156101fe576101fe610373565b61020c838484350201610322565b8235815283810190848401865b85358110156103075781358601601f196060828e038201121561023a57898afd5b604051806060820110886060830111171561025757610257610373565b606081016040526102698a8401610186565b815261027760408401610186565b8a820152876060840135111561028b578a8bfd5b6060830135830192508d603f8401126102a2578a8bfd5b89830135888111156102b6576102b6610373565b6102c68b84601f84011601610322565b92508083528e60408286010111156102dc578b8cfd5b80604085018c85013782018a018b905260408101919091528552509286019290860190600101610219565b5096999098509650505050505050565b901515815260200190565b60405181810167ffffffffffffffff8111828210171561034457610344610373565b604052919050565b600060001982141561036c57634e487b7160e01b81526011600452602481fd5b5060010190565b634e487b7160e01b600052604160045260246000fdfea2646970667358221220d3a20a7bfa12fe8e868160fc4f61e31e18ab7977320476d856e873e3ba15f4a664736f6c63430008000033",
  "immutableReferences": {},
  "source": "// SPDX-License-Identifier: MIT\r\npragma solidity ^0.8.0;\r\npragma experimental ABIEncoderV2;\r\nimport \"../models/InfoContrato.sol\";\r\n\r\nlibrary Validations {\r\n    function aproveCreation(\r\n        address direction,\r\n        infoContrato[] memory arrayDirections\r\n    ) public pure returns (bool) {\r\n        if (arrayDirections.length > 0) {\r\n            for (uint256 i = 0; i < arrayDirections.length; i++) {\r\n                if (direction == arrayDirections[i].owner) {\r\n                    return false;\r\n                }\r\n            }\r\n        }\r\n        return true;\r\n    }\r\n\r\n    function existsContract(\r\n        address contractDir,\r\n        infoContrato[] memory arrayContracts\r\n    ) public pure returns (bool) {\r\n        if (arrayContracts.length > 0) {\r\n            for (uint256 i = 0; i < arrayContracts.length; i++) {\r\n                if (contractDir == arrayContracts[i].dirContrato) {\r\n                    return true;\r\n                }\r\n            }\r\n        }\r\n        return false;\r\n    }\r\n}\r\n",
  "sourcePath": "C:\\Users\\alejandro.perez\\Desktop\\DemoMvmTruffle\\contracts\\libraries\\Validations.sol",
  "compiler": {
    "name": "solc",
    "version": "0.8.0+commit.c7dfd78e.Emscripten.clang"
  },
  "schemaVersion": "3.4.7",
  "updatedAt": "2022-07-07T19:15:35.394Z",
  "networkType": "ethereum",
  "devdoc": {
    "kind": "dev",
    "methods": {},
    "version": 1
  },
  "userdoc": {
    "kind": "user",
    "methods": {},
    "version": 1
  }
}