{
  "contractName": "Validations",
  "abi": [
    {
      "inputs": [
        {
          "internalType": "address",
          "name": "direction",
          "type": "address"
        },
        {
          "components": [
            {
              "internalType": "address",
              "name": "owner",
              "type": "address"
            },
            {
              "internalType": "address",
              "name": "dirContrato",
              "type": "address"
            }
          ],
          "internalType": "struct infoContrato[]",
          "name": "arrayDirections",
          "type": "tuple[]"
        }
      ],
      "name": "aproveCreation",
      "outputs": [
        {
          "internalType": "bool",
          "name": "",
          "type": "bool"
        }
      ],
      "stateMutability": "pure",
      "type": "function"
    },
    {
      "inputs": [
        {
          "internalType": "address",
          "name": "contractDir",
          "type": "address"
        },
        {
          "components": [
            {
              "internalType": "address",
              "name": "owner",
              "type": "address"
            },
            {
              "internalType": "address",
              "name": "dirContrato",
              "type": "address"
            }
          ],
          "internalType": "struct infoContrato[]",
          "name": "arrayContracts",
          "type": "tuple[]"
        }
      ],
      "name": "existsContract",
      "outputs": [
        {
          "internalType": "bool",
          "name": "",
          "type": "bool"
        }
      ],
      "stateMutability": "pure",
      "type": "function"
    }
  ],
  "bytecode": "0x61034661003a600b82828239805160001a60731461002d57634e487b7160e01b600052600060045260246000fd5b30600052607381538281f3fe73000000000000000000000000000000000000000030146080604052600436106100405760003560e01c80638c54dd4a14610045578063ee1d0a791461006e575b600080fd5b6100586100533660046101a2565b610081565b604051610065919061029e565b60405180910390f35b61005861007c3660046101a2565b610104565b8051600090156100fa5760005b82518110156100f8578281815181106100b757634e487b7160e01b600052603260045260246000fd5b6020026020010151600001516001600160a01b0316846001600160a01b031614156100e65760009150506100fe565b806100f0816102d3565b91505061008e565b505b5060015b92915050565b80516000901561017d5760005b825181101561017b5782818151811061013a57634e487b7160e01b600052603260045260246000fd5b6020026020010151602001516001600160a01b0316846001600160a01b031614156101695760019150506100fe565b80610173816102d3565b915050610111565b505b50600092915050565b80356001600160a01b038116811461019d57600080fd5b919050565b60008060408084860312156101b5578283fd5b6101be84610186565b925060208085013567ffffffffffffffff808211156101db578485fd5b818701915087601f8301126101ee578485fd5b813581811115610200576102006102fa565b61020d84858302016102a9565b81815284810190848601878402860187018c1015610229578889fd5b8895505b8386101561028c5787818d031215610243578889fd5b8751888101818110878211171561025c5761025c6102fa565b895261026782610186565b8152610274888301610186565b8189015283526001959095019491860191870161022d565b50809750505050505050509250929050565b901515815260200190565b60405181810167ffffffffffffffff811182821017156102cb576102cb6102fa565b604052919050565b60006000198214156102f357634e487b7160e01b81526011600452602481fd5b5060010190565b634e487b7160e01b600052604160045260246000fdfea2646970667358221220a252422c51e073b70c608e58c3915704488e755bab493fd288f7b96b3c4a767c64736f6c63430008000033",
  "immutableReferences": {},
  "source": "// SPDX-License-Identifier: MIT\r\npragma solidity ^0.8.0;\r\npragma experimental ABIEncoderV2;\r\nimport \"../models/InfoContrato.sol\";\r\n\r\nlibrary Validations {\r\n    function aproveCreation(\r\n        address direction,\r\n        infoContrato[] memory arrayDirections\r\n    ) public pure returns (bool) {\r\n        if (arrayDirections.length > 0) {\r\n            for (uint256 i = 0; i < arrayDirections.length; i++) {\r\n                if (direction == arrayDirections[i].owner) {\r\n                    return false;\r\n                }\r\n            }\r\n        }\r\n        return true;\r\n    }\r\n\r\n    function existsContract(\r\n        address contractDir,\r\n        infoContrato[] memory arrayContracts\r\n    ) public pure returns (bool) {\r\n        if (arrayContracts.length > 0) {\r\n            for (uint256 i = 0; i < arrayContracts.length; i++) {\r\n                if (contractDir == arrayContracts[i].dirContrato) {\r\n                    return true;\r\n                }\r\n            }\r\n        }\r\n        return false;\r\n    }\r\n}\r\n",
  "sourcePath": "C:\\Users\\alejandro.perez\\Desktop\\DemoMvmTruffle\\contracts\\libraries\\Validations.sol",
  "compiler": {
    "name": "solc",
    "version": "0.8.0+commit.c7dfd78e.Emscripten.clang"
  },
  "schemaVersion": "3.4.7",
  "updatedAt": "2022-06-30T14:15:01.841Z",
  "devdoc": {
    "kind": "dev",
    "methods": {},
    "version": 1
  },
  "userdoc": {
    "kind": "user",
    "methods": {},
    "version": 1
  }
}