{
  "contractName": "Validations",
  "abi": [
    {
      "inputs": [
        {
          "internalType": "address",
          "name": "direction",
          "type": "address"
        },
        {
          "components": [
            {
              "internalType": "address",
              "name": "dirContrato",
              "type": "address"
            },
            {
              "internalType": "address",
              "name": "owner",
              "type": "address"
            },
            {
              "internalType": "string",
              "name": "nit",
              "type": "string"
            },
            {
              "internalType": "string",
              "name": "empresa",
              "type": "string"
            },
            {
              "internalType": "string",
              "name": "contacto",
              "type": "string"
            },
            {
              "internalType": "string",
              "name": "telefono",
              "type": "string"
            },
            {
              "internalType": "string",
              "name": "correo",
              "type": "string"
            },
            {
              "internalType": "string",
              "name": "departamento",
              "type": "string"
            },
            {
              "internalType": "string",
              "name": "ciudad",
              "type": "string"
            },
            {
              "internalType": "string",
              "name": "direccion",
              "type": "string"
            },
            {
              "internalType": "address",
              "name": "comercializador",
              "type": "address"
            },
            {
              "internalType": "uint256",
              "name": "tipoComercio",
              "type": "uint256"
            }
          ],
          "internalType": "struct InfoContrato[]",
          "name": "arrayDirections",
          "type": "tuple[]"
        }
      ],
      "name": "aproveCreation",
      "outputs": [
        {
          "internalType": "bool",
          "name": "",
          "type": "bool"
        }
      ],
      "stateMutability": "pure",
      "type": "function",
      "constant": true
    },
    {
      "inputs": [
        {
          "internalType": "address",
          "name": "contractDir",
          "type": "address"
        },
        {
          "components": [
            {
              "internalType": "address",
              "name": "dirContrato",
              "type": "address"
            },
            {
              "internalType": "address",
              "name": "owner",
              "type": "address"
            },
            {
              "internalType": "string",
              "name": "nit",
              "type": "string"
            },
            {
              "internalType": "string",
              "name": "empresa",
              "type": "string"
            },
            {
              "internalType": "string",
              "name": "contacto",
              "type": "string"
            },
            {
              "internalType": "string",
              "name": "telefono",
              "type": "string"
            },
            {
              "internalType": "string",
              "name": "correo",
              "type": "string"
            },
            {
              "internalType": "string",
              "name": "departamento",
              "type": "string"
            },
            {
              "internalType": "string",
              "name": "ciudad",
              "type": "string"
            },
            {
              "internalType": "string",
              "name": "direccion",
              "type": "string"
            },
            {
              "internalType": "address",
              "name": "comercializador",
              "type": "address"
            },
            {
              "internalType": "uint256",
              "name": "tipoComercio",
              "type": "uint256"
            }
          ],
          "internalType": "struct InfoContrato[]",
          "name": "arrayContracts",
          "type": "tuple[]"
        }
      ],
      "name": "existsContract",
      "outputs": [
        {
          "internalType": "bool",
          "name": "",
          "type": "bool"
        }
      ],
      "stateMutability": "pure",
      "type": "function",
      "constant": true
    },
    {
      "inputs": [
        {
          "internalType": "address",
          "name": "dir",
          "type": "address"
        },
        {
          "internalType": "address[]",
          "name": "arrayDirs",
          "type": "address[]"
        }
      ],
      "name": "existsAddress",
      "outputs": [
        {
          "internalType": "bool",
          "name": "",
          "type": "bool"
        }
      ],
      "stateMutability": "pure",
      "type": "function",
      "constant": true
    }
  ],
  "bytecode": "0x61063761003a600b82828239805160001a60731461002d57634e487b7160e01b600052600060045260246000fd5b30600052607381538281f3fe730000000000000000000000000000000000000000301460806040526004361061004b5760003560e01c8063073ce418146100505780635010ecc51461007957806371eae1741461008c575b600080fd5b61006361005e36600461029e565b61009f565b604051610070919061056b565b60405180910390f35b61006361008736600461034d565b61011e565b61006361009a36600461034d565b6101a0565b8051600090156101145760005b8251811015610112578281815181106100d557634e487b7160e01b600052603260045260246000fd5b60200260200101516001600160a01b0316846001600160a01b03161415610100576001915050610118565b8061010a816105c4565b9150506100ac565b505b5060005b92915050565b8051600090156101975760005b82518110156101955782818151811061015457634e487b7160e01b600052603260045260246000fd5b6020026020010151602001516001600160a01b0316846001600160a01b03161415610183576000915050610118565b8061018d816105c4565b91505061012b565b505b50600192915050565b8051600090156101145760005b8251811015610112578281815181106101d657634e487b7160e01b600052603260045260246000fd5b6020026020010151600001516001600160a01b0316846001600160a01b03161415610205576001915050610118565b8061020f816105c4565b9150506101ad565b80356001600160a01b038116811461022e57600080fd5b919050565b600082601f830112610243578081fd5b813567ffffffffffffffff81111561025d5761025d6105eb565b610270601f8201601f1916602001610576565b818152846020838601011115610284578283fd5b816020850160208301379081016020019190915292915050565b600080604083850312156102b0578182fd5b6102b983610217565b915060208084013567ffffffffffffffff8111156102d5578283fd5b8401601f810186136102e5578283fd5b80356102f86102f3826105a0565b610576565b81815283810190838501858402850186018a1015610314578687fd5b8694505b8385101561033d5761032981610217565b835260019490940193918501918501610318565b5080955050505050509250929050565b6000806040838503121561035f578182fd5b61036883610217565b915060208084013567ffffffffffffffff80821115610385578384fd5b818601915086601f830112610398578384fd5b81356103a66102f3826105a0565b81815284810190848601875b8481101561055a5781358701610180818e03601f190112156103d257898afd5b6103dd610180610576565b6103e88a8301610217565b81526103f660408301610217565b8a82015260608201358881111561040b578b8cfd5b6104198f8c83860101610233565b604083015250608082013588811115610430578b8cfd5b61043e8f8c83860101610233565b60608301525060a082013588811115610455578b8cfd5b6104638f8c83860101610233565b60808301525060c08201358881111561047a578b8cfd5b6104888f8c83860101610233565b60a08301525060e08201358881111561049f578b8cfd5b6104ad8f8c83860101610233565b60c083015250610100820135888111156104c5578b8cfd5b6104d38f8c83860101610233565b60e083015250610120820135888111156104eb578b8cfd5b6104f98f8c83860101610233565b6101008301525061014082013588811115610512578b8cfd5b6105208f8c83860101610233565b610120830152506105346101608301610217565b6101408201526101809190910135610160820152845292870192908701906001016103b2565b50979a909950975050505050505050565b901515815260200190565b60405181810167ffffffffffffffff81118282101715610598576105986105eb565b604052919050565b600067ffffffffffffffff8211156105ba576105ba6105eb565b5060209081020190565b60006000198214156105e457634e487b7160e01b81526011600452602481fd5b5060010190565b634e487b7160e01b600052604160045260246000fdfea26469706673582212209d2e7de93fcc9819c0870217101edd75cf4b6df9a925fe125d0bbcee0201d1b864736f6c63430008000033",
  "immutableReferences": {},
  "source": "// SPDX-License-Identifier: MIT\r\npragma solidity ^0.8.0;\r\npragma experimental ABIEncoderV2;\r\nimport \"../models/InfoContrato.sol\";\r\n\r\nlibrary Validations {\r\n    function aproveCreation(\r\n        address direction,\r\n        InfoContrato[] memory arrayDirections\r\n    ) public pure returns (bool) {\r\n        if (arrayDirections.length > 0) {\r\n            for (uint256 i = 0; i < arrayDirections.length; i++) {\r\n                if (direction == arrayDirections[i].owner) {\r\n                    return false;\r\n                }\r\n            }\r\n        }\r\n        return true;\r\n    }\r\n\r\n    function existsContract(\r\n        address contractDir,\r\n        InfoContrato[] memory arrayContracts\r\n    ) public pure returns (bool) {\r\n        if (arrayContracts.length > 0) {\r\n            for (uint256 i = 0; i < arrayContracts.length; i++) {\r\n                if (contractDir == arrayContracts[i].dirContrato) {\r\n                    return true;\r\n                }\r\n            }\r\n        }\r\n        return false;\r\n    }\r\n\r\n    function existsAddress(address dir, address[] memory arrayDirs)\r\n        public\r\n        pure\r\n        returns (bool)\r\n    {\r\n        if (arrayDirs.length > 0) {\r\n            for (uint256 i = 0; i < arrayDirs.length; i++) {\r\n                if (dir == arrayDirs[i]) {\r\n                    return true;\r\n                }\r\n            }\r\n        }\r\n        return false;\r\n    }\r\n\r\n\r\n}\r\n",
  "sourcePath": "D:\\Santiago\\BlockChain\\DemoMvmTruffle\\contracts\\libraries\\Validations.sol",
  "compiler": {
    "name": "solc",
    "version": "0.8.0+commit.c7dfd78e.Emscripten.clang"
  },
  "schemaVersion": "3.4.4",
  "updatedAt": "2022-07-11T15:50:46.161Z",
  "networkType": "ethereum",
  "devdoc": {
    "kind": "dev",
    "methods": {},
    "version": 1
  },
  "userdoc": {
    "kind": "user",
    "methods": {},
    "version": 1
  }
}